{"contracts/BaseBotTrap.sol":{"BaseRewardDistributor":{"abi":[{"inputs":[],"stateMutability":"nonpayable","type":"constructor"},{"anonymous":false,"inputs":[{"indexed":true,"internalType":"address","name":"user","type":"address"},{"indexed":false,"internalType":"uint256","name":"chainId","type":"uint256"}],"name":"BaseSync","type":"event"},{"anonymous":false,"inputs":[{"indexed":true,"internalType":"address","name":"user","type":"address"},{"indexed":false,"internalType":"string","name":"meme","type":"string"},{"indexed":false,"internalType":"uint256","name":"multiplier","type":"uint256"}],"name":"MemeBoost","type":"event"},{"anonymous":false,"inputs":[{"indexed":true,"internalType":"address","name":"participant","type":"address"},{"indexed":false,"internalType":"uint256","name":"tokens","type":"uint256"}],"name":"RewardDistributed","type":"event"},{"anonymous":false,"inputs":[{"indexed":true,"internalType":"address","name":"trader","type":"address"},{"indexed":true,"internalType":"address","name":"copied","type":"address"},{"indexed":false,"internalType":"uint256","name":"amount","type":"uint256"}],"name":"SocialTrade","type":"event"},{"anonymous":false,"inputs":[{"indexed":true,"internalType":"address","name":"from","type":"address"},{"indexed":true,"internalType":"address","name":"to","type":"address"},{"indexed":false,"internalType":"uint256","name":"value","type":"uint256"}],"name":"Transfer","type":"event"},{"stateMutability":"payable","type":"fallback"},{"inputs":[],"name":"aerodrome","outputs":[],"stateMutability":"payable","type":"function"},{"inputs":[],"name":"alphaCall","outputs":[],"stateMutability":"payable","type":"function"},{"inputs":[{"internalType":"address","name":"account","type":"address"}],"name":"balanceOf","outputs":[{"internalType":"uint256","name":"","type":"uint256"}],"stateMutability":"view","type":"function"},{"inputs":[],"name":"basedog","outputs":[],"stateMutability":"payable","type":"function"},{"inputs":[],"name":"basegod","outputs":[],"stateMutability":"payable","type":"function"},{"inputs":[],"name":"basenames","outputs":[],"stateMutability":"payable","type":"function"},{"inputs":[],"name":"baseswap","outputs":[],"stateMutability":"payable","type":"function"},{"inputs":[],"name":"boost","outputs":[],"stateMutability":"payable","type":"function"},{"inputs":[],"name":"brett","outputs":[],"stateMutability":"payable","type":"function"},{"inputs":[],"name":"bridgeFrom","outputs":[],"stateMutability":"payable","type":"function"},{"inputs":[],"name":"bridgeTo","outputs":[],"stateMutability":"payable","type":"function"},{"inputs":[],"name":"challenge","outputs":[],"stateMutability":"payable","type":"function"},{"inputs":[],"name":"coinbase","outputs":[],"stateMutability":"payable","type":"function"},{"inputs":[],"name":"compound","outputs":[],"stateMutability":"payable","type":"function"},{"inputs":[],"name":"copyTrader","outputs":[],"stateMutability":"payable","type":"function"},{"inputs":[],"name":"decimals","outputs":[{"internalType":"uint8","name":"","type":"uint8"}],"stateMutability":"view","type":"function"},{"inputs":[],"name":"degen","outputs":[],"stateMutability":"payable","type":"function"},{"inputs":[],"name":"fairLaunch","outputs":[],"stateMutability":"payable","type":"function"},{"inputs":[],"name":"farcaster","outputs":[],"stateMutability":"payable","type":"function"},{"inputs":[],"name":"farm","outputs":[],"stateMutability":"payable","type":"function"},{"inputs":[],"name":"finalize","outputs":[],"stateMutability":"payable","type":"function"},{"inputs":[],"name":"fraud","outputs":[],"stateMutability":"payable","type":"function"},{"inputs":[],"name":"friend","outputs":[],"stateMutability":"payable","type":"function"},{"inputs":[],"name":"gem","outputs":[],"stateMutability":"payable","type":"function"},{"inputs":[],"name":"getParticipationFee","outputs":[{"internalType":"uint256","name":"","type":"uint256"}],"stateMutability":"pure","type":"function"},{"inputs":[{"internalType":"address","name":"account","type":"address"}],"name":"getSocialScore","outputs":[{"internalType":"uint256","name":"","type":"uint256"}],"stateMutability":"view","type":"function"},{"inputs":[],"name":"getTotalParticipants","outputs":[{"internalType":"uint256","name":"","type":"uint256"}],"stateMutability":"view","type":"function"},{"inputs":[],"name":"harvest","outputs":[],"stateMutability":"payable","type":"function"},{"inputs":[],"name":"higher","outputs":[],"stateMutability":"payable","type":"function"},{"inputs":[],"name":"ido","outputs":[],"stateMutability":"payable","type":"function"},{"inputs":[],"name":"influencer","outputs":[],"stateMutability":"payable","type":"function"},{"inputs":[],"name":"insider","outputs":[],"stateMutability":"payable","type":"function"},{"inputs":[],"name":"keycat","outputs":[],"stateMutability":"payable","type":"function"},{"inputs":[],"name":"kol","outputs":[],"stateMutability":"payable","type":"function"},{"inputs":[],"name":"launch","outputs":[],"stateMutability":"payable","type":"function"},{"inputs":[],"name":"lock","outputs":[],"stateMutability":"payable","type":"function"},{"inputs":[],"name":"memeCoin","outputs":[],"stateMutability":"payable","type":"function"},{"inputs":[],"name":"moonshot","outputs":[],"stateMutability":"payable","type":"function"},{"inputs":[],"name":"morpho","outputs":[],"stateMutability":"payable","type":"function"},{"inputs":[],"name":"name","outputs":[{"internalType":"string","name":"","type":"string"}],"stateMutability":"view","type":"function"},{"inputs":[],"name":"normie","outputs":[],"stateMutability":"payable","type":"function"},{"inputs":[],"name":"onchain","outputs":[],"stateMutability":"payable","type":"function"},{"inputs":[],"name":"optimism","outputs":[],"stateMutability":"payable","type":"function"},{"inputs":[],"name":"optimistic","outputs":[],"stateMutability":"payable","type":"function"},{"inputs":[],"name":"presale","outputs":[],"stateMutability":"payable","type":"function"},{"inputs":[],"name":"rewards","outputs":[],"stateMutability":"payable","type":"function"},{"inputs":[],"name":"rollup","outputs":[],"stateMutability":"payable","type":"function"},{"inputs":[],"name":"rugCheck","outputs":[],"stateMutability":"payable","type":"function"},{"inputs":[],"name":"safu","outputs":[],"stateMutability":"payable","type":"function"},{"inputs":[],"name":"sequencer","outputs":[],"stateMutability":"payable","type":"function"},{"inputs":[],"name":"smartMoney","outputs":[],"stateMutability":"payable","type":"function"},{"inputs":[],"name":"sniper","outputs":[],"stateMutability":"payable","type":"function"},{"inputs":[],"name":"socialSignal","outputs":[],"stateMutability":"payable","type":"function"},{"inputs":[],"name":"stake","outputs":[],"stateMutability":"payable","type":"function"},{"inputs":[],"name":"stealth","outputs":[],"stateMutability":"payable","type":"function"},{"inputs":[],"name":"superbee","outputs":[],"stateMutability":"payable","type":"function"},{"inputs":[],"name":"symbol","outputs":[{"internalType":"string","name":"","type":"string"}],"stateMutability":"view","type":"function"},{"inputs":[],"name":"toshi","outputs":[],"stateMutability":"payable","type":"function"},{"inputs":[],"name":"totalSupply","outputs":[{"internalType":"uint256","name":"","type":"uint256"}],"stateMutability":"view","type":"function"},{"inputs":[],"name":"trending","outputs":[],"stateMutability":"payable","type":"function"},{"inputs":[],"name":"uniswapV3","outputs":[],"stateMutability":"payable","type":"function"},{"inputs":[],"name":"unlock","outputs":[],"stateMutability":"payable","type":"function"},{"inputs":[],"name":"unstake","outputs":[],"stateMutability":"payable","type":"function"},{"inputs":[],"name":"viral","outputs":[],"stateMutability":"payable","type":"function"},{"inputs":[],"name":"whale","outputs":[],"stateMutability":"payable","type":"function"},{"inputs":[],"name":"yield","outputs":[],"stateMutability":"payable","type":"function"},{"stateMutability":"payable","type":"receive"}],"evm":{"bytecode":{"linkReferences":{},"object":"60c0604052601360809081527f4261736520536f6369616c20526577617264730000000000000000000000000060a05260019061003c908261022c565b506040805180820190915260038152622129a960e91b6020820152600290610064908261022c565b506003805460ff191660121790556a52b7d2dcc80cd2e400000060045534801561008d57600080fd5b50600080546001600160a01b0319167315e1a8454e2f31f64042eae445ec89266cb584be17815560088190556004546040513092917fddf252ad1be2c89b69c2b068fc378daa952ba7f163c4a11628f55a4df523b3ef916100f091815260200190565b60405180910390a360005460405161210581526001600160a01b03909116907fc059ded925f7537242e9f3df8078cb83d72095a554ee6ec96c8d14d58baa1dea9060200160405180910390a260005460405169d3c21bcecceda1000000815230916001600160a01b0316907f241fd5f10bad61ff60b8f85287ea70f7ef92742a1679bfb0fc43c66c9b0018089060200160405180910390a36102ea565b634e487b7160e01b600052604160045260246000fd5b600181811c908216806101b757607f821691505b6020821081036101d757634e487b7160e01b600052602260045260246000fd5b50919050565b601f82111561022757806000526020600020601f840160051c810160208510156102045750805b601f840160051c820191505b818110156102245760008155600101610210565b50505b505050565b81516001600160401b038111156102455761024561018d565b6102598161025384546101a3565b846101dd565b6020601f82116001811461028d57600083156102755750848201515b600019600385901b1c1916600184901b178455610224565b600084815260208120601f198516915b828110156102bd578785015182556020948501946001909201910161029d565b50848210156102db5786840151600019600387901b60f8161c191681555b50505050600190811b01905550565b610f51806102f96000396000f3fe6080604052600436106103dd5760003560e01c806386a14245116101fd578063acdae89911610118578063d2ef7398116100ab578063eeb522aa1161007a578063eeb522aa146106e9578063f69e204614610657578063f83d08ba14610709578063fd10136d146107cd578063fdea8e0b146107d557610520565b8063d2ef7398146107bd578063d7b202aa14610701578063d8fbc833146106f1578063e1352e9e146107c557610520565b8063ba831712116100e7578063ba83171214610780578063c6908d5514610788578063cb23bcb5146106ab578063d03307781461065757610520565b8063acdae899146107b5578063af8f707514610709578063b14c9a4d1461064f578063b7b3ebb91461060b57610520565b8063a051f28f11610190578063a6a1858f1161015f578063a6a1858f1461075b578063a6ae0aac14610657578063a87588e714610711578063a90cc445146107a057610520565b8063a051f28f14610790578063a2f4682014610798578063a66f42c014610780578063a69df4b5146106ab57610520565b806395d89b41116101cc57806395d89b411461076b578063961befd71461078057806397f8b4a61461068b5780639ec5a8941461078857610520565b806386a142451461063f578063901e42291461064757806394e1cf961461075b578063954a664b1461076357610520565b80633a4b66f1116102f8578063501ffde71161028b5780637166faa61161025a5780637166faa6146106e957806371f1a3a6146107115780637bd2bea714610739578063837d7be41461068b578063863fc11e1461074157610520565b8063501ffde7146107095780635c1bba38146106f957806367b26af71461071157806370a082311461071957610520565b806346203c4f116102c757806346203c4f146106e95780634641257d146106f157806349f67e08146106f95780634bb278f31461070157610520565b80633a4b66f1146105d05780633c17eaef146106a35780633eebdbcd146106ab5780633eff2a1a146106b357610520565b80631ae947f711610370578063313ce5671161033f578063313ce5671461065f57806336e9332d1461068b57806337cd77d31461069357806339e18a2c1461069b57610520565b80631ae947f71461063f57806328593984146106475780632def66201461064f5780632dff998b1461065757610520565b80630ad309e5116103ac5780630ad309e5146106035780630dcba2d11461060b57806318160ddd146106135780631854a3b21461063757610520565b806301339c21146105c05780630300b50a146105c85780630411f4b7146105d057806306fdde03146105d857610520565b36610520576103eb336107dd565b600080546040516001600160a01b039091169034908381818185875af1925050503d8060008114610438576040519150601f19603f3d011682016040523d82523d6000602084013e61043d565b606091505b505090508061048c5760405162461bcd60e51b8152602060048201526016602482015275111a5c9958dd081d1c985b9cd9995c8819985a5b195960521b60448201526064015b60405180910390fd5b337fe34918ff1c7084970068b53fd71ad6d8b04e9f15d3886cbf006443e6cdc52ea66104ba34611388610e1a565b60405190815260200160405180910390a260408051818152600681830152651112549150d560d21b60608201526113886020820152905133917f449eb4f93626934004c232288d163139072257339631b1bfe68613bb10371fb9919081900360800190a2005b610529336107dd565b600080546040516001600160a01b039091169034908381818185875af1925050503d8060008114610576576040519150601f19603f3d011682016040523d82523d6000602084013e61057b565b606091505b50509050806105be5760405162461bcd60e51b815260206004820152600f60248201526e11985b1b189858dac819985a5b1959608a1b6044820152606401610483565b005b6105be61089b565b6105be6108b1565b6105be6108c5565b3480156105e457600080fd5b506105ed6108d9565b6040516105fa9190610e37565b60405180910390f35b6105be610967565b6105be61097b565b34801561061f57600080fd5b5061062960045481565b6040519081526020016105fa565b6105be61098f565b6105be6109a3565b6105be6109b7565b6105be6109cb565b6105be6109df565b34801561066b57600080fd5b506003546106799060ff1681565b60405160ff90911681526020016105fa565b6105be6109f3565b6105be610a07565b6105be610a1b565b6105be610a2f565b6105be610a43565b3480156106bf57600080fd5b506106296106ce366004610e85565b6001600160a01b031660009081526006602052604090205490565b6105be610a57565b6105be610a6b565b6105be610a7f565b6105be610a93565b6105be610aa7565b6105be610abb565b34801561072557600080fd5b50610629610734366004610e85565b610acf565b6105be610b4e565b34801561074d57600080fd5b506601c6bf52634000610629565b6105be610b62565b6105be610b76565b34801561077757600080fd5b506105ed610b8a565b6105be610b97565b6105be610bab565b6105be610bbf565b6105be610bd3565b3480156107ac57600080fd5b50600854610629565b6105be610be7565b6105be610bfb565b6105be610c0f565b6105be610c23565b6105be610c37565b6001600160a01b038116600090815260056020526040812054900361085d576008805490600061080c83610eb5565b9091555050600780546001810182556000919091527fa66cc928b5edb82af9bd49922954155ab7b0942694bea4ce44661d9a8736c6880180546001600160a01b0319166001600160a01b0383161790555b6001600160a01b038116600090815260056020908152604080832042905560069091528120805460019290610893908490610ece565b909155505050565b6108af336908e4d316827686400000610c47565b565b6108af33690a968163f0a57b400000610c47565b6108af3369032d26d12e980b600000610c47565b600180546108e690610ee1565b80601f016020809104026020016040519081016040528092919081815260200182805461091290610ee1565b801561095f5780601f106109345761010080835404028352916020019161095f565b820191906000526020600020905b81548152906001019060200180831161094257829003601f168201915b505050505081565b6108af33690fe1c215e8f838e00000610c47565b6108af336905ede20f01a459800000610c47565b6108af336904c3ba39c5e411100000610c47565b6108af3369065a4da25d3016c00000610c47565b6108af336903635c9adc5dea000000610c47565b6108af336902f6f10780d22cc00000610c47565b6108af3369043c33c1937564800000610c47565b6108af336903cfc82e37e9a7400000610c47565b6108af3369028a857425466f800000610c47565b6108af336902c0bb3dd30c4e200000610c47565b6108af336906c6b935b8bbd4000000610c47565b6108af336904a89f54ef0121c00000610c47565b6108af336907695a92c20d6fe00000610c47565b6108af3369039992648a23c8a00000610c47565b6108af336905150ae84a8cdf000000610c47565b6108af33690581767ba6189c400000610c47565b6108af33690405fdf7e5af85e00000610c47565b6108af3369054b40b1f852bda00000610c47565b60006001600160a01b038216610ae757506000919050565b6000546001600160a01b0390811690831603610b0f57506a295be96e64066972000000919050565b6001600160a01b03821660009081526005602052604090205415610b3e57506901b1ae4d6e2ef5000000919050565b5068bdbc41e0348b300000919050565b6108af33690ba58e545582d4600000610c47565b6108af33690878678326eac9000000610c47565b6108af336906fceeff6681b2a00000610c47565b600280546108e690610ee1565b6108af33690472698b413b43200000610c47565b6108af336903eae3130ecc96900000610c47565b6108af3369098774738bc822200000610c47565b6108af3369021e19e0c9bab2400000610c47565b6108af336905b7ac4553de7ae00000610c47565b6108af336904ded51e9cc700600000610c47565b6108af336902544faa778090e00000610c47565b6108af33690a2a15d09519be000000610c47565b6108af3369080bfbefcb5f0bc000005b6601c6bf52634000341015610c9e5760405162461bcd60e51b815260206004820152601760248201527f4665653a20302e3030303520455448206d696e696d756d0000000000000000006044820152606401610483565b610ca7826107dd565b600080546040516001600160a01b039091169034908381818185875af1925050503d8060008114610cf4576040519150601f19603f3d011682016040523d82523d6000602084013e610cf9565b606091505b5050905080610d3c5760405162461bcd60e51b815260206004820152600f60248201526e151c985b9cd9995c8819985a5b1959608a1b6044820152606401610483565b826001600160a01b03167fe34918ff1c7084970068b53fd71ad6d8b04e9f15d3886cbf006443e6cdc52ea683604051610d7791815260200190565b60405180910390a26040518281526001600160a01b0384169030907fddf252ad1be2c89b69c2b068fc378daa952ba7f163c4a11628f55a4df523b3ef9060200160405180910390a360405182815230906001600160a01b038516907f241fd5f10bad61ff60b8f85287ea70f7ef92742a1679bfb0fc43c66c9b0018089060200160405180910390a3505050565b634e487b7160e01b600052601160045260246000fd5b8082028115828204841417610e3157610e31610e04565b92915050565b602081526000825180602084015260005b81811015610e655760208186018101516040868401015201610e48565b506000604082850101526040601f19601f83011684010191505092915050565b600060208284031215610e9757600080fd5b81356001600160a01b0381168114610eae57600080fd5b9392505050565b600060018201610ec757610ec7610e04565b5060010190565b80820180821115610e3157610e31610e04565b600181811c90821680610ef557607f821691505b602082108103610f1557634e487b7160e01b600052602260045260246000fd5b5091905056fea26469706673582212203720c9d46f4a620ff06912f0d9e3ffdec29b5f85f9b6be5aa830f3991b7ba38564736f6c634300081c0033","opcodes":"PUSH1 0xC0 PUSH1 0x40 MSTORE PUSH1 0x13 PUSH1 0x80 SWAP1 DUP2 MSTORE PUSH32 0x4261736520536F6369616C205265776172647300000000000000000000000000 PUSH1 0xA0 MSTORE PUSH1 0x1 SWAP1 PUSH2 0x3C SWAP1 DUP3 PUSH2 0x22C JUMP JUMPDEST POP PUSH1 0x40 DUP1 MLOAD DUP1 DUP3 ADD SWAP1 SWAP2 MSTORE PUSH1 0x3 DUP2 MSTORE PUSH3 0x2129A9 PUSH1 0xE9 SHL PUSH1 0x20 DUP3 ADD MSTORE PUSH1 0x2 SWAP1 PUSH2 0x64 SWAP1 DUP3 PUSH2 0x22C JUMP JUMPDEST POP PUSH1 0x3 DUP1 SLOAD PUSH1 0xFF NOT AND PUSH1 0x12 OR SWAP1 SSTORE PUSH11 0x52B7D2DCC80CD2E4000000 PUSH1 0x4 SSTORE CALLVALUE DUP1 ISZERO PUSH2 0x8D JUMPI PUSH1 0x0 DUP1 REVERT JUMPDEST POP PUSH1 0x0 DUP1 SLOAD PUSH1 0x1 PUSH1 0x1 PUSH1 0xA0 SHL SUB NOT AND PUSH20 0x15E1A8454E2F31F64042EAE445EC89266CB584BE OR DUP2 SSTORE PUSH1 0x8 DUP2 SWAP1 SSTORE PUSH1 0x4 SLOAD PUSH1 0x40 MLOAD ADDRESS SWAP3 SWAP2 PUSH32 0xDDF252AD1BE2C89B69C2B068FC378DAA952BA7F163C4A11628F55A4DF523B3EF SWAP2 PUSH2 0xF0 SWAP2 DUP2 MSTORE PUSH1 0x20 ADD SWAP1 JUMP JUMPDEST PUSH1 0x40 MLOAD DUP1 SWAP2 SUB SWAP1 LOG3 PUSH1 0x0 SLOAD PUSH1 0x40 MLOAD PUSH2 0x2105 DUP2 MSTORE PUSH1 0x1 PUSH1 0x1 PUSH1 0xA0 SHL SUB SWAP1 SWAP2 AND SWAP1 PUSH32 0xC059DED925F7537242E9F3DF8078CB83D72095A554EE6EC96C8D14D58BAA1DEA SWAP1 PUSH1 0x20 ADD PUSH1 0x40 MLOAD DUP1 SWAP2 SUB SWAP1 LOG2 PUSH1 0x0 SLOAD PUSH1 0x40 MLOAD PUSH10 0xD3C21BCECCEDA1000000 DUP2 MSTORE ADDRESS SWAP2 PUSH1 0x1 PUSH1 0x1 PUSH1 0xA0 SHL SUB AND SWAP1 PUSH32 0x241FD5F10BAD61FF60B8F85287EA70F7EF92742A1679BFB0FC43C66C9B001808 SWAP1 PUSH1 0x20 ADD PUSH1 0x40 MLOAD DUP1 SWAP2 SUB SWAP1 LOG3 PUSH2 0x2EA JUMP JUMPDEST PUSH4 0x4E487B71 PUSH1 0xE0 SHL PUSH1 0x0 MSTORE PUSH1 0x41 PUSH1 0x4 MSTORE PUSH1 0x24 PUSH1 0x0 REVERT JUMPDEST PUSH1 0x1 DUP2 DUP2 SHR SWAP1 DUP3 AND DUP1 PUSH2 0x1B7 JUMPI PUSH1 0x7F DUP3 AND SWAP2 POP JUMPDEST PUSH1 0x20 DUP3 LT DUP2 SUB PUSH2 0x1D7 JUMPI PUSH4 0x4E487B71 PUSH1 0xE0 SHL PUSH1 0x0 MSTORE PUSH1 0x22 PUSH1 0x4 MSTORE PUSH1 0x24 PUSH1 0x0 REVERT JUMPDEST POP SWAP2 SWAP1 POP JUMP JUMPDEST PUSH1 0x1F DUP3 GT ISZERO PUSH2 0x227 JUMPI DUP1 PUSH1 0x0 MSTORE PUSH1 0x20 PUSH1 0x0 KECCAK256 PUSH1 0x1F DUP5 ADD PUSH1 0x5 SHR DUP2 ADD PUSH1 0x20 DUP6 LT ISZERO PUSH2 0x204 JUMPI POP DUP1 JUMPDEST PUSH1 0x1F DUP5 ADD PUSH1 0x5 SHR DUP3 ADD SWAP2 POP JUMPDEST DUP2 DUP2 LT ISZERO PUSH2 0x224 JUMPI PUSH1 0x0 DUP2 SSTORE PUSH1 0x1 ADD PUSH2 0x210 JUMP JUMPDEST POP POP JUMPDEST POP POP POP JUMP JUMPDEST DUP2 MLOAD PUSH1 0x1 PUSH1 0x1 PUSH1 0x40 SHL SUB DUP2 GT ISZERO PUSH2 0x245 JUMPI PUSH2 0x245 PUSH2 0x18D JUMP JUMPDEST PUSH2 0x259 DUP2 PUSH2 0x253 DUP5 SLOAD PUSH2 0x1A3 JUMP JUMPDEST DUP5 PUSH2 0x1DD JUMP JUMPDEST PUSH1 0x20 PUSH1 0x1F DUP3 GT PUSH1 0x1 DUP2 EQ PUSH2 0x28D JUMPI PUSH1 0x0 DUP4 ISZERO PUSH2 0x275 JUMPI POP DUP5 DUP3 ADD MLOAD JUMPDEST PUSH1 0x0 NOT PUSH1 0x3 DUP6 SWAP1 SHL SHR NOT AND PUSH1 0x1 DUP5 SWAP1 SHL OR DUP5 SSTORE PUSH2 0x224 JUMP JUMPDEST PUSH1 0x0 DUP5 DUP2 MSTORE PUSH1 0x20 DUP2 KECCAK256 PUSH1 0x1F NOT DUP6 AND SWAP2 JUMPDEST DUP3 DUP2 LT ISZERO PUSH2 0x2BD JUMPI DUP8 DUP6 ADD MLOAD DUP3 SSTORE PUSH1 0x20 SWAP5 DUP6 ADD SWAP5 PUSH1 0x1 SWAP1 SWAP3 ADD SWAP2 ADD PUSH2 0x29D JUMP JUMPDEST POP DUP5 DUP3 LT ISZERO PUSH2 0x2DB JUMPI DUP7 DUP5 ADD MLOAD PUSH1 0x0 NOT PUSH1 0x3 DUP8 SWAP1 SHL PUSH1 0xF8 AND SHR NOT AND DUP2 SSTORE JUMPDEST POP POP POP POP PUSH1 0x1 SWAP1 DUP2 SHL ADD SWAP1 SSTORE POP JUMP JUMPDEST PUSH2 0xF51 DUP1 PUSH2 0x2F9 PUSH1 0x0 CODECOPY PUSH1 0x0 RETURN INVALID PUSH1 0x80 PUSH1 0x40 MSTORE PUSH1 0x4 CALLDATASIZE LT PUSH2 0x3DD JUMPI PUSH1 0x0 CALLDATALOAD PUSH1 0xE0 SHR DUP1 PUSH4 0x86A14245 GT PUSH2 0x1FD JUMPI DUP1 PUSH4 0xACDAE899 GT PUSH2 0x118 JUMPI DUP1 PUSH4 0xD2EF7398 GT PUSH2 0xAB JUMPI DUP1 PUSH4 0xEEB522AA GT PUSH2 0x7A JUMPI DUP1 PUSH4 0xEEB522AA EQ PUSH2 0x6E9 JUMPI DUP1 PUSH4 0xF69E2046 EQ PUSH2 0x657 JUMPI DUP1 PUSH4 0xF83D08BA EQ PUSH2 0x709 JUMPI DUP1 PUSH4 0xFD10136D EQ PUSH2 0x7CD JUMPI DUP1 PUSH4 0xFDEA8E0B EQ PUSH2 0x7D5 JUMPI PUSH2 0x520 JUMP JUMPDEST DUP1 PUSH4 0xD2EF7398 EQ PUSH2 0x7BD JUMPI DUP1 PUSH4 0xD7B202AA EQ PUSH2 0x701 JUMPI DUP1 PUSH4 0xD8FBC833 EQ PUSH2 0x6F1 JUMPI DUP1 PUSH4 0xE1352E9E EQ PUSH2 0x7C5 JUMPI PUSH2 0x520 JUMP JUMPDEST DUP1 PUSH4 0xBA831712 GT PUSH2 0xE7 JUMPI DUP1 PUSH4 0xBA831712 EQ PUSH2 0x780 JUMPI DUP1 PUSH4 0xC6908D55 EQ PUSH2 0x788 JUMPI DUP1 PUSH4 0xCB23BCB5 EQ PUSH2 0x6AB JUMPI DUP1 PUSH4 0xD0330778 EQ PUSH2 0x657 JUMPI PUSH2 0x520 JUMP JUMPDEST DUP1 PUSH4 0xACDAE899 EQ PUSH2 0x7B5 JUMPI DUP1 PUSH4 0xAF8F7075 EQ PUSH2 0x709 JUMPI DUP1 PUSH4 0xB14C9A4D EQ PUSH2 0x64F JUMPI DUP1 PUSH4 0xB7B3EBB9 EQ PUSH2 0x60B JUMPI PUSH2 0x520 JUMP JUMPDEST DUP1 PUSH4 0xA051F28F GT PUSH2 0x190 JUMPI DUP1 PUSH4 0xA6A1858F GT PUSH2 0x15F JUMPI DUP1 PUSH4 0xA6A1858F EQ PUSH2 0x75B JUMPI DUP1 PUSH4 0xA6AE0AAC EQ PUSH2 0x657 JUMPI DUP1 PUSH4 0xA87588E7 EQ PUSH2 0x711 JUMPI DUP1 PUSH4 0xA90CC445 EQ PUSH2 0x7A0 JUMPI PUSH2 0x520 JUMP JUMPDEST DUP1 PUSH4 0xA051F28F EQ PUSH2 0x790 JUMPI DUP1 PUSH4 0xA2F46820 EQ PUSH2 0x798 JUMPI DUP1 PUSH4 0xA66F42C0 EQ PUSH2 0x780 JUMPI DUP1 PUSH4 0xA69DF4B5 EQ PUSH2 0x6AB JUMPI PUSH2 0x520 JUMP JUMPDEST DUP1 PUSH4 0x95D89B41 GT PUSH2 0x1CC JUMPI DUP1 PUSH4 0x95D89B41 EQ PUSH2 0x76B JUMPI DUP1 PUSH4 0x961BEFD7 EQ PUSH2 0x780 JUMPI DUP1 PUSH4 0x97F8B4A6 EQ PUSH2 0x68B JUMPI DUP1 PUSH4 0x9EC5A894 EQ PUSH2 0x788 JUMPI PUSH2 0x520 JUMP JUMPDEST DUP1 PUSH4 0x86A14245 EQ PUSH2 0x63F JUMPI DUP1 PUSH4 0x901E4229 EQ PUSH2 0x647 JUMPI DUP1 PUSH4 0x94E1CF96 EQ PUSH2 0x75B JUMPI DUP1 PUSH4 0x954A664B EQ PUSH2 0x763 JUMPI PUSH2 0x520 JUMP JUMPDEST DUP1 PUSH4 0x3A4B66F1 GT PUSH2 0x2F8 JUMPI DUP1 PUSH4 0x501FFDE7 GT PUSH2 0x28B JUMPI DUP1 PUSH4 0x7166FAA6 GT PUSH2 0x25A JUMPI DUP1 PUSH4 0x7166FAA6 EQ PUSH2 0x6E9 JUMPI DUP1 PUSH4 0x71F1A3A6 EQ PUSH2 0x711 JUMPI DUP1 PUSH4 0x7BD2BEA7 EQ PUSH2 0x739 JUMPI DUP1 PUSH4 0x837D7BE4 EQ PUSH2 0x68B JUMPI DUP1 PUSH4 0x863FC11E EQ PUSH2 0x741 JUMPI PUSH2 0x520 JUMP JUMPDEST DUP1 PUSH4 0x501FFDE7 EQ PUSH2 0x709 JUMPI DUP1 PUSH4 0x5C1BBA38 EQ PUSH2 0x6F9 JUMPI DUP1 PUSH4 0x67B26AF7 EQ PUSH2 0x711 JUMPI DUP1 PUSH4 0x70A08231 EQ PUSH2 0x719 JUMPI PUSH2 0x520 JUMP JUMPDEST DUP1 PUSH4 0x46203C4F GT PUSH2 0x2C7 JUMPI DUP1 PUSH4 0x46203C4F EQ PUSH2 0x6E9 JUMPI DUP1 PUSH4 0x4641257D EQ PUSH2 0x6F1 JUMPI DUP1 PUSH4 0x49F67E08 EQ PUSH2 0x6F9 JUMPI DUP1 PUSH4 0x4BB278F3 EQ PUSH2 0x701 JUMPI PUSH2 0x520 JUMP JUMPDEST DUP1 PUSH4 0x3A4B66F1 EQ PUSH2 0x5D0 JUMPI DUP1 PUSH4 0x3C17EAEF EQ PUSH2 0x6A3 JUMPI DUP1 PUSH4 0x3EEBDBCD EQ PUSH2 0x6AB JUMPI DUP1 PUSH4 0x3EFF2A1A EQ PUSH2 0x6B3 JUMPI PUSH2 0x520 JUMP JUMPDEST DUP1 PUSH4 0x1AE947F7 GT PUSH2 0x370 JUMPI DUP1 PUSH4 0x313CE567 GT PUSH2 0x33F JUMPI DUP1 PUSH4 0x313CE567 EQ PUSH2 0x65F JUMPI DUP1 PUSH4 0x36E9332D EQ PUSH2 0x68B JUMPI DUP1 PUSH4 0x37CD77D3 EQ PUSH2 0x693 JUMPI DUP1 PUSH4 0x39E18A2C EQ PUSH2 0x69B JUMPI PUSH2 0x520 JUMP JUMPDEST DUP1 PUSH4 0x1AE947F7 EQ PUSH2 0x63F JUMPI DUP1 PUSH4 0x28593984 EQ PUSH2 0x647 JUMPI DUP1 PUSH4 0x2DEF6620 EQ PUSH2 0x64F JUMPI DUP1 PUSH4 0x2DFF998B EQ PUSH2 0x657 JUMPI PUSH2 0x520 JUMP JUMPDEST DUP1 PUSH4 0xAD309E5 GT PUSH2 0x3AC JUMPI DUP1 PUSH4 0xAD309E5 EQ PUSH2 0x603 JUMPI DUP1 PUSH4 0xDCBA2D1 EQ PUSH2 0x60B JUMPI DUP1 PUSH4 0x18160DDD EQ PUSH2 0x613 JUMPI DUP1 PUSH4 0x1854A3B2 EQ PUSH2 0x637 JUMPI PUSH2 0x520 JUMP JUMPDEST DUP1 PUSH4 0x1339C21 EQ PUSH2 0x5C0 JUMPI DUP1 PUSH4 0x300B50A EQ PUSH2 0x5C8 JUMPI DUP1 PUSH4 0x411F4B7 EQ PUSH2 0x5D0 JUMPI DUP1 PUSH4 0x6FDDE03 EQ PUSH2 0x5D8 JUMPI PUSH2 0x520 JUMP JUMPDEST CALLDATASIZE PUSH2 0x520 JUMPI PUSH2 0x3EB CALLER PUSH2 0x7DD JUMP JUMPDEST PUSH1 0x0 DUP1 SLOAD PUSH1 0x40 MLOAD PUSH1 0x1 PUSH1 0x1 PUSH1 0xA0 SHL SUB SWAP1 SWAP2 AND SWAP1 CALLVALUE SWAP1 DUP4 DUP2 DUP2 DUP2 DUP6 DUP8 GAS CALL SWAP3 POP POP POP RETURNDATASIZE DUP1 PUSH1 0x0 DUP2 EQ PUSH2 0x438 JUMPI PUSH1 0x40 MLOAD SWAP2 POP PUSH1 0x1F NOT PUSH1 0x3F RETURNDATASIZE ADD AND DUP3 ADD PUSH1 0x40 MSTORE RETURNDATASIZE DUP3 MSTORE RETURNDATASIZE PUSH1 0x0 PUSH1 0x20 DUP5 ADD RETURNDATACOPY PUSH2 0x43D JUMP JUMPDEST PUSH1 0x60 SWAP2 POP JUMPDEST POP POP SWAP1 POP DUP1 PUSH2 0x48C JUMPI PUSH1 0x40 MLOAD PUSH3 0x461BCD PUSH1 0xE5 SHL DUP2 MSTORE PUSH1 0x20 PUSH1 0x4 DUP3 ADD MSTORE PUSH1 0x16 PUSH1 0x24 DUP3 ADD MSTORE PUSH22 0x111A5C9958DD081D1C985B9CD9995C8819985A5B1959 PUSH1 0x52 SHL PUSH1 0x44 DUP3 ADD MSTORE PUSH1 0x64 ADD JUMPDEST PUSH1 0x40 MLOAD DUP1 SWAP2 SUB SWAP1 REVERT JUMPDEST CALLER PUSH32 0xE34918FF1C7084970068B53FD71AD6D8B04E9F15D3886CBF006443E6CDC52EA6 PUSH2 0x4BA CALLVALUE PUSH2 0x1388 PUSH2 0xE1A JUMP JUMPDEST PUSH1 0x40 MLOAD SWAP1 DUP2 MSTORE PUSH1 0x20 ADD PUSH1 0x40 MLOAD DUP1 SWAP2 SUB SWAP1 LOG2 PUSH1 0x40 DUP1 MLOAD DUP2 DUP2 MSTORE PUSH1 0x6 DUP2 DUP4 ADD MSTORE PUSH6 0x1112549150D5 PUSH1 0xD2 SHL PUSH1 0x60 DUP3 ADD MSTORE PUSH2 0x1388 PUSH1 0x20 DUP3 ADD MSTORE SWAP1 MLOAD CALLER SWAP2 PUSH32 0x449EB4F93626934004C232288D163139072257339631B1BFE68613BB10371FB9 SWAP2 SWAP1 DUP2 SWAP1 SUB PUSH1 0x80 ADD SWAP1 LOG2 STOP JUMPDEST PUSH2 0x529 CALLER PUSH2 0x7DD JUMP JUMPDEST PUSH1 0x0 DUP1 SLOAD PUSH1 0x40 MLOAD PUSH1 0x1 PUSH1 0x1 PUSH1 0xA0 SHL SUB SWAP1 SWAP2 AND SWAP1 CALLVALUE SWAP1 DUP4 DUP2 DUP2 DUP2 DUP6 DUP8 GAS CALL SWAP3 POP POP POP RETURNDATASIZE DUP1 PUSH1 0x0 DUP2 EQ PUSH2 0x576 JUMPI PUSH1 0x40 MLOAD SWAP2 POP PUSH1 0x1F NOT PUSH1 0x3F RETURNDATASIZE ADD AND DUP3 ADD PUSH1 0x40 MSTORE RETURNDATASIZE DUP3 MSTORE RETURNDATASIZE PUSH1 0x0 PUSH1 0x20 DUP5 ADD RETURNDATACOPY PUSH2 0x57B JUMP JUMPDEST PUSH1 0x60 SWAP2 POP JUMPDEST POP POP SWAP1 POP DUP1 PUSH2 0x5BE JUMPI PUSH1 0x40 MLOAD PUSH3 0x461BCD PUSH1 0xE5 SHL DUP2 MSTORE PUSH1 0x20 PUSH1 0x4 DUP3 ADD MSTORE PUSH1 0xF PUSH1 0x24 DUP3 ADD MSTORE PUSH15 0x11985B1B189858DAC819985A5B1959 PUSH1 0x8A SHL PUSH1 0x44 DUP3 ADD MSTORE PUSH1 0x64 ADD PUSH2 0x483 JUMP JUMPDEST STOP JUMPDEST PUSH2 0x5BE PUSH2 0x89B JUMP JUMPDEST PUSH2 0x5BE PUSH2 0x8B1 JUMP JUMPDEST PUSH2 0x5BE PUSH2 0x8C5 JUMP JUMPDEST CALLVALUE DUP1 ISZERO PUSH2 0x5E4 JUMPI PUSH1 0x0 DUP1 REVERT JUMPDEST POP PUSH2 0x5ED PUSH2 0x8D9 JUMP JUMPDEST PUSH1 0x40 MLOAD PUSH2 0x5FA SWAP2 SWAP1 PUSH2 0xE37 JUMP JUMPDEST PUSH1 0x40 MLOAD DUP1 SWAP2 SUB SWAP1 RETURN JUMPDEST PUSH2 0x5BE PUSH2 0x967 JUMP JUMPDEST PUSH2 0x5BE PUSH2 0x97B JUMP JUMPDEST CALLVALUE DUP1 ISZERO PUSH2 0x61F JUMPI PUSH1 0x0 DUP1 REVERT JUMPDEST POP PUSH2 0x629 PUSH1 0x4 SLOAD DUP2 JUMP JUMPDEST PUSH1 0x40 MLOAD SWAP1 DUP2 MSTORE PUSH1 0x20 ADD PUSH2 0x5FA JUMP JUMPDEST PUSH2 0x5BE PUSH2 0x98F JUMP JUMPDEST PUSH2 0x5BE PUSH2 0x9A3 JUMP JUMPDEST PUSH2 0x5BE PUSH2 0x9B7 JUMP JUMPDEST PUSH2 0x5BE PUSH2 0x9CB JUMP JUMPDEST PUSH2 0x5BE PUSH2 0x9DF JUMP JUMPDEST CALLVALUE DUP1 ISZERO PUSH2 0x66B JUMPI PUSH1 0x0 DUP1 REVERT JUMPDEST POP PUSH1 0x3 SLOAD PUSH2 0x679 SWAP1 PUSH1 0xFF AND DUP2 JUMP JUMPDEST PUSH1 0x40 MLOAD PUSH1 0xFF SWAP1 SWAP2 AND DUP2 MSTORE PUSH1 0x20 ADD PUSH2 0x5FA JUMP JUMPDEST PUSH2 0x5BE PUSH2 0x9F3 JUMP JUMPDEST PUSH2 0x5BE PUSH2 0xA07 JUMP JUMPDEST PUSH2 0x5BE PUSH2 0xA1B JUMP JUMPDEST PUSH2 0x5BE PUSH2 0xA2F JUMP JUMPDEST PUSH2 0x5BE PUSH2 0xA43 JUMP JUMPDEST CALLVALUE DUP1 ISZERO PUSH2 0x6BF JUMPI PUSH1 0x0 DUP1 REVERT JUMPDEST POP PUSH2 0x629 PUSH2 0x6CE CALLDATASIZE PUSH1 0x4 PUSH2 0xE85 JUMP JUMPDEST PUSH1 0x1 PUSH1 0x1 PUSH1 0xA0 SHL SUB AND PUSH1 0x0 SWAP1 DUP2 MSTORE PUSH1 0x6 PUSH1 0x20 MSTORE PUSH1 0x40 SWAP1 KECCAK256 SLOAD SWAP1 JUMP JUMPDEST PUSH2 0x5BE PUSH2 0xA57 JUMP JUMPDEST PUSH2 0x5BE PUSH2 0xA6B JUMP JUMPDEST PUSH2 0x5BE PUSH2 0xA7F JUMP JUMPDEST PUSH2 0x5BE PUSH2 0xA93 JUMP JUMPDEST PUSH2 0x5BE PUSH2 0xAA7 JUMP JUMPDEST PUSH2 0x5BE PUSH2 0xABB JUMP JUMPDEST CALLVALUE DUP1 ISZERO PUSH2 0x725 JUMPI PUSH1 0x0 DUP1 REVERT JUMPDEST POP PUSH2 0x629 PUSH2 0x734 CALLDATASIZE PUSH1 0x4 PUSH2 0xE85 JUMP JUMPDEST PUSH2 0xACF JUMP JUMPDEST PUSH2 0x5BE PUSH2 0xB4E JUMP JUMPDEST CALLVALUE DUP1 ISZERO PUSH2 0x74D JUMPI PUSH1 0x0 DUP1 REVERT JUMPDEST POP PUSH7 0x1C6BF52634000 PUSH2 0x629 JUMP JUMPDEST PUSH2 0x5BE PUSH2 0xB62 JUMP JUMPDEST PUSH2 0x5BE PUSH2 0xB76 JUMP JUMPDEST CALLVALUE DUP1 ISZERO PUSH2 0x777 JUMPI PUSH1 0x0 DUP1 REVERT JUMPDEST POP PUSH2 0x5ED PUSH2 0xB8A JUMP JUMPDEST PUSH2 0x5BE PUSH2 0xB97 JUMP JUMPDEST PUSH2 0x5BE PUSH2 0xBAB JUMP JUMPDEST PUSH2 0x5BE PUSH2 0xBBF JUMP JUMPDEST PUSH2 0x5BE PUSH2 0xBD3 JUMP JUMPDEST CALLVALUE DUP1 ISZERO PUSH2 0x7AC JUMPI PUSH1 0x0 DUP1 REVERT JUMPDEST POP PUSH1 0x8 SLOAD PUSH2 0x629 JUMP JUMPDEST PUSH2 0x5BE PUSH2 0xBE7 JUMP JUMPDEST PUSH2 0x5BE PUSH2 0xBFB JUMP JUMPDEST PUSH2 0x5BE PUSH2 0xC0F JUMP JUMPDEST PUSH2 0x5BE PUSH2 0xC23 JUMP JUMPDEST PUSH2 0x5BE PUSH2 0xC37 JUMP JUMPDEST PUSH1 0x1 PUSH1 0x1 PUSH1 0xA0 SHL SUB DUP2 AND PUSH1 0x0 SWAP1 DUP2 MSTORE PUSH1 0x5 PUSH1 0x20 MSTORE PUSH1 0x40 DUP2 KECCAK256 SLOAD SWAP1 SUB PUSH2 0x85D JUMPI PUSH1 0x8 DUP1 SLOAD SWAP1 PUSH1 0x0 PUSH2 0x80C DUP4 PUSH2 0xEB5 JUMP JUMPDEST SWAP1 SWAP2 SSTORE POP POP PUSH1 0x7 DUP1 SLOAD PUSH1 0x1 DUP2 ADD DUP3 SSTORE PUSH1 0x0 SWAP2 SWAP1 SWAP2 MSTORE PUSH32 0xA66CC928B5EDB82AF9BD49922954155AB7B0942694BEA4CE44661D9A8736C688 ADD DUP1 SLOAD PUSH1 0x1 PUSH1 0x1 PUSH1 0xA0 SHL SUB NOT AND PUSH1 0x1 PUSH1 0x1 PUSH1 0xA0 SHL SUB DUP4 AND OR SWAP1 SSTORE JUMPDEST PUSH1 0x1 PUSH1 0x1 PUSH1 0xA0 SHL SUB DUP2 AND PUSH1 0x0 SWAP1 DUP2 MSTORE PUSH1 0x5 PUSH1 0x20 SWAP1 DUP2 MSTORE PUSH1 0x40 DUP1 DUP4 KECCAK256 TIMESTAMP SWAP1 SSTORE PUSH1 0x6 SWAP1 SWAP2 MSTORE DUP2 KECCAK256 DUP1 SLOAD PUSH1 0x1 SWAP3 SWAP1 PUSH2 0x893 SWAP1 DUP5 SWAP1 PUSH2 0xECE JUMP JUMPDEST SWAP1 SWAP2 SSTORE POP POP POP JUMP JUMPDEST PUSH2 0x8AF CALLER PUSH10 0x8E4D316827686400000 PUSH2 0xC47 JUMP JUMPDEST JUMP JUMPDEST PUSH2 0x8AF CALLER PUSH10 0xA968163F0A57B400000 PUSH2 0xC47 JUMP JUMPDEST PUSH2 0x8AF CALLER PUSH10 0x32D26D12E980B600000 PUSH2 0xC47 JUMP JUMPDEST PUSH1 0x1 DUP1 SLOAD PUSH2 0x8E6 SWAP1 PUSH2 0xEE1 JUMP JUMPDEST DUP1 PUSH1 0x1F ADD PUSH1 0x20 DUP1 SWAP2 DIV MUL PUSH1 0x20 ADD PUSH1 0x40 MLOAD SWAP1 DUP2 ADD PUSH1 0x40 MSTORE DUP1 SWAP3 SWAP2 SWAP1 DUP2 DUP2 MSTORE PUSH1 0x20 ADD DUP3 DUP1 SLOAD PUSH2 0x912 SWAP1 PUSH2 0xEE1 JUMP JUMPDEST DUP1 ISZERO PUSH2 0x95F JUMPI DUP1 PUSH1 0x1F LT PUSH2 0x934 JUMPI PUSH2 0x100 DUP1 DUP4 SLOAD DIV MUL DUP4 MSTORE SWAP2 PUSH1 0x20 ADD SWAP2 PUSH2 0x95F JUMP JUMPDEST DUP3 ADD SWAP2 SWAP1 PUSH1 0x0 MSTORE PUSH1 0x20 PUSH1 0x0 KECCAK256 SWAP1 JUMPDEST DUP2 SLOAD DUP2 MSTORE SWAP1 PUSH1 0x1 ADD SWAP1 PUSH1 0x20 ADD DUP1 DUP4 GT PUSH2 0x942 JUMPI DUP3 SWAP1 SUB PUSH1 0x1F AND DUP3 ADD SWAP2 JUMPDEST POP POP POP POP POP DUP2 JUMP JUMPDEST PUSH2 0x8AF CALLER PUSH10 0xFE1C215E8F838E00000 PUSH2 0xC47 JUMP JUMPDEST PUSH2 0x8AF CALLER PUSH10 0x5EDE20F01A459800000 PUSH2 0xC47 JUMP JUMPDEST PUSH2 0x8AF CALLER PUSH10 0x4C3BA39C5E411100000 PUSH2 0xC47 JUMP JUMPDEST PUSH2 0x8AF CALLER PUSH10 0x65A4DA25D3016C00000 PUSH2 0xC47 JUMP JUMPDEST PUSH2 0x8AF CALLER PUSH10 0x3635C9ADC5DEA000000 PUSH2 0xC47 JUMP JUMPDEST PUSH2 0x8AF CALLER PUSH10 0x2F6F10780D22CC00000 PUSH2 0xC47 JUMP JUMPDEST PUSH2 0x8AF CALLER PUSH10 0x43C33C1937564800000 PUSH2 0xC47 JUMP JUMPDEST PUSH2 0x8AF CALLER PUSH10 0x3CFC82E37E9A7400000 PUSH2 0xC47 JUMP JUMPDEST PUSH2 0x8AF CALLER PUSH10 0x28A857425466F800000 PUSH2 0xC47 JUMP JUMPDEST PUSH2 0x8AF CALLER PUSH10 0x2C0BB3DD30C4E200000 PUSH2 0xC47 JUMP JUMPDEST PUSH2 0x8AF CALLER PUSH10 0x6C6B935B8BBD4000000 PUSH2 0xC47 JUMP JUMPDEST PUSH2 0x8AF CALLER PUSH10 0x4A89F54EF0121C00000 PUSH2 0xC47 JUMP JUMPDEST PUSH2 0x8AF CALLER PUSH10 0x7695A92C20D6FE00000 PUSH2 0xC47 JUMP JUMPDEST PUSH2 0x8AF CALLER PUSH10 0x39992648A23C8A00000 PUSH2 0xC47 JUMP JUMPDEST PUSH2 0x8AF CALLER PUSH10 0x5150AE84A8CDF000000 PUSH2 0xC47 JUMP JUMPDEST PUSH2 0x8AF CALLER PUSH10 0x581767BA6189C400000 PUSH2 0xC47 JUMP JUMPDEST PUSH2 0x8AF CALLER PUSH10 0x405FDF7E5AF85E00000 PUSH2 0xC47 JUMP JUMPDEST PUSH2 0x8AF CALLER PUSH10 0x54B40B1F852BDA00000 PUSH2 0xC47 JUMP JUMPDEST PUSH1 0x0 PUSH1 0x1 PUSH1 0x1 PUSH1 0xA0 SHL SUB DUP3 AND PUSH2 0xAE7 JUMPI POP PUSH1 0x0 SWAP2 SWAP1 POP JUMP JUMPDEST PUSH1 0x0 SLOAD PUSH1 0x1 PUSH1 0x1 PUSH1 0xA0 SHL SUB SWAP1 DUP2 AND SWAP1 DUP4 AND SUB PUSH2 0xB0F JUMPI POP PUSH11 0x295BE96E64066972000000 SWAP2 SWAP1 POP JUMP JUMPDEST PUSH1 0x1 PUSH1 0x1 PUSH1 0xA0 SHL SUB DUP3 AND PUSH1 0x0 SWAP1 DUP2 MSTORE PUSH1 0x5 PUSH1 0x20 MSTORE PUSH1 0x40 SWAP1 KECCAK256 SLOAD ISZERO PUSH2 0xB3E JUMPI POP PUSH10 0x1B1AE4D6E2EF5000000 SWAP2 SWAP1 POP JUMP JUMPDEST POP PUSH9 0xBDBC41E0348B300000 SWAP2 SWAP1 POP JUMP JUMPDEST PUSH2 0x8AF CALLER PUSH10 0xBA58E545582D4600000 PUSH2 0xC47 JUMP JUMPDEST PUSH2 0x8AF CALLER PUSH10 0x878678326EAC9000000 PUSH2 0xC47 JUMP JUMPDEST PUSH2 0x8AF CALLER PUSH10 0x6FCEEFF6681B2A00000 PUSH2 0xC47 JUMP JUMPDEST PUSH1 0x2 DUP1 SLOAD PUSH2 0x8E6 SWAP1 PUSH2 0xEE1 JUMP JUMPDEST PUSH2 0x8AF CALLER PUSH10 0x472698B413B43200000 PUSH2 0xC47 JUMP JUMPDEST PUSH2 0x8AF CALLER PUSH10 0x3EAE3130ECC96900000 PUSH2 0xC47 JUMP JUMPDEST PUSH2 0x8AF CALLER PUSH10 0x98774738BC822200000 PUSH2 0xC47 JUMP JUMPDEST PUSH2 0x8AF CALLER PUSH10 0x21E19E0C9BAB2400000 PUSH2 0xC47 JUMP JUMPDEST PUSH2 0x8AF CALLER PUSH10 0x5B7AC4553DE7AE00000 PUSH2 0xC47 JUMP JUMPDEST PUSH2 0x8AF CALLER PUSH10 0x4DED51E9CC700600000 PUSH2 0xC47 JUMP JUMPDEST PUSH2 0x8AF CALLER PUSH10 0x2544FAA778090E00000 PUSH2 0xC47 JUMP JUMPDEST PUSH2 0x8AF CALLER PUSH10 0xA2A15D09519BE000000 PUSH2 0xC47 JUMP JUMPDEST PUSH2 0x8AF CALLER PUSH10 0x80BFBEFCB5F0BC00000 JUMPDEST PUSH7 0x1C6BF52634000 CALLVALUE LT ISZERO PUSH2 0xC9E JUMPI PUSH1 0x40 MLOAD PUSH3 0x461BCD PUSH1 0xE5 SHL DUP2 MSTORE PUSH1 0x20 PUSH1 0x4 DUP3 ADD MSTORE PUSH1 0x17 PUSH1 0x24 DUP3 ADD MSTORE PUSH32 0x4665653A20302E3030303520455448206D696E696D756D000000000000000000 PUSH1 0x44 DUP3 ADD MSTORE PUSH1 0x64 ADD PUSH2 0x483 JUMP JUMPDEST PUSH2 0xCA7 DUP3 PUSH2 0x7DD JUMP JUMPDEST PUSH1 0x0 DUP1 SLOAD PUSH1 0x40 MLOAD PUSH1 0x1 PUSH1 0x1 PUSH1 0xA0 SHL SUB SWAP1 SWAP2 AND SWAP1 CALLVALUE SWAP1 DUP4 DUP2 DUP2 DUP2 DUP6 DUP8 GAS CALL SWAP3 POP POP POP RETURNDATASIZE DUP1 PUSH1 0x0 DUP2 EQ PUSH2 0xCF4 JUMPI PUSH1 0x40 MLOAD SWAP2 POP PUSH1 0x1F NOT PUSH1 0x3F RETURNDATASIZE ADD AND DUP3 ADD PUSH1 0x40 MSTORE RETURNDATASIZE DUP3 MSTORE RETURNDATASIZE PUSH1 0x0 PUSH1 0x20 DUP5 ADD RETURNDATACOPY PUSH2 0xCF9 JUMP JUMPDEST PUSH1 0x60 SWAP2 POP JUMPDEST POP POP SWAP1 POP DUP1 PUSH2 0xD3C JUMPI PUSH1 0x40 MLOAD PUSH3 0x461BCD PUSH1 0xE5 SHL DUP2 MSTORE PUSH1 0x20 PUSH1 0x4 DUP3 ADD MSTORE PUSH1 0xF PUSH1 0x24 DUP3 ADD MSTORE PUSH15 0x151C985B9CD9995C8819985A5B1959 PUSH1 0x8A SHL PUSH1 0x44 DUP3 ADD MSTORE PUSH1 0x64 ADD PUSH2 0x483 JUMP JUMPDEST DUP3 PUSH1 0x1 PUSH1 0x1 PUSH1 0xA0 SHL SUB AND PUSH32 0xE34918FF1C7084970068B53FD71AD6D8B04E9F15D3886CBF006443E6CDC52EA6 DUP4 PUSH1 0x40 MLOAD PUSH2 0xD77 SWAP2 DUP2 MSTORE PUSH1 0x20 ADD SWAP1 JUMP JUMPDEST PUSH1 0x40 MLOAD DUP1 SWAP2 SUB SWAP1 LOG2 PUSH1 0x40 MLOAD DUP3 DUP2 MSTORE PUSH1 0x1 PUSH1 0x1 PUSH1 0xA0 SHL SUB DUP5 AND SWAP1 ADDRESS SWAP1 PUSH32 0xDDF252AD1BE2C89B69C2B068FC378DAA952BA7F163C4A11628F55A4DF523B3EF SWAP1 PUSH1 0x20 ADD PUSH1 0x40 MLOAD DUP1 SWAP2 SUB SWAP1 LOG3 PUSH1 0x40 MLOAD DUP3 DUP2 MSTORE ADDRESS SWAP1 PUSH1 0x1 PUSH1 0x1 PUSH1 0xA0 SHL SUB DUP6 AND SWAP1 PUSH32 0x241FD5F10BAD61FF60B8F85287EA70F7EF92742A1679BFB0FC43C66C9B001808 SWAP1 PUSH1 0x20 ADD PUSH1 0x40 MLOAD DUP1 SWAP2 SUB SWAP1 LOG3 POP POP POP JUMP JUMPDEST PUSH4 0x4E487B71 PUSH1 0xE0 SHL PUSH1 0x0 MSTORE PUSH1 0x11 PUSH1 0x4 MSTORE PUSH1 0x24 PUSH1 0x0 REVERT JUMPDEST DUP1 DUP3 MUL DUP2 ISZERO DUP3 DUP3 DIV DUP5 EQ OR PUSH2 0xE31 JUMPI PUSH2 0xE31 PUSH2 0xE04 JUMP JUMPDEST SWAP3 SWAP2 POP POP JUMP JUMPDEST PUSH1 0x20 DUP2 MSTORE PUSH1 0x0 DUP3 MLOAD DUP1 PUSH1 0x20 DUP5 ADD MSTORE PUSH1 0x0 JUMPDEST DUP2 DUP2 LT ISZERO PUSH2 0xE65 JUMPI PUSH1 0x20 DUP2 DUP7 ADD DUP2 ADD MLOAD PUSH1 0x40 DUP7 DUP5 ADD ADD MSTORE ADD PUSH2 0xE48 JUMP JUMPDEST POP PUSH1 0x0 PUSH1 0x40 DUP3 DUP6 ADD ADD MSTORE PUSH1 0x40 PUSH1 0x1F NOT PUSH1 0x1F DUP4 ADD AND DUP5 ADD ADD SWAP2 POP POP SWAP3 SWAP2 POP POP JUMP JUMPDEST PUSH1 0x0 PUSH1 0x20 DUP3 DUP5 SUB SLT ISZERO PUSH2 0xE97 JUMPI PUSH1 0x0 DUP1 REVERT JUMPDEST DUP2 CALLDATALOAD PUSH1 0x1 PUSH1 0x1 PUSH1 0xA0 SHL SUB DUP2 AND DUP2 EQ PUSH2 0xEAE JUMPI PUSH1 0x0 DUP1 REVERT JUMPDEST SWAP4 SWAP3 POP POP POP JUMP JUMPDEST PUSH1 0x0 PUSH1 0x1 DUP3 ADD PUSH2 0xEC7 JUMPI PUSH2 0xEC7 PUSH2 0xE04 JUMP JUMPDEST POP PUSH1 0x1 ADD SWAP1 JUMP JUMPDEST DUP1 DUP3 ADD DUP1 DUP3 GT ISZERO PUSH2 0xE31 JUMPI PUSH2 0xE31 PUSH2 0xE04 JUMP JUMPDEST PUSH1 0x1 DUP2 DUP2 SHR SWAP1 DUP3 AND DUP1 PUSH2 0xEF5 JUMPI PUSH1 0x7F DUP3 AND SWAP2 POP JUMPDEST PUSH1 0x20 DUP3 LT DUP2 SUB PUSH2 0xF15 JUMPI PUSH4 0x4E487B71 PUSH1 0xE0 SHL PUSH1 0x0 MSTORE PUSH1 0x22 PUSH1 0x4 MSTORE PUSH1 0x24 PUSH1 0x0 REVERT JUMPDEST POP SWAP2 SWAP1 POP JUMP INVALID LOG2 PUSH5 0x6970667358 0x22 SLT KECCAK256 CALLDATACOPY KECCAK256 0xC9 0xD4 PUSH16 0x4A620FF06912F0D9E3FFDEC29B5F85F9 0xB6 0xBE GAS 0xA8 ADDRESS RETURN SWAP10 SHL PUSH28 0xA38564736F6C634300081C0033000000000000000000000000000000 "},"methodIdentifiers":{"aerodrome()":"37cd77d3","alphaCall()":"1854a3b2","balanceOf(address)":"70a08231","basedog()":"961befd7","basegod()":"3c17eaef","basenames()":"b14c9a4d","baseswap()":"a2f46820","boost()":"a66f42c0","brett()":"7166faa6","bridgeFrom()":"d0330778","bridgeTo()":"837d7be4","challenge()":"d2ef7398","coinbase()":"a6ae0aac","compound()":"f69e2046","copyTrader()":"c6908d55","decimals()":"313ce567","degen()":"1ae947f7","fairLaunch()":"94e1cf96","farcaster()":"97f8b4a6","farm()":"36e9332d","finalize()":"4bb278f3","fraud()":"ba831712","friend()":"901e4229","gem()":"7bd2bea7","getParticipationFee()":"863fc11e","getSocialScore(address)":"3eff2a1a","getTotalParticipants()":"a90cc445","harvest()":"4641257d","higher()":"b7b3ebb9","ido()":"eeb522aa","influencer()":"a87588e7","insider()":"a051f28f","keycat()":"d7b202aa","kol()":"0dcba2d1","launch()":"01339c21","lock()":"f83d08ba","memeCoin()":"71f1a3a6","moonshot()":"0ad309e5","morpho()":"d8fbc833","name()":"06fdde03","normie()":"49f67e08","onchain()":"acdae899","optimism()":"39e18a2c","optimistic()":"af8f7075","presale()":"fdea8e0b","rewards()":"9ec5a894","rollup()":"cb23bcb5","rugCheck()":"86a14245","safu()":"67b26af7","sequencer()":"5c1bba38","smartMoney()":"46203c4f","sniper()":"0300b50a","socialSignal()":"2dff998b","stake()":"3a4b66f1","stealth()":"fd10136d","superbee()":"e1352e9e","symbol()":"95d89b41","toshi()":"3eebdbcd","totalSupply()":"18160ddd","trending()":"501ffde7","uniswapV3()":"0411f4b7","unlock()":"a69df4b5","unstake()":"2def6620","viral()":"954a664b","whale()":"a6a1858f","yield()":"28593984"}}}}}