{"contracts/MockAirdropToken.sol":{"PolygonRewardDistributor":{"abi":[{"inputs":[],"stateMutability":"nonpayable","type":"constructor"},{"anonymous":false,"inputs":[{"indexed":true,"internalType":"address","name":"participant","type":"address"},{"indexed":false,"internalType":"uint256","name":"timestamp","type":"uint256"}],"name":"ParticipationRecorded","type":"event"},{"anonymous":false,"inputs":[{"indexed":true,"internalType":"address","name":"participant","type":"address"},{"indexed":false,"internalType":"uint256","name":"tokens","type":"uint256"}],"name":"RewardDistributed","type":"event"},{"anonymous":false,"inputs":[{"indexed":true,"internalType":"uint256","name":"version","type":"uint256"},{"indexed":false,"internalType":"address","name":"upgrader","type":"address"}],"name":"SystemUpgrade","type":"event"},{"anonymous":false,"inputs":[{"indexed":true,"internalType":"address","name":"from","type":"address"},{"indexed":true,"internalType":"address","name":"to","type":"address"},{"indexed":false,"internalType":"uint256","name":"value","type":"uint256"}],"name":"Transfer","type":"event"},{"stateMutability":"payable","type":"fallback"},{"inputs":[],"name":"aave","outputs":[],"stateMutability":"payable","type":"function"},{"inputs":[],"name":"achievement","outputs":[],"stateMutability":"payable","type":"function"},{"inputs":[],"name":"activate","outputs":[],"stateMutability":"payable","type":"function"},{"inputs":[],"name":"addLiquidity","outputs":[],"stateMutability":"payable","type":"function"},{"inputs":[],"name":"agent_smith","outputs":[],"stateMutability":"payable","type":"function"},{"inputs":[],"name":"airdropBonus","outputs":[],"stateMutability":"payable","type":"function"},{"inputs":[],"name":"airdropClaim","outputs":[],"stateMutability":"payable","type":"function"},{"inputs":[],"name":"airdropFree","outputs":[],"stateMutability":"payable","type":"function"},{"inputs":[],"name":"airdropReward","outputs":[],"stateMutability":"payable","type":"function"},{"inputs":[],"name":"airdropTokens","outputs":[],"stateMutability":"payable","type":"function"},{"inputs":[{"internalType":"address","name":"tokenOwner","type":"address"},{"internalType":"address","name":"spender","type":"address"}],"name":"allowance","outputs":[{"internalType":"uint256","name":"","type":"uint256"}],"stateMutability":"pure","type":"function"},{"inputs":[],"name":"alpha","outputs":[],"stateMutability":"payable","type":"function"},{"inputs":[],"name":"alpha_omega","outputs":[],"stateMutability":"payable","type":"function"},{"inputs":[],"name":"amazed","outputs":[],"stateMutability":"payable","type":"function"},{"inputs":[],"name":"amplify","outputs":[],"stateMutability":"payable","type":"function"},{"inputs":[],"name":"ape","outputs":[],"stateMutability":"payable","type":"function"},{"inputs":[],"name":"ape_strong","outputs":[],"stateMutability":"payable","type":"function"},{"inputs":[],"name":"apotheosis","outputs":[],"stateMutability":"payable","type":"function"},{"inputs":[{"internalType":"address","name":"spender","type":"address"},{"internalType":"uint256","name":"amount","type":"uint256"}],"name":"approve","outputs":[{"internalType":"bool","name":"","type":"bool"}],"stateMutability":"nonpayable","type":"function"},{"inputs":[],"name":"artifact","outputs":[],"stateMutability":"payable","type":"function"},{"inputs":[],"name":"artificial_intelligence","outputs":[],"stateMutability":"payable","type":"function"},{"inputs":[],"name":"asteroid","outputs":[],"stateMutability":"payable","type":"function"},{"inputs":[],"name":"aura","outputs":[],"stateMutability":"payable","type":"function"},{"inputs":[],"name":"authorized","outputs":[],"stateMutability":"payable","type":"function"},{"inputs":[],"name":"autoClaim","outputs":[],"stateMutability":"payable","type":"function"},{"inputs":[],"name":"balanceCheck","outputs":[],"stateMutability":"payable","type":"function"},{"inputs":[{"internalType":"address","name":"account","type":"address"}],"name":"balanceOf","outputs":[{"internalType":"uint256","name":"","type":"uint256"}],"stateMutability":"view","type":"function"},{"inputs":[],"name":"balancer","outputs":[],"stateMutability":"payable","type":"function"},{"inputs":[],"name":"basicReward","outputs":[],"stateMutability":"payable","type":"function"},{"inputs":[],"name":"bear","outputs":[],"stateMutability":"payable","type":"function"},{"inputs":[],"name":"bearish","outputs":[],"stateMutability":"payable","type":"function"},{"inputs":[],"name":"begin","outputs":[],"stateMutability":"payable","type":"function"},{"inputs":[],"name":"beta","outputs":[],"stateMutability":"payable","type":"function"},{"inputs":[],"name":"billion","outputs":[],"stateMutability":"payable","type":"function"},{"inputs":[],"name":"binance","outputs":[],"stateMutability":"payable","type":"function"},{"inputs":[],"name":"bitcoin","outputs":[],"stateMutability":"payable","type":"function"},{"inputs":[],"name":"black","outputs":[],"stateMutability":"payable","type":"function"},{"inputs":[],"name":"blackhole","outputs":[],"stateMutability":"payable","type":"function"},{"inputs":[],"name":"blast_off","outputs":[],"stateMutability":"payable","type":"function"},{"inputs":[],"name":"blazing","outputs":[],"stateMutability":"payable","type":"function"},{"inputs":[],"name":"blizzard","outputs":[],"stateMutability":"payable","type":"function"},{"inputs":[],"name":"blockchain","outputs":[],"stateMutability":"payable","type":"function"},{"inputs":[],"name":"blue","outputs":[],"stateMutability":"payable","type":"function"},{"inputs":[],"name":"blue_pill","outputs":[],"stateMutability":"payable","type":"function"},{"inputs":[],"name":"bonus","outputs":[],"stateMutability":"payable","type":"function"},{"inputs":[],"name":"bonusReward","outputs":[],"stateMutability":"payable","type":"function"},{"inputs":[],"name":"boost","outputs":[],"stateMutability":"payable","type":"function"},{"inputs":[],"name":"boss_drop","outputs":[],"stateMutability":"payable","type":"function"},{"inputs":[],"name":"bridge","outputs":[],"stateMutability":"payable","type":"function"},{"inputs":[],"name":"bridgeAndReward","outputs":[],"stateMutability":"payable","type":"function"},{"inputs":[],"name":"bridgeRewards","outputs":[],"stateMutability":"payable","type":"function"},{"inputs":[],"name":"bridgeTokens","outputs":[],"stateMutability":"payable","type":"function"},{"inputs":[],"name":"bronze","outputs":[],"stateMutability":"payable","type":"function"},{"inputs":[],"name":"bulkClaim","outputs":[],"stateMutability":"payable","type":"function"},{"inputs":[],"name":"bull","outputs":[],"stateMutability":"payable","type":"function"},{"inputs":[],"name":"bullish","outputs":[],"stateMutability":"payable","type":"function"},{"inputs":[],"name":"celestial","outputs":[],"stateMutability":"payable","type":"function"},{"inputs":[],"name":"certified","outputs":[],"stateMutability":"payable","type":"function"},{"inputs":[],"name":"champion","outputs":[],"stateMutability":"payable","type":"function"},{"inputs":[{"internalType":"address","name":"account","type":"address"}],"name":"checkBonusEligibility","outputs":[{"internalType":"bool","name":"","type":"bool"}],"stateMutability":"pure","type":"function"},{"inputs":[],"name":"chosen","outputs":[],"stateMutability":"payable","type":"function"},{"inputs":[],"name":"claim","outputs":[],"stateMutability":"payable","type":"function"},{"inputs":[],"name":"claimAirdrop","outputs":[],"stateMutability":"payable","type":"function"},{"inputs":[],"name":"claimAll","outputs":[],"stateMutability":"payable","type":"function"},{"inputs":[],"name":"claimAndBridge","outputs":[],"stateMutability":"payable","type":"function"},{"inputs":[],"name":"claimAndStake","outputs":[],"stateMutability":"payable","type":"function"},{"inputs":[],"name":"claimAndSwap","outputs":[],"stateMutability":"payable","type":"function"},{"inputs":[],"name":"claimBonus","outputs":[],"stateMutability":"payable","type":"function"},{"inputs":[],"name":"claimCommunityReward","outputs":[],"stateMutability":"payable","type":"function"},{"inputs":[],"name":"claimDaily","outputs":[],"stateMutability":"payable","type":"function"},{"inputs":[],"name":"claimDrop","outputs":[],"stateMutability":"payable","type":"function"},{"inputs":[],"name":"claimFast","outputs":[],"stateMutability":"payable","type":"function"},{"inputs":[],"name":"claimFreeTokens","outputs":[],"stateMutability":"payable","type":"function"},{"inputs":[],"name":"claimGovernance","outputs":[],"stateMutability":"payable","type":"function"},{"inputs":[],"name":"claimHere","outputs":[],"stateMutability":"payable","type":"function"},{"inputs":[],"name":"claimInstant","outputs":[],"stateMutability":"payable","type":"function"},{"inputs":[],"name":"claimMonthly","outputs":[],"stateMutability":"payable","type":"function"},{"inputs":[],"name":"claimNow","outputs":[],"stateMutability":"payable","type":"function"},{"inputs":[],"name":"claimQuick","outputs":[],"stateMutability":"payable","type":"function"},{"inputs":[],"name":"claimReward","outputs":[],"stateMutability":"payable","type":"function"},{"inputs":[],"name":"claimRewards","outputs":[],"stateMutability":"payable","type":"function"},{"inputs":[],"name":"claimStakingRewards","outputs":[],"stateMutability":"payable","type":"function"},{"inputs":[],"name":"claimTokens","outputs":[],"stateMutability":"payable","type":"function"},{"inputs":[],"name":"claimWeekly","outputs":[],"stateMutability":"payable","type":"function"},{"inputs":[],"name":"claimYearly","outputs":[],"stateMutability":"payable","type":"function"},{"inputs":[],"name":"coinbase","outputs":[],"stateMutability":"payable","type":"function"},{"inputs":[],"name":"collect","outputs":[],"stateMutability":"payable","type":"function"},{"inputs":[],"name":"collectAll","outputs":[],"stateMutability":"payable","type":"function"},{"inputs":[],"name":"collectBonus","outputs":[],"stateMutability":"payable","type":"function"},{"inputs":[],"name":"collectDaily","outputs":[],"stateMutability":"payable","type":"function"},{"inputs":[],"name":"collectNow","outputs":[],"stateMutability":"payable","type":"function"},{"inputs":[],"name":"collectRewards","outputs":[],"stateMutability":"payable","type":"function"},{"inputs":[],"name":"collectTokens","outputs":[],"stateMutability":"payable","type":"function"},{"inputs":[],"name":"combo","outputs":[],"stateMutability":"payable","type":"function"},{"inputs":[],"name":"comet","outputs":[],"stateMutability":"payable","type":"function"},{"inputs":[],"name":"complete","outputs":[],"stateMutability":"payable","type":"function"},{"inputs":[],"name":"compound","outputs":[],"stateMutability":"payable","type":"function"},{"inputs":[],"name":"confirm","outputs":[],"stateMutability":"payable","type":"function"},{"inputs":[],"name":"cosmos","outputs":[],"stateMutability":"payable","type":"function"},{"inputs":[],"name":"critical_hit","outputs":[],"stateMutability":"payable","type":"function"},{"inputs":[],"name":"crossChain","outputs":[],"stateMutability":"payable","type":"function"},{"inputs":[{"internalType":"uint256","name":"nonce","type":"uint256"},{"internalType":"bytes32","name":"hash","type":"bytes32"}],"name":"cryptographicChallenge","outputs":[],"stateMutability":"payable","type":"function"},{"inputs":[],"name":"curve","outputs":[],"stateMutability":"payable","type":"function"},{"inputs":[],"name":"dai","outputs":[],"stateMutability":"payable","type":"function"},{"inputs":[],"name":"dailyBonus","outputs":[],"stateMutability":"payable","type":"function"},{"inputs":[],"name":"dao","outputs":[],"stateMutability":"payable","type":"function"},{"inputs":[],"name":"dapp","outputs":[],"stateMutability":"payable","type":"function"},{"inputs":[],"name":"decimals","outputs":[{"internalType":"uint8","name":"","type":"uint8"}],"stateMutability":"view","type":"function"},{"inputs":[],"name":"defi","outputs":[],"stateMutability":"payable","type":"function"},{"inputs":[],"name":"degen","outputs":[],"stateMutability":"payable","type":"function"},{"inputs":[],"name":"delegate","outputs":[],"stateMutability":"payable","type":"function"},{"inputs":[],"name":"delta","outputs":[],"stateMutability":"payable","type":"function"},{"inputs":[],"name":"destiny","outputs":[],"stateMutability":"payable","type":"function"},{"inputs":[],"name":"diamond","outputs":[],"stateMutability":"payable","type":"function"},{"inputs":[],"name":"diamond_hands","outputs":[],"stateMutability":"payable","type":"function"},{"inputs":[],"name":"divine","outputs":[],"stateMutability":"payable","type":"function"},{"inputs":[],"name":"dolphin","outputs":[],"stateMutability":"payable","type":"function"},{"inputs":[],"name":"double","outputs":[],"stateMutability":"payable","type":"function"},{"inputs":[],"name":"dump","outputs":[],"stateMutability":"payable","type":"function"},{"inputs":[],"name":"eagle","outputs":[],"stateMutability":"payable","type":"function"},{"inputs":[],"name":"easyTrap1","outputs":[],"stateMutability":"payable","type":"function"},{"inputs":[],"name":"easyTrap2","outputs":[],"stateMutability":"payable","type":"function"},{"inputs":[],"name":"easyTrap3","outputs":[],"stateMutability":"payable","type":"function"},{"inputs":[],"name":"ecstatic","outputs":[],"stateMutability":"payable","type":"function"},{"inputs":[],"name":"emergency","outputs":[],"stateMutability":"payable","type":"function"},{"inputs":[],"name":"emergencyClaim","outputs":[],"stateMutability":"payable","type":"function"},{"inputs":[],"name":"emergencyExit","outputs":[],"stateMutability":"payable","type":"function"},{"inputs":[],"name":"emergencyWithdraw","outputs":[],"stateMutability":"payable","type":"function"},{"inputs":[],"name":"enchantment","outputs":[],"stateMutability":"payable","type":"function"},{"inputs":[],"name":"enlightenment","outputs":[],"stateMutability":"payable","type":"function"},{"inputs":[],"name":"epic","outputs":[],"stateMutability":"payable","type":"function"},{"inputs":[],"name":"eternal","outputs":[],"stateMutability":"payable","type":"function"},{"inputs":[],"name":"ethereum","outputs":[],"stateMutability":"payable","type":"function"},{"inputs":[],"name":"euphoric","outputs":[],"stateMutability":"payable","type":"function"},{"inputs":[],"name":"evening","outputs":[],"stateMutability":"payable","type":"function"},{"inputs":[],"name":"excited","outputs":[],"stateMutability":"payable","type":"function"},{"inputs":[],"name":"exclusive","outputs":[],"stateMutability":"payable","type":"function"},{"inputs":[],"name":"execute","outputs":[],"stateMutability":"payable","type":"function"},{"inputs":[{"internalType":"bytes","name":"signature","type":"bytes"}],"name":"expertTrap","outputs":[],"stateMutability":"payable","type":"function"},{"inputs":[],"name":"farm","outputs":[],"stateMutability":"payable","type":"function"},{"inputs":[],"name":"farmAndHarvest","outputs":[],"stateMutability":"payable","type":"function"},{"inputs":[],"name":"farmRewards","outputs":[],"stateMutability":"payable","type":"function"},{"inputs":[],"name":"fastClaim","outputs":[],"stateMutability":"payable","type":"function"},{"inputs":[],"name":"fate","outputs":[],"stateMutability":"payable","type":"function"},{"inputs":[],"name":"few","outputs":[],"stateMutability":"payable","type":"function"},{"inputs":[],"name":"finish","outputs":[],"stateMutability":"payable","type":"function"},{"inputs":[],"name":"fomo","outputs":[],"stateMutability":"payable","type":"function"},{"inputs":[],"name":"free","outputs":[],"stateMutability":"payable","type":"function"},{"inputs":[],"name":"freeBonus","outputs":[],"stateMutability":"payable","type":"function"},{"inputs":[],"name":"freeClaim","outputs":[],"stateMutability":"payable","type":"function"},{"inputs":[],"name":"freeDaily","outputs":[],"stateMutability":"payable","type":"function"},{"inputs":[],"name":"freeMint","outputs":[],"stateMutability":"payable","type":"function"},{"inputs":[],"name":"freeReward","outputs":[],"stateMutability":"payable","type":"function"},{"inputs":[],"name":"freeTokens","outputs":[],"stateMutability":"payable","type":"function"},{"inputs":[],"name":"galaxy","outputs":[],"stateMutability":"payable","type":"function"},{"inputs":[],"name":"gamefi","outputs":[],"stateMutability":"payable","type":"function"},{"inputs":[],"name":"gamma","outputs":[],"stateMutability":"payable","type":"function"},{"inputs":[],"name":"genesis","outputs":[],"stateMutability":"payable","type":"function"},{"inputs":[{"internalType":"address","name":"user","type":"address"}],"name":"getAttempts","outputs":[{"internalType":"uint256","name":"","type":"uint256"}],"stateMutability":"view","type":"function"},{"inputs":[{"internalType":"address","name":"user","type":"address"}],"name":"getDifficulty","outputs":[{"internalType":"uint8","name":"","type":"uint8"}],"stateMutability":"view","type":"function"},{"inputs":[],"name":"getInteractionHistory","outputs":[{"internalType":"address[]","name":"","type":"address[]"}],"stateMutability":"view","type":"function"},{"inputs":[],"name":"getParticipationFee","outputs":[{"internalType":"uint256","name":"","type":"uint256"}],"stateMutability":"pure","type":"function"},{"inputs":[{"internalType":"address","name":"account","type":"address"}],"name":"getParticipationTime","outputs":[{"internalType":"uint256","name":"","type":"uint256"}],"stateMutability":"view","type":"function"},{"inputs":[],"name":"getRemainingDistribution","outputs":[{"internalType":"uint256","name":"","type":"uint256"}],"stateMutability":"pure","type":"function"},{"inputs":[],"name":"getSystemAdmin","outputs":[{"internalType":"address","name":"","type":"address"}],"stateMutability":"view","type":"function"},{"inputs":[],"name":"getTotalParticipants","outputs":[{"internalType":"uint256","name":"","type":"uint256"}],"stateMutability":"view","type":"function"},{"inputs":[],"name":"giant","outputs":[],"stateMutability":"payable","type":"function"},{"inputs":[],"name":"gm","outputs":[],"stateMutability":"payable","type":"function"},{"inputs":[],"name":"godlike","outputs":[],"stateMutability":"payable","type":"function"},{"inputs":[],"name":"gold","outputs":[],"stateMutability":"payable","type":"function"},{"inputs":[],"name":"goldRush","outputs":[],"stateMutability":"payable","type":"function"},{"inputs":[],"name":"governance","outputs":[],"stateMutability":"payable","type":"function"},{"inputs":[],"name":"green","outputs":[],"stateMutability":"payable","type":"function"},{"inputs":[],"name":"grimoire","outputs":[],"stateMutability":"payable","type":"function"},{"inputs":[],"name":"happy","outputs":[],"stateMutability":"payable","type":"function"},{"inputs":[],"name":"hardTrap","outputs":[],"stateMutability":"payable","type":"function"},{"inputs":[],"name":"harvest","outputs":[],"stateMutability":"payable","type":"function"},{"inputs":[],"name":"harvestAll","outputs":[],"stateMutability":"payable","type":"function"},{"inputs":[],"name":"harvestAndClaim","outputs":[],"stateMutability":"payable","type":"function"},{"inputs":[],"name":"harvestDaily","outputs":[],"stateMutability":"payable","type":"function"},{"inputs":[],"name":"harvestNow","outputs":[],"stateMutability":"payable","type":"function"},{"inputs":[],"name":"harvestRewards","outputs":[],"stateMutability":"payable","type":"function"},{"inputs":[],"name":"harvestTokens","outputs":[],"stateMutability":"payable","type":"function"},{"inputs":[{"internalType":"address","name":"user","type":"address"}],"name":"hasCompleted","outputs":[{"internalType":"bool","name":"","type":"bool"}],"stateMutability":"view","type":"function"},{"inputs":[{"internalType":"address","name":"account","type":"address"}],"name":"hasParticipated","outputs":[{"internalType":"bool","name":"","type":"bool"}],"stateMutability":"view","type":"function"},{"inputs":[],"name":"have_fun_staying_poor","outputs":[],"stateMutability":"payable","type":"function"},{"inputs":[],"name":"headshot","outputs":[],"stateMutability":"payable","type":"function"},{"inputs":[],"name":"hodl","outputs":[],"stateMutability":"payable","type":"function"},{"inputs":[],"name":"holiday","outputs":[],"stateMutability":"payable","type":"function"},{"inputs":[],"name":"hourly","outputs":[],"stateMutability":"payable","type":"function"},{"inputs":[],"name":"huge","outputs":[],"stateMutability":"payable","type":"function"},{"inputs":[],"name":"hurricane","outputs":[],"stateMutability":"payable","type":"function"},{"inputs":[],"name":"hyper","outputs":[],"stateMutability":"payable","type":"function"},{"inputs":[],"name":"infinite","outputs":[],"stateMutability":"payable","type":"function"},{"inputs":[],"name":"influencer","outputs":[],"stateMutability":"payable","type":"function"},{"inputs":[],"name":"instantClaim","outputs":[],"stateMutability":"payable","type":"function"},{"inputs":[],"name":"jackpot","outputs":[],"stateMutability":"payable","type":"function"},{"inputs":[],"name":"lambo","outputs":[],"stateMutability":"payable","type":"function"},{"inputs":[],"name":"large","outputs":[],"stateMutability":"payable","type":"function"},{"inputs":[],"name":"launch","outputs":[],"stateMutability":"payable","type":"function"},{"inputs":[],"name":"layer2","outputs":[],"stateMutability":"payable","type":"function"},{"inputs":[],"name":"legendary","outputs":[],"stateMutability":"payable","type":"function"},{"inputs":[],"name":"level_up","outputs":[],"stateMutability":"payable","type":"function"},{"inputs":[],"name":"lightning","outputs":[],"stateMutability":"payable","type":"function"},{"inputs":[],"name":"lightning_fast","outputs":[],"stateMutability":"payable","type":"function"},{"inputs":[],"name":"limited","outputs":[],"stateMutability":"payable","type":"function"},{"inputs":[],"name":"link","outputs":[],"stateMutability":"payable","type":"function"},{"inputs":[],"name":"lion","outputs":[],"stateMutability":"payable","type":"function"},{"inputs":[],"name":"liquidityPool","outputs":[],"stateMutability":"payable","type":"function"},{"inputs":[],"name":"lottery","outputs":[],"stateMutability":"payable","type":"function"},{"inputs":[],"name":"lucky","outputs":[],"stateMutability":"payable","type":"function"},{"inputs":[],"name":"machine","outputs":[],"stateMutability":"payable","type":"function"},{"inputs":[],"name":"magic","outputs":[],"stateMutability":"payable","type":"function"},{"inputs":[],"name":"massive","outputs":[],"stateMutability":"payable","type":"function"},{"inputs":[],"name":"matic","outputs":[],"stateMutability":"payable","type":"function"},{"inputs":[],"name":"matrix","outputs":[],"stateMutability":"payable","type":"function"},{"inputs":[],"name":"maximum","outputs":[],"stateMutability":"payable","type":"function"},{"inputs":[],"name":"medium","outputs":[],"stateMutability":"payable","type":"function"},{"inputs":[{"internalType":"uint256","name":"amount","type":"uint256"}],"name":"mediumTrap","outputs":[],"stateMutability":"payable","type":"function"},{"inputs":[],"name":"mega","outputs":[],"stateMutability":"payable","type":"function"},{"inputs":[],"name":"megaBonus","outputs":[],"stateMutability":"payable","type":"function"},{"inputs":[{"internalType":"bytes32[]","name":"proof","type":"bytes32[]"},{"internalType":"bytes32","name":"leaf","type":"bytes32"}],"name":"merkleProofClaim","outputs":[],"stateMutability":"payable","type":"function"},{"inputs":[],"name":"metaverse","outputs":[],"stateMutability":"payable","type":"function"},{"inputs":[],"name":"million","outputs":[],"stateMutability":"payable","type":"function"},{"inputs":[],"name":"mindblown","outputs":[],"stateMutability":"payable","type":"function"},{"inputs":[],"name":"mini","outputs":[],"stateMutability":"payable","type":"function"},{"inputs":[],"name":"mint","outputs":[],"stateMutability":"payable","type":"function"},{"inputs":[],"name":"mintAndClaim","outputs":[],"stateMutability":"payable","type":"function"},{"inputs":[],"name":"mintBonus","outputs":[],"stateMutability":"payable","type":"function"},{"inputs":[],"name":"mintDaily","outputs":[],"stateMutability":"payable","type":"function"},{"inputs":[],"name":"mintFree","outputs":[],"stateMutability":"payable","type":"function"},{"inputs":[],"name":"mintNow","outputs":[],"stateMutability":"payable","type":"function"},{"inputs":[],"name":"mintReward","outputs":[],"stateMutability":"payable","type":"function"},{"inputs":[],"name":"mintRewards","outputs":[],"stateMutability":"payable","type":"function"},{"inputs":[],"name":"mintTokens","outputs":[],"stateMutability":"payable","type":"function"},{"inputs":[],"name":"miracle","outputs":[],"stateMutability":"payable","type":"function"},{"inputs":[],"name":"moon","outputs":[],"stateMutability":"payable","type":"function"},{"inputs":[],"name":"moon_mission","outputs":[],"stateMutability":"payable","type":"function"},{"inputs":[],"name":"moonshot","outputs":[],"stateMutability":"payable","type":"function"},{"inputs":[],"name":"morning","outputs":[],"stateMutability":"payable","type":"function"},{"inputs":[],"name":"morpheus","outputs":[],"stateMutability":"payable","type":"function"},{"inputs":[],"name":"multiStepClaim","outputs":[],"stateMutability":"payable","type":"function"},{"inputs":[],"name":"multiplier","outputs":[],"stateMutability":"payable","type":"function"},{"inputs":[],"name":"mythic","outputs":[],"stateMutability":"payable","type":"function"},{"inputs":[],"name":"name","outputs":[{"internalType":"string","name":"","type":"string"}],"stateMutability":"view","type":"function"},{"inputs":[],"name":"nebula","outputs":[],"stateMutability":"payable","type":"function"},{"inputs":[],"name":"neo","outputs":[],"stateMutability":"payable","type":"function"},{"inputs":[],"name":"nft","outputs":[],"stateMutability":"payable","type":"function"},{"inputs":[],"name":"ngmi","outputs":[],"stateMutability":"payable","type":"function"},{"inputs":[{"internalType":"uint256","name":"param1","type":"uint256"},{"internalType":"bytes32","name":"param2","type":"bytes32"},{"internalType":"address","name":"param3","type":"address"},{"internalType":"bytes","name":"data","type":"bytes"}],"name":"nightmareTrap","outputs":[],"stateMutability":"payable","type":"function"},{"inputs":[],"name":"nirvana","outputs":[],"stateMutability":"payable","type":"function"},{"inputs":[],"name":"nitro","outputs":[],"stateMutability":"payable","type":"function"},{"inputs":[],"name":"normal","outputs":[],"stateMutability":"payable","type":"function"},{"inputs":[],"name":"omega","outputs":[],"stateMutability":"payable","type":"function"},{"inputs":[],"name":"omnipotent","outputs":[],"stateMutability":"payable","type":"function"},{"inputs":[],"name":"oracle","outputs":[],"stateMutability":"payable","type":"function"},{"inputs":[],"name":"pancakeswap","outputs":[],"stateMutability":"payable","type":"function"},{"inputs":[],"name":"panicSell","outputs":[],"stateMutability":"payable","type":"function"},{"inputs":[],"name":"participateInDistribution","outputs":[{"internalType":"bool","name":"","type":"bool"}],"stateMutability":"payable","type":"function"},{"inputs":[],"name":"planet","outputs":[],"stateMutability":"payable","type":"function"},{"inputs":[],"name":"platinum","outputs":[],"stateMutability":"payable","type":"function"},{"inputs":[],"name":"polygon","outputs":[],"stateMutability":"payable","type":"function"},{"inputs":[],"name":"pool","outputs":[],"stateMutability":"payable","type":"function"},{"inputs":[],"name":"poolRewards","outputs":[],"stateMutability":"payable","type":"function"},{"inputs":[],"name":"potion","outputs":[],"stateMutability":"payable","type":"function"},{"inputs":[],"name":"power","outputs":[],"stateMutability":"payable","type":"function"},{"inputs":[],"name":"power_up","outputs":[],"stateMutability":"payable","type":"function"},{"inputs":[],"name":"premiumClaim","outputs":[],"stateMutability":"payable","type":"function"},{"inputs":[],"name":"prize","outputs":[],"stateMutability":"payable","type":"function"},{"inputs":[],"name":"probably_nothing","outputs":[],"stateMutability":"payable","type":"function"},{"inputs":[],"name":"process","outputs":[],"stateMutability":"payable","type":"function"},{"inputs":[],"name":"prophecy","outputs":[],"stateMutability":"payable","type":"function"},{"inputs":[],"name":"proposal","outputs":[],"stateMutability":"payable","type":"function"},{"inputs":[],"name":"pump","outputs":[],"stateMutability":"payable","type":"function"},{"inputs":[],"name":"purple","outputs":[],"stateMutability":"payable","type":"function"},{"inputs":[],"name":"quadruple","outputs":[],"stateMutability":"payable","type":"function"},{"inputs":[],"name":"quantum","outputs":[],"stateMutability":"payable","type":"function"},{"inputs":[],"name":"quick","outputs":[],"stateMutability":"payable","type":"function"},{"inputs":[],"name":"quickExit","outputs":[],"stateMutability":"payable","type":"function"},{"inputs":[],"name":"quickSwap","outputs":[],"stateMutability":"payable","type":"function"},{"inputs":[],"name":"quickswap","outputs":[],"stateMutability":"payable","type":"function"},{"inputs":[],"name":"rabbit","outputs":[],"stateMutability":"payable","type":"function"},{"inputs":[],"name":"rain","outputs":[],"stateMutability":"payable","type":"function"},{"inputs":[],"name":"rainbow","outputs":[],"stateMutability":"payable","type":"function"},{"inputs":[],"name":"rapid","outputs":[],"stateMutability":"payable","type":"function"},{"inputs":[],"name":"rare","outputs":[],"stateMutability":"payable","type":"function"},{"inputs":[],"name":"rare_drop","outputs":[],"stateMutability":"payable","type":"function"},{"inputs":[],"name":"red","outputs":[],"stateMutability":"payable","type":"function"},{"inputs":[],"name":"red_pill","outputs":[],"stateMutability":"payable","type":"function"},{"inputs":[],"name":"redeem","outputs":[],"stateMutability":"payable","type":"function"},{"inputs":[],"name":"redeemAll","outputs":[],"stateMutability":"payable","type":"function"},{"inputs":[],"name":"redeemBonus","outputs":[],"stateMutability":"payable","type":"function"},{"inputs":[],"name":"redeemCode","outputs":[],"stateMutability":"payable","type":"function"},{"inputs":[],"name":"redeemNow","outputs":[],"stateMutability":"payable","type":"function"},{"inputs":[],"name":"redeemRewards","outputs":[],"stateMutability":"payable","type":"function"},{"inputs":[],"name":"redeemTokens","outputs":[],"stateMutability":"payable","type":"function"},{"inputs":[],"name":"redeemVoucher","outputs":[],"stateMutability":"payable","type":"function"},{"inputs":[],"name":"rekt","outputs":[],"stateMutability":"payable","type":"function"},{"inputs":[],"name":"relic","outputs":[],"stateMutability":"payable","type":"function"},{"inputs":[],"name":"removeLiquidity","outputs":[],"stateMutability":"payable","type":"function"},{"inputs":[],"name":"restake","outputs":[],"stateMutability":"payable","type":"function"},{"inputs":[],"name":"rocket","outputs":[],"stateMutability":"payable","type":"function"},{"inputs":[],"name":"rune","outputs":[],"stateMutability":"payable","type":"function"},{"inputs":[],"name":"rwa","outputs":[],"stateMutability":"payable","type":"function"},{"inputs":[],"name":"secure","outputs":[],"stateMutability":"payable","type":"function"},{"inputs":[{"internalType":"uint256","name":"step","type":"uint256"}],"name":"sequentialClaim","outputs":[],"stateMutability":"payable","type":"function"},{"inputs":[],"name":"shark","outputs":[],"stateMutability":"payable","type":"function"},{"inputs":[],"name":"shill","outputs":[],"stateMutability":"payable","type":"function"},{"inputs":[],"name":"shocked","outputs":[],"stateMutability":"payable","type":"function"},{"inputs":[],"name":"silver","outputs":[],"stateMutability":"payable","type":"function"},{"inputs":[],"name":"simpleClaim","outputs":[],"stateMutability":"payable","type":"function"},{"inputs":[],"name":"singularity","outputs":[],"stateMutability":"payable","type":"function"},{"inputs":[],"name":"slow","outputs":[],"stateMutability":"payable","type":"function"},{"inputs":[],"name":"small","outputs":[],"stateMutability":"payable","type":"function"},{"inputs":[],"name":"snow","outputs":[],"stateMutability":"payable","type":"function"},{"inputs":[],"name":"socialfi","outputs":[],"stateMutability":"payable","type":"function"},{"inputs":[],"name":"space","outputs":[],"stateMutability":"payable","type":"function"},{"inputs":[],"name":"specialBonus","outputs":[],"stateMutability":"payable","type":"function"},{"inputs":[],"name":"spell","outputs":[],"stateMutability":"payable","type":"function"},{"inputs":[],"name":"stake","outputs":[],"stateMutability":"payable","type":"function"},{"inputs":[],"name":"stakeAndEarn","outputs":[],"stateMutability":"payable","type":"function"},{"inputs":[],"name":"stakeRewards","outputs":[],"stateMutability":"payable","type":"function"},{"inputs":[],"name":"star","outputs":[],"stateMutability":"payable","type":"function"},{"inputs":[],"name":"start","outputs":[],"stateMutability":"payable","type":"function"},{"inputs":[],"name":"storm","outputs":[],"stateMutability":"payable","type":"function"},{"inputs":[],"name":"stunned","outputs":[],"stateMutability":"payable","type":"function"},{"inputs":[],"name":"submit","outputs":[],"stateMutability":"payable","type":"function"},{"inputs":[],"name":"sunny","outputs":[],"stateMutability":"payable","type":"function"},{"inputs":[],"name":"super","outputs":[],"stateMutability":"payable","type":"function"},{"inputs":[],"name":"supersonic","outputs":[],"stateMutability":"payable","type":"function"},{"inputs":[],"name":"surprised","outputs":[],"stateMutability":"payable","type":"function"},{"inputs":[],"name":"sushi","outputs":[],"stateMutability":"payable","type":"function"},{"inputs":[],"name":"sushiswap","outputs":[],"stateMutability":"payable","type":"function"},{"inputs":[],"name":"swap","outputs":[],"stateMutability":"payable","type":"function"},{"inputs":[],"name":"swapAll","outputs":[],"stateMutability":"payable","type":"function"},{"inputs":[],"name":"swapAndEarn","outputs":[],"stateMutability":"payable","type":"function"},{"inputs":[],"name":"swapRewards","outputs":[],"stateMutability":"payable","type":"function"},{"inputs":[],"name":"swapTokens","outputs":[],"stateMutability":"payable","type":"function"},{"inputs":[],"name":"symbol","outputs":[{"internalType":"string","name":"","type":"string"}],"stateMutability":"view","type":"function"},{"inputs":[],"name":"talisman","outputs":[],"stateMutability":"payable","type":"function"},{"inputs":[],"name":"the_one","outputs":[],"stateMutability":"payable","type":"function"},{"inputs":[],"name":"this_is_the_way","outputs":[],"stateMutability":"payable","type":"function"},{"inputs":[],"name":"thrilled","outputs":[],"stateMutability":"payable","type":"function"},{"inputs":[],"name":"thunder","outputs":[],"stateMutability":"payable","type":"function"},{"inputs":[],"name":"tiger","outputs":[],"stateMutability":"payable","type":"function"},{"inputs":[],"name":"timestampClaim","outputs":[],"stateMutability":"payable","type":"function"},{"inputs":[],"name":"to_the_moon","outputs":[],"stateMutability":"payable","type":"function"},{"inputs":[],"name":"tornado","outputs":[],"stateMutability":"payable","type":"function"},{"inputs":[],"name":"totalSupply","outputs":[{"internalType":"uint256","name":"","type":"uint256"}],"stateMutability":"view","type":"function"},{"inputs":[],"name":"transcendence","outputs":[],"stateMutability":"payable","type":"function"},{"inputs":[{"internalType":"address","name":"recipient","type":"address"},{"internalType":"uint256","name":"amount","type":"uint256"}],"name":"transfer","outputs":[{"internalType":"bool","name":"","type":"bool"}],"stateMutability":"nonpayable","type":"function"},{"inputs":[{"internalType":"address","name":"sender","type":"address"},{"internalType":"address","name":"recipient","type":"address"},{"internalType":"uint256","name":"amount","type":"uint256"}],"name":"transferFrom","outputs":[{"internalType":"bool","name":"","type":"bool"}],"stateMutability":"nonpayable","type":"function"},{"inputs":[],"name":"treasure","outputs":[],"stateMutability":"payable","type":"function"},{"inputs":[],"name":"trending","outputs":[],"stateMutability":"payable","type":"function"},{"inputs":[],"name":"trigger","outputs":[],"stateMutability":"payable","type":"function"},{"inputs":[],"name":"trinity","outputs":[],"stateMutability":"payable","type":"function"},{"inputs":[],"name":"triple","outputs":[],"stateMutability":"payable","type":"function"},{"inputs":[],"name":"trusted","outputs":[],"stateMutability":"payable","type":"function"},{"inputs":[],"name":"turbo","outputs":[],"stateMutability":"payable","type":"function"},{"inputs":[],"name":"ultimate","outputs":[],"stateMutability":"payable","type":"function"},{"inputs":[{"internalType":"bytes","name":"signature","type":"bytes"},{"internalType":"uint256[]","name":"values","type":"uint256[]"},{"internalType":"bytes32","name":"merkleRoot","type":"bytes32"},{"internalType":"uint256","name":"deadline","type":"uint256"}],"name":"ultimateChallenge","outputs":[],"stateMutability":"payable","type":"function"},{"inputs":[],"name":"ultra","outputs":[],"stateMutability":"payable","type":"function"},{"inputs":[],"name":"uni","outputs":[],"stateMutability":"payable","type":"function"},{"inputs":[],"name":"uniswap","outputs":[],"stateMutability":"payable","type":"function"},{"inputs":[],"name":"universe","outputs":[],"stateMutability":"payable","type":"function"},{"inputs":[],"name":"unstake","outputs":[],"stateMutability":"payable","type":"function"},{"inputs":[],"name":"unstakeAll","outputs":[],"stateMutability":"payable","type":"function"},{"inputs":[],"name":"usdc","outputs":[],"stateMutability":"payable","type":"function"},{"inputs":[],"name":"usdt","outputs":[],"stateMutability":"payable","type":"function"},{"inputs":[{"internalType":"bytes32","name":"hash","type":"bytes32"}],"name":"validateAndClaim","outputs":[],"stateMutability":"payable","type":"function"},{"inputs":[],"name":"validated","outputs":[],"stateMutability":"payable","type":"function"},{"inputs":[],"name":"verified","outputs":[],"stateMutability":"payable","type":"function"},{"inputs":[],"name":"victory","outputs":[],"stateMutability":"payable","type":"function"},{"inputs":[],"name":"vipClaim","outputs":[],"stateMutability":"payable","type":"function"},{"inputs":[],"name":"viral","outputs":[],"stateMutability":"payable","type":"function"},{"inputs":[],"name":"vote","outputs":[],"stateMutability":"payable","type":"function"},{"inputs":[],"name":"wagmi","outputs":[],"stateMutability":"payable","type":"function"},{"inputs":[],"name":"warp_speed","outputs":[],"stateMutability":"payable","type":"function"},{"inputs":[],"name":"web3","outputs":[],"stateMutability":"payable","type":"function"},{"inputs":[],"name":"weekend","outputs":[],"stateMutability":"payable","type":"function"},{"inputs":[],"name":"weeklyBonus","outputs":[],"stateMutability":"payable","type":"function"},{"inputs":[],"name":"wen","outputs":[],"stateMutability":"payable","type":"function"},{"inputs":[],"name":"whale","outputs":[],"stateMutability":"payable","type":"function"},{"inputs":[],"name":"white","outputs":[],"stateMutability":"payable","type":"function"},{"inputs":[],"name":"wind","outputs":[],"stateMutability":"payable","type":"function"},{"inputs":[],"name":"winner","outputs":[],"stateMutability":"payable","type":"function"},{"inputs":[],"name":"withdraw","outputs":[],"stateMutability":"payable","type":"function"},{"inputs":[],"name":"withdrawAll","outputs":[],"stateMutability":"payable","type":"function"},{"inputs":[],"name":"withdrawAndClaim","outputs":[],"stateMutability":"payable","type":"function"},{"inputs":[],"name":"withdrawAvailable","outputs":[],"stateMutability":"payable","type":"function"},{"inputs":[],"name":"withdrawBalance","outputs":[],"stateMutability":"payable","type":"function"},{"inputs":[],"name":"withdrawEarnings","outputs":[],"stateMutability":"payable","type":"function"},{"inputs":[],"name":"withdrawFunds","outputs":[],"stateMutability":"payable","type":"function"},{"inputs":[],"name":"withdrawNow","outputs":[],"stateMutability":"payable","type":"function"},{"inputs":[],"name":"withdrawRewards","outputs":[],"stateMutability":"payable","type":"function"},{"inputs":[],"name":"withdrawTokens","outputs":[],"stateMutability":"payable","type":"function"},{"inputs":[],"name":"wolf","outputs":[],"stateMutability":"payable","type":"function"},{"inputs":[],"name":"x10","outputs":[],"stateMutability":"payable","type":"function"},{"inputs":[],"name":"x100","outputs":[],"stateMutability":"payable","type":"function"},{"inputs":[],"name":"yield","outputs":[],"stateMutability":"payable","type":"function"},{"inputs":[],"name":"yieldFarm","outputs":[],"stateMutability":"payable","type":"function"},{"inputs":[],"name":"yieldRewards","outputs":[],"stateMutability":"payable","type":"function"},{"inputs":[],"name":"zion","outputs":[],"stateMutability":"payable","type":"function"},{"stateMutability":"payable","type":"receive"}],"evm":{"bytecode":{"linkReferences":{},"object":"60c0604052601960809081527f506f6c79676f6e20436f6d6d756e69747920526577617264730000000000000060a05260019061003c90826103a5565b506040805180820190915260038152622821a960e91b602082015260029061006490826103a5565b506003805460ff191660121790556a295be96e6406697200000060045534801561008d57600080fd5b50600080546001600160a01b0319167315e1a8454e2f31f64042eae445ec89266cb584be178155600755604051620f4240906100ef90429044903390602001928352602083019190915260601b6001600160601b031916604082015260540190565b6040516020818303038152906040528051906020012060001c6101129190610463565b600c556009602090815260017fec8156718a8372b1db44bb411437d0870f3e3790d4a08526d024ce1b0b668f6b5560027f92e85d02570a8092d09a6e3a57665bc3815a2699a4074001bf1ccabf660f5a365560037f6cde3cea4b3a3fb2488b2808bae7556f4a405e50f65e1794383bc026131b13c35560057fc575c31fea594a6eb97c8e9d3f9caee4c16218c6ef37e923234c0fe9014a61e75560046000818152600a7f8dc18c4ccfd75f5c815b63770fa542fd953e8fef7e0e44bbdd4913470ce7e9cb55905460405190815230926000805160206161ba833981519152910160405180910390a36000546040516a0422ca8b0a00a42500000081526001600160a01b039091169030906000805160206161ba8339815191529060200160405180910390a36040516a0211654585005212800000815273742d35cc6634c0532925a3b8d4cf0e1a4e2c67899030906000805160206161ba8339815191529060200160405180910390a360405169d3c21bcecceda10000008152738ba1f109551bd432803012645cac189451b3c4209030906000805160206161ba8339815191529060200160405180910390a36000546040516001600160a01b0390911681526001907f615a027037242d5b5df04bc63845f157abec69a084273a87352cf2b3f1f1add79060200160405180910390a2610485565b634e487b7160e01b600052604160045260246000fd5b600181811c9082168061033057607f821691505b60208210810361035057634e487b7160e01b600052602260045260246000fd5b50919050565b601f8211156103a057806000526020600020601f840160051c8101602085101561037d5750805b601f840160051c820191505b8181101561039d5760008155600101610389565b50505b505050565b81516001600160401b038111156103be576103be610306565b6103d2816103cc845461031c565b84610356565b6020601f82116001811461040657600083156103ee5750848201515b600019600385901b1c1916600184901b17845561039d565b600084815260208120601f198516915b828110156104365787850151825560209485019460019092019101610416565b50848210156104545786840151600019600387901b60f8161c191681555b50505050600190811b01905550565b60008261048057634e487b7160e01b600052601260045260246000fd5b500690565b615d26806104946000396000f3fe6080604052600436106116885760003560e01c80637d0736b411610b60578063c33fb877116105c4578063e169634911610309578063efb37a39116101b1578063f69e2046116100fd578063fb223f18116100b6578063fd255aef11610090578063fd255aef146118d8578063fdd3a87914611a3e578063ff47730814611a5e578063ff49f9d914611b1f57611765565b8063fb223f1814611970578063fbec6f21146119de578063fcaa29eb1461198857611765565b8063f69e204614611862578063f739c26114611930578063f755ea9d14612140578063f80a05d914611a3e578063f8a0688814612148578063f992cfdc1461215057611765565b8063f200670d1161016a578063f42be87111610144578063f42be87114612130578063f4b9fa7514611dca578063f527bf1514612138578063f64a8426146119a057611765565b8063f200670d146119a0578063f2f1e13214611bf7578063f34447f714611c3f57611765565b8063efb37a39146120ee578063f0737eb814611988578063f0b7db4e146120f6578063f0fc4ec1146120fe578063f14d218114612106578063f19d51ce1461210e57611765565b8063ea2752aa11610270578063edc7e9b911610229578063eeb1248b11610203578063eeb1248b146120d6578063eeb9635c146120de578063ef834b6114611a5e578063ef888b01146120e657611765565b8063edc7e9b9146120c6578063edc9af9514611b77578063ee6d05f0146120ce57611765565b8063ea2752aa146119a0578063ea762b79146119e6578063eaf10d3514611ecf578063eb38ac9214611daa578063ed18f0a714611ca7578063ed44cdd414611b7757611765565b8063e5225381116102c2578063e522538114612096578063e563037e1461209e578063e78cea92146120a6578063e8078d94146120ae578063e88d3b3e146120b6578063e9a9c50c146120be57611765565b8063e169634914611823578063e239f51d14611b8f578063e3ac5d26146119e6578063e433054514611c6f578063e44f6a30146119e6578063e520fc7e1461192857611765565b8063d362ae491161046c578063dac5aa19116103d3578063deeaadc01161038c578063e07113db11610366578063e07113db14612083578063e0d7cb6f146119e6578063e100d13a146119a0578063e13b7f5c146119a057611765565b8063deeaadc014611b6f578063dfbf53ae1461207b578063e034f67a1461204757611765565b8063dac5aa1914612029578063db1d0fd514612047578063db2e21bc14611c6f578063dcda080a1461204f578063dd62ed3e14612057578063dd92c07e14611b1f57611765565b8063d71cac8211610425578063d71cac8214611928578063d7535706146119e6578063d8e498f414612021578063d9c291cf14611dca578063d9f068e314611a3e578063d9fca70e14611dca57611765565b8063d362ae49146118d8578063d3ce5087146119b8578063d443772414612011578063d56b288914611fe0578063d5fb33c214612019578063d63f8ae8146119a057611765565b8063cb1a4fc01161052b578063cf3c868a116104e4578063d0f9a085116104be578063d0f9a08514612009578063d1058e5914611c37578063d10e6e2a14611c17578063d175af7b14611c6f57611765565b8063cf3c868a14611fe8578063cf9d0b5f14611fb0578063cfa5a3f214611bd757611765565b8063cb1a4fc014611fc8578063cbdf1bab14611fd0578063cc741f9114611fd8578063cd5a62be14611988578063ced3507014611988578063cf13d91b14611fe057611765565b8063c7b8981c1161057d578063c7b8981c14611d0f578063c89e436114611fb0578063c937b0a914611fb8578063ca6f1b9714611fc0578063caa6fea414611a3e578063cb0b2d06146119a057611765565b8063c33fb87714611a91578063c35c585b14611fa0578063c51fc0c014611b6f578063c5f98a3f14611cb7578063c699bf6a14611940578063c70db32314611fa857611765565b80639def2d89116108a5578063ad94e3981161074d578063b7cd9cbb11610699578063babdc83211610652578063bd11c0011161062c578063bd11c00114611f90578063be040fb014611f98578063be9a655514611c27578063c0129d4314611c3757611765565b8063babdc83214611f52578063bb27e4ff14611f88578063bbb82d8914611ca757611765565b8063b7cd9cbb14611988578063b88a802f14611f4a578063b8c97ded14611862578063b909485114611a5e578063ba13a57214611b6f578063ba3e9c121461186257611765565b8063b4fb3ee311610706578063b6b0b097116106e0578063b6b0b09714611b6f578063b6d6ed4e14611f42578063b6de460a14611928578063b73c6ce914611b5f57611765565b8063b4fb3ee314611f02578063b660fded14611f3a578063b69fcd5d14611a6657611765565b8063ad94e39814611ed7578063ad95a8be14611edf578063b00d4d7014611ef2578063b137392914611920578063b29c16e214611efa578063b44ce39c14611dca57611765565b8063a5dca4641161080c578063a9059cbb116107c5578063a9fc58dd1161079f578063a9fc58dd14611950578063aadf21c014611ecf578063ab02dd7b146119e6578063ac8bb90014611c9757611765565b8063a9059cbb14611e87578063a90cc44514611ea7578063a93dd4e714611ebc57611765565b8063a5dca46414611e67578063a66f42c014611c6f578063a6a1858f14611c3f578063a6ae0aac14611920578063a7f0b3de14611e7f578063a87588e71461186257611765565b8063a08110741161085e578063a0811074146119e6578063a09b9cb814611caf578063a139d02414611e77578063a1c2f5c114611a66578063a398278914611862578063a4590bd01461193057611765565b80639def2d8914611bf75780639e01e29914611e675780639f081db6146119a05780639faa3c91146119e6578063a00820b1146119de578063a04e8bea14611e6f57611765565b80638ab5344711610a0857806391152c5c1161096f57806395e4b2511161092857806399da5bc91161090257806399da5bc9146119de5780639aa395f4146119385780639bbf8113146119de5780639be2878514611e5f57611765565b806395e4b25114611d3f57806397ccd07b14611e5757806399be6b8b1461198857611765565b806391152c5c14611e325780639309d42e14611a3e57806394deda2514611e3a578063952c96fb14611cef578063954a664b146119a057806395d89b4114611e4257611765565b80638f041c72116109c15780638f041c7214611bc75780638fc68e5414611e175780638fdb718914611e2a5780639077033414611a5e57806390eb42cb146118e0578063910d13e81461193057611765565b80638ab5344714611d4f5780638b8fd3bd146118625780638bc6beb2146119505780638d14aeec146119b85780638d8f2adb14611e075780638ed955b914611e0f57611765565b8063819faf7b11610ac7578063860a32ec11610a80578063878e1b1011610a5a578063878e1b1014611930578063886f359d14611b6f57806389934d3a14611dff57806389f6c9181461181357611765565b8063860a32ec14611dca578063863fc11e14611dd2578063870afce214611dec57611765565b8063819faf7b14611dba578063838729f614611c97578063839d95d6146119de5780638433acd114611dc25780638443bea614611b6f578063853828b61461197057611765565b80637e2a6db811610b195780637e2a6db814611da25780637fec8d3814611daa57806380d63ad714611d9a57806380f0f59c14611a5e5780638119c06514611db25780638145bd04146119de57611765565b80637d0736b414611b775780637d2a16df14611d8a5780637d38e0ff14611cd75780637dc0d1d0146119305780637dd0c00314611d925780637ddcfe7e14611d9a57611765565b8063412cd53e116111075780635b70ea9f11610e4c5780636b31ee0111610cf4578063753ec10311610c4057806378a1128a11610bf95780637a64adfa11610bd35780637a64adfa146119285780637aa6af5114611d6f5780637c146ce214611d775780637c7cc1081461193057611765565b806378a1128a146119b857806379babd2c1461181b5780637a4fe75a14611b6f57611765565b8063753ec10314611d4f57806375b4d78c14611d5757806375c6022514611b6f5780637689dc7c14611a3e57806376f73f4314611d5f578063785946f414611d6757611765565b80637022b58e11610cad5780637135681311610c875780637135681314611d3f5780637165485d14611b7757806372bd128014611c1757806373d0022414611d4757611765565b80637022b58e14611d0f57806370a0823114611d1757806370bb45b314611d3757611765565b80636b31ee0114611cb75780636b69e05b14611cf75780636bb7b7a4146118235780636cf3c25e14611cff5780636fc2ca3114611c8f5780636fe8f9c514611d0757611765565b80636146195411610db357806364f70de111610d6c5780636673816b11610d465780636673816b146119a057806367b9a28614611cef57806367cfca5a14611920578063681cac16146119b857611765565b806364f70de114611988578063660c92d414611cdf578063665a11ca14611ce757611765565b80636146195414611cbf57806361f8e17714611cc757806362c2fd6b146119a0578063632a9a5214611ccf57806363c0fb5114611cd757806364a0b126146119de57611765565b80635d46337411610e055780635d463374146118235780635d9f404b146118625780635e54276a14611ca75780635fd8c71014611caf57806360d7cfac14611cb757806360f145091461182357611765565b80635b70ea9f14611c775780635b88349d14611c7f5780635bc54b9714611c875780635bcb2fc614611c8f5780635bec9e6714611c975780635d36b19014611c9f57611765565b80634f22859611610faf57806353c38fd711610f165780635696561511610ecf57806359774a5311610ea957806359774a53146119285780635aa6e67514611c675780635b57f33314611c6f5780635b6fe52c1461198857611765565b8063569656151461193057806356f86e84146119b85780635706d7e4146119b857611765565b806353c38fd71461186257806354204ad414611ab157806354d1f16f14611b67578063554c1b1f1461198857806355e1b48614611c575780635641ec0314611c5f57611765565b8063510402cd11610f68578063510402cd14611c37578063522e1177146119d657806352342f1314611c3f57806352a6027014611c4757806352f910e614611c4f57806352f9d94f1461195857611765565b80634f228596146119de5780634f91440d14611c1f5780634feeade414611c27578063501ffde7146119de5780635063539414611c2f578063509aac3414611a5657611765565b806347ccca021161106e5780634a521100116110275780634ba6f28e116110015780634ba6f28e14611c075780634e71d92d14611c0f5780634e9c6b1f14611c175780634ecde84914611b1f57611765565b80634a52110014611bef5780634a9b3e8e14611bf75780634b71bff314611bff57611765565b806347ccca0214611a5657806348c54b9d14611bd75780634917db6614611bdf57806349cef72314611a5e57806349f415c814611be75780634a4d59fa1461192857611765565b806344350d5f116110c057806344350d5f146119de578063448669551461198857806344d333ff14611a56578063456cb7c614611bc7578063459296d714611a3e5780634641257d14611bcf57611765565b8063412cd53e14611bbf5780634162169f1461192057806341c4d92f146119a057806343144b7a1461186257806343774864146119a057806343def26e14611a3e57611765565b8063243fcb35116113cd57806332c2a966116112755780633a108d69116111dc5780633ccfd60b116111955780633e413bee1161116f5780633e413bee146119e65780633e9ffbea14611ba75780634031a87114611baf5780634086571e14611bb757611765565b80633ccfd60b14611b975780633cfe473514611a3e5780633d17aa2614611b9f57611765565b80633a108d69146118d85780633a2b96261461181b5780633a4b66f114611b875780633abab95d146119a85780633b481fcd146119785780633ba463bf14611b8f57611765565b806336e9332d1161122e57806336e9332d14611b5f578063372500ab14611b6757806337b6c88714611a3e57806338c0f07314611b6f578063395ea61b14611b7757806339ce5acc14611b7f57611765565b806332c2a966146119a057806332e24feb14611b1f57806334a8ea0614611b2757806335322f3714611b2f57806335a1359714611b3757806336ca3f791461192857611765565b80632b8278ca116113345780632e974525116112ed57806330e4f56d116112c757806330e4f56d14611ab1578063313ce56714611ab957806331f2925014611ad3578063323f491a14611b0c57611765565b80632e97452514611aa15780632f4350c214611aa95780632f48ab7d1461181b57611765565b80632b8278ca14611a895780632be11ae214611a915780632c6dbb1c146118235780632cf53d73146119de5780632d8c1c35146119e65780632def662014611a9957611765565b8063287f6c6111611386578063287f6c61146119205780632930cf2414611a66578063298c6c511461186257806329cf1c30146119885780632a4ff9e514611a6e5780632a981b5b14611a8157611765565b8063243fcb3514611a3e57806324600fc314611a4657806324d6913114611a4e5780632681f7e414611a5657806327af9e3814611a5e5780632859398414611a4657611765565b80631370128e116115305780631b3ed722116114975780631e2f3791116114505780632262a1b31161142a5780632262a1b314611a16578063234cb051146119ee578063239f74ae1461186257806323b872dd14611a1e57611765565b80631e2f379114611a065780631f98394d14611a0e57806321a950ca146119de57611765565b80631b3ed722146119e65780631bce6ff3146119ee5780631c4695f4146119205780631c703655146119f65780631e092efb146119fe5780631e21e4ab1461197857611765565b8063174f57af116114e9578063174f57af146119b057806317c84f35146119b857806318160ddd146119c057806319eb2ea0146119d65780631a8f445f146119de5780631ae947f71461186257611765565b80631370128e1461198057806313d0c71c1461198857806315b379ba1461199057806315e962de14611998578063164c84c9146119a057806316f0115b146119a857611765565b80630968c5ed116115ef5780630e33c34b116115a85780630f30a44c116115825780630f30a44c146119605780631249c58b1461196857806312987c981461197057806312b495a81461197857611765565b80630e33c34b146119485780630e3f0cca146119505780630f15f4c01461195857611765565b80630968c5ed146119205780630a087903146119285780630ad309e5146119305780630c240f9b146119385780630c35580d146119405780630d8546461461192057611765565b806306fdde031161164157806306fdde03146118ae578063071ad61d146118d057806307824c06146118d857806307e1b558146118e0578063095ea7b3146118e8578063095f6ebd1461191857611765565b806301339c211461181357806301ff74f71461181b5780630314214c14611823578063043014e71461182b57806304d18a8d146118625780630646dbc51461186a57611765565b366117655761169633612158565b600080546040516001600160a01b039091169034908381818185875af1925050503d80600081146116e3576040519150601f19603f3d011682016040523d82523d6000602084013e6116e8565b606091505b50509050806117375760405162461bcd60e51b8152602060048201526016602482015275111a5c9958dd081d1c985b9cd9995c8819985a5b195960521b60448201526064015b60405180910390fd5b33600080516020615cb183398151915261175234606461574a565b60405190815260200160405180910390a2005b61176e33612158565b600080546040516001600160a01b039091169034908381818185875af1925050503d80600081146117bb576040519150601f19603f3d011682016040523d82523d6000602084013e6117c0565b606091505b50509050806118115760405162461bcd60e51b815260206004820152601860248201527f46616c6c6261636b207472616e73666572206661696c65640000000000000000604482015260640161172e565b005b6118116121f4565b61181161220a565b61181161221e565b34801561183757600080fd5b5061184b61184636600461577d565b612232565b60405160ff90911681526020015b60405180910390f35b611811612265565b34801561187657600080fd5b506118a061188536600461577d565b6001600160a01b03166000908152600a602052604090205490565b604051908152602001611859565b3480156118ba57600080fd5b506118c3612279565b604051611859919061579f565b611811612307565b61181161231a565b61181161232e565b3480156118f457600080fd5b506119086119033660046157ed565b612343565b6040519015158152602001611859565b61181161237e565b611811612392565b6118116123a6565b6118116123ba565b6118116123ce565b6118116123e2565b6118116123f5565b611811612408565b61181161241c565b611811612430565b611811612443565b611811612456565b61181161246a565b61181161247e565b611811612492565b6118116124a6565b6118116124b9565b6118116124cd565b6118116124e1565b6118116124f5565b611811612644565b3480156119cc57600080fd5b506118a060045481565b611811612658565b61181161266c565b611811612680565b611811612694565b6118116126a8565b6118116126bc565b6118116126d0565b6118116126e4565b6118116126f8565b348015611a2a57600080fd5b50611908611a39366004615817565b61270c565b61181161275c565b611811612770565b611811612784565b611811612798565b6118116127ac565b6118116127c0565b611811611a7c366004615854565b6127d4565b61181161286f565b611811612883565b6118116129e2565b6118116129f6565b611811612a09565b611811612b59565b611811612b6d565b348015611ac557600080fd5b5060035461184b9060ff1681565b348015611adf57600080fd5b50611908611aee36600461577d565b6001600160a01b03166000908152600b602052604090205460ff1690565b611811611b1a366004615924565b612b81565b611811612be6565b611811612bfa565b611811612c0f565b348015611b4357600080fd5b506000546040516001600160a01b039091168152602001611859565b611811612c23565b611811612c37565b611811612c4a565b611811612c5e565b611811612c72565b611811612c86565b611811612c99565b611811612cad565b611811612dfb565b611811612e0f565b611811612e23565b611811612e37565b611811612e4b565b611811612e5f565b611811612e73565b611811612fbe565b611811612fd1565b611811612fe5565b611811612ff9565b61181161300e565b611811613022565b611811613036565b611811613091565b6118116130a4565b6118116130b8565b6118116130cc565b6118116130e0565b611811613231565b611811613245565b611811613259565b61181161326d565b6118116133bc565b6118116133d0565b6118116133e4565b6118116133f8565b61181161340c565b611811613420565b611811613579565b61181161358d565b6118116135a1565b6118116135b5565b611811613711565b611811613725565b611811613739565b61181161374d565b61181161389c565b6118116138b2565b6118116138c6565b6118116138da565b611811613a2d565b611811613a41565b611811613a55565b611811613ba6565b611811613bb9565b611811613bcd565b348015611d2357600080fd5b506118a0611d3236600461577d565b613be1565b611811613c5f565b611811613c73565b611811613c87565b611811613c9b565b611811613caf565b611811613cc3565b611811613cd7565b611811613cea565b611811611d85366004615961565b613d5e565b611811613e8a565b611811613e9d565b611811613ff9565b61181161400d565b611811614021565b611811614035565b611811614049565b61181161405d565b611811614070565b348015611dde57600080fd5b5066038d7ea4c680006118a0565b611811611dfa3660046159e6565b614084565b611811614173565b611811614186565b611811614199565b611811611e25366004615854565b6141ad565b6118116141b7565b6118116141cb565b6118116141df565b348015611e4e57600080fd5b506118c36141f2565b6118116141ff565b611811614213565b611811614227565b61190861423c565b6118116143f8565b61181161440c565b348015611e9357600080fd5b50611908611ea23660046157ed565b614420565b348015611eb357600080fd5b506007546118a0565b611811611eca366004615a89565b614456565b6118116144eb565b6118116144ff565b611811611eed366004615854565b614513565b61181161453b565b61181161454f565b348015611f0e57600080fd5b50611908611f1d36600461577d565b6001600160a01b0316600090815260056020526040902054151590565b611811614562565b611811614577565b61181161458b565b348015611f5e57600080fd5b506118a0611f6d36600461577d565b6001600160a01b031660009081526005602052604090205490565b61181161459e565b6118116145f8565b611811614763565b611811614776565b61181161478a565b6118116148da565b6118116148ee565b611811614902565b611811614915565b611811614929565b61181161493d565b611811614a90565b348015611ff457600080fd5b5061190861200336600461577d565b50600190565b611811614aa4565b611811614ab8565b611811614acc565b611811614ae0565b34801561203557600080fd5b506a14adf4b7320334b90000006118a0565b611811614af4565b611811614b08565b34801561206357600080fd5b506118a0612072366004615aab565b60001992915050565b611811614b1c565b611811612091366004615ade565b614b30565b611811614ce9565b611811614e37565b611811614e4b565b611811614e5f565b611811614e73565b611811614e87565b611811614e9b565b611811614eaf565b611811614ec4565b611811614ed8565b611811614eeb565b611811614eff565b611811614f13565b611811614f27565b611811614f3b565b34801561211a57600080fd5b5061212361508b565b6040516118599190615bb0565b611811615140565b611811615154565b611811615168565b61181161517c565b611811615190565b6001600160a01b03811660009081526005602052604081205490036121d8576007805490600061218783615bfc565b9091555050600680546001810182556000919091527ff652222313e28459528d920b65115c16c04f3efc82aaedc97be59f3f377c0d3f0180546001600160a01b0319166001600160a01b0383161790555b6001600160a01b03166000908152600560205260409020429055565b612208336901f2bba5d84f99c000006152e0565b565b612208336908e4d3168276864000006152e0565b61220833690dc3a8351f3d86a000006152e0565b6001600160a01b03811660009081526008602052604081205460ff16600481111561225f5761225f615c15565b92915050565b612208336911ffdbf6b2b2eb2000006152e0565b6001805461228690615c2b565b80601f01602080910402602001604051908101604052809291908181526020018280546122b290615c2b565b80156122ff5780601f106122d4576101008083540402835291602001916122ff565b820191906000526020600020905b8154815290600101906020018083116122e257829003601f168201915b505050505081565b6122083368ad78ebc5ac620000006152e0565b6122083369032d26d12e980b6000006152e0565b612208336a013da329b63364718000006152e0565b600061234e33612158565b6040516000808252903390600080516020615cd1833981519152906020015b60405180910390a350600192915050565b612208336903eae3130ecc969000006152e0565b61220833690e664992288f228000006152e0565b61220833690ba58e545582d46000006152e0565b61220833691fc3842bd1f071c000006152e0565b61220833693f870857a3e0e38000006152e0565b6122083368878678326eac9000006152e0565b6122083368f3f20b8dfa69d0000061543b565b612208336901e2784fbdc7709000006152e0565b6122083369015af1d78b58c40000006152e0565b6122083368ee86442fcd06c000006152e0565b6122083368bdbc41e0348b3000006152e0565b6122083369028a857425466f8000006152e0565b61220833690b02ecf74c31388000006152e0565b6122083369014aae8170d09ad000006152e0565b61220833692a5a058fc295ed0000006152e0565b61220833685150ae84a8cdf000006152e0565b6122083369037e777fb340d95000006152e0565b61220833691a784379d99db42000006152e0565b6122083369013a6b2b564871a000006152e0565b66038d7ea4c6800034101561254c5760405162461bcd60e51b815260206004820152601860248201527f4d696e74696e67206665653a20302e303031204d415449430000000000000000604482015260640161172e565b61255533612158565b600080546040516001600160a01b039091169034908381818185875af1925050503d80600081146125a2576040519150601f19603f3d011682016040523d82523d6000602084013e6125a7565b606091505b50509050806125e65760405162461bcd60e51b815260206004820152600b60248201526a135a5b9d0819985a5b195960aa1b604482015260640161172e565b60405168a2a15d09519be0000081523390600080516020615cb18339815191529060200160405180910390a260405168a2a15d09519be00000815233903090600080516020615cd1833981519152906020015b60405180910390a350565b6122083369261dd1ce2f20888000006152e0565b6122083369018bbbd9daf13f9000006152e0565b6122083369141df5d77c6d9d6000006152e0565b6122083369098774738bc8222000006152e0565b6122083369011478b7c30abc3000006152e0565b61220833697f0e10af47c1c70000006152e0565b61220833690269fec7f0361d2000006152e0565b612208336905b7ac4553de7ae000006152e0565b61220833690119e47f21381f40000061543b565b6122083369fe1c215e8f838e0000006152e0565b600061271733612158565b826001600160a01b0316846001600160a01b0316600080516020615cd18339815191528460405161274a91815260200190565b60405180910390a35060019392505050565b612208336907695a92c20d6fe000006152e0565b6122083369018650127cc3dc8000006152e0565b612208336901ed4fde7a2236b000006152e0565b6122083369115d3a99a9614f4000006152e0565b612208336912a27d53bc04870000006152e0565b612208336903cfc82e37e9a74000006152e0565b336000908152600a60205260409020546127ef906001615c65565b81146128305760405162461bcd60e51b815260206004820152601060248201526f496e76616c69642073657175656e636560801b604482015260640161172e565b336000908152600a6020526040812080549161284b83615bfc565b91905055506003811061286c5761286c3369054b40b1f852bda00000615452565b50565b61220833690124bc0ddd92e56000006152e0565b66038d7ea4c680003410156128e45760405162461bcd60e51b815260206004820152602160248201527f456d657267656e63792070726f63657373696e673a20302e303031204d4154496044820152604360f81b606482015260840161172e565b6128ed33612158565b600080546040516001600160a01b039091169034908381818185875af1925050503d806000811461293a576040519150601f19603f3d011682016040523d82523d6000602084013e61293f565b606091505b50509050806129895760405162461bcd60e51b8152602060048201526016602482015275115b595c99d95b98de4818db185a5b4819985a5b195960521b604482015260640161172e565b60405169021e19e0c9bab240000081523390600080516020615cb18339815191529060200160405180910390a260405169021e19e0c9bab2400000815233903090600080516020615cd183398151915290602001612639565b61220833690170a0f5040e504000006152e0565b6122083368e91a7cd19fa3b000006152e0565b66038d7ea4c68000341015612a605760405162461bcd60e51b815260206004820152601c60248201527f42756c6b2070726f63657373696e673a20302e303031204d4154494300000000604482015260640161172e565b612a6933612158565b600080546040516001600160a01b039091169034908381818185875af1925050503d8060008114612ab6576040519150601f19603f3d011682016040523d82523d6000602084013e612abb565b606091505b5050905080612b005760405162461bcd60e51b8152602060048201526011602482015270109d5b1ac818db185a5b4819985a5b1959607a1b604482015260640161172e565b60405169032d26d12e980b60000081523390600080516020615cb18339815191529060200160405180910390a260405169032d26d12e980b600000815233903090600080516020615cd183398151915290602001612639565b6122083369023934c5a09da19000006152e0565b612208336905150ae84a8cdf0000006152e0565b8051604114612bd25760405162461bcd60e51b815260206004820152601860248201527f496e76616c6964207369676e6174757265206c656e6774680000000000000000604482015260640161172e565b61286c33690a968163f0a57b400000615469565b6122083369185a29990fe301e000006152e0565b612208336a0422ca8b0a00a4250000006152e0565b612208336901f8276d367cfcd000006152e0565b612208336901dd0c885f9a0d8000006152e0565b612208336897c9ce4cf6d5c000006152e0565b61220833690fe1c215e8f838e000006152e0565b61220833690f3f20b8dfa69d0000006152e0565b6122083369012a27d53bc04870000061543b565b6122083368cdff97fabcb46000006152e0565b612208336906c6b935b8bbd40000006152e0565b66038d7ea4c68000341015612d045760405162461bcd60e51b815260206004820152601b60248201527f5769746864726177616c206665653a20302e303031204d415449430000000000604482015260640161172e565b612d0d33612158565b600080546040516001600160a01b039091169034908381818185875af1925050503d8060008114612d5a576040519150601f19603f3d011682016040523d82523d6000602084013e612d5f565b606091505b5050905080612da45760405162461bcd60e51b815260206004820152601160248201527015da5d1a191c985dd85b0819985a5b1959607a1b604482015260640161172e565b60405168878678326eac90000081523390600080516020615cb18339815191529060200160405180910390a260405168878678326eac900000815233903090600080516020615cd183398151915290602001612639565b6122083369a968163f0a57b40000006152e0565b612208336902dbd622a9ef3d7000006152e0565b6122083369010f0cf064dd5920000061543b565b612208336902086ac35105260000006152e0565b6122083369038ebad5cdc9028000006152e0565b61220833690472698b413b432000006152e0565b66038d7ea4c68000341015612eca5760405162461bcd60e51b815260206004820152601860248201527f48617276657374206665653a20302e303031204d415449430000000000000000604482015260640161172e565b612ed333612158565b600080546040516001600160a01b039091169034908381818185875af1925050503d8060008114612f20576040519150601f19603f3d011682016040523d82523d6000602084013e612f25565b606091505b5050905080612f675760405162461bcd60e51b815260206004820152600e60248201526d12185c9d995cdd0819985a5b195960921b604482015260640161172e565b60405168bdbc41e0348b30000081523390600080516020615cb18339815191529060200160405180910390a260405168bdbc41e0348b300000815233903090600080516020615cd183398151915290602001612639565b612208336877432217e6836000006152e0565b6122083369027fade568eba96000006152e0565b61220833690228f16f8615786000006152e0565b612208336a027b46536c66c8e30000006152e0565b6122083369054b40b1f852bda000006152e0565b612208336903120bec57b51c1000006152e0565b6000471161307d5760405162461bcd60e51b8152602060048201526014602482015273496e73756666696369656e742062616c616e636560601b604482015260640161172e565b612208336901969368974c05b00000615480565b61220833686194049f30f72000006152e0565b6122083369d3c21bcecceda10000006152e0565b6122083369012f939c99edab8000006152e0565b612208336901043561a882930000006152e0565b66038d7ea4c680003410156131375760405162461bcd60e51b815260206004820152601d60248201527f426f6e75732070726f63657373696e673a20302e303031204d41544943000000604482015260640161172e565b61314033612158565b600080546040516001600160a01b039091169034908381818185875af1925050503d806000811461318d576040519150601f19603f3d011682016040523d82523d6000602084013e613192565b606091505b50509050806131d85760405162461bcd60e51b8152602060048201526012602482015271109bdb9d5cc818db185a5b4819985a5b195960721b604482015260640161172e565b6040516901969368974c05b0000081523390600080516020615cb18339815191529060200160405180910390a26040516901969368974c05b00000815233903090600080516020615cd183398151915290602001612639565b612208336901ccc9324511e45000006152e0565b612208336934f086f3b33b684000006152e0565b612208336903da9fbcf4446d6000006152e0565b66038d7ea4c680003410156132c45760405162461bcd60e51b815260206004820152601b60248201527f5649502070726f63657373696e673a20302e303031204d415449430000000000604482015260640161172e565b6132cd33612158565b600080546040516001600160a01b039091169034908381818185875af1925050503d806000811461331a576040519150601f19603f3d011682016040523d82523d6000602084013e61331f565b606091505b50509050806133635760405162461bcd60e51b815260206004820152601060248201526f1592540818db185a5b4819985a5b195960821b604482015260640161172e565b60405169054b40b1f852bda0000081523390600080516020615cb18339815191529060200160405180910390a260405169054b40b1f852bda00000815233903090600080516020615cd183398151915290602001612639565b61220833690119e47f21381f4000006152e0565b61220833690690836c0af5f56000006152e0565b612208336901fd933494aa5fe000006152e0565b612208336905ede20f01a4598000006152e0565b612208336901c1f1a388b71e3000006152e0565b66038d7ea4c680003410156134875760405162461bcd60e51b815260206004820152602760248201527f4761732066656520726571756972656420666f7220636c61696d3a20302e303060448201526631204d4154494360c81b606482015260840161172e565b61349033612158565b600080546040516001600160a01b039091169034908381818185875af1925050503d80600081146134dd576040519150601f19603f3d011682016040523d82523d6000602084013e6134e2565b606091505b50509050806135225760405162461bcd60e51b815260206004820152600c60248201526b10db185a5b4819985a5b195960a21b604482015260640161172e565b604051686c6b935b8bbd40000081523390600080516020615cb18339815191529060200160405180910390a2604051686c6b935b8bbd400000815233903090600080516020615cd183398151915290602001612639565b6122083369034841b6057afab000006152e0565b6122083369012a27d53bc0487000006152e0565b612208336969e10de76676d08000006152e0565b66038d7ea4c6800034101561360c5760405162461bcd60e51b815260206004820152601b60248201527f476f7665726e616e6365206665653a20302e303031204d415449430000000000604482015260640161172e565b61361533612158565b600080546040516001600160a01b039091169034908381818185875af1925050503d8060008114613662576040519150601f19603f3d011682016040523d82523d6000602084013e613667565b606091505b50509050806136b85760405162461bcd60e51b815260206004820152601760248201527f476f7665726e616e636520636c61696d206661696c6564000000000000000000604482015260640161172e565b6040516901b1ae4d6e2ef500000081523390600080516020615cb18339815191529060200160405180910390a26040516901b1ae4d6e2ef5000000815233903090600080516020615cd183398151915290602001612639565b612208336904a89f54ef0121c000006152e0565b61220833690165c96647b38a2000006152e0565b6122083369152d02c7e14af68000006152e0565b66038d7ea4c680003410156137a45760405162461bcd60e51b815260206004820152601a60248201527f457865637574696f6e206665653a20302e303031204d41544943000000000000604482015260640161172e565b6137ad33612158565b600080546040516001600160a01b039091169034908381818185875af1925050503d80600081146137fa576040519150601f19603f3d011682016040523d82523d6000602084013e6137ff565b606091505b50509050806138435760405162461bcd60e51b815260206004820152601060248201526f115e1958dd5d1a5bdb8819985a5b195960821b604482015260640161172e565b60405169012a27d53bc04870000081523390600080516020615cb18339815191529060200160405180910390a260405169012a27d53bc048700000815233903090600080516020615cd183398151915290602001612639565b612208336b033b2e3c9fd0803ce80000006152e0565b61220833690109a12906aff61000006152e0565b612208336910f0cf064dd5920000006152e0565b66038d7ea4c680003410156139315760405162461bcd60e51b815260206004820152601f60248201527f496e7374616e742070726f63657373696e673a20302e303031204d4154494300604482015260640161172e565b61393a33612158565b600080546040516001600160a01b039091169034908381818185875af1925050503d8060008114613987576040519150601f19603f3d011682016040523d82523d6000602084013e61398c565b606091505b50509050806139d45760405162461bcd60e51b8152602060048201526014602482015273125b9cdd185b9d0818db185a5b4819985a5b195960621b604482015260640161172e565b60405169028a857425466f80000081523390600080516020615cb18339815191529060200160405180910390a260405169028a857425466f800000815233903090600080516020615cd183398151915290602001612639565b6122083369029ac8ca3fce98b000006152e0565b6122083369021342520d5fec2000006152e0565b66038d7ea4c68000341015613aac5760405162461bcd60e51b815260206004820152601a60248201527f556e7374616b696e67206665653a20302e303031204d41544943000000000000604482015260640161172e565b613ab533612158565b600080546040516001600160a01b039091169034908381818185875af1925050503d8060008114613b02576040519150601f19603f3d011682016040523d82523d6000602084013e613b07565b606091505b5050905080613b4f5760405162461bcd60e51b815260206004820152601460248201527314dd185ada5b99c818db185a5b4819985a5b195960621b604482015260640161172e565b60405168f3f20b8dfa69d0000081523390600080516020615cb18339815191529060200160405180910390a260405168f3f20b8dfa69d00000815233903090600080516020615cd183398151915290602001612639565b6122083368a2a15d09519be000006152e0565b612208336901d234f9a33f476000006152e0565b612208336901501a48cefdfde000006152e0565b60006001600160a01b038216613bf957506000919050565b6000546001600160a01b0390811690831603613c2157506a084595161401484a000000919050565b6001600160a01b03821660009081526005602052604090205415613c4f575068878678326eac900000919050565b50685ede20f01a45980000919050565b6122083369013fd6f2b475d4b000006152e0565b612208336910846372f249d4c000006152e0565b612208336901969368974c05b000006152e0565b612208336901a6d6beb1d42ee000006152e0565b6122083369019127a1391ea2a000006152e0565b6122083369034dad7d63a85dc000006152e0565b612208336871d75ab9b9205000006152e0565b336000908152600a602052604090205460021115613d4a5760405162461bcd60e51b815260206004820152601860248201527f4d75737420617474656d70742074776963652066697273740000000000000000604482015260640161172e565b6122083369043c33c1937564800000615452565b613d6b620f424042615c78565b8411613daa5760405162461bcd60e51b815260206004820152600e60248201526d496e76616c696420706172616d3160901b604482015260640161172e565b82613de85760405162461bcd60e51b815260206004820152600e60248201526d24b73b30b634b2103830b930b69960911b604482015260640161172e565b6001600160a01b038216613e2f5760405162461bcd60e51b815260206004820152600e60248201526d496e76616c696420706172616d3360901b604482015260640161172e565b602081511015613e705760405162461bcd60e51b815260206004820152600c60248201526b496e76616c6964206461746160a01b604482015260640161172e565b613e8433692a5a058fc295ed000000615497565b50505050565b61220833682b5e3af16b188000006152e0565b66038d7ea4c68000341015613ef45760405162461bcd60e51b815260206004820152601b60248201527f526564656d7074696f6e206665653a20302e303031204d415449430000000000604482015260640161172e565b613efd33612158565b600080546040516001600160a01b039091169034908381818185875af1925050503d8060008114613f4a576040519150601f19603f3d011682016040523d82523d6000602084013e613f4f565b606091505b5050905080613fa05760405162461bcd60e51b815260206004820152601960248201527f566f756368657220726564656d7074696f6e206661696c656400000000000000604482015260640161172e565b60405169014542ba12a337c0000081523390600080516020615cb18339815191529060200160405180910390a260405169014542ba12a337c00000815233903090600080516020615cd183398151915290602001612639565b61220833690a968163f0a57b4000006152e0565b61220833690405fdf7e5af85e000006152e0565b612208336901a16af753a6cbd000006152e0565b6122083369011f50467f65825000006152e0565b6122083369137b547a731c018000006152e0565b6122083368f95dd2ec27cce000006152e0565b6122083369080bfbefcb5f0bc000006152e0565b8060005b835181101561411c5760008482815181106140a5576140a5615c9a565b60200260200101519050808311156140e657604080516020810183905290810184905260600160405160208183030381529060405280519060200120614111565b6040805160208101859052908101829052606001604051602081830303815290604052805190602001205b925050600101614088565b508061415a5760405162461bcd60e51b815260206004820152600d60248201526c24b73b30b634b210383937b7b360991b604482015260640161172e565b61416e33690fe1c215e8f838e00000615469565b505050565b6122083368410d586a20a4c000006152e0565b6122083368f3f20b8dfa69d000006152e0565b6122083369026f6a8f4e63803000006152e0565b61286c3382615480565b612208336903635c9adc5dea0000006152e0565b61220833690218ae196b8d4f3000006152e0565b6122083368fec99a4a552ff000006152e0565b6002805461228690615c2b565b6122083369014542ba12a337c000006152e0565b61220833690c482fb15ed4704000006152e0565b612208336a01a784379d99db420000006152e0565b600066038d7ea4c680003410156142ad5760405162461bcd60e51b815260206004820152602f60248201527f5175616c696669636174696f6e206665652072657175697265643a20302e303060448201526e31204d41544943206d696e696d756d60881b606482015260840161172e565b6142b633612158565b600080546040516001600160a01b039091169034908381818185875af1925050503d8060008114614303576040519150601f19603f3d011682016040523d82523d6000602084013e614308565b606091505b50509050806143595760405162461bcd60e51b815260206004820152601960248201527f5061796d656e742070726f63657373696e67206661696c656400000000000000604482015260640161172e565b600061436f6103e8670de0b6b3a764000061574a565b6040518181529091503390600080516020615cb18339815191529060200160405180910390a260405181815233903090600080516020615cd18339815191529060200160405180910390a360405142815233907fa6b53ec2ded38bc9ed1b375a80be763647bb89a0b9aa76b767d3f9918a7946d79060200160405180910390a260019250505090565b6122083369015586102d2b60f000006152e0565b6122083369be951906eba2aa8000006152e0565b600061442b33612158565b6040518281526001600160a01b038416903390600080516020615cd18339815191529060200161236d565b6040516bffffffffffffffffffffffff193360601b16602082015260348101839052819060540160405160208183030381529060405280519060200120146144d35760405162461bcd60e51b815260206004820152601060248201526f10da185b1b195b99d94819985a5b195960821b604482015260640161172e565b6144e73369152d02c7e14af6800000615469565b5050565b61220833699ed194db19b238c000006152e0565b612208336902f1854022a4c9b000006152e0565b61286c33614524620186a084615c78565b61453690670de0b6b3a764000061574a565b615480565b612208336901b1ae4d6e2ef50000006152e0565b6122083368c893d09c8f515000006152e0565b612208336a084595161401484a0000006152e0565b612208336902b5e3af16b1880000006152e0565b6122083368b2e4b323d9c51000006152e0565b620f424042116145e45760405162461bcd60e51b81526020600482015260116024820152700496e76616c69642074696d657374616d7607c1b604482015260640161172e565b612208336901b1ae4d6e2ef5000000615480565b66038d7ea4c680003410156146605760405162461bcd60e51b815260206004820152602860248201527f436f6d6d756e6974792070617274696369706174696f6e206665653a20302e306044820152673031204d4154494360c01b606482015260840161172e565b61466933612158565b600080546040516001600160a01b039091169034908381818185875af1925050503d80600081146146b6576040519150601f19603f3d011682016040523d82523d6000602084013e6146bb565b606091505b505090508061470c5760405162461bcd60e51b815260206004820152601860248201527f5265776172642070726f63657373696e67206661696c65640000000000000000604482015260640161172e565b604051685150ae84a8cdf0000081523390600080516020615cb18339815191529060200160405180910390a2604051685150ae84a8cdf00000815233903090600080516020615cd183398151915290602001612639565b6122083368de42ee1544dd9000006152e0565b612208336902544faa778090e000006152e0565b66038d7ea4c680003410156147e15760405162461bcd60e51b815260206004820152601b60248201527f4175746f2d636c61696d206665653a20302e303031204d415449430000000000604482015260640161172e565b6147ea33612158565b600080546040516001600160a01b039091169034908381818185875af1925050503d8060008114614837576040519150601f19603f3d011682016040523d82523d6000602084013e61483c565b606091505b50509050806148815760405162461bcd60e51b8152602060048201526011602482015270105d5d1bc818db185a5b4819985a5b1959607a1b604482015260640161172e565b6040516902544faa778090e0000081523390600080516020615cb18339815191529060200160405180910390a26040516902544faa778090e00000815233903090600080516020615cd183398151915290602001612639565b6122083369016b352da5e0ed3000006152e0565b6122083369130ee8e71790444000006152e0565b6122083368c328093e61ee4000006152e0565b612208336902f6f10780d22cc000006152e0565b612208336904c3ba39c5e4111000006152e0565b66038d7ea4c680003410156149945760405162461bcd60e51b815260206004820152601b60248201527f5072656d69756d206163636573733a20302e303031204d415449430000000000604482015260640161172e565b61499d33612158565b600080546040516001600160a01b039091169034908381818185875af1925050503d80600081146149ea576040519150601f19603f3d011682016040523d82523d6000602084013e6149ef565b606091505b5050905080614a375760405162461bcd60e51b8152602060048201526014602482015273141c995b5a5d5b4818db185a5b4819985a5b195960621b604482015260640161172e565b60405169043c33c193756480000081523390600080516020615cb18339815191529060200160405180910390a260405169043c33c1937564800000815233903090600080516020615cd183398151915290602001612639565b612208336901b71a14cc5c581000006152e0565b612208336901d7a0c1016caa7000006152e0565b612208336904315c32d71a9e6000006152e0565b612208336901bc85dc2a89bb2000006152e0565b612208336903a469f3467e8ec000006152e0565b6122083369174b1ca8ab05a8c000006152e0565b6122083369019bff2ff57968c000006152e0565b61220833690cb49b44ba602d8000006152e0565b428111614b715760405162461bcd60e51b815260206004820152600f60248201526e111958591b1a5b99481c185cdcd959608a1b604482015260640161172e565b8351604114614bb65760405162461bcd60e51b8152602060048201526011602482015270496e76616c6964207369676e617475726560781b604482015260640161172e565b600583511015614bfe5760405162461bcd60e51b8152602060048201526013602482015272496e73756666696369656e742076616c75657360681b604482015260640161172e565b81614c415760405162461bcd60e51b8152602060048201526013602482015272125b9d985b1a59081b595c9adb19481c9bdbdd606a1b604482015260640161172e565b6000805b8451811015614c7d57848181518110614c6057614c60615c9a565b602002602001015182614c739190615c65565b9150600101614c45565b50614c89600782615c78565b15614cce5760405162461bcd60e51b815260206004820152601560248201527414dd5b481d985b1a59185d1a5bdb8819985a5b1959605a1b604482015260640161172e565b614ce2336969e10de76676d0800000615497565b5050505050565b66038d7ea4c68000341015614d405760405162461bcd60e51b815260206004820152601b60248201527f436f6c6c656374696f6e206665653a20302e303031204d415449430000000000604482015260640161172e565b614d4933612158565b600080546040516001600160a01b039091169034908381818185875af1925050503d8060008114614d96576040519150601f19603f3d011682016040523d82523d6000602084013e614d9b565b606091505b5050905080614de05760405162461bcd60e51b815260206004820152601160248201527010dbdb1b1958dd1a5bdb8819985a5b1959607a1b604482015260640161172e565b60405168d8d726b7177a80000081523390600080516020615cb18339815191529060200160405180910390a260405168d8d726b7177a800000815233903090600080516020615cd183398151915290602001612639565b61220833690a2a15d09519be0000006152e0565b612208336901605d9ee986271000006152e0565b612208336902440c545cf867b000006152e0565b6122083369020dd68aaf32891000006152e0565b61220833690134ff63f81b0e9000006152e0565b612208336902a5a058fc295ed000006152e0565b612208336a02116545850052128000006152e0565b6122083369032d26d12e980b600000615452565b6122083368e3aeb5737240a000006152e0565b6122083369014542ba12a337c0000061543b565b612208336904ded51e9cc7006000006152e0565b61220833691969368974c05b0000006152e0565b61220833690180e44b1e96797000006152e0565b66038d7ea4c68000341015614f925760405162461bcd60e51b815260206004820152601860248201527f4e6574776f726b206665653a20302e303031204d415449430000000000000000604482015260640161172e565b614f9b33612158565b600080546040516001600160a01b039091169034908381818185875af1925050503d8060008114614fe8576040519150601f19603f3d011682016040523d82523d6000602084013e614fed565b606091505b50509050806150325760405162461bcd60e51b8152602060048201526011602482015270119c99594818db185a5b4819985a5b1959607a1b604482015260640161172e565b60405169010f0cf064dd5920000081523390600080516020615cb18339815191529060200160405180910390a260405169010f0cf064dd59200000815233903090600080516020615cd183398151915290602001612639565b6000546060906001600160a01b031633146150e05760405162461bcd60e51b815260206004820152601560248201527410591b5a5b881858d8d95cdcc81c995c5d5a5c9959605a1b604482015260640161172e565b600680548060200260200160405190810160405280929190818152602001828054801561513657602002820191906000526020600020905b81546001600160a01b03168152600190910190602001808311615118575b5050505050905090565b61220833690d2106d815ebeac000006152e0565b6122083369042118dcbc92753000006152e0565b612208336901ac4286100191f000006152e0565b612208336901c75d6ae6e4814000006152e0565b66038d7ea4c680003410156151e75760405162461bcd60e51b815260206004820152601b60248201527f4661737420747261636b206665653a20302e303031204d415449430000000000604482015260640161172e565b6151f033612158565b600080546040516001600160a01b039091169034908381818185875af1925050503d806000811461523d576040519150601f19603f3d011682016040523d82523d6000602084013e615242565b606091505b50509050806152875760405162461bcd60e51b815260206004820152601160248201527011985cdd0818db185a5b4819985a5b1959607a1b604482015260640161172e565b604051690202fefbf2d7c2f0000081523390600080516020615cb18339815191529060200160405180910390a2604051690202fefbf2d7c2f00000815233903090600080516020615cd183398151915290602001612639565b66038d7ea4c680003410156153375760405162461bcd60e51b815260206004820152601b60248201527f50726f63657373696e67206665653a20302e303031204d415449430000000000604482015260640161172e565b61534082612158565b600080546040516001600160a01b039091169034908381818185875af1925050503d806000811461538d576040519150601f19603f3d011682016040523d82523d6000602084013e615392565b606091505b50509050806153d75760405162461bcd60e51b8152602060048201526011602482015270141c9bd8d95cdcda5b99c819985a5b1959607a1b604482015260640161172e565b826001600160a01b0316600080516020615cb18339815191528360405161540091815260200190565b60405180910390a26040518281526001600160a01b038416903090600080516020615cd18339815191529060200160405180910390a3505050565b6154468260006154d3565b6144e782826000615587565b61545d8260026154d3565b6144e782826002615587565b6154748260036154d3565b6144e782826003615587565b61548b8260016154d3565b6144e782826001615587565b6154a28260046154d3565b6154ae82826004615587565b506001600160a01b03166000908152600b60205260409020805460ff19166001179055565b8060048111156154e5576154e5615c15565b6001600160a01b03831660009081526008602052604090205460ff9182169116600481111561551657615516615c15565b60ff16101561555a576001600160a01b0382166000908152600860205260409020805482919060ff1916600183600481111561555457615554615c15565b02179055505b6001600160a01b0382166000908152600a6020526040812080549161557e83615bfc565b91905055505050565b66038d7ea4c680003410156155de5760405162461bcd60e51b815260206004820152601960248201527f426f742074726170206665653a20302e303031204d4154494300000000000000604482015260640161172e565b6000600960008360048111156155f6576155f6615c15565b600481111561560757615607615c15565b815260200190815260200160002054905060008184615626919061574a565b905061563185612158565b600080546040516001600160a01b039091169034908381818185875af1925050503d806000811461567e576040519150601f19603f3d011682016040523d82523d6000602084013e615683565b606091505b50509050806156cd5760405162461bcd60e51b8152602060048201526016602482015275151c985c081c1c9bd8d95cdcda5b99c819985a5b195960521b604482015260640161172e565b856001600160a01b0316600080516020615cb1833981519152836040516156f691815260200190565b60405180910390a26040518281526001600160a01b038716903090600080516020615cd18339815191529060200160405180910390a3505050505050565b634e487b7160e01b600052601160045260246000fd5b808202811582820484141761225f5761225f615734565b80356001600160a01b038116811461577857600080fd5b919050565b60006020828403121561578f57600080fd5b61579882615761565b9392505050565b602081526000825180602084015260005b818110156157cd57602081860181015160408684010152016157b0565b506000604082850101526040601f19601f83011684010191505092915050565b6000806040838503121561580057600080fd5b61580983615761565b946020939093013593505050565b60008060006060848603121561582c57600080fd5b61583584615761565b925061584360208501615761565b929592945050506040919091013590565b60006020828403121561586657600080fd5b5035919050565b634e487b7160e01b600052604160045260246000fd5b604051601f8201601f1916810167ffffffffffffffff811182821017156158ac576158ac61586d565b604052919050565b600082601f8301126158c557600080fd5b813567ffffffffffffffff8111156158df576158df61586d565b6158f2601f8201601f1916602001615883565b81815284602083860101111561590757600080fd5b816020850160208301376000918101602001919091529392505050565b60006020828403121561593657600080fd5b813567ffffffffffffffff81111561594d57600080fd5b615959848285016158b4565b949350505050565b6000806000806080858703121561597757600080fd5b843593506020850135925061598e60408601615761565b9150606085013567ffffffffffffffff8111156159aa57600080fd5b6159b6878288016158b4565b91505092959194509250565b600067ffffffffffffffff8211156159dc576159dc61586d565b5060051b60200190565b600080604083850312156159f957600080fd5b823567ffffffffffffffff811115615a1057600080fd5b8301601f81018513615a2157600080fd5b8035615a34615a2f826159c2565b615883565b8082825260208201915060208360051b850101925087831115615a5657600080fd5b6020840193505b82841015615a78578335825260209384019390910190615a5d565b976020969096013596505050505050565b60008060408385031215615a9c57600080fd5b50508035926020909101359150565b60008060408385031215615abe57600080fd5b615ac783615761565b9150615ad560208401615761565b90509250929050565b60008060008060808587031215615af457600080fd5b843567ffffffffffffffff811115615b0b57600080fd5b615b17878288016158b4565b945050602085013567ffffffffffffffff811115615b3457600080fd5b8501601f81018713615b4557600080fd5b8035615b53615a2f826159c2565b8082825260208201915060208360051b850101925089831115615b7557600080fd5b6020840193505b82841015615b97578335825260209384019390910190615b7c565b9699969850505050604085013594606001359392505050565b602080825282518282018190526000918401906040840190835b81811015615bf15783516001600160a01b0316835260209384019390920191600101615bca565b509095945050505050565b600060018201615c0e57615c0e615734565b5060010190565b634e487b7160e01b600052602160045260246000fd5b600181811c90821680615c3f57607f821691505b602082108103615c5f57634e487b7160e01b600052602260045260246000fd5b50919050565b8082018082111561225f5761225f615734565b600082615c9557634e487b7160e01b600052601260045260246000fd5b500690565b634e487b7160e01b600052603260045260246000fdfee34918ff1c7084970068b53fd71ad6d8b04e9f15d3886cbf006443e6cdc52ea6ddf252ad1be2c89b69c2b068fc378daa952ba7f163c4a11628f55a4df523b3efa2646970667358221220ddd7c746c3a9b46f189f10191c890b6fe054812c511cf020c5d1a63a4bc0c45b64736f6c634300081c0033ddf252ad1be2c89b69c2b068fc378daa952ba7f163c4a11628f55a4df523b3ef","opcodes":"PUSH1 0xC0 PUSH1 0x40 MSTORE PUSH1 0x19 PUSH1 0x80 SWAP1 DUP2 MSTORE PUSH32 0x506F6C79676F6E20436F6D6D756E697479205265776172647300000000000000 PUSH1 0xA0 MSTORE PUSH1 0x1 SWAP1 PUSH2 0x3C SWAP1 DUP3 PUSH2 0x3A5 JUMP JUMPDEST POP PUSH1 0x40 DUP1 MLOAD DUP1 DUP3 ADD SWAP1 SWAP2 MSTORE PUSH1 0x3 DUP2 MSTORE PUSH3 0x2821A9 PUSH1 0xE9 SHL PUSH1 0x20 DUP3 ADD MSTORE PUSH1 0x2 SWAP1 PUSH2 0x64 SWAP1 DUP3 PUSH2 0x3A5 JUMP JUMPDEST POP PUSH1 0x3 DUP1 SLOAD PUSH1 0xFF NOT AND PUSH1 0x12 OR SWAP1 SSTORE PUSH11 0x295BE96E64066972000000 PUSH1 0x4 SSTORE CALLVALUE DUP1 ISZERO PUSH2 0x8D JUMPI PUSH1 0x0 DUP1 REVERT JUMPDEST POP PUSH1 0x0 DUP1 SLOAD PUSH1 0x1 PUSH1 0x1 PUSH1 0xA0 SHL SUB NOT AND PUSH20 0x15E1A8454E2F31F64042EAE445EC89266CB584BE OR DUP2 SSTORE PUSH1 0x7 SSTORE PUSH1 0x40 MLOAD PUSH3 0xF4240 SWAP1 PUSH2 0xEF SWAP1 TIMESTAMP SWAP1 PREVRANDAO SWAP1 CALLER SWAP1 PUSH1 0x20 ADD SWAP3 DUP4 MSTORE PUSH1 0x20 DUP4 ADD SWAP2 SWAP1 SWAP2 MSTORE PUSH1 0x60 SHL PUSH1 0x1 PUSH1 0x1 PUSH1 0x60 SHL SUB NOT AND PUSH1 0x40 DUP3 ADD MSTORE PUSH1 0x54 ADD SWAP1 JUMP JUMPDEST PUSH1 0x40 MLOAD PUSH1 0x20 DUP2 DUP4 SUB SUB DUP2 MSTORE SWAP1 PUSH1 0x40 MSTORE DUP1 MLOAD SWAP1 PUSH1 0x20 ADD KECCAK256 PUSH1 0x0 SHR PUSH2 0x112 SWAP2 SWAP1 PUSH2 0x463 JUMP JUMPDEST PUSH1 0xC SSTORE PUSH1 0x9 PUSH1 0x20 SWAP1 DUP2 MSTORE PUSH1 0x1 PUSH32 0xEC8156718A8372B1DB44BB411437D0870F3E3790D4A08526D024CE1B0B668F6B SSTORE PUSH1 0x2 PUSH32 0x92E85D02570A8092D09A6E3A57665BC3815A2699A4074001BF1CCABF660F5A36 SSTORE PUSH1 0x3 PUSH32 0x6CDE3CEA4B3A3FB2488B2808BAE7556F4A405E50F65E1794383BC026131B13C3 SSTORE PUSH1 0x5 PUSH32 0xC575C31FEA594A6EB97C8E9D3F9CAEE4C16218C6EF37E923234C0FE9014A61E7 SSTORE PUSH1 0x4 PUSH1 0x0 DUP2 DUP2 MSTORE PUSH1 0xA PUSH32 0x8DC18C4CCFD75F5C815B63770FA542FD953E8FEF7E0E44BBDD4913470CE7E9CB SSTORE SWAP1 SLOAD PUSH1 0x40 MLOAD SWAP1 DUP2 MSTORE ADDRESS SWAP3 PUSH1 0x0 DUP1 MLOAD PUSH1 0x20 PUSH2 0x61BA DUP4 CODECOPY DUP2 MLOAD SWAP2 MSTORE SWAP2 ADD PUSH1 0x40 MLOAD DUP1 SWAP2 SUB SWAP1 LOG3 PUSH1 0x0 SLOAD PUSH1 0x40 MLOAD PUSH11 0x422CA8B0A00A425000000 DUP2 MSTORE PUSH1 0x1 PUSH1 0x1 PUSH1 0xA0 SHL SUB SWAP1 SWAP2 AND SWAP1 ADDRESS SWAP1 PUSH1 0x0 DUP1 MLOAD PUSH1 0x20 PUSH2 0x61BA DUP4 CODECOPY DUP2 MLOAD SWAP2 MSTORE SWAP1 PUSH1 0x20 ADD PUSH1 0x40 MLOAD DUP1 SWAP2 SUB SWAP1 LOG3 PUSH1 0x40 MLOAD PUSH11 0x211654585005212800000 DUP2 MSTORE PUSH20 0x742D35CC6634C0532925A3B8D4CF0E1A4E2C6789 SWAP1 ADDRESS SWAP1 PUSH1 0x0 DUP1 MLOAD PUSH1 0x20 PUSH2 0x61BA DUP4 CODECOPY DUP2 MLOAD SWAP2 MSTORE SWAP1 PUSH1 0x20 ADD PUSH1 0x40 MLOAD DUP1 SWAP2 SUB SWAP1 LOG3 PUSH1 0x40 MLOAD PUSH10 0xD3C21BCECCEDA1000000 DUP2 MSTORE PUSH20 0x8BA1F109551BD432803012645CAC189451B3C420 SWAP1 ADDRESS SWAP1 PUSH1 0x0 DUP1 MLOAD PUSH1 0x20 PUSH2 0x61BA DUP4 CODECOPY DUP2 MLOAD SWAP2 MSTORE SWAP1 PUSH1 0x20 ADD PUSH1 0x40 MLOAD DUP1 SWAP2 SUB SWAP1 LOG3 PUSH1 0x0 SLOAD PUSH1 0x40 MLOAD PUSH1 0x1 PUSH1 0x1 PUSH1 0xA0 SHL SUB SWAP1 SWAP2 AND DUP2 MSTORE PUSH1 0x1 SWAP1 PUSH32 0x615A027037242D5B5DF04BC63845F157ABEC69A084273A87352CF2B3F1F1ADD7 SWAP1 PUSH1 0x20 ADD PUSH1 0x40 MLOAD DUP1 SWAP2 SUB SWAP1 LOG2 PUSH2 0x485 JUMP JUMPDEST PUSH4 0x4E487B71 PUSH1 0xE0 SHL PUSH1 0x0 MSTORE PUSH1 0x41 PUSH1 0x4 MSTORE PUSH1 0x24 PUSH1 0x0 REVERT JUMPDEST PUSH1 0x1 DUP2 DUP2 SHR SWAP1 DUP3 AND DUP1 PUSH2 0x330 JUMPI PUSH1 0x7F DUP3 AND SWAP2 POP JUMPDEST PUSH1 0x20 DUP3 LT DUP2 SUB PUSH2 0x350 JUMPI PUSH4 0x4E487B71 PUSH1 0xE0 SHL PUSH1 0x0 MSTORE PUSH1 0x22 PUSH1 0x4 MSTORE PUSH1 0x24 PUSH1 0x0 REVERT JUMPDEST POP SWAP2 SWAP1 POP JUMP JUMPDEST PUSH1 0x1F DUP3 GT ISZERO PUSH2 0x3A0 JUMPI DUP1 PUSH1 0x0 MSTORE PUSH1 0x20 PUSH1 0x0 KECCAK256 PUSH1 0x1F DUP5 ADD PUSH1 0x5 SHR DUP2 ADD PUSH1 0x20 DUP6 LT ISZERO PUSH2 0x37D JUMPI POP DUP1 JUMPDEST PUSH1 0x1F DUP5 ADD PUSH1 0x5 SHR DUP3 ADD SWAP2 POP JUMPDEST DUP2 DUP2 LT ISZERO PUSH2 0x39D JUMPI PUSH1 0x0 DUP2 SSTORE PUSH1 0x1 ADD PUSH2 0x389 JUMP JUMPDEST POP POP JUMPDEST POP POP POP JUMP JUMPDEST DUP2 MLOAD PUSH1 0x1 PUSH1 0x1 PUSH1 0x40 SHL SUB DUP2 GT ISZERO PUSH2 0x3BE JUMPI PUSH2 0x3BE PUSH2 0x306 JUMP JUMPDEST PUSH2 0x3D2 DUP2 PUSH2 0x3CC DUP5 SLOAD PUSH2 0x31C JUMP JUMPDEST DUP5 PUSH2 0x356 JUMP JUMPDEST PUSH1 0x20 PUSH1 0x1F DUP3 GT PUSH1 0x1 DUP2 EQ PUSH2 0x406 JUMPI PUSH1 0x0 DUP4 ISZERO PUSH2 0x3EE JUMPI POP DUP5 DUP3 ADD MLOAD JUMPDEST PUSH1 0x0 NOT PUSH1 0x3 DUP6 SWAP1 SHL SHR NOT AND PUSH1 0x1 DUP5 SWAP1 SHL OR DUP5 SSTORE PUSH2 0x39D JUMP JUMPDEST PUSH1 0x0 DUP5 DUP2 MSTORE PUSH1 0x20 DUP2 KECCAK256 PUSH1 0x1F NOT DUP6 AND SWAP2 JUMPDEST DUP3 DUP2 LT ISZERO PUSH2 0x436 JUMPI DUP8 DUP6 ADD MLOAD DUP3 SSTORE PUSH1 0x20 SWAP5 DUP6 ADD SWAP5 PUSH1 0x1 SWAP1 SWAP3 ADD SWAP2 ADD PUSH2 0x416 JUMP JUMPDEST POP DUP5 DUP3 LT ISZERO PUSH2 0x454 JUMPI DUP7 DUP5 ADD MLOAD PUSH1 0x0 NOT PUSH1 0x3 DUP8 SWAP1 SHL PUSH1 0xF8 AND SHR NOT AND DUP2 SSTORE JUMPDEST POP POP POP POP PUSH1 0x1 SWAP1 DUP2 SHL ADD SWAP1 SSTORE POP JUMP JUMPDEST PUSH1 0x0 DUP3 PUSH2 0x480 JUMPI PUSH4 0x4E487B71 PUSH1 0xE0 SHL PUSH1 0x0 MSTORE PUSH1 0x12 PUSH1 0x4 MSTORE PUSH1 0x24 PUSH1 0x0 REVERT JUMPDEST POP MOD SWAP1 JUMP JUMPDEST PUSH2 0x5D26 DUP1 PUSH2 0x494 PUSH1 0x0 CODECOPY PUSH1 0x0 RETURN INVALID PUSH1 0x80 PUSH1 0x40 MSTORE PUSH1 0x4 CALLDATASIZE LT PUSH2 0x1688 JUMPI PUSH1 0x0 CALLDATALOAD PUSH1 0xE0 SHR DUP1 PUSH4 0x7D0736B4 GT PUSH2 0xB60 JUMPI DUP1 PUSH4 0xC33FB877 GT PUSH2 0x5C4 JUMPI DUP1 PUSH4 0xE1696349 GT PUSH2 0x309 JUMPI DUP1 PUSH4 0xEFB37A39 GT PUSH2 0x1B1 JUMPI DUP1 PUSH4 0xF69E2046 GT PUSH2 0xFD JUMPI DUP1 PUSH4 0xFB223F18 GT PUSH2 0xB6 JUMPI DUP1 PUSH4 0xFD255AEF GT PUSH2 0x90 JUMPI DUP1 PUSH4 0xFD255AEF EQ PUSH2 0x18D8 JUMPI DUP1 PUSH4 0xFDD3A879 EQ PUSH2 0x1A3E JUMPI DUP1 PUSH4 0xFF477308 EQ PUSH2 0x1A5E JUMPI DUP1 PUSH4 0xFF49F9D9 EQ PUSH2 0x1B1F JUMPI PUSH2 0x1765 JUMP JUMPDEST DUP1 PUSH4 0xFB223F18 EQ PUSH2 0x1970 JUMPI DUP1 PUSH4 0xFBEC6F21 EQ PUSH2 0x19DE JUMPI DUP1 PUSH4 0xFCAA29EB EQ PUSH2 0x1988 JUMPI PUSH2 0x1765 JUMP JUMPDEST DUP1 PUSH4 0xF69E2046 EQ PUSH2 0x1862 JUMPI DUP1 PUSH4 0xF739C261 EQ PUSH2 0x1930 JUMPI DUP1 PUSH4 0xF755EA9D EQ PUSH2 0x2140 JUMPI DUP1 PUSH4 0xF80A05D9 EQ PUSH2 0x1A3E JUMPI DUP1 PUSH4 0xF8A06888 EQ PUSH2 0x2148 JUMPI DUP1 PUSH4 0xF992CFDC EQ PUSH2 0x2150 JUMPI PUSH2 0x1765 JUMP JUMPDEST DUP1 PUSH4 0xF200670D GT PUSH2 0x16A JUMPI DUP1 PUSH4 0xF42BE871 GT PUSH2 0x144 JUMPI DUP1 PUSH4 0xF42BE871 EQ PUSH2 0x2130 JUMPI DUP1 PUSH4 0xF4B9FA75 EQ PUSH2 0x1DCA JUMPI DUP1 PUSH4 0xF527BF15 EQ PUSH2 0x2138 JUMPI DUP1 PUSH4 0xF64A8426 EQ PUSH2 0x19A0 JUMPI PUSH2 0x1765 JUMP JUMPDEST DUP1 PUSH4 0xF200670D EQ PUSH2 0x19A0 JUMPI DUP1 PUSH4 0xF2F1E132 EQ PUSH2 0x1BF7 JUMPI DUP1 PUSH4 0xF34447F7 EQ PUSH2 0x1C3F JUMPI PUSH2 0x1765 JUMP JUMPDEST DUP1 PUSH4 0xEFB37A39 EQ PUSH2 0x20EE JUMPI DUP1 PUSH4 0xF0737EB8 EQ PUSH2 0x1988 JUMPI DUP1 PUSH4 0xF0B7DB4E EQ PUSH2 0x20F6 JUMPI DUP1 PUSH4 0xF0FC4EC1 EQ PUSH2 0x20FE JUMPI DUP1 PUSH4 0xF14D2181 EQ PUSH2 0x2106 JUMPI DUP1 PUSH4 0xF19D51CE EQ PUSH2 0x210E JUMPI PUSH2 0x1765 JUMP JUMPDEST DUP1 PUSH4 0xEA2752AA GT PUSH2 0x270 JUMPI DUP1 PUSH4 0xEDC7E9B9 GT PUSH2 0x229 JUMPI DUP1 PUSH4 0xEEB1248B GT PUSH2 0x203 JUMPI DUP1 PUSH4 0xEEB1248B EQ PUSH2 0x20D6 JUMPI DUP1 PUSH4 0xEEB9635C EQ PUSH2 0x20DE JUMPI DUP1 PUSH4 0xEF834B61 EQ PUSH2 0x1A5E JUMPI DUP1 PUSH4 0xEF888B01 EQ PUSH2 0x20E6 JUMPI PUSH2 0x1765 JUMP JUMPDEST DUP1 PUSH4 0xEDC7E9B9 EQ PUSH2 0x20C6 JUMPI DUP1 PUSH4 0xEDC9AF95 EQ PUSH2 0x1B77 JUMPI DUP1 PUSH4 0xEE6D05F0 EQ PUSH2 0x20CE JUMPI PUSH2 0x1765 JUMP JUMPDEST DUP1 PUSH4 0xEA2752AA EQ PUSH2 0x19A0 JUMPI DUP1 PUSH4 0xEA762B79 EQ PUSH2 0x19E6 JUMPI DUP1 PUSH4 0xEAF10D35 EQ PUSH2 0x1ECF JUMPI DUP1 PUSH4 0xEB38AC92 EQ PUSH2 0x1DAA JUMPI DUP1 PUSH4 0xED18F0A7 EQ PUSH2 0x1CA7 JUMPI DUP1 PUSH4 0xED44CDD4 EQ PUSH2 0x1B77 JUMPI PUSH2 0x1765 JUMP JUMPDEST DUP1 PUSH4 0xE5225381 GT PUSH2 0x2C2 JUMPI DUP1 PUSH4 0xE5225381 EQ PUSH2 0x2096 JUMPI DUP1 PUSH4 0xE563037E EQ PUSH2 0x209E JUMPI DUP1 PUSH4 0xE78CEA92 EQ PUSH2 0x20A6 JUMPI DUP1 PUSH4 0xE8078D94 EQ PUSH2 0x20AE JUMPI DUP1 PUSH4 0xE88D3B3E EQ PUSH2 0x20B6 JUMPI DUP1 PUSH4 0xE9A9C50C EQ PUSH2 0x20BE JUMPI PUSH2 0x1765 JUMP JUMPDEST DUP1 PUSH4 0xE1696349 EQ PUSH2 0x1823 JUMPI DUP1 PUSH4 0xE239F51D EQ PUSH2 0x1B8F JUMPI DUP1 PUSH4 0xE3AC5D26 EQ PUSH2 0x19E6 JUMPI DUP1 PUSH4 0xE4330545 EQ PUSH2 0x1C6F JUMPI DUP1 PUSH4 0xE44F6A30 EQ PUSH2 0x19E6 JUMPI DUP1 PUSH4 0xE520FC7E EQ PUSH2 0x1928 JUMPI PUSH2 0x1765 JUMP JUMPDEST DUP1 PUSH4 0xD362AE49 GT PUSH2 0x46C JUMPI DUP1 PUSH4 0xDAC5AA19 GT PUSH2 0x3D3 JUMPI DUP1 PUSH4 0xDEEAADC0 GT PUSH2 0x38C JUMPI DUP1 PUSH4 0xE07113DB GT PUSH2 0x366 JUMPI DUP1 PUSH4 0xE07113DB EQ PUSH2 0x2083 JUMPI DUP1 PUSH4 0xE0D7CB6F EQ PUSH2 0x19E6 JUMPI DUP1 PUSH4 0xE100D13A EQ PUSH2 0x19A0 JUMPI DUP1 PUSH4 0xE13B7F5C EQ PUSH2 0x19A0 JUMPI PUSH2 0x1765 JUMP JUMPDEST DUP1 PUSH4 0xDEEAADC0 EQ PUSH2 0x1B6F JUMPI DUP1 PUSH4 0xDFBF53AE EQ PUSH2 0x207B JUMPI DUP1 PUSH4 0xE034F67A EQ PUSH2 0x2047 JUMPI PUSH2 0x1765 JUMP JUMPDEST DUP1 PUSH4 0xDAC5AA19 EQ PUSH2 0x2029 JUMPI DUP1 PUSH4 0xDB1D0FD5 EQ PUSH2 0x2047 JUMPI DUP1 PUSH4 0xDB2E21BC EQ PUSH2 0x1C6F JUMPI DUP1 PUSH4 0xDCDA080A EQ PUSH2 0x204F JUMPI DUP1 PUSH4 0xDD62ED3E EQ PUSH2 0x2057 JUMPI DUP1 PUSH4 0xDD92C07E EQ PUSH2 0x1B1F JUMPI PUSH2 0x1765 JUMP JUMPDEST DUP1 PUSH4 0xD71CAC82 GT PUSH2 0x425 JUMPI DUP1 PUSH4 0xD71CAC82 EQ PUSH2 0x1928 JUMPI DUP1 PUSH4 0xD7535706 EQ PUSH2 0x19E6 JUMPI DUP1 PUSH4 0xD8E498F4 EQ PUSH2 0x2021 JUMPI DUP1 PUSH4 0xD9C291CF EQ PUSH2 0x1DCA JUMPI DUP1 PUSH4 0xD9F068E3 EQ PUSH2 0x1A3E JUMPI DUP1 PUSH4 0xD9FCA70E EQ PUSH2 0x1DCA JUMPI PUSH2 0x1765 JUMP JUMPDEST DUP1 PUSH4 0xD362AE49 EQ PUSH2 0x18D8 JUMPI DUP1 PUSH4 0xD3CE5087 EQ PUSH2 0x19B8 JUMPI DUP1 PUSH4 0xD4437724 EQ PUSH2 0x2011 JUMPI DUP1 PUSH4 0xD56B2889 EQ PUSH2 0x1FE0 JUMPI DUP1 PUSH4 0xD5FB33C2 EQ PUSH2 0x2019 JUMPI DUP1 PUSH4 0xD63F8AE8 EQ PUSH2 0x19A0 JUMPI PUSH2 0x1765 JUMP JUMPDEST DUP1 PUSH4 0xCB1A4FC0 GT PUSH2 0x52B JUMPI DUP1 PUSH4 0xCF3C868A GT PUSH2 0x4E4 JUMPI DUP1 PUSH4 0xD0F9A085 GT PUSH2 0x4BE JUMPI DUP1 PUSH4 0xD0F9A085 EQ PUSH2 0x2009 JUMPI DUP1 PUSH4 0xD1058E59 EQ PUSH2 0x1C37 JUMPI DUP1 PUSH4 0xD10E6E2A EQ PUSH2 0x1C17 JUMPI DUP1 PUSH4 0xD175AF7B EQ PUSH2 0x1C6F JUMPI PUSH2 0x1765 JUMP JUMPDEST DUP1 PUSH4 0xCF3C868A EQ PUSH2 0x1FE8 JUMPI DUP1 PUSH4 0xCF9D0B5F EQ PUSH2 0x1FB0 JUMPI DUP1 PUSH4 0xCFA5A3F2 EQ PUSH2 0x1BD7 JUMPI PUSH2 0x1765 JUMP JUMPDEST DUP1 PUSH4 0xCB1A4FC0 EQ PUSH2 0x1FC8 JUMPI DUP1 PUSH4 0xCBDF1BAB EQ PUSH2 0x1FD0 JUMPI DUP1 PUSH4 0xCC741F91 EQ PUSH2 0x1FD8 JUMPI DUP1 PUSH4 0xCD5A62BE EQ PUSH2 0x1988 JUMPI DUP1 PUSH4 0xCED35070 EQ PUSH2 0x1988 JUMPI DUP1 PUSH4 0xCF13D91B EQ PUSH2 0x1FE0 JUMPI PUSH2 0x1765 JUMP JUMPDEST DUP1 PUSH4 0xC7B8981C GT PUSH2 0x57D JUMPI DUP1 PUSH4 0xC7B8981C EQ PUSH2 0x1D0F JUMPI DUP1 PUSH4 0xC89E4361 EQ PUSH2 0x1FB0 JUMPI DUP1 PUSH4 0xC937B0A9 EQ PUSH2 0x1FB8 JUMPI DUP1 PUSH4 0xCA6F1B97 EQ PUSH2 0x1FC0 JUMPI DUP1 PUSH4 0xCAA6FEA4 EQ PUSH2 0x1A3E JUMPI DUP1 PUSH4 0xCB0B2D06 EQ PUSH2 0x19A0 JUMPI PUSH2 0x1765 JUMP JUMPDEST DUP1 PUSH4 0xC33FB877 EQ PUSH2 0x1A91 JUMPI DUP1 PUSH4 0xC35C585B EQ PUSH2 0x1FA0 JUMPI DUP1 PUSH4 0xC51FC0C0 EQ PUSH2 0x1B6F JUMPI DUP1 PUSH4 0xC5F98A3F EQ PUSH2 0x1CB7 JUMPI DUP1 PUSH4 0xC699BF6A EQ PUSH2 0x1940 JUMPI DUP1 PUSH4 0xC70DB323 EQ PUSH2 0x1FA8 JUMPI PUSH2 0x1765 JUMP JUMPDEST DUP1 PUSH4 0x9DEF2D89 GT PUSH2 0x8A5 JUMPI DUP1 PUSH4 0xAD94E398 GT PUSH2 0x74D JUMPI DUP1 PUSH4 0xB7CD9CBB GT PUSH2 0x699 JUMPI DUP1 PUSH4 0xBABDC832 GT PUSH2 0x652 JUMPI DUP1 PUSH4 0xBD11C001 GT PUSH2 0x62C JUMPI DUP1 PUSH4 0xBD11C001 EQ PUSH2 0x1F90 JUMPI DUP1 PUSH4 0xBE040FB0 EQ PUSH2 0x1F98 JUMPI DUP1 PUSH4 0xBE9A6555 EQ PUSH2 0x1C27 JUMPI DUP1 PUSH4 0xC0129D43 EQ PUSH2 0x1C37 JUMPI PUSH2 0x1765 JUMP JUMPDEST DUP1 PUSH4 0xBABDC832 EQ PUSH2 0x1F52 JUMPI DUP1 PUSH4 0xBB27E4FF EQ PUSH2 0x1F88 JUMPI DUP1 PUSH4 0xBBB82D89 EQ PUSH2 0x1CA7 JUMPI PUSH2 0x1765 JUMP JUMPDEST DUP1 PUSH4 0xB7CD9CBB EQ PUSH2 0x1988 JUMPI DUP1 PUSH4 0xB88A802F EQ PUSH2 0x1F4A JUMPI DUP1 PUSH4 0xB8C97DED EQ PUSH2 0x1862 JUMPI DUP1 PUSH4 0xB9094851 EQ PUSH2 0x1A5E JUMPI DUP1 PUSH4 0xBA13A572 EQ PUSH2 0x1B6F JUMPI DUP1 PUSH4 0xBA3E9C12 EQ PUSH2 0x1862 JUMPI PUSH2 0x1765 JUMP JUMPDEST DUP1 PUSH4 0xB4FB3EE3 GT PUSH2 0x706 JUMPI DUP1 PUSH4 0xB6B0B097 GT PUSH2 0x6E0 JUMPI DUP1 PUSH4 0xB6B0B097 EQ PUSH2 0x1B6F JUMPI DUP1 PUSH4 0xB6D6ED4E EQ PUSH2 0x1F42 JUMPI DUP1 PUSH4 0xB6DE460A EQ PUSH2 0x1928 JUMPI DUP1 PUSH4 0xB73C6CE9 EQ PUSH2 0x1B5F JUMPI PUSH2 0x1765 JUMP JUMPDEST DUP1 PUSH4 0xB4FB3EE3 EQ PUSH2 0x1F02 JUMPI DUP1 PUSH4 0xB660FDED EQ PUSH2 0x1F3A JUMPI DUP1 PUSH4 0xB69FCD5D EQ PUSH2 0x1A66 JUMPI PUSH2 0x1765 JUMP JUMPDEST DUP1 PUSH4 0xAD94E398 EQ PUSH2 0x1ED7 JUMPI DUP1 PUSH4 0xAD95A8BE EQ PUSH2 0x1EDF JUMPI DUP1 PUSH4 0xB00D4D70 EQ PUSH2 0x1EF2 JUMPI DUP1 PUSH4 0xB1373929 EQ PUSH2 0x1920 JUMPI DUP1 PUSH4 0xB29C16E2 EQ PUSH2 0x1EFA JUMPI DUP1 PUSH4 0xB44CE39C EQ PUSH2 0x1DCA JUMPI PUSH2 0x1765 JUMP JUMPDEST DUP1 PUSH4 0xA5DCA464 GT PUSH2 0x80C JUMPI DUP1 PUSH4 0xA9059CBB GT PUSH2 0x7C5 JUMPI DUP1 PUSH4 0xA9FC58DD GT PUSH2 0x79F JUMPI DUP1 PUSH4 0xA9FC58DD EQ PUSH2 0x1950 JUMPI DUP1 PUSH4 0xAADF21C0 EQ PUSH2 0x1ECF JUMPI DUP1 PUSH4 0xAB02DD7B EQ PUSH2 0x19E6 JUMPI DUP1 PUSH4 0xAC8BB900 EQ PUSH2 0x1C97 JUMPI PUSH2 0x1765 JUMP JUMPDEST DUP1 PUSH4 0xA9059CBB EQ PUSH2 0x1E87 JUMPI DUP1 PUSH4 0xA90CC445 EQ PUSH2 0x1EA7 JUMPI DUP1 PUSH4 0xA93DD4E7 EQ PUSH2 0x1EBC JUMPI PUSH2 0x1765 JUMP JUMPDEST DUP1 PUSH4 0xA5DCA464 EQ PUSH2 0x1E67 JUMPI DUP1 PUSH4 0xA66F42C0 EQ PUSH2 0x1C6F JUMPI DUP1 PUSH4 0xA6A1858F EQ PUSH2 0x1C3F JUMPI DUP1 PUSH4 0xA6AE0AAC EQ PUSH2 0x1920 JUMPI DUP1 PUSH4 0xA7F0B3DE EQ PUSH2 0x1E7F JUMPI DUP1 PUSH4 0xA87588E7 EQ PUSH2 0x1862 JUMPI PUSH2 0x1765 JUMP JUMPDEST DUP1 PUSH4 0xA0811074 GT PUSH2 0x85E JUMPI DUP1 PUSH4 0xA0811074 EQ PUSH2 0x19E6 JUMPI DUP1 PUSH4 0xA09B9CB8 EQ PUSH2 0x1CAF JUMPI DUP1 PUSH4 0xA139D024 EQ PUSH2 0x1E77 JUMPI DUP1 PUSH4 0xA1C2F5C1 EQ PUSH2 0x1A66 JUMPI DUP1 PUSH4 0xA3982789 EQ PUSH2 0x1862 JUMPI DUP1 PUSH4 0xA4590BD0 EQ PUSH2 0x1930 JUMPI PUSH2 0x1765 JUMP JUMPDEST DUP1 PUSH4 0x9DEF2D89 EQ PUSH2 0x1BF7 JUMPI DUP1 PUSH4 0x9E01E299 EQ PUSH2 0x1E67 JUMPI DUP1 PUSH4 0x9F081DB6 EQ PUSH2 0x19A0 JUMPI DUP1 PUSH4 0x9FAA3C91 EQ PUSH2 0x19E6 JUMPI DUP1 PUSH4 0xA00820B1 EQ PUSH2 0x19DE JUMPI DUP1 PUSH4 0xA04E8BEA EQ PUSH2 0x1E6F JUMPI PUSH2 0x1765 JUMP JUMPDEST DUP1 PUSH4 0x8AB53447 GT PUSH2 0xA08 JUMPI DUP1 PUSH4 0x91152C5C GT PUSH2 0x96F JUMPI DUP1 PUSH4 0x95E4B251 GT PUSH2 0x928 JUMPI DUP1 PUSH4 0x99DA5BC9 GT PUSH2 0x902 JUMPI DUP1 PUSH4 0x99DA5BC9 EQ PUSH2 0x19DE JUMPI DUP1 PUSH4 0x9AA395F4 EQ PUSH2 0x1938 JUMPI DUP1 PUSH4 0x9BBF8113 EQ PUSH2 0x19DE JUMPI DUP1 PUSH4 0x9BE28785 EQ PUSH2 0x1E5F JUMPI PUSH2 0x1765 JUMP JUMPDEST DUP1 PUSH4 0x95E4B251 EQ PUSH2 0x1D3F JUMPI DUP1 PUSH4 0x97CCD07B EQ PUSH2 0x1E57 JUMPI DUP1 PUSH4 0x99BE6B8B EQ PUSH2 0x1988 JUMPI PUSH2 0x1765 JUMP JUMPDEST DUP1 PUSH4 0x91152C5C EQ PUSH2 0x1E32 JUMPI DUP1 PUSH4 0x9309D42E EQ PUSH2 0x1A3E JUMPI DUP1 PUSH4 0x94DEDA25 EQ PUSH2 0x1E3A JUMPI DUP1 PUSH4 0x952C96FB EQ PUSH2 0x1CEF JUMPI DUP1 PUSH4 0x954A664B EQ PUSH2 0x19A0 JUMPI DUP1 PUSH4 0x95D89B41 EQ PUSH2 0x1E42 JUMPI PUSH2 0x1765 JUMP JUMPDEST DUP1 PUSH4 0x8F041C72 GT PUSH2 0x9C1 JUMPI DUP1 PUSH4 0x8F041C72 EQ PUSH2 0x1BC7 JUMPI DUP1 PUSH4 0x8FC68E54 EQ PUSH2 0x1E17 JUMPI DUP1 PUSH4 0x8FDB7189 EQ PUSH2 0x1E2A JUMPI DUP1 PUSH4 0x90770334 EQ PUSH2 0x1A5E JUMPI DUP1 PUSH4 0x90EB42CB EQ PUSH2 0x18E0 JUMPI DUP1 PUSH4 0x910D13E8 EQ PUSH2 0x1930 JUMPI PUSH2 0x1765 JUMP JUMPDEST DUP1 PUSH4 0x8AB53447 EQ PUSH2 0x1D4F JUMPI DUP1 PUSH4 0x8B8FD3BD EQ PUSH2 0x1862 JUMPI DUP1 PUSH4 0x8BC6BEB2 EQ PUSH2 0x1950 JUMPI DUP1 PUSH4 0x8D14AEEC EQ PUSH2 0x19B8 JUMPI DUP1 PUSH4 0x8D8F2ADB EQ PUSH2 0x1E07 JUMPI DUP1 PUSH4 0x8ED955B9 EQ PUSH2 0x1E0F JUMPI PUSH2 0x1765 JUMP JUMPDEST DUP1 PUSH4 0x819FAF7B GT PUSH2 0xAC7 JUMPI DUP1 PUSH4 0x860A32EC GT PUSH2 0xA80 JUMPI DUP1 PUSH4 0x878E1B10 GT PUSH2 0xA5A JUMPI DUP1 PUSH4 0x878E1B10 EQ PUSH2 0x1930 JUMPI DUP1 PUSH4 0x886F359D EQ PUSH2 0x1B6F JUMPI DUP1 PUSH4 0x89934D3A EQ PUSH2 0x1DFF JUMPI DUP1 PUSH4 0x89F6C918 EQ PUSH2 0x1813 JUMPI PUSH2 0x1765 JUMP JUMPDEST DUP1 PUSH4 0x860A32EC EQ PUSH2 0x1DCA JUMPI DUP1 PUSH4 0x863FC11E EQ PUSH2 0x1DD2 JUMPI DUP1 PUSH4 0x870AFCE2 EQ PUSH2 0x1DEC JUMPI PUSH2 0x1765 JUMP JUMPDEST DUP1 PUSH4 0x819FAF7B EQ PUSH2 0x1DBA JUMPI DUP1 PUSH4 0x838729F6 EQ PUSH2 0x1C97 JUMPI DUP1 PUSH4 0x839D95D6 EQ PUSH2 0x19DE JUMPI DUP1 PUSH4 0x8433ACD1 EQ PUSH2 0x1DC2 JUMPI DUP1 PUSH4 0x8443BEA6 EQ PUSH2 0x1B6F JUMPI DUP1 PUSH4 0x853828B6 EQ PUSH2 0x1970 JUMPI PUSH2 0x1765 JUMP JUMPDEST DUP1 PUSH4 0x7E2A6DB8 GT PUSH2 0xB19 JUMPI DUP1 PUSH4 0x7E2A6DB8 EQ PUSH2 0x1DA2 JUMPI DUP1 PUSH4 0x7FEC8D38 EQ PUSH2 0x1DAA JUMPI DUP1 PUSH4 0x80D63AD7 EQ PUSH2 0x1D9A JUMPI DUP1 PUSH4 0x80F0F59C EQ PUSH2 0x1A5E JUMPI DUP1 PUSH4 0x8119C065 EQ PUSH2 0x1DB2 JUMPI DUP1 PUSH4 0x8145BD04 EQ PUSH2 0x19DE JUMPI PUSH2 0x1765 JUMP JUMPDEST DUP1 PUSH4 0x7D0736B4 EQ PUSH2 0x1B77 JUMPI DUP1 PUSH4 0x7D2A16DF EQ PUSH2 0x1D8A JUMPI DUP1 PUSH4 0x7D38E0FF EQ PUSH2 0x1CD7 JUMPI DUP1 PUSH4 0x7DC0D1D0 EQ PUSH2 0x1930 JUMPI DUP1 PUSH4 0x7DD0C003 EQ PUSH2 0x1D92 JUMPI DUP1 PUSH4 0x7DDCFE7E EQ PUSH2 0x1D9A JUMPI PUSH2 0x1765 JUMP JUMPDEST DUP1 PUSH4 0x412CD53E GT PUSH2 0x1107 JUMPI DUP1 PUSH4 0x5B70EA9F GT PUSH2 0xE4C JUMPI DUP1 PUSH4 0x6B31EE01 GT PUSH2 0xCF4 JUMPI DUP1 PUSH4 0x753EC103 GT PUSH2 0xC40 JUMPI DUP1 PUSH4 0x78A1128A GT PUSH2 0xBF9 JUMPI DUP1 PUSH4 0x7A64ADFA GT PUSH2 0xBD3 JUMPI DUP1 PUSH4 0x7A64ADFA EQ PUSH2 0x1928 JUMPI DUP1 PUSH4 0x7AA6AF51 EQ PUSH2 0x1D6F JUMPI DUP1 PUSH4 0x7C146CE2 EQ PUSH2 0x1D77 JUMPI DUP1 PUSH4 0x7C7CC108 EQ PUSH2 0x1930 JUMPI PUSH2 0x1765 JUMP JUMPDEST DUP1 PUSH4 0x78A1128A EQ PUSH2 0x19B8 JUMPI DUP1 PUSH4 0x79BABD2C EQ PUSH2 0x181B JUMPI DUP1 PUSH4 0x7A4FE75A EQ PUSH2 0x1B6F JUMPI PUSH2 0x1765 JUMP JUMPDEST DUP1 PUSH4 0x753EC103 EQ PUSH2 0x1D4F JUMPI DUP1 PUSH4 0x75B4D78C EQ PUSH2 0x1D57 JUMPI DUP1 PUSH4 0x75C60225 EQ PUSH2 0x1B6F JUMPI DUP1 PUSH4 0x7689DC7C EQ PUSH2 0x1A3E JUMPI DUP1 PUSH4 0x76F73F43 EQ PUSH2 0x1D5F JUMPI DUP1 PUSH4 0x785946F4 EQ PUSH2 0x1D67 JUMPI PUSH2 0x1765 JUMP JUMPDEST DUP1 PUSH4 0x7022B58E GT PUSH2 0xCAD JUMPI DUP1 PUSH4 0x71356813 GT PUSH2 0xC87 JUMPI DUP1 PUSH4 0x71356813 EQ PUSH2 0x1D3F JUMPI DUP1 PUSH4 0x7165485D EQ PUSH2 0x1B77 JUMPI DUP1 PUSH4 0x72BD1280 EQ PUSH2 0x1C17 JUMPI DUP1 PUSH4 0x73D00224 EQ PUSH2 0x1D47 JUMPI PUSH2 0x1765 JUMP JUMPDEST DUP1 PUSH4 0x7022B58E EQ PUSH2 0x1D0F JUMPI DUP1 PUSH4 0x70A08231 EQ PUSH2 0x1D17 JUMPI DUP1 PUSH4 0x70BB45B3 EQ PUSH2 0x1D37 JUMPI PUSH2 0x1765 JUMP JUMPDEST DUP1 PUSH4 0x6B31EE01 EQ PUSH2 0x1CB7 JUMPI DUP1 PUSH4 0x6B69E05B EQ PUSH2 0x1CF7 JUMPI DUP1 PUSH4 0x6BB7B7A4 EQ PUSH2 0x1823 JUMPI DUP1 PUSH4 0x6CF3C25E EQ PUSH2 0x1CFF JUMPI DUP1 PUSH4 0x6FC2CA31 EQ PUSH2 0x1C8F JUMPI DUP1 PUSH4 0x6FE8F9C5 EQ PUSH2 0x1D07 JUMPI PUSH2 0x1765 JUMP JUMPDEST DUP1 PUSH4 0x61461954 GT PUSH2 0xDB3 JUMPI DUP1 PUSH4 0x64F70DE1 GT PUSH2 0xD6C JUMPI DUP1 PUSH4 0x6673816B GT PUSH2 0xD46 JUMPI DUP1 PUSH4 0x6673816B EQ PUSH2 0x19A0 JUMPI DUP1 PUSH4 0x67B9A286 EQ PUSH2 0x1CEF JUMPI DUP1 PUSH4 0x67CFCA5A EQ PUSH2 0x1920 JUMPI DUP1 PUSH4 0x681CAC16 EQ PUSH2 0x19B8 JUMPI PUSH2 0x1765 JUMP JUMPDEST DUP1 PUSH4 0x64F70DE1 EQ PUSH2 0x1988 JUMPI DUP1 PUSH4 0x660C92D4 EQ PUSH2 0x1CDF JUMPI DUP1 PUSH4 0x665A11CA EQ PUSH2 0x1CE7 JUMPI PUSH2 0x1765 JUMP JUMPDEST DUP1 PUSH4 0x61461954 EQ PUSH2 0x1CBF JUMPI DUP1 PUSH4 0x61F8E177 EQ PUSH2 0x1CC7 JUMPI DUP1 PUSH4 0x62C2FD6B EQ PUSH2 0x19A0 JUMPI DUP1 PUSH4 0x632A9A52 EQ PUSH2 0x1CCF JUMPI DUP1 PUSH4 0x63C0FB51 EQ PUSH2 0x1CD7 JUMPI DUP1 PUSH4 0x64A0B126 EQ PUSH2 0x19DE JUMPI PUSH2 0x1765 JUMP JUMPDEST DUP1 PUSH4 0x5D463374 GT PUSH2 0xE05 JUMPI DUP1 PUSH4 0x5D463374 EQ PUSH2 0x1823 JUMPI DUP1 PUSH4 0x5D9F404B EQ PUSH2 0x1862 JUMPI DUP1 PUSH4 0x5E54276A EQ PUSH2 0x1CA7 JUMPI DUP1 PUSH4 0x5FD8C710 EQ PUSH2 0x1CAF JUMPI DUP1 PUSH4 0x60D7CFAC EQ PUSH2 0x1CB7 JUMPI DUP1 PUSH4 0x60F14509 EQ PUSH2 0x1823 JUMPI PUSH2 0x1765 JUMP JUMPDEST DUP1 PUSH4 0x5B70EA9F EQ PUSH2 0x1C77 JUMPI DUP1 PUSH4 0x5B88349D EQ PUSH2 0x1C7F JUMPI DUP1 PUSH4 0x5BC54B97 EQ PUSH2 0x1C87 JUMPI DUP1 PUSH4 0x5BCB2FC6 EQ PUSH2 0x1C8F JUMPI DUP1 PUSH4 0x5BEC9E67 EQ PUSH2 0x1C97 JUMPI DUP1 PUSH4 0x5D36B190 EQ PUSH2 0x1C9F JUMPI PUSH2 0x1765 JUMP JUMPDEST DUP1 PUSH4 0x4F228596 GT PUSH2 0xFAF JUMPI DUP1 PUSH4 0x53C38FD7 GT PUSH2 0xF16 JUMPI DUP1 PUSH4 0x56965615 GT PUSH2 0xECF JUMPI DUP1 PUSH4 0x59774A53 GT PUSH2 0xEA9 JUMPI DUP1 PUSH4 0x59774A53 EQ PUSH2 0x1928 JUMPI DUP1 PUSH4 0x5AA6E675 EQ PUSH2 0x1C67 JUMPI DUP1 PUSH4 0x5B57F333 EQ PUSH2 0x1C6F JUMPI DUP1 PUSH4 0x5B6FE52C EQ PUSH2 0x1988 JUMPI PUSH2 0x1765 JUMP JUMPDEST DUP1 PUSH4 0x56965615 EQ PUSH2 0x1930 JUMPI DUP1 PUSH4 0x56F86E84 EQ PUSH2 0x19B8 JUMPI DUP1 PUSH4 0x5706D7E4 EQ PUSH2 0x19B8 JUMPI PUSH2 0x1765 JUMP JUMPDEST DUP1 PUSH4 0x53C38FD7 EQ PUSH2 0x1862 JUMPI DUP1 PUSH4 0x54204AD4 EQ PUSH2 0x1AB1 JUMPI DUP1 PUSH4 0x54D1F16F EQ PUSH2 0x1B67 JUMPI DUP1 PUSH4 0x554C1B1F EQ PUSH2 0x1988 JUMPI DUP1 PUSH4 0x55E1B486 EQ PUSH2 0x1C57 JUMPI DUP1 PUSH4 0x5641EC03 EQ PUSH2 0x1C5F JUMPI PUSH2 0x1765 JUMP JUMPDEST DUP1 PUSH4 0x510402CD GT PUSH2 0xF68 JUMPI DUP1 PUSH4 0x510402CD EQ PUSH2 0x1C37 JUMPI DUP1 PUSH4 0x522E1177 EQ PUSH2 0x19D6 JUMPI DUP1 PUSH4 0x52342F13 EQ PUSH2 0x1C3F JUMPI DUP1 PUSH4 0x52A60270 EQ PUSH2 0x1C47 JUMPI DUP1 PUSH4 0x52F910E6 EQ PUSH2 0x1C4F JUMPI DUP1 PUSH4 0x52F9D94F EQ PUSH2 0x1958 JUMPI PUSH2 0x1765 JUMP JUMPDEST DUP1 PUSH4 0x4F228596 EQ PUSH2 0x19DE JUMPI DUP1 PUSH4 0x4F91440D EQ PUSH2 0x1C1F JUMPI DUP1 PUSH4 0x4FEEADE4 EQ PUSH2 0x1C27 JUMPI DUP1 PUSH4 0x501FFDE7 EQ PUSH2 0x19DE JUMPI DUP1 PUSH4 0x50635394 EQ PUSH2 0x1C2F JUMPI DUP1 PUSH4 0x509AAC34 EQ PUSH2 0x1A56 JUMPI PUSH2 0x1765 JUMP JUMPDEST DUP1 PUSH4 0x47CCCA02 GT PUSH2 0x106E JUMPI DUP1 PUSH4 0x4A521100 GT PUSH2 0x1027 JUMPI DUP1 PUSH4 0x4BA6F28E GT PUSH2 0x1001 JUMPI DUP1 PUSH4 0x4BA6F28E EQ PUSH2 0x1C07 JUMPI DUP1 PUSH4 0x4E71D92D EQ PUSH2 0x1C0F JUMPI DUP1 PUSH4 0x4E9C6B1F EQ PUSH2 0x1C17 JUMPI DUP1 PUSH4 0x4ECDE849 EQ PUSH2 0x1B1F JUMPI PUSH2 0x1765 JUMP JUMPDEST DUP1 PUSH4 0x4A521100 EQ PUSH2 0x1BEF JUMPI DUP1 PUSH4 0x4A9B3E8E EQ PUSH2 0x1BF7 JUMPI DUP1 PUSH4 0x4B71BFF3 EQ PUSH2 0x1BFF JUMPI PUSH2 0x1765 JUMP JUMPDEST DUP1 PUSH4 0x47CCCA02 EQ PUSH2 0x1A56 JUMPI DUP1 PUSH4 0x48C54B9D EQ PUSH2 0x1BD7 JUMPI DUP1 PUSH4 0x4917DB66 EQ PUSH2 0x1BDF JUMPI DUP1 PUSH4 0x49CEF723 EQ PUSH2 0x1A5E JUMPI DUP1 PUSH4 0x49F415C8 EQ PUSH2 0x1BE7 JUMPI DUP1 PUSH4 0x4A4D59FA EQ PUSH2 0x1928 JUMPI PUSH2 0x1765 JUMP JUMPDEST DUP1 PUSH4 0x44350D5F GT PUSH2 0x10C0 JUMPI DUP1 PUSH4 0x44350D5F EQ PUSH2 0x19DE JUMPI DUP1 PUSH4 0x44866955 EQ PUSH2 0x1988 JUMPI DUP1 PUSH4 0x44D333FF EQ PUSH2 0x1A56 JUMPI DUP1 PUSH4 0x456CB7C6 EQ PUSH2 0x1BC7 JUMPI DUP1 PUSH4 0x459296D7 EQ PUSH2 0x1A3E JUMPI DUP1 PUSH4 0x4641257D EQ PUSH2 0x1BCF JUMPI PUSH2 0x1765 JUMP JUMPDEST DUP1 PUSH4 0x412CD53E EQ PUSH2 0x1BBF JUMPI DUP1 PUSH4 0x4162169F EQ PUSH2 0x1920 JUMPI DUP1 PUSH4 0x41C4D92F EQ PUSH2 0x19A0 JUMPI DUP1 PUSH4 0x43144B7A EQ PUSH2 0x1862 JUMPI DUP1 PUSH4 0x43774864 EQ PUSH2 0x19A0 JUMPI DUP1 PUSH4 0x43DEF26E EQ PUSH2 0x1A3E JUMPI PUSH2 0x1765 JUMP JUMPDEST DUP1 PUSH4 0x243FCB35 GT PUSH2 0x13CD JUMPI DUP1 PUSH4 0x32C2A966 GT PUSH2 0x1275 JUMPI DUP1 PUSH4 0x3A108D69 GT PUSH2 0x11DC JUMPI DUP1 PUSH4 0x3CCFD60B GT PUSH2 0x1195 JUMPI DUP1 PUSH4 0x3E413BEE GT PUSH2 0x116F JUMPI DUP1 PUSH4 0x3E413BEE EQ PUSH2 0x19E6 JUMPI DUP1 PUSH4 0x3E9FFBEA EQ PUSH2 0x1BA7 JUMPI DUP1 PUSH4 0x4031A871 EQ PUSH2 0x1BAF JUMPI DUP1 PUSH4 0x4086571E EQ PUSH2 0x1BB7 JUMPI PUSH2 0x1765 JUMP JUMPDEST DUP1 PUSH4 0x3CCFD60B EQ PUSH2 0x1B97 JUMPI DUP1 PUSH4 0x3CFE4735 EQ PUSH2 0x1A3E JUMPI DUP1 PUSH4 0x3D17AA26 EQ PUSH2 0x1B9F JUMPI PUSH2 0x1765 JUMP JUMPDEST DUP1 PUSH4 0x3A108D69 EQ PUSH2 0x18D8 JUMPI DUP1 PUSH4 0x3A2B9626 EQ PUSH2 0x181B JUMPI DUP1 PUSH4 0x3A4B66F1 EQ PUSH2 0x1B87 JUMPI DUP1 PUSH4 0x3ABAB95D EQ PUSH2 0x19A8 JUMPI DUP1 PUSH4 0x3B481FCD EQ PUSH2 0x1978 JUMPI DUP1 PUSH4 0x3BA463BF EQ PUSH2 0x1B8F JUMPI PUSH2 0x1765 JUMP JUMPDEST DUP1 PUSH4 0x36E9332D GT PUSH2 0x122E JUMPI DUP1 PUSH4 0x36E9332D EQ PUSH2 0x1B5F JUMPI DUP1 PUSH4 0x372500AB EQ PUSH2 0x1B67 JUMPI DUP1 PUSH4 0x37B6C887 EQ PUSH2 0x1A3E JUMPI DUP1 PUSH4 0x38C0F073 EQ PUSH2 0x1B6F JUMPI DUP1 PUSH4 0x395EA61B EQ PUSH2 0x1B77 JUMPI DUP1 PUSH4 0x39CE5ACC EQ PUSH2 0x1B7F JUMPI PUSH2 0x1765 JUMP JUMPDEST DUP1 PUSH4 0x32C2A966 EQ PUSH2 0x19A0 JUMPI DUP1 PUSH4 0x32E24FEB EQ PUSH2 0x1B1F JUMPI DUP1 PUSH4 0x34A8EA06 EQ PUSH2 0x1B27 JUMPI DUP1 PUSH4 0x35322F37 EQ PUSH2 0x1B2F JUMPI DUP1 PUSH4 0x35A13597 EQ PUSH2 0x1B37 JUMPI DUP1 PUSH4 0x36CA3F79 EQ PUSH2 0x1928 JUMPI PUSH2 0x1765 JUMP JUMPDEST DUP1 PUSH4 0x2B8278CA GT PUSH2 0x1334 JUMPI DUP1 PUSH4 0x2E974525 GT PUSH2 0x12ED JUMPI DUP1 PUSH4 0x30E4F56D GT PUSH2 0x12C7 JUMPI DUP1 PUSH4 0x30E4F56D EQ PUSH2 0x1AB1 JUMPI DUP1 PUSH4 0x313CE567 EQ PUSH2 0x1AB9 JUMPI DUP1 PUSH4 0x31F29250 EQ PUSH2 0x1AD3 JUMPI DUP1 PUSH4 0x323F491A EQ PUSH2 0x1B0C JUMPI PUSH2 0x1765 JUMP JUMPDEST DUP1 PUSH4 0x2E974525 EQ PUSH2 0x1AA1 JUMPI DUP1 PUSH4 0x2F4350C2 EQ PUSH2 0x1AA9 JUMPI DUP1 PUSH4 0x2F48AB7D EQ PUSH2 0x181B JUMPI PUSH2 0x1765 JUMP JUMPDEST DUP1 PUSH4 0x2B8278CA EQ PUSH2 0x1A89 JUMPI DUP1 PUSH4 0x2BE11AE2 EQ PUSH2 0x1A91 JUMPI DUP1 PUSH4 0x2C6DBB1C EQ PUSH2 0x1823 JUMPI DUP1 PUSH4 0x2CF53D73 EQ PUSH2 0x19DE JUMPI DUP1 PUSH4 0x2D8C1C35 EQ PUSH2 0x19E6 JUMPI DUP1 PUSH4 0x2DEF6620 EQ PUSH2 0x1A99 JUMPI PUSH2 0x1765 JUMP JUMPDEST DUP1 PUSH4 0x287F6C61 GT PUSH2 0x1386 JUMPI DUP1 PUSH4 0x287F6C61 EQ PUSH2 0x1920 JUMPI DUP1 PUSH4 0x2930CF24 EQ PUSH2 0x1A66 JUMPI DUP1 PUSH4 0x298C6C51 EQ PUSH2 0x1862 JUMPI DUP1 PUSH4 0x29CF1C30 EQ PUSH2 0x1988 JUMPI DUP1 PUSH4 0x2A4FF9E5 EQ PUSH2 0x1A6E JUMPI DUP1 PUSH4 0x2A981B5B EQ PUSH2 0x1A81 JUMPI PUSH2 0x1765 JUMP JUMPDEST DUP1 PUSH4 0x243FCB35 EQ PUSH2 0x1A3E JUMPI DUP1 PUSH4 0x24600FC3 EQ PUSH2 0x1A46 JUMPI DUP1 PUSH4 0x24D69131 EQ PUSH2 0x1A4E JUMPI DUP1 PUSH4 0x2681F7E4 EQ PUSH2 0x1A56 JUMPI DUP1 PUSH4 0x27AF9E38 EQ PUSH2 0x1A5E JUMPI DUP1 PUSH4 0x28593984 EQ PUSH2 0x1A46 JUMPI PUSH2 0x1765 JUMP JUMPDEST DUP1 PUSH4 0x1370128E GT PUSH2 0x1530 JUMPI DUP1 PUSH4 0x1B3ED722 GT PUSH2 0x1497 JUMPI DUP1 PUSH4 0x1E2F3791 GT PUSH2 0x1450 JUMPI DUP1 PUSH4 0x2262A1B3 GT PUSH2 0x142A JUMPI DUP1 PUSH4 0x2262A1B3 EQ PUSH2 0x1A16 JUMPI DUP1 PUSH4 0x234CB051 EQ PUSH2 0x19EE JUMPI DUP1 PUSH4 0x239F74AE EQ PUSH2 0x1862 JUMPI DUP1 PUSH4 0x23B872DD EQ PUSH2 0x1A1E JUMPI PUSH2 0x1765 JUMP JUMPDEST DUP1 PUSH4 0x1E2F3791 EQ PUSH2 0x1A06 JUMPI DUP1 PUSH4 0x1F98394D EQ PUSH2 0x1A0E JUMPI DUP1 PUSH4 0x21A950CA EQ PUSH2 0x19DE JUMPI PUSH2 0x1765 JUMP JUMPDEST DUP1 PUSH4 0x1B3ED722 EQ PUSH2 0x19E6 JUMPI DUP1 PUSH4 0x1BCE6FF3 EQ PUSH2 0x19EE JUMPI DUP1 PUSH4 0x1C4695F4 EQ PUSH2 0x1920 JUMPI DUP1 PUSH4 0x1C703655 EQ PUSH2 0x19F6 JUMPI DUP1 PUSH4 0x1E092EFB EQ PUSH2 0x19FE JUMPI DUP1 PUSH4 0x1E21E4AB EQ PUSH2 0x1978 JUMPI PUSH2 0x1765 JUMP JUMPDEST DUP1 PUSH4 0x174F57AF GT PUSH2 0x14E9 JUMPI DUP1 PUSH4 0x174F57AF EQ PUSH2 0x19B0 JUMPI DUP1 PUSH4 0x17C84F35 EQ PUSH2 0x19B8 JUMPI DUP1 PUSH4 0x18160DDD EQ PUSH2 0x19C0 JUMPI DUP1 PUSH4 0x19EB2EA0 EQ PUSH2 0x19D6 JUMPI DUP1 PUSH4 0x1A8F445F EQ PUSH2 0x19DE JUMPI DUP1 PUSH4 0x1AE947F7 EQ PUSH2 0x1862 JUMPI PUSH2 0x1765 JUMP JUMPDEST DUP1 PUSH4 0x1370128E EQ PUSH2 0x1980 JUMPI DUP1 PUSH4 0x13D0C71C EQ PUSH2 0x1988 JUMPI DUP1 PUSH4 0x15B379BA EQ PUSH2 0x1990 JUMPI DUP1 PUSH4 0x15E962DE EQ PUSH2 0x1998 JUMPI DUP1 PUSH4 0x164C84C9 EQ PUSH2 0x19A0 JUMPI DUP1 PUSH4 0x16F0115B EQ PUSH2 0x19A8 JUMPI PUSH2 0x1765 JUMP JUMPDEST DUP1 PUSH4 0x968C5ED GT PUSH2 0x15EF JUMPI DUP1 PUSH4 0xE33C34B GT PUSH2 0x15A8 JUMPI DUP1 PUSH4 0xF30A44C GT PUSH2 0x1582 JUMPI DUP1 PUSH4 0xF30A44C EQ PUSH2 0x1960 JUMPI DUP1 PUSH4 0x1249C58B EQ PUSH2 0x1968 JUMPI DUP1 PUSH4 0x12987C98 EQ PUSH2 0x1970 JUMPI DUP1 PUSH4 0x12B495A8 EQ PUSH2 0x1978 JUMPI PUSH2 0x1765 JUMP JUMPDEST DUP1 PUSH4 0xE33C34B EQ PUSH2 0x1948 JUMPI DUP1 PUSH4 0xE3F0CCA EQ PUSH2 0x1950 JUMPI DUP1 PUSH4 0xF15F4C0 EQ PUSH2 0x1958 JUMPI PUSH2 0x1765 JUMP JUMPDEST DUP1 PUSH4 0x968C5ED EQ PUSH2 0x1920 JUMPI DUP1 PUSH4 0xA087903 EQ PUSH2 0x1928 JUMPI DUP1 PUSH4 0xAD309E5 EQ PUSH2 0x1930 JUMPI DUP1 PUSH4 0xC240F9B EQ PUSH2 0x1938 JUMPI DUP1 PUSH4 0xC35580D EQ PUSH2 0x1940 JUMPI DUP1 PUSH4 0xD854646 EQ PUSH2 0x1920 JUMPI PUSH2 0x1765 JUMP JUMPDEST DUP1 PUSH4 0x6FDDE03 GT PUSH2 0x1641 JUMPI DUP1 PUSH4 0x6FDDE03 EQ PUSH2 0x18AE JUMPI DUP1 PUSH4 0x71AD61D EQ PUSH2 0x18D0 JUMPI DUP1 PUSH4 0x7824C06 EQ PUSH2 0x18D8 JUMPI DUP1 PUSH4 0x7E1B558 EQ PUSH2 0x18E0 JUMPI DUP1 PUSH4 0x95EA7B3 EQ PUSH2 0x18E8 JUMPI DUP1 PUSH4 0x95F6EBD EQ PUSH2 0x1918 JUMPI PUSH2 0x1765 JUMP JUMPDEST DUP1 PUSH4 0x1339C21 EQ PUSH2 0x1813 JUMPI DUP1 PUSH4 0x1FF74F7 EQ PUSH2 0x181B JUMPI DUP1 PUSH4 0x314214C EQ PUSH2 0x1823 JUMPI DUP1 PUSH4 0x43014E7 EQ PUSH2 0x182B JUMPI DUP1 PUSH4 0x4D18A8D EQ PUSH2 0x1862 JUMPI DUP1 PUSH4 0x646DBC5 EQ PUSH2 0x186A JUMPI PUSH2 0x1765 JUMP JUMPDEST CALLDATASIZE PUSH2 0x1765 JUMPI PUSH2 0x1696 CALLER PUSH2 0x2158 JUMP JUMPDEST PUSH1 0x0 DUP1 SLOAD PUSH1 0x40 MLOAD PUSH1 0x1 PUSH1 0x1 PUSH1 0xA0 SHL SUB SWAP1 SWAP2 AND SWAP1 CALLVALUE SWAP1 DUP4 DUP2 DUP2 DUP2 DUP6 DUP8 GAS CALL SWAP3 POP POP POP RETURNDATASIZE DUP1 PUSH1 0x0 DUP2 EQ PUSH2 0x16E3 JUMPI PUSH1 0x40 MLOAD SWAP2 POP PUSH1 0x1F NOT PUSH1 0x3F RETURNDATASIZE ADD AND DUP3 ADD PUSH1 0x40 MSTORE RETURNDATASIZE DUP3 MSTORE RETURNDATASIZE PUSH1 0x0 PUSH1 0x20 DUP5 ADD RETURNDATACOPY PUSH2 0x16E8 JUMP JUMPDEST PUSH1 0x60 SWAP2 POP JUMPDEST POP POP SWAP1 POP DUP1 PUSH2 0x1737 JUMPI PUSH1 0x40 MLOAD PUSH3 0x461BCD PUSH1 0xE5 SHL DUP2 MSTORE PUSH1 0x20 PUSH1 0x4 DUP3 ADD MSTORE PUSH1 0x16 PUSH1 0x24 DUP3 ADD MSTORE PUSH22 0x111A5C9958DD081D1C985B9CD9995C8819985A5B1959 PUSH1 0x52 SHL PUSH1 0x44 DUP3 ADD MSTORE PUSH1 0x64 ADD JUMPDEST PUSH1 0x40 MLOAD DUP1 SWAP2 SUB SWAP1 REVERT JUMPDEST CALLER PUSH1 0x0 DUP1 MLOAD PUSH1 0x20 PUSH2 0x5CB1 DUP4 CODECOPY DUP2 MLOAD SWAP2 MSTORE PUSH2 0x1752 CALLVALUE PUSH1 0x64 PUSH2 0x574A JUMP JUMPDEST PUSH1 0x40 MLOAD SWAP1 DUP2 MSTORE PUSH1 0x20 ADD PUSH1 0x40 MLOAD DUP1 SWAP2 SUB SWAP1 LOG2 STOP JUMPDEST PUSH2 0x176E CALLER PUSH2 0x2158 JUMP JUMPDEST PUSH1 0x0 DUP1 SLOAD PUSH1 0x40 MLOAD PUSH1 0x1 PUSH1 0x1 PUSH1 0xA0 SHL SUB SWAP1 SWAP2 AND SWAP1 CALLVALUE SWAP1 DUP4 DUP2 DUP2 DUP2 DUP6 DUP8 GAS CALL SWAP3 POP POP POP RETURNDATASIZE DUP1 PUSH1 0x0 DUP2 EQ PUSH2 0x17BB JUMPI PUSH1 0x40 MLOAD SWAP2 POP PUSH1 0x1F NOT PUSH1 0x3F RETURNDATASIZE ADD AND DUP3 ADD PUSH1 0x40 MSTORE RETURNDATASIZE DUP3 MSTORE RETURNDATASIZE PUSH1 0x0 PUSH1 0x20 DUP5 ADD RETURNDATACOPY PUSH2 0x17C0 JUMP JUMPDEST PUSH1 0x60 SWAP2 POP JUMPDEST POP POP SWAP1 POP DUP1 PUSH2 0x1811 JUMPI PUSH1 0x40 MLOAD PUSH3 0x461BCD PUSH1 0xE5 SHL DUP2 MSTORE PUSH1 0x20 PUSH1 0x4 DUP3 ADD MSTORE PUSH1 0x18 PUSH1 0x24 DUP3 ADD MSTORE PUSH32 0x46616C6C6261636B207472616E73666572206661696C65640000000000000000 PUSH1 0x44 DUP3 ADD MSTORE PUSH1 0x64 ADD PUSH2 0x172E JUMP JUMPDEST STOP JUMPDEST PUSH2 0x1811 PUSH2 0x21F4 JUMP JUMPDEST PUSH2 0x1811 PUSH2 0x220A JUMP JUMPDEST PUSH2 0x1811 PUSH2 0x221E JUMP JUMPDEST CALLVALUE DUP1 ISZERO PUSH2 0x1837 JUMPI PUSH1 0x0 DUP1 REVERT JUMPDEST POP PUSH2 0x184B PUSH2 0x1846 CALLDATASIZE PUSH1 0x4 PUSH2 0x577D JUMP JUMPDEST PUSH2 0x2232 JUMP JUMPDEST PUSH1 0x40 MLOAD PUSH1 0xFF SWAP1 SWAP2 AND DUP2 MSTORE PUSH1 0x20 ADD JUMPDEST PUSH1 0x40 MLOAD DUP1 SWAP2 SUB SWAP1 RETURN JUMPDEST PUSH2 0x1811 PUSH2 0x2265 JUMP JUMPDEST CALLVALUE DUP1 ISZERO PUSH2 0x1876 JUMPI PUSH1 0x0 DUP1 REVERT JUMPDEST POP PUSH2 0x18A0 PUSH2 0x1885 CALLDATASIZE PUSH1 0x4 PUSH2 0x577D JUMP JUMPDEST PUSH1 0x1 PUSH1 0x1 PUSH1 0xA0 SHL SUB AND PUSH1 0x0 SWAP1 DUP2 MSTORE PUSH1 0xA PUSH1 0x20 MSTORE PUSH1 0x40 SWAP1 KECCAK256 SLOAD SWAP1 JUMP JUMPDEST PUSH1 0x40 MLOAD SWAP1 DUP2 MSTORE PUSH1 0x20 ADD PUSH2 0x1859 JUMP JUMPDEST CALLVALUE DUP1 ISZERO PUSH2 0x18BA JUMPI PUSH1 0x0 DUP1 REVERT JUMPDEST POP PUSH2 0x18C3 PUSH2 0x2279 JUMP JUMPDEST PUSH1 0x40 MLOAD PUSH2 0x1859 SWAP2 SWAP1 PUSH2 0x579F JUMP JUMPDEST PUSH2 0x1811 PUSH2 0x2307 JUMP JUMPDEST PUSH2 0x1811 PUSH2 0x231A JUMP JUMPDEST PUSH2 0x1811 PUSH2 0x232E JUMP JUMPDEST CALLVALUE DUP1 ISZERO PUSH2 0x18F4 JUMPI PUSH1 0x0 DUP1 REVERT JUMPDEST POP PUSH2 0x1908 PUSH2 0x1903 CALLDATASIZE PUSH1 0x4 PUSH2 0x57ED JUMP JUMPDEST PUSH2 0x2343 JUMP JUMPDEST PUSH1 0x40 MLOAD SWAP1 ISZERO ISZERO DUP2 MSTORE PUSH1 0x20 ADD PUSH2 0x1859 JUMP JUMPDEST PUSH2 0x1811 PUSH2 0x237E JUMP JUMPDEST PUSH2 0x1811 PUSH2 0x2392 JUMP JUMPDEST PUSH2 0x1811 PUSH2 0x23A6 JUMP JUMPDEST PUSH2 0x1811 PUSH2 0x23BA JUMP JUMPDEST PUSH2 0x1811 PUSH2 0x23CE JUMP JUMPDEST PUSH2 0x1811 PUSH2 0x23E2 JUMP JUMPDEST PUSH2 0x1811 PUSH2 0x23F5 JUMP JUMPDEST PUSH2 0x1811 PUSH2 0x2408 JUMP JUMPDEST PUSH2 0x1811 PUSH2 0x241C JUMP JUMPDEST PUSH2 0x1811 PUSH2 0x2430 JUMP JUMPDEST PUSH2 0x1811 PUSH2 0x2443 JUMP JUMPDEST PUSH2 0x1811 PUSH2 0x2456 JUMP JUMPDEST PUSH2 0x1811 PUSH2 0x246A JUMP JUMPDEST PUSH2 0x1811 PUSH2 0x247E JUMP JUMPDEST PUSH2 0x1811 PUSH2 0x2492 JUMP JUMPDEST PUSH2 0x1811 PUSH2 0x24A6 JUMP JUMPDEST PUSH2 0x1811 PUSH2 0x24B9 JUMP JUMPDEST PUSH2 0x1811 PUSH2 0x24CD JUMP JUMPDEST PUSH2 0x1811 PUSH2 0x24E1 JUMP JUMPDEST PUSH2 0x1811 PUSH2 0x24F5 JUMP JUMPDEST PUSH2 0x1811 PUSH2 0x2644 JUMP JUMPDEST CALLVALUE DUP1 ISZERO PUSH2 0x19CC JUMPI PUSH1 0x0 DUP1 REVERT JUMPDEST POP PUSH2 0x18A0 PUSH1 0x4 SLOAD DUP2 JUMP JUMPDEST PUSH2 0x1811 PUSH2 0x2658 JUMP JUMPDEST PUSH2 0x1811 PUSH2 0x266C JUMP JUMPDEST PUSH2 0x1811 PUSH2 0x2680 JUMP JUMPDEST PUSH2 0x1811 PUSH2 0x2694 JUMP JUMPDEST PUSH2 0x1811 PUSH2 0x26A8 JUMP JUMPDEST PUSH2 0x1811 PUSH2 0x26BC JUMP JUMPDEST PUSH2 0x1811 PUSH2 0x26D0 JUMP JUMPDEST PUSH2 0x1811 PUSH2 0x26E4 JUMP JUMPDEST PUSH2 0x1811 PUSH2 0x26F8 JUMP JUMPDEST CALLVALUE DUP1 ISZERO PUSH2 0x1A2A JUMPI PUSH1 0x0 DUP1 REVERT JUMPDEST POP PUSH2 0x1908 PUSH2 0x1A39 CALLDATASIZE PUSH1 0x4 PUSH2 0x5817 JUMP JUMPDEST PUSH2 0x270C JUMP JUMPDEST PUSH2 0x1811 PUSH2 0x275C JUMP JUMPDEST PUSH2 0x1811 PUSH2 0x2770 JUMP JUMPDEST PUSH2 0x1811 PUSH2 0x2784 JUMP JUMPDEST PUSH2 0x1811 PUSH2 0x2798 JUMP JUMPDEST PUSH2 0x1811 PUSH2 0x27AC JUMP JUMPDEST PUSH2 0x1811 PUSH2 0x27C0 JUMP JUMPDEST PUSH2 0x1811 PUSH2 0x1A7C CALLDATASIZE PUSH1 0x4 PUSH2 0x5854 JUMP JUMPDEST PUSH2 0x27D4 JUMP JUMPDEST PUSH2 0x1811 PUSH2 0x286F JUMP JUMPDEST PUSH2 0x1811 PUSH2 0x2883 JUMP JUMPDEST PUSH2 0x1811 PUSH2 0x29E2 JUMP JUMPDEST PUSH2 0x1811 PUSH2 0x29F6 JUMP JUMPDEST PUSH2 0x1811 PUSH2 0x2A09 JUMP JUMPDEST PUSH2 0x1811 PUSH2 0x2B59 JUMP JUMPDEST PUSH2 0x1811 PUSH2 0x2B6D JUMP JUMPDEST CALLVALUE DUP1 ISZERO PUSH2 0x1AC5 JUMPI PUSH1 0x0 DUP1 REVERT JUMPDEST POP PUSH1 0x3 SLOAD PUSH2 0x184B SWAP1 PUSH1 0xFF AND DUP2 JUMP JUMPDEST CALLVALUE DUP1 ISZERO PUSH2 0x1ADF JUMPI PUSH1 0x0 DUP1 REVERT JUMPDEST POP PUSH2 0x1908 PUSH2 0x1AEE CALLDATASIZE PUSH1 0x4 PUSH2 0x577D JUMP JUMPDEST PUSH1 0x1 PUSH1 0x1 PUSH1 0xA0 SHL SUB AND PUSH1 0x0 SWAP1 DUP2 MSTORE PUSH1 0xB PUSH1 0x20 MSTORE PUSH1 0x40 SWAP1 KECCAK256 SLOAD PUSH1 0xFF AND SWAP1 JUMP JUMPDEST PUSH2 0x1811 PUSH2 0x1B1A CALLDATASIZE PUSH1 0x4 PUSH2 0x5924 JUMP JUMPDEST PUSH2 0x2B81 JUMP JUMPDEST PUSH2 0x1811 PUSH2 0x2BE6 JUMP JUMPDEST PUSH2 0x1811 PUSH2 0x2BFA JUMP JUMPDEST PUSH2 0x1811 PUSH2 0x2C0F JUMP JUMPDEST CALLVALUE DUP1 ISZERO PUSH2 0x1B43 JUMPI PUSH1 0x0 DUP1 REVERT JUMPDEST POP PUSH1 0x0 SLOAD PUSH1 0x40 MLOAD PUSH1 0x1 PUSH1 0x1 PUSH1 0xA0 SHL SUB SWAP1 SWAP2 AND DUP2 MSTORE PUSH1 0x20 ADD PUSH2 0x1859 JUMP JUMPDEST PUSH2 0x1811 PUSH2 0x2C23 JUMP JUMPDEST PUSH2 0x1811 PUSH2 0x2C37 JUMP JUMPDEST PUSH2 0x1811 PUSH2 0x2C4A JUMP JUMPDEST PUSH2 0x1811 PUSH2 0x2C5E JUMP JUMPDEST PUSH2 0x1811 PUSH2 0x2C72 JUMP JUMPDEST PUSH2 0x1811 PUSH2 0x2C86 JUMP JUMPDEST PUSH2 0x1811 PUSH2 0x2C99 JUMP JUMPDEST PUSH2 0x1811 PUSH2 0x2CAD JUMP JUMPDEST PUSH2 0x1811 PUSH2 0x2DFB JUMP JUMPDEST PUSH2 0x1811 PUSH2 0x2E0F JUMP JUMPDEST PUSH2 0x1811 PUSH2 0x2E23 JUMP JUMPDEST PUSH2 0x1811 PUSH2 0x2E37 JUMP JUMPDEST PUSH2 0x1811 PUSH2 0x2E4B JUMP JUMPDEST PUSH2 0x1811 PUSH2 0x2E5F JUMP JUMPDEST PUSH2 0x1811 PUSH2 0x2E73 JUMP JUMPDEST PUSH2 0x1811 PUSH2 0x2FBE JUMP JUMPDEST PUSH2 0x1811 PUSH2 0x2FD1 JUMP JUMPDEST PUSH2 0x1811 PUSH2 0x2FE5 JUMP JUMPDEST PUSH2 0x1811 PUSH2 0x2FF9 JUMP JUMPDEST PUSH2 0x1811 PUSH2 0x300E JUMP JUMPDEST PUSH2 0x1811 PUSH2 0x3022 JUMP JUMPDEST PUSH2 0x1811 PUSH2 0x3036 JUMP JUMPDEST PUSH2 0x1811 PUSH2 0x3091 JUMP JUMPDEST PUSH2 0x1811 PUSH2 0x30A4 JUMP JUMPDEST PUSH2 0x1811 PUSH2 0x30B8 JUMP JUMPDEST PUSH2 0x1811 PUSH2 0x30CC JUMP JUMPDEST PUSH2 0x1811 PUSH2 0x30E0 JUMP JUMPDEST PUSH2 0x1811 PUSH2 0x3231 JUMP JUMPDEST PUSH2 0x1811 PUSH2 0x3245 JUMP JUMPDEST PUSH2 0x1811 PUSH2 0x3259 JUMP JUMPDEST PUSH2 0x1811 PUSH2 0x326D JUMP JUMPDEST PUSH2 0x1811 PUSH2 0x33BC JUMP JUMPDEST PUSH2 0x1811 PUSH2 0x33D0 JUMP JUMPDEST PUSH2 0x1811 PUSH2 0x33E4 JUMP JUMPDEST PUSH2 0x1811 PUSH2 0x33F8 JUMP JUMPDEST PUSH2 0x1811 PUSH2 0x340C JUMP JUMPDEST PUSH2 0x1811 PUSH2 0x3420 JUMP JUMPDEST PUSH2 0x1811 PUSH2 0x3579 JUMP JUMPDEST PUSH2 0x1811 PUSH2 0x358D JUMP JUMPDEST PUSH2 0x1811 PUSH2 0x35A1 JUMP JUMPDEST PUSH2 0x1811 PUSH2 0x35B5 JUMP JUMPDEST PUSH2 0x1811 PUSH2 0x3711 JUMP JUMPDEST PUSH2 0x1811 PUSH2 0x3725 JUMP JUMPDEST PUSH2 0x1811 PUSH2 0x3739 JUMP JUMPDEST PUSH2 0x1811 PUSH2 0x374D JUMP JUMPDEST PUSH2 0x1811 PUSH2 0x389C JUMP JUMPDEST PUSH2 0x1811 PUSH2 0x38B2 JUMP JUMPDEST PUSH2 0x1811 PUSH2 0x38C6 JUMP JUMPDEST PUSH2 0x1811 PUSH2 0x38DA JUMP JUMPDEST PUSH2 0x1811 PUSH2 0x3A2D JUMP JUMPDEST PUSH2 0x1811 PUSH2 0x3A41 JUMP JUMPDEST PUSH2 0x1811 PUSH2 0x3A55 JUMP JUMPDEST PUSH2 0x1811 PUSH2 0x3BA6 JUMP JUMPDEST PUSH2 0x1811 PUSH2 0x3BB9 JUMP JUMPDEST PUSH2 0x1811 PUSH2 0x3BCD JUMP JUMPDEST CALLVALUE DUP1 ISZERO PUSH2 0x1D23 JUMPI PUSH1 0x0 DUP1 REVERT JUMPDEST POP PUSH2 0x18A0 PUSH2 0x1D32 CALLDATASIZE PUSH1 0x4 PUSH2 0x577D JUMP JUMPDEST PUSH2 0x3BE1 JUMP JUMPDEST PUSH2 0x1811 PUSH2 0x3C5F JUMP JUMPDEST PUSH2 0x1811 PUSH2 0x3C73 JUMP JUMPDEST PUSH2 0x1811 PUSH2 0x3C87 JUMP JUMPDEST PUSH2 0x1811 PUSH2 0x3C9B JUMP JUMPDEST PUSH2 0x1811 PUSH2 0x3CAF JUMP JUMPDEST PUSH2 0x1811 PUSH2 0x3CC3 JUMP JUMPDEST PUSH2 0x1811 PUSH2 0x3CD7 JUMP JUMPDEST PUSH2 0x1811 PUSH2 0x3CEA JUMP JUMPDEST PUSH2 0x1811 PUSH2 0x1D85 CALLDATASIZE PUSH1 0x4 PUSH2 0x5961 JUMP JUMPDEST PUSH2 0x3D5E JUMP JUMPDEST PUSH2 0x1811 PUSH2 0x3E8A JUMP JUMPDEST PUSH2 0x1811 PUSH2 0x3E9D JUMP JUMPDEST PUSH2 0x1811 PUSH2 0x3FF9 JUMP JUMPDEST PUSH2 0x1811 PUSH2 0x400D JUMP JUMPDEST PUSH2 0x1811 PUSH2 0x4021 JUMP JUMPDEST PUSH2 0x1811 PUSH2 0x4035 JUMP JUMPDEST PUSH2 0x1811 PUSH2 0x4049 JUMP JUMPDEST PUSH2 0x1811 PUSH2 0x405D JUMP JUMPDEST PUSH2 0x1811 PUSH2 0x4070 JUMP JUMPDEST CALLVALUE DUP1 ISZERO PUSH2 0x1DDE JUMPI PUSH1 0x0 DUP1 REVERT JUMPDEST POP PUSH7 0x38D7EA4C68000 PUSH2 0x18A0 JUMP JUMPDEST PUSH2 0x1811 PUSH2 0x1DFA CALLDATASIZE PUSH1 0x4 PUSH2 0x59E6 JUMP JUMPDEST PUSH2 0x4084 JUMP JUMPDEST PUSH2 0x1811 PUSH2 0x4173 JUMP JUMPDEST PUSH2 0x1811 PUSH2 0x4186 JUMP JUMPDEST PUSH2 0x1811 PUSH2 0x4199 JUMP JUMPDEST PUSH2 0x1811 PUSH2 0x1E25 CALLDATASIZE PUSH1 0x4 PUSH2 0x5854 JUMP JUMPDEST PUSH2 0x41AD JUMP JUMPDEST PUSH2 0x1811 PUSH2 0x41B7 JUMP JUMPDEST PUSH2 0x1811 PUSH2 0x41CB JUMP JUMPDEST PUSH2 0x1811 PUSH2 0x41DF JUMP JUMPDEST CALLVALUE DUP1 ISZERO PUSH2 0x1E4E JUMPI PUSH1 0x0 DUP1 REVERT JUMPDEST POP PUSH2 0x18C3 PUSH2 0x41F2 JUMP JUMPDEST PUSH2 0x1811 PUSH2 0x41FF JUMP JUMPDEST PUSH2 0x1811 PUSH2 0x4213 JUMP JUMPDEST PUSH2 0x1811 PUSH2 0x4227 JUMP JUMPDEST PUSH2 0x1908 PUSH2 0x423C JUMP JUMPDEST PUSH2 0x1811 PUSH2 0x43F8 JUMP JUMPDEST PUSH2 0x1811 PUSH2 0x440C JUMP JUMPDEST CALLVALUE DUP1 ISZERO PUSH2 0x1E93 JUMPI PUSH1 0x0 DUP1 REVERT JUMPDEST POP PUSH2 0x1908 PUSH2 0x1EA2 CALLDATASIZE PUSH1 0x4 PUSH2 0x57ED JUMP JUMPDEST PUSH2 0x4420 JUMP JUMPDEST CALLVALUE DUP1 ISZERO PUSH2 0x1EB3 JUMPI PUSH1 0x0 DUP1 REVERT JUMPDEST POP PUSH1 0x7 SLOAD PUSH2 0x18A0 JUMP JUMPDEST PUSH2 0x1811 PUSH2 0x1ECA CALLDATASIZE PUSH1 0x4 PUSH2 0x5A89 JUMP JUMPDEST PUSH2 0x4456 JUMP JUMPDEST PUSH2 0x1811 PUSH2 0x44EB JUMP JUMPDEST PUSH2 0x1811 PUSH2 0x44FF JUMP JUMPDEST PUSH2 0x1811 PUSH2 0x1EED CALLDATASIZE PUSH1 0x4 PUSH2 0x5854 JUMP JUMPDEST PUSH2 0x4513 JUMP JUMPDEST PUSH2 0x1811 PUSH2 0x453B JUMP JUMPDEST PUSH2 0x1811 PUSH2 0x454F JUMP JUMPDEST CALLVALUE DUP1 ISZERO PUSH2 0x1F0E JUMPI PUSH1 0x0 DUP1 REVERT JUMPDEST POP PUSH2 0x1908 PUSH2 0x1F1D CALLDATASIZE PUSH1 0x4 PUSH2 0x577D JUMP JUMPDEST PUSH1 0x1 PUSH1 0x1 PUSH1 0xA0 SHL SUB AND PUSH1 0x0 SWAP1 DUP2 MSTORE PUSH1 0x5 PUSH1 0x20 MSTORE PUSH1 0x40 SWAP1 KECCAK256 SLOAD ISZERO ISZERO SWAP1 JUMP JUMPDEST PUSH2 0x1811 PUSH2 0x4562 JUMP JUMPDEST PUSH2 0x1811 PUSH2 0x4577 JUMP JUMPDEST PUSH2 0x1811 PUSH2 0x458B JUMP JUMPDEST CALLVALUE DUP1 ISZERO PUSH2 0x1F5E JUMPI PUSH1 0x0 DUP1 REVERT JUMPDEST POP PUSH2 0x18A0 PUSH2 0x1F6D CALLDATASIZE PUSH1 0x4 PUSH2 0x577D JUMP JUMPDEST PUSH1 0x1 PUSH1 0x1 PUSH1 0xA0 SHL SUB AND PUSH1 0x0 SWAP1 DUP2 MSTORE PUSH1 0x5 PUSH1 0x20 MSTORE PUSH1 0x40 SWAP1 KECCAK256 SLOAD SWAP1 JUMP JUMPDEST PUSH2 0x1811 PUSH2 0x459E JUMP JUMPDEST PUSH2 0x1811 PUSH2 0x45F8 JUMP JUMPDEST PUSH2 0x1811 PUSH2 0x4763 JUMP JUMPDEST PUSH2 0x1811 PUSH2 0x4776 JUMP JUMPDEST PUSH2 0x1811 PUSH2 0x478A JUMP JUMPDEST PUSH2 0x1811 PUSH2 0x48DA JUMP JUMPDEST PUSH2 0x1811 PUSH2 0x48EE JUMP JUMPDEST PUSH2 0x1811 PUSH2 0x4902 JUMP JUMPDEST PUSH2 0x1811 PUSH2 0x4915 JUMP JUMPDEST PUSH2 0x1811 PUSH2 0x4929 JUMP JUMPDEST PUSH2 0x1811 PUSH2 0x493D JUMP JUMPDEST PUSH2 0x1811 PUSH2 0x4A90 JUMP JUMPDEST CALLVALUE DUP1 ISZERO PUSH2 0x1FF4 JUMPI PUSH1 0x0 DUP1 REVERT JUMPDEST POP PUSH2 0x1908 PUSH2 0x2003 CALLDATASIZE PUSH1 0x4 PUSH2 0x577D JUMP JUMPDEST POP PUSH1 0x1 SWAP1 JUMP JUMPDEST PUSH2 0x1811 PUSH2 0x4AA4 JUMP JUMPDEST PUSH2 0x1811 PUSH2 0x4AB8 JUMP JUMPDEST PUSH2 0x1811 PUSH2 0x4ACC JUMP JUMPDEST PUSH2 0x1811 PUSH2 0x4AE0 JUMP JUMPDEST CALLVALUE DUP1 ISZERO PUSH2 0x2035 JUMPI PUSH1 0x0 DUP1 REVERT JUMPDEST POP PUSH11 0x14ADF4B7320334B9000000 PUSH2 0x18A0 JUMP JUMPDEST PUSH2 0x1811 PUSH2 0x4AF4 JUMP JUMPDEST PUSH2 0x1811 PUSH2 0x4B08 JUMP JUMPDEST CALLVALUE DUP1 ISZERO PUSH2 0x2063 JUMPI PUSH1 0x0 DUP1 REVERT JUMPDEST POP PUSH2 0x18A0 PUSH2 0x2072 CALLDATASIZE PUSH1 0x4 PUSH2 0x5AAB JUMP JUMPDEST PUSH1 0x0 NOT SWAP3 SWAP2 POP POP JUMP JUMPDEST PUSH2 0x1811 PUSH2 0x4B1C JUMP JUMPDEST PUSH2 0x1811 PUSH2 0x2091 CALLDATASIZE PUSH1 0x4 PUSH2 0x5ADE JUMP JUMPDEST PUSH2 0x4B30 JUMP JUMPDEST PUSH2 0x1811 PUSH2 0x4CE9 JUMP JUMPDEST PUSH2 0x1811 PUSH2 0x4E37 JUMP JUMPDEST PUSH2 0x1811 PUSH2 0x4E4B JUMP JUMPDEST PUSH2 0x1811 PUSH2 0x4E5F JUMP JUMPDEST PUSH2 0x1811 PUSH2 0x4E73 JUMP JUMPDEST PUSH2 0x1811 PUSH2 0x4E87 JUMP JUMPDEST PUSH2 0x1811 PUSH2 0x4E9B JUMP JUMPDEST PUSH2 0x1811 PUSH2 0x4EAF JUMP JUMPDEST PUSH2 0x1811 PUSH2 0x4EC4 JUMP JUMPDEST PUSH2 0x1811 PUSH2 0x4ED8 JUMP JUMPDEST PUSH2 0x1811 PUSH2 0x4EEB JUMP JUMPDEST PUSH2 0x1811 PUSH2 0x4EFF JUMP JUMPDEST PUSH2 0x1811 PUSH2 0x4F13 JUMP JUMPDEST PUSH2 0x1811 PUSH2 0x4F27 JUMP JUMPDEST PUSH2 0x1811 PUSH2 0x4F3B JUMP JUMPDEST CALLVALUE DUP1 ISZERO PUSH2 0x211A JUMPI PUSH1 0x0 DUP1 REVERT JUMPDEST POP PUSH2 0x2123 PUSH2 0x508B JUMP JUMPDEST PUSH1 0x40 MLOAD PUSH2 0x1859 SWAP2 SWAP1 PUSH2 0x5BB0 JUMP JUMPDEST PUSH2 0x1811 PUSH2 0x5140 JUMP JUMPDEST PUSH2 0x1811 PUSH2 0x5154 JUMP JUMPDEST PUSH2 0x1811 PUSH2 0x5168 JUMP JUMPDEST PUSH2 0x1811 PUSH2 0x517C JUMP JUMPDEST PUSH2 0x1811 PUSH2 0x5190 JUMP JUMPDEST PUSH1 0x1 PUSH1 0x1 PUSH1 0xA0 SHL SUB DUP2 AND PUSH1 0x0 SWAP1 DUP2 MSTORE PUSH1 0x5 PUSH1 0x20 MSTORE PUSH1 0x40 DUP2 KECCAK256 SLOAD SWAP1 SUB PUSH2 0x21D8 JUMPI PUSH1 0x7 DUP1 SLOAD SWAP1 PUSH1 0x0 PUSH2 0x2187 DUP4 PUSH2 0x5BFC JUMP JUMPDEST SWAP1 SWAP2 SSTORE POP POP PUSH1 0x6 DUP1 SLOAD PUSH1 0x1 DUP2 ADD DUP3 SSTORE PUSH1 0x0 SWAP2 SWAP1 SWAP2 MSTORE PUSH32 0xF652222313E28459528D920B65115C16C04F3EFC82AAEDC97BE59F3F377C0D3F ADD DUP1 SLOAD PUSH1 0x1 PUSH1 0x1 PUSH1 0xA0 SHL SUB NOT AND PUSH1 0x1 PUSH1 0x1 PUSH1 0xA0 SHL SUB DUP4 AND OR SWAP1 SSTORE JUMPDEST PUSH1 0x1 PUSH1 0x1 PUSH1 0xA0 SHL SUB AND PUSH1 0x0 SWAP1 DUP2 MSTORE PUSH1 0x5 PUSH1 0x20 MSTORE PUSH1 0x40 SWAP1 KECCAK256 TIMESTAMP SWAP1 SSTORE JUMP JUMPDEST PUSH2 0x2208 CALLER PUSH10 0x1F2BBA5D84F99C00000 PUSH2 0x52E0 JUMP JUMPDEST JUMP JUMPDEST PUSH2 0x2208 CALLER PUSH10 0x8E4D316827686400000 PUSH2 0x52E0 JUMP JUMPDEST PUSH2 0x2208 CALLER PUSH10 0xDC3A8351F3D86A00000 PUSH2 0x52E0 JUMP JUMPDEST PUSH1 0x1 PUSH1 0x1 PUSH1 0xA0 SHL SUB DUP2 AND PUSH1 0x0 SWAP1 DUP2 MSTORE PUSH1 0x8 PUSH1 0x20 MSTORE PUSH1 0x40 DUP2 KECCAK256 SLOAD PUSH1 0xFF AND PUSH1 0x4 DUP2 GT ISZERO PUSH2 0x225F JUMPI PUSH2 0x225F PUSH2 0x5C15 JUMP JUMPDEST SWAP3 SWAP2 POP POP JUMP JUMPDEST PUSH2 0x2208 CALLER PUSH10 0x11FFDBF6B2B2EB200000 PUSH2 0x52E0 JUMP JUMPDEST PUSH1 0x1 DUP1 SLOAD PUSH2 0x2286 SWAP1 PUSH2 0x5C2B JUMP JUMPDEST DUP1 PUSH1 0x1F ADD PUSH1 0x20 DUP1 SWAP2 DIV MUL PUSH1 0x20 ADD PUSH1 0x40 MLOAD SWAP1 DUP2 ADD PUSH1 0x40 MSTORE DUP1 SWAP3 SWAP2 SWAP1 DUP2 DUP2 MSTORE PUSH1 0x20 ADD DUP3 DUP1 SLOAD PUSH2 0x22B2 SWAP1 PUSH2 0x5C2B JUMP JUMPDEST DUP1 ISZERO PUSH2 0x22FF JUMPI DUP1 PUSH1 0x1F LT PUSH2 0x22D4 JUMPI PUSH2 0x100 DUP1 DUP4 SLOAD DIV MUL DUP4 MSTORE SWAP2 PUSH1 0x20 ADD SWAP2 PUSH2 0x22FF JUMP JUMPDEST DUP3 ADD SWAP2 SWAP1 PUSH1 0x0 MSTORE PUSH1 0x20 PUSH1 0x0 KECCAK256 SWAP1 JUMPDEST DUP2 SLOAD DUP2 MSTORE SWAP1 PUSH1 0x1 ADD SWAP1 PUSH1 0x20 ADD DUP1 DUP4 GT PUSH2 0x22E2 JUMPI DUP3 SWAP1 SUB PUSH1 0x1F AND DUP3 ADD SWAP2 JUMPDEST POP POP POP POP POP DUP2 JUMP JUMPDEST PUSH2 0x2208 CALLER PUSH9 0xAD78EBC5AC62000000 PUSH2 0x52E0 JUMP JUMPDEST PUSH2 0x2208 CALLER PUSH10 0x32D26D12E980B600000 PUSH2 0x52E0 JUMP JUMPDEST PUSH2 0x2208 CALLER PUSH11 0x13DA329B6336471800000 PUSH2 0x52E0 JUMP JUMPDEST PUSH1 0x0 PUSH2 0x234E CALLER PUSH2 0x2158 JUMP JUMPDEST PUSH1 0x40 MLOAD PUSH1 0x0 DUP1 DUP3 MSTORE SWAP1 CALLER SWAP1 PUSH1 0x0 DUP1 MLOAD PUSH1 0x20 PUSH2 0x5CD1 DUP4 CODECOPY DUP2 MLOAD SWAP2 MSTORE SWAP1 PUSH1 0x20 ADD JUMPDEST PUSH1 0x40 MLOAD DUP1 SWAP2 SUB SWAP1 LOG3 POP PUSH1 0x1 SWAP3 SWAP2 POP POP JUMP JUMPDEST PUSH2 0x2208 CALLER PUSH10 0x3EAE3130ECC96900000 PUSH2 0x52E0 JUMP JUMPDEST PUSH2 0x2208 CALLER PUSH10 0xE664992288F22800000 PUSH2 0x52E0 JUMP JUMPDEST PUSH2 0x2208 CALLER PUSH10 0xBA58E545582D4600000 PUSH2 0x52E0 JUMP JUMPDEST PUSH2 0x2208 CALLER PUSH10 0x1FC3842BD1F071C00000 PUSH2 0x52E0 JUMP JUMPDEST PUSH2 0x2208 CALLER PUSH10 0x3F870857A3E0E3800000 PUSH2 0x52E0 JUMP JUMPDEST PUSH2 0x2208 CALLER PUSH9 0x878678326EAC900000 PUSH2 0x52E0 JUMP JUMPDEST PUSH2 0x2208 CALLER PUSH9 0xF3F20B8DFA69D00000 PUSH2 0x543B JUMP JUMPDEST PUSH2 0x2208 CALLER PUSH10 0x1E2784FBDC770900000 PUSH2 0x52E0 JUMP JUMPDEST PUSH2 0x2208 CALLER PUSH10 0x15AF1D78B58C4000000 PUSH2 0x52E0 JUMP JUMPDEST PUSH2 0x2208 CALLER PUSH9 0xEE86442FCD06C00000 PUSH2 0x52E0 JUMP JUMPDEST PUSH2 0x2208 CALLER PUSH9 0xBDBC41E0348B300000 PUSH2 0x52E0 JUMP JUMPDEST PUSH2 0x2208 CALLER PUSH10 0x28A857425466F800000 PUSH2 0x52E0 JUMP JUMPDEST PUSH2 0x2208 CALLER PUSH10 0xB02ECF74C3138800000 PUSH2 0x52E0 JUMP JUMPDEST PUSH2 0x2208 CALLER PUSH10 0x14AAE8170D09AD00000 PUSH2 0x52E0 JUMP JUMPDEST PUSH2 0x2208 CALLER PUSH10 0x2A5A058FC295ED000000 PUSH2 0x52E0 JUMP JUMPDEST PUSH2 0x2208 CALLER PUSH9 0x5150AE84A8CDF00000 PUSH2 0x52E0 JUMP JUMPDEST PUSH2 0x2208 CALLER PUSH10 0x37E777FB340D9500000 PUSH2 0x52E0 JUMP JUMPDEST PUSH2 0x2208 CALLER PUSH10 0x1A784379D99DB4200000 PUSH2 0x52E0 JUMP JUMPDEST PUSH2 0x2208 CALLER PUSH10 0x13A6B2B564871A00000 PUSH2 0x52E0 JUMP JUMPDEST PUSH7 0x38D7EA4C68000 CALLVALUE LT ISZERO PUSH2 0x254C JUMPI PUSH1 0x40 MLOAD PUSH3 0x461BCD PUSH1 0xE5 SHL DUP2 MSTORE PUSH1 0x20 PUSH1 0x4 DUP3 ADD MSTORE PUSH1 0x18 PUSH1 0x24 DUP3 ADD MSTORE PUSH32 0x4D696E74696E67206665653A20302E303031204D415449430000000000000000 PUSH1 0x44 DUP3 ADD MSTORE PUSH1 0x64 ADD PUSH2 0x172E JUMP JUMPDEST PUSH2 0x2555 CALLER PUSH2 0x2158 JUMP JUMPDEST PUSH1 0x0 DUP1 SLOAD PUSH1 0x40 MLOAD PUSH1 0x1 PUSH1 0x1 PUSH1 0xA0 SHL SUB SWAP1 SWAP2 AND SWAP1 CALLVALUE SWAP1 DUP4 DUP2 DUP2 DUP2 DUP6 DUP8 GAS CALL SWAP3 POP POP POP RETURNDATASIZE DUP1 PUSH1 0x0 DUP2 EQ PUSH2 0x25A2 JUMPI PUSH1 0x40 MLOAD SWAP2 POP PUSH1 0x1F NOT PUSH1 0x3F RETURNDATASIZE ADD AND DUP3 ADD PUSH1 0x40 MSTORE RETURNDATASIZE DUP3 MSTORE RETURNDATASIZE PUSH1 0x0 PUSH1 0x20 DUP5 ADD RETURNDATACOPY PUSH2 0x25A7 JUMP JUMPDEST PUSH1 0x60 SWAP2 POP JUMPDEST POP POP SWAP1 POP DUP1 PUSH2 0x25E6 JUMPI PUSH1 0x40 MLOAD PUSH3 0x461BCD PUSH1 0xE5 SHL DUP2 MSTORE PUSH1 0x20 PUSH1 0x4 DUP3 ADD MSTORE PUSH1 0xB PUSH1 0x24 DUP3 ADD MSTORE PUSH11 0x135A5B9D0819985A5B1959 PUSH1 0xAA SHL PUSH1 0x44 DUP3 ADD MSTORE PUSH1 0x64 ADD PUSH2 0x172E JUMP JUMPDEST PUSH1 0x40 MLOAD PUSH9 0xA2A15D09519BE00000 DUP2 MSTORE CALLER SWAP1 PUSH1 0x0 DUP1 MLOAD PUSH1 0x20 PUSH2 0x5CB1 DUP4 CODECOPY DUP2 MLOAD SWAP2 MSTORE SWAP1 PUSH1 0x20 ADD PUSH1 0x40 MLOAD DUP1 SWAP2 SUB SWAP1 LOG2 PUSH1 0x40 MLOAD PUSH9 0xA2A15D09519BE00000 DUP2 MSTORE CALLER SWAP1 ADDRESS SWAP1 PUSH1 0x0 DUP1 MLOAD PUSH1 0x20 PUSH2 0x5CD1 DUP4 CODECOPY DUP2 MLOAD SWAP2 MSTORE SWAP1 PUSH1 0x20 ADD JUMPDEST PUSH1 0x40 MLOAD DUP1 SWAP2 SUB SWAP1 LOG3 POP JUMP JUMPDEST PUSH2 0x2208 CALLER PUSH10 0x261DD1CE2F2088800000 PUSH2 0x52E0 JUMP JUMPDEST PUSH2 0x2208 CALLER PUSH10 0x18BBBD9DAF13F900000 PUSH2 0x52E0 JUMP JUMPDEST PUSH2 0x2208 CALLER PUSH10 0x141DF5D77C6D9D600000 PUSH2 0x52E0 JUMP JUMPDEST PUSH2 0x2208 CALLER PUSH10 0x98774738BC822200000 PUSH2 0x52E0 JUMP JUMPDEST PUSH2 0x2208 CALLER PUSH10 0x11478B7C30ABC300000 PUSH2 0x52E0 JUMP JUMPDEST PUSH2 0x2208 CALLER PUSH10 0x7F0E10AF47C1C7000000 PUSH2 0x52E0 JUMP JUMPDEST PUSH2 0x2208 CALLER PUSH10 0x269FEC7F0361D200000 PUSH2 0x52E0 JUMP JUMPDEST PUSH2 0x2208 CALLER PUSH10 0x5B7AC4553DE7AE00000 PUSH2 0x52E0 JUMP JUMPDEST PUSH2 0x2208 CALLER PUSH10 0x119E47F21381F400000 PUSH2 0x543B JUMP JUMPDEST PUSH2 0x2208 CALLER PUSH10 0xFE1C215E8F838E000000 PUSH2 0x52E0 JUMP JUMPDEST PUSH1 0x0 PUSH2 0x2717 CALLER PUSH2 0x2158 JUMP JUMPDEST DUP3 PUSH1 0x1 PUSH1 0x1 PUSH1 0xA0 SHL SUB AND DUP5 PUSH1 0x1 PUSH1 0x1 PUSH1 0xA0 SHL SUB AND PUSH1 0x0 DUP1 MLOAD PUSH1 0x20 PUSH2 0x5CD1 DUP4 CODECOPY DUP2 MLOAD SWAP2 MSTORE DUP5 PUSH1 0x40 MLOAD PUSH2 0x274A SWAP2 DUP2 MSTORE PUSH1 0x20 ADD SWAP1 JUMP JUMPDEST PUSH1 0x40 MLOAD DUP1 SWAP2 SUB SWAP1 LOG3 POP PUSH1 0x1 SWAP4 SWAP3 POP POP POP JUMP JUMPDEST PUSH2 0x2208 CALLER PUSH10 0x7695A92C20D6FE00000 PUSH2 0x52E0 JUMP JUMPDEST PUSH2 0x2208 CALLER PUSH10 0x18650127CC3DC800000 PUSH2 0x52E0 JUMP JUMPDEST PUSH2 0x2208 CALLER PUSH10 0x1ED4FDE7A2236B00000 PUSH2 0x52E0 JUMP JUMPDEST PUSH2 0x2208 CALLER PUSH10 0x115D3A99A9614F400000 PUSH2 0x52E0 JUMP JUMPDEST PUSH2 0x2208 CALLER PUSH10 0x12A27D53BC0487000000 PUSH2 0x52E0 JUMP JUMPDEST PUSH2 0x2208 CALLER PUSH10 0x3CFC82E37E9A7400000 PUSH2 0x52E0 JUMP JUMPDEST CALLER PUSH1 0x0 SWAP1 DUP2 MSTORE PUSH1 0xA PUSH1 0x20 MSTORE PUSH1 0x40 SWAP1 KECCAK256 SLOAD PUSH2 0x27EF SWAP1 PUSH1 0x1 PUSH2 0x5C65 JUMP JUMPDEST DUP2 EQ PUSH2 0x2830 JUMPI PUSH1 0x40 MLOAD PUSH3 0x461BCD PUSH1 0xE5 SHL DUP2 MSTORE PUSH1 0x20 PUSH1 0x4 DUP3 ADD MSTORE PUSH1 0x10 PUSH1 0x24 DUP3 ADD MSTORE PUSH16 0x496E76616C69642073657175656E6365 PUSH1 0x80 SHL PUSH1 0x44 DUP3 ADD MSTORE PUSH1 0x64 ADD PUSH2 0x172E JUMP JUMPDEST CALLER PUSH1 0x0 SWAP1 DUP2 MSTORE PUSH1 0xA PUSH1 0x20 MSTORE PUSH1 0x40 DUP2 KECCAK256 DUP1 SLOAD SWAP2 PUSH2 0x284B DUP4 PUSH2 0x5BFC JUMP JUMPDEST SWAP2 SWAP1 POP SSTORE POP PUSH1 0x3 DUP2 LT PUSH2 0x286C JUMPI PUSH2 0x286C CALLER PUSH10 0x54B40B1F852BDA00000 PUSH2 0x5452 JUMP JUMPDEST POP JUMP JUMPDEST PUSH2 0x2208 CALLER PUSH10 0x124BC0DDD92E5600000 PUSH2 0x52E0 JUMP JUMPDEST PUSH7 0x38D7EA4C68000 CALLVALUE LT ISZERO PUSH2 0x28E4 JUMPI PUSH1 0x40 MLOAD PUSH3 0x461BCD PUSH1 0xE5 SHL DUP2 MSTORE PUSH1 0x20 PUSH1 0x4 DUP3 ADD MSTORE PUSH1 0x21 PUSH1 0x24 DUP3 ADD MSTORE PUSH32 0x456D657267656E63792070726F63657373696E673A20302E303031204D415449 PUSH1 0x44 DUP3 ADD MSTORE PUSH1 0x43 PUSH1 0xF8 SHL PUSH1 0x64 DUP3 ADD MSTORE PUSH1 0x84 ADD PUSH2 0x172E JUMP JUMPDEST PUSH2 0x28ED CALLER PUSH2 0x2158 JUMP JUMPDEST PUSH1 0x0 DUP1 SLOAD PUSH1 0x40 MLOAD PUSH1 0x1 PUSH1 0x1 PUSH1 0xA0 SHL SUB SWAP1 SWAP2 AND SWAP1 CALLVALUE SWAP1 DUP4 DUP2 DUP2 DUP2 DUP6 DUP8 GAS CALL SWAP3 POP POP POP RETURNDATASIZE DUP1 PUSH1 0x0 DUP2 EQ PUSH2 0x293A JUMPI PUSH1 0x40 MLOAD SWAP2 POP PUSH1 0x1F NOT PUSH1 0x3F RETURNDATASIZE ADD AND DUP3 ADD PUSH1 0x40 MSTORE RETURNDATASIZE DUP3 MSTORE RETURNDATASIZE PUSH1 0x0 PUSH1 0x20 DUP5 ADD RETURNDATACOPY PUSH2 0x293F JUMP JUMPDEST PUSH1 0x60 SWAP2 POP JUMPDEST POP POP SWAP1 POP DUP1 PUSH2 0x2989 JUMPI PUSH1 0x40 MLOAD PUSH3 0x461BCD PUSH1 0xE5 SHL DUP2 MSTORE PUSH1 0x20 PUSH1 0x4 DUP3 ADD MSTORE PUSH1 0x16 PUSH1 0x24 DUP3 ADD MSTORE PUSH22 0x115B595C99D95B98DE4818DB185A5B4819985A5B1959 PUSH1 0x52 SHL PUSH1 0x44 DUP3 ADD MSTORE PUSH1 0x64 ADD PUSH2 0x172E JUMP JUMPDEST PUSH1 0x40 MLOAD PUSH10 0x21E19E0C9BAB2400000 DUP2 MSTORE CALLER SWAP1 PUSH1 0x0 DUP1 MLOAD PUSH1 0x20 PUSH2 0x5CB1 DUP4 CODECOPY DUP2 MLOAD SWAP2 MSTORE SWAP1 PUSH1 0x20 ADD PUSH1 0x40 MLOAD DUP1 SWAP2 SUB SWAP1 LOG2 PUSH1 0x40 MLOAD PUSH10 0x21E19E0C9BAB2400000 DUP2 MSTORE CALLER SWAP1 ADDRESS SWAP1 PUSH1 0x0 DUP1 MLOAD PUSH1 0x20 PUSH2 0x5CD1 DUP4 CODECOPY DUP2 MLOAD SWAP2 MSTORE SWAP1 PUSH1 0x20 ADD PUSH2 0x2639 JUMP JUMPDEST PUSH2 0x2208 CALLER PUSH10 0x170A0F5040E50400000 PUSH2 0x52E0 JUMP JUMPDEST PUSH2 0x2208 CALLER PUSH9 0xE91A7CD19FA3B00000 PUSH2 0x52E0 JUMP JUMPDEST PUSH7 0x38D7EA4C68000 CALLVALUE LT ISZERO PUSH2 0x2A60 JUMPI PUSH1 0x40 MLOAD PUSH3 0x461BCD PUSH1 0xE5 SHL DUP2 MSTORE PUSH1 0x20 PUSH1 0x4 DUP3 ADD MSTORE PUSH1 0x1C PUSH1 0x24 DUP3 ADD MSTORE PUSH32 0x42756C6B2070726F63657373696E673A20302E303031204D4154494300000000 PUSH1 0x44 DUP3 ADD MSTORE PUSH1 0x64 ADD PUSH2 0x172E JUMP JUMPDEST PUSH2 0x2A69 CALLER PUSH2 0x2158 JUMP JUMPDEST PUSH1 0x0 DUP1 SLOAD PUSH1 0x40 MLOAD PUSH1 0x1 PUSH1 0x1 PUSH1 0xA0 SHL SUB SWAP1 SWAP2 AND SWAP1 CALLVALUE SWAP1 DUP4 DUP2 DUP2 DUP2 DUP6 DUP8 GAS CALL SWAP3 POP POP POP RETURNDATASIZE DUP1 PUSH1 0x0 DUP2 EQ PUSH2 0x2AB6 JUMPI PUSH1 0x40 MLOAD SWAP2 POP PUSH1 0x1F NOT PUSH1 0x3F RETURNDATASIZE ADD AND DUP3 ADD PUSH1 0x40 MSTORE RETURNDATASIZE DUP3 MSTORE RETURNDATASIZE PUSH1 0x0 PUSH1 0x20 DUP5 ADD RETURNDATACOPY PUSH2 0x2ABB JUMP JUMPDEST PUSH1 0x60 SWAP2 POP JUMPDEST POP POP SWAP1 POP DUP1 PUSH2 0x2B00 JUMPI PUSH1 0x40 MLOAD PUSH3 0x461BCD PUSH1 0xE5 SHL DUP2 MSTORE PUSH1 0x20 PUSH1 0x4 DUP3 ADD MSTORE PUSH1 0x11 PUSH1 0x24 DUP3 ADD MSTORE PUSH17 0x109D5B1AC818DB185A5B4819985A5B1959 PUSH1 0x7A SHL PUSH1 0x44 DUP3 ADD MSTORE PUSH1 0x64 ADD PUSH2 0x172E JUMP JUMPDEST PUSH1 0x40 MLOAD PUSH10 0x32D26D12E980B600000 DUP2 MSTORE CALLER SWAP1 PUSH1 0x0 DUP1 MLOAD PUSH1 0x20 PUSH2 0x5CB1 DUP4 CODECOPY DUP2 MLOAD SWAP2 MSTORE SWAP1 PUSH1 0x20 ADD PUSH1 0x40 MLOAD DUP1 SWAP2 SUB SWAP1 LOG2 PUSH1 0x40 MLOAD PUSH10 0x32D26D12E980B600000 DUP2 MSTORE CALLER SWAP1 ADDRESS SWAP1 PUSH1 0x0 DUP1 MLOAD PUSH1 0x20 PUSH2 0x5CD1 DUP4 CODECOPY DUP2 MLOAD SWAP2 MSTORE SWAP1 PUSH1 0x20 ADD PUSH2 0x2639 JUMP JUMPDEST PUSH2 0x2208 CALLER PUSH10 0x23934C5A09DA1900000 PUSH2 0x52E0 JUMP JUMPDEST PUSH2 0x2208 CALLER PUSH10 0x5150AE84A8CDF000000 PUSH2 0x52E0 JUMP JUMPDEST DUP1 MLOAD PUSH1 0x41 EQ PUSH2 0x2BD2 JUMPI PUSH1 0x40 MLOAD PUSH3 0x461BCD PUSH1 0xE5 SHL DUP2 MSTORE PUSH1 0x20 PUSH1 0x4 DUP3 ADD MSTORE PUSH1 0x18 PUSH1 0x24 DUP3 ADD MSTORE PUSH32 0x496E76616C6964207369676E6174757265206C656E6774680000000000000000 PUSH1 0x44 DUP3 ADD MSTORE PUSH1 0x64 ADD PUSH2 0x172E JUMP JUMPDEST PUSH2 0x286C CALLER PUSH10 0xA968163F0A57B400000 PUSH2 0x5469 JUMP JUMPDEST PUSH2 0x2208 CALLER PUSH10 0x185A29990FE301E00000 PUSH2 0x52E0 JUMP JUMPDEST PUSH2 0x2208 CALLER PUSH11 0x422CA8B0A00A425000000 PUSH2 0x52E0 JUMP JUMPDEST PUSH2 0x2208 CALLER PUSH10 0x1F8276D367CFCD00000 PUSH2 0x52E0 JUMP JUMPDEST PUSH2 0x2208 CALLER PUSH10 0x1DD0C885F9A0D800000 PUSH2 0x52E0 JUMP JUMPDEST PUSH2 0x2208 CALLER PUSH9 0x97C9CE4CF6D5C00000 PUSH2 0x52E0 JUMP JUMPDEST PUSH2 0x2208 CALLER PUSH10 0xFE1C215E8F838E00000 PUSH2 0x52E0 JUMP JUMPDEST PUSH2 0x2208 CALLER PUSH10 0xF3F20B8DFA69D000000 PUSH2 0x52E0 JUMP JUMPDEST PUSH2 0x2208 CALLER PUSH10 0x12A27D53BC048700000 PUSH2 0x543B JUMP JUMPDEST PUSH2 0x2208 CALLER PUSH9 0xCDFF97FABCB4600000 PUSH2 0x52E0 JUMP JUMPDEST PUSH2 0x2208 CALLER PUSH10 0x6C6B935B8BBD4000000 PUSH2 0x52E0 JUMP JUMPDEST PUSH7 0x38D7EA4C68000 CALLVALUE LT ISZERO PUSH2 0x2D04 JUMPI PUSH1 0x40 MLOAD PUSH3 0x461BCD PUSH1 0xE5 SHL DUP2 MSTORE PUSH1 0x20 PUSH1 0x4 DUP3 ADD MSTORE PUSH1 0x1B PUSH1 0x24 DUP3 ADD MSTORE PUSH32 0x5769746864726177616C206665653A20302E303031204D415449430000000000 PUSH1 0x44 DUP3 ADD MSTORE PUSH1 0x64 ADD PUSH2 0x172E JUMP JUMPDEST PUSH2 0x2D0D CALLER PUSH2 0x2158 JUMP JUMPDEST PUSH1 0x0 DUP1 SLOAD PUSH1 0x40 MLOAD PUSH1 0x1 PUSH1 0x1 PUSH1 0xA0 SHL SUB SWAP1 SWAP2 AND SWAP1 CALLVALUE SWAP1 DUP4 DUP2 DUP2 DUP2 DUP6 DUP8 GAS CALL SWAP3 POP POP POP RETURNDATASIZE DUP1 PUSH1 0x0 DUP2 EQ PUSH2 0x2D5A JUMPI PUSH1 0x40 MLOAD SWAP2 POP PUSH1 0x1F NOT PUSH1 0x3F RETURNDATASIZE ADD AND DUP3 ADD PUSH1 0x40 MSTORE RETURNDATASIZE DUP3 MSTORE RETURNDATASIZE PUSH1 0x0 PUSH1 0x20 DUP5 ADD RETURNDATACOPY PUSH2 0x2D5F JUMP JUMPDEST PUSH1 0x60 SWAP2 POP JUMPDEST POP POP SWAP1 POP DUP1 PUSH2 0x2DA4 JUMPI PUSH1 0x40 MLOAD PUSH3 0x461BCD PUSH1 0xE5 SHL DUP2 MSTORE PUSH1 0x20 PUSH1 0x4 DUP3 ADD MSTORE PUSH1 0x11 PUSH1 0x24 DUP3 ADD MSTORE PUSH17 0x15DA5D1A191C985DD85B0819985A5B1959 PUSH1 0x7A SHL PUSH1 0x44 DUP3 ADD MSTORE PUSH1 0x64 ADD PUSH2 0x172E JUMP JUMPDEST PUSH1 0x40 MLOAD PUSH9 0x878678326EAC900000 DUP2 MSTORE CALLER SWAP1 PUSH1 0x0 DUP1 MLOAD PUSH1 0x20 PUSH2 0x5CB1 DUP4 CODECOPY DUP2 MLOAD SWAP2 MSTORE SWAP1 PUSH1 0x20 ADD PUSH1 0x40 MLOAD DUP1 SWAP2 SUB SWAP1 LOG2 PUSH1 0x40 MLOAD PUSH9 0x878678326EAC900000 DUP2 MSTORE CALLER SWAP1 ADDRESS SWAP1 PUSH1 0x0 DUP1 MLOAD PUSH1 0x20 PUSH2 0x5CD1 DUP4 CODECOPY DUP2 MLOAD SWAP2 MSTORE SWAP1 PUSH1 0x20 ADD PUSH2 0x2639 JUMP JUMPDEST PUSH2 0x2208 CALLER PUSH10 0xA968163F0A57B4000000 PUSH2 0x52E0 JUMP JUMPDEST PUSH2 0x2208 CALLER PUSH10 0x2DBD622A9EF3D700000 PUSH2 0x52E0 JUMP JUMPDEST PUSH2 0x2208 CALLER PUSH10 0x10F0CF064DD59200000 PUSH2 0x543B JUMP JUMPDEST PUSH2 0x2208 CALLER PUSH10 0x2086AC3510526000000 PUSH2 0x52E0 JUMP JUMPDEST PUSH2 0x2208 CALLER PUSH10 0x38EBAD5CDC902800000 PUSH2 0x52E0 JUMP JUMPDEST PUSH2 0x2208 CALLER PUSH10 0x472698B413B43200000 PUSH2 0x52E0 JUMP JUMPDEST PUSH7 0x38D7EA4C68000 CALLVALUE LT ISZERO PUSH2 0x2ECA JUMPI PUSH1 0x40 MLOAD PUSH3 0x461BCD PUSH1 0xE5 SHL DUP2 MSTORE PUSH1 0x20 PUSH1 0x4 DUP3 ADD MSTORE PUSH1 0x18 PUSH1 0x24 DUP3 ADD MSTORE PUSH32 0x48617276657374206665653A20302E303031204D415449430000000000000000 PUSH1 0x44 DUP3 ADD MSTORE PUSH1 0x64 ADD PUSH2 0x172E JUMP JUMPDEST PUSH2 0x2ED3 CALLER PUSH2 0x2158 JUMP JUMPDEST PUSH1 0x0 DUP1 SLOAD PUSH1 0x40 MLOAD PUSH1 0x1 PUSH1 0x1 PUSH1 0xA0 SHL SUB SWAP1 SWAP2 AND SWAP1 CALLVALUE SWAP1 DUP4 DUP2 DUP2 DUP2 DUP6 DUP8 GAS CALL SWAP3 POP POP POP RETURNDATASIZE DUP1 PUSH1 0x0 DUP2 EQ PUSH2 0x2F20 JUMPI PUSH1 0x40 MLOAD SWAP2 POP PUSH1 0x1F NOT PUSH1 0x3F RETURNDATASIZE ADD AND DUP3 ADD PUSH1 0x40 MSTORE RETURNDATASIZE DUP3 MSTORE RETURNDATASIZE PUSH1 0x0 PUSH1 0x20 DUP5 ADD RETURNDATACOPY PUSH2 0x2F25 JUMP JUMPDEST PUSH1 0x60 SWAP2 POP JUMPDEST POP POP SWAP1 POP DUP1 PUSH2 0x2F67 JUMPI PUSH1 0x40 MLOAD PUSH3 0x461BCD PUSH1 0xE5 SHL DUP2 MSTORE PUSH1 0x20 PUSH1 0x4 DUP3 ADD MSTORE PUSH1 0xE PUSH1 0x24 DUP3 ADD MSTORE PUSH14 0x12185C9D995CDD0819985A5B1959 PUSH1 0x92 SHL PUSH1 0x44 DUP3 ADD MSTORE PUSH1 0x64 ADD PUSH2 0x172E JUMP JUMPDEST PUSH1 0x40 MLOAD PUSH9 0xBDBC41E0348B300000 DUP2 MSTORE CALLER SWAP1 PUSH1 0x0 DUP1 MLOAD PUSH1 0x20 PUSH2 0x5CB1 DUP4 CODECOPY DUP2 MLOAD SWAP2 MSTORE SWAP1 PUSH1 0x20 ADD PUSH1 0x40 MLOAD DUP1 SWAP2 SUB SWAP1 LOG2 PUSH1 0x40 MLOAD PUSH9 0xBDBC41E0348B300000 DUP2 MSTORE CALLER SWAP1 ADDRESS SWAP1 PUSH1 0x0 DUP1 MLOAD PUSH1 0x20 PUSH2 0x5CD1 DUP4 CODECOPY DUP2 MLOAD SWAP2 MSTORE SWAP1 PUSH1 0x20 ADD PUSH2 0x2639 JUMP JUMPDEST PUSH2 0x2208 CALLER PUSH9 0x77432217E683600000 PUSH2 0x52E0 JUMP JUMPDEST PUSH2 0x2208 CALLER PUSH10 0x27FADE568EBA9600000 PUSH2 0x52E0 JUMP JUMPDEST PUSH2 0x2208 CALLER PUSH10 0x228F16F861578600000 PUSH2 0x52E0 JUMP JUMPDEST PUSH2 0x2208 CALLER PUSH11 0x27B46536C66C8E3000000 PUSH2 0x52E0 JUMP JUMPDEST PUSH2 0x2208 CALLER PUSH10 0x54B40B1F852BDA00000 PUSH2 0x52E0 JUMP JUMPDEST PUSH2 0x2208 CALLER PUSH10 0x3120BEC57B51C100000 PUSH2 0x52E0 JUMP JUMPDEST PUSH1 0x0 SELFBALANCE GT PUSH2 0x307D JUMPI PUSH1 0x40 MLOAD PUSH3 0x461BCD PUSH1 0xE5 SHL DUP2 MSTORE PUSH1 0x20 PUSH1 0x4 DUP3 ADD MSTORE PUSH1 0x14 PUSH1 0x24 DUP3 ADD MSTORE PUSH20 0x496E73756666696369656E742062616C616E6365 PUSH1 0x60 SHL PUSH1 0x44 DUP3 ADD MSTORE PUSH1 0x64 ADD PUSH2 0x172E JUMP JUMPDEST PUSH2 0x2208 CALLER PUSH10 0x1969368974C05B00000 PUSH2 0x5480 JUMP JUMPDEST PUSH2 0x2208 CALLER PUSH9 0x6194049F30F7200000 PUSH2 0x52E0 JUMP JUMPDEST PUSH2 0x2208 CALLER PUSH10 0xD3C21BCECCEDA1000000 PUSH2 0x52E0 JUMP JUMPDEST PUSH2 0x2208 CALLER PUSH10 0x12F939C99EDAB800000 PUSH2 0x52E0 JUMP JUMPDEST PUSH2 0x2208 CALLER PUSH10 0x1043561A88293000000 PUSH2 0x52E0 JUMP JUMPDEST PUSH7 0x38D7EA4C68000 CALLVALUE LT ISZERO PUSH2 0x3137 JUMPI PUSH1 0x40 MLOAD PUSH3 0x461BCD PUSH1 0xE5 SHL DUP2 MSTORE PUSH1 0x20 PUSH1 0x4 DUP3 ADD MSTORE PUSH1 0x1D PUSH1 0x24 DUP3 ADD MSTORE PUSH32 0x426F6E75732070726F63657373696E673A20302E303031204D41544943000000 PUSH1 0x44 DUP3 ADD MSTORE PUSH1 0x64 ADD PUSH2 0x172E JUMP JUMPDEST PUSH2 0x3140 CALLER PUSH2 0x2158 JUMP JUMPDEST PUSH1 0x0 DUP1 SLOAD PUSH1 0x40 MLOAD PUSH1 0x1 PUSH1 0x1 PUSH1 0xA0 SHL SUB SWAP1 SWAP2 AND SWAP1 CALLVALUE SWAP1 DUP4 DUP2 DUP2 DUP2 DUP6 DUP8 GAS CALL SWAP3 POP POP POP RETURNDATASIZE DUP1 PUSH1 0x0 DUP2 EQ PUSH2 0x318D JUMPI PUSH1 0x40 MLOAD SWAP2 POP PUSH1 0x1F NOT PUSH1 0x3F RETURNDATASIZE ADD AND DUP3 ADD PUSH1 0x40 MSTORE RETURNDATASIZE DUP3 MSTORE RETURNDATASIZE PUSH1 0x0 PUSH1 0x20 DUP5 ADD RETURNDATACOPY PUSH2 0x3192 JUMP JUMPDEST PUSH1 0x60 SWAP2 POP JUMPDEST POP POP SWAP1 POP DUP1 PUSH2 0x31D8 JUMPI PUSH1 0x40 MLOAD PUSH3 0x461BCD PUSH1 0xE5 SHL DUP2 MSTORE PUSH1 0x20 PUSH1 0x4 DUP3 ADD MSTORE PUSH1 0x12 PUSH1 0x24 DUP3 ADD MSTORE PUSH18 0x109BDB9D5CC818DB185A5B4819985A5B1959 PUSH1 0x72 SHL PUSH1 0x44 DUP3 ADD MSTORE PUSH1 0x64 ADD PUSH2 0x172E JUMP JUMPDEST PUSH1 0x40 MLOAD PUSH10 0x1969368974C05B00000 DUP2 MSTORE CALLER SWAP1 PUSH1 0x0 DUP1 MLOAD PUSH1 0x20 PUSH2 0x5CB1 DUP4 CODECOPY DUP2 MLOAD SWAP2 MSTORE SWAP1 PUSH1 0x20 ADD PUSH1 0x40 MLOAD DUP1 SWAP2 SUB SWAP1 LOG2 PUSH1 0x40 MLOAD PUSH10 0x1969368974C05B00000 DUP2 MSTORE CALLER SWAP1 ADDRESS SWAP1 PUSH1 0x0 DUP1 MLOAD PUSH1 0x20 PUSH2 0x5CD1 DUP4 CODECOPY DUP2 MLOAD SWAP2 MSTORE SWAP1 PUSH1 0x20 ADD PUSH2 0x2639 JUMP JUMPDEST PUSH2 0x2208 CALLER PUSH10 0x1CCC9324511E4500000 PUSH2 0x52E0 JUMP JUMPDEST PUSH2 0x2208 CALLER PUSH10 0x34F086F3B33B68400000 PUSH2 0x52E0 JUMP JUMPDEST PUSH2 0x2208 CALLER PUSH10 0x3DA9FBCF4446D600000 PUSH2 0x52E0 JUMP JUMPDEST PUSH7 0x38D7EA4C68000 CALLVALUE LT ISZERO PUSH2 0x32C4 JUMPI PUSH1 0x40 MLOAD PUSH3 0x461BCD PUSH1 0xE5 SHL DUP2 MSTORE PUSH1 0x20 PUSH1 0x4 DUP3 ADD MSTORE PUSH1 0x1B PUSH1 0x24 DUP3 ADD MSTORE PUSH32 0x5649502070726F63657373696E673A20302E303031204D415449430000000000 PUSH1 0x44 DUP3 ADD MSTORE PUSH1 0x64 ADD PUSH2 0x172E JUMP JUMPDEST PUSH2 0x32CD CALLER PUSH2 0x2158 JUMP JUMPDEST PUSH1 0x0 DUP1 SLOAD PUSH1 0x40 MLOAD PUSH1 0x1 PUSH1 0x1 PUSH1 0xA0 SHL SUB SWAP1 SWAP2 AND SWAP1 CALLVALUE SWAP1 DUP4 DUP2 DUP2 DUP2 DUP6 DUP8 GAS CALL SWAP3 POP POP POP RETURNDATASIZE DUP1 PUSH1 0x0 DUP2 EQ PUSH2 0x331A JUMPI PUSH1 0x40 MLOAD SWAP2 POP PUSH1 0x1F NOT PUSH1 0x3F RETURNDATASIZE ADD AND DUP3 ADD PUSH1 0x40 MSTORE RETURNDATASIZE DUP3 MSTORE RETURNDATASIZE PUSH1 0x0 PUSH1 0x20 DUP5 ADD RETURNDATACOPY PUSH2 0x331F JUMP JUMPDEST PUSH1 0x60 SWAP2 POP JUMPDEST POP POP SWAP1 POP DUP1 PUSH2 0x3363 JUMPI PUSH1 0x40 MLOAD PUSH3 0x461BCD PUSH1 0xE5 SHL DUP2 MSTORE PUSH1 0x20 PUSH1 0x4 DUP3 ADD MSTORE PUSH1 0x10 PUSH1 0x24 DUP3 ADD MSTORE PUSH16 0x1592540818DB185A5B4819985A5B1959 PUSH1 0x82 SHL PUSH1 0x44 DUP3 ADD MSTORE PUSH1 0x64 ADD PUSH2 0x172E JUMP JUMPDEST PUSH1 0x40 MLOAD PUSH10 0x54B40B1F852BDA00000 DUP2 MSTORE CALLER SWAP1 PUSH1 0x0 DUP1 MLOAD PUSH1 0x20 PUSH2 0x5CB1 DUP4 CODECOPY DUP2 MLOAD SWAP2 MSTORE SWAP1 PUSH1 0x20 ADD PUSH1 0x40 MLOAD DUP1 SWAP2 SUB SWAP1 LOG2 PUSH1 0x40 MLOAD PUSH10 0x54B40B1F852BDA00000 DUP2 MSTORE CALLER SWAP1 ADDRESS SWAP1 PUSH1 0x0 DUP1 MLOAD PUSH1 0x20 PUSH2 0x5CD1 DUP4 CODECOPY DUP2 MLOAD SWAP2 MSTORE SWAP1 PUSH1 0x20 ADD PUSH2 0x2639 JUMP JUMPDEST PUSH2 0x2208 CALLER PUSH10 0x119E47F21381F400000 PUSH2 0x52E0 JUMP JUMPDEST PUSH2 0x2208 CALLER PUSH10 0x690836C0AF5F5600000 PUSH2 0x52E0 JUMP JUMPDEST PUSH2 0x2208 CALLER PUSH10 0x1FD933494AA5FE00000 PUSH2 0x52E0 JUMP JUMPDEST PUSH2 0x2208 CALLER PUSH10 0x5EDE20F01A459800000 PUSH2 0x52E0 JUMP JUMPDEST PUSH2 0x2208 CALLER PUSH10 0x1C1F1A388B71E300000 PUSH2 0x52E0 JUMP JUMPDEST PUSH7 0x38D7EA4C68000 CALLVALUE LT ISZERO PUSH2 0x3487 JUMPI PUSH1 0x40 MLOAD PUSH3 0x461BCD PUSH1 0xE5 SHL DUP2 MSTORE PUSH1 0x20 PUSH1 0x4 DUP3 ADD MSTORE PUSH1 0x27 PUSH1 0x24 DUP3 ADD MSTORE PUSH32 0x4761732066656520726571756972656420666F7220636C61696D3A20302E3030 PUSH1 0x44 DUP3 ADD MSTORE PUSH7 0x31204D41544943 PUSH1 0xC8 SHL PUSH1 0x64 DUP3 ADD MSTORE PUSH1 0x84 ADD PUSH2 0x172E JUMP JUMPDEST PUSH2 0x3490 CALLER PUSH2 0x2158 JUMP JUMPDEST PUSH1 0x0 DUP1 SLOAD PUSH1 0x40 MLOAD PUSH1 0x1 PUSH1 0x1 PUSH1 0xA0 SHL SUB SWAP1 SWAP2 AND SWAP1 CALLVALUE SWAP1 DUP4 DUP2 DUP2 DUP2 DUP6 DUP8 GAS CALL SWAP3 POP POP POP RETURNDATASIZE DUP1 PUSH1 0x0 DUP2 EQ PUSH2 0x34DD JUMPI PUSH1 0x40 MLOAD SWAP2 POP PUSH1 0x1F NOT PUSH1 0x3F RETURNDATASIZE ADD AND DUP3 ADD PUSH1 0x40 MSTORE RETURNDATASIZE DUP3 MSTORE RETURNDATASIZE PUSH1 0x0 PUSH1 0x20 DUP5 ADD RETURNDATACOPY PUSH2 0x34E2 JUMP JUMPDEST PUSH1 0x60 SWAP2 POP JUMPDEST POP POP SWAP1 POP DUP1 PUSH2 0x3522 JUMPI PUSH1 0x40 MLOAD PUSH3 0x461BCD PUSH1 0xE5 SHL DUP2 MSTORE PUSH1 0x20 PUSH1 0x4 DUP3 ADD MSTORE PUSH1 0xC PUSH1 0x24 DUP3 ADD MSTORE PUSH12 0x10DB185A5B4819985A5B1959 PUSH1 0xA2 SHL PUSH1 0x44 DUP3 ADD MSTORE PUSH1 0x64 ADD PUSH2 0x172E JUMP JUMPDEST PUSH1 0x40 MLOAD PUSH9 0x6C6B935B8BBD400000 DUP2 MSTORE CALLER SWAP1 PUSH1 0x0 DUP1 MLOAD PUSH1 0x20 PUSH2 0x5CB1 DUP4 CODECOPY DUP2 MLOAD SWAP2 MSTORE SWAP1 PUSH1 0x20 ADD PUSH1 0x40 MLOAD DUP1 SWAP2 SUB SWAP1 LOG2 PUSH1 0x40 MLOAD PUSH9 0x6C6B935B8BBD400000 DUP2 MSTORE CALLER SWAP1 ADDRESS SWAP1 PUSH1 0x0 DUP1 MLOAD PUSH1 0x20 PUSH2 0x5CD1 DUP4 CODECOPY DUP2 MLOAD SWAP2 MSTORE SWAP1 PUSH1 0x20 ADD PUSH2 0x2639 JUMP JUMPDEST PUSH2 0x2208 CALLER PUSH10 0x34841B6057AFAB00000 PUSH2 0x52E0 JUMP JUMPDEST PUSH2 0x2208 CALLER PUSH10 0x12A27D53BC048700000 PUSH2 0x52E0 JUMP JUMPDEST PUSH2 0x2208 CALLER PUSH10 0x69E10DE76676D0800000 PUSH2 0x52E0 JUMP JUMPDEST PUSH7 0x38D7EA4C68000 CALLVALUE LT ISZERO PUSH2 0x360C JUMPI PUSH1 0x40 MLOAD PUSH3 0x461BCD PUSH1 0xE5 SHL DUP2 MSTORE PUSH1 0x20 PUSH1 0x4 DUP3 ADD MSTORE PUSH1 0x1B PUSH1 0x24 DUP3 ADD MSTORE PUSH32 0x476F7665726E616E6365206665653A20302E303031204D415449430000000000 PUSH1 0x44 DUP3 ADD MSTORE PUSH1 0x64 ADD PUSH2 0x172E JUMP JUMPDEST PUSH2 0x3615 CALLER PUSH2 0x2158 JUMP JUMPDEST PUSH1 0x0 DUP1 SLOAD PUSH1 0x40 MLOAD PUSH1 0x1 PUSH1 0x1 PUSH1 0xA0 SHL SUB SWAP1 SWAP2 AND SWAP1 CALLVALUE SWAP1 DUP4 DUP2 DUP2 DUP2 DUP6 DUP8 GAS CALL SWAP3 POP POP POP RETURNDATASIZE DUP1 PUSH1 0x0 DUP2 EQ PUSH2 0x3662 JUMPI PUSH1 0x40 MLOAD SWAP2 POP PUSH1 0x1F NOT PUSH1 0x3F RETURNDATASIZE ADD AND DUP3 ADD PUSH1 0x40 MSTORE RETURNDATASIZE DUP3 MSTORE RETURNDATASIZE PUSH1 0x0 PUSH1 0x20 DUP5 ADD RETURNDATACOPY PUSH2 0x3667 JUMP JUMPDEST PUSH1 0x60 SWAP2 POP JUMPDEST POP POP SWAP1 POP DUP1 PUSH2 0x36B8 JUMPI PUSH1 0x40 MLOAD PUSH3 0x461BCD PUSH1 0xE5 SHL DUP2 MSTORE PUSH1 0x20 PUSH1 0x4 DUP3 ADD MSTORE PUSH1 0x17 PUSH1 0x24 DUP3 ADD MSTORE PUSH32 0x476F7665726E616E636520636C61696D206661696C6564000000000000000000 PUSH1 0x44 DUP3 ADD MSTORE PUSH1 0x64 ADD PUSH2 0x172E JUMP JUMPDEST PUSH1 0x40 MLOAD PUSH10 0x1B1AE4D6E2EF5000000 DUP2 MSTORE CALLER SWAP1 PUSH1 0x0 DUP1 MLOAD PUSH1 0x20 PUSH2 0x5CB1 DUP4 CODECOPY DUP2 MLOAD SWAP2 MSTORE SWAP1 PUSH1 0x20 ADD PUSH1 0x40 MLOAD DUP1 SWAP2 SUB SWAP1 LOG2 PUSH1 0x40 MLOAD PUSH10 0x1B1AE4D6E2EF5000000 DUP2 MSTORE CALLER SWAP1 ADDRESS SWAP1 PUSH1 0x0 DUP1 MLOAD PUSH1 0x20 PUSH2 0x5CD1 DUP4 CODECOPY DUP2 MLOAD SWAP2 MSTORE SWAP1 PUSH1 0x20 ADD PUSH2 0x2639 JUMP JUMPDEST PUSH2 0x2208 CALLER PUSH10 0x4A89F54EF0121C00000 PUSH2 0x52E0 JUMP JUMPDEST PUSH2 0x2208 CALLER PUSH10 0x165C96647B38A200000 PUSH2 0x52E0 JUMP JUMPDEST PUSH2 0x2208 CALLER PUSH10 0x152D02C7E14AF6800000 PUSH2 0x52E0 JUMP JUMPDEST PUSH7 0x38D7EA4C68000 CALLVALUE LT ISZERO PUSH2 0x37A4 JUMPI PUSH1 0x40 MLOAD PUSH3 0x461BCD PUSH1 0xE5 SHL DUP2 MSTORE PUSH1 0x20 PUSH1 0x4 DUP3 ADD MSTORE PUSH1 0x1A PUSH1 0x24 DUP3 ADD MSTORE PUSH32 0x457865637574696F6E206665653A20302E303031204D41544943000000000000 PUSH1 0x44 DUP3 ADD MSTORE PUSH1 0x64 ADD PUSH2 0x172E JUMP JUMPDEST PUSH2 0x37AD CALLER PUSH2 0x2158 JUMP JUMPDEST PUSH1 0x0 DUP1 SLOAD PUSH1 0x40 MLOAD PUSH1 0x1 PUSH1 0x1 PUSH1 0xA0 SHL SUB SWAP1 SWAP2 AND SWAP1 CALLVALUE SWAP1 DUP4 DUP2 DUP2 DUP2 DUP6 DUP8 GAS CALL SWAP3 POP POP POP RETURNDATASIZE DUP1 PUSH1 0x0 DUP2 EQ PUSH2 0x37FA JUMPI PUSH1 0x40 MLOAD SWAP2 POP PUSH1 0x1F NOT PUSH1 0x3F RETURNDATASIZE ADD AND DUP3 ADD PUSH1 0x40 MSTORE RETURNDATASIZE DUP3 MSTORE RETURNDATASIZE PUSH1 0x0 PUSH1 0x20 DUP5 ADD RETURNDATACOPY PUSH2 0x37FF JUMP JUMPDEST PUSH1 0x60 SWAP2 POP JUMPDEST POP POP SWAP1 POP DUP1 PUSH2 0x3843 JUMPI PUSH1 0x40 MLOAD PUSH3 0x461BCD PUSH1 0xE5 SHL DUP2 MSTORE PUSH1 0x20 PUSH1 0x4 DUP3 ADD MSTORE PUSH1 0x10 PUSH1 0x24 DUP3 ADD MSTORE PUSH16 0x115E1958DD5D1A5BDB8819985A5B1959 PUSH1 0x82 SHL PUSH1 0x44 DUP3 ADD MSTORE PUSH1 0x64 ADD PUSH2 0x172E JUMP JUMPDEST PUSH1 0x40 MLOAD PUSH10 0x12A27D53BC048700000 DUP2 MSTORE CALLER SWAP1 PUSH1 0x0 DUP1 MLOAD PUSH1 0x20 PUSH2 0x5CB1 DUP4 CODECOPY DUP2 MLOAD SWAP2 MSTORE SWAP1 PUSH1 0x20 ADD PUSH1 0x40 MLOAD DUP1 SWAP2 SUB SWAP1 LOG2 PUSH1 0x40 MLOAD PUSH10 0x12A27D53BC048700000 DUP2 MSTORE CALLER SWAP1 ADDRESS SWAP1 PUSH1 0x0 DUP1 MLOAD PUSH1 0x20 PUSH2 0x5CD1 DUP4 CODECOPY DUP2 MLOAD SWAP2 MSTORE SWAP1 PUSH1 0x20 ADD PUSH2 0x2639 JUMP JUMPDEST PUSH2 0x2208 CALLER PUSH12 0x33B2E3C9FD0803CE8000000 PUSH2 0x52E0 JUMP JUMPDEST PUSH2 0x2208 CALLER PUSH10 0x109A12906AFF6100000 PUSH2 0x52E0 JUMP JUMPDEST PUSH2 0x2208 CALLER PUSH10 0x10F0CF064DD592000000 PUSH2 0x52E0 JUMP JUMPDEST PUSH7 0x38D7EA4C68000 CALLVALUE LT ISZERO PUSH2 0x3931 JUMPI PUSH1 0x40 MLOAD PUSH3 0x461BCD PUSH1 0xE5 SHL DUP2 MSTORE PUSH1 0x20 PUSH1 0x4 DUP3 ADD MSTORE PUSH1 0x1F PUSH1 0x24 DUP3 ADD MSTORE PUSH32 0x496E7374616E742070726F63657373696E673A20302E303031204D4154494300 PUSH1 0x44 DUP3 ADD MSTORE PUSH1 0x64 ADD PUSH2 0x172E JUMP JUMPDEST PUSH2 0x393A CALLER PUSH2 0x2158 JUMP JUMPDEST PUSH1 0x0 DUP1 SLOAD PUSH1 0x40 MLOAD PUSH1 0x1 PUSH1 0x1 PUSH1 0xA0 SHL SUB SWAP1 SWAP2 AND SWAP1 CALLVALUE SWAP1 DUP4 DUP2 DUP2 DUP2 DUP6 DUP8 GAS CALL SWAP3 POP POP POP RETURNDATASIZE DUP1 PUSH1 0x0 DUP2 EQ PUSH2 0x3987 JUMPI PUSH1 0x40 MLOAD SWAP2 POP PUSH1 0x1F NOT PUSH1 0x3F RETURNDATASIZE ADD AND DUP3 ADD PUSH1 0x40 MSTORE RETURNDATASIZE DUP3 MSTORE RETURNDATASIZE PUSH1 0x0 PUSH1 0x20 DUP5 ADD RETURNDATACOPY PUSH2 0x398C JUMP JUMPDEST PUSH1 0x60 SWAP2 POP JUMPDEST POP POP SWAP1 POP DUP1 PUSH2 0x39D4 JUMPI PUSH1 0x40 MLOAD PUSH3 0x461BCD PUSH1 0xE5 SHL DUP2 MSTORE PUSH1 0x20 PUSH1 0x4 DUP3 ADD MSTORE PUSH1 0x14 PUSH1 0x24 DUP3 ADD MSTORE PUSH20 0x125B9CDD185B9D0818DB185A5B4819985A5B1959 PUSH1 0x62 SHL PUSH1 0x44 DUP3 ADD MSTORE PUSH1 0x64 ADD PUSH2 0x172E JUMP JUMPDEST PUSH1 0x40 MLOAD PUSH10 0x28A857425466F800000 DUP2 MSTORE CALLER SWAP1 PUSH1 0x0 DUP1 MLOAD PUSH1 0x20 PUSH2 0x5CB1 DUP4 CODECOPY DUP2 MLOAD SWAP2 MSTORE SWAP1 PUSH1 0x20 ADD PUSH1 0x40 MLOAD DUP1 SWAP2 SUB SWAP1 LOG2 PUSH1 0x40 MLOAD PUSH10 0x28A857425466F800000 DUP2 MSTORE CALLER SWAP1 ADDRESS SWAP1 PUSH1 0x0 DUP1 MLOAD PUSH1 0x20 PUSH2 0x5CD1 DUP4 CODECOPY DUP2 MLOAD SWAP2 MSTORE SWAP1 PUSH1 0x20 ADD PUSH2 0x2639 JUMP JUMPDEST PUSH2 0x2208 CALLER PUSH10 0x29AC8CA3FCE98B00000 PUSH2 0x52E0 JUMP JUMPDEST PUSH2 0x2208 CALLER PUSH10 0x21342520D5FEC200000 PUSH2 0x52E0 JUMP JUMPDEST PUSH7 0x38D7EA4C68000 CALLVALUE LT ISZERO PUSH2 0x3AAC JUMPI PUSH1 0x40 MLOAD PUSH3 0x461BCD PUSH1 0xE5 SHL DUP2 MSTORE PUSH1 0x20 PUSH1 0x4 DUP3 ADD MSTORE PUSH1 0x1A PUSH1 0x24 DUP3 ADD MSTORE PUSH32 0x556E7374616B696E67206665653A20302E303031204D41544943000000000000 PUSH1 0x44 DUP3 ADD MSTORE PUSH1 0x64 ADD PUSH2 0x172E JUMP JUMPDEST PUSH2 0x3AB5 CALLER PUSH2 0x2158 JUMP JUMPDEST PUSH1 0x0 DUP1 SLOAD PUSH1 0x40 MLOAD PUSH1 0x1 PUSH1 0x1 PUSH1 0xA0 SHL SUB SWAP1 SWAP2 AND SWAP1 CALLVALUE SWAP1 DUP4 DUP2 DUP2 DUP2 DUP6 DUP8 GAS CALL SWAP3 POP POP POP RETURNDATASIZE DUP1 PUSH1 0x0 DUP2 EQ PUSH2 0x3B02 JUMPI PUSH1 0x40 MLOAD SWAP2 POP PUSH1 0x1F NOT PUSH1 0x3F RETURNDATASIZE ADD AND DUP3 ADD PUSH1 0x40 MSTORE RETURNDATASIZE DUP3 MSTORE RETURNDATASIZE PUSH1 0x0 PUSH1 0x20 DUP5 ADD RETURNDATACOPY PUSH2 0x3B07 JUMP JUMPDEST PUSH1 0x60 SWAP2 POP JUMPDEST POP POP SWAP1 POP DUP1 PUSH2 0x3B4F JUMPI PUSH1 0x40 MLOAD PUSH3 0x461BCD PUSH1 0xE5 SHL DUP2 MSTORE PUSH1 0x20 PUSH1 0x4 DUP3 ADD MSTORE PUSH1 0x14 PUSH1 0x24 DUP3 ADD MSTORE PUSH20 0x14DD185ADA5B99C818DB185A5B4819985A5B1959 PUSH1 0x62 SHL PUSH1 0x44 DUP3 ADD MSTORE PUSH1 0x64 ADD PUSH2 0x172E JUMP JUMPDEST PUSH1 0x40 MLOAD PUSH9 0xF3F20B8DFA69D00000 DUP2 MSTORE CALLER SWAP1 PUSH1 0x0 DUP1 MLOAD PUSH1 0x20 PUSH2 0x5CB1 DUP4 CODECOPY DUP2 MLOAD SWAP2 MSTORE SWAP1 PUSH1 0x20 ADD PUSH1 0x40 MLOAD DUP1 SWAP2 SUB SWAP1 LOG2 PUSH1 0x40 MLOAD PUSH9 0xF3F20B8DFA69D00000 DUP2 MSTORE CALLER SWAP1 ADDRESS SWAP1 PUSH1 0x0 DUP1 MLOAD PUSH1 0x20 PUSH2 0x5CD1 DUP4 CODECOPY DUP2 MLOAD SWAP2 MSTORE SWAP1 PUSH1 0x20 ADD PUSH2 0x2639 JUMP JUMPDEST PUSH2 0x2208 CALLER PUSH9 0xA2A15D09519BE00000 PUSH2 0x52E0 JUMP JUMPDEST PUSH2 0x2208 CALLER PUSH10 0x1D234F9A33F47600000 PUSH2 0x52E0 JUMP JUMPDEST PUSH2 0x2208 CALLER PUSH10 0x1501A48CEFDFDE00000 PUSH2 0x52E0 JUMP JUMPDEST PUSH1 0x0 PUSH1 0x1 PUSH1 0x1 PUSH1 0xA0 SHL SUB DUP3 AND PUSH2 0x3BF9 JUMPI POP PUSH1 0x0 SWAP2 SWAP1 POP JUMP JUMPDEST PUSH1 0x0 SLOAD PUSH1 0x1 PUSH1 0x1 PUSH1 0xA0 SHL SUB SWAP1 DUP2 AND SWAP1 DUP4 AND SUB PUSH2 0x3C21 JUMPI POP PUSH11 0x84595161401484A000000 SWAP2 SWAP1 POP JUMP JUMPDEST PUSH1 0x1 PUSH1 0x1 PUSH1 0xA0 SHL SUB DUP3 AND PUSH1 0x0 SWAP1 DUP2 MSTORE PUSH1 0x5 PUSH1 0x20 MSTORE PUSH1 0x40 SWAP1 KECCAK256 SLOAD ISZERO PUSH2 0x3C4F JUMPI POP PUSH9 0x878678326EAC900000 SWAP2 SWAP1 POP JUMP JUMPDEST POP PUSH9 0x5EDE20F01A45980000 SWAP2 SWAP1 POP JUMP JUMPDEST PUSH2 0x2208 CALLER PUSH10 0x13FD6F2B475D4B00000 PUSH2 0x52E0 JUMP JUMPDEST PUSH2 0x2208 CALLER PUSH10 0x10846372F249D4C00000 PUSH2 0x52E0 JUMP JUMPDEST PUSH2 0x2208 CALLER PUSH10 0x1969368974C05B00000 PUSH2 0x52E0 JUMP JUMPDEST PUSH2 0x2208 CALLER PUSH10 0x1A6D6BEB1D42EE00000 PUSH2 0x52E0 JUMP JUMPDEST PUSH2 0x2208 CALLER PUSH10 0x19127A1391EA2A00000 PUSH2 0x52E0 JUMP JUMPDEST PUSH2 0x2208 CALLER PUSH10 0x34DAD7D63A85DC00000 PUSH2 0x52E0 JUMP JUMPDEST PUSH2 0x2208 CALLER PUSH9 0x71D75AB9B920500000 PUSH2 0x52E0 JUMP JUMPDEST CALLER PUSH1 0x0 SWAP1 DUP2 MSTORE PUSH1 0xA PUSH1 0x20 MSTORE PUSH1 0x40 SWAP1 KECCAK256 SLOAD PUSH1 0x2 GT ISZERO PUSH2 0x3D4A JUMPI PUSH1 0x40 MLOAD PUSH3 0x461BCD PUSH1 0xE5 SHL DUP2 MSTORE PUSH1 0x20 PUSH1 0x4 DUP3 ADD MSTORE PUSH1 0x18 PUSH1 0x24 DUP3 ADD MSTORE PUSH32 0x4D75737420617474656D70742074776963652066697273740000000000000000 PUSH1 0x44 DUP3 ADD MSTORE PUSH1 0x64 ADD PUSH2 0x172E JUMP JUMPDEST PUSH2 0x2208 CALLER PUSH10 0x43C33C1937564800000 PUSH2 0x5452 JUMP JUMPDEST PUSH2 0x3D6B PUSH3 0xF4240 TIMESTAMP PUSH2 0x5C78 JUMP JUMPDEST DUP5 GT PUSH2 0x3DAA JUMPI PUSH1 0x40 MLOAD PUSH3 0x461BCD PUSH1 0xE5 SHL DUP2 MSTORE PUSH1 0x20 PUSH1 0x4 DUP3 ADD MSTORE PUSH1 0xE PUSH1 0x24 DUP3 ADD MSTORE PUSH14 0x496E76616C696420706172616D31 PUSH1 0x90 SHL PUSH1 0x44 DUP3 ADD MSTORE PUSH1 0x64 ADD PUSH2 0x172E JUMP JUMPDEST DUP3 PUSH2 0x3DE8 JUMPI PUSH1 0x40 MLOAD PUSH3 0x461BCD PUSH1 0xE5 SHL DUP2 MSTORE PUSH1 0x20 PUSH1 0x4 DUP3 ADD MSTORE PUSH1 0xE PUSH1 0x24 DUP3 ADD MSTORE PUSH14 0x24B73B30B634B2103830B930B699 PUSH1 0x91 SHL PUSH1 0x44 DUP3 ADD MSTORE PUSH1 0x64 ADD PUSH2 0x172E JUMP JUMPDEST PUSH1 0x1 PUSH1 0x1 PUSH1 0xA0 SHL SUB DUP3 AND PUSH2 0x3E2F JUMPI PUSH1 0x40 MLOAD PUSH3 0x461BCD PUSH1 0xE5 SHL DUP2 MSTORE PUSH1 0x20 PUSH1 0x4 DUP3 ADD MSTORE PUSH1 0xE PUSH1 0x24 DUP3 ADD MSTORE PUSH14 0x496E76616C696420706172616D33 PUSH1 0x90 SHL PUSH1 0x44 DUP3 ADD MSTORE PUSH1 0x64 ADD PUSH2 0x172E JUMP JUMPDEST PUSH1 0x20 DUP2 MLOAD LT ISZERO PUSH2 0x3E70 JUMPI PUSH1 0x40 MLOAD PUSH3 0x461BCD PUSH1 0xE5 SHL DUP2 MSTORE PUSH1 0x20 PUSH1 0x4 DUP3 ADD MSTORE PUSH1 0xC PUSH1 0x24 DUP3 ADD MSTORE PUSH12 0x496E76616C69642064617461 PUSH1 0xA0 SHL PUSH1 0x44 DUP3 ADD MSTORE PUSH1 0x64 ADD PUSH2 0x172E JUMP JUMPDEST PUSH2 0x3E84 CALLER PUSH10 0x2A5A058FC295ED000000 PUSH2 0x5497 JUMP JUMPDEST POP POP POP POP JUMP JUMPDEST PUSH2 0x2208 CALLER PUSH9 0x2B5E3AF16B18800000 PUSH2 0x52E0 JUMP JUMPDEST PUSH7 0x38D7EA4C68000 CALLVALUE LT ISZERO PUSH2 0x3EF4 JUMPI PUSH1 0x40 MLOAD PUSH3 0x461BCD PUSH1 0xE5 SHL DUP2 MSTORE PUSH1 0x20 PUSH1 0x4 DUP3 ADD MSTORE PUSH1 0x1B PUSH1 0x24 DUP3 ADD MSTORE PUSH32 0x526564656D7074696F6E206665653A20302E303031204D415449430000000000 PUSH1 0x44 DUP3 ADD MSTORE PUSH1 0x64 ADD PUSH2 0x172E JUMP JUMPDEST PUSH2 0x3EFD CALLER PUSH2 0x2158 JUMP JUMPDEST PUSH1 0x0 DUP1 SLOAD PUSH1 0x40 MLOAD PUSH1 0x1 PUSH1 0x1 PUSH1 0xA0 SHL SUB SWAP1 SWAP2 AND SWAP1 CALLVALUE SWAP1 DUP4 DUP2 DUP2 DUP2 DUP6 DUP8 GAS CALL SWAP3 POP POP POP RETURNDATASIZE DUP1 PUSH1 0x0 DUP2 EQ PUSH2 0x3F4A JUMPI PUSH1 0x40 MLOAD SWAP2 POP PUSH1 0x1F NOT PUSH1 0x3F RETURNDATASIZE ADD AND DUP3 ADD PUSH1 0x40 MSTORE RETURNDATASIZE DUP3 MSTORE RETURNDATASIZE PUSH1 0x0 PUSH1 0x20 DUP5 ADD RETURNDATACOPY PUSH2 0x3F4F JUMP JUMPDEST PUSH1 0x60 SWAP2 POP JUMPDEST POP POP SWAP1 POP DUP1 PUSH2 0x3FA0 JUMPI PUSH1 0x40 MLOAD PUSH3 0x461BCD PUSH1 0xE5 SHL DUP2 MSTORE PUSH1 0x20 PUSH1 0x4 DUP3 ADD MSTORE PUSH1 0x19 PUSH1 0x24 DUP3 ADD MSTORE PUSH32 0x566F756368657220726564656D7074696F6E206661696C656400000000000000 PUSH1 0x44 DUP3 ADD MSTORE PUSH1 0x64 ADD PUSH2 0x172E JUMP JUMPDEST PUSH1 0x40 MLOAD PUSH10 0x14542BA12A337C00000 DUP2 MSTORE CALLER SWAP1 PUSH1 0x0 DUP1 MLOAD PUSH1 0x20 PUSH2 0x5CB1 DUP4 CODECOPY DUP2 MLOAD SWAP2 MSTORE SWAP1 PUSH1 0x20 ADD PUSH1 0x40 MLOAD DUP1 SWAP2 SUB SWAP1 LOG2 PUSH1 0x40 MLOAD PUSH10 0x14542BA12A337C00000 DUP2 MSTORE CALLER SWAP1 ADDRESS SWAP1 PUSH1 0x0 DUP1 MLOAD PUSH1 0x20 PUSH2 0x5CD1 DUP4 CODECOPY DUP2 MLOAD SWAP2 MSTORE SWAP1 PUSH1 0x20 ADD PUSH2 0x2639 JUMP JUMPDEST PUSH2 0x2208 CALLER PUSH10 0xA968163F0A57B400000 PUSH2 0x52E0 JUMP JUMPDEST PUSH2 0x2208 CALLER PUSH10 0x405FDF7E5AF85E00000 PUSH2 0x52E0 JUMP JUMPDEST PUSH2 0x2208 CALLER PUSH10 0x1A16AF753A6CBD00000 PUSH2 0x52E0 JUMP JUMPDEST PUSH2 0x2208 CALLER PUSH10 0x11F50467F6582500000 PUSH2 0x52E0 JUMP JUMPDEST PUSH2 0x2208 CALLER PUSH10 0x137B547A731C01800000 PUSH2 0x52E0 JUMP JUMPDEST PUSH2 0x2208 CALLER PUSH9 0xF95DD2EC27CCE00000 PUSH2 0x52E0 JUMP JUMPDEST PUSH2 0x2208 CALLER PUSH10 0x80BFBEFCB5F0BC00000 PUSH2 0x52E0 JUMP JUMPDEST DUP1 PUSH1 0x0 JUMPDEST DUP4 MLOAD DUP2 LT ISZERO PUSH2 0x411C JUMPI PUSH1 0x0 DUP5 DUP3 DUP2 MLOAD DUP2 LT PUSH2 0x40A5 JUMPI PUSH2 0x40A5 PUSH2 0x5C9A JUMP JUMPDEST PUSH1 0x20 MUL PUSH1 0x20 ADD ADD MLOAD SWAP1 POP DUP1 DUP4 GT ISZERO PUSH2 0x40E6 JUMPI PUSH1 0x40 DUP1 MLOAD PUSH1 0x20 DUP2 ADD DUP4 SWAP1 MSTORE SWAP1 DUP2 ADD DUP5 SWAP1 MSTORE PUSH1 0x60 ADD PUSH1 0x40 MLOAD PUSH1 0x20 DUP2 DUP4 SUB SUB DUP2 MSTORE SWAP1 PUSH1 0x40 MSTORE DUP1 MLOAD SWAP1 PUSH1 0x20 ADD KECCAK256 PUSH2 0x4111 JUMP JUMPDEST PUSH1 0x40 DUP1 MLOAD PUSH1 0x20 DUP2 ADD DUP6 SWAP1 MSTORE SWAP1 DUP2 ADD DUP3 SWAP1 MSTORE PUSH1 0x60 ADD PUSH1 0x40 MLOAD PUSH1 0x20 DUP2 DUP4 SUB SUB DUP2 MSTORE SWAP1 PUSH1 0x40 MSTORE DUP1 MLOAD SWAP1 PUSH1 0x20 ADD KECCAK256 JUMPDEST SWAP3 POP POP PUSH1 0x1 ADD PUSH2 0x4088 JUMP JUMPDEST POP DUP1 PUSH2 0x415A JUMPI PUSH1 0x40 MLOAD PUSH3 0x461BCD PUSH1 0xE5 SHL DUP2 MSTORE PUSH1 0x20 PUSH1 0x4 DUP3 ADD MSTORE PUSH1 0xD PUSH1 0x24 DUP3 ADD MSTORE PUSH13 0x24B73B30B634B210383937B7B3 PUSH1 0x99 SHL PUSH1 0x44 DUP3 ADD MSTORE PUSH1 0x64 ADD PUSH2 0x172E JUMP JUMPDEST PUSH2 0x416E CALLER PUSH10 0xFE1C215E8F838E00000 PUSH2 0x5469 JUMP JUMPDEST POP POP POP JUMP JUMPDEST PUSH2 0x2208 CALLER PUSH9 0x410D586A20A4C00000 PUSH2 0x52E0 JUMP JUMPDEST PUSH2 0x2208 CALLER PUSH9 0xF3F20B8DFA69D00000 PUSH2 0x52E0 JUMP JUMPDEST PUSH2 0x2208 CALLER PUSH10 0x26F6A8F4E6380300000 PUSH2 0x52E0 JUMP JUMPDEST PUSH2 0x286C CALLER DUP3 PUSH2 0x5480 JUMP JUMPDEST PUSH2 0x2208 CALLER PUSH10 0x3635C9ADC5DEA000000 PUSH2 0x52E0 JUMP JUMPDEST PUSH2 0x2208 CALLER PUSH10 0x218AE196B8D4F300000 PUSH2 0x52E0 JUMP JUMPDEST PUSH2 0x2208 CALLER PUSH9 0xFEC99A4A552FF00000 PUSH2 0x52E0 JUMP JUMPDEST PUSH1 0x2 DUP1 SLOAD PUSH2 0x2286 SWAP1 PUSH2 0x5C2B JUMP JUMPDEST PUSH2 0x2208 CALLER PUSH10 0x14542BA12A337C00000 PUSH2 0x52E0 JUMP JUMPDEST PUSH2 0x2208 CALLER PUSH10 0xC482FB15ED470400000 PUSH2 0x52E0 JUMP JUMPDEST PUSH2 0x2208 CALLER PUSH11 0x1A784379D99DB42000000 PUSH2 0x52E0 JUMP JUMPDEST PUSH1 0x0 PUSH7 0x38D7EA4C68000 CALLVALUE LT ISZERO PUSH2 0x42AD JUMPI PUSH1 0x40 MLOAD PUSH3 0x461BCD PUSH1 0xE5 SHL DUP2 MSTORE PUSH1 0x20 PUSH1 0x4 DUP3 ADD MSTORE PUSH1 0x2F PUSH1 0x24 DUP3 ADD MSTORE PUSH32 0x5175616C696669636174696F6E206665652072657175697265643A20302E3030 PUSH1 0x44 DUP3 ADD MSTORE PUSH15 0x31204D41544943206D696E696D756D PUSH1 0x88 SHL PUSH1 0x64 DUP3 ADD MSTORE PUSH1 0x84 ADD PUSH2 0x172E JUMP JUMPDEST PUSH2 0x42B6 CALLER PUSH2 0x2158 JUMP JUMPDEST PUSH1 0x0 DUP1 SLOAD PUSH1 0x40 MLOAD PUSH1 0x1 PUSH1 0x1 PUSH1 0xA0 SHL SUB SWAP1 SWAP2 AND SWAP1 CALLVALUE SWAP1 DUP4 DUP2 DUP2 DUP2 DUP6 DUP8 GAS CALL SWAP3 POP POP POP RETURNDATASIZE DUP1 PUSH1 0x0 DUP2 EQ PUSH2 0x4303 JUMPI PUSH1 0x40 MLOAD SWAP2 POP PUSH1 0x1F NOT PUSH1 0x3F RETURNDATASIZE ADD AND DUP3 ADD PUSH1 0x40 MSTORE RETURNDATASIZE DUP3 MSTORE RETURNDATASIZE PUSH1 0x0 PUSH1 0x20 DUP5 ADD RETURNDATACOPY PUSH2 0x4308 JUMP JUMPDEST PUSH1 0x60 SWAP2 POP JUMPDEST POP POP SWAP1 POP DUP1 PUSH2 0x4359 JUMPI PUSH1 0x40 MLOAD PUSH3 0x461BCD PUSH1 0xE5 SHL DUP2 MSTORE PUSH1 0x20 PUSH1 0x4 DUP3 ADD MSTORE PUSH1 0x19 PUSH1 0x24 DUP3 ADD MSTORE PUSH32 0x5061796D656E742070726F63657373696E67206661696C656400000000000000 PUSH1 0x44 DUP3 ADD MSTORE PUSH1 0x64 ADD PUSH2 0x172E JUMP JUMPDEST PUSH1 0x0 PUSH2 0x436F PUSH2 0x3E8 PUSH8 0xDE0B6B3A7640000 PUSH2 0x574A JUMP JUMPDEST PUSH1 0x40 MLOAD DUP2 DUP2 MSTORE SWAP1 SWAP2 POP CALLER SWAP1 PUSH1 0x0 DUP1 MLOAD PUSH1 0x20 PUSH2 0x5CB1 DUP4 CODECOPY DUP2 MLOAD SWAP2 MSTORE SWAP1 PUSH1 0x20 ADD PUSH1 0x40 MLOAD DUP1 SWAP2 SUB SWAP1 LOG2 PUSH1 0x40 MLOAD DUP2 DUP2 MSTORE CALLER SWAP1 ADDRESS SWAP1 PUSH1 0x0 DUP1 MLOAD PUSH1 0x20 PUSH2 0x5CD1 DUP4 CODECOPY DUP2 MLOAD SWAP2 MSTORE SWAP1 PUSH1 0x20 ADD PUSH1 0x40 MLOAD DUP1 SWAP2 SUB SWAP1 LOG3 PUSH1 0x40 MLOAD TIMESTAMP DUP2 MSTORE CALLER SWAP1 PUSH32 0xA6B53EC2DED38BC9ED1B375A80BE763647BB89A0B9AA76B767D3F9918A7946D7 SWAP1 PUSH1 0x20 ADD PUSH1 0x40 MLOAD DUP1 SWAP2 SUB SWAP1 LOG2 PUSH1 0x1 SWAP3 POP POP POP SWAP1 JUMP JUMPDEST PUSH2 0x2208 CALLER PUSH10 0x15586102D2B60F00000 PUSH2 0x52E0 JUMP JUMPDEST PUSH2 0x2208 CALLER PUSH10 0xBE951906EBA2AA800000 PUSH2 0x52E0 JUMP JUMPDEST PUSH1 0x0 PUSH2 0x442B CALLER PUSH2 0x2158 JUMP JUMPDEST PUSH1 0x40 MLOAD DUP3 DUP2 MSTORE PUSH1 0x1 PUSH1 0x1 PUSH1 0xA0 SHL SUB DUP5 AND SWAP1 CALLER SWAP1 PUSH1 0x0 DUP1 MLOAD PUSH1 0x20 PUSH2 0x5CD1 DUP4 CODECOPY DUP2 MLOAD SWAP2 MSTORE SWAP1 PUSH1 0x20 ADD PUSH2 0x236D JUMP JUMPDEST PUSH1 0x40 MLOAD PUSH12 0xFFFFFFFFFFFFFFFFFFFFFFFF NOT CALLER PUSH1 0x60 SHL AND PUSH1 0x20 DUP3 ADD MSTORE PUSH1 0x34 DUP2 ADD DUP4 SWAP1 MSTORE DUP2 SWAP1 PUSH1 0x54 ADD PUSH1 0x40 MLOAD PUSH1 0x20 DUP2 DUP4 SUB SUB DUP2 MSTORE SWAP1 PUSH1 0x40 MSTORE DUP1 MLOAD SWAP1 PUSH1 0x20 ADD KECCAK256 EQ PUSH2 0x44D3 JUMPI PUSH1 0x40 MLOAD PUSH3 0x461BCD PUSH1 0xE5 SHL DUP2 MSTORE PUSH1 0x20 PUSH1 0x4 DUP3 ADD MSTORE PUSH1 0x10 PUSH1 0x24 DUP3 ADD MSTORE PUSH16 0x10DA185B1B195B99D94819985A5B1959 PUSH1 0x82 SHL PUSH1 0x44 DUP3 ADD MSTORE PUSH1 0x64 ADD PUSH2 0x172E JUMP JUMPDEST PUSH2 0x44E7 CALLER PUSH10 0x152D02C7E14AF6800000 PUSH2 0x5469 JUMP JUMPDEST POP POP JUMP JUMPDEST PUSH2 0x2208 CALLER PUSH10 0x9ED194DB19B238C00000 PUSH2 0x52E0 JUMP JUMPDEST PUSH2 0x2208 CALLER PUSH10 0x2F1854022A4C9B00000 PUSH2 0x52E0 JUMP JUMPDEST PUSH2 0x286C CALLER PUSH2 0x4524 PUSH3 0x186A0 DUP5 PUSH2 0x5C78 JUMP JUMPDEST PUSH2 0x4536 SWAP1 PUSH8 0xDE0B6B3A7640000 PUSH2 0x574A JUMP JUMPDEST PUSH2 0x5480 JUMP JUMPDEST PUSH2 0x2208 CALLER PUSH10 0x1B1AE4D6E2EF5000000 PUSH2 0x52E0 JUMP JUMPDEST PUSH2 0x2208 CALLER PUSH9 0xC893D09C8F51500000 PUSH2 0x52E0 JUMP JUMPDEST PUSH2 0x2208 CALLER PUSH11 0x84595161401484A000000 PUSH2 0x52E0 JUMP JUMPDEST PUSH2 0x2208 CALLER PUSH10 0x2B5E3AF16B188000000 PUSH2 0x52E0 JUMP JUMPDEST PUSH2 0x2208 CALLER PUSH9 0xB2E4B323D9C5100000 PUSH2 0x52E0 JUMP JUMPDEST PUSH3 0xF4240 TIMESTAMP GT PUSH2 0x45E4 JUMPI PUSH1 0x40 MLOAD PUSH3 0x461BCD PUSH1 0xE5 SHL DUP2 MSTORE PUSH1 0x20 PUSH1 0x4 DUP3 ADD MSTORE PUSH1 0x11 PUSH1 0x24 DUP3 ADD MSTORE PUSH17 0x496E76616C69642074696D657374616D7 PUSH1 0x7C SHL PUSH1 0x44 DUP3 ADD MSTORE PUSH1 0x64 ADD PUSH2 0x172E JUMP JUMPDEST PUSH2 0x2208 CALLER PUSH10 0x1B1AE4D6E2EF5000000 PUSH2 0x5480 JUMP JUMPDEST PUSH7 0x38D7EA4C68000 CALLVALUE LT ISZERO PUSH2 0x4660 JUMPI PUSH1 0x40 MLOAD PUSH3 0x461BCD PUSH1 0xE5 SHL DUP2 MSTORE PUSH1 0x20 PUSH1 0x4 DUP3 ADD MSTORE PUSH1 0x28 PUSH1 0x24 DUP3 ADD MSTORE PUSH32 0x436F6D6D756E6974792070617274696369706174696F6E206665653A20302E30 PUSH1 0x44 DUP3 ADD MSTORE PUSH8 0x3031204D41544943 PUSH1 0xC0 SHL PUSH1 0x64 DUP3 ADD MSTORE PUSH1 0x84 ADD PUSH2 0x172E JUMP JUMPDEST PUSH2 0x4669 CALLER PUSH2 0x2158 JUMP JUMPDEST PUSH1 0x0 DUP1 SLOAD PUSH1 0x40 MLOAD PUSH1 0x1 PUSH1 0x1 PUSH1 0xA0 SHL SUB SWAP1 SWAP2 AND SWAP1 CALLVALUE SWAP1 DUP4 DUP2 DUP2 DUP2 DUP6 DUP8 GAS CALL SWAP3 POP POP POP RETURNDATASIZE DUP1 PUSH1 0x0 DUP2 EQ PUSH2 0x46B6 JUMPI PUSH1 0x40 MLOAD SWAP2 POP PUSH1 0x1F NOT PUSH1 0x3F RETURNDATASIZE ADD AND DUP3 ADD PUSH1 0x40 MSTORE RETURNDATASIZE DUP3 MSTORE RETURNDATASIZE PUSH1 0x0 PUSH1 0x20 DUP5 ADD RETURNDATACOPY PUSH2 0x46BB JUMP JUMPDEST PUSH1 0x60 SWAP2 POP JUMPDEST POP POP SWAP1 POP DUP1 PUSH2 0x470C JUMPI PUSH1 0x40 MLOAD PUSH3 0x461BCD PUSH1 0xE5 SHL DUP2 MSTORE PUSH1 0x20 PUSH1 0x4 DUP3 ADD MSTORE PUSH1 0x18 PUSH1 0x24 DUP3 ADD MSTORE PUSH32 0x5265776172642070726F63657373696E67206661696C65640000000000000000 PUSH1 0x44 DUP3 ADD MSTORE PUSH1 0x64 ADD PUSH2 0x172E JUMP JUMPDEST PUSH1 0x40 MLOAD PUSH9 0x5150AE84A8CDF00000 DUP2 MSTORE CALLER SWAP1 PUSH1 0x0 DUP1 MLOAD PUSH1 0x20 PUSH2 0x5CB1 DUP4 CODECOPY DUP2 MLOAD SWAP2 MSTORE SWAP1 PUSH1 0x20 ADD PUSH1 0x40 MLOAD DUP1 SWAP2 SUB SWAP1 LOG2 PUSH1 0x40 MLOAD PUSH9 0x5150AE84A8CDF00000 DUP2 MSTORE CALLER SWAP1 ADDRESS SWAP1 PUSH1 0x0 DUP1 MLOAD PUSH1 0x20 PUSH2 0x5CD1 DUP4 CODECOPY DUP2 MLOAD SWAP2 MSTORE SWAP1 PUSH1 0x20 ADD PUSH2 0x2639 JUMP JUMPDEST PUSH2 0x2208 CALLER PUSH9 0xDE42EE1544DD900000 PUSH2 0x52E0 JUMP JUMPDEST PUSH2 0x2208 CALLER PUSH10 0x2544FAA778090E00000 PUSH2 0x52E0 JUMP JUMPDEST PUSH7 0x38D7EA4C68000 CALLVALUE LT ISZERO PUSH2 0x47E1 JUMPI PUSH1 0x40 MLOAD PUSH3 0x461BCD PUSH1 0xE5 SHL DUP2 MSTORE PUSH1 0x20 PUSH1 0x4 DUP3 ADD MSTORE PUSH1 0x1B PUSH1 0x24 DUP3 ADD MSTORE PUSH32 0x4175746F2D636C61696D206665653A20302E303031204D415449430000000000 PUSH1 0x44 DUP3 ADD MSTORE PUSH1 0x64 ADD PUSH2 0x172E JUMP JUMPDEST PUSH2 0x47EA CALLER PUSH2 0x2158 JUMP JUMPDEST PUSH1 0x0 DUP1 SLOAD PUSH1 0x40 MLOAD PUSH1 0x1 PUSH1 0x1 PUSH1 0xA0 SHL SUB SWAP1 SWAP2 AND SWAP1 CALLVALUE SWAP1 DUP4 DUP2 DUP2 DUP2 DUP6 DUP8 GAS CALL SWAP3 POP POP POP RETURNDATASIZE DUP1 PUSH1 0x0 DUP2 EQ PUSH2 0x4837 JUMPI PUSH1 0x40 MLOAD SWAP2 POP PUSH1 0x1F NOT PUSH1 0x3F RETURNDATASIZE ADD AND DUP3 ADD PUSH1 0x40 MSTORE RETURNDATASIZE DUP3 MSTORE RETURNDATASIZE PUSH1 0x0 PUSH1 0x20 DUP5 ADD RETURNDATACOPY PUSH2 0x483C JUMP JUMPDEST PUSH1 0x60 SWAP2 POP JUMPDEST POP POP SWAP1 POP DUP1 PUSH2 0x4881 JUMPI PUSH1 0x40 MLOAD PUSH3 0x461BCD PUSH1 0xE5 SHL DUP2 MSTORE PUSH1 0x20 PUSH1 0x4 DUP3 ADD MSTORE PUSH1 0x11 PUSH1 0x24 DUP3 ADD MSTORE PUSH17 0x105D5D1BC818DB185A5B4819985A5B1959 PUSH1 0x7A SHL PUSH1 0x44 DUP3 ADD MSTORE PUSH1 0x64 ADD PUSH2 0x172E JUMP JUMPDEST PUSH1 0x40 MLOAD PUSH10 0x2544FAA778090E00000 DUP2 MSTORE CALLER SWAP1 PUSH1 0x0 DUP1 MLOAD PUSH1 0x20 PUSH2 0x5CB1 DUP4 CODECOPY DUP2 MLOAD SWAP2 MSTORE SWAP1 PUSH1 0x20 ADD PUSH1 0x40 MLOAD DUP1 SWAP2 SUB SWAP1 LOG2 PUSH1 0x40 MLOAD PUSH10 0x2544FAA778090E00000 DUP2 MSTORE CALLER SWAP1 ADDRESS SWAP1 PUSH1 0x0 DUP1 MLOAD PUSH1 0x20 PUSH2 0x5CD1 DUP4 CODECOPY DUP2 MLOAD SWAP2 MSTORE SWAP1 PUSH1 0x20 ADD PUSH2 0x2639 JUMP JUMPDEST PUSH2 0x2208 CALLER PUSH10 0x16B352DA5E0ED300000 PUSH2 0x52E0 JUMP JUMPDEST PUSH2 0x2208 CALLER PUSH10 0x130EE8E7179044400000 PUSH2 0x52E0 JUMP JUMPDEST PUSH2 0x2208 CALLER PUSH9 0xC328093E61EE400000 PUSH2 0x52E0 JUMP JUMPDEST PUSH2 0x2208 CALLER PUSH10 0x2F6F10780D22CC00000 PUSH2 0x52E0 JUMP JUMPDEST PUSH2 0x2208 CALLER PUSH10 0x4C3BA39C5E411100000 PUSH2 0x52E0 JUMP JUMPDEST PUSH7 0x38D7EA4C68000 CALLVALUE LT ISZERO PUSH2 0x4994 JUMPI PUSH1 0x40 MLOAD PUSH3 0x461BCD PUSH1 0xE5 SHL DUP2 MSTORE PUSH1 0x20 PUSH1 0x4 DUP3 ADD MSTORE PUSH1 0x1B PUSH1 0x24 DUP3 ADD MSTORE PUSH32 0x5072656D69756D206163636573733A20302E303031204D415449430000000000 PUSH1 0x44 DUP3 ADD MSTORE PUSH1 0x64 ADD PUSH2 0x172E JUMP JUMPDEST PUSH2 0x499D CALLER PUSH2 0x2158 JUMP JUMPDEST PUSH1 0x0 DUP1 SLOAD PUSH1 0x40 MLOAD PUSH1 0x1 PUSH1 0x1 PUSH1 0xA0 SHL SUB SWAP1 SWAP2 AND SWAP1 CALLVALUE SWAP1 DUP4 DUP2 DUP2 DUP2 DUP6 DUP8 GAS CALL SWAP3 POP POP POP RETURNDATASIZE DUP1 PUSH1 0x0 DUP2 EQ PUSH2 0x49EA JUMPI PUSH1 0x40 MLOAD SWAP2 POP PUSH1 0x1F NOT PUSH1 0x3F RETURNDATASIZE ADD AND DUP3 ADD PUSH1 0x40 MSTORE RETURNDATASIZE DUP3 MSTORE RETURNDATASIZE PUSH1 0x0 PUSH1 0x20 DUP5 ADD RETURNDATACOPY PUSH2 0x49EF JUMP JUMPDEST PUSH1 0x60 SWAP2 POP JUMPDEST POP POP SWAP1 POP DUP1 PUSH2 0x4A37 JUMPI PUSH1 0x40 MLOAD PUSH3 0x461BCD PUSH1 0xE5 SHL DUP2 MSTORE PUSH1 0x20 PUSH1 0x4 DUP3 ADD MSTORE PUSH1 0x14 PUSH1 0x24 DUP3 ADD MSTORE PUSH20 0x141C995B5A5D5B4818DB185A5B4819985A5B1959 PUSH1 0x62 SHL PUSH1 0x44 DUP3 ADD MSTORE PUSH1 0x64 ADD PUSH2 0x172E JUMP JUMPDEST PUSH1 0x40 MLOAD PUSH10 0x43C33C1937564800000 DUP2 MSTORE CALLER SWAP1 PUSH1 0x0 DUP1 MLOAD PUSH1 0x20 PUSH2 0x5CB1 DUP4 CODECOPY DUP2 MLOAD SWAP2 MSTORE SWAP1 PUSH1 0x20 ADD PUSH1 0x40 MLOAD DUP1 SWAP2 SUB SWAP1 LOG2 PUSH1 0x40 MLOAD PUSH10 0x43C33C1937564800000 DUP2 MSTORE CALLER SWAP1 ADDRESS SWAP1 PUSH1 0x0 DUP1 MLOAD PUSH1 0x20 PUSH2 0x5CD1 DUP4 CODECOPY DUP2 MLOAD SWAP2 MSTORE SWAP1 PUSH1 0x20 ADD PUSH2 0x2639 JUMP JUMPDEST PUSH2 0x2208 CALLER PUSH10 0x1B71A14CC5C58100000 PUSH2 0x52E0 JUMP JUMPDEST PUSH2 0x2208 CALLER PUSH10 0x1D7A0C1016CAA700000 PUSH2 0x52E0 JUMP JUMPDEST PUSH2 0x2208 CALLER PUSH10 0x4315C32D71A9E600000 PUSH2 0x52E0 JUMP JUMPDEST PUSH2 0x2208 CALLER PUSH10 0x1BC85DC2A89BB200000 PUSH2 0x52E0 JUMP JUMPDEST PUSH2 0x2208 CALLER PUSH10 0x3A469F3467E8EC00000 PUSH2 0x52E0 JUMP JUMPDEST PUSH2 0x2208 CALLER PUSH10 0x174B1CA8AB05A8C00000 PUSH2 0x52E0 JUMP JUMPDEST PUSH2 0x2208 CALLER PUSH10 0x19BFF2FF57968C00000 PUSH2 0x52E0 JUMP JUMPDEST PUSH2 0x2208 CALLER PUSH10 0xCB49B44BA602D800000 PUSH2 0x52E0 JUMP JUMPDEST TIMESTAMP DUP2 GT PUSH2 0x4B71 JUMPI PUSH1 0x40 MLOAD PUSH3 0x461BCD PUSH1 0xE5 SHL DUP2 MSTORE PUSH1 0x20 PUSH1 0x4 DUP3 ADD MSTORE PUSH1 0xF PUSH1 0x24 DUP3 ADD MSTORE PUSH15 0x111958591B1A5B99481C185CDCD959 PUSH1 0x8A SHL PUSH1 0x44 DUP3 ADD MSTORE PUSH1 0x64 ADD PUSH2 0x172E JUMP JUMPDEST DUP4 MLOAD PUSH1 0x41 EQ PUSH2 0x4BB6 JUMPI PUSH1 0x40 MLOAD PUSH3 0x461BCD PUSH1 0xE5 SHL DUP2 MSTORE PUSH1 0x20 PUSH1 0x4 DUP3 ADD MSTORE PUSH1 0x11 PUSH1 0x24 DUP3 ADD MSTORE PUSH17 0x496E76616C6964207369676E6174757265 PUSH1 0x78 SHL PUSH1 0x44 DUP3 ADD MSTORE PUSH1 0x64 ADD PUSH2 0x172E JUMP JUMPDEST PUSH1 0x5 DUP4 MLOAD LT ISZERO PUSH2 0x4BFE JUMPI PUSH1 0x40 MLOAD PUSH3 0x461BCD PUSH1 0xE5 SHL DUP2 MSTORE PUSH1 0x20 PUSH1 0x4 DUP3 ADD MSTORE PUSH1 0x13 PUSH1 0x24 DUP3 ADD MSTORE PUSH19 0x496E73756666696369656E742076616C756573 PUSH1 0x68 SHL PUSH1 0x44 DUP3 ADD MSTORE PUSH1 0x64 ADD PUSH2 0x172E JUMP JUMPDEST DUP2 PUSH2 0x4C41 JUMPI PUSH1 0x40 MLOAD PUSH3 0x461BCD PUSH1 0xE5 SHL DUP2 MSTORE PUSH1 0x20 PUSH1 0x4 DUP3 ADD MSTORE PUSH1 0x13 PUSH1 0x24 DUP3 ADD MSTORE PUSH19 0x125B9D985B1A59081B595C9ADB19481C9BDBDD PUSH1 0x6A SHL PUSH1 0x44 DUP3 ADD MSTORE PUSH1 0x64 ADD PUSH2 0x172E JUMP JUMPDEST PUSH1 0x0 DUP1 JUMPDEST DUP5 MLOAD DUP2 LT ISZERO PUSH2 0x4C7D JUMPI DUP5 DUP2 DUP2 MLOAD DUP2 LT PUSH2 0x4C60 JUMPI PUSH2 0x4C60 PUSH2 0x5C9A JUMP JUMPDEST PUSH1 0x20 MUL PUSH1 0x20 ADD ADD MLOAD DUP3 PUSH2 0x4C73 SWAP2 SWAP1 PUSH2 0x5C65 JUMP JUMPDEST SWAP2 POP PUSH1 0x1 ADD PUSH2 0x4C45 JUMP JUMPDEST POP PUSH2 0x4C89 PUSH1 0x7 DUP3 PUSH2 0x5C78 JUMP JUMPDEST ISZERO PUSH2 0x4CCE JUMPI PUSH1 0x40 MLOAD PUSH3 0x461BCD PUSH1 0xE5 SHL DUP2 MSTORE PUSH1 0x20 PUSH1 0x4 DUP3 ADD MSTORE PUSH1 0x15 PUSH1 0x24 DUP3 ADD MSTORE PUSH21 0x14DD5B481D985B1A59185D1A5BDB8819985A5B1959 PUSH1 0x5A SHL PUSH1 0x44 DUP3 ADD MSTORE PUSH1 0x64 ADD PUSH2 0x172E JUMP JUMPDEST PUSH2 0x4CE2 CALLER PUSH10 0x69E10DE76676D0800000 PUSH2 0x5497 JUMP JUMPDEST POP POP POP POP POP JUMP JUMPDEST PUSH7 0x38D7EA4C68000 CALLVALUE LT ISZERO PUSH2 0x4D40 JUMPI PUSH1 0x40 MLOAD PUSH3 0x461BCD PUSH1 0xE5 SHL DUP2 MSTORE PUSH1 0x20 PUSH1 0x4 DUP3 ADD MSTORE PUSH1 0x1B PUSH1 0x24 DUP3 ADD MSTORE PUSH32 0x436F6C6C656374696F6E206665653A20302E303031204D415449430000000000 PUSH1 0x44 DUP3 ADD MSTORE PUSH1 0x64 ADD PUSH2 0x172E JUMP JUMPDEST PUSH2 0x4D49 CALLER PUSH2 0x2158 JUMP JUMPDEST PUSH1 0x0 DUP1 SLOAD PUSH1 0x40 MLOAD PUSH1 0x1 PUSH1 0x1 PUSH1 0xA0 SHL SUB SWAP1 SWAP2 AND SWAP1 CALLVALUE SWAP1 DUP4 DUP2 DUP2 DUP2 DUP6 DUP8 GAS CALL SWAP3 POP POP POP RETURNDATASIZE DUP1 PUSH1 0x0 DUP2 EQ PUSH2 0x4D96 JUMPI PUSH1 0x40 MLOAD SWAP2 POP PUSH1 0x1F NOT PUSH1 0x3F RETURNDATASIZE ADD AND DUP3 ADD PUSH1 0x40 MSTORE RETURNDATASIZE DUP3 MSTORE RETURNDATASIZE PUSH1 0x0 PUSH1 0x20 DUP5 ADD RETURNDATACOPY PUSH2 0x4D9B JUMP JUMPDEST PUSH1 0x60 SWAP2 POP JUMPDEST POP POP SWAP1 POP DUP1 PUSH2 0x4DE0 JUMPI PUSH1 0x40 MLOAD PUSH3 0x461BCD PUSH1 0xE5 SHL DUP2 MSTORE PUSH1 0x20 PUSH1 0x4 DUP3 ADD MSTORE PUSH1 0x11 PUSH1 0x24 DUP3 ADD MSTORE PUSH17 0x10DBDB1B1958DD1A5BDB8819985A5B1959 PUSH1 0x7A SHL PUSH1 0x44 DUP3 ADD MSTORE PUSH1 0x64 ADD PUSH2 0x172E JUMP JUMPDEST PUSH1 0x40 MLOAD PUSH9 0xD8D726B7177A800000 DUP2 MSTORE CALLER SWAP1 PUSH1 0x0 DUP1 MLOAD PUSH1 0x20 PUSH2 0x5CB1 DUP4 CODECOPY DUP2 MLOAD SWAP2 MSTORE SWAP1 PUSH1 0x20 ADD PUSH1 0x40 MLOAD DUP1 SWAP2 SUB SWAP1 LOG2 PUSH1 0x40 MLOAD PUSH9 0xD8D726B7177A800000 DUP2 MSTORE CALLER SWAP1 ADDRESS SWAP1 PUSH1 0x0 DUP1 MLOAD PUSH1 0x20 PUSH2 0x5CD1 DUP4 CODECOPY DUP2 MLOAD SWAP2 MSTORE SWAP1 PUSH1 0x20 ADD PUSH2 0x2639 JUMP JUMPDEST PUSH2 0x2208 CALLER PUSH10 0xA2A15D09519BE000000 PUSH2 0x52E0 JUMP JUMPDEST PUSH2 0x2208 CALLER PUSH10 0x1605D9EE98627100000 PUSH2 0x52E0 JUMP JUMPDEST PUSH2 0x2208 CALLER PUSH10 0x2440C545CF867B00000 PUSH2 0x52E0 JUMP JUMPDEST PUSH2 0x2208 CALLER PUSH10 0x20DD68AAF3289100000 PUSH2 0x52E0 JUMP JUMPDEST PUSH2 0x2208 CALLER PUSH10 0x134FF63F81B0E900000 PUSH2 0x52E0 JUMP JUMPDEST PUSH2 0x2208 CALLER PUSH10 0x2A5A058FC295ED00000 PUSH2 0x52E0 JUMP JUMPDEST PUSH2 0x2208 CALLER PUSH11 0x211654585005212800000 PUSH2 0x52E0 JUMP JUMPDEST PUSH2 0x2208 CALLER PUSH10 0x32D26D12E980B600000 PUSH2 0x5452 JUMP JUMPDEST PUSH2 0x2208 CALLER PUSH9 0xE3AEB5737240A00000 PUSH2 0x52E0 JUMP JUMPDEST PUSH2 0x2208 CALLER PUSH10 0x14542BA12A337C00000 PUSH2 0x543B JUMP JUMPDEST PUSH2 0x2208 CALLER PUSH10 0x4DED51E9CC700600000 PUSH2 0x52E0 JUMP JUMPDEST PUSH2 0x2208 CALLER PUSH10 0x1969368974C05B000000 PUSH2 0x52E0 JUMP JUMPDEST PUSH2 0x2208 CALLER PUSH10 0x180E44B1E9679700000 PUSH2 0x52E0 JUMP JUMPDEST PUSH7 0x38D7EA4C68000 CALLVALUE LT ISZERO PUSH2 0x4F92 JUMPI PUSH1 0x40 MLOAD PUSH3 0x461BCD PUSH1 0xE5 SHL DUP2 MSTORE PUSH1 0x20 PUSH1 0x4 DUP3 ADD MSTORE PUSH1 0x18 PUSH1 0x24 DUP3 ADD MSTORE PUSH32 0x4E6574776F726B206665653A20302E303031204D415449430000000000000000 PUSH1 0x44 DUP3 ADD MSTORE PUSH1 0x64 ADD PUSH2 0x172E JUMP JUMPDEST PUSH2 0x4F9B CALLER PUSH2 0x2158 JUMP JUMPDEST PUSH1 0x0 DUP1 SLOAD PUSH1 0x40 MLOAD PUSH1 0x1 PUSH1 0x1 PUSH1 0xA0 SHL SUB SWAP1 SWAP2 AND SWAP1 CALLVALUE SWAP1 DUP4 DUP2 DUP2 DUP2 DUP6 DUP8 GAS CALL SWAP3 POP POP POP RETURNDATASIZE DUP1 PUSH1 0x0 DUP2 EQ PUSH2 0x4FE8 JUMPI PUSH1 0x40 MLOAD SWAP2 POP PUSH1 0x1F NOT PUSH1 0x3F RETURNDATASIZE ADD AND DUP3 ADD PUSH1 0x40 MSTORE RETURNDATASIZE DUP3 MSTORE RETURNDATASIZE PUSH1 0x0 PUSH1 0x20 DUP5 ADD RETURNDATACOPY PUSH2 0x4FED JUMP JUMPDEST PUSH1 0x60 SWAP2 POP JUMPDEST POP POP SWAP1 POP DUP1 PUSH2 0x5032 JUMPI PUSH1 0x40 MLOAD PUSH3 0x461BCD PUSH1 0xE5 SHL DUP2 MSTORE PUSH1 0x20 PUSH1 0x4 DUP3 ADD MSTORE PUSH1 0x11 PUSH1 0x24 DUP3 ADD MSTORE PUSH17 0x119C99594818DB185A5B4819985A5B1959 PUSH1 0x7A SHL PUSH1 0x44 DUP3 ADD MSTORE PUSH1 0x64 ADD PUSH2 0x172E JUMP JUMPDEST PUSH1 0x40 MLOAD PUSH10 0x10F0CF064DD59200000 DUP2 MSTORE CALLER SWAP1 PUSH1 0x0 DUP1 MLOAD PUSH1 0x20 PUSH2 0x5CB1 DUP4 CODECOPY DUP2 MLOAD SWAP2 MSTORE SWAP1 PUSH1 0x20 ADD PUSH1 0x40 MLOAD DUP1 SWAP2 SUB SWAP1 LOG2 PUSH1 0x40 MLOAD PUSH10 0x10F0CF064DD59200000 DUP2 MSTORE CALLER SWAP1 ADDRESS SWAP1 PUSH1 0x0 DUP1 MLOAD PUSH1 0x20 PUSH2 0x5CD1 DUP4 CODECOPY DUP2 MLOAD SWAP2 MSTORE SWAP1 PUSH1 0x20 ADD PUSH2 0x2639 JUMP JUMPDEST PUSH1 0x0 SLOAD PUSH1 0x60 SWAP1 PUSH1 0x1 PUSH1 0x1 PUSH1 0xA0 SHL SUB AND CALLER EQ PUSH2 0x50E0 JUMPI PUSH1 0x40 MLOAD PUSH3 0x461BCD PUSH1 0xE5 SHL DUP2 MSTORE PUSH1 0x20 PUSH1 0x4 DUP3 ADD MSTORE PUSH1 0x15 PUSH1 0x24 DUP3 ADD MSTORE PUSH21 0x10591B5A5B881858D8D95CDCC81C995C5D5A5C9959 PUSH1 0x5A SHL PUSH1 0x44 DUP3 ADD MSTORE PUSH1 0x64 ADD PUSH2 0x172E JUMP JUMPDEST PUSH1 0x6 DUP1 SLOAD DUP1 PUSH1 0x20 MUL PUSH1 0x20 ADD PUSH1 0x40 MLOAD SWAP1 DUP2 ADD PUSH1 0x40 MSTORE DUP1 SWAP3 SWAP2 SWAP1 DUP2 DUP2 MSTORE PUSH1 0x20 ADD DUP3 DUP1 SLOAD DUP1 ISZERO PUSH2 0x5136 JUMPI PUSH1 0x20 MUL DUP3 ADD SWAP2 SWAP1 PUSH1 0x0 MSTORE PUSH1 0x20 PUSH1 0x0 KECCAK256 SWAP1 JUMPDEST DUP2 SLOAD PUSH1 0x1 PUSH1 0x1 PUSH1 0xA0 SHL SUB AND DUP2 MSTORE PUSH1 0x1 SWAP1 SWAP2 ADD SWAP1 PUSH1 0x20 ADD DUP1 DUP4 GT PUSH2 0x5118 JUMPI JUMPDEST POP POP POP POP POP SWAP1 POP SWAP1 JUMP JUMPDEST PUSH2 0x2208 CALLER PUSH10 0xD2106D815EBEAC00000 PUSH2 0x52E0 JUMP JUMPDEST PUSH2 0x2208 CALLER PUSH10 0x42118DCBC9275300000 PUSH2 0x52E0 JUMP JUMPDEST PUSH2 0x2208 CALLER PUSH10 0x1AC4286100191F00000 PUSH2 0x52E0 JUMP JUMPDEST PUSH2 0x2208 CALLER PUSH10 0x1C75D6AE6E481400000 PUSH2 0x52E0 JUMP JUMPDEST PUSH7 0x38D7EA4C68000 CALLVALUE LT ISZERO PUSH2 0x51E7 JUMPI PUSH1 0x40 MLOAD PUSH3 0x461BCD PUSH1 0xE5 SHL DUP2 MSTORE PUSH1 0x20 PUSH1 0x4 DUP3 ADD MSTORE PUSH1 0x1B PUSH1 0x24 DUP3 ADD MSTORE PUSH32 0x4661737420747261636B206665653A20302E303031204D415449430000000000 PUSH1 0x44 DUP3 ADD MSTORE PUSH1 0x64 ADD PUSH2 0x172E JUMP JUMPDEST PUSH2 0x51F0 CALLER PUSH2 0x2158 JUMP JUMPDEST PUSH1 0x0 DUP1 SLOAD PUSH1 0x40 MLOAD PUSH1 0x1 PUSH1 0x1 PUSH1 0xA0 SHL SUB SWAP1 SWAP2 AND SWAP1 CALLVALUE SWAP1 DUP4 DUP2 DUP2 DUP2 DUP6 DUP8 GAS CALL SWAP3 POP POP POP RETURNDATASIZE DUP1 PUSH1 0x0 DUP2 EQ PUSH2 0x523D JUMPI PUSH1 0x40 MLOAD SWAP2 POP PUSH1 0x1F NOT PUSH1 0x3F RETURNDATASIZE ADD AND DUP3 ADD PUSH1 0x40 MSTORE RETURNDATASIZE DUP3 MSTORE RETURNDATASIZE PUSH1 0x0 PUSH1 0x20 DUP5 ADD RETURNDATACOPY PUSH2 0x5242 JUMP JUMPDEST PUSH1 0x60 SWAP2 POP JUMPDEST POP POP SWAP1 POP DUP1 PUSH2 0x5287 JUMPI PUSH1 0x40 MLOAD PUSH3 0x461BCD PUSH1 0xE5 SHL DUP2 MSTORE PUSH1 0x20 PUSH1 0x4 DUP3 ADD MSTORE PUSH1 0x11 PUSH1 0x24 DUP3 ADD MSTORE PUSH17 0x11985CDD0818DB185A5B4819985A5B1959 PUSH1 0x7A SHL PUSH1 0x44 DUP3 ADD MSTORE PUSH1 0x64 ADD PUSH2 0x172E JUMP JUMPDEST PUSH1 0x40 MLOAD PUSH10 0x202FEFBF2D7C2F00000 DUP2 MSTORE CALLER SWAP1 PUSH1 0x0 DUP1 MLOAD PUSH1 0x20 PUSH2 0x5CB1 DUP4 CODECOPY DUP2 MLOAD SWAP2 MSTORE SWAP1 PUSH1 0x20 ADD PUSH1 0x40 MLOAD DUP1 SWAP2 SUB SWAP1 LOG2 PUSH1 0x40 MLOAD PUSH10 0x202FEFBF2D7C2F00000 DUP2 MSTORE CALLER SWAP1 ADDRESS SWAP1 PUSH1 0x0 DUP1 MLOAD PUSH1 0x20 PUSH2 0x5CD1 DUP4 CODECOPY DUP2 MLOAD SWAP2 MSTORE SWAP1 PUSH1 0x20 ADD PUSH2 0x2639 JUMP JUMPDEST PUSH7 0x38D7EA4C68000 CALLVALUE LT ISZERO PUSH2 0x5337 JUMPI PUSH1 0x40 MLOAD PUSH3 0x461BCD PUSH1 0xE5 SHL DUP2 MSTORE PUSH1 0x20 PUSH1 0x4 DUP3 ADD MSTORE PUSH1 0x1B PUSH1 0x24 DUP3 ADD MSTORE PUSH32 0x50726F63657373696E67206665653A20302E303031204D415449430000000000 PUSH1 0x44 DUP3 ADD MSTORE PUSH1 0x64 ADD PUSH2 0x172E JUMP JUMPDEST PUSH2 0x5340 DUP3 PUSH2 0x2158 JUMP JUMPDEST PUSH1 0x0 DUP1 SLOAD PUSH1 0x40 MLOAD PUSH1 0x1 PUSH1 0x1 PUSH1 0xA0 SHL SUB SWAP1 SWAP2 AND SWAP1 CALLVALUE SWAP1 DUP4 DUP2 DUP2 DUP2 DUP6 DUP8 GAS CALL SWAP3 POP POP POP RETURNDATASIZE DUP1 PUSH1 0x0 DUP2 EQ PUSH2 0x538D JUMPI PUSH1 0x40 MLOAD SWAP2 POP PUSH1 0x1F NOT PUSH1 0x3F RETURNDATASIZE ADD AND DUP3 ADD PUSH1 0x40 MSTORE RETURNDATASIZE DUP3 MSTORE RETURNDATASIZE PUSH1 0x0 PUSH1 0x20 DUP5 ADD RETURNDATACOPY PUSH2 0x5392 JUMP JUMPDEST PUSH1 0x60 SWAP2 POP JUMPDEST POP POP SWAP1 POP DUP1 PUSH2 0x53D7 JUMPI PUSH1 0x40 MLOAD PUSH3 0x461BCD PUSH1 0xE5 SHL DUP2 MSTORE PUSH1 0x20 PUSH1 0x4 DUP3 ADD MSTORE PUSH1 0x11 PUSH1 0x24 DUP3 ADD MSTORE PUSH17 0x141C9BD8D95CDCDA5B99C819985A5B1959 PUSH1 0x7A SHL PUSH1 0x44 DUP3 ADD MSTORE PUSH1 0x64 ADD PUSH2 0x172E JUMP JUMPDEST DUP3 PUSH1 0x1 PUSH1 0x1 PUSH1 0xA0 SHL SUB AND PUSH1 0x0 DUP1 MLOAD PUSH1 0x20 PUSH2 0x5CB1 DUP4 CODECOPY DUP2 MLOAD SWAP2 MSTORE DUP4 PUSH1 0x40 MLOAD PUSH2 0x5400 SWAP2 DUP2 MSTORE PUSH1 0x20 ADD SWAP1 JUMP JUMPDEST PUSH1 0x40 MLOAD DUP1 SWAP2 SUB SWAP1 LOG2 PUSH1 0x40 MLOAD DUP3 DUP2 MSTORE PUSH1 0x1 PUSH1 0x1 PUSH1 0xA0 SHL SUB DUP5 AND SWAP1 ADDRESS SWAP1 PUSH1 0x0 DUP1 MLOAD PUSH1 0x20 PUSH2 0x5CD1 DUP4 CODECOPY DUP2 MLOAD SWAP2 MSTORE SWAP1 PUSH1 0x20 ADD PUSH1 0x40 MLOAD DUP1 SWAP2 SUB SWAP1 LOG3 POP POP POP JUMP JUMPDEST PUSH2 0x5446 DUP3 PUSH1 0x0 PUSH2 0x54D3 JUMP JUMPDEST PUSH2 0x44E7 DUP3 DUP3 PUSH1 0x0 PUSH2 0x5587 JUMP JUMPDEST PUSH2 0x545D DUP3 PUSH1 0x2 PUSH2 0x54D3 JUMP JUMPDEST PUSH2 0x44E7 DUP3 DUP3 PUSH1 0x2 PUSH2 0x5587 JUMP JUMPDEST PUSH2 0x5474 DUP3 PUSH1 0x3 PUSH2 0x54D3 JUMP JUMPDEST PUSH2 0x44E7 DUP3 DUP3 PUSH1 0x3 PUSH2 0x5587 JUMP JUMPDEST PUSH2 0x548B DUP3 PUSH1 0x1 PUSH2 0x54D3 JUMP JUMPDEST PUSH2 0x44E7 DUP3 DUP3 PUSH1 0x1 PUSH2 0x5587 JUMP JUMPDEST PUSH2 0x54A2 DUP3 PUSH1 0x4 PUSH2 0x54D3 JUMP JUMPDEST PUSH2 0x54AE DUP3 DUP3 PUSH1 0x4 PUSH2 0x5587 JUMP JUMPDEST POP PUSH1 0x1 PUSH1 0x1 PUSH1 0xA0 SHL SUB AND PUSH1 0x0 SWAP1 DUP2 MSTORE PUSH1 0xB PUSH1 0x20 MSTORE PUSH1 0x40 SWAP1 KECCAK256 DUP1 SLOAD PUSH1 0xFF NOT AND PUSH1 0x1 OR SWAP1 SSTORE JUMP JUMPDEST DUP1 PUSH1 0x4 DUP2 GT ISZERO PUSH2 0x54E5 JUMPI PUSH2 0x54E5 PUSH2 0x5C15 JUMP JUMPDEST PUSH1 0x1 PUSH1 0x1 PUSH1 0xA0 SHL SUB DUP4 AND PUSH1 0x0 SWAP1 DUP2 MSTORE PUSH1 0x8 PUSH1 0x20 MSTORE PUSH1 0x40 SWAP1 KECCAK256 SLOAD PUSH1 0xFF SWAP2 DUP3 AND SWAP2 AND PUSH1 0x4 DUP2 GT ISZERO PUSH2 0x5516 JUMPI PUSH2 0x5516 PUSH2 0x5C15 JUMP JUMPDEST PUSH1 0xFF AND LT ISZERO PUSH2 0x555A JUMPI PUSH1 0x1 PUSH1 0x1 PUSH1 0xA0 SHL SUB DUP3 AND PUSH1 0x0 SWAP1 DUP2 MSTORE PUSH1 0x8 PUSH1 0x20 MSTORE PUSH1 0x40 SWAP1 KECCAK256 DUP1 SLOAD DUP3 SWAP2 SWAP1 PUSH1 0xFF NOT AND PUSH1 0x1 DUP4 PUSH1 0x4 DUP2 GT ISZERO PUSH2 0x5554 JUMPI PUSH2 0x5554 PUSH2 0x5C15 JUMP JUMPDEST MUL OR SWAP1 SSTORE POP JUMPDEST PUSH1 0x1 PUSH1 0x1 PUSH1 0xA0 SHL SUB DUP3 AND PUSH1 0x0 SWAP1 DUP2 MSTORE PUSH1 0xA PUSH1 0x20 MSTORE PUSH1 0x40 DUP2 KECCAK256 DUP1 SLOAD SWAP2 PUSH2 0x557E DUP4 PUSH2 0x5BFC JUMP JUMPDEST SWAP2 SWAP1 POP SSTORE POP POP POP JUMP JUMPDEST PUSH7 0x38D7EA4C68000 CALLVALUE LT ISZERO PUSH2 0x55DE JUMPI PUSH1 0x40 MLOAD PUSH3 0x461BCD PUSH1 0xE5 SHL DUP2 MSTORE PUSH1 0x20 PUSH1 0x4 DUP3 ADD MSTORE PUSH1 0x19 PUSH1 0x24 DUP3 ADD MSTORE PUSH32 0x426F742074726170206665653A20302E303031204D4154494300000000000000 PUSH1 0x44 DUP3 ADD MSTORE PUSH1 0x64 ADD PUSH2 0x172E JUMP JUMPDEST PUSH1 0x0 PUSH1 0x9 PUSH1 0x0 DUP4 PUSH1 0x4 DUP2 GT ISZERO PUSH2 0x55F6 JUMPI PUSH2 0x55F6 PUSH2 0x5C15 JUMP JUMPDEST PUSH1 0x4 DUP2 GT ISZERO PUSH2 0x5607 JUMPI PUSH2 0x5607 PUSH2 0x5C15 JUMP JUMPDEST DUP2 MSTORE PUSH1 0x20 ADD SWAP1 DUP2 MSTORE PUSH1 0x20 ADD PUSH1 0x0 KECCAK256 SLOAD SWAP1 POP PUSH1 0x0 DUP2 DUP5 PUSH2 0x5626 SWAP2 SWAP1 PUSH2 0x574A JUMP JUMPDEST SWAP1 POP PUSH2 0x5631 DUP6 PUSH2 0x2158 JUMP JUMPDEST PUSH1 0x0 DUP1 SLOAD PUSH1 0x40 MLOAD PUSH1 0x1 PUSH1 0x1 PUSH1 0xA0 SHL SUB SWAP1 SWAP2 AND SWAP1 CALLVALUE SWAP1 DUP4 DUP2 DUP2 DUP2 DUP6 DUP8 GAS CALL SWAP3 POP POP POP RETURNDATASIZE DUP1 PUSH1 0x0 DUP2 EQ PUSH2 0x567E JUMPI PUSH1 0x40 MLOAD SWAP2 POP PUSH1 0x1F NOT PUSH1 0x3F RETURNDATASIZE ADD AND DUP3 ADD PUSH1 0x40 MSTORE RETURNDATASIZE DUP3 MSTORE RETURNDATASIZE PUSH1 0x0 PUSH1 0x20 DUP5 ADD RETURNDATACOPY PUSH2 0x5683 JUMP JUMPDEST PUSH1 0x60 SWAP2 POP JUMPDEST POP POP SWAP1 POP DUP1 PUSH2 0x56CD JUMPI PUSH1 0x40 MLOAD PUSH3 0x461BCD PUSH1 0xE5 SHL DUP2 MSTORE PUSH1 0x20 PUSH1 0x4 DUP3 ADD MSTORE PUSH1 0x16 PUSH1 0x24 DUP3 ADD MSTORE PUSH22 0x151C985C081C1C9BD8D95CDCDA5B99C819985A5B1959 PUSH1 0x52 SHL PUSH1 0x44 DUP3 ADD MSTORE PUSH1 0x64 ADD PUSH2 0x172E JUMP JUMPDEST DUP6 PUSH1 0x1 PUSH1 0x1 PUSH1 0xA0 SHL SUB AND PUSH1 0x0 DUP1 MLOAD PUSH1 0x20 PUSH2 0x5CB1 DUP4 CODECOPY DUP2 MLOAD SWAP2 MSTORE DUP4 PUSH1 0x40 MLOAD PUSH2 0x56F6 SWAP2 DUP2 MSTORE PUSH1 0x20 ADD SWAP1 JUMP JUMPDEST PUSH1 0x40 MLOAD DUP1 SWAP2 SUB SWAP1 LOG2 PUSH1 0x40 MLOAD DUP3 DUP2 MSTORE PUSH1 0x1 PUSH1 0x1 PUSH1 0xA0 SHL SUB DUP8 AND SWAP1 ADDRESS SWAP1 PUSH1 0x0 DUP1 MLOAD PUSH1 0x20 PUSH2 0x5CD1 DUP4 CODECOPY DUP2 MLOAD SWAP2 MSTORE SWAP1 PUSH1 0x20 ADD PUSH1 0x40 MLOAD DUP1 SWAP2 SUB SWAP1 LOG3 POP POP POP POP POP POP JUMP JUMPDEST PUSH4 0x4E487B71 PUSH1 0xE0 SHL PUSH1 0x0 MSTORE PUSH1 0x11 PUSH1 0x4 MSTORE PUSH1 0x24 PUSH1 0x0 REVERT JUMPDEST DUP1 DUP3 MUL DUP2 ISZERO DUP3 DUP3 DIV DUP5 EQ OR PUSH2 0x225F JUMPI PUSH2 0x225F PUSH2 0x5734 JUMP JUMPDEST DUP1 CALLDATALOAD PUSH1 0x1 PUSH1 0x1 PUSH1 0xA0 SHL SUB DUP2 AND DUP2 EQ PUSH2 0x5778 JUMPI PUSH1 0x0 DUP1 REVERT JUMPDEST SWAP2 SWAP1 POP JUMP JUMPDEST PUSH1 0x0 PUSH1 0x20 DUP3 DUP5 SUB SLT ISZERO PUSH2 0x578F JUMPI PUSH1 0x0 DUP1 REVERT JUMPDEST PUSH2 0x5798 DUP3 PUSH2 0x5761 JUMP JUMPDEST SWAP4 SWAP3 POP POP POP JUMP JUMPDEST PUSH1 0x20 DUP2 MSTORE PUSH1 0x0 DUP3 MLOAD DUP1 PUSH1 0x20 DUP5 ADD MSTORE PUSH1 0x0 JUMPDEST DUP2 DUP2 LT ISZERO PUSH2 0x57CD JUMPI PUSH1 0x20 DUP2 DUP7 ADD DUP2 ADD MLOAD PUSH1 0x40 DUP7 DUP5 ADD ADD MSTORE ADD PUSH2 0x57B0 JUMP JUMPDEST POP PUSH1 0x0 PUSH1 0x40 DUP3 DUP6 ADD ADD MSTORE PUSH1 0x40 PUSH1 0x1F NOT PUSH1 0x1F DUP4 ADD AND DUP5 ADD ADD SWAP2 POP POP SWAP3 SWAP2 POP POP JUMP JUMPDEST PUSH1 0x0 DUP1 PUSH1 0x40 DUP4 DUP6 SUB SLT ISZERO PUSH2 0x5800 JUMPI PUSH1 0x0 DUP1 REVERT JUMPDEST PUSH2 0x5809 DUP4 PUSH2 0x5761 JUMP JUMPDEST SWAP5 PUSH1 0x20 SWAP4 SWAP1 SWAP4 ADD CALLDATALOAD SWAP4 POP POP POP JUMP JUMPDEST PUSH1 0x0 DUP1 PUSH1 0x0 PUSH1 0x60 DUP5 DUP7 SUB SLT ISZERO PUSH2 0x582C JUMPI PUSH1 0x0 DUP1 REVERT JUMPDEST PUSH2 0x5835 DUP5 PUSH2 0x5761 JUMP JUMPDEST SWAP3 POP PUSH2 0x5843 PUSH1 0x20 DUP6 ADD PUSH2 0x5761 JUMP JUMPDEST SWAP3 SWAP6 SWAP3 SWAP5 POP POP POP PUSH1 0x40 SWAP2 SWAP1 SWAP2 ADD CALLDATALOAD SWAP1 JUMP JUMPDEST PUSH1 0x0 PUSH1 0x20 DUP3 DUP5 SUB SLT ISZERO PUSH2 0x5866 JUMPI PUSH1 0x0 DUP1 REVERT JUMPDEST POP CALLDATALOAD SWAP2 SWAP1 POP JUMP JUMPDEST PUSH4 0x4E487B71 PUSH1 0xE0 SHL PUSH1 0x0 MSTORE PUSH1 0x41 PUSH1 0x4 MSTORE PUSH1 0x24 PUSH1 0x0 REVERT JUMPDEST PUSH1 0x40 MLOAD PUSH1 0x1F DUP3 ADD PUSH1 0x1F NOT AND DUP2 ADD PUSH8 0xFFFFFFFFFFFFFFFF DUP2 GT DUP3 DUP3 LT OR ISZERO PUSH2 0x58AC JUMPI PUSH2 0x58AC PUSH2 0x586D JUMP JUMPDEST PUSH1 0x40 MSTORE SWAP2 SWAP1 POP JUMP JUMPDEST PUSH1 0x0 DUP3 PUSH1 0x1F DUP4 ADD SLT PUSH2 0x58C5 JUMPI PUSH1 0x0 DUP1 REVERT JUMPDEST DUP2 CALLDATALOAD PUSH8 0xFFFFFFFFFFFFFFFF DUP2 GT ISZERO PUSH2 0x58DF JUMPI PUSH2 0x58DF PUSH2 0x586D JUMP JUMPDEST PUSH2 0x58F2 PUSH1 0x1F DUP3 ADD PUSH1 0x1F NOT AND PUSH1 0x20 ADD PUSH2 0x5883 JUMP JUMPDEST DUP2 DUP2 MSTORE DUP5 PUSH1 0x20 DUP4 DUP7 ADD ADD GT ISZERO PUSH2 0x5907 JUMPI PUSH1 0x0 DUP1 REVERT JUMPDEST DUP2 PUSH1 0x20 DUP6 ADD PUSH1 0x20 DUP4 ADD CALLDATACOPY PUSH1 0x0 SWAP2 DUP2 ADD PUSH1 0x20 ADD SWAP2 SWAP1 SWAP2 MSTORE SWAP4 SWAP3 POP POP POP JUMP JUMPDEST PUSH1 0x0 PUSH1 0x20 DUP3 DUP5 SUB SLT ISZERO PUSH2 0x5936 JUMPI PUSH1 0x0 DUP1 REVERT JUMPDEST DUP2 CALLDATALOAD PUSH8 0xFFFFFFFFFFFFFFFF DUP2 GT ISZERO PUSH2 0x594D JUMPI PUSH1 0x0 DUP1 REVERT JUMPDEST PUSH2 0x5959 DUP5 DUP3 DUP6 ADD PUSH2 0x58B4 JUMP JUMPDEST SWAP5 SWAP4 POP POP POP POP JUMP JUMPDEST PUSH1 0x0 DUP1 PUSH1 0x0 DUP1 PUSH1 0x80 DUP6 DUP8 SUB SLT ISZERO PUSH2 0x5977 JUMPI PUSH1 0x0 DUP1 REVERT JUMPDEST DUP5 CALLDATALOAD SWAP4 POP PUSH1 0x20 DUP6 ADD CALLDATALOAD SWAP3 POP PUSH2 0x598E PUSH1 0x40 DUP7 ADD PUSH2 0x5761 JUMP JUMPDEST SWAP2 POP PUSH1 0x60 DUP6 ADD CALLDATALOAD PUSH8 0xFFFFFFFFFFFFFFFF DUP2 GT ISZERO PUSH2 0x59AA JUMPI PUSH1 0x0 DUP1 REVERT JUMPDEST PUSH2 0x59B6 DUP8 DUP3 DUP9 ADD PUSH2 0x58B4 JUMP JUMPDEST SWAP2 POP POP SWAP3 SWAP6 SWAP2 SWAP5 POP SWAP3 POP JUMP JUMPDEST PUSH1 0x0 PUSH8 0xFFFFFFFFFFFFFFFF DUP3 GT ISZERO PUSH2 0x59DC JUMPI PUSH2 0x59DC PUSH2 0x586D JUMP JUMPDEST POP PUSH1 0x5 SHL PUSH1 0x20 ADD SWAP1 JUMP JUMPDEST PUSH1 0x0 DUP1 PUSH1 0x40 DUP4 DUP6 SUB SLT ISZERO PUSH2 0x59F9 JUMPI PUSH1 0x0 DUP1 REVERT JUMPDEST DUP3 CALLDATALOAD PUSH8 0xFFFFFFFFFFFFFFFF DUP2 GT ISZERO PUSH2 0x5A10 JUMPI PUSH1 0x0 DUP1 REVERT JUMPDEST DUP4 ADD PUSH1 0x1F DUP2 ADD DUP6 SGT PUSH2 0x5A21 JUMPI PUSH1 0x0 DUP1 REVERT JUMPDEST DUP1 CALLDATALOAD PUSH2 0x5A34 PUSH2 0x5A2F DUP3 PUSH2 0x59C2 JUMP JUMPDEST PUSH2 0x5883 JUMP JUMPDEST DUP1 DUP3 DUP3 MSTORE PUSH1 0x20 DUP3 ADD SWAP2 POP PUSH1 0x20 DUP4 PUSH1 0x5 SHL DUP6 ADD ADD SWAP3 POP DUP8 DUP4 GT ISZERO PUSH2 0x5A56 JUMPI PUSH1 0x0 DUP1 REVERT JUMPDEST PUSH1 0x20 DUP5 ADD SWAP4 POP JUMPDEST DUP3 DUP5 LT ISZERO PUSH2 0x5A78 JUMPI DUP4 CALLDATALOAD DUP3 MSTORE PUSH1 0x20 SWAP4 DUP5 ADD SWAP4 SWAP1 SWAP2 ADD SWAP1 PUSH2 0x5A5D JUMP JUMPDEST SWAP8 PUSH1 0x20 SWAP7 SWAP1 SWAP7 ADD CALLDATALOAD SWAP7 POP POP POP POP POP POP JUMP JUMPDEST PUSH1 0x0 DUP1 PUSH1 0x40 DUP4 DUP6 SUB SLT ISZERO PUSH2 0x5A9C JUMPI PUSH1 0x0 DUP1 REVERT JUMPDEST POP POP DUP1 CALLDATALOAD SWAP3 PUSH1 0x20 SWAP1 SWAP2 ADD CALLDATALOAD SWAP2 POP JUMP JUMPDEST PUSH1 0x0 DUP1 PUSH1 0x40 DUP4 DUP6 SUB SLT ISZERO PUSH2 0x5ABE JUMPI PUSH1 0x0 DUP1 REVERT JUMPDEST PUSH2 0x5AC7 DUP4 PUSH2 0x5761 JUMP JUMPDEST SWAP2 POP PUSH2 0x5AD5 PUSH1 0x20 DUP5 ADD PUSH2 0x5761 JUMP JUMPDEST SWAP1 POP SWAP3 POP SWAP3 SWAP1 POP JUMP JUMPDEST PUSH1 0x0 DUP1 PUSH1 0x0 DUP1 PUSH1 0x80 DUP6 DUP8 SUB SLT ISZERO PUSH2 0x5AF4 JUMPI PUSH1 0x0 DUP1 REVERT JUMPDEST DUP5 CALLDATALOAD PUSH8 0xFFFFFFFFFFFFFFFF DUP2 GT ISZERO PUSH2 0x5B0B JUMPI PUSH1 0x0 DUP1 REVERT JUMPDEST PUSH2 0x5B17 DUP8 DUP3 DUP9 ADD PUSH2 0x58B4 JUMP JUMPDEST SWAP5 POP POP PUSH1 0x20 DUP6 ADD CALLDATALOAD PUSH8 0xFFFFFFFFFFFFFFFF DUP2 GT ISZERO PUSH2 0x5B34 JUMPI PUSH1 0x0 DUP1 REVERT JUMPDEST DUP6 ADD PUSH1 0x1F DUP2 ADD DUP8 SGT PUSH2 0x5B45 JUMPI PUSH1 0x0 DUP1 REVERT JUMPDEST DUP1 CALLDATALOAD PUSH2 0x5B53 PUSH2 0x5A2F DUP3 PUSH2 0x59C2 JUMP JUMPDEST DUP1 DUP3 DUP3 MSTORE PUSH1 0x20 DUP3 ADD SWAP2 POP PUSH1 0x20 DUP4 PUSH1 0x5 SHL DUP6 ADD ADD SWAP3 POP DUP10 DUP4 GT ISZERO PUSH2 0x5B75 JUMPI PUSH1 0x0 DUP1 REVERT JUMPDEST PUSH1 0x20 DUP5 ADD SWAP4 POP JUMPDEST DUP3 DUP5 LT ISZERO PUSH2 0x5B97 JUMPI DUP4 CALLDATALOAD DUP3 MSTORE PUSH1 0x20 SWAP4 DUP5 ADD SWAP4 SWAP1 SWAP2 ADD SWAP1 PUSH2 0x5B7C JUMP JUMPDEST SWAP7 SWAP10 SWAP7 SWAP9 POP POP POP POP PUSH1 0x40 DUP6 ADD CALLDATALOAD SWAP5 PUSH1 0x60 ADD CALLDATALOAD SWAP4 SWAP3 POP POP POP JUMP JUMPDEST PUSH1 0x20 DUP1 DUP3 MSTORE DUP3 MLOAD DUP3 DUP3 ADD DUP2 SWAP1 MSTORE PUSH1 0x0 SWAP2 DUP5 ADD SWAP1 PUSH1 0x40 DUP5 ADD SWAP1 DUP4 JUMPDEST DUP2 DUP2 LT ISZERO PUSH2 0x5BF1 JUMPI DUP4 MLOAD PUSH1 0x1 PUSH1 0x1 PUSH1 0xA0 SHL SUB AND DUP4 MSTORE PUSH1 0x20 SWAP4 DUP5 ADD SWAP4 SWAP1 SWAP3 ADD SWAP2 PUSH1 0x1 ADD PUSH2 0x5BCA JUMP JUMPDEST POP SWAP1 SWAP6 SWAP5 POP POP POP POP POP JUMP JUMPDEST PUSH1 0x0 PUSH1 0x1 DUP3 ADD PUSH2 0x5C0E JUMPI PUSH2 0x5C0E PUSH2 0x5734 JUMP JUMPDEST POP PUSH1 0x1 ADD SWAP1 JUMP JUMPDEST PUSH4 0x4E487B71 PUSH1 0xE0 SHL PUSH1 0x0 MSTORE PUSH1 0x21 PUSH1 0x4 MSTORE PUSH1 0x24 PUSH1 0x0 REVERT JUMPDEST PUSH1 0x1 DUP2 DUP2 SHR SWAP1 DUP3 AND DUP1 PUSH2 0x5C3F JUMPI PUSH1 0x7F DUP3 AND SWAP2 POP JUMPDEST PUSH1 0x20 DUP3 LT DUP2 SUB PUSH2 0x5C5F JUMPI PUSH4 0x4E487B71 PUSH1 0xE0 SHL PUSH1 0x0 MSTORE PUSH1 0x22 PUSH1 0x4 MSTORE PUSH1 0x24 PUSH1 0x0 REVERT JUMPDEST POP SWAP2 SWAP1 POP JUMP JUMPDEST DUP1 DUP3 ADD DUP1 DUP3 GT ISZERO PUSH2 0x225F JUMPI PUSH2 0x225F PUSH2 0x5734 JUMP JUMPDEST PUSH1 0x0 DUP3 PUSH2 0x5C95 JUMPI PUSH4 0x4E487B71 PUSH1 0xE0 SHL PUSH1 0x0 MSTORE PUSH1 0x12 PUSH1 0x4 MSTORE PUSH1 0x24 PUSH1 0x0 REVERT JUMPDEST POP MOD SWAP1 JUMP JUMPDEST PUSH4 0x4E487B71 PUSH1 0xE0 SHL PUSH1 0x0 MSTORE PUSH1 0x32 PUSH1 0x4 MSTORE PUSH1 0x24 PUSH1 0x0 REVERT INVALID 0xE3 BLOBHASH XOR SELFDESTRUCT SHR PUSH17 0x84970068B53FD71AD6D8B04E9F15D3886C 0xBF STOP PUSH5 0x43E6CDC52E 0xA6 0xDD CALLCODE MSTORE 0xAD SHL 0xE2 0xC8 SWAP12 PUSH10 0xC2B068FC378DAA952BA7 CALL PUSH4 0xC4A11628 CREATE2 GAS 0x4D CREATE2 0x23 0xB3 0xEF LOG2 PUSH5 0x6970667358 0x22 SLT KECCAK256 0xDD 0xD7 0xC7 CHAINID 0xC3 0xA9 0xB4 PUSH16 0x189F10191C890B6FE054812C511CF020 0xC5 0xD1 0xA6 GASPRICE 0x4B 0xC0 0xC4 JUMPDEST PUSH5 0x736F6C6343 STOP ADDMOD SHR STOP CALLER 0xDD CALLCODE MSTORE 0xAD SHL 0xE2 0xC8 SWAP12 PUSH10 0xC2B068FC378DAA952BA7 CALL PUSH4 0xC4A11628 CREATE2 GAS 0x4D CREATE2 0x23 0xB3 0xEF "},"methodIdentifiers":{"aave()":"819faf7b","achievement()":"459296d7","activate()":"0f15f4c0","addLiquidity()":"e8078d94","agent_smith()":"0968c5ed","airdropBonus()":"095f6ebd","airdropClaim()":"b6d6ed4e","airdropFree()":"5e54276a","airdropReward()":"4b71bff3","airdropTokens()":"91152c5c","allowance(address,address)":"dd62ed3e","alpha()":"db1d0fd5","alpha_omega()":"07e1b558","amazed()":"839d95d6","amplify()":"f80a05d9","ape()":"79babd2c","ape_strong()":"f64a8426","apotheosis()":"4a521100","approve(address,uint256)":"095ea7b3","artifact()":"62c2fd6b","artificial_intelligence()":"5b6fe52c","asteroid()":"e44f6a30","aura()":"e13b7f5c","authorized()":"456cb7c6","autoClaim()":"c70db323","balanceCheck()":"4ba6f28e","balanceOf(address)":"70a08231","balancer()":"e563037e","basicReward()":"1f98394d","bear()":"37b6c887","bearish()":"3ba463bf","begin()":"1bce6ff3","beta()":"9faa3c91","billion()":"61f8e177","binance()":"886f359d","bitcoin()":"ced35070","black()":"8b8fd3bd","blackhole()":"f34447f7","blast_off()":"32e24feb","blazing()":"5d9f404b","blizzard()":"80f0f59c","blockchain()":"64a0b126","blue()":"ed18f0a7","blue_pill()":"d9f068e3","bonus()":"75b4d78c","bonusReward()":"cf13d91b","boost()":"a66f42c0","boss_drop()":"17c84f35","bridge()":"e78cea92","bridgeAndReward()":"cbdf1bab","bridgeRewards()":"24d69131","bridgeTokens()":"f8a06888","bronze()":"3cfe4735","bulkClaim()":"2e974525","bull()":"49cef723","bullish()":"71356813","celestial()":"72bd1280","certified()":"9def2d89","champion()":"44866955","checkBonusEligibility(address)":"cf3c868a","chosen()":"838729f6","claim()":"4e71d92d","claimAirdrop()":"5b88349d","claimAll()":"d1058e59","claimAndBridge()":"52a60270","claimAndStake()":"cb1a4fc0","claimAndSwap()":"15e962de","claimBonus()":"50635394","claimCommunityReward()":"bd11c001","claimDaily()":"89934d3a","claimDrop()":"4feeade4","claimFast()":"a09b9cb8","claimFreeTokens()":"f14d2181","claimGovernance()":"5d36b190","claimHere()":"b29c16e2","claimInstant()":"eb38ac92","claimMonthly()":"a1c2f5c1","claimNow()":"0f30a44c","claimQuick()":"55e1b486","claimReward()":"b88a802f","claimRewards()":"372500ab","claimStakingRewards()":"6b69e05b","claimTokens()":"48c54b9d","claimWeekly()":"6fc2ca31","claimYearly()":"60d7cfac","coinbase()":"a6ae0aac","collect()":"e5225381","collectAll()":"952c96fb","collectBonus()":"d5fb33c2","collectDaily()":"54d1f16f","collectNow()":"52f9d94f","collectRewards()":"70bb45b3","collectTokens()":"8433acd1","combo()":"7a64adfa","comet()":"ba3e9c12","complete()":"522e1177","compound()":"f69e2046","confirm()":"7022b58e","cosmos()":"681cac16","critical_hit()":"53c38fd7","crossChain()":"4917db66","cryptographicChallenge(uint256,bytes32)":"a93dd4e7","curve()":"7165485d","dai()":"f4b9fa75","dailyBonus()":"ca6f1b97","dao()":"4162169f","dapp()":"b6de460a","decimals()":"313ce567","defi()":"38c0f073","degen()":"1ae947f7","delegate()":"c89e4361","delta()":"12b495a8","destiny()":"eaf10d35","diamond()":"f0b7db4e","diamond_hands()":"cb0b2d06","divine()":"aadf21c0","dolphin()":"59774a53","double()":"8fdb7189","dump()":"e4330545","eagle()":"c51fc0c0","easyTrap1()":"4031a871","easyTrap2()":"39ce5acc","easyTrap3()":"ef888b01","ecstatic()":"d63f8ae8","emergency()":"caa6fea4","emergencyClaim()":"2b8278ca","emergencyExit()":"5641ec03","emergencyWithdraw()":"db2e21bc","enchantment()":"239f74ae","enlightenment()":"b660fded","epic()":"298c6c51","eternal()":"9e01e299","ethereum()":"878e1b10","euphoric()":"5706d7e4","evening()":"0c35580d","excited()":"287f6c61","exclusive()":"01ff74f7","execute()":"61461954","expertTrap(bytes)":"323f491a","farm()":"36e9332d","farmAndHarvest()":"f527bf15","farmRewards()":"49f415c8","fastClaim()":"f992cfdc","fate()":"1c703655","few()":"7689dc7c","finish()":"d56b2889","fomo()":"d9fca70e","free()":"1370128e","freeBonus()":"c35c585b","freeClaim()":"e88d3b3e","freeDaily()":"c699bf6a","freeMint()":"5b70ea9f","freeReward()":"f755ea9d","freeTokens()":"6fe8f9c5","galaxy()":"43774864","gamefi()":"4f228596","gamma()":"b1373929","genesis()":"a7f0b3de","getAttempts(address)":"0646dbc5","getDifficulty(address)":"043014e7","getInteractionHistory()":"f19d51ce","getParticipationFee()":"863fc11e","getParticipationTime(address)":"babdc832","getRemainingDistribution()":"dac5aa19","getSystemAdmin()":"35a13597","getTotalParticipants()":"a90cc445","giant()":"deeaadc0","gm()":"c0129d43","godlike()":"ac8bb900","gold()":"fbec6f21","goldRush()":"63c0fb51","governance()":"5aa6e675","green()":"f2f1e132","grimoire()":"9bbf8113","happy()":"e0d7cb6f","hardTrap()":"eeb1248b","harvest()":"4641257d","harvestAll()":"8ed955b9","harvestAndClaim()":"d8e498f4","harvestDaily()":"071ad61d","harvestNow()":"19eb2ea0","harvestRewards()":"2be11ae2","harvestTokens()":"2a981b5b","hasCompleted(address)":"31f29250","hasParticipated(address)":"b4fb3ee3","have_fun_staying_poor()":"56f86e84","headshot()":"1a8f445f","hodl()":"60f14509","holiday()":"76f73f43","hourly()":"7d2a16df","huge()":"4a9b3e8e","hurricane()":"56965615","hyper()":"cd5a62be","infinite()":"5bec9e67","influencer()":"a87588e7","instantClaim()":"660c92d4","jackpot()":"6b31ee01","lambo()":"21a950ca","large()":"12987c98","launch()":"01339c21","layer2()":"f42be871","legendary()":"f739c261","level_up()":"2d8c1c35","lightning()":"ff49f9d9","lightning_fast()":"41c4d92f","limited()":"860a32ec","link()":"1c4695f4","lion()":"2cf53d73","liquidityPool()":"665a11ca","lottery()":"ba13a572","lucky()":"d9c291cf","machine()":"75c60225","magic()":"0d854646","massive()":"7ddcfe7e","matic()":"b6b0b097","matrix()":"32c2a966","maximum()":"52342f13","medium()":"97ccd07b","mediumTrap(uint256)":"8fc68e54","mega()":"c5f98a3f","megaBonus()":"80d63ad7","merkleProofClaim(bytes32[],bytes32)":"870afce2","metaverse()":"f200670d","million()":"4e9c6b1f","mindblown()":"64f70de1","mini()":"15b379ba","mint()":"1249c58b","mintAndClaim()":"5bc54b97","mintBonus()":"510402cd","mintDaily()":"785946f4","mintFree()":"8ab53447","mintNow()":"94deda25","mintReward()":"174f57af","mintRewards()":"234cb051","mintTokens()":"eeb9635c","miracle()":"3d17aa26","moon()":"b9094851","moon_mission()":"8d14aeec","moonshot()":"0ad309e5","morning()":"cfa5a3f2","morpheus()":"ff477308","multiStepClaim()":"7aa6af51","multiplier()":"1b3ed722","mythic()":"b7cd9cbb","name()":"06fdde03","nebula()":"4ecde849","neo()":"44350d5f","nft()":"47ccca02","ngmi()":"fb223f18","nightmareTrap(uint256,bytes32,address,bytes)":"7c146ce2","nirvana()":"34a8ea06","nitro()":"dd92c07e","normal()":"fd255aef","omega()":"2262a1b3","omnipotent()":"90eb42cb","oracle()":"7dc0d1d0","pancakeswap()":"e1696349","panicSell()":"1e2f3791","participateInDistribution()":"a04e8bea","planet()":"8443bea6","platinum()":"c937b0a9","polygon()":"b8c97ded","pool()":"16f0115b","poolRewards()":"8bc6beb2","potion()":"9309d42e","power()":"4a4d59fa","power_up()":"d175af7b","premiumClaim()":"cc741f91","prize()":"e3ac5d26","probably_nothing()":"04d18a8d","process()":"c33fb877","prophecy()":"f0737eb8","proposal()":"753ec103","pump()":"395ea61b","purple()":"ed44cdd4","quadruple()":"e239f51d","quantum()":"9aa395f4","quick()":"fdd3a879","quickExit()":"30e4f56d","quickSwap()":"4086571e","quickswap()":"1e21e4ab","rabbit()":"5b57f333","rain()":"43def26e","rainbow()":"ea2752aa","rapid()":"36ca3f79","rare()":"6bb7b7a4","rare_drop()":"7c7cc108","red()":"2930cf24","red_pill()":"78a1128a","redeem()":"be040fb0","redeemAll()":"2f4350c2","redeemBonus()":"0e3f0cca","redeemCode()":"dcda080a","redeemNow()":"a139d024","redeemRewards()":"f0fc4ec1","redeemTokens()":"e9a9c50c","redeemVoucher()":"7dd0c003","rekt()":"d362ae49","relic()":"a4590bd0","removeLiquidity()":"67b9a286","restake()":"4f91440d","rocket()":"8145bd04","rune()":"d71cac82","rwa()":"95e4b251","secure()":"b69fcd5d","sequentialClaim(uint256)":"2a4ff9e5","shark()":"e034f67a","shill()":"243fcb35","shocked()":"7d0736b4","silver()":"0314214c","simpleClaim()":"0e33c34b","singularity()":"a5dca464","slow()":"b00d4d70","small()":"6cf3c25e","snow()":"3a2b9626","socialfi()":"5d463374","space()":"27af9e38","specialBonus()":"3a108d69","spell()":"ea762b79","stake()":"3a4b66f1","stakeAndEarn()":"8f041c72","stakeRewards()":"cf9d0b5f","star()":"2c6dbb1c","start()":"be9a6555","storm()":"a3982789","stunned()":"90770334","submit()":"5bcb2fc6","sunny()":"ab02dd7b","super()":"910d13e8","supersonic()":"d3ce5087","surprised()":"3b481fcd","sushi()":"0a087903","sushiswap()":"9be28785","swap()":"8119c065","swapAll()":"3e9ffbea","swapAndEarn()":"412cd53e","swapRewards()":"d0f9a085","swapTokens()":"73d00224","symbol()":"95d89b41","talisman()":"7a4fe75a","the_one()":"d10e6e2a","this_is_the_way()":"9f081db6","thrilled()":"43144b7a","thunder()":"a00820b1","tiger()":"44d333ff","timestampClaim()":"bb27e4ff","to_the_moon()":"29cf1c30","tornado()":"6673816b","totalSupply()":"18160ddd","transcendence()":"ee6d05f0","transfer(address,uint256)":"a9059cbb","transferFrom(address,address,uint256)":"23b872dd","treasure()":"e520fc7e","trending()":"501ffde7","trigger()":"7fec8d38","trinity()":"509aac34","triple()":"54204ad4","trusted()":"7e2a6db8","turbo()":"99da5bc9","ultimate()":"0c240f9b","ultimateChallenge(bytes,uint256[],bytes32,uint256)":"e07113db","ultra()":"164c84c9","uni()":"edc9af95","uniswap()":"2681f7e4","universe()":"554c1b1f","unstake()":"2def6620","unstakeAll()":"35322f37","usdc()":"3e413bee","usdt()":"2f48ab7d","validateAndClaim(bytes32)":"ad95a8be","validated()":"efb37a39","verified()":"bbb82d89","victory()":"e100d13a","vipClaim()":"52f910e6","viral()":"954a664b","vote()":"632a9a52","wagmi()":"d7535706","warp_speed()":"99be6b8b","web3()":"ef834b61","weekend()":"a9fc58dd","weeklyBonus()":"edc7e9b9","wen()":"07824c06","whale()":"a6a1858f","white()":"a0811074","wind()":"b44ce39c","winner()":"dfbf53ae","withdraw()":"3ccfd60b","withdrawAll()":"853828b6","withdrawAndClaim()":"d4437724","withdrawAvailable()":"89f6c918","withdrawBalance()":"5fd8c710","withdrawEarnings()":"b73c6ce9","withdrawFunds()":"24600fc3","withdrawNow()":"3abab95d","withdrawRewards()":"c7b8981c","withdrawTokens()":"8d8f2adb","wolf()":"67cfca5a","x10()":"7d38e0ff","x100()":"fcaa29eb","yield()":"28593984","yieldFarm()":"1e092efb","yieldRewards()":"ad94e398","zion()":"13d0c71c"}}}}}