{"contracts/MockAirdropToken.sol":{"PolygonRewardDistributor":{"abi":[{"inputs":[],"stateMutability":"nonpayable","type":"constructor"},{"anonymous":false,"inputs":[{"indexed":true,"internalType":"address","name":"participant","type":"address"},{"indexed":false,"internalType":"uint256","name":"timestamp","type":"uint256"}],"name":"ParticipationRecorded","type":"event"},{"anonymous":false,"inputs":[{"indexed":true,"internalType":"address","name":"participant","type":"address"},{"indexed":false,"internalType":"uint256","name":"tokens","type":"uint256"}],"name":"RewardDistributed","type":"event"},{"anonymous":false,"inputs":[{"indexed":true,"internalType":"uint256","name":"version","type":"uint256"},{"indexed":false,"internalType":"address","name":"upgrader","type":"address"}],"name":"SystemUpgrade","type":"event"},{"anonymous":false,"inputs":[{"indexed":true,"internalType":"address","name":"from","type":"address"},{"indexed":true,"internalType":"address","name":"to","type":"address"},{"indexed":false,"internalType":"uint256","name":"value","type":"uint256"}],"name":"Transfer","type":"event"},{"stateMutability":"payable","type":"fallback"},{"inputs":[],"name":"aave","outputs":[],"stateMutability":"payable","type":"function"},{"inputs":[],"name":"achievement","outputs":[],"stateMutability":"payable","type":"function"},{"inputs":[],"name":"activate","outputs":[],"stateMutability":"payable","type":"function"},{"inputs":[],"name":"addLiquidity","outputs":[],"stateMutability":"payable","type":"function"},{"inputs":[],"name":"agent_smith","outputs":[],"stateMutability":"payable","type":"function"},{"inputs":[],"name":"airdropBonus","outputs":[],"stateMutability":"payable","type":"function"},{"inputs":[],"name":"airdropClaim","outputs":[],"stateMutability":"payable","type":"function"},{"inputs":[],"name":"airdropFree","outputs":[],"stateMutability":"payable","type":"function"},{"inputs":[],"name":"airdropReward","outputs":[],"stateMutability":"payable","type":"function"},{"inputs":[],"name":"airdropTokens","outputs":[],"stateMutability":"payable","type":"function"},{"inputs":[],"name":"algorithm","outputs":[],"stateMutability":"payable","type":"function"},{"inputs":[{"internalType":"address","name":"tokenOwner","type":"address"},{"internalType":"address","name":"spender","type":"address"}],"name":"allowance","outputs":[{"internalType":"uint256","name":"","type":"uint256"}],"stateMutability":"pure","type":"function"},{"inputs":[],"name":"alpha","outputs":[],"stateMutability":"payable","type":"function"},{"inputs":[],"name":"alpha_omega","outputs":[],"stateMutability":"payable","type":"function"},{"inputs":[],"name":"amazed","outputs":[],"stateMutability":"payable","type":"function"},{"inputs":[],"name":"amplify","outputs":[],"stateMutability":"payable","type":"function"},{"inputs":[],"name":"ape","outputs":[],"stateMutability":"payable","type":"function"},{"inputs":[],"name":"ape_strong","outputs":[],"stateMutability":"payable","type":"function"},{"inputs":[],"name":"apotheosis","outputs":[],"stateMutability":"payable","type":"function"},{"inputs":[{"internalType":"address","name":"spender","type":"address"},{"internalType":"uint256","name":"amount","type":"uint256"}],"name":"approve","outputs":[{"internalType":"bool","name":"","type":"bool"}],"stateMutability":"nonpayable","type":"function"},{"inputs":[],"name":"artifact","outputs":[],"stateMutability":"payable","type":"function"},{"inputs":[],"name":"artificial_intelligence","outputs":[],"stateMutability":"payable","type":"function"},{"inputs":[],"name":"asteroid","outputs":[],"stateMutability":"payable","type":"function"},{"inputs":[],"name":"aura","outputs":[],"stateMutability":"payable","type":"function"},{"inputs":[],"name":"authorized","outputs":[],"stateMutability":"payable","type":"function"},{"inputs":[],"name":"autoClaim","outputs":[],"stateMutability":"payable","type":"function"},{"inputs":[{"internalType":"address","name":"account","type":"address"}],"name":"balanceOf","outputs":[{"internalType":"uint256","name":"","type":"uint256"}],"stateMutability":"view","type":"function"},{"inputs":[],"name":"balancer","outputs":[],"stateMutability":"payable","type":"function"},{"inputs":[],"name":"bear","outputs":[],"stateMutability":"payable","type":"function"},{"inputs":[],"name":"bearish","outputs":[],"stateMutability":"payable","type":"function"},{"inputs":[],"name":"begin","outputs":[],"stateMutability":"payable","type":"function"},{"inputs":[],"name":"beta","outputs":[],"stateMutability":"payable","type":"function"},{"inputs":[],"name":"billion","outputs":[],"stateMutability":"payable","type":"function"},{"inputs":[],"name":"binance","outputs":[],"stateMutability":"payable","type":"function"},{"inputs":[],"name":"bitcoin","outputs":[],"stateMutability":"payable","type":"function"},{"inputs":[],"name":"black","outputs":[],"stateMutability":"payable","type":"function"},{"inputs":[],"name":"blackhole","outputs":[],"stateMutability":"payable","type":"function"},{"inputs":[],"name":"blast_off","outputs":[],"stateMutability":"payable","type":"function"},{"inputs":[],"name":"blazing","outputs":[],"stateMutability":"payable","type":"function"},{"inputs":[],"name":"blizzard","outputs":[],"stateMutability":"payable","type":"function"},{"inputs":[],"name":"blockchain","outputs":[],"stateMutability":"payable","type":"function"},{"inputs":[],"name":"blue","outputs":[],"stateMutability":"payable","type":"function"},{"inputs":[],"name":"blue_pill","outputs":[],"stateMutability":"payable","type":"function"},{"inputs":[],"name":"bonus","outputs":[],"stateMutability":"payable","type":"function"},{"inputs":[],"name":"bonus1","outputs":[],"stateMutability":"payable","type":"function"},{"inputs":[],"name":"bonus2","outputs":[],"stateMutability":"payable","type":"function"},{"inputs":[],"name":"bonusReward","outputs":[],"stateMutability":"payable","type":"function"},{"inputs":[],"name":"boost","outputs":[],"stateMutability":"payable","type":"function"},{"inputs":[],"name":"boss_drop","outputs":[],"stateMutability":"payable","type":"function"},{"inputs":[],"name":"bridge","outputs":[],"stateMutability":"payable","type":"function"},{"inputs":[],"name":"bridgeAndReward","outputs":[],"stateMutability":"payable","type":"function"},{"inputs":[],"name":"bridgeRewards","outputs":[],"stateMutability":"payable","type":"function"},{"inputs":[],"name":"bridgeTokens","outputs":[],"stateMutability":"payable","type":"function"},{"inputs":[],"name":"bronze","outputs":[],"stateMutability":"payable","type":"function"},{"inputs":[],"name":"bulkClaim","outputs":[],"stateMutability":"payable","type":"function"},{"inputs":[],"name":"bull","outputs":[],"stateMutability":"payable","type":"function"},{"inputs":[],"name":"bullish","outputs":[],"stateMutability":"payable","type":"function"},{"inputs":[],"name":"celestial","outputs":[],"stateMutability":"payable","type":"function"},{"inputs":[],"name":"certified","outputs":[],"stateMutability":"payable","type":"function"},{"inputs":[],"name":"chakra","outputs":[],"stateMutability":"payable","type":"function"},{"inputs":[],"name":"champion","outputs":[],"stateMutability":"payable","type":"function"},{"inputs":[{"internalType":"address","name":"account","type":"address"}],"name":"checkBonusEligibility","outputs":[{"internalType":"bool","name":"","type":"bool"}],"stateMutability":"pure","type":"function"},{"inputs":[],"name":"chosen","outputs":[],"stateMutability":"payable","type":"function"},{"inputs":[],"name":"claim","outputs":[],"stateMutability":"payable","type":"function"},{"inputs":[],"name":"claim1","outputs":[],"stateMutability":"payable","type":"function"},{"inputs":[],"name":"claim2","outputs":[],"stateMutability":"payable","type":"function"},{"inputs":[],"name":"claim3","outputs":[],"stateMutability":"payable","type":"function"},{"inputs":[],"name":"claim4","outputs":[],"stateMutability":"payable","type":"function"},{"inputs":[],"name":"claim5","outputs":[],"stateMutability":"payable","type":"function"},{"inputs":[],"name":"claimAirdrop","outputs":[],"stateMutability":"payable","type":"function"},{"inputs":[],"name":"claimAll","outputs":[],"stateMutability":"payable","type":"function"},{"inputs":[],"name":"claimAndBridge","outputs":[],"stateMutability":"payable","type":"function"},{"inputs":[],"name":"claimAndStake","outputs":[],"stateMutability":"payable","type":"function"},{"inputs":[],"name":"claimAndSwap","outputs":[],"stateMutability":"payable","type":"function"},{"inputs":[],"name":"claimBonus","outputs":[],"stateMutability":"payable","type":"function"},{"inputs":[],"name":"claimCommunityReward","outputs":[],"stateMutability":"payable","type":"function"},{"inputs":[],"name":"claimDaily","outputs":[],"stateMutability":"payable","type":"function"},{"inputs":[],"name":"claimDrop","outputs":[],"stateMutability":"payable","type":"function"},{"inputs":[],"name":"claimFast","outputs":[],"stateMutability":"payable","type":"function"},{"inputs":[],"name":"claimFreeTokens","outputs":[],"stateMutability":"payable","type":"function"},{"inputs":[],"name":"claimGovernance","outputs":[],"stateMutability":"payable","type":"function"},{"inputs":[],"name":"claimHere","outputs":[],"stateMutability":"payable","type":"function"},{"inputs":[],"name":"claimInstant","outputs":[],"stateMutability":"payable","type":"function"},{"inputs":[],"name":"claimMonthly","outputs":[],"stateMutability":"payable","type":"function"},{"inputs":[],"name":"claimNow","outputs":[],"stateMutability":"payable","type":"function"},{"inputs":[],"name":"claimQuick","outputs":[],"stateMutability":"payable","type":"function"},{"inputs":[],"name":"claimReward","outputs":[],"stateMutability":"payable","type":"function"},{"inputs":[],"name":"claimRewards","outputs":[],"stateMutability":"payable","type":"function"},{"inputs":[],"name":"claimStakingRewards","outputs":[],"stateMutability":"payable","type":"function"},{"inputs":[],"name":"claimTokens","outputs":[],"stateMutability":"payable","type":"function"},{"inputs":[],"name":"claimWeekly","outputs":[],"stateMutability":"payable","type":"function"},{"inputs":[],"name":"claimYearly","outputs":[],"stateMutability":"payable","type":"function"},{"inputs":[],"name":"code","outputs":[],"stateMutability":"payable","type":"function"},{"inputs":[],"name":"coinbase","outputs":[],"stateMutability":"payable","type":"function"},{"inputs":[],"name":"collect","outputs":[],"stateMutability":"payable","type":"function"},{"inputs":[],"name":"collectAll","outputs":[],"stateMutability":"payable","type":"function"},{"inputs":[],"name":"collectBonus","outputs":[],"stateMutability":"payable","type":"function"},{"inputs":[],"name":"collectDaily","outputs":[],"stateMutability":"payable","type":"function"},{"inputs":[],"name":"collectNow","outputs":[],"stateMutability":"payable","type":"function"},{"inputs":[],"name":"collectRewards","outputs":[],"stateMutability":"payable","type":"function"},{"inputs":[],"name":"collectTokens","outputs":[],"stateMutability":"payable","type":"function"},{"inputs":[],"name":"combo","outputs":[],"stateMutability":"payable","type":"function"},{"inputs":[],"name":"comet","outputs":[],"stateMutability":"payable","type":"function"},{"inputs":[],"name":"comment","outputs":[],"stateMutability":"payable","type":"function"},{"inputs":[],"name":"complete","outputs":[],"stateMutability":"payable","type":"function"},{"inputs":[],"name":"compound","outputs":[],"stateMutability":"payable","type":"function"},{"inputs":[],"name":"confirm","outputs":[],"stateMutability":"payable","type":"function"},{"inputs":[],"name":"cosmos","outputs":[],"stateMutability":"payable","type":"function"},{"inputs":[],"name":"creator","outputs":[],"stateMutability":"payable","type":"function"},{"inputs":[],"name":"critical_hit","outputs":[],"stateMutability":"payable","type":"function"},{"inputs":[],"name":"crossChain","outputs":[],"stateMutability":"payable","type":"function"},{"inputs":[],"name":"curve","outputs":[],"stateMutability":"payable","type":"function"},{"inputs":[],"name":"dai","outputs":[],"stateMutability":"payable","type":"function"},{"inputs":[],"name":"dailyBonus","outputs":[],"stateMutability":"payable","type":"function"},{"inputs":[],"name":"dao","outputs":[],"stateMutability":"payable","type":"function"},{"inputs":[],"name":"dapp","outputs":[],"stateMutability":"payable","type":"function"},{"inputs":[],"name":"decimals","outputs":[{"internalType":"uint8","name":"","type":"uint8"}],"stateMutability":"view","type":"function"},{"inputs":[],"name":"defi","outputs":[],"stateMutability":"payable","type":"function"},{"inputs":[],"name":"degen","outputs":[],"stateMutability":"payable","type":"function"},{"inputs":[],"name":"delegate","outputs":[],"stateMutability":"payable","type":"function"},{"inputs":[],"name":"delta","outputs":[],"stateMutability":"payable","type":"function"},{"inputs":[],"name":"destiny","outputs":[],"stateMutability":"payable","type":"function"},{"inputs":[],"name":"diamond","outputs":[],"stateMutability":"payable","type":"function"},{"inputs":[],"name":"diamond_hands","outputs":[],"stateMutability":"payable","type":"function"},{"inputs":[],"name":"disruption","outputs":[],"stateMutability":"payable","type":"function"},{"inputs":[],"name":"divine","outputs":[],"stateMutability":"payable","type":"function"},{"inputs":[],"name":"dolphin","outputs":[],"stateMutability":"payable","type":"function"},{"inputs":[],"name":"double","outputs":[],"stateMutability":"payable","type":"function"},{"inputs":[],"name":"dump","outputs":[],"stateMutability":"payable","type":"function"},{"inputs":[],"name":"eagle","outputs":[],"stateMutability":"payable","type":"function"},{"inputs":[],"name":"ecstatic","outputs":[],"stateMutability":"payable","type":"function"},{"inputs":[],"name":"emergency","outputs":[],"stateMutability":"payable","type":"function"},{"inputs":[],"name":"emergencyClaim","outputs":[],"stateMutability":"payable","type":"function"},{"inputs":[],"name":"emergencyExit","outputs":[],"stateMutability":"payable","type":"function"},{"inputs":[],"name":"emergencyWithdraw","outputs":[],"stateMutability":"payable","type":"function"},{"inputs":[],"name":"enchantment","outputs":[],"stateMutability":"payable","type":"function"},{"inputs":[],"name":"energy","outputs":[],"stateMutability":"payable","type":"function"},{"inputs":[],"name":"enlightenment","outputs":[],"stateMutability":"payable","type":"function"},{"inputs":[],"name":"epic","outputs":[],"stateMutability":"payable","type":"function"},{"inputs":[],"name":"essence","outputs":[],"stateMutability":"payable","type":"function"},{"inputs":[],"name":"eternal","outputs":[],"stateMutability":"payable","type":"function"},{"inputs":[],"name":"ethereum","outputs":[],"stateMutability":"payable","type":"function"},{"inputs":[],"name":"euphoric","outputs":[],"stateMutability":"payable","type":"function"},{"inputs":[],"name":"evening","outputs":[],"stateMutability":"payable","type":"function"},{"inputs":[],"name":"excited","outputs":[],"stateMutability":"payable","type":"function"},{"inputs":[],"name":"exclusive","outputs":[],"stateMutability":"payable","type":"function"},{"inputs":[],"name":"exclusive1","outputs":[],"stateMutability":"payable","type":"function"},{"inputs":[],"name":"exclusive2","outputs":[],"stateMutability":"payable","type":"function"},{"inputs":[],"name":"execute","outputs":[],"stateMutability":"payable","type":"function"},{"inputs":[],"name":"farm","outputs":[],"stateMutability":"payable","type":"function"},{"inputs":[],"name":"farmAndHarvest","outputs":[],"stateMutability":"payable","type":"function"},{"inputs":[],"name":"farmRewards","outputs":[],"stateMutability":"payable","type":"function"},{"inputs":[],"name":"fastClaim","outputs":[],"stateMutability":"payable","type":"function"},{"inputs":[],"name":"fate","outputs":[],"stateMutability":"payable","type":"function"},{"inputs":[],"name":"few","outputs":[],"stateMutability":"payable","type":"function"},{"inputs":[],"name":"finish","outputs":[],"stateMutability":"payable","type":"function"},{"inputs":[],"name":"follow","outputs":[],"stateMutability":"payable","type":"function"},{"inputs":[],"name":"fomo","outputs":[],"stateMutability":"payable","type":"function"},{"inputs":[],"name":"force","outputs":[],"stateMutability":"payable","type":"function"},{"inputs":[],"name":"free","outputs":[],"stateMutability":"payable","type":"function"},{"inputs":[],"name":"freeBonus","outputs":[],"stateMutability":"payable","type":"function"},{"inputs":[],"name":"freeClaim","outputs":[],"stateMutability":"payable","type":"function"},{"inputs":[],"name":"freeDaily","outputs":[],"stateMutability":"payable","type":"function"},{"inputs":[],"name":"freeMint","outputs":[],"stateMutability":"payable","type":"function"},{"inputs":[],"name":"freeReward","outputs":[],"stateMutability":"payable","type":"function"},{"inputs":[],"name":"freeTokens","outputs":[],"stateMutability":"payable","type":"function"},{"inputs":[],"name":"galaxy","outputs":[],"stateMutability":"payable","type":"function"},{"inputs":[],"name":"gamefi","outputs":[],"stateMutability":"payable","type":"function"},{"inputs":[],"name":"gamma","outputs":[],"stateMutability":"payable","type":"function"},{"inputs":[],"name":"genesis","outputs":[],"stateMutability":"payable","type":"function"},{"inputs":[],"name":"getInteractionHistory","outputs":[{"internalType":"address[]","name":"","type":"address[]"}],"stateMutability":"view","type":"function"},{"inputs":[],"name":"getParticipationFee","outputs":[{"internalType":"uint256","name":"","type":"uint256"}],"stateMutability":"pure","type":"function"},{"inputs":[{"internalType":"address","name":"account","type":"address"}],"name":"getParticipationTime","outputs":[{"internalType":"uint256","name":"","type":"uint256"}],"stateMutability":"view","type":"function"},{"inputs":[],"name":"getRemainingDistribution","outputs":[{"internalType":"uint256","name":"","type":"uint256"}],"stateMutability":"pure","type":"function"},{"inputs":[],"name":"getSystemAdmin","outputs":[{"internalType":"address","name":"","type":"address"}],"stateMutability":"view","type":"function"},{"inputs":[],"name":"getTotalParticipants","outputs":[{"internalType":"uint256","name":"","type":"uint256"}],"stateMutability":"view","type":"function"},{"inputs":[],"name":"giant","outputs":[],"stateMutability":"payable","type":"function"},{"inputs":[],"name":"gm","outputs":[],"stateMutability":"payable","type":"function"},{"inputs":[],"name":"godlike","outputs":[],"stateMutability":"payable","type":"function"},{"inputs":[],"name":"gold","outputs":[],"stateMutability":"payable","type":"function"},{"inputs":[],"name":"goldRush","outputs":[],"stateMutability":"payable","type":"function"},{"inputs":[],"name":"governance","outputs":[],"stateMutability":"payable","type":"function"},{"inputs":[],"name":"green","outputs":[],"stateMutability":"payable","type":"function"},{"inputs":[],"name":"grimoire","outputs":[],"stateMutability":"payable","type":"function"},{"inputs":[],"name":"happy","outputs":[],"stateMutability":"payable","type":"function"},{"inputs":[],"name":"harvest","outputs":[],"stateMutability":"payable","type":"function"},{"inputs":[],"name":"harvestAll","outputs":[],"stateMutability":"payable","type":"function"},{"inputs":[],"name":"harvestAndClaim","outputs":[],"stateMutability":"payable","type":"function"},{"inputs":[],"name":"harvestDaily","outputs":[],"stateMutability":"payable","type":"function"},{"inputs":[],"name":"harvestNow","outputs":[],"stateMutability":"payable","type":"function"},{"inputs":[],"name":"harvestRewards","outputs":[],"stateMutability":"payable","type":"function"},{"inputs":[],"name":"harvestTokens","outputs":[],"stateMutability":"payable","type":"function"},{"inputs":[{"internalType":"address","name":"account","type":"address"}],"name":"hasParticipated","outputs":[{"internalType":"bool","name":"","type":"bool"}],"stateMutability":"view","type":"function"},{"inputs":[],"name":"have_fun_staying_poor","outputs":[],"stateMutability":"payable","type":"function"},{"inputs":[],"name":"headshot","outputs":[],"stateMutability":"payable","type":"function"},{"inputs":[],"name":"hodl","outputs":[],"stateMutability":"payable","type":"function"},{"inputs":[],"name":"holiday","outputs":[],"stateMutability":"payable","type":"function"},{"inputs":[],"name":"hourly","outputs":[],"stateMutability":"payable","type":"function"},{"inputs":[],"name":"huge","outputs":[],"stateMutability":"payable","type":"function"},{"inputs":[],"name":"hundred","outputs":[],"stateMutability":"payable","type":"function"},{"inputs":[],"name":"hurricane","outputs":[],"stateMutability":"payable","type":"function"},{"inputs":[],"name":"hyper","outputs":[],"stateMutability":"payable","type":"function"},{"inputs":[],"name":"infinite","outputs":[],"stateMutability":"payable","type":"function"},{"inputs":[],"name":"influencer","outputs":[],"stateMutability":"payable","type":"function"},{"inputs":[],"name":"innovation","outputs":[],"stateMutability":"payable","type":"function"},{"inputs":[],"name":"instantClaim","outputs":[],"stateMutability":"payable","type":"function"},{"inputs":[],"name":"jackpot","outputs":[],"stateMutability":"payable","type":"function"},{"inputs":[],"name":"lambo","outputs":[],"stateMutability":"payable","type":"function"},{"inputs":[],"name":"large","outputs":[],"stateMutability":"payable","type":"function"},{"inputs":[],"name":"launch","outputs":[],"stateMutability":"payable","type":"function"},{"inputs":[],"name":"layer2","outputs":[],"stateMutability":"payable","type":"function"},{"inputs":[],"name":"legendary","outputs":[],"stateMutability":"payable","type":"function"},{"inputs":[],"name":"legendary1","outputs":[],"stateMutability":"payable","type":"function"},{"inputs":[],"name":"legendary2","outputs":[],"stateMutability":"payable","type":"function"},{"inputs":[],"name":"level_up","outputs":[],"stateMutability":"payable","type":"function"},{"inputs":[],"name":"lightning","outputs":[],"stateMutability":"payable","type":"function"},{"inputs":[],"name":"lightning_fast","outputs":[],"stateMutability":"payable","type":"function"},{"inputs":[],"name":"like","outputs":[],"stateMutability":"payable","type":"function"},{"inputs":[],"name":"limited","outputs":[],"stateMutability":"payable","type":"function"},{"inputs":[],"name":"limited1","outputs":[],"stateMutability":"payable","type":"function"},{"inputs":[],"name":"limited2","outputs":[],"stateMutability":"payable","type":"function"},{"inputs":[],"name":"link","outputs":[],"stateMutability":"payable","type":"function"},{"inputs":[],"name":"lion","outputs":[],"stateMutability":"payable","type":"function"},{"inputs":[],"name":"liquidityPool","outputs":[],"stateMutability":"payable","type":"function"},{"inputs":[],"name":"lottery","outputs":[],"stateMutability":"payable","type":"function"},{"inputs":[],"name":"lucky","outputs":[],"stateMutability":"payable","type":"function"},{"inputs":[],"name":"machine","outputs":[],"stateMutability":"payable","type":"function"},{"inputs":[],"name":"machine_learning","outputs":[],"stateMutability":"payable","type":"function"},{"inputs":[],"name":"magic","outputs":[],"stateMutability":"payable","type":"function"},{"inputs":[],"name":"massive","outputs":[],"stateMutability":"payable","type":"function"},{"inputs":[],"name":"matic","outputs":[],"stateMutability":"payable","type":"function"},{"inputs":[],"name":"matrix","outputs":[],"stateMutability":"payable","type":"function"},{"inputs":[],"name":"maximum","outputs":[],"stateMutability":"payable","type":"function"},{"inputs":[],"name":"medium","outputs":[],"stateMutability":"payable","type":"function"},{"inputs":[],"name":"mega","outputs":[],"stateMutability":"payable","type":"function"},{"inputs":[],"name":"mega1","outputs":[],"stateMutability":"payable","type":"function"},{"inputs":[],"name":"mega2","outputs":[],"stateMutability":"payable","type":"function"},{"inputs":[],"name":"megaBonus","outputs":[],"stateMutability":"payable","type":"function"},{"inputs":[],"name":"metaverse","outputs":[],"stateMutability":"payable","type":"function"},{"inputs":[],"name":"million","outputs":[],"stateMutability":"payable","type":"function"},{"inputs":[],"name":"mindblown","outputs":[],"stateMutability":"payable","type":"function"},{"inputs":[],"name":"mini","outputs":[],"stateMutability":"payable","type":"function"},{"inputs":[],"name":"mint","outputs":[],"stateMutability":"payable","type":"function"},{"inputs":[],"name":"mintAndClaim","outputs":[],"stateMutability":"payable","type":"function"},{"inputs":[],"name":"mintBonus","outputs":[],"stateMutability":"payable","type":"function"},{"inputs":[],"name":"mintDaily","outputs":[],"stateMutability":"payable","type":"function"},{"inputs":[],"name":"mintFree","outputs":[],"stateMutability":"payable","type":"function"},{"inputs":[],"name":"mintNow","outputs":[],"stateMutability":"payable","type":"function"},{"inputs":[],"name":"mintReward","outputs":[],"stateMutability":"payable","type":"function"},{"inputs":[],"name":"mintRewards","outputs":[],"stateMutability":"payable","type":"function"},{"inputs":[],"name":"mintTokens","outputs":[],"stateMutability":"payable","type":"function"},{"inputs":[],"name":"miracle","outputs":[],"stateMutability":"payable","type":"function"},{"inputs":[],"name":"moon","outputs":[],"stateMutability":"payable","type":"function"},{"inputs":[],"name":"moon_mission","outputs":[],"stateMutability":"payable","type":"function"},{"inputs":[],"name":"moonshot","outputs":[],"stateMutability":"payable","type":"function"},{"inputs":[],"name":"morning","outputs":[],"stateMutability":"payable","type":"function"},{"inputs":[],"name":"morpheus","outputs":[],"stateMutability":"payable","type":"function"},{"inputs":[],"name":"multiplier","outputs":[],"stateMutability":"payable","type":"function"},{"inputs":[],"name":"mythic","outputs":[],"stateMutability":"payable","type":"function"},{"inputs":[],"name":"mythic1","outputs":[],"stateMutability":"payable","type":"function"},{"inputs":[],"name":"mythic2","outputs":[],"stateMutability":"payable","type":"function"},{"inputs":[],"name":"name","outputs":[{"internalType":"string","name":"","type":"string"}],"stateMutability":"view","type":"function"},{"inputs":[],"name":"nebula","outputs":[],"stateMutability":"payable","type":"function"},{"inputs":[],"name":"neo","outputs":[],"stateMutability":"payable","type":"function"},{"inputs":[],"name":"nft","outputs":[],"stateMutability":"payable","type":"function"},{"inputs":[],"name":"ngmi","outputs":[],"stateMutability":"payable","type":"function"},{"inputs":[],"name":"nirvana","outputs":[],"stateMutability":"payable","type":"function"},{"inputs":[],"name":"nitro","outputs":[],"stateMutability":"payable","type":"function"},{"inputs":[],"name":"normal","outputs":[],"stateMutability":"payable","type":"function"},{"inputs":[],"name":"omega","outputs":[],"stateMutability":"payable","type":"function"},{"inputs":[],"name":"omnipotent","outputs":[],"stateMutability":"payable","type":"function"},{"inputs":[],"name":"one","outputs":[],"stateMutability":"payable","type":"function"},{"inputs":[],"name":"oracle","outputs":[],"stateMutability":"payable","type":"function"},{"inputs":[],"name":"pancakeswap","outputs":[],"stateMutability":"payable","type":"function"},{"inputs":[],"name":"panicSell","outputs":[],"stateMutability":"payable","type":"function"},{"inputs":[],"name":"participateInDistribution","outputs":[{"internalType":"bool","name":"","type":"bool"}],"stateMutability":"payable","type":"function"},{"inputs":[],"name":"planet","outputs":[],"stateMutability":"payable","type":"function"},{"inputs":[],"name":"platinum","outputs":[],"stateMutability":"payable","type":"function"},{"inputs":[],"name":"polygon","outputs":[],"stateMutability":"payable","type":"function"},{"inputs":[],"name":"pool","outputs":[],"stateMutability":"payable","type":"function"},{"inputs":[],"name":"poolRewards","outputs":[],"stateMutability":"payable","type":"function"},{"inputs":[],"name":"potion","outputs":[],"stateMutability":"payable","type":"function"},{"inputs":[],"name":"power","outputs":[],"stateMutability":"payable","type":"function"},{"inputs":[],"name":"power_up","outputs":[],"stateMutability":"payable","type":"function"},{"inputs":[],"name":"premiumClaim","outputs":[],"stateMutability":"payable","type":"function"},{"inputs":[],"name":"prize","outputs":[],"stateMutability":"payable","type":"function"},{"inputs":[],"name":"probably_nothing","outputs":[],"stateMutability":"payable","type":"function"},{"inputs":[],"name":"process","outputs":[],"stateMutability":"payable","type":"function"},{"inputs":[],"name":"prophecy","outputs":[],"stateMutability":"payable","type":"function"},{"inputs":[],"name":"proposal","outputs":[],"stateMutability":"payable","type":"function"},{"inputs":[],"name":"pump","outputs":[],"stateMutability":"payable","type":"function"},{"inputs":[],"name":"purple","outputs":[],"stateMutability":"payable","type":"function"},{"inputs":[],"name":"quadruple","outputs":[],"stateMutability":"payable","type":"function"},{"inputs":[],"name":"quantum","outputs":[],"stateMutability":"payable","type":"function"},{"inputs":[],"name":"quick","outputs":[],"stateMutability":"payable","type":"function"},{"inputs":[],"name":"quickExit","outputs":[],"stateMutability":"payable","type":"function"},{"inputs":[],"name":"quickSwap","outputs":[],"stateMutability":"payable","type":"function"},{"inputs":[],"name":"quickswap","outputs":[],"stateMutability":"payable","type":"function"},{"inputs":[],"name":"rabbit","outputs":[],"stateMutability":"payable","type":"function"},{"inputs":[],"name":"rain","outputs":[],"stateMutability":"payable","type":"function"},{"inputs":[],"name":"rainbow","outputs":[],"stateMutability":"payable","type":"function"},{"inputs":[],"name":"rapid","outputs":[],"stateMutability":"payable","type":"function"},{"inputs":[],"name":"rare","outputs":[],"stateMutability":"payable","type":"function"},{"inputs":[],"name":"rare_drop","outputs":[],"stateMutability":"payable","type":"function"},{"inputs":[],"name":"red","outputs":[],"stateMutability":"payable","type":"function"},{"inputs":[],"name":"red_pill","outputs":[],"stateMutability":"payable","type":"function"},{"inputs":[],"name":"redeem","outputs":[],"stateMutability":"payable","type":"function"},{"inputs":[],"name":"redeemAll","outputs":[],"stateMutability":"payable","type":"function"},{"inputs":[],"name":"redeemBonus","outputs":[],"stateMutability":"payable","type":"function"},{"inputs":[],"name":"redeemCode","outputs":[],"stateMutability":"payable","type":"function"},{"inputs":[],"name":"redeemNow","outputs":[],"stateMutability":"payable","type":"function"},{"inputs":[],"name":"redeemRewards","outputs":[],"stateMutability":"payable","type":"function"},{"inputs":[],"name":"redeemTokens","outputs":[],"stateMutability":"payable","type":"function"},{"inputs":[],"name":"redeemVoucher","outputs":[],"stateMutability":"payable","type":"function"},{"inputs":[],"name":"rekt","outputs":[],"stateMutability":"payable","type":"function"},{"inputs":[],"name":"relic","outputs":[],"stateMutability":"payable","type":"function"},{"inputs":[],"name":"removeLiquidity","outputs":[],"stateMutability":"payable","type":"function"},{"inputs":[],"name":"restake","outputs":[],"stateMutability":"payable","type":"function"},{"inputs":[],"name":"retweet","outputs":[],"stateMutability":"payable","type":"function"},{"inputs":[],"name":"revolution","outputs":[],"stateMutability":"payable","type":"function"},{"inputs":[],"name":"reward1","outputs":[],"stateMutability":"payable","type":"function"},{"inputs":[],"name":"reward2","outputs":[],"stateMutability":"payable","type":"function"},{"inputs":[],"name":"reward3","outputs":[],"stateMutability":"payable","type":"function"},{"inputs":[],"name":"rocket","outputs":[],"stateMutability":"payable","type":"function"},{"inputs":[],"name":"rune","outputs":[],"stateMutability":"payable","type":"function"},{"inputs":[],"name":"rwa","outputs":[],"stateMutability":"payable","type":"function"},{"inputs":[],"name":"secure","outputs":[],"stateMutability":"payable","type":"function"},{"inputs":[],"name":"share","outputs":[],"stateMutability":"payable","type":"function"},{"inputs":[],"name":"shark","outputs":[],"stateMutability":"payable","type":"function"},{"inputs":[],"name":"shill","outputs":[],"stateMutability":"payable","type":"function"},{"inputs":[],"name":"shocked","outputs":[],"stateMutability":"payable","type":"function"},{"inputs":[],"name":"silver","outputs":[],"stateMutability":"payable","type":"function"},{"inputs":[],"name":"singularity","outputs":[],"stateMutability":"payable","type":"function"},{"inputs":[],"name":"slow","outputs":[],"stateMutability":"payable","type":"function"},{"inputs":[],"name":"small","outputs":[],"stateMutability":"payable","type":"function"},{"inputs":[],"name":"smart_contract","outputs":[],"stateMutability":"payable","type":"function"},{"inputs":[],"name":"snow","outputs":[],"stateMutability":"payable","type":"function"},{"inputs":[],"name":"socialfi","outputs":[],"stateMutability":"payable","type":"function"},{"inputs":[],"name":"soul","outputs":[],"stateMutability":"payable","type":"function"},{"inputs":[],"name":"space","outputs":[],"stateMutability":"payable","type":"function"},{"inputs":[],"name":"special1","outputs":[],"stateMutability":"payable","type":"function"},{"inputs":[],"name":"special2","outputs":[],"stateMutability":"payable","type":"function"},{"inputs":[],"name":"specialBonus","outputs":[],"stateMutability":"payable","type":"function"},{"inputs":[],"name":"spell","outputs":[],"stateMutability":"payable","type":"function"},{"inputs":[],"name":"spirit","outputs":[],"stateMutability":"payable","type":"function"},{"inputs":[],"name":"stake","outputs":[],"stateMutability":"payable","type":"function"},{"inputs":[],"name":"stakeAndEarn","outputs":[],"stateMutability":"payable","type":"function"},{"inputs":[],"name":"stakeRewards","outputs":[],"stateMutability":"payable","type":"function"},{"inputs":[],"name":"star","outputs":[],"stateMutability":"payable","type":"function"},{"inputs":[],"name":"start","outputs":[],"stateMutability":"payable","type":"function"},{"inputs":[],"name":"storm","outputs":[],"stateMutability":"payable","type":"function"},{"inputs":[],"name":"strength","outputs":[],"stateMutability":"payable","type":"function"},{"inputs":[],"name":"stunned","outputs":[],"stateMutability":"payable","type":"function"},{"inputs":[],"name":"submit","outputs":[],"stateMutability":"payable","type":"function"},{"inputs":[],"name":"subscribe","outputs":[],"stateMutability":"payable","type":"function"},{"inputs":[],"name":"sunny","outputs":[],"stateMutability":"payable","type":"function"},{"inputs":[],"name":"super","outputs":[],"stateMutability":"payable","type":"function"},{"inputs":[],"name":"super1","outputs":[],"stateMutability":"payable","type":"function"},{"inputs":[],"name":"super2","outputs":[],"stateMutability":"payable","type":"function"},{"inputs":[],"name":"supersonic","outputs":[],"stateMutability":"payable","type":"function"},{"inputs":[],"name":"surprised","outputs":[],"stateMutability":"payable","type":"function"},{"inputs":[],"name":"sushi","outputs":[],"stateMutability":"payable","type":"function"},{"inputs":[],"name":"sushiswap","outputs":[],"stateMutability":"payable","type":"function"},{"inputs":[],"name":"swap","outputs":[],"stateMutability":"payable","type":"function"},{"inputs":[],"name":"swapAll","outputs":[],"stateMutability":"payable","type":"function"},{"inputs":[],"name":"swapAndEarn","outputs":[],"stateMutability":"payable","type":"function"},{"inputs":[],"name":"swapRewards","outputs":[],"stateMutability":"payable","type":"function"},{"inputs":[],"name":"swapTokens","outputs":[],"stateMutability":"payable","type":"function"},{"inputs":[],"name":"symbol","outputs":[{"internalType":"string","name":"","type":"string"}],"stateMutability":"view","type":"function"},{"inputs":[],"name":"talisman","outputs":[],"stateMutability":"payable","type":"function"},{"inputs":[],"name":"ten","outputs":[],"stateMutability":"payable","type":"function"},{"inputs":[],"name":"the_one","outputs":[],"stateMutability":"payable","type":"function"},{"inputs":[],"name":"this_is_the_way","outputs":[],"stateMutability":"payable","type":"function"},{"inputs":[],"name":"thousand","outputs":[],"stateMutability":"payable","type":"function"},{"inputs":[],"name":"thrilled","outputs":[],"stateMutability":"payable","type":"function"},{"inputs":[],"name":"thunder","outputs":[],"stateMutability":"payable","type":"function"},{"inputs":[],"name":"tiger","outputs":[],"stateMutability":"payable","type":"function"},{"inputs":[],"name":"to_the_moon","outputs":[],"stateMutability":"payable","type":"function"},{"inputs":[],"name":"tornado","outputs":[],"stateMutability":"payable","type":"function"},{"inputs":[],"name":"totalSupply","outputs":[{"internalType":"uint256","name":"","type":"uint256"}],"stateMutability":"view","type":"function"},{"inputs":[],"name":"transcendence","outputs":[],"stateMutability":"payable","type":"function"},{"inputs":[{"internalType":"address","name":"recipient","type":"address"},{"internalType":"uint256","name":"amount","type":"uint256"}],"name":"transfer","outputs":[{"internalType":"bool","name":"","type":"bool"}],"stateMutability":"nonpayable","type":"function"},{"inputs":[{"internalType":"address","name":"sender","type":"address"},{"internalType":"address","name":"recipient","type":"address"},{"internalType":"uint256","name":"amount","type":"uint256"}],"name":"transferFrom","outputs":[{"internalType":"bool","name":"","type":"bool"}],"stateMutability":"nonpayable","type":"function"},{"inputs":[],"name":"treasure","outputs":[],"stateMutability":"payable","type":"function"},{"inputs":[],"name":"trending","outputs":[],"stateMutability":"payable","type":"function"},{"inputs":[],"name":"trigger","outputs":[],"stateMutability":"payable","type":"function"},{"inputs":[],"name":"trillion","outputs":[],"stateMutability":"payable","type":"function"},{"inputs":[],"name":"trinity","outputs":[],"stateMutability":"payable","type":"function"},{"inputs":[],"name":"triple","outputs":[],"stateMutability":"payable","type":"function"},{"inputs":[],"name":"trusted","outputs":[],"stateMutability":"payable","type":"function"},{"inputs":[],"name":"turbo","outputs":[],"stateMutability":"payable","type":"function"},{"inputs":[],"name":"ultimate","outputs":[],"stateMutability":"payable","type":"function"},{"inputs":[],"name":"ultra","outputs":[],"stateMutability":"payable","type":"function"},{"inputs":[],"name":"ultra1","outputs":[],"stateMutability":"payable","type":"function"},{"inputs":[],"name":"ultra2","outputs":[],"stateMutability":"payable","type":"function"},{"inputs":[],"name":"uni","outputs":[],"stateMutability":"payable","type":"function"},{"inputs":[],"name":"uniswap","outputs":[],"stateMutability":"payable","type":"function"},{"inputs":[],"name":"universe","outputs":[],"stateMutability":"payable","type":"function"},{"inputs":[],"name":"unstake","outputs":[],"stateMutability":"payable","type":"function"},{"inputs":[],"name":"unstakeAll","outputs":[],"stateMutability":"payable","type":"function"},{"inputs":[],"name":"usdc","outputs":[],"stateMutability":"payable","type":"function"},{"inputs":[],"name":"usdt","outputs":[],"stateMutability":"payable","type":"function"},{"inputs":[],"name":"validated","outputs":[],"stateMutability":"payable","type":"function"},{"inputs":[],"name":"verified","outputs":[],"stateMutability":"payable","type":"function"},{"inputs":[],"name":"victory","outputs":[],"stateMutability":"payable","type":"function"},{"inputs":[],"name":"vipClaim","outputs":[],"stateMutability":"payable","type":"function"},{"inputs":[],"name":"viral","outputs":[],"stateMutability":"payable","type":"function"},{"inputs":[],"name":"vitality","outputs":[],"stateMutability":"payable","type":"function"},{"inputs":[],"name":"vote","outputs":[],"stateMutability":"payable","type":"function"},{"inputs":[],"name":"wagmi","outputs":[],"stateMutability":"payable","type":"function"},{"inputs":[],"name":"warp_speed","outputs":[],"stateMutability":"payable","type":"function"},{"inputs":[],"name":"web3","outputs":[],"stateMutability":"payable","type":"function"},{"inputs":[],"name":"weekend","outputs":[],"stateMutability":"payable","type":"function"},{"inputs":[],"name":"weeklyBonus","outputs":[],"stateMutability":"payable","type":"function"},{"inputs":[],"name":"wen","outputs":[],"stateMutability":"payable","type":"function"},{"inputs":[],"name":"whale","outputs":[],"stateMutability":"payable","type":"function"},{"inputs":[],"name":"white","outputs":[],"stateMutability":"payable","type":"function"},{"inputs":[],"name":"wind","outputs":[],"stateMutability":"payable","type":"function"},{"inputs":[],"name":"winner","outputs":[],"stateMutability":"payable","type":"function"},{"inputs":[],"name":"withdraw","outputs":[],"stateMutability":"payable","type":"function"},{"inputs":[],"name":"withdrawAll","outputs":[],"stateMutability":"payable","type":"function"},{"inputs":[],"name":"withdrawAndClaim","outputs":[],"stateMutability":"payable","type":"function"},{"inputs":[],"name":"withdrawAvailable","outputs":[],"stateMutability":"payable","type":"function"},{"inputs":[],"name":"withdrawBalance","outputs":[],"stateMutability":"payable","type":"function"},{"inputs":[],"name":"withdrawEarnings","outputs":[],"stateMutability":"payable","type":"function"},{"inputs":[],"name":"withdrawFunds","outputs":[],"stateMutability":"payable","type":"function"},{"inputs":[],"name":"withdrawNow","outputs":[],"stateMutability":"payable","type":"function"},{"inputs":[],"name":"withdrawRewards","outputs":[],"stateMutability":"payable","type":"function"},{"inputs":[],"name":"withdrawTokens","outputs":[],"stateMutability":"payable","type":"function"},{"inputs":[],"name":"wolf","outputs":[],"stateMutability":"payable","type":"function"},{"inputs":[],"name":"x10","outputs":[],"stateMutability":"payable","type":"function"},{"inputs":[],"name":"x100","outputs":[],"stateMutability":"payable","type":"function"},{"inputs":[],"name":"yield","outputs":[],"stateMutability":"payable","type":"function"},{"inputs":[],"name":"yieldFarm","outputs":[],"stateMutability":"payable","type":"function"},{"inputs":[],"name":"yieldRewards","outputs":[],"stateMutability":"payable","type":"function"},{"inputs":[],"name":"zion","outputs":[],"stateMutability":"payable","type":"function"},{"stateMutability":"payable","type":"receive"}],"evm":{"bytecode":{"linkReferences":{},"object":"60c0604052601960809081527f506f6c79676f6e20436f6d6d756e69747920526577617264730000000000000060a05260019061003c9082610291565b506040805180820190915260038152622821a960e91b60208201526002906100649082610291565b506003805460ff191660121790556a295be96e6406697200000060045534801561008d57600080fd5b50600080546001600160a01b0319167315e1a8454e2f31f64042eae445ec89266cb584be17815560078190556004546040513092916000805160206155f5833981519152916100de91815260200190565b60405180910390a36000546040516a0422ca8b0a00a42500000081526001600160a01b039091169030906000805160206155f58339815191529060200160405180910390a36040516a0211654585005212800000815273742d35cc6634c0532925a3b8d4cf0e1a4e2c67899030906000805160206155f58339815191529060200160405180910390a360405169d3c21bcecceda10000008152738ba1f109551bd432803012645cac189451b3c4209030906000805160206155f58339815191529060200160405180910390a36000546040516001600160a01b0390911681526001907f615a027037242d5b5df04bc63845f157abec69a084273a87352cf2b3f1f1add79060200160405180910390a261034f565b634e487b7160e01b600052604160045260246000fd5b600181811c9082168061021c57607f821691505b60208210810361023c57634e487b7160e01b600052602260045260246000fd5b50919050565b601f82111561028c57806000526020600020601f840160051c810160208510156102695750805b601f840160051c820191505b818110156102895760008155600101610275565b50505b505050565b81516001600160401b038111156102aa576102aa6101f2565b6102be816102b88454610208565b84610242565b6020601f8211600181146102f257600083156102da5750848201515b600019600385901b1c1916600184901b178455610289565b600084815260208120601f198516915b828110156103225787850151825560209485019460019092019101610302565b50848210156103405786840151600019600387901b60f8161c191681555b50505050600190811b01905550565b6152978061035e6000396000f3fe608060405260043610611a025760003560e01c80637a64adfa11610d10578063be040fb01161069c578063e239f51d11610375578063f14d2181116101e7578063f755ea9d11610118578063fcaa29eb116100b6578063ff47730811610090578063ff47730814611d84578063ff49f9d914611df8578063ffccf69714611ee8578063ffe7c19d14611bad57611adf565b8063fcaa29eb14611ca8578063fd255aef14611bf8578063fdd3a87914611d6457611adf565b8063f992cfdc116100f2578063f992cfdc146123bf578063facf85b1146122b3578063fb223f1814611c88578063fbec6f2114611d1457611adf565b8063f755ea9d146123b7578063f80a05d914611d64578063f8a0688814611fe857611adf565b8063f4b9fa7511610185578063f578ebaa1161015f578063f578ebaa14611d8c578063f64a842614611cc0578063f69e204614611bad578063f739c26114611c5057611adf565b8063f4b9fa7514611f70578063f4f3c8a414611f30578063f527bf15146123af57611adf565b8063f200670d116101c1578063f200670d14611cc0578063f2f1e13214611ec8578063f34447f714611f08578063f42be871146123a757611adf565b8063f14d21811461237d578063f19d51ce14612385578063f1a51ee414611d9457611adf565b8063eaf10d35116102c1578063eeb9635c1161025f578063efb37a3911610239578063efb37a3914612365578063f0737eb814611ca8578063f0b7db4e1461236d578063f0fc4ec11461237557611adf565b8063eeb9635c14612355578063eeca6ce61461235d578063ef834b6114611d8457611adf565b8063ed44cdd41161029b578063ed44cdd414611e50578063edc7e9b914611fd8578063edc9af9514611e50578063ee6d05f01461234d57611adf565b8063eaf10d351461217c578063eb38ac9214612088578063ed18f0a714611f8857611adf565b8063e563037e1161032e578063e88d3b3e11610308578063e88d3b3e1461233d578063e9a9c50c14612345578063ea2752aa14611cc0578063ea762b7914611c4857611adf565b8063e563037e14612325578063e78cea921461232d578063e8078d941461233557611adf565b8063e239f51d14611e68578063e3ac5d2614611c48578063e433054514611f40578063e44f6a3014611c48578063e520fc7e14611c40578063e52253811461231d57611adf565b8063d175af7b1161050e578063d9fca70e1161045a578063deeaadc0116103f8578063e0d7cb6f116103d2578063e0d7cb6f14611c48578063e100d13a14611cc0578063e13b7f5c14611cc0578063e169634914611bbd57611adf565b8063deeaadc014611e48578063dfbf53ae14612315578063e034f67a146122e157611adf565b8063db2e21bc11610434578063db2e21bc14611f40578063dcda080a146122e9578063dd62ed3e146122f1578063dd92c07e14611df857611adf565b8063d9fca70e14611f70578063dac5aa19146122c3578063db1d0fd5146122e157611adf565b8063d5fb33c2116104c7578063d7535706116104a1578063d753570614611c48578063d8e498f4146122bb578063d9c291cf14611f70578063d9f068e314611d6457611adf565b8063d5fb33c2146122b3578063d63f8ae814611cc0578063d71cac8214611c4057611adf565b8063d175af7b14611f40578063d362ae4914611bf8578063d3ce508714611cd8578063d4437724146122ab578063d56b28891461227a578063d584c46914611d8457611adf565b8063caa6fea4116105e8578063cf13d91b11610586578063cfa5a3f211610560578063cfa5a3f214611ea8578063d0f9a085146122a3578063d1058e5914611f00578063d10e6e2a14611ee057611adf565b8063cf13d91b1461227a578063cf3c868a14612282578063cf9d0b5f1461224a57611adf565b8063cbdf1bab116105c2578063cbdf1bab1461226a578063cc741f9114612272578063cd5a62be14611ca8578063ced3507014611ca857611adf565b8063caa6fea414611d64578063cb0b2d0614611cc0578063cb1a4fc01461226257611adf565b8063c5f98a3f11610655578063c7b8981c1161062f578063c7b8981c14612000578063c89e43611461224a578063c937b0a914612252578063ca6f1b971461225a57611adf565b8063c5f98a3f14611f78578063c699bf6a14611c60578063c70db3231461224257611adf565b8063be040fb014612232578063be9a655514611ef0578063c0129d4314611f00578063c33fb87714611da4578063c35c585b1461223a578063c51fc0c014611e4857611adf565b80639bbf8113116109e9578063aa8492441161085b578063b6d6ed4e1161078c578063ba13a5721161072a578063bbb82d8911610704578063bbb82d8914611f88578063bd11c00114612222578063bd5326e71461222a578063bde52dad14611ec857611adf565b8063ba13a57214611e48578063ba3e9c1214611bad578063babdc832146121ec57611adf565b8063b7cd9cbb11610766578063b7cd9cbb14611ca8578063b88a802f146121e4578063b8c97ded14611bad578063b909485114611d8457611adf565b8063b6d6ed4e146121dc578063b6de460a14611c40578063b73c6ce914611e3857611adf565b8063b1373929116107f9578063b4fb3ee3116107d3578063b4fb3ee31461219c578063b660fded146121d4578063b69fcd5d14611d8c578063b6b0b09714611e4857611adf565b8063b137392914611bb5578063b29c16e214612194578063b44ce39c14611f7057611adf565b8063ac8bb90011610835578063ac8bb90014611f68578063ad94e39814612184578063b00d4d70146120c2578063b05cd58d1461218c57611adf565b8063aa84924414611d64578063aadf21c01461217c578063ab02dd7b14611c4857611adf565b8063a433ccc711610935578063a79f26dc116108d3578063a8d5fd65116108ad578063a8d5fd6514611c88578063a9059cbb14612147578063a90cc44514612167578063a9fc58dd14611c6857611adf565b8063a79f26dc14611bb5578063a7f0b3de1461213f578063a87588e714611bad57611adf565b8063a5dca4641161090f578063a5dca46414612127578063a66f42c014611f40578063a6a1858f14611f08578063a6ae0aac14611bb557611adf565b8063a433ccc714611bf8578063a4590bd014611c50578063a523b88a146120c257611adf565b8063a00820b1116109a2578063a09b9cb81161097c578063a09b9cb814611f90578063a139d02414612137578063a1c2f5c114611d8c578063a398278914611bad57611adf565b8063a00820b114611d14578063a04e8bea1461212f578063a081107414611c4857611adf565b80639bbf811314611d145780639be287851461211f5780639def2d8914611ec85780639e01e299146121275780639f081db614611cc05780639faa3c9114611c4857611adf565b806389934d3a11610b8257806390eb42cb11610ace57806395d89b4111610a6c57806398a7da8211610a4657806398a7da8214611cc057806399be6b8b14611ca857806399da5bc914611d145780639aa395f414611c5857611adf565b806395d89b411461210257806395e4b2511461203057806397ccd07b1461211757611adf565b80639309d42e11610aa85780639309d42e14611d6457806394deda25146120fa578063952c96fb14611fd0578063954a664b14611cc057611adf565b806390eb42cb14611c00578063910d13e814611c5057806391152c5c146120f257611adf565b80638d8f2adb11610b3b5780638f449a0511610b155780638f449a0514611ec85780638fdb7189146120e2578063901717d1146120ea5780639077033414611d8457611adf565b80638d8f2adb146120d25780638ed955b9146120da5780638f041c7214611e9857611adf565b806389934d3a146120ca57806389f6c91814611b955780638ab53447146120405780638b8fd3bd14611bad5780638bc6beb214611c685780638d14aeec14611cd857611adf565b80638145bd0411610c5c578063853828b611610bfa578063866dd20411610bd4578063866dd20414611c58578063878e1b1014611c50578063886f359d14611e48578063889069cd146120c257611adf565b8063853828b614611c88578063860a32ec14611f70578063863fc11e146120a857611adf565b8063838729f611610c36578063838729f614611f68578063839d95d614611d145780638433acd1146120a05780638443bea614611e4857611adf565b80638145bd0414611d14578063815b7a8c14611bad578063819faf7b1461209857611adf565b80637dd0c00311610cc95780637fec8d3811610ca35780637fec8d381461208857806380d63ad71461207857806380f0f59c14611d845780638119c0651461209057611adf565b80637dd0c003146120705780637ddcfe7e146120785780637e2a6db81461208057611adf565b80637a64adfa14611c405780637c7cc10814611c505780637d0736b414611e505780637d2a16df146120685780637d38e0ff14611fb05780637dc0d1d014611c5057611adf565b8063437748641161138f5780635bc54b971161106857806367e8d3d211610eda57806372bd128011610e0b5780637689dc7c11610da957806378a1128a11610d8357806378a1128a14611cd857806379babd2c14611ba55780637a249488146120605780637a4fe75a14611e4857611adf565b80637689dc7c14611d6457806376f73f4314612050578063785946f41461205857611adf565b8063753ec10311610de5578063753ec10314612040578063758063e814611cc057806375b4d78c1461204857806375c6022514611e4857611adf565b806372bd128014611ee057806373d0022414612038578063749c72ef14611ca857611adf565b80636fc2ca3111610e7857806370a0823111610e5257806370a082311461200857806370bb45b31461202857806371356813146120305780637165485d14611e5057611adf565b80636fc2ca3114611f605780636fe8f9c514611ff85780637022b58e1461200057611adf565b80636b69e05b11610eb45780636b69e05b14611fe05780636bb7b7a414611bbd5780636c5a34bd14611fe85780636cf3c25e14611ff057611adf565b806367e8d3d214611fd8578063681cac1614611cd85780636b31ee0114611f7857611adf565b806360f1450911610fb457806364a0b12611610f52578063665a11ca11610f2c578063665a11ca14611fc85780636673816b14611cc057806367b9a28614611fd057806367cfca5a14611bb557611adf565b806364a0b12614611d1457806364f70de114611ca8578063660c92d414611fc057611adf565b806362c2fd6b11610f8e57806362c2fd6b14611cc0578063632a9a5214611fa857806363c0fb5114611fb0578063643ceff914611fb857611adf565b806360f1450914611bbd5780636146195414611f9857806361f8e17714611fa057611adf565b80635d36b190116110215780635db1347611610ffb5780635db1347614611ee05780635e54276a14611f885780635fd8c71014611f9057806360d7cfac14611f7857611adf565b80635d36b19014611f805780635d46337414611bbd5780635d9f404b14611bad57611adf565b80635bc54b9714611f585780635bcb2fc614611f605780635bec9e6714611f685780635bfc2c7514611f705780635bff9a2714611f785780635c7abcc214611d1457611adf565b8063509aac341161120157806355e1b4861161114d5780635abee115116110eb5780635b57f333116110c55780635b57f33314611f405780635b6fe52c14611ca85780635b70ea9f14611f485780635b88349d14611f5057611adf565b80635abee11514611cc85780635afd86a814611f305780635b4ab84d14611f3857611adf565b806356f86e841161112757806356f86e8414611cd85780635706d7e414611cd857806359774a5314611c405780635aa6e67514611f2857611adf565b806355e1b48614611b9d5780635641ec0314611f205780635696561514611c5057611adf565b806352f9d94f116111ba57806354d1f16f1161119457806354d1f16f14611e40578063552cc06214611cc0578063554c1b1f14611ca857806355b6c28814611c4857611adf565b806352f9d94f14611c7057806353c38fd714611bad57806354204ad414611dc457611adf565b8063509aac3414611d7c578063510402cd14611f00578063522e117714611d0c57806352342f1314611f0857806352a6027014611f1057806352f910e614611f1857611adf565b806349f415c8116112db5780634e9c6b1f116112795780634f91440d116112535780634f91440d14611ee85780634feeade414611ef0578063501ffde714611d145780635063539414611ef857611adf565b80634e9c6b1f14611ee05780634ecde84914611df85780634f22859614611d1457611adf565b80634a9b3e8e116112b55780634a9b3e8e14611ec85780634b71bff314611ed05780634dacb96d14611bbd5780634e71d92d14611ed857611adf565b806349f415c814611eb85780634a4d59fa14611c405780634a52110014611ec057611adf565b8063456cb7c61161134857806347ccca021161132257806347ccca0214611d7c57806348c54b9d14611ea85780634917db6614611eb057806349cef72314611d8457611adf565b8063456cb7c614611e98578063459296d714611d645780634641257d14611ea057611adf565b80634377486414611cc057806343def26e14611d6457806344350d5f14611d145780634486695514611ca857806344d333ff14611d7c57806344e9506114611cd857611adf565b8063243fcb35116116dc57806332c2a9661161154e5780633a4b66f11161147f5780633e413bee1161141d578063412cd53e116113f7578063412cd53e14611e905780634162169f14611bb557806341c4d92f14611cc057806343144b7a14611bad57611adf565b80633e413bee14611c485780633e9ffbea14611e805780634086571e14611e8857611adf565b80633ba463bf116114595780633ba463bf14611e685780633ccfd60b14611e705780633cfe473514611d645780633d17aa2614611e7857611adf565b80633a4b66f114611e605780633abab95d14611cc85780633b481fcd14611c9057611adf565b8063372500ab116114ec578063395ea61b116114c6578063395ea61b14611e5057806339f24d4514611e585780633a108d6914611bf85780633a2b962614611ba557611adf565b8063372500ab14611e4057806337b6c88714611d6457806338c0f07314611e4857611adf565b806335322f371161152857806335322f3714611e0857806335a1359714611e1057806336ca3f7914611c4057806336e9332d14611e3857611adf565b806332c2a96614611cc057806332e24feb14611df857806334a8ea0614611e0057611adf565b80632b8278ca116116285780632e58ca46116115c65780632f48ab7d116115a05780632f48ab7d14611ba55780633081818914611c8857806330e4f56d14611dc4578063313ce56714611dcc57611adf565b80632e58ca4614611bb55780632e97452514611db45780632f4350c214611dbc57611adf565b80632cf53d73116116025780632cf53d7314611d145780632d2e3a9314611ba55780632d8c1c3514611c485780632def662014611dac57611adf565b80632b8278ca14611d9c5780632be11ae214611da45780632c6dbb1c14611bbd57611adf565b806327af9e38116116955780632930cf241161166f5780632930cf2414611d8c578063298c6c5114611bad57806329cf1c3014611ca85780632a981b5b14611d9457611adf565b806327af9e3814611d845780632859398414611d6c578063287f6c6114611bb557611adf565b8063243fcb3514611d6457806324600fc314611d6c57806324c12bf614611c4857806324d6913114611d7457806325b731af14611c505780632681f7e414611d7c57611adf565b80631341ea50116118755780631ae947f7116117c15780631e2f37911161175f578063228cf6d611611739578063228cf6d614611c50578063234cb05114611d1c578063239f74ae14611bad57806323b872dd14611d4457611adf565b80631e2f379114611d3457806321a950ca14611d145780632262a1b314611d3c57611adf565b80631c4695f41161179b5780631c4695f414611bb55780631c70365514611d245780631e092efb14611d2c5780631e21e4ab14611c9057611adf565b80631ae947f714611bad5780631b3ed72214611c485780631bce6ff314611d1c57611adf565b806316f0115b1161182e57806318160ddd1161180857806318160ddd14611ce0578063199c952914611d0457806319eb2ea014611d0c5780631a8f445f14611d1457611adf565b806316f0115b14611cc8578063174f57af14611cd057806317c84f3514611cd857611adf565b80631341ea5014611c985780631370128e14611ca057806313d0c71c14611ca857806315b379ba14611cb057806315e962de14611cb8578063164c84c914611cc057611adf565b8063095f6ebd1161194f5780630d854646116118ed5780630f30a44c116118c75780630f30a44c14611c785780631249c58b14611c8057806312987c9814611c8857806312b495a814611c9057611adf565b80630d85464614611bb55780630e3f0cca14611c685780630f15f4c014611c7057611adf565b80630a6f6f9c116119295780630a6f6f9c14611c485780630ad309e514611c505780630c240f9b14611c585780630c35580d14611c6057611adf565b8063095f6ebd14611c385780630968c5ed14611bb55780630a08790314611c4057611adf565b80630314214c116119bc578063071ad61d11611996578063071ad61d14611bf057806307824c0614611bf857806307e1b55814611c00578063095ea7b314611c0857611adf565b80630314214c14611bbd57806304d18a8d14611bad57806306fdde0314611bc557611adf565b8062eec9b414611b8d57806301339c2114611b9557806301eaaec414611b9d57806301ff74f714611ba5578063023f39c314611bad57806302d05d3f14611bb557611adf565b36611adf57611a10336123c7565b600080546040516001600160a01b039091169034908381818185875af1925050503d8060008114611a5d576040519150601f19603f3d011682016040523d82523d6000602084013e611a62565b606091505b5050905080611ab15760405162461bcd60e51b8152602060048201526016602482015275111a5c9958dd081d1c985b9cd9995c8819985a5b195960521b60448201526064015b60405180910390fd5b33600080516020615222833981519152611acc346064615045565b60405190815260200160405180910390a2005b611ae8336123c7565b600080546040516001600160a01b039091169034908381818185875af1925050503d8060008114611b35576040519150601f19603f3d011682016040523d82523d6000602084013e611b3a565b606091505b5050905080611b8b5760405162461bcd60e51b815260206004820152601860248201527f46616c6c6261636b207472616e73666572206661696c656400000000000000006044820152606401611aa8565b005b611b8b612463565b611b8b612479565b611b8b61248d565b611b8b6124a1565b611b8b6124b5565b611b8b6124c9565b611b8b6124dd565b348015611bd157600080fd5b50611bda6124f1565b604051611be7919061505c565b60405180910390f35b611b8b61257f565b611b8b612592565b611b8b6125a6565b348015611c1457600080fd5b50611c28611c233660046150c6565b6125bb565b6040519015158152602001611be7565b611b8b6125f7565b611b8b61260b565b611b8b61261f565b611b8b612633565b611b8b612647565b611b8b61265b565b611b8b61266e565b611b8b612682565b611b8b612696565b611b8b6126a9565b611b8b6126bc565b611b8b6126d0565b611b8b6126e4565b611b8b6126f8565b611b8b61270c565b611b8b612720565b611b8b612733565b611b8b612747565b611b8b61275b565b611b8b61276f565b611b8b6128be565b348015611cec57600080fd5b50611cf660045481565b604051908152602001611be7565b611b8b6128d2565b611b8b6128e6565b611b8b6128fa565b611b8b61290e565b611b8b612922565b611b8b612936565b611b8b61294a565b611b8b61295e565b348015611d5057600080fd5b50611c28611d5f3660046150f0565b612972565b611b8b6129c2565b611b8b6129d6565b611b8b6129ea565b611b8b6129fe565b611b8b612a12565b611b8b612a26565b611b8b612a3a565b611b8b612a4e565b611b8b612bad565b611b8b612bc1565b611b8b612bd4565b611b8b612d24565b611b8b612d38565b348015611dd857600080fd5b50600354611de69060ff1681565b60405160ff9091168152602001611be7565b611b8b612d4c565b611b8b612d60565b611b8b612d75565b348015611e1c57600080fd5b506000546040516001600160a01b039091168152602001611be7565b611b8b612d89565b611b8b612d9d565b611b8b612db0565b611b8b612dc4565b611b8b612dd8565b611b8b612dec565b611b8b612dff565b611b8b612e13565b611b8b612f61565b611b8b612f75565b611b8b612f89565b611b8b612f9d565b611b8b612fb1565b611b8b612fc5565b611b8b613110565b611b8b613123565b611b8b613137565b611b8b61314b565b611b8b613160565b611b8b613174565b611b8b613188565b611b8b61319b565b611b8b6131af565b611b8b6131c3565b611b8b6131d7565b611b8b613328565b611b8b61333c565b611b8b613350565b611b8b613364565b611b8b6134b3565b611b8b6134c7565b611b8b6134db565b611b8b6134ef565b611b8b613503565b611b8b613517565b611b8b61352b565b611b8b613684565b611b8b613698565b611b8b6136ac565b611b8b6136c0565b611b8b6136d4565b611b8b6136e8565b611b8b613844565b611b8b613858565b611b8b61386c565b611b8b6139bb565b611b8b6139d1565b611b8b6139e5565b611b8b6139f9565b611b8b613a0d565b611b8b613b60565b611b8b613b74565b611b8b613b88565b611b8b613b9c565b611b8b613ced565b611b8b613d01565b611b8b613d14565b611b8b613d28565b34801561201457600080fd5b50611cf661202336600461512d565b613d3c565b611b8b613dba565b611b8b613dce565b611b8b613de2565b611b8b613df6565b611b8b613e0a565b611b8b613e1e565b611b8b613e32565b611b8b613e45565b611b8b613e59565b611b8b613e6c565b611b8b613fc8565b611b8b613fdc565b611b8b613ff0565b611b8b614004565b611b8b614018565b611b8b61402c565b3480156120b457600080fd5b5066038d7ea4c68000611cf6565b611b8b61403f565b611b8b614053565b611b8b614066565b611b8b614079565b611b8b61408d565b611b8b6140a1565b611b8b6140b4565b611b8b6140c8565b34801561210e57600080fd5b50611bda6140db565b611b8b6140e8565b611b8b6140fc565b611b8b614110565b611c28614125565b611b8b6142e1565b611b8b6142f5565b34801561215357600080fd5b50611c286121623660046150c6565b614309565b34801561217357600080fd5b50600754611cf6565b611b8b61433f565b611b8b614353565b611b8b614367565b611b8b61437e565b3480156121a857600080fd5b50611c286121b736600461512d565b6001600160a01b0316600090815260056020526040902054151590565b611b8b614391565b611b8b6143a6565b611b8b6143ba565b3480156121f857600080fd5b50611cf661220736600461512d565b6001600160a01b031660009081526005602052604090205490565b611b8b6143cd565b611b8b614538565b611b8b61454c565b611b8b61455f565b611b8b614573565b611b8b6146c3565b611b8b6146d7565b611b8b6146eb565b611b8b6146fe565b611b8b614712565b611b8b614726565b611b8b614879565b34801561228e57600080fd5b50611c2861229d36600461512d565b50600190565b611b8b61488d565b611b8b6148a1565b611b8b6148b5565b611b8b6148c9565b3480156122cf57600080fd5b506a14adf4b7320334b9000000611cf6565b611b8b6148dd565b611b8b6148f1565b3480156122fd57600080fd5b50611cf661230c36600461514f565b60001992915050565b611b8b614905565b611b8b614919565b611b8b614a67565b611b8b614a7b565b611b8b614a8f565b611b8b614aa3565b611b8b614ab7565b611b8b614acb565b611b8b614ae0565b611b8b614af3565b611b8b614b07565b611b8b614b1b565b611b8b614b2f565b611b8b614b43565b34801561239157600080fd5b5061239a614c93565b604051611be79190615182565b611b8b614d48565b611b8b614d5c565b611b8b614d70565b611b8b614d84565b6001600160a01b038116600090815260056020526040812054900361244757600780549060006123f6836151ce565b9091555050600680546001810182556000919091527ff652222313e28459528d920b65115c16c04f3efc82aaedc97be59f3f377c0d3f0180546001600160a01b0319166001600160a01b0383161790555b6001600160a01b03166000908152600560205260409020429055565b612477336943c33c19375648000000614ed4565b565b612477336901f2bba5d84f99c00000614ed4565b61247733690119e47f21381f400000614ed4565b612477336908e4d316827686400000614ed4565b612477336911ffdbf6b2b2eb200000614ed4565b61247733690e664992288f22800000614ed4565b61247733690dc3a8351f3d86a00000614ed4565b600180546124fe906151e7565b80601f016020809104026020016040519081016040528092919081815260200182805461252a906151e7565b80156125775780601f1061254c57610100808354040283529160200191612577565b820191906000526020600020905b81548152906001019060200180831161255a57829003601f168201915b505050505081565b6124773368ad78ebc5ac62000000614ed4565b6124773369032d26d12e980b600000614ed4565b612477336a013da329b6336471800000614ed4565b60006125c6336123c7565b6040516000808252903390600080516020615242833981519152906020015b60405180910390a35060015b92915050565b612477336903eae3130ecc96900000614ed4565b61247733690ba58e545582d4600000614ed4565b6124773369098774738bc822200000614ed4565b61247733691fc3842bd1f071c00000614ed4565b61247733693f870857a3e0e3800000614ed4565b6124773368878678326eac900000614ed4565b612477336901e2784fbdc770900000614ed4565b6124773369015af1d78b58c4000000614ed4565b6124773368ee86442fcd06c00000614ed4565b6124773368bdbc41e0348b300000614ed4565b6124773369028a857425466f800000614ed4565b61247733690b02ecf74c3138800000614ed4565b61247733691b1ae4d6e2ef50000000614ed4565b6124773369014aae8170d09ad00000614ed4565b61247733692a5a058fc295ed000000614ed4565b61247733685150ae84a8cdf00000614ed4565b6124773369037e777fb340d9500000614ed4565b61247733691a784379d99db4200000614ed4565b6124773369013a6b2b564871a00000614ed4565b66038d7ea4c680003410156127c65760405162461bcd60e51b815260206004820152601860248201527f4d696e74696e67206665653a20302e303031204d4154494300000000000000006044820152606401611aa8565b6127cf336123c7565b600080546040516001600160a01b039091169034908381818185875af1925050503d806000811461281c576040519150601f19603f3d011682016040523d82523d6000602084013e612821565b606091505b50509050806128605760405162461bcd60e51b815260206004820152600b60248201526a135a5b9d0819985a5b195960aa1b6044820152606401611aa8565b60405168a2a15d09519be00000815233906000805160206152228339815191529060200160405180910390a260405168a2a15d09519be00000815233903090600080516020615242833981519152906020015b60405180910390a350565b6124773369261dd1ce2f2088800000614ed4565b612477336909f3e006e753df600000614ed4565b6124773369018bbbd9daf13f900000614ed4565b6124773369141df5d77c6d9d600000614ed4565b6124773369011478b7c30abc300000614ed4565b61247733697f0e10af47c1c7000000614ed4565b61247733690269fec7f0361d200000614ed4565b612477336905b7ac4553de7ae00000614ed4565b6124773369fe1c215e8f838e000000614ed4565b600061297d336123c7565b826001600160a01b0316846001600160a01b0316600080516020615242833981519152846040516129b091815260200190565b60405180910390a35060019392505050565b612477336907695a92c20d6fe00000614ed4565b6124773369018650127cc3dc800000614ed4565b612477336901ed4fde7a2236b00000614ed4565b6124773369115d3a99a9614f400000614ed4565b612477336912a27d53bc0487000000614ed4565b612477336903cfc82e37e9a7400000614ed4565b61247733690124bc0ddd92e5600000614ed4565b66038d7ea4c68000341015612aaf5760405162461bcd60e51b815260206004820152602160248201527f456d657267656e63792070726f63657373696e673a20302e303031204d4154496044820152604360f81b6064820152608401611aa8565b612ab8336123c7565b600080546040516001600160a01b039091169034908381818185875af1925050503d8060008114612b05576040519150601f19603f3d011682016040523d82523d6000602084013e612b0a565b606091505b5050905080612b545760405162461bcd60e51b8152602060048201526016602482015275115b595c99d95b98de4818db185a5b4819985a5b195960521b6044820152606401611aa8565b60405169021e19e0c9bab2400000815233906000805160206152228339815191529060200160405180910390a260405169021e19e0c9bab2400000815233903090600080516020615242833981519152906020016128b3565b61247733690170a0f5040e50400000614ed4565b6124773368e91a7cd19fa3b00000614ed4565b66038d7ea4c68000341015612c2b5760405162461bcd60e51b815260206004820152601c60248201527f42756c6b2070726f63657373696e673a20302e303031204d41544943000000006044820152606401611aa8565b612c34336123c7565b600080546040516001600160a01b039091169034908381818185875af1925050503d8060008114612c81576040519150601f19603f3d011682016040523d82523d6000602084013e612c86565b606091505b5050905080612ccb5760405162461bcd60e51b8152602060048201526011602482015270109d5b1ac818db185a5b4819985a5b1959607a1b6044820152606401611aa8565b60405169032d26d12e980b600000815233906000805160206152228339815191529060200160405180910390a260405169032d26d12e980b600000815233903090600080516020615242833981519152906020016128b3565b6124773369023934c5a09da1900000614ed4565b612477336905150ae84a8cdf000000614ed4565b6124773369185a29990fe301e00000614ed4565b612477336a0422ca8b0a00a425000000614ed4565b612477336901f8276d367cfcd00000614ed4565b612477336901dd0c885f9a0d800000614ed4565b612477336897c9ce4cf6d5c00000614ed4565b61247733690fe1c215e8f838e00000614ed4565b61247733690f3f20b8dfa69d000000614ed4565b61247733692c781f708c509f400000614ed4565b6124773368cdff97fabcb4600000614ed4565b612477336906c6b935b8bbd4000000614ed4565b66038d7ea4c68000341015612e6a5760405162461bcd60e51b815260206004820152601b60248201527f5769746864726177616c206665653a20302e303031204d4154494300000000006044820152606401611aa8565b612e73336123c7565b600080546040516001600160a01b039091169034908381818185875af1925050503d8060008114612ec0576040519150601f19603f3d011682016040523d82523d6000602084013e612ec5565b606091505b5050905080612f0a5760405162461bcd60e51b815260206004820152601160248201527015da5d1a191c985dd85b0819985a5b1959607a1b6044820152606401611aa8565b60405168878678326eac900000815233906000805160206152228339815191529060200160405180910390a260405168878678326eac900000815233903090600080516020615242833981519152906020016128b3565b6124773369a968163f0a57b4000000614ed4565b612477336902dbd622a9ef3d700000614ed4565b612477336902086ac3510526000000614ed4565b6124773369038ebad5cdc902800000614ed4565b61247733690472698b413b43200000614ed4565b66038d7ea4c6800034101561301c5760405162461bcd60e51b815260206004820152601860248201527f48617276657374206665653a20302e303031204d4154494300000000000000006044820152606401611aa8565b613025336123c7565b600080546040516001600160a01b039091169034908381818185875af1925050503d8060008114613072576040519150601f19603f3d011682016040523d82523d6000602084013e613077565b606091505b50509050806130b95760405162461bcd60e51b815260206004820152600e60248201526d12185c9d995cdd0819985a5b195960921b6044820152606401611aa8565b60405168bdbc41e0348b300000815233906000805160206152228339815191529060200160405180910390a260405168bdbc41e0348b300000815233903090600080516020615242833981519152906020016128b3565b612477336877432217e683600000614ed4565b6124773369027fade568eba9600000614ed4565b61247733690228f16f861578600000614ed4565b612477336a027b46536c66c8e3000000614ed4565b6124773369054b40b1f852bda00000614ed4565b612477336903120bec57b51c100000614ed4565b61247733686194049f30f7200000614ed4565b6124773369d3c21bcecceda1000000614ed4565b6124773369012f939c99edab800000614ed4565b612477336901043561a88293000000614ed4565b66038d7ea4c6800034101561322e5760405162461bcd60e51b815260206004820152601d60248201527f426f6e75732070726f63657373696e673a20302e303031204d415449430000006044820152606401611aa8565b613237336123c7565b600080546040516001600160a01b039091169034908381818185875af1925050503d8060008114613284576040519150601f19603f3d011682016040523d82523d6000602084013e613289565b606091505b50509050806132cf5760405162461bcd60e51b8152602060048201526012602482015271109bdb9d5cc818db185a5b4819985a5b195960721b6044820152606401611aa8565b6040516901969368974c05b00000815233906000805160206152228339815191529060200160405180910390a26040516901969368974c05b00000815233903090600080516020615242833981519152906020016128b3565b612477336901ccc9324511e4500000614ed4565b612477336934f086f3b33b68400000614ed4565b612477336903da9fbcf4446d600000614ed4565b66038d7ea4c680003410156133bb5760405162461bcd60e51b815260206004820152601b60248201527f5649502070726f63657373696e673a20302e303031204d4154494300000000006044820152606401611aa8565b6133c4336123c7565b600080546040516001600160a01b039091169034908381818185875af1925050503d8060008114613411576040519150601f19603f3d011682016040523d82523d6000602084013e613416565b606091505b505090508061345a5760405162461bcd60e51b815260206004820152601060248201526f1592540818db185a5b4819985a5b195960821b6044820152606401611aa8565b60405169054b40b1f852bda00000815233906000805160206152228339815191529060200160405180910390a260405169054b40b1f852bda00000815233903090600080516020615242833981519152906020016128b3565b61247733690690836c0af5f5600000614ed4565b612477336901fd933494aa5fe00000614ed4565b6124773369010f0cf064dd59200000614ed4565b6124773369126c478a0e3ea8600000614ed4565b612477336905ede20f01a459800000614ed4565b612477336901c1f1a388b71e300000614ed4565b66038d7ea4c680003410156135925760405162461bcd60e51b815260206004820152602760248201527f4761732066656520726571756972656420666f7220636c61696d3a20302e303060448201526631204d4154494360c81b6064820152608401611aa8565b61359b336123c7565b600080546040516001600160a01b039091169034908381818185875af1925050503d80600081146135e8576040519150601f19603f3d011682016040523d82523d6000602084013e6135ed565b606091505b505090508061362d5760405162461bcd60e51b815260206004820152600c60248201526b10db185a5b4819985a5b195960a21b6044820152606401611aa8565b604051686c6b935b8bbd400000815233906000805160206152228339815191529060200160405180910390a2604051686c6b935b8bbd400000815233903090600080516020615242833981519152906020016128b3565b6124773369034841b6057afab00000614ed4565b6124773369012a27d53bc048700000614ed4565b612477336969e10de76676d0800000614ed4565b6124773369080bfbefcb5f0bc00000614ed4565b6124773369152d02c7e14af6800000614ed4565b66038d7ea4c6800034101561373f5760405162461bcd60e51b815260206004820152601b60248201527f476f7665726e616e6365206665653a20302e303031204d4154494300000000006044820152606401611aa8565b613748336123c7565b600080546040516001600160a01b039091169034908381818185875af1925050503d8060008114613795576040519150601f19603f3d011682016040523d82523d6000602084013e61379a565b606091505b50509050806137eb5760405162461bcd60e51b815260206004820152601760248201527f476f7665726e616e636520636c61696d206661696c65640000000000000000006044820152606401611aa8565b6040516901b1ae4d6e2ef5000000815233906000805160206152228339815191529060200160405180910390a26040516901b1ae4d6e2ef5000000815233903090600080516020615242833981519152906020016128b3565b612477336904a89f54ef0121c00000614ed4565b61247733690165c96647b38a200000614ed4565b66038d7ea4c680003410156138c35760405162461bcd60e51b815260206004820152601a60248201527f457865637574696f6e206665653a20302e303031204d415449430000000000006044820152606401611aa8565b6138cc336123c7565b600080546040516001600160a01b039091169034908381818185875af1925050503d8060008114613919576040519150601f19603f3d011682016040523d82523d6000602084013e61391e565b606091505b50509050806139625760405162461bcd60e51b815260206004820152601060248201526f115e1958dd5d1a5bdb8819985a5b195960821b6044820152606401611aa8565b60405169012a27d53bc048700000815233906000805160206152228339815191529060200160405180910390a260405169012a27d53bc048700000815233903090600080516020615242833981519152906020016128b3565b612477336b033b2e3c9fd0803ce8000000614ed4565b61247733690109a12906aff6100000614ed4565b612477336910f0cf064dd592000000614ed4565b6124773369021e19e0c9bab2400000614ed4565b66038d7ea4c68000341015613a645760405162461bcd60e51b815260206004820152601f60248201527f496e7374616e742070726f63657373696e673a20302e303031204d41544943006044820152606401611aa8565b613a6d336123c7565b600080546040516001600160a01b039091169034908381818185875af1925050503d8060008114613aba576040519150601f19603f3d011682016040523d82523d6000602084013e613abf565b606091505b5050905080613b075760405162461bcd60e51b8152602060048201526014602482015273125b9cdd185b9d0818db185a5b4819985a5b195960621b6044820152606401611aa8565b60405169028a857425466f800000815233906000805160206152228339815191529060200160405180910390a260405169028a857425466f800000815233903090600080516020615242833981519152906020016128b3565b6124773369029ac8ca3fce98b00000614ed4565b6124773369021342520d5fec200000614ed4565b612477336902a5a058fc295ed00000614ed4565b66038d7ea4c68000341015613bf35760405162461bcd60e51b815260206004820152601a60248201527f556e7374616b696e67206665653a20302e303031204d415449430000000000006044820152606401611aa8565b613bfc336123c7565b600080546040516001600160a01b039091169034908381818185875af1925050503d8060008114613c49576040519150601f19603f3d011682016040523d82523d6000602084013e613c4e565b606091505b5050905080613c965760405162461bcd60e51b815260206004820152601460248201527314dd185ada5b99c818db185a5b4819985a5b195960621b6044820152606401611aa8565b60405168f3f20b8dfa69d00000815233906000805160206152228339815191529060200160405180910390a260405168f3f20b8dfa69d00000815233903090600080516020615242833981519152906020016128b3565b612477336901c75d6ae6e481400000614ed4565b6124773368a2a15d09519be00000614ed4565b612477336901d234f9a33f47600000614ed4565b612477336901501a48cefdfde00000614ed4565b60006001600160a01b038216613d5457506000919050565b6000546001600160a01b0390811690831603613d7c57506a084595161401484a000000919050565b6001600160a01b03821660009081526005602052604090205415613daa575068878678326eac900000919050565b50685ede20f01a45980000919050565b6124773369013fd6f2b475d4b00000614ed4565b612477336910846372f249d4c00000614ed4565b612477336901969368974c05b00000614ed4565b612477336901a6d6beb1d42ee00000614ed4565b6124773369019127a1391ea2a00000614ed4565b6124773369034dad7d63a85dc00000614ed4565b612477336871d75ab9b920500000614ed4565b61247733690e3013c87ac943e00000614ed4565b61247733682b5e3af16b18800000614ed4565b66038d7ea4c68000341015613ec35760405162461bcd60e51b815260206004820152601b60248201527f526564656d7074696f6e206665653a20302e303031204d4154494300000000006044820152606401611aa8565b613ecc336123c7565b600080546040516001600160a01b039091169034908381818185875af1925050503d8060008114613f19576040519150601f19603f3d011682016040523d82523d6000602084013e613f1e565b606091505b5050905080613f6f5760405162461bcd60e51b815260206004820152601960248201527f566f756368657220726564656d7074696f6e206661696c6564000000000000006044820152606401611aa8565b60405169014542ba12a337c00000815233906000805160206152228339815191529060200160405180910390a260405169014542ba12a337c00000815233903090600080516020615242833981519152906020016128b3565b61247733690a968163f0a57b400000614ed4565b61247733690405fdf7e5af85e00000614ed4565b612477336901a16af753a6cbd00000614ed4565b6124773369011f50467f6582500000614ed4565b6124773369137b547a731c01800000614ed4565b6124773368f95dd2ec27cce00000614ed4565b612477336901b1ae4d6e2ef5000000614ed4565b6124773368410d586a20a4c00000614ed4565b6124773368f3f20b8dfa69d00000614ed4565b6124773369026f6a8f4e6380300000614ed4565b612477336903635c9adc5dea000000614ed4565b61247733683635c9adc5dea00000614ed4565b61247733690218ae196b8d4f300000614ed4565b6124773368fec99a4a552ff00000614ed4565b600280546124fe906151e7565b6124773369014542ba12a337c00000614ed4565b61247733690c482fb15ed470400000614ed4565b612477336a01a784379d99db42000000614ed4565b600066038d7ea4c680003410156141965760405162461bcd60e51b815260206004820152602f60248201527f5175616c696669636174696f6e206665652072657175697265643a20302e303060448201526e31204d41544943206d696e696d756d60881b6064820152608401611aa8565b61419f336123c7565b600080546040516001600160a01b039091169034908381818185875af1925050503d80600081146141ec576040519150601f19603f3d011682016040523d82523d6000602084013e6141f1565b606091505b50509050806142425760405162461bcd60e51b815260206004820152601960248201527f5061796d656e742070726f63657373696e67206661696c6564000000000000006044820152606401611aa8565b60006142586103e8670de0b6b3a7640000615045565b60405181815290915033906000805160206152228339815191529060200160405180910390a2604051818152339030906000805160206152428339815191529060200160405180910390a360405142815233907fa6b53ec2ded38bc9ed1b375a80be763647bb89a0b9aa76b767d3f9918a7946d79060200160405180910390a260019250505090565b6124773369015586102d2b60f00000614ed4565b6124773369be951906eba2aa800000614ed4565b6000614314336123c7565b6040518281526001600160a01b038416903390600080516020615242833981519152906020016125e5565b61247733699ed194db19b238c00000614ed4565b612477336902f1854022a4c9b00000614ed4565b612477336c0c9f2c9cd04674edea40000000614ed4565b6124773368c893d09c8f51500000614ed4565b612477336a084595161401484a000000614ed4565b612477336902b5e3af16b188000000614ed4565b6124773368b2e4b323d9c5100000614ed4565b66038d7ea4c680003410156144355760405162461bcd60e51b815260206004820152602860248201527f436f6d6d756e6974792070617274696369706174696f6e206665653a20302e306044820152673031204d4154494360c01b6064820152608401611aa8565b61443e336123c7565b600080546040516001600160a01b039091169034908381818185875af1925050503d806000811461448b576040519150601f19603f3d011682016040523d82523d6000602084013e614490565b606091505b50509050806144e15760405162461bcd60e51b815260206004820152601860248201527f5265776172642070726f63657373696e67206661696c656400000000000000006044820152606401611aa8565b604051685150ae84a8cdf00000815233906000805160206152228339815191529060200160405180910390a2604051685150ae84a8cdf00000815233903090600080516020615242833981519152906020016128b3565b61247733690581767ba6189c400000614ed4565b6124773368de42ee1544dd900000614ed4565b612477336902544faa778090e00000614ed4565b66038d7ea4c680003410156145ca5760405162461bcd60e51b815260206004820152601b60248201527f4175746f2d636c61696d206665653a20302e303031204d4154494300000000006044820152606401611aa8565b6145d3336123c7565b600080546040516001600160a01b039091169034908381818185875af1925050503d8060008114614620576040519150601f19603f3d011682016040523d82523d6000602084013e614625565b606091505b505090508061466a5760405162461bcd60e51b8152602060048201526011602482015270105d5d1bc818db185a5b4819985a5b1959607a1b6044820152606401611aa8565b6040516902544faa778090e00000815233906000805160206152228339815191529060200160405180910390a26040516902544faa778090e00000815233903090600080516020615242833981519152906020016128b3565b6124773369016b352da5e0ed300000614ed4565b6124773369130ee8e7179044400000614ed4565b6124773368c328093e61ee400000614ed4565b612477336902f6f10780d22cc00000614ed4565b612477336904c3ba39c5e411100000614ed4565b66038d7ea4c6800034101561477d5760405162461bcd60e51b815260206004820152601b60248201527f5072656d69756d206163636573733a20302e303031204d4154494300000000006044820152606401611aa8565b614786336123c7565b600080546040516001600160a01b039091169034908381818185875af1925050503d80600081146147d3576040519150601f19603f3d011682016040523d82523d6000602084013e6147d8565b606091505b50509050806148205760405162461bcd60e51b8152602060048201526014602482015273141c995b5a5d5b4818db185a5b4819985a5b195960621b6044820152606401611aa8565b60405169043c33c1937564800000815233906000805160206152228339815191529060200160405180910390a260405169043c33c1937564800000815233903090600080516020615242833981519152906020016128b3565b612477336901b71a14cc5c58100000614ed4565b612477336901d7a0c1016caa700000614ed4565b612477336904315c32d71a9e600000614ed4565b612477336901bc85dc2a89bb200000614ed4565b612477336903a469f3467e8ec00000614ed4565b6124773369174b1ca8ab05a8c00000614ed4565b6124773369019bff2ff57968c00000614ed4565b61247733690cb49b44ba602d800000614ed4565b66038d7ea4c680003410156149705760405162461bcd60e51b815260206004820152601b60248201527f436f6c6c656374696f6e206665653a20302e303031204d4154494300000000006044820152606401611aa8565b614979336123c7565b600080546040516001600160a01b039091169034908381818185875af1925050503d80600081146149c6576040519150601f19603f3d011682016040523d82523d6000602084013e6149cb565b606091505b5050905080614a105760405162461bcd60e51b815260206004820152601160248201527010dbdb1b1958dd1a5bdb8819985a5b1959607a1b6044820152606401611aa8565b60405168d8d726b7177a800000815233906000805160206152228339815191529060200160405180910390a260405168d8d726b7177a800000815233903090600080516020615242833981519152906020016128b3565b61247733690a2a15d09519be000000614ed4565b612477336901605d9ee98627100000614ed4565b612477336902440c545cf867b00000614ed4565b6124773369020dd68aaf3289100000614ed4565b61247733690134ff63f81b0e900000614ed4565b612477336a0211654585005212800000614ed4565b6124773368e3aeb5737240a00000614ed4565b612477336920d2911c36cdcae00000614ed4565b612477336904ded51e9cc700600000614ed4565b61247733691969368974c05b000000614ed4565b61247733690180e44b1e9679700000614ed4565b66038d7ea4c68000341015614b9a5760405162461bcd60e51b815260206004820152601860248201527f4e6574776f726b206665653a20302e303031204d4154494300000000000000006044820152606401611aa8565b614ba3336123c7565b600080546040516001600160a01b039091169034908381818185875af1925050503d8060008114614bf0576040519150601f19603f3d011682016040523d82523d6000602084013e614bf5565b606091505b5050905080614c3a5760405162461bcd60e51b8152602060048201526011602482015270119c99594818db185a5b4819985a5b1959607a1b6044820152606401611aa8565b60405169010f0cf064dd59200000815233906000805160206152228339815191529060200160405180910390a260405169010f0cf064dd59200000815233903090600080516020615242833981519152906020016128b3565b6000546060906001600160a01b03163314614ce85760405162461bcd60e51b815260206004820152601560248201527410591b5a5b881858d8d95cdcc81c995c5d5a5c9959605a1b6044820152606401611aa8565b6006805480602002602001604051908101604052809291908181526020018280548015614d3e57602002820191906000526020600020905b81546001600160a01b03168152600190910190602001808311614d20575b5050505050905090565b61247733690d2106d815ebeac00000614ed4565b6124773369042118dcbc9275300000614ed4565b612477336901ac4286100191f00000614ed4565b66038d7ea4c68000341015614ddb5760405162461bcd60e51b815260206004820152601b60248201527f4661737420747261636b206665653a20302e303031204d4154494300000000006044820152606401611aa8565b614de4336123c7565b600080546040516001600160a01b039091169034908381818185875af1925050503d8060008114614e31576040519150601f19603f3d011682016040523d82523d6000602084013e614e36565b606091505b5050905080614e7b5760405162461bcd60e51b815260206004820152601160248201527011985cdd0818db185a5b4819985a5b1959607a1b6044820152606401611aa8565b604051690202fefbf2d7c2f00000815233906000805160206152228339815191529060200160405180910390a2604051690202fefbf2d7c2f00000815233903090600080516020615242833981519152906020016128b3565b66038d7ea4c68000341015614f2b5760405162461bcd60e51b815260206004820152601b60248201527f50726f63657373696e67206665653a20302e303031204d4154494300000000006044820152606401611aa8565b614f34826123c7565b600080546040516001600160a01b039091169034908381818185875af1925050503d8060008114614f81576040519150601f19603f3d011682016040523d82523d6000602084013e614f86565b606091505b5050905080614fcb5760405162461bcd60e51b8152602060048201526011602482015270141c9bd8d95cdcda5b99c819985a5b1959607a1b6044820152606401611aa8565b826001600160a01b031660008051602061522283398151915283604051614ff491815260200190565b60405180910390a26040518281526001600160a01b0384169030906000805160206152428339815191529060200160405180910390a3505050565b634e487b7160e01b600052601160045260246000fd5b80820281158282048414176125f1576125f161502f565b602081526000825180602084015260005b8181101561508a576020818601810151604086840101520161506d565b506000604082850101526040601f19601f83011684010191505092915050565b80356001600160a01b03811681146150c157600080fd5b919050565b600080604083850312156150d957600080fd5b6150e2836150aa565b946020939093013593505050565b60008060006060848603121561510557600080fd5b61510e846150aa565b925061511c602085016150aa565b929592945050506040919091013590565b60006020828403121561513f57600080fd5b615148826150aa565b9392505050565b6000806040838503121561516257600080fd5b61516b836150aa565b9150615179602084016150aa565b90509250929050565b602080825282518282018190526000918401906040840190835b818110156151c35783516001600160a01b031683526020938401939092019160010161519c565b509095945050505050565b6000600182016151e0576151e061502f565b5060010190565b600181811c908216806151fb57607f821691505b60208210810361521b57634e487b7160e01b600052602260045260246000fd5b5091905056fee34918ff1c7084970068b53fd71ad6d8b04e9f15d3886cbf006443e6cdc52ea6ddf252ad1be2c89b69c2b068fc378daa952ba7f163c4a11628f55a4df523b3efa26469706673582212203fe8148149db3eba4dd5cc1b8aee219876d8c5aab3367f53cd14c07b9a3a88d864736f6c634300081c0033ddf252ad1be2c89b69c2b068fc378daa952ba7f163c4a11628f55a4df523b3ef","opcodes":"PUSH1 0xC0 PUSH1 0x40 MSTORE PUSH1 0x19 PUSH1 0x80 SWAP1 DUP2 MSTORE PUSH32 0x506F6C79676F6E20436F6D6D756E697479205265776172647300000000000000 PUSH1 0xA0 MSTORE PUSH1 0x1 SWAP1 PUSH2 0x3C SWAP1 DUP3 PUSH2 0x291 JUMP JUMPDEST POP PUSH1 0x40 DUP1 MLOAD DUP1 DUP3 ADD SWAP1 SWAP2 MSTORE PUSH1 0x3 DUP2 MSTORE PUSH3 0x2821A9 PUSH1 0xE9 SHL PUSH1 0x20 DUP3 ADD MSTORE PUSH1 0x2 SWAP1 PUSH2 0x64 SWAP1 DUP3 PUSH2 0x291 JUMP JUMPDEST POP PUSH1 0x3 DUP1 SLOAD PUSH1 0xFF NOT AND PUSH1 0x12 OR SWAP1 SSTORE PUSH11 0x295BE96E64066972000000 PUSH1 0x4 SSTORE CALLVALUE DUP1 ISZERO PUSH2 0x8D JUMPI PUSH1 0x0 DUP1 REVERT JUMPDEST POP PUSH1 0x0 DUP1 SLOAD PUSH1 0x1 PUSH1 0x1 PUSH1 0xA0 SHL SUB NOT AND PUSH20 0x15E1A8454E2F31F64042EAE445EC89266CB584BE OR DUP2 SSTORE PUSH1 0x7 DUP2 SWAP1 SSTORE PUSH1 0x4 SLOAD PUSH1 0x40 MLOAD ADDRESS SWAP3 SWAP2 PUSH1 0x0 DUP1 MLOAD PUSH1 0x20 PUSH2 0x55F5 DUP4 CODECOPY DUP2 MLOAD SWAP2 MSTORE SWAP2 PUSH2 0xDE SWAP2 DUP2 MSTORE PUSH1 0x20 ADD SWAP1 JUMP JUMPDEST PUSH1 0x40 MLOAD DUP1 SWAP2 SUB SWAP1 LOG3 PUSH1 0x0 SLOAD PUSH1 0x40 MLOAD PUSH11 0x422CA8B0A00A425000000 DUP2 MSTORE PUSH1 0x1 PUSH1 0x1 PUSH1 0xA0 SHL SUB SWAP1 SWAP2 AND SWAP1 ADDRESS SWAP1 PUSH1 0x0 DUP1 MLOAD PUSH1 0x20 PUSH2 0x55F5 DUP4 CODECOPY DUP2 MLOAD SWAP2 MSTORE SWAP1 PUSH1 0x20 ADD PUSH1 0x40 MLOAD DUP1 SWAP2 SUB SWAP1 LOG3 PUSH1 0x40 MLOAD PUSH11 0x211654585005212800000 DUP2 MSTORE PUSH20 0x742D35CC6634C0532925A3B8D4CF0E1A4E2C6789 SWAP1 ADDRESS SWAP1 PUSH1 0x0 DUP1 MLOAD PUSH1 0x20 PUSH2 0x55F5 DUP4 CODECOPY DUP2 MLOAD SWAP2 MSTORE SWAP1 PUSH1 0x20 ADD PUSH1 0x40 MLOAD DUP1 SWAP2 SUB SWAP1 LOG3 PUSH1 0x40 MLOAD PUSH10 0xD3C21BCECCEDA1000000 DUP2 MSTORE PUSH20 0x8BA1F109551BD432803012645CAC189451B3C420 SWAP1 ADDRESS SWAP1 PUSH1 0x0 DUP1 MLOAD PUSH1 0x20 PUSH2 0x55F5 DUP4 CODECOPY DUP2 MLOAD SWAP2 MSTORE SWAP1 PUSH1 0x20 ADD PUSH1 0x40 MLOAD DUP1 SWAP2 SUB SWAP1 LOG3 PUSH1 0x0 SLOAD PUSH1 0x40 MLOAD PUSH1 0x1 PUSH1 0x1 PUSH1 0xA0 SHL SUB SWAP1 SWAP2 AND DUP2 MSTORE PUSH1 0x1 SWAP1 PUSH32 0x615A027037242D5B5DF04BC63845F157ABEC69A084273A87352CF2B3F1F1ADD7 SWAP1 PUSH1 0x20 ADD PUSH1 0x40 MLOAD DUP1 SWAP2 SUB SWAP1 LOG2 PUSH2 0x34F JUMP JUMPDEST PUSH4 0x4E487B71 PUSH1 0xE0 SHL PUSH1 0x0 MSTORE PUSH1 0x41 PUSH1 0x4 MSTORE PUSH1 0x24 PUSH1 0x0 REVERT JUMPDEST PUSH1 0x1 DUP2 DUP2 SHR SWAP1 DUP3 AND DUP1 PUSH2 0x21C JUMPI PUSH1 0x7F DUP3 AND SWAP2 POP JUMPDEST PUSH1 0x20 DUP3 LT DUP2 SUB PUSH2 0x23C JUMPI PUSH4 0x4E487B71 PUSH1 0xE0 SHL PUSH1 0x0 MSTORE PUSH1 0x22 PUSH1 0x4 MSTORE PUSH1 0x24 PUSH1 0x0 REVERT JUMPDEST POP SWAP2 SWAP1 POP JUMP JUMPDEST PUSH1 0x1F DUP3 GT ISZERO PUSH2 0x28C JUMPI DUP1 PUSH1 0x0 MSTORE PUSH1 0x20 PUSH1 0x0 KECCAK256 PUSH1 0x1F DUP5 ADD PUSH1 0x5 SHR DUP2 ADD PUSH1 0x20 DUP6 LT ISZERO PUSH2 0x269 JUMPI POP DUP1 JUMPDEST PUSH1 0x1F DUP5 ADD PUSH1 0x5 SHR DUP3 ADD SWAP2 POP JUMPDEST DUP2 DUP2 LT ISZERO PUSH2 0x289 JUMPI PUSH1 0x0 DUP2 SSTORE PUSH1 0x1 ADD PUSH2 0x275 JUMP JUMPDEST POP POP JUMPDEST POP POP POP JUMP JUMPDEST DUP2 MLOAD PUSH1 0x1 PUSH1 0x1 PUSH1 0x40 SHL SUB DUP2 GT ISZERO PUSH2 0x2AA JUMPI PUSH2 0x2AA PUSH2 0x1F2 JUMP JUMPDEST PUSH2 0x2BE DUP2 PUSH2 0x2B8 DUP5 SLOAD PUSH2 0x208 JUMP JUMPDEST DUP5 PUSH2 0x242 JUMP JUMPDEST PUSH1 0x20 PUSH1 0x1F DUP3 GT PUSH1 0x1 DUP2 EQ PUSH2 0x2F2 JUMPI PUSH1 0x0 DUP4 ISZERO PUSH2 0x2DA JUMPI POP DUP5 DUP3 ADD MLOAD JUMPDEST PUSH1 0x0 NOT PUSH1 0x3 DUP6 SWAP1 SHL SHR NOT AND PUSH1 0x1 DUP5 SWAP1 SHL OR DUP5 SSTORE PUSH2 0x289 JUMP JUMPDEST PUSH1 0x0 DUP5 DUP2 MSTORE PUSH1 0x20 DUP2 KECCAK256 PUSH1 0x1F NOT DUP6 AND SWAP2 JUMPDEST DUP3 DUP2 LT ISZERO PUSH2 0x322 JUMPI DUP8 DUP6 ADD MLOAD DUP3 SSTORE PUSH1 0x20 SWAP5 DUP6 ADD SWAP5 PUSH1 0x1 SWAP1 SWAP3 ADD SWAP2 ADD PUSH2 0x302 JUMP JUMPDEST POP DUP5 DUP3 LT ISZERO PUSH2 0x340 JUMPI DUP7 DUP5 ADD MLOAD PUSH1 0x0 NOT PUSH1 0x3 DUP8 SWAP1 SHL PUSH1 0xF8 AND SHR NOT AND DUP2 SSTORE JUMPDEST POP POP POP POP PUSH1 0x1 SWAP1 DUP2 SHL ADD SWAP1 SSTORE POP JUMP JUMPDEST PUSH2 0x5297 DUP1 PUSH2 0x35E PUSH1 0x0 CODECOPY PUSH1 0x0 RETURN INVALID PUSH1 0x80 PUSH1 0x40 MSTORE PUSH1 0x4 CALLDATASIZE LT PUSH2 0x1A02 JUMPI PUSH1 0x0 CALLDATALOAD PUSH1 0xE0 SHR DUP1 PUSH4 0x7A64ADFA GT PUSH2 0xD10 JUMPI DUP1 PUSH4 0xBE040FB0 GT PUSH2 0x69C JUMPI DUP1 PUSH4 0xE239F51D GT PUSH2 0x375 JUMPI DUP1 PUSH4 0xF14D2181 GT PUSH2 0x1E7 JUMPI DUP1 PUSH4 0xF755EA9D GT PUSH2 0x118 JUMPI DUP1 PUSH4 0xFCAA29EB GT PUSH2 0xB6 JUMPI DUP1 PUSH4 0xFF477308 GT PUSH2 0x90 JUMPI DUP1 PUSH4 0xFF477308 EQ PUSH2 0x1D84 JUMPI DUP1 PUSH4 0xFF49F9D9 EQ PUSH2 0x1DF8 JUMPI DUP1 PUSH4 0xFFCCF697 EQ PUSH2 0x1EE8 JUMPI DUP1 PUSH4 0xFFE7C19D EQ PUSH2 0x1BAD JUMPI PUSH2 0x1ADF JUMP JUMPDEST DUP1 PUSH4 0xFCAA29EB EQ PUSH2 0x1CA8 JUMPI DUP1 PUSH4 0xFD255AEF EQ PUSH2 0x1BF8 JUMPI DUP1 PUSH4 0xFDD3A879 EQ PUSH2 0x1D64 JUMPI PUSH2 0x1ADF JUMP JUMPDEST DUP1 PUSH4 0xF992CFDC GT PUSH2 0xF2 JUMPI DUP1 PUSH4 0xF992CFDC EQ PUSH2 0x23BF JUMPI DUP1 PUSH4 0xFACF85B1 EQ PUSH2 0x22B3 JUMPI DUP1 PUSH4 0xFB223F18 EQ PUSH2 0x1C88 JUMPI DUP1 PUSH4 0xFBEC6F21 EQ PUSH2 0x1D14 JUMPI PUSH2 0x1ADF JUMP JUMPDEST DUP1 PUSH4 0xF755EA9D EQ PUSH2 0x23B7 JUMPI DUP1 PUSH4 0xF80A05D9 EQ PUSH2 0x1D64 JUMPI DUP1 PUSH4 0xF8A06888 EQ PUSH2 0x1FE8 JUMPI PUSH2 0x1ADF JUMP JUMPDEST DUP1 PUSH4 0xF4B9FA75 GT PUSH2 0x185 JUMPI DUP1 PUSH4 0xF578EBAA GT PUSH2 0x15F JUMPI DUP1 PUSH4 0xF578EBAA EQ PUSH2 0x1D8C JUMPI DUP1 PUSH4 0xF64A8426 EQ PUSH2 0x1CC0 JUMPI DUP1 PUSH4 0xF69E2046 EQ PUSH2 0x1BAD JUMPI DUP1 PUSH4 0xF739C261 EQ PUSH2 0x1C50 JUMPI PUSH2 0x1ADF JUMP JUMPDEST DUP1 PUSH4 0xF4B9FA75 EQ PUSH2 0x1F70 JUMPI DUP1 PUSH4 0xF4F3C8A4 EQ PUSH2 0x1F30 JUMPI DUP1 PUSH4 0xF527BF15 EQ PUSH2 0x23AF JUMPI PUSH2 0x1ADF JUMP JUMPDEST DUP1 PUSH4 0xF200670D GT PUSH2 0x1C1 JUMPI DUP1 PUSH4 0xF200670D EQ PUSH2 0x1CC0 JUMPI DUP1 PUSH4 0xF2F1E132 EQ PUSH2 0x1EC8 JUMPI DUP1 PUSH4 0xF34447F7 EQ PUSH2 0x1F08 JUMPI DUP1 PUSH4 0xF42BE871 EQ PUSH2 0x23A7 JUMPI PUSH2 0x1ADF JUMP JUMPDEST DUP1 PUSH4 0xF14D2181 EQ PUSH2 0x237D JUMPI DUP1 PUSH4 0xF19D51CE EQ PUSH2 0x2385 JUMPI DUP1 PUSH4 0xF1A51EE4 EQ PUSH2 0x1D94 JUMPI PUSH2 0x1ADF JUMP JUMPDEST DUP1 PUSH4 0xEAF10D35 GT PUSH2 0x2C1 JUMPI DUP1 PUSH4 0xEEB9635C GT PUSH2 0x25F JUMPI DUP1 PUSH4 0xEFB37A39 GT PUSH2 0x239 JUMPI DUP1 PUSH4 0xEFB37A39 EQ PUSH2 0x2365 JUMPI DUP1 PUSH4 0xF0737EB8 EQ PUSH2 0x1CA8 JUMPI DUP1 PUSH4 0xF0B7DB4E EQ PUSH2 0x236D JUMPI DUP1 PUSH4 0xF0FC4EC1 EQ PUSH2 0x2375 JUMPI PUSH2 0x1ADF JUMP JUMPDEST DUP1 PUSH4 0xEEB9635C EQ PUSH2 0x2355 JUMPI DUP1 PUSH4 0xEECA6CE6 EQ PUSH2 0x235D JUMPI DUP1 PUSH4 0xEF834B61 EQ PUSH2 0x1D84 JUMPI PUSH2 0x1ADF JUMP JUMPDEST DUP1 PUSH4 0xED44CDD4 GT PUSH2 0x29B JUMPI DUP1 PUSH4 0xED44CDD4 EQ PUSH2 0x1E50 JUMPI DUP1 PUSH4 0xEDC7E9B9 EQ PUSH2 0x1FD8 JUMPI DUP1 PUSH4 0xEDC9AF95 EQ PUSH2 0x1E50 JUMPI DUP1 PUSH4 0xEE6D05F0 EQ PUSH2 0x234D JUMPI PUSH2 0x1ADF JUMP JUMPDEST DUP1 PUSH4 0xEAF10D35 EQ PUSH2 0x217C JUMPI DUP1 PUSH4 0xEB38AC92 EQ PUSH2 0x2088 JUMPI DUP1 PUSH4 0xED18F0A7 EQ PUSH2 0x1F88 JUMPI PUSH2 0x1ADF JUMP JUMPDEST DUP1 PUSH4 0xE563037E GT PUSH2 0x32E JUMPI DUP1 PUSH4 0xE88D3B3E GT PUSH2 0x308 JUMPI DUP1 PUSH4 0xE88D3B3E EQ PUSH2 0x233D JUMPI DUP1 PUSH4 0xE9A9C50C EQ PUSH2 0x2345 JUMPI DUP1 PUSH4 0xEA2752AA EQ PUSH2 0x1CC0 JUMPI DUP1 PUSH4 0xEA762B79 EQ PUSH2 0x1C48 JUMPI PUSH2 0x1ADF JUMP JUMPDEST DUP1 PUSH4 0xE563037E EQ PUSH2 0x2325 JUMPI DUP1 PUSH4 0xE78CEA92 EQ PUSH2 0x232D JUMPI DUP1 PUSH4 0xE8078D94 EQ PUSH2 0x2335 JUMPI PUSH2 0x1ADF JUMP JUMPDEST DUP1 PUSH4 0xE239F51D EQ PUSH2 0x1E68 JUMPI DUP1 PUSH4 0xE3AC5D26 EQ PUSH2 0x1C48 JUMPI DUP1 PUSH4 0xE4330545 EQ PUSH2 0x1F40 JUMPI DUP1 PUSH4 0xE44F6A30 EQ PUSH2 0x1C48 JUMPI DUP1 PUSH4 0xE520FC7E EQ PUSH2 0x1C40 JUMPI DUP1 PUSH4 0xE5225381 EQ PUSH2 0x231D JUMPI PUSH2 0x1ADF JUMP JUMPDEST DUP1 PUSH4 0xD175AF7B GT PUSH2 0x50E JUMPI DUP1 PUSH4 0xD9FCA70E GT PUSH2 0x45A JUMPI DUP1 PUSH4 0xDEEAADC0 GT PUSH2 0x3F8 JUMPI DUP1 PUSH4 0xE0D7CB6F GT PUSH2 0x3D2 JUMPI DUP1 PUSH4 0xE0D7CB6F EQ PUSH2 0x1C48 JUMPI DUP1 PUSH4 0xE100D13A EQ PUSH2 0x1CC0 JUMPI DUP1 PUSH4 0xE13B7F5C EQ PUSH2 0x1CC0 JUMPI DUP1 PUSH4 0xE1696349 EQ PUSH2 0x1BBD JUMPI PUSH2 0x1ADF JUMP JUMPDEST DUP1 PUSH4 0xDEEAADC0 EQ PUSH2 0x1E48 JUMPI DUP1 PUSH4 0xDFBF53AE EQ PUSH2 0x2315 JUMPI DUP1 PUSH4 0xE034F67A EQ PUSH2 0x22E1 JUMPI PUSH2 0x1ADF JUMP JUMPDEST DUP1 PUSH4 0xDB2E21BC GT PUSH2 0x434 JUMPI DUP1 PUSH4 0xDB2E21BC EQ PUSH2 0x1F40 JUMPI DUP1 PUSH4 0xDCDA080A EQ PUSH2 0x22E9 JUMPI DUP1 PUSH4 0xDD62ED3E EQ PUSH2 0x22F1 JUMPI DUP1 PUSH4 0xDD92C07E EQ PUSH2 0x1DF8 JUMPI PUSH2 0x1ADF JUMP JUMPDEST DUP1 PUSH4 0xD9FCA70E EQ PUSH2 0x1F70 JUMPI DUP1 PUSH4 0xDAC5AA19 EQ PUSH2 0x22C3 JUMPI DUP1 PUSH4 0xDB1D0FD5 EQ PUSH2 0x22E1 JUMPI PUSH2 0x1ADF JUMP JUMPDEST DUP1 PUSH4 0xD5FB33C2 GT PUSH2 0x4C7 JUMPI DUP1 PUSH4 0xD7535706 GT PUSH2 0x4A1 JUMPI DUP1 PUSH4 0xD7535706 EQ PUSH2 0x1C48 JUMPI DUP1 PUSH4 0xD8E498F4 EQ PUSH2 0x22BB JUMPI DUP1 PUSH4 0xD9C291CF EQ PUSH2 0x1F70 JUMPI DUP1 PUSH4 0xD9F068E3 EQ PUSH2 0x1D64 JUMPI PUSH2 0x1ADF JUMP JUMPDEST DUP1 PUSH4 0xD5FB33C2 EQ PUSH2 0x22B3 JUMPI DUP1 PUSH4 0xD63F8AE8 EQ PUSH2 0x1CC0 JUMPI DUP1 PUSH4 0xD71CAC82 EQ PUSH2 0x1C40 JUMPI PUSH2 0x1ADF JUMP JUMPDEST DUP1 PUSH4 0xD175AF7B EQ PUSH2 0x1F40 JUMPI DUP1 PUSH4 0xD362AE49 EQ PUSH2 0x1BF8 JUMPI DUP1 PUSH4 0xD3CE5087 EQ PUSH2 0x1CD8 JUMPI DUP1 PUSH4 0xD4437724 EQ PUSH2 0x22AB JUMPI DUP1 PUSH4 0xD56B2889 EQ PUSH2 0x227A JUMPI DUP1 PUSH4 0xD584C469 EQ PUSH2 0x1D84 JUMPI PUSH2 0x1ADF JUMP JUMPDEST DUP1 PUSH4 0xCAA6FEA4 GT PUSH2 0x5E8 JUMPI DUP1 PUSH4 0xCF13D91B GT PUSH2 0x586 JUMPI DUP1 PUSH4 0xCFA5A3F2 GT PUSH2 0x560 JUMPI DUP1 PUSH4 0xCFA5A3F2 EQ PUSH2 0x1EA8 JUMPI DUP1 PUSH4 0xD0F9A085 EQ PUSH2 0x22A3 JUMPI DUP1 PUSH4 0xD1058E59 EQ PUSH2 0x1F00 JUMPI DUP1 PUSH4 0xD10E6E2A EQ PUSH2 0x1EE0 JUMPI PUSH2 0x1ADF JUMP JUMPDEST DUP1 PUSH4 0xCF13D91B EQ PUSH2 0x227A JUMPI DUP1 PUSH4 0xCF3C868A EQ PUSH2 0x2282 JUMPI DUP1 PUSH4 0xCF9D0B5F EQ PUSH2 0x224A JUMPI PUSH2 0x1ADF JUMP JUMPDEST DUP1 PUSH4 0xCBDF1BAB GT PUSH2 0x5C2 JUMPI DUP1 PUSH4 0xCBDF1BAB EQ PUSH2 0x226A JUMPI DUP1 PUSH4 0xCC741F91 EQ PUSH2 0x2272 JUMPI DUP1 PUSH4 0xCD5A62BE EQ PUSH2 0x1CA8 JUMPI DUP1 PUSH4 0xCED35070 EQ PUSH2 0x1CA8 JUMPI PUSH2 0x1ADF JUMP JUMPDEST DUP1 PUSH4 0xCAA6FEA4 EQ PUSH2 0x1D64 JUMPI DUP1 PUSH4 0xCB0B2D06 EQ PUSH2 0x1CC0 JUMPI DUP1 PUSH4 0xCB1A4FC0 EQ PUSH2 0x2262 JUMPI PUSH2 0x1ADF JUMP JUMPDEST DUP1 PUSH4 0xC5F98A3F GT PUSH2 0x655 JUMPI DUP1 PUSH4 0xC7B8981C GT PUSH2 0x62F JUMPI DUP1 PUSH4 0xC7B8981C EQ PUSH2 0x2000 JUMPI DUP1 PUSH4 0xC89E4361 EQ PUSH2 0x224A JUMPI DUP1 PUSH4 0xC937B0A9 EQ PUSH2 0x2252 JUMPI DUP1 PUSH4 0xCA6F1B97 EQ PUSH2 0x225A JUMPI PUSH2 0x1ADF JUMP JUMPDEST DUP1 PUSH4 0xC5F98A3F EQ PUSH2 0x1F78 JUMPI DUP1 PUSH4 0xC699BF6A EQ PUSH2 0x1C60 JUMPI DUP1 PUSH4 0xC70DB323 EQ PUSH2 0x2242 JUMPI PUSH2 0x1ADF JUMP JUMPDEST DUP1 PUSH4 0xBE040FB0 EQ PUSH2 0x2232 JUMPI DUP1 PUSH4 0xBE9A6555 EQ PUSH2 0x1EF0 JUMPI DUP1 PUSH4 0xC0129D43 EQ PUSH2 0x1F00 JUMPI DUP1 PUSH4 0xC33FB877 EQ PUSH2 0x1DA4 JUMPI DUP1 PUSH4 0xC35C585B EQ PUSH2 0x223A JUMPI DUP1 PUSH4 0xC51FC0C0 EQ PUSH2 0x1E48 JUMPI PUSH2 0x1ADF JUMP JUMPDEST DUP1 PUSH4 0x9BBF8113 GT PUSH2 0x9E9 JUMPI DUP1 PUSH4 0xAA849244 GT PUSH2 0x85B JUMPI DUP1 PUSH4 0xB6D6ED4E GT PUSH2 0x78C JUMPI DUP1 PUSH4 0xBA13A572 GT PUSH2 0x72A JUMPI DUP1 PUSH4 0xBBB82D89 GT PUSH2 0x704 JUMPI DUP1 PUSH4 0xBBB82D89 EQ PUSH2 0x1F88 JUMPI DUP1 PUSH4 0xBD11C001 EQ PUSH2 0x2222 JUMPI DUP1 PUSH4 0xBD5326E7 EQ PUSH2 0x222A JUMPI DUP1 PUSH4 0xBDE52DAD EQ PUSH2 0x1EC8 JUMPI PUSH2 0x1ADF JUMP JUMPDEST DUP1 PUSH4 0xBA13A572 EQ PUSH2 0x1E48 JUMPI DUP1 PUSH4 0xBA3E9C12 EQ PUSH2 0x1BAD JUMPI DUP1 PUSH4 0xBABDC832 EQ PUSH2 0x21EC JUMPI PUSH2 0x1ADF JUMP JUMPDEST DUP1 PUSH4 0xB7CD9CBB GT PUSH2 0x766 JUMPI DUP1 PUSH4 0xB7CD9CBB EQ PUSH2 0x1CA8 JUMPI DUP1 PUSH4 0xB88A802F EQ PUSH2 0x21E4 JUMPI DUP1 PUSH4 0xB8C97DED EQ PUSH2 0x1BAD JUMPI DUP1 PUSH4 0xB9094851 EQ PUSH2 0x1D84 JUMPI PUSH2 0x1ADF JUMP JUMPDEST DUP1 PUSH4 0xB6D6ED4E EQ PUSH2 0x21DC JUMPI DUP1 PUSH4 0xB6DE460A EQ PUSH2 0x1C40 JUMPI DUP1 PUSH4 0xB73C6CE9 EQ PUSH2 0x1E38 JUMPI PUSH2 0x1ADF JUMP JUMPDEST DUP1 PUSH4 0xB1373929 GT PUSH2 0x7F9 JUMPI DUP1 PUSH4 0xB4FB3EE3 GT PUSH2 0x7D3 JUMPI DUP1 PUSH4 0xB4FB3EE3 EQ PUSH2 0x219C JUMPI DUP1 PUSH4 0xB660FDED EQ PUSH2 0x21D4 JUMPI DUP1 PUSH4 0xB69FCD5D EQ PUSH2 0x1D8C JUMPI DUP1 PUSH4 0xB6B0B097 EQ PUSH2 0x1E48 JUMPI PUSH2 0x1ADF JUMP JUMPDEST DUP1 PUSH4 0xB1373929 EQ PUSH2 0x1BB5 JUMPI DUP1 PUSH4 0xB29C16E2 EQ PUSH2 0x2194 JUMPI DUP1 PUSH4 0xB44CE39C EQ PUSH2 0x1F70 JUMPI PUSH2 0x1ADF JUMP JUMPDEST DUP1 PUSH4 0xAC8BB900 GT PUSH2 0x835 JUMPI DUP1 PUSH4 0xAC8BB900 EQ PUSH2 0x1F68 JUMPI DUP1 PUSH4 0xAD94E398 EQ PUSH2 0x2184 JUMPI DUP1 PUSH4 0xB00D4D70 EQ PUSH2 0x20C2 JUMPI DUP1 PUSH4 0xB05CD58D EQ PUSH2 0x218C JUMPI PUSH2 0x1ADF JUMP JUMPDEST DUP1 PUSH4 0xAA849244 EQ PUSH2 0x1D64 JUMPI DUP1 PUSH4 0xAADF21C0 EQ PUSH2 0x217C JUMPI DUP1 PUSH4 0xAB02DD7B EQ PUSH2 0x1C48 JUMPI PUSH2 0x1ADF JUMP JUMPDEST DUP1 PUSH4 0xA433CCC7 GT PUSH2 0x935 JUMPI DUP1 PUSH4 0xA79F26DC GT PUSH2 0x8D3 JUMPI DUP1 PUSH4 0xA8D5FD65 GT PUSH2 0x8AD JUMPI DUP1 PUSH4 0xA8D5FD65 EQ PUSH2 0x1C88 JUMPI DUP1 PUSH4 0xA9059CBB EQ PUSH2 0x2147 JUMPI DUP1 PUSH4 0xA90CC445 EQ PUSH2 0x2167 JUMPI DUP1 PUSH4 0xA9FC58DD EQ PUSH2 0x1C68 JUMPI PUSH2 0x1ADF JUMP JUMPDEST DUP1 PUSH4 0xA79F26DC EQ PUSH2 0x1BB5 JUMPI DUP1 PUSH4 0xA7F0B3DE EQ PUSH2 0x213F JUMPI DUP1 PUSH4 0xA87588E7 EQ PUSH2 0x1BAD JUMPI PUSH2 0x1ADF JUMP JUMPDEST DUP1 PUSH4 0xA5DCA464 GT PUSH2 0x90F JUMPI DUP1 PUSH4 0xA5DCA464 EQ PUSH2 0x2127 JUMPI DUP1 PUSH4 0xA66F42C0 EQ PUSH2 0x1F40 JUMPI DUP1 PUSH4 0xA6A1858F EQ PUSH2 0x1F08 JUMPI DUP1 PUSH4 0xA6AE0AAC EQ PUSH2 0x1BB5 JUMPI PUSH2 0x1ADF JUMP JUMPDEST DUP1 PUSH4 0xA433CCC7 EQ PUSH2 0x1BF8 JUMPI DUP1 PUSH4 0xA4590BD0 EQ PUSH2 0x1C50 JUMPI DUP1 PUSH4 0xA523B88A EQ PUSH2 0x20C2 JUMPI PUSH2 0x1ADF JUMP JUMPDEST DUP1 PUSH4 0xA00820B1 GT PUSH2 0x9A2 JUMPI DUP1 PUSH4 0xA09B9CB8 GT PUSH2 0x97C JUMPI DUP1 PUSH4 0xA09B9CB8 EQ PUSH2 0x1F90 JUMPI DUP1 PUSH4 0xA139D024 EQ PUSH2 0x2137 JUMPI DUP1 PUSH4 0xA1C2F5C1 EQ PUSH2 0x1D8C JUMPI DUP1 PUSH4 0xA3982789 EQ PUSH2 0x1BAD JUMPI PUSH2 0x1ADF JUMP JUMPDEST DUP1 PUSH4 0xA00820B1 EQ PUSH2 0x1D14 JUMPI DUP1 PUSH4 0xA04E8BEA EQ PUSH2 0x212F JUMPI DUP1 PUSH4 0xA0811074 EQ PUSH2 0x1C48 JUMPI PUSH2 0x1ADF JUMP JUMPDEST DUP1 PUSH4 0x9BBF8113 EQ PUSH2 0x1D14 JUMPI DUP1 PUSH4 0x9BE28785 EQ PUSH2 0x211F JUMPI DUP1 PUSH4 0x9DEF2D89 EQ PUSH2 0x1EC8 JUMPI DUP1 PUSH4 0x9E01E299 EQ PUSH2 0x2127 JUMPI DUP1 PUSH4 0x9F081DB6 EQ PUSH2 0x1CC0 JUMPI DUP1 PUSH4 0x9FAA3C91 EQ PUSH2 0x1C48 JUMPI PUSH2 0x1ADF JUMP JUMPDEST DUP1 PUSH4 0x89934D3A GT PUSH2 0xB82 JUMPI DUP1 PUSH4 0x90EB42CB GT PUSH2 0xACE JUMPI DUP1 PUSH4 0x95D89B41 GT PUSH2 0xA6C JUMPI DUP1 PUSH4 0x98A7DA82 GT PUSH2 0xA46 JUMPI DUP1 PUSH4 0x98A7DA82 EQ PUSH2 0x1CC0 JUMPI DUP1 PUSH4 0x99BE6B8B EQ PUSH2 0x1CA8 JUMPI DUP1 PUSH4 0x99DA5BC9 EQ PUSH2 0x1D14 JUMPI DUP1 PUSH4 0x9AA395F4 EQ PUSH2 0x1C58 JUMPI PUSH2 0x1ADF JUMP JUMPDEST DUP1 PUSH4 0x95D89B41 EQ PUSH2 0x2102 JUMPI DUP1 PUSH4 0x95E4B251 EQ PUSH2 0x2030 JUMPI DUP1 PUSH4 0x97CCD07B EQ PUSH2 0x2117 JUMPI PUSH2 0x1ADF JUMP JUMPDEST DUP1 PUSH4 0x9309D42E GT PUSH2 0xAA8 JUMPI DUP1 PUSH4 0x9309D42E EQ PUSH2 0x1D64 JUMPI DUP1 PUSH4 0x94DEDA25 EQ PUSH2 0x20FA JUMPI DUP1 PUSH4 0x952C96FB EQ PUSH2 0x1FD0 JUMPI DUP1 PUSH4 0x954A664B EQ PUSH2 0x1CC0 JUMPI PUSH2 0x1ADF JUMP JUMPDEST DUP1 PUSH4 0x90EB42CB EQ PUSH2 0x1C00 JUMPI DUP1 PUSH4 0x910D13E8 EQ PUSH2 0x1C50 JUMPI DUP1 PUSH4 0x91152C5C EQ PUSH2 0x20F2 JUMPI PUSH2 0x1ADF JUMP JUMPDEST DUP1 PUSH4 0x8D8F2ADB GT PUSH2 0xB3B JUMPI DUP1 PUSH4 0x8F449A05 GT PUSH2 0xB15 JUMPI DUP1 PUSH4 0x8F449A05 EQ PUSH2 0x1EC8 JUMPI DUP1 PUSH4 0x8FDB7189 EQ PUSH2 0x20E2 JUMPI DUP1 PUSH4 0x901717D1 EQ PUSH2 0x20EA JUMPI DUP1 PUSH4 0x90770334 EQ PUSH2 0x1D84 JUMPI PUSH2 0x1ADF JUMP JUMPDEST DUP1 PUSH4 0x8D8F2ADB EQ PUSH2 0x20D2 JUMPI DUP1 PUSH4 0x8ED955B9 EQ PUSH2 0x20DA JUMPI DUP1 PUSH4 0x8F041C72 EQ PUSH2 0x1E98 JUMPI PUSH2 0x1ADF JUMP JUMPDEST DUP1 PUSH4 0x89934D3A EQ PUSH2 0x20CA JUMPI DUP1 PUSH4 0x89F6C918 EQ PUSH2 0x1B95 JUMPI DUP1 PUSH4 0x8AB53447 EQ PUSH2 0x2040 JUMPI DUP1 PUSH4 0x8B8FD3BD EQ PUSH2 0x1BAD JUMPI DUP1 PUSH4 0x8BC6BEB2 EQ PUSH2 0x1C68 JUMPI DUP1 PUSH4 0x8D14AEEC EQ PUSH2 0x1CD8 JUMPI PUSH2 0x1ADF JUMP JUMPDEST DUP1 PUSH4 0x8145BD04 GT PUSH2 0xC5C JUMPI DUP1 PUSH4 0x853828B6 GT PUSH2 0xBFA JUMPI DUP1 PUSH4 0x866DD204 GT PUSH2 0xBD4 JUMPI DUP1 PUSH4 0x866DD204 EQ PUSH2 0x1C58 JUMPI DUP1 PUSH4 0x878E1B10 EQ PUSH2 0x1C50 JUMPI DUP1 PUSH4 0x886F359D EQ PUSH2 0x1E48 JUMPI DUP1 PUSH4 0x889069CD EQ PUSH2 0x20C2 JUMPI PUSH2 0x1ADF JUMP JUMPDEST DUP1 PUSH4 0x853828B6 EQ PUSH2 0x1C88 JUMPI DUP1 PUSH4 0x860A32EC EQ PUSH2 0x1F70 JUMPI DUP1 PUSH4 0x863FC11E EQ PUSH2 0x20A8 JUMPI PUSH2 0x1ADF JUMP JUMPDEST DUP1 PUSH4 0x838729F6 GT PUSH2 0xC36 JUMPI DUP1 PUSH4 0x838729F6 EQ PUSH2 0x1F68 JUMPI DUP1 PUSH4 0x839D95D6 EQ PUSH2 0x1D14 JUMPI DUP1 PUSH4 0x8433ACD1 EQ PUSH2 0x20A0 JUMPI DUP1 PUSH4 0x8443BEA6 EQ PUSH2 0x1E48 JUMPI PUSH2 0x1ADF JUMP JUMPDEST DUP1 PUSH4 0x8145BD04 EQ PUSH2 0x1D14 JUMPI DUP1 PUSH4 0x815B7A8C EQ PUSH2 0x1BAD JUMPI DUP1 PUSH4 0x819FAF7B EQ PUSH2 0x2098 JUMPI PUSH2 0x1ADF JUMP JUMPDEST DUP1 PUSH4 0x7DD0C003 GT PUSH2 0xCC9 JUMPI DUP1 PUSH4 0x7FEC8D38 GT PUSH2 0xCA3 JUMPI DUP1 PUSH4 0x7FEC8D38 EQ PUSH2 0x2088 JUMPI DUP1 PUSH4 0x80D63AD7 EQ PUSH2 0x2078 JUMPI DUP1 PUSH4 0x80F0F59C EQ PUSH2 0x1D84 JUMPI DUP1 PUSH4 0x8119C065 EQ PUSH2 0x2090 JUMPI PUSH2 0x1ADF JUMP JUMPDEST DUP1 PUSH4 0x7DD0C003 EQ PUSH2 0x2070 JUMPI DUP1 PUSH4 0x7DDCFE7E EQ PUSH2 0x2078 JUMPI DUP1 PUSH4 0x7E2A6DB8 EQ PUSH2 0x2080 JUMPI PUSH2 0x1ADF JUMP JUMPDEST DUP1 PUSH4 0x7A64ADFA EQ PUSH2 0x1C40 JUMPI DUP1 PUSH4 0x7C7CC108 EQ PUSH2 0x1C50 JUMPI DUP1 PUSH4 0x7D0736B4 EQ PUSH2 0x1E50 JUMPI DUP1 PUSH4 0x7D2A16DF EQ PUSH2 0x2068 JUMPI DUP1 PUSH4 0x7D38E0FF EQ PUSH2 0x1FB0 JUMPI DUP1 PUSH4 0x7DC0D1D0 EQ PUSH2 0x1C50 JUMPI PUSH2 0x1ADF JUMP JUMPDEST DUP1 PUSH4 0x43774864 GT PUSH2 0x138F JUMPI DUP1 PUSH4 0x5BC54B97 GT PUSH2 0x1068 JUMPI DUP1 PUSH4 0x67E8D3D2 GT PUSH2 0xEDA JUMPI DUP1 PUSH4 0x72BD1280 GT PUSH2 0xE0B JUMPI DUP1 PUSH4 0x7689DC7C GT PUSH2 0xDA9 JUMPI DUP1 PUSH4 0x78A1128A GT PUSH2 0xD83 JUMPI DUP1 PUSH4 0x78A1128A EQ PUSH2 0x1CD8 JUMPI DUP1 PUSH4 0x79BABD2C EQ PUSH2 0x1BA5 JUMPI DUP1 PUSH4 0x7A249488 EQ PUSH2 0x2060 JUMPI DUP1 PUSH4 0x7A4FE75A EQ PUSH2 0x1E48 JUMPI PUSH2 0x1ADF JUMP JUMPDEST DUP1 PUSH4 0x7689DC7C EQ PUSH2 0x1D64 JUMPI DUP1 PUSH4 0x76F73F43 EQ PUSH2 0x2050 JUMPI DUP1 PUSH4 0x785946F4 EQ PUSH2 0x2058 JUMPI PUSH2 0x1ADF JUMP JUMPDEST DUP1 PUSH4 0x753EC103 GT PUSH2 0xDE5 JUMPI DUP1 PUSH4 0x753EC103 EQ PUSH2 0x2040 JUMPI DUP1 PUSH4 0x758063E8 EQ PUSH2 0x1CC0 JUMPI DUP1 PUSH4 0x75B4D78C EQ PUSH2 0x2048 JUMPI DUP1 PUSH4 0x75C60225 EQ PUSH2 0x1E48 JUMPI PUSH2 0x1ADF JUMP JUMPDEST DUP1 PUSH4 0x72BD1280 EQ PUSH2 0x1EE0 JUMPI DUP1 PUSH4 0x73D00224 EQ PUSH2 0x2038 JUMPI DUP1 PUSH4 0x749C72EF EQ PUSH2 0x1CA8 JUMPI PUSH2 0x1ADF JUMP JUMPDEST DUP1 PUSH4 0x6FC2CA31 GT PUSH2 0xE78 JUMPI DUP1 PUSH4 0x70A08231 GT PUSH2 0xE52 JUMPI DUP1 PUSH4 0x70A08231 EQ PUSH2 0x2008 JUMPI DUP1 PUSH4 0x70BB45B3 EQ PUSH2 0x2028 JUMPI DUP1 PUSH4 0x71356813 EQ PUSH2 0x2030 JUMPI DUP1 PUSH4 0x7165485D EQ PUSH2 0x1E50 JUMPI PUSH2 0x1ADF JUMP JUMPDEST DUP1 PUSH4 0x6FC2CA31 EQ PUSH2 0x1F60 JUMPI DUP1 PUSH4 0x6FE8F9C5 EQ PUSH2 0x1FF8 JUMPI DUP1 PUSH4 0x7022B58E EQ PUSH2 0x2000 JUMPI PUSH2 0x1ADF JUMP JUMPDEST DUP1 PUSH4 0x6B69E05B GT PUSH2 0xEB4 JUMPI DUP1 PUSH4 0x6B69E05B EQ PUSH2 0x1FE0 JUMPI DUP1 PUSH4 0x6BB7B7A4 EQ PUSH2 0x1BBD JUMPI DUP1 PUSH4 0x6C5A34BD EQ PUSH2 0x1FE8 JUMPI DUP1 PUSH4 0x6CF3C25E EQ PUSH2 0x1FF0 JUMPI PUSH2 0x1ADF JUMP JUMPDEST DUP1 PUSH4 0x67E8D3D2 EQ PUSH2 0x1FD8 JUMPI DUP1 PUSH4 0x681CAC16 EQ PUSH2 0x1CD8 JUMPI DUP1 PUSH4 0x6B31EE01 EQ PUSH2 0x1F78 JUMPI PUSH2 0x1ADF JUMP JUMPDEST DUP1 PUSH4 0x60F14509 GT PUSH2 0xFB4 JUMPI DUP1 PUSH4 0x64A0B126 GT PUSH2 0xF52 JUMPI DUP1 PUSH4 0x665A11CA GT PUSH2 0xF2C JUMPI DUP1 PUSH4 0x665A11CA EQ PUSH2 0x1FC8 JUMPI DUP1 PUSH4 0x6673816B EQ PUSH2 0x1CC0 JUMPI DUP1 PUSH4 0x67B9A286 EQ PUSH2 0x1FD0 JUMPI DUP1 PUSH4 0x67CFCA5A EQ PUSH2 0x1BB5 JUMPI PUSH2 0x1ADF JUMP JUMPDEST DUP1 PUSH4 0x64A0B126 EQ PUSH2 0x1D14 JUMPI DUP1 PUSH4 0x64F70DE1 EQ PUSH2 0x1CA8 JUMPI DUP1 PUSH4 0x660C92D4 EQ PUSH2 0x1FC0 JUMPI PUSH2 0x1ADF JUMP JUMPDEST DUP1 PUSH4 0x62C2FD6B GT PUSH2 0xF8E JUMPI DUP1 PUSH4 0x62C2FD6B EQ PUSH2 0x1CC0 JUMPI DUP1 PUSH4 0x632A9A52 EQ PUSH2 0x1FA8 JUMPI DUP1 PUSH4 0x63C0FB51 EQ PUSH2 0x1FB0 JUMPI DUP1 PUSH4 0x643CEFF9 EQ PUSH2 0x1FB8 JUMPI PUSH2 0x1ADF JUMP JUMPDEST DUP1 PUSH4 0x60F14509 EQ PUSH2 0x1BBD JUMPI DUP1 PUSH4 0x61461954 EQ PUSH2 0x1F98 JUMPI DUP1 PUSH4 0x61F8E177 EQ PUSH2 0x1FA0 JUMPI PUSH2 0x1ADF JUMP JUMPDEST DUP1 PUSH4 0x5D36B190 GT PUSH2 0x1021 JUMPI DUP1 PUSH4 0x5DB13476 GT PUSH2 0xFFB JUMPI DUP1 PUSH4 0x5DB13476 EQ PUSH2 0x1EE0 JUMPI DUP1 PUSH4 0x5E54276A EQ PUSH2 0x1F88 JUMPI DUP1 PUSH4 0x5FD8C710 EQ PUSH2 0x1F90 JUMPI DUP1 PUSH4 0x60D7CFAC EQ PUSH2 0x1F78 JUMPI PUSH2 0x1ADF JUMP JUMPDEST DUP1 PUSH4 0x5D36B190 EQ PUSH2 0x1F80 JUMPI DUP1 PUSH4 0x5D463374 EQ PUSH2 0x1BBD JUMPI DUP1 PUSH4 0x5D9F404B EQ PUSH2 0x1BAD JUMPI PUSH2 0x1ADF JUMP JUMPDEST DUP1 PUSH4 0x5BC54B97 EQ PUSH2 0x1F58 JUMPI DUP1 PUSH4 0x5BCB2FC6 EQ PUSH2 0x1F60 JUMPI DUP1 PUSH4 0x5BEC9E67 EQ PUSH2 0x1F68 JUMPI DUP1 PUSH4 0x5BFC2C75 EQ PUSH2 0x1F70 JUMPI DUP1 PUSH4 0x5BFF9A27 EQ PUSH2 0x1F78 JUMPI DUP1 PUSH4 0x5C7ABCC2 EQ PUSH2 0x1D14 JUMPI PUSH2 0x1ADF JUMP JUMPDEST DUP1 PUSH4 0x509AAC34 GT PUSH2 0x1201 JUMPI DUP1 PUSH4 0x55E1B486 GT PUSH2 0x114D JUMPI DUP1 PUSH4 0x5ABEE115 GT PUSH2 0x10EB JUMPI DUP1 PUSH4 0x5B57F333 GT PUSH2 0x10C5 JUMPI DUP1 PUSH4 0x5B57F333 EQ PUSH2 0x1F40 JUMPI DUP1 PUSH4 0x5B6FE52C EQ PUSH2 0x1CA8 JUMPI DUP1 PUSH4 0x5B70EA9F EQ PUSH2 0x1F48 JUMPI DUP1 PUSH4 0x5B88349D EQ PUSH2 0x1F50 JUMPI PUSH2 0x1ADF JUMP JUMPDEST DUP1 PUSH4 0x5ABEE115 EQ PUSH2 0x1CC8 JUMPI DUP1 PUSH4 0x5AFD86A8 EQ PUSH2 0x1F30 JUMPI DUP1 PUSH4 0x5B4AB84D EQ PUSH2 0x1F38 JUMPI PUSH2 0x1ADF JUMP JUMPDEST DUP1 PUSH4 0x56F86E84 GT PUSH2 0x1127 JUMPI DUP1 PUSH4 0x56F86E84 EQ PUSH2 0x1CD8 JUMPI DUP1 PUSH4 0x5706D7E4 EQ PUSH2 0x1CD8 JUMPI DUP1 PUSH4 0x59774A53 EQ PUSH2 0x1C40 JUMPI DUP1 PUSH4 0x5AA6E675 EQ PUSH2 0x1F28 JUMPI PUSH2 0x1ADF JUMP JUMPDEST DUP1 PUSH4 0x55E1B486 EQ PUSH2 0x1B9D JUMPI DUP1 PUSH4 0x5641EC03 EQ PUSH2 0x1F20 JUMPI DUP1 PUSH4 0x56965615 EQ PUSH2 0x1C50 JUMPI PUSH2 0x1ADF JUMP JUMPDEST DUP1 PUSH4 0x52F9D94F GT PUSH2 0x11BA JUMPI DUP1 PUSH4 0x54D1F16F GT PUSH2 0x1194 JUMPI DUP1 PUSH4 0x54D1F16F EQ PUSH2 0x1E40 JUMPI DUP1 PUSH4 0x552CC062 EQ PUSH2 0x1CC0 JUMPI DUP1 PUSH4 0x554C1B1F EQ PUSH2 0x1CA8 JUMPI DUP1 PUSH4 0x55B6C288 EQ PUSH2 0x1C48 JUMPI PUSH2 0x1ADF JUMP JUMPDEST DUP1 PUSH4 0x52F9D94F EQ PUSH2 0x1C70 JUMPI DUP1 PUSH4 0x53C38FD7 EQ PUSH2 0x1BAD JUMPI DUP1 PUSH4 0x54204AD4 EQ PUSH2 0x1DC4 JUMPI PUSH2 0x1ADF JUMP JUMPDEST DUP1 PUSH4 0x509AAC34 EQ PUSH2 0x1D7C JUMPI DUP1 PUSH4 0x510402CD EQ PUSH2 0x1F00 JUMPI DUP1 PUSH4 0x522E1177 EQ PUSH2 0x1D0C JUMPI DUP1 PUSH4 0x52342F13 EQ PUSH2 0x1F08 JUMPI DUP1 PUSH4 0x52A60270 EQ PUSH2 0x1F10 JUMPI DUP1 PUSH4 0x52F910E6 EQ PUSH2 0x1F18 JUMPI PUSH2 0x1ADF JUMP JUMPDEST DUP1 PUSH4 0x49F415C8 GT PUSH2 0x12DB JUMPI DUP1 PUSH4 0x4E9C6B1F GT PUSH2 0x1279 JUMPI DUP1 PUSH4 0x4F91440D GT PUSH2 0x1253 JUMPI DUP1 PUSH4 0x4F91440D EQ PUSH2 0x1EE8 JUMPI DUP1 PUSH4 0x4FEEADE4 EQ PUSH2 0x1EF0 JUMPI DUP1 PUSH4 0x501FFDE7 EQ PUSH2 0x1D14 JUMPI DUP1 PUSH4 0x50635394 EQ PUSH2 0x1EF8 JUMPI PUSH2 0x1ADF JUMP JUMPDEST DUP1 PUSH4 0x4E9C6B1F EQ PUSH2 0x1EE0 JUMPI DUP1 PUSH4 0x4ECDE849 EQ PUSH2 0x1DF8 JUMPI DUP1 PUSH4 0x4F228596 EQ PUSH2 0x1D14 JUMPI PUSH2 0x1ADF JUMP JUMPDEST DUP1 PUSH4 0x4A9B3E8E GT PUSH2 0x12B5 JUMPI DUP1 PUSH4 0x4A9B3E8E EQ PUSH2 0x1EC8 JUMPI DUP1 PUSH4 0x4B71BFF3 EQ PUSH2 0x1ED0 JUMPI DUP1 PUSH4 0x4DACB96D EQ PUSH2 0x1BBD JUMPI DUP1 PUSH4 0x4E71D92D EQ PUSH2 0x1ED8 JUMPI PUSH2 0x1ADF JUMP JUMPDEST DUP1 PUSH4 0x49F415C8 EQ PUSH2 0x1EB8 JUMPI DUP1 PUSH4 0x4A4D59FA EQ PUSH2 0x1C40 JUMPI DUP1 PUSH4 0x4A521100 EQ PUSH2 0x1EC0 JUMPI PUSH2 0x1ADF JUMP JUMPDEST DUP1 PUSH4 0x456CB7C6 GT PUSH2 0x1348 JUMPI DUP1 PUSH4 0x47CCCA02 GT PUSH2 0x1322 JUMPI DUP1 PUSH4 0x47CCCA02 EQ PUSH2 0x1D7C JUMPI DUP1 PUSH4 0x48C54B9D EQ PUSH2 0x1EA8 JUMPI DUP1 PUSH4 0x4917DB66 EQ PUSH2 0x1EB0 JUMPI DUP1 PUSH4 0x49CEF723 EQ PUSH2 0x1D84 JUMPI PUSH2 0x1ADF JUMP JUMPDEST DUP1 PUSH4 0x456CB7C6 EQ PUSH2 0x1E98 JUMPI DUP1 PUSH4 0x459296D7 EQ PUSH2 0x1D64 JUMPI DUP1 PUSH4 0x4641257D EQ PUSH2 0x1EA0 JUMPI PUSH2 0x1ADF JUMP JUMPDEST DUP1 PUSH4 0x43774864 EQ PUSH2 0x1CC0 JUMPI DUP1 PUSH4 0x43DEF26E EQ PUSH2 0x1D64 JUMPI DUP1 PUSH4 0x44350D5F EQ PUSH2 0x1D14 JUMPI DUP1 PUSH4 0x44866955 EQ PUSH2 0x1CA8 JUMPI DUP1 PUSH4 0x44D333FF EQ PUSH2 0x1D7C JUMPI DUP1 PUSH4 0x44E95061 EQ PUSH2 0x1CD8 JUMPI PUSH2 0x1ADF JUMP JUMPDEST DUP1 PUSH4 0x243FCB35 GT PUSH2 0x16DC JUMPI DUP1 PUSH4 0x32C2A966 GT PUSH2 0x154E JUMPI DUP1 PUSH4 0x3A4B66F1 GT PUSH2 0x147F JUMPI DUP1 PUSH4 0x3E413BEE GT PUSH2 0x141D JUMPI DUP1 PUSH4 0x412CD53E GT PUSH2 0x13F7 JUMPI DUP1 PUSH4 0x412CD53E EQ PUSH2 0x1E90 JUMPI DUP1 PUSH4 0x4162169F EQ PUSH2 0x1BB5 JUMPI DUP1 PUSH4 0x41C4D92F EQ PUSH2 0x1CC0 JUMPI DUP1 PUSH4 0x43144B7A EQ PUSH2 0x1BAD JUMPI PUSH2 0x1ADF JUMP JUMPDEST DUP1 PUSH4 0x3E413BEE EQ PUSH2 0x1C48 JUMPI DUP1 PUSH4 0x3E9FFBEA EQ PUSH2 0x1E80 JUMPI DUP1 PUSH4 0x4086571E EQ PUSH2 0x1E88 JUMPI PUSH2 0x1ADF JUMP JUMPDEST DUP1 PUSH4 0x3BA463BF GT PUSH2 0x1459 JUMPI DUP1 PUSH4 0x3BA463BF EQ PUSH2 0x1E68 JUMPI DUP1 PUSH4 0x3CCFD60B EQ PUSH2 0x1E70 JUMPI DUP1 PUSH4 0x3CFE4735 EQ PUSH2 0x1D64 JUMPI DUP1 PUSH4 0x3D17AA26 EQ PUSH2 0x1E78 JUMPI PUSH2 0x1ADF JUMP JUMPDEST DUP1 PUSH4 0x3A4B66F1 EQ PUSH2 0x1E60 JUMPI DUP1 PUSH4 0x3ABAB95D EQ PUSH2 0x1CC8 JUMPI DUP1 PUSH4 0x3B481FCD EQ PUSH2 0x1C90 JUMPI PUSH2 0x1ADF JUMP JUMPDEST DUP1 PUSH4 0x372500AB GT PUSH2 0x14EC JUMPI DUP1 PUSH4 0x395EA61B GT PUSH2 0x14C6 JUMPI DUP1 PUSH4 0x395EA61B EQ PUSH2 0x1E50 JUMPI DUP1 PUSH4 0x39F24D45 EQ PUSH2 0x1E58 JUMPI DUP1 PUSH4 0x3A108D69 EQ PUSH2 0x1BF8 JUMPI DUP1 PUSH4 0x3A2B9626 EQ PUSH2 0x1BA5 JUMPI PUSH2 0x1ADF JUMP JUMPDEST DUP1 PUSH4 0x372500AB EQ PUSH2 0x1E40 JUMPI DUP1 PUSH4 0x37B6C887 EQ PUSH2 0x1D64 JUMPI DUP1 PUSH4 0x38C0F073 EQ PUSH2 0x1E48 JUMPI PUSH2 0x1ADF JUMP JUMPDEST DUP1 PUSH4 0x35322F37 GT PUSH2 0x1528 JUMPI DUP1 PUSH4 0x35322F37 EQ PUSH2 0x1E08 JUMPI DUP1 PUSH4 0x35A13597 EQ PUSH2 0x1E10 JUMPI DUP1 PUSH4 0x36CA3F79 EQ PUSH2 0x1C40 JUMPI DUP1 PUSH4 0x36E9332D EQ PUSH2 0x1E38 JUMPI PUSH2 0x1ADF JUMP JUMPDEST DUP1 PUSH4 0x32C2A966 EQ PUSH2 0x1CC0 JUMPI DUP1 PUSH4 0x32E24FEB EQ PUSH2 0x1DF8 JUMPI DUP1 PUSH4 0x34A8EA06 EQ PUSH2 0x1E00 JUMPI PUSH2 0x1ADF JUMP JUMPDEST DUP1 PUSH4 0x2B8278CA GT PUSH2 0x1628 JUMPI DUP1 PUSH4 0x2E58CA46 GT PUSH2 0x15C6 JUMPI DUP1 PUSH4 0x2F48AB7D GT PUSH2 0x15A0 JUMPI DUP1 PUSH4 0x2F48AB7D EQ PUSH2 0x1BA5 JUMPI DUP1 PUSH4 0x30818189 EQ PUSH2 0x1C88 JUMPI DUP1 PUSH4 0x30E4F56D EQ PUSH2 0x1DC4 JUMPI DUP1 PUSH4 0x313CE567 EQ PUSH2 0x1DCC JUMPI PUSH2 0x1ADF JUMP JUMPDEST DUP1 PUSH4 0x2E58CA46 EQ PUSH2 0x1BB5 JUMPI DUP1 PUSH4 0x2E974525 EQ PUSH2 0x1DB4 JUMPI DUP1 PUSH4 0x2F4350C2 EQ PUSH2 0x1DBC JUMPI PUSH2 0x1ADF JUMP JUMPDEST DUP1 PUSH4 0x2CF53D73 GT PUSH2 0x1602 JUMPI DUP1 PUSH4 0x2CF53D73 EQ PUSH2 0x1D14 JUMPI DUP1 PUSH4 0x2D2E3A93 EQ PUSH2 0x1BA5 JUMPI DUP1 PUSH4 0x2D8C1C35 EQ PUSH2 0x1C48 JUMPI DUP1 PUSH4 0x2DEF6620 EQ PUSH2 0x1DAC JUMPI PUSH2 0x1ADF JUMP JUMPDEST DUP1 PUSH4 0x2B8278CA EQ PUSH2 0x1D9C JUMPI DUP1 PUSH4 0x2BE11AE2 EQ PUSH2 0x1DA4 JUMPI DUP1 PUSH4 0x2C6DBB1C EQ PUSH2 0x1BBD JUMPI PUSH2 0x1ADF JUMP JUMPDEST DUP1 PUSH4 0x27AF9E38 GT PUSH2 0x1695 JUMPI DUP1 PUSH4 0x2930CF24 GT PUSH2 0x166F JUMPI DUP1 PUSH4 0x2930CF24 EQ PUSH2 0x1D8C JUMPI DUP1 PUSH4 0x298C6C51 EQ PUSH2 0x1BAD JUMPI DUP1 PUSH4 0x29CF1C30 EQ PUSH2 0x1CA8 JUMPI DUP1 PUSH4 0x2A981B5B EQ PUSH2 0x1D94 JUMPI PUSH2 0x1ADF JUMP JUMPDEST DUP1 PUSH4 0x27AF9E38 EQ PUSH2 0x1D84 JUMPI DUP1 PUSH4 0x28593984 EQ PUSH2 0x1D6C JUMPI DUP1 PUSH4 0x287F6C61 EQ PUSH2 0x1BB5 JUMPI PUSH2 0x1ADF JUMP JUMPDEST DUP1 PUSH4 0x243FCB35 EQ PUSH2 0x1D64 JUMPI DUP1 PUSH4 0x24600FC3 EQ PUSH2 0x1D6C JUMPI DUP1 PUSH4 0x24C12BF6 EQ PUSH2 0x1C48 JUMPI DUP1 PUSH4 0x24D69131 EQ PUSH2 0x1D74 JUMPI DUP1 PUSH4 0x25B731AF EQ PUSH2 0x1C50 JUMPI DUP1 PUSH4 0x2681F7E4 EQ PUSH2 0x1D7C JUMPI PUSH2 0x1ADF JUMP JUMPDEST DUP1 PUSH4 0x1341EA50 GT PUSH2 0x1875 JUMPI DUP1 PUSH4 0x1AE947F7 GT PUSH2 0x17C1 JUMPI DUP1 PUSH4 0x1E2F3791 GT PUSH2 0x175F JUMPI DUP1 PUSH4 0x228CF6D6 GT PUSH2 0x1739 JUMPI DUP1 PUSH4 0x228CF6D6 EQ PUSH2 0x1C50 JUMPI DUP1 PUSH4 0x234CB051 EQ PUSH2 0x1D1C JUMPI DUP1 PUSH4 0x239F74AE EQ PUSH2 0x1BAD JUMPI DUP1 PUSH4 0x23B872DD EQ PUSH2 0x1D44 JUMPI PUSH2 0x1ADF JUMP JUMPDEST DUP1 PUSH4 0x1E2F3791 EQ PUSH2 0x1D34 JUMPI DUP1 PUSH4 0x21A950CA EQ PUSH2 0x1D14 JUMPI DUP1 PUSH4 0x2262A1B3 EQ PUSH2 0x1D3C JUMPI PUSH2 0x1ADF JUMP JUMPDEST DUP1 PUSH4 0x1C4695F4 GT PUSH2 0x179B JUMPI DUP1 PUSH4 0x1C4695F4 EQ PUSH2 0x1BB5 JUMPI DUP1 PUSH4 0x1C703655 EQ PUSH2 0x1D24 JUMPI DUP1 PUSH4 0x1E092EFB EQ PUSH2 0x1D2C JUMPI DUP1 PUSH4 0x1E21E4AB EQ PUSH2 0x1C90 JUMPI PUSH2 0x1ADF JUMP JUMPDEST DUP1 PUSH4 0x1AE947F7 EQ PUSH2 0x1BAD JUMPI DUP1 PUSH4 0x1B3ED722 EQ PUSH2 0x1C48 JUMPI DUP1 PUSH4 0x1BCE6FF3 EQ PUSH2 0x1D1C JUMPI PUSH2 0x1ADF JUMP JUMPDEST DUP1 PUSH4 0x16F0115B GT PUSH2 0x182E JUMPI DUP1 PUSH4 0x18160DDD GT PUSH2 0x1808 JUMPI DUP1 PUSH4 0x18160DDD EQ PUSH2 0x1CE0 JUMPI DUP1 PUSH4 0x199C9529 EQ PUSH2 0x1D04 JUMPI DUP1 PUSH4 0x19EB2EA0 EQ PUSH2 0x1D0C JUMPI DUP1 PUSH4 0x1A8F445F EQ PUSH2 0x1D14 JUMPI PUSH2 0x1ADF JUMP JUMPDEST DUP1 PUSH4 0x16F0115B EQ PUSH2 0x1CC8 JUMPI DUP1 PUSH4 0x174F57AF EQ PUSH2 0x1CD0 JUMPI DUP1 PUSH4 0x17C84F35 EQ PUSH2 0x1CD8 JUMPI PUSH2 0x1ADF JUMP JUMPDEST DUP1 PUSH4 0x1341EA50 EQ PUSH2 0x1C98 JUMPI DUP1 PUSH4 0x1370128E EQ PUSH2 0x1CA0 JUMPI DUP1 PUSH4 0x13D0C71C EQ PUSH2 0x1CA8 JUMPI DUP1 PUSH4 0x15B379BA EQ PUSH2 0x1CB0 JUMPI DUP1 PUSH4 0x15E962DE EQ PUSH2 0x1CB8 JUMPI DUP1 PUSH4 0x164C84C9 EQ PUSH2 0x1CC0 JUMPI PUSH2 0x1ADF JUMP JUMPDEST DUP1 PUSH4 0x95F6EBD GT PUSH2 0x194F JUMPI DUP1 PUSH4 0xD854646 GT PUSH2 0x18ED JUMPI DUP1 PUSH4 0xF30A44C GT PUSH2 0x18C7 JUMPI DUP1 PUSH4 0xF30A44C EQ PUSH2 0x1C78 JUMPI DUP1 PUSH4 0x1249C58B EQ PUSH2 0x1C80 JUMPI DUP1 PUSH4 0x12987C98 EQ PUSH2 0x1C88 JUMPI DUP1 PUSH4 0x12B495A8 EQ PUSH2 0x1C90 JUMPI PUSH2 0x1ADF JUMP JUMPDEST DUP1 PUSH4 0xD854646 EQ PUSH2 0x1BB5 JUMPI DUP1 PUSH4 0xE3F0CCA EQ PUSH2 0x1C68 JUMPI DUP1 PUSH4 0xF15F4C0 EQ PUSH2 0x1C70 JUMPI PUSH2 0x1ADF JUMP JUMPDEST DUP1 PUSH4 0xA6F6F9C GT PUSH2 0x1929 JUMPI DUP1 PUSH4 0xA6F6F9C EQ PUSH2 0x1C48 JUMPI DUP1 PUSH4 0xAD309E5 EQ PUSH2 0x1C50 JUMPI DUP1 PUSH4 0xC240F9B EQ PUSH2 0x1C58 JUMPI DUP1 PUSH4 0xC35580D EQ PUSH2 0x1C60 JUMPI PUSH2 0x1ADF JUMP JUMPDEST DUP1 PUSH4 0x95F6EBD EQ PUSH2 0x1C38 JUMPI DUP1 PUSH4 0x968C5ED EQ PUSH2 0x1BB5 JUMPI DUP1 PUSH4 0xA087903 EQ PUSH2 0x1C40 JUMPI PUSH2 0x1ADF JUMP JUMPDEST DUP1 PUSH4 0x314214C GT PUSH2 0x19BC JUMPI DUP1 PUSH4 0x71AD61D GT PUSH2 0x1996 JUMPI DUP1 PUSH4 0x71AD61D EQ PUSH2 0x1BF0 JUMPI DUP1 PUSH4 0x7824C06 EQ PUSH2 0x1BF8 JUMPI DUP1 PUSH4 0x7E1B558 EQ PUSH2 0x1C00 JUMPI DUP1 PUSH4 0x95EA7B3 EQ PUSH2 0x1C08 JUMPI PUSH2 0x1ADF JUMP JUMPDEST DUP1 PUSH4 0x314214C EQ PUSH2 0x1BBD JUMPI DUP1 PUSH4 0x4D18A8D EQ PUSH2 0x1BAD JUMPI DUP1 PUSH4 0x6FDDE03 EQ PUSH2 0x1BC5 JUMPI PUSH2 0x1ADF JUMP JUMPDEST DUP1 PUSH3 0xEEC9B4 EQ PUSH2 0x1B8D JUMPI DUP1 PUSH4 0x1339C21 EQ PUSH2 0x1B95 JUMPI DUP1 PUSH4 0x1EAAEC4 EQ PUSH2 0x1B9D JUMPI DUP1 PUSH4 0x1FF74F7 EQ PUSH2 0x1BA5 JUMPI DUP1 PUSH4 0x23F39C3 EQ PUSH2 0x1BAD JUMPI DUP1 PUSH4 0x2D05D3F EQ PUSH2 0x1BB5 JUMPI PUSH2 0x1ADF JUMP JUMPDEST CALLDATASIZE PUSH2 0x1ADF JUMPI PUSH2 0x1A10 CALLER PUSH2 0x23C7 JUMP JUMPDEST PUSH1 0x0 DUP1 SLOAD PUSH1 0x40 MLOAD PUSH1 0x1 PUSH1 0x1 PUSH1 0xA0 SHL SUB SWAP1 SWAP2 AND SWAP1 CALLVALUE SWAP1 DUP4 DUP2 DUP2 DUP2 DUP6 DUP8 GAS CALL SWAP3 POP POP POP RETURNDATASIZE DUP1 PUSH1 0x0 DUP2 EQ PUSH2 0x1A5D JUMPI PUSH1 0x40 MLOAD SWAP2 POP PUSH1 0x1F NOT PUSH1 0x3F RETURNDATASIZE ADD AND DUP3 ADD PUSH1 0x40 MSTORE RETURNDATASIZE DUP3 MSTORE RETURNDATASIZE PUSH1 0x0 PUSH1 0x20 DUP5 ADD RETURNDATACOPY PUSH2 0x1A62 JUMP JUMPDEST PUSH1 0x60 SWAP2 POP JUMPDEST POP POP SWAP1 POP DUP1 PUSH2 0x1AB1 JUMPI PUSH1 0x40 MLOAD PUSH3 0x461BCD PUSH1 0xE5 SHL DUP2 MSTORE PUSH1 0x20 PUSH1 0x4 DUP3 ADD MSTORE PUSH1 0x16 PUSH1 0x24 DUP3 ADD MSTORE PUSH22 0x111A5C9958DD081D1C985B9CD9995C8819985A5B1959 PUSH1 0x52 SHL PUSH1 0x44 DUP3 ADD MSTORE PUSH1 0x64 ADD JUMPDEST PUSH1 0x40 MLOAD DUP1 SWAP2 SUB SWAP1 REVERT JUMPDEST CALLER PUSH1 0x0 DUP1 MLOAD PUSH1 0x20 PUSH2 0x5222 DUP4 CODECOPY DUP2 MLOAD SWAP2 MSTORE PUSH2 0x1ACC CALLVALUE PUSH1 0x64 PUSH2 0x5045 JUMP JUMPDEST PUSH1 0x40 MLOAD SWAP1 DUP2 MSTORE PUSH1 0x20 ADD PUSH1 0x40 MLOAD DUP1 SWAP2 SUB SWAP1 LOG2 STOP JUMPDEST PUSH2 0x1AE8 CALLER PUSH2 0x23C7 JUMP JUMPDEST PUSH1 0x0 DUP1 SLOAD PUSH1 0x40 MLOAD PUSH1 0x1 PUSH1 0x1 PUSH1 0xA0 SHL SUB SWAP1 SWAP2 AND SWAP1 CALLVALUE SWAP1 DUP4 DUP2 DUP2 DUP2 DUP6 DUP8 GAS CALL SWAP3 POP POP POP RETURNDATASIZE DUP1 PUSH1 0x0 DUP2 EQ PUSH2 0x1B35 JUMPI PUSH1 0x40 MLOAD SWAP2 POP PUSH1 0x1F NOT PUSH1 0x3F RETURNDATASIZE ADD AND DUP3 ADD PUSH1 0x40 MSTORE RETURNDATASIZE DUP3 MSTORE RETURNDATASIZE PUSH1 0x0 PUSH1 0x20 DUP5 ADD RETURNDATACOPY PUSH2 0x1B3A JUMP JUMPDEST PUSH1 0x60 SWAP2 POP JUMPDEST POP POP SWAP1 POP DUP1 PUSH2 0x1B8B JUMPI PUSH1 0x40 MLOAD PUSH3 0x461BCD PUSH1 0xE5 SHL DUP2 MSTORE PUSH1 0x20 PUSH1 0x4 DUP3 ADD MSTORE PUSH1 0x18 PUSH1 0x24 DUP3 ADD MSTORE PUSH32 0x46616C6C6261636B207472616E73666572206661696C65640000000000000000 PUSH1 0x44 DUP3 ADD MSTORE PUSH1 0x64 ADD PUSH2 0x1AA8 JUMP JUMPDEST STOP JUMPDEST PUSH2 0x1B8B PUSH2 0x2463 JUMP JUMPDEST PUSH2 0x1B8B PUSH2 0x2479 JUMP JUMPDEST PUSH2 0x1B8B PUSH2 0x248D JUMP JUMPDEST PUSH2 0x1B8B PUSH2 0x24A1 JUMP JUMPDEST PUSH2 0x1B8B PUSH2 0x24B5 JUMP JUMPDEST PUSH2 0x1B8B PUSH2 0x24C9 JUMP JUMPDEST PUSH2 0x1B8B PUSH2 0x24DD JUMP JUMPDEST CALLVALUE DUP1 ISZERO PUSH2 0x1BD1 JUMPI PUSH1 0x0 DUP1 REVERT JUMPDEST POP PUSH2 0x1BDA PUSH2 0x24F1 JUMP JUMPDEST PUSH1 0x40 MLOAD PUSH2 0x1BE7 SWAP2 SWAP1 PUSH2 0x505C JUMP JUMPDEST PUSH1 0x40 MLOAD DUP1 SWAP2 SUB SWAP1 RETURN JUMPDEST PUSH2 0x1B8B PUSH2 0x257F JUMP JUMPDEST PUSH2 0x1B8B PUSH2 0x2592 JUMP JUMPDEST PUSH2 0x1B8B PUSH2 0x25A6 JUMP JUMPDEST CALLVALUE DUP1 ISZERO PUSH2 0x1C14 JUMPI PUSH1 0x0 DUP1 REVERT JUMPDEST POP PUSH2 0x1C28 PUSH2 0x1C23 CALLDATASIZE PUSH1 0x4 PUSH2 0x50C6 JUMP JUMPDEST PUSH2 0x25BB JUMP JUMPDEST PUSH1 0x40 MLOAD SWAP1 ISZERO ISZERO DUP2 MSTORE PUSH1 0x20 ADD PUSH2 0x1BE7 JUMP JUMPDEST PUSH2 0x1B8B PUSH2 0x25F7 JUMP JUMPDEST PUSH2 0x1B8B PUSH2 0x260B JUMP JUMPDEST PUSH2 0x1B8B PUSH2 0x261F JUMP JUMPDEST PUSH2 0x1B8B PUSH2 0x2633 JUMP JUMPDEST PUSH2 0x1B8B PUSH2 0x2647 JUMP JUMPDEST PUSH2 0x1B8B PUSH2 0x265B JUMP JUMPDEST PUSH2 0x1B8B PUSH2 0x266E JUMP JUMPDEST PUSH2 0x1B8B PUSH2 0x2682 JUMP JUMPDEST PUSH2 0x1B8B PUSH2 0x2696 JUMP JUMPDEST PUSH2 0x1B8B PUSH2 0x26A9 JUMP JUMPDEST PUSH2 0x1B8B PUSH2 0x26BC JUMP JUMPDEST PUSH2 0x1B8B PUSH2 0x26D0 JUMP JUMPDEST PUSH2 0x1B8B PUSH2 0x26E4 JUMP JUMPDEST PUSH2 0x1B8B PUSH2 0x26F8 JUMP JUMPDEST PUSH2 0x1B8B PUSH2 0x270C JUMP JUMPDEST PUSH2 0x1B8B PUSH2 0x2720 JUMP JUMPDEST PUSH2 0x1B8B PUSH2 0x2733 JUMP JUMPDEST PUSH2 0x1B8B PUSH2 0x2747 JUMP JUMPDEST PUSH2 0x1B8B PUSH2 0x275B JUMP JUMPDEST PUSH2 0x1B8B PUSH2 0x276F JUMP JUMPDEST PUSH2 0x1B8B PUSH2 0x28BE JUMP JUMPDEST CALLVALUE DUP1 ISZERO PUSH2 0x1CEC JUMPI PUSH1 0x0 DUP1 REVERT JUMPDEST POP PUSH2 0x1CF6 PUSH1 0x4 SLOAD DUP2 JUMP JUMPDEST PUSH1 0x40 MLOAD SWAP1 DUP2 MSTORE PUSH1 0x20 ADD PUSH2 0x1BE7 JUMP JUMPDEST PUSH2 0x1B8B PUSH2 0x28D2 JUMP JUMPDEST PUSH2 0x1B8B PUSH2 0x28E6 JUMP JUMPDEST PUSH2 0x1B8B PUSH2 0x28FA JUMP JUMPDEST PUSH2 0x1B8B PUSH2 0x290E JUMP JUMPDEST PUSH2 0x1B8B PUSH2 0x2922 JUMP JUMPDEST PUSH2 0x1B8B PUSH2 0x2936 JUMP JUMPDEST PUSH2 0x1B8B PUSH2 0x294A JUMP JUMPDEST PUSH2 0x1B8B PUSH2 0x295E JUMP JUMPDEST CALLVALUE DUP1 ISZERO PUSH2 0x1D50 JUMPI PUSH1 0x0 DUP1 REVERT JUMPDEST POP PUSH2 0x1C28 PUSH2 0x1D5F CALLDATASIZE PUSH1 0x4 PUSH2 0x50F0 JUMP JUMPDEST PUSH2 0x2972 JUMP JUMPDEST PUSH2 0x1B8B PUSH2 0x29C2 JUMP JUMPDEST PUSH2 0x1B8B PUSH2 0x29D6 JUMP JUMPDEST PUSH2 0x1B8B PUSH2 0x29EA JUMP JUMPDEST PUSH2 0x1B8B PUSH2 0x29FE JUMP JUMPDEST PUSH2 0x1B8B PUSH2 0x2A12 JUMP JUMPDEST PUSH2 0x1B8B PUSH2 0x2A26 JUMP JUMPDEST PUSH2 0x1B8B PUSH2 0x2A3A JUMP JUMPDEST PUSH2 0x1B8B PUSH2 0x2A4E JUMP JUMPDEST PUSH2 0x1B8B PUSH2 0x2BAD JUMP JUMPDEST PUSH2 0x1B8B PUSH2 0x2BC1 JUMP JUMPDEST PUSH2 0x1B8B PUSH2 0x2BD4 JUMP JUMPDEST PUSH2 0x1B8B PUSH2 0x2D24 JUMP JUMPDEST PUSH2 0x1B8B PUSH2 0x2D38 JUMP JUMPDEST CALLVALUE DUP1 ISZERO PUSH2 0x1DD8 JUMPI PUSH1 0x0 DUP1 REVERT JUMPDEST POP PUSH1 0x3 SLOAD PUSH2 0x1DE6 SWAP1 PUSH1 0xFF AND DUP2 JUMP JUMPDEST PUSH1 0x40 MLOAD PUSH1 0xFF SWAP1 SWAP2 AND DUP2 MSTORE PUSH1 0x20 ADD PUSH2 0x1BE7 JUMP JUMPDEST PUSH2 0x1B8B PUSH2 0x2D4C JUMP JUMPDEST PUSH2 0x1B8B PUSH2 0x2D60 JUMP JUMPDEST PUSH2 0x1B8B PUSH2 0x2D75 JUMP JUMPDEST CALLVALUE DUP1 ISZERO PUSH2 0x1E1C JUMPI PUSH1 0x0 DUP1 REVERT JUMPDEST POP PUSH1 0x0 SLOAD PUSH1 0x40 MLOAD PUSH1 0x1 PUSH1 0x1 PUSH1 0xA0 SHL SUB SWAP1 SWAP2 AND DUP2 MSTORE PUSH1 0x20 ADD PUSH2 0x1BE7 JUMP JUMPDEST PUSH2 0x1B8B PUSH2 0x2D89 JUMP JUMPDEST PUSH2 0x1B8B PUSH2 0x2D9D JUMP JUMPDEST PUSH2 0x1B8B PUSH2 0x2DB0 JUMP JUMPDEST PUSH2 0x1B8B PUSH2 0x2DC4 JUMP JUMPDEST PUSH2 0x1B8B PUSH2 0x2DD8 JUMP JUMPDEST PUSH2 0x1B8B PUSH2 0x2DEC JUMP JUMPDEST PUSH2 0x1B8B PUSH2 0x2DFF JUMP JUMPDEST PUSH2 0x1B8B PUSH2 0x2E13 JUMP JUMPDEST PUSH2 0x1B8B PUSH2 0x2F61 JUMP JUMPDEST PUSH2 0x1B8B PUSH2 0x2F75 JUMP JUMPDEST PUSH2 0x1B8B PUSH2 0x2F89 JUMP JUMPDEST PUSH2 0x1B8B PUSH2 0x2F9D JUMP JUMPDEST PUSH2 0x1B8B PUSH2 0x2FB1 JUMP JUMPDEST PUSH2 0x1B8B PUSH2 0x2FC5 JUMP JUMPDEST PUSH2 0x1B8B PUSH2 0x3110 JUMP JUMPDEST PUSH2 0x1B8B PUSH2 0x3123 JUMP JUMPDEST PUSH2 0x1B8B PUSH2 0x3137 JUMP JUMPDEST PUSH2 0x1B8B PUSH2 0x314B JUMP JUMPDEST PUSH2 0x1B8B PUSH2 0x3160 JUMP JUMPDEST PUSH2 0x1B8B PUSH2 0x3174 JUMP JUMPDEST PUSH2 0x1B8B PUSH2 0x3188 JUMP JUMPDEST PUSH2 0x1B8B PUSH2 0x319B JUMP JUMPDEST PUSH2 0x1B8B PUSH2 0x31AF JUMP JUMPDEST PUSH2 0x1B8B PUSH2 0x31C3 JUMP JUMPDEST PUSH2 0x1B8B PUSH2 0x31D7 JUMP JUMPDEST PUSH2 0x1B8B PUSH2 0x3328 JUMP JUMPDEST PUSH2 0x1B8B PUSH2 0x333C JUMP JUMPDEST PUSH2 0x1B8B PUSH2 0x3350 JUMP JUMPDEST PUSH2 0x1B8B PUSH2 0x3364 JUMP JUMPDEST PUSH2 0x1B8B PUSH2 0x34B3 JUMP JUMPDEST PUSH2 0x1B8B PUSH2 0x34C7 JUMP JUMPDEST PUSH2 0x1B8B PUSH2 0x34DB JUMP JUMPDEST PUSH2 0x1B8B PUSH2 0x34EF JUMP JUMPDEST PUSH2 0x1B8B PUSH2 0x3503 JUMP JUMPDEST PUSH2 0x1B8B PUSH2 0x3517 JUMP JUMPDEST PUSH2 0x1B8B PUSH2 0x352B JUMP JUMPDEST PUSH2 0x1B8B PUSH2 0x3684 JUMP JUMPDEST PUSH2 0x1B8B PUSH2 0x3698 JUMP JUMPDEST PUSH2 0x1B8B PUSH2 0x36AC JUMP JUMPDEST PUSH2 0x1B8B PUSH2 0x36C0 JUMP JUMPDEST PUSH2 0x1B8B PUSH2 0x36D4 JUMP JUMPDEST PUSH2 0x1B8B PUSH2 0x36E8 JUMP JUMPDEST PUSH2 0x1B8B PUSH2 0x3844 JUMP JUMPDEST PUSH2 0x1B8B PUSH2 0x3858 JUMP JUMPDEST PUSH2 0x1B8B PUSH2 0x386C JUMP JUMPDEST PUSH2 0x1B8B PUSH2 0x39BB JUMP JUMPDEST PUSH2 0x1B8B PUSH2 0x39D1 JUMP JUMPDEST PUSH2 0x1B8B PUSH2 0x39E5 JUMP JUMPDEST PUSH2 0x1B8B PUSH2 0x39F9 JUMP JUMPDEST PUSH2 0x1B8B PUSH2 0x3A0D JUMP JUMPDEST PUSH2 0x1B8B PUSH2 0x3B60 JUMP JUMPDEST PUSH2 0x1B8B PUSH2 0x3B74 JUMP JUMPDEST PUSH2 0x1B8B PUSH2 0x3B88 JUMP JUMPDEST PUSH2 0x1B8B PUSH2 0x3B9C JUMP JUMPDEST PUSH2 0x1B8B PUSH2 0x3CED JUMP JUMPDEST PUSH2 0x1B8B PUSH2 0x3D01 JUMP JUMPDEST PUSH2 0x1B8B PUSH2 0x3D14 JUMP JUMPDEST PUSH2 0x1B8B PUSH2 0x3D28 JUMP JUMPDEST CALLVALUE DUP1 ISZERO PUSH2 0x2014 JUMPI PUSH1 0x0 DUP1 REVERT JUMPDEST POP PUSH2 0x1CF6 PUSH2 0x2023 CALLDATASIZE PUSH1 0x4 PUSH2 0x512D JUMP JUMPDEST PUSH2 0x3D3C JUMP JUMPDEST PUSH2 0x1B8B PUSH2 0x3DBA JUMP JUMPDEST PUSH2 0x1B8B PUSH2 0x3DCE JUMP JUMPDEST PUSH2 0x1B8B PUSH2 0x3DE2 JUMP JUMPDEST PUSH2 0x1B8B PUSH2 0x3DF6 JUMP JUMPDEST PUSH2 0x1B8B PUSH2 0x3E0A JUMP JUMPDEST PUSH2 0x1B8B PUSH2 0x3E1E JUMP JUMPDEST PUSH2 0x1B8B PUSH2 0x3E32 JUMP JUMPDEST PUSH2 0x1B8B PUSH2 0x3E45 JUMP JUMPDEST PUSH2 0x1B8B PUSH2 0x3E59 JUMP JUMPDEST PUSH2 0x1B8B PUSH2 0x3E6C JUMP JUMPDEST PUSH2 0x1B8B PUSH2 0x3FC8 JUMP JUMPDEST PUSH2 0x1B8B PUSH2 0x3FDC JUMP JUMPDEST PUSH2 0x1B8B PUSH2 0x3FF0 JUMP JUMPDEST PUSH2 0x1B8B PUSH2 0x4004 JUMP JUMPDEST PUSH2 0x1B8B PUSH2 0x4018 JUMP JUMPDEST PUSH2 0x1B8B PUSH2 0x402C JUMP JUMPDEST CALLVALUE DUP1 ISZERO PUSH2 0x20B4 JUMPI PUSH1 0x0 DUP1 REVERT JUMPDEST POP PUSH7 0x38D7EA4C68000 PUSH2 0x1CF6 JUMP JUMPDEST PUSH2 0x1B8B PUSH2 0x403F JUMP JUMPDEST PUSH2 0x1B8B PUSH2 0x4053 JUMP JUMPDEST PUSH2 0x1B8B PUSH2 0x4066 JUMP JUMPDEST PUSH2 0x1B8B PUSH2 0x4079 JUMP JUMPDEST PUSH2 0x1B8B PUSH2 0x408D JUMP JUMPDEST PUSH2 0x1B8B PUSH2 0x40A1 JUMP JUMPDEST PUSH2 0x1B8B PUSH2 0x40B4 JUMP JUMPDEST PUSH2 0x1B8B PUSH2 0x40C8 JUMP JUMPDEST CALLVALUE DUP1 ISZERO PUSH2 0x210E JUMPI PUSH1 0x0 DUP1 REVERT JUMPDEST POP PUSH2 0x1BDA PUSH2 0x40DB JUMP JUMPDEST PUSH2 0x1B8B PUSH2 0x40E8 JUMP JUMPDEST PUSH2 0x1B8B PUSH2 0x40FC JUMP JUMPDEST PUSH2 0x1B8B PUSH2 0x4110 JUMP JUMPDEST PUSH2 0x1C28 PUSH2 0x4125 JUMP JUMPDEST PUSH2 0x1B8B PUSH2 0x42E1 JUMP JUMPDEST PUSH2 0x1B8B PUSH2 0x42F5 JUMP JUMPDEST CALLVALUE DUP1 ISZERO PUSH2 0x2153 JUMPI PUSH1 0x0 DUP1 REVERT JUMPDEST POP PUSH2 0x1C28 PUSH2 0x2162 CALLDATASIZE PUSH1 0x4 PUSH2 0x50C6 JUMP JUMPDEST PUSH2 0x4309 JUMP JUMPDEST CALLVALUE DUP1 ISZERO PUSH2 0x2173 JUMPI PUSH1 0x0 DUP1 REVERT JUMPDEST POP PUSH1 0x7 SLOAD PUSH2 0x1CF6 JUMP JUMPDEST PUSH2 0x1B8B PUSH2 0x433F JUMP JUMPDEST PUSH2 0x1B8B PUSH2 0x4353 JUMP JUMPDEST PUSH2 0x1B8B PUSH2 0x4367 JUMP JUMPDEST PUSH2 0x1B8B PUSH2 0x437E JUMP JUMPDEST CALLVALUE DUP1 ISZERO PUSH2 0x21A8 JUMPI PUSH1 0x0 DUP1 REVERT JUMPDEST POP PUSH2 0x1C28 PUSH2 0x21B7 CALLDATASIZE PUSH1 0x4 PUSH2 0x512D JUMP JUMPDEST PUSH1 0x1 PUSH1 0x1 PUSH1 0xA0 SHL SUB AND PUSH1 0x0 SWAP1 DUP2 MSTORE PUSH1 0x5 PUSH1 0x20 MSTORE PUSH1 0x40 SWAP1 KECCAK256 SLOAD ISZERO ISZERO SWAP1 JUMP JUMPDEST PUSH2 0x1B8B PUSH2 0x4391 JUMP JUMPDEST PUSH2 0x1B8B PUSH2 0x43A6 JUMP JUMPDEST PUSH2 0x1B8B PUSH2 0x43BA JUMP JUMPDEST CALLVALUE DUP1 ISZERO PUSH2 0x21F8 JUMPI PUSH1 0x0 DUP1 REVERT JUMPDEST POP PUSH2 0x1CF6 PUSH2 0x2207 CALLDATASIZE PUSH1 0x4 PUSH2 0x512D JUMP JUMPDEST PUSH1 0x1 PUSH1 0x1 PUSH1 0xA0 SHL SUB AND PUSH1 0x0 SWAP1 DUP2 MSTORE PUSH1 0x5 PUSH1 0x20 MSTORE PUSH1 0x40 SWAP1 KECCAK256 SLOAD SWAP1 JUMP JUMPDEST PUSH2 0x1B8B PUSH2 0x43CD JUMP JUMPDEST PUSH2 0x1B8B PUSH2 0x4538 JUMP JUMPDEST PUSH2 0x1B8B PUSH2 0x454C JUMP JUMPDEST PUSH2 0x1B8B PUSH2 0x455F JUMP JUMPDEST PUSH2 0x1B8B PUSH2 0x4573 JUMP JUMPDEST PUSH2 0x1B8B PUSH2 0x46C3 JUMP JUMPDEST PUSH2 0x1B8B PUSH2 0x46D7 JUMP JUMPDEST PUSH2 0x1B8B PUSH2 0x46EB JUMP JUMPDEST PUSH2 0x1B8B PUSH2 0x46FE JUMP JUMPDEST PUSH2 0x1B8B PUSH2 0x4712 JUMP JUMPDEST PUSH2 0x1B8B PUSH2 0x4726 JUMP JUMPDEST PUSH2 0x1B8B PUSH2 0x4879 JUMP JUMPDEST CALLVALUE DUP1 ISZERO PUSH2 0x228E JUMPI PUSH1 0x0 DUP1 REVERT JUMPDEST POP PUSH2 0x1C28 PUSH2 0x229D CALLDATASIZE PUSH1 0x4 PUSH2 0x512D JUMP JUMPDEST POP PUSH1 0x1 SWAP1 JUMP JUMPDEST PUSH2 0x1B8B PUSH2 0x488D JUMP JUMPDEST PUSH2 0x1B8B PUSH2 0x48A1 JUMP JUMPDEST PUSH2 0x1B8B PUSH2 0x48B5 JUMP JUMPDEST PUSH2 0x1B8B PUSH2 0x48C9 JUMP JUMPDEST CALLVALUE DUP1 ISZERO PUSH2 0x22CF JUMPI PUSH1 0x0 DUP1 REVERT JUMPDEST POP PUSH11 0x14ADF4B7320334B9000000 PUSH2 0x1CF6 JUMP JUMPDEST PUSH2 0x1B8B PUSH2 0x48DD JUMP JUMPDEST PUSH2 0x1B8B PUSH2 0x48F1 JUMP JUMPDEST CALLVALUE DUP1 ISZERO PUSH2 0x22FD JUMPI PUSH1 0x0 DUP1 REVERT JUMPDEST POP PUSH2 0x1CF6 PUSH2 0x230C CALLDATASIZE PUSH1 0x4 PUSH2 0x514F JUMP JUMPDEST PUSH1 0x0 NOT SWAP3 SWAP2 POP POP JUMP JUMPDEST PUSH2 0x1B8B PUSH2 0x4905 JUMP JUMPDEST PUSH2 0x1B8B PUSH2 0x4919 JUMP JUMPDEST PUSH2 0x1B8B PUSH2 0x4A67 JUMP JUMPDEST PUSH2 0x1B8B PUSH2 0x4A7B JUMP JUMPDEST PUSH2 0x1B8B PUSH2 0x4A8F JUMP JUMPDEST PUSH2 0x1B8B PUSH2 0x4AA3 JUMP JUMPDEST PUSH2 0x1B8B PUSH2 0x4AB7 JUMP JUMPDEST PUSH2 0x1B8B PUSH2 0x4ACB JUMP JUMPDEST PUSH2 0x1B8B PUSH2 0x4AE0 JUMP JUMPDEST PUSH2 0x1B8B PUSH2 0x4AF3 JUMP JUMPDEST PUSH2 0x1B8B PUSH2 0x4B07 JUMP JUMPDEST PUSH2 0x1B8B PUSH2 0x4B1B JUMP JUMPDEST PUSH2 0x1B8B PUSH2 0x4B2F JUMP JUMPDEST PUSH2 0x1B8B PUSH2 0x4B43 JUMP JUMPDEST CALLVALUE DUP1 ISZERO PUSH2 0x2391 JUMPI PUSH1 0x0 DUP1 REVERT JUMPDEST POP PUSH2 0x239A PUSH2 0x4C93 JUMP JUMPDEST PUSH1 0x40 MLOAD PUSH2 0x1BE7 SWAP2 SWAP1 PUSH2 0x5182 JUMP JUMPDEST PUSH2 0x1B8B PUSH2 0x4D48 JUMP JUMPDEST PUSH2 0x1B8B PUSH2 0x4D5C JUMP JUMPDEST PUSH2 0x1B8B PUSH2 0x4D70 JUMP JUMPDEST PUSH2 0x1B8B PUSH2 0x4D84 JUMP JUMPDEST PUSH1 0x1 PUSH1 0x1 PUSH1 0xA0 SHL SUB DUP2 AND PUSH1 0x0 SWAP1 DUP2 MSTORE PUSH1 0x5 PUSH1 0x20 MSTORE PUSH1 0x40 DUP2 KECCAK256 SLOAD SWAP1 SUB PUSH2 0x2447 JUMPI PUSH1 0x7 DUP1 SLOAD SWAP1 PUSH1 0x0 PUSH2 0x23F6 DUP4 PUSH2 0x51CE JUMP JUMPDEST SWAP1 SWAP2 SSTORE POP POP PUSH1 0x6 DUP1 SLOAD PUSH1 0x1 DUP2 ADD DUP3 SSTORE PUSH1 0x0 SWAP2 SWAP1 SWAP2 MSTORE PUSH32 0xF652222313E28459528D920B65115C16C04F3EFC82AAEDC97BE59F3F377C0D3F ADD DUP1 SLOAD PUSH1 0x1 PUSH1 0x1 PUSH1 0xA0 SHL SUB NOT AND PUSH1 0x1 PUSH1 0x1 PUSH1 0xA0 SHL SUB DUP4 AND OR SWAP1 SSTORE JUMPDEST PUSH1 0x1 PUSH1 0x1 PUSH1 0xA0 SHL SUB AND PUSH1 0x0 SWAP1 DUP2 MSTORE PUSH1 0x5 PUSH1 0x20 MSTORE PUSH1 0x40 SWAP1 KECCAK256 TIMESTAMP SWAP1 SSTORE JUMP JUMPDEST PUSH2 0x2477 CALLER PUSH10 0x43C33C19375648000000 PUSH2 0x4ED4 JUMP JUMPDEST JUMP JUMPDEST PUSH2 0x2477 CALLER PUSH10 0x1F2BBA5D84F99C00000 PUSH2 0x4ED4 JUMP JUMPDEST PUSH2 0x2477 CALLER PUSH10 0x119E47F21381F400000 PUSH2 0x4ED4 JUMP JUMPDEST PUSH2 0x2477 CALLER PUSH10 0x8E4D316827686400000 PUSH2 0x4ED4 JUMP JUMPDEST PUSH2 0x2477 CALLER PUSH10 0x11FFDBF6B2B2EB200000 PUSH2 0x4ED4 JUMP JUMPDEST PUSH2 0x2477 CALLER PUSH10 0xE664992288F22800000 PUSH2 0x4ED4 JUMP JUMPDEST PUSH2 0x2477 CALLER PUSH10 0xDC3A8351F3D86A00000 PUSH2 0x4ED4 JUMP JUMPDEST PUSH1 0x1 DUP1 SLOAD PUSH2 0x24FE SWAP1 PUSH2 0x51E7 JUMP JUMPDEST DUP1 PUSH1 0x1F ADD PUSH1 0x20 DUP1 SWAP2 DIV MUL PUSH1 0x20 ADD PUSH1 0x40 MLOAD SWAP1 DUP2 ADD PUSH1 0x40 MSTORE DUP1 SWAP3 SWAP2 SWAP1 DUP2 DUP2 MSTORE PUSH1 0x20 ADD DUP3 DUP1 SLOAD PUSH2 0x252A SWAP1 PUSH2 0x51E7 JUMP JUMPDEST DUP1 ISZERO PUSH2 0x2577 JUMPI DUP1 PUSH1 0x1F LT PUSH2 0x254C JUMPI PUSH2 0x100 DUP1 DUP4 SLOAD DIV MUL DUP4 MSTORE SWAP2 PUSH1 0x20 ADD SWAP2 PUSH2 0x2577 JUMP JUMPDEST DUP3 ADD SWAP2 SWAP1 PUSH1 0x0 MSTORE PUSH1 0x20 PUSH1 0x0 KECCAK256 SWAP1 JUMPDEST DUP2 SLOAD DUP2 MSTORE SWAP1 PUSH1 0x1 ADD SWAP1 PUSH1 0x20 ADD DUP1 DUP4 GT PUSH2 0x255A JUMPI DUP3 SWAP1 SUB PUSH1 0x1F AND DUP3 ADD SWAP2 JUMPDEST POP POP POP POP POP DUP2 JUMP JUMPDEST PUSH2 0x2477 CALLER PUSH9 0xAD78EBC5AC62000000 PUSH2 0x4ED4 JUMP JUMPDEST PUSH2 0x2477 CALLER PUSH10 0x32D26D12E980B600000 PUSH2 0x4ED4 JUMP JUMPDEST PUSH2 0x2477 CALLER PUSH11 0x13DA329B6336471800000 PUSH2 0x4ED4 JUMP JUMPDEST PUSH1 0x0 PUSH2 0x25C6 CALLER PUSH2 0x23C7 JUMP JUMPDEST PUSH1 0x40 MLOAD PUSH1 0x0 DUP1 DUP3 MSTORE SWAP1 CALLER SWAP1 PUSH1 0x0 DUP1 MLOAD PUSH1 0x20 PUSH2 0x5242 DUP4 CODECOPY DUP2 MLOAD SWAP2 MSTORE SWAP1 PUSH1 0x20 ADD JUMPDEST PUSH1 0x40 MLOAD DUP1 SWAP2 SUB SWAP1 LOG3 POP PUSH1 0x1 JUMPDEST SWAP3 SWAP2 POP POP JUMP JUMPDEST PUSH2 0x2477 CALLER PUSH10 0x3EAE3130ECC96900000 PUSH2 0x4ED4 JUMP JUMPDEST PUSH2 0x2477 CALLER PUSH10 0xBA58E545582D4600000 PUSH2 0x4ED4 JUMP JUMPDEST PUSH2 0x2477 CALLER PUSH10 0x98774738BC822200000 PUSH2 0x4ED4 JUMP JUMPDEST PUSH2 0x2477 CALLER PUSH10 0x1FC3842BD1F071C00000 PUSH2 0x4ED4 JUMP JUMPDEST PUSH2 0x2477 CALLER PUSH10 0x3F870857A3E0E3800000 PUSH2 0x4ED4 JUMP JUMPDEST PUSH2 0x2477 CALLER PUSH9 0x878678326EAC900000 PUSH2 0x4ED4 JUMP JUMPDEST PUSH2 0x2477 CALLER PUSH10 0x1E2784FBDC770900000 PUSH2 0x4ED4 JUMP JUMPDEST PUSH2 0x2477 CALLER PUSH10 0x15AF1D78B58C4000000 PUSH2 0x4ED4 JUMP JUMPDEST PUSH2 0x2477 CALLER PUSH9 0xEE86442FCD06C00000 PUSH2 0x4ED4 JUMP JUMPDEST PUSH2 0x2477 CALLER PUSH9 0xBDBC41E0348B300000 PUSH2 0x4ED4 JUMP JUMPDEST PUSH2 0x2477 CALLER PUSH10 0x28A857425466F800000 PUSH2 0x4ED4 JUMP JUMPDEST PUSH2 0x2477 CALLER PUSH10 0xB02ECF74C3138800000 PUSH2 0x4ED4 JUMP JUMPDEST PUSH2 0x2477 CALLER PUSH10 0x1B1AE4D6E2EF50000000 PUSH2 0x4ED4 JUMP JUMPDEST PUSH2 0x2477 CALLER PUSH10 0x14AAE8170D09AD00000 PUSH2 0x4ED4 JUMP JUMPDEST PUSH2 0x2477 CALLER PUSH10 0x2A5A058FC295ED000000 PUSH2 0x4ED4 JUMP JUMPDEST PUSH2 0x2477 CALLER PUSH9 0x5150AE84A8CDF00000 PUSH2 0x4ED4 JUMP JUMPDEST PUSH2 0x2477 CALLER PUSH10 0x37E777FB340D9500000 PUSH2 0x4ED4 JUMP JUMPDEST PUSH2 0x2477 CALLER PUSH10 0x1A784379D99DB4200000 PUSH2 0x4ED4 JUMP JUMPDEST PUSH2 0x2477 CALLER PUSH10 0x13A6B2B564871A00000 PUSH2 0x4ED4 JUMP JUMPDEST PUSH7 0x38D7EA4C68000 CALLVALUE LT ISZERO PUSH2 0x27C6 JUMPI PUSH1 0x40 MLOAD PUSH3 0x461BCD PUSH1 0xE5 SHL DUP2 MSTORE PUSH1 0x20 PUSH1 0x4 DUP3 ADD MSTORE PUSH1 0x18 PUSH1 0x24 DUP3 ADD MSTORE PUSH32 0x4D696E74696E67206665653A20302E303031204D415449430000000000000000 PUSH1 0x44 DUP3 ADD MSTORE PUSH1 0x64 ADD PUSH2 0x1AA8 JUMP JUMPDEST PUSH2 0x27CF CALLER PUSH2 0x23C7 JUMP JUMPDEST PUSH1 0x0 DUP1 SLOAD PUSH1 0x40 MLOAD PUSH1 0x1 PUSH1 0x1 PUSH1 0xA0 SHL SUB SWAP1 SWAP2 AND SWAP1 CALLVALUE SWAP1 DUP4 DUP2 DUP2 DUP2 DUP6 DUP8 GAS CALL SWAP3 POP POP POP RETURNDATASIZE DUP1 PUSH1 0x0 DUP2 EQ PUSH2 0x281C JUMPI PUSH1 0x40 MLOAD SWAP2 POP PUSH1 0x1F NOT PUSH1 0x3F RETURNDATASIZE ADD AND DUP3 ADD PUSH1 0x40 MSTORE RETURNDATASIZE DUP3 MSTORE RETURNDATASIZE PUSH1 0x0 PUSH1 0x20 DUP5 ADD RETURNDATACOPY PUSH2 0x2821 JUMP JUMPDEST PUSH1 0x60 SWAP2 POP JUMPDEST POP POP SWAP1 POP DUP1 PUSH2 0x2860 JUMPI PUSH1 0x40 MLOAD PUSH3 0x461BCD PUSH1 0xE5 SHL DUP2 MSTORE PUSH1 0x20 PUSH1 0x4 DUP3 ADD MSTORE PUSH1 0xB PUSH1 0x24 DUP3 ADD MSTORE PUSH11 0x135A5B9D0819985A5B1959 PUSH1 0xAA SHL PUSH1 0x44 DUP3 ADD MSTORE PUSH1 0x64 ADD PUSH2 0x1AA8 JUMP JUMPDEST PUSH1 0x40 MLOAD PUSH9 0xA2A15D09519BE00000 DUP2 MSTORE CALLER SWAP1 PUSH1 0x0 DUP1 MLOAD PUSH1 0x20 PUSH2 0x5222 DUP4 CODECOPY DUP2 MLOAD SWAP2 MSTORE SWAP1 PUSH1 0x20 ADD PUSH1 0x40 MLOAD DUP1 SWAP2 SUB SWAP1 LOG2 PUSH1 0x40 MLOAD PUSH9 0xA2A15D09519BE00000 DUP2 MSTORE CALLER SWAP1 ADDRESS SWAP1 PUSH1 0x0 DUP1 MLOAD PUSH1 0x20 PUSH2 0x5242 DUP4 CODECOPY DUP2 MLOAD SWAP2 MSTORE SWAP1 PUSH1 0x20 ADD JUMPDEST PUSH1 0x40 MLOAD DUP1 SWAP2 SUB SWAP1 LOG3 POP JUMP JUMPDEST PUSH2 0x2477 CALLER PUSH10 0x261DD1CE2F2088800000 PUSH2 0x4ED4 JUMP JUMPDEST PUSH2 0x2477 CALLER PUSH10 0x9F3E006E753DF600000 PUSH2 0x4ED4 JUMP JUMPDEST PUSH2 0x2477 CALLER PUSH10 0x18BBBD9DAF13F900000 PUSH2 0x4ED4 JUMP JUMPDEST PUSH2 0x2477 CALLER PUSH10 0x141DF5D77C6D9D600000 PUSH2 0x4ED4 JUMP JUMPDEST PUSH2 0x2477 CALLER PUSH10 0x11478B7C30ABC300000 PUSH2 0x4ED4 JUMP JUMPDEST PUSH2 0x2477 CALLER PUSH10 0x7F0E10AF47C1C7000000 PUSH2 0x4ED4 JUMP JUMPDEST PUSH2 0x2477 CALLER PUSH10 0x269FEC7F0361D200000 PUSH2 0x4ED4 JUMP JUMPDEST PUSH2 0x2477 CALLER PUSH10 0x5B7AC4553DE7AE00000 PUSH2 0x4ED4 JUMP JUMPDEST PUSH2 0x2477 CALLER PUSH10 0xFE1C215E8F838E000000 PUSH2 0x4ED4 JUMP JUMPDEST PUSH1 0x0 PUSH2 0x297D CALLER PUSH2 0x23C7 JUMP JUMPDEST DUP3 PUSH1 0x1 PUSH1 0x1 PUSH1 0xA0 SHL SUB AND DUP5 PUSH1 0x1 PUSH1 0x1 PUSH1 0xA0 SHL SUB AND PUSH1 0x0 DUP1 MLOAD PUSH1 0x20 PUSH2 0x5242 DUP4 CODECOPY DUP2 MLOAD SWAP2 MSTORE DUP5 PUSH1 0x40 MLOAD PUSH2 0x29B0 SWAP2 DUP2 MSTORE PUSH1 0x20 ADD SWAP1 JUMP JUMPDEST PUSH1 0x40 MLOAD DUP1 SWAP2 SUB SWAP1 LOG3 POP PUSH1 0x1 SWAP4 SWAP3 POP POP POP JUMP JUMPDEST PUSH2 0x2477 CALLER PUSH10 0x7695A92C20D6FE00000 PUSH2 0x4ED4 JUMP JUMPDEST PUSH2 0x2477 CALLER PUSH10 0x18650127CC3DC800000 PUSH2 0x4ED4 JUMP JUMPDEST PUSH2 0x2477 CALLER PUSH10 0x1ED4FDE7A2236B00000 PUSH2 0x4ED4 JUMP JUMPDEST PUSH2 0x2477 CALLER PUSH10 0x115D3A99A9614F400000 PUSH2 0x4ED4 JUMP JUMPDEST PUSH2 0x2477 CALLER PUSH10 0x12A27D53BC0487000000 PUSH2 0x4ED4 JUMP JUMPDEST PUSH2 0x2477 CALLER PUSH10 0x3CFC82E37E9A7400000 PUSH2 0x4ED4 JUMP JUMPDEST PUSH2 0x2477 CALLER PUSH10 0x124BC0DDD92E5600000 PUSH2 0x4ED4 JUMP JUMPDEST PUSH7 0x38D7EA4C68000 CALLVALUE LT ISZERO PUSH2 0x2AAF JUMPI PUSH1 0x40 MLOAD PUSH3 0x461BCD PUSH1 0xE5 SHL DUP2 MSTORE PUSH1 0x20 PUSH1 0x4 DUP3 ADD MSTORE PUSH1 0x21 PUSH1 0x24 DUP3 ADD MSTORE PUSH32 0x456D657267656E63792070726F63657373696E673A20302E303031204D415449 PUSH1 0x44 DUP3 ADD MSTORE PUSH1 0x43 PUSH1 0xF8 SHL PUSH1 0x64 DUP3 ADD MSTORE PUSH1 0x84 ADD PUSH2 0x1AA8 JUMP JUMPDEST PUSH2 0x2AB8 CALLER PUSH2 0x23C7 JUMP JUMPDEST PUSH1 0x0 DUP1 SLOAD PUSH1 0x40 MLOAD PUSH1 0x1 PUSH1 0x1 PUSH1 0xA0 SHL SUB SWAP1 SWAP2 AND SWAP1 CALLVALUE SWAP1 DUP4 DUP2 DUP2 DUP2 DUP6 DUP8 GAS CALL SWAP3 POP POP POP RETURNDATASIZE DUP1 PUSH1 0x0 DUP2 EQ PUSH2 0x2B05 JUMPI PUSH1 0x40 MLOAD SWAP2 POP PUSH1 0x1F NOT PUSH1 0x3F RETURNDATASIZE ADD AND DUP3 ADD PUSH1 0x40 MSTORE RETURNDATASIZE DUP3 MSTORE RETURNDATASIZE PUSH1 0x0 PUSH1 0x20 DUP5 ADD RETURNDATACOPY PUSH2 0x2B0A JUMP JUMPDEST PUSH1 0x60 SWAP2 POP JUMPDEST POP POP SWAP1 POP DUP1 PUSH2 0x2B54 JUMPI PUSH1 0x40 MLOAD PUSH3 0x461BCD PUSH1 0xE5 SHL DUP2 MSTORE PUSH1 0x20 PUSH1 0x4 DUP3 ADD MSTORE PUSH1 0x16 PUSH1 0x24 DUP3 ADD MSTORE PUSH22 0x115B595C99D95B98DE4818DB185A5B4819985A5B1959 PUSH1 0x52 SHL PUSH1 0x44 DUP3 ADD MSTORE PUSH1 0x64 ADD PUSH2 0x1AA8 JUMP JUMPDEST PUSH1 0x40 MLOAD PUSH10 0x21E19E0C9BAB2400000 DUP2 MSTORE CALLER SWAP1 PUSH1 0x0 DUP1 MLOAD PUSH1 0x20 PUSH2 0x5222 DUP4 CODECOPY DUP2 MLOAD SWAP2 MSTORE SWAP1 PUSH1 0x20 ADD PUSH1 0x40 MLOAD DUP1 SWAP2 SUB SWAP1 LOG2 PUSH1 0x40 MLOAD PUSH10 0x21E19E0C9BAB2400000 DUP2 MSTORE CALLER SWAP1 ADDRESS SWAP1 PUSH1 0x0 DUP1 MLOAD PUSH1 0x20 PUSH2 0x5242 DUP4 CODECOPY DUP2 MLOAD SWAP2 MSTORE SWAP1 PUSH1 0x20 ADD PUSH2 0x28B3 JUMP JUMPDEST PUSH2 0x2477 CALLER PUSH10 0x170A0F5040E50400000 PUSH2 0x4ED4 JUMP JUMPDEST PUSH2 0x2477 CALLER PUSH9 0xE91A7CD19FA3B00000 PUSH2 0x4ED4 JUMP JUMPDEST PUSH7 0x38D7EA4C68000 CALLVALUE LT ISZERO PUSH2 0x2C2B JUMPI PUSH1 0x40 MLOAD PUSH3 0x461BCD PUSH1 0xE5 SHL DUP2 MSTORE PUSH1 0x20 PUSH1 0x4 DUP3 ADD MSTORE PUSH1 0x1C PUSH1 0x24 DUP3 ADD MSTORE PUSH32 0x42756C6B2070726F63657373696E673A20302E303031204D4154494300000000 PUSH1 0x44 DUP3 ADD MSTORE PUSH1 0x64 ADD PUSH2 0x1AA8 JUMP JUMPDEST PUSH2 0x2C34 CALLER PUSH2 0x23C7 JUMP JUMPDEST PUSH1 0x0 DUP1 SLOAD PUSH1 0x40 MLOAD PUSH1 0x1 PUSH1 0x1 PUSH1 0xA0 SHL SUB SWAP1 SWAP2 AND SWAP1 CALLVALUE SWAP1 DUP4 DUP2 DUP2 DUP2 DUP6 DUP8 GAS CALL SWAP3 POP POP POP RETURNDATASIZE DUP1 PUSH1 0x0 DUP2 EQ PUSH2 0x2C81 JUMPI PUSH1 0x40 MLOAD SWAP2 POP PUSH1 0x1F NOT PUSH1 0x3F RETURNDATASIZE ADD AND DUP3 ADD PUSH1 0x40 MSTORE RETURNDATASIZE DUP3 MSTORE RETURNDATASIZE PUSH1 0x0 PUSH1 0x20 DUP5 ADD RETURNDATACOPY PUSH2 0x2C86 JUMP JUMPDEST PUSH1 0x60 SWAP2 POP JUMPDEST POP POP SWAP1 POP DUP1 PUSH2 0x2CCB JUMPI PUSH1 0x40 MLOAD PUSH3 0x461BCD PUSH1 0xE5 SHL DUP2 MSTORE PUSH1 0x20 PUSH1 0x4 DUP3 ADD MSTORE PUSH1 0x11 PUSH1 0x24 DUP3 ADD MSTORE PUSH17 0x109D5B1AC818DB185A5B4819985A5B1959 PUSH1 0x7A SHL PUSH1 0x44 DUP3 ADD MSTORE PUSH1 0x64 ADD PUSH2 0x1AA8 JUMP JUMPDEST PUSH1 0x40 MLOAD PUSH10 0x32D26D12E980B600000 DUP2 MSTORE CALLER SWAP1 PUSH1 0x0 DUP1 MLOAD PUSH1 0x20 PUSH2 0x5222 DUP4 CODECOPY DUP2 MLOAD SWAP2 MSTORE SWAP1 PUSH1 0x20 ADD PUSH1 0x40 MLOAD DUP1 SWAP2 SUB SWAP1 LOG2 PUSH1 0x40 MLOAD PUSH10 0x32D26D12E980B600000 DUP2 MSTORE CALLER SWAP1 ADDRESS SWAP1 PUSH1 0x0 DUP1 MLOAD PUSH1 0x20 PUSH2 0x5242 DUP4 CODECOPY DUP2 MLOAD SWAP2 MSTORE SWAP1 PUSH1 0x20 ADD PUSH2 0x28B3 JUMP JUMPDEST PUSH2 0x2477 CALLER PUSH10 0x23934C5A09DA1900000 PUSH2 0x4ED4 JUMP JUMPDEST PUSH2 0x2477 CALLER PUSH10 0x5150AE84A8CDF000000 PUSH2 0x4ED4 JUMP JUMPDEST PUSH2 0x2477 CALLER PUSH10 0x185A29990FE301E00000 PUSH2 0x4ED4 JUMP JUMPDEST PUSH2 0x2477 CALLER PUSH11 0x422CA8B0A00A425000000 PUSH2 0x4ED4 JUMP JUMPDEST PUSH2 0x2477 CALLER PUSH10 0x1F8276D367CFCD00000 PUSH2 0x4ED4 JUMP JUMPDEST PUSH2 0x2477 CALLER PUSH10 0x1DD0C885F9A0D800000 PUSH2 0x4ED4 JUMP JUMPDEST PUSH2 0x2477 CALLER PUSH9 0x97C9CE4CF6D5C00000 PUSH2 0x4ED4 JUMP JUMPDEST PUSH2 0x2477 CALLER PUSH10 0xFE1C215E8F838E00000 PUSH2 0x4ED4 JUMP JUMPDEST PUSH2 0x2477 CALLER PUSH10 0xF3F20B8DFA69D000000 PUSH2 0x4ED4 JUMP JUMPDEST PUSH2 0x2477 CALLER PUSH10 0x2C781F708C509F400000 PUSH2 0x4ED4 JUMP JUMPDEST PUSH2 0x2477 CALLER PUSH9 0xCDFF97FABCB4600000 PUSH2 0x4ED4 JUMP JUMPDEST PUSH2 0x2477 CALLER PUSH10 0x6C6B935B8BBD4000000 PUSH2 0x4ED4 JUMP JUMPDEST PUSH7 0x38D7EA4C68000 CALLVALUE LT ISZERO PUSH2 0x2E6A JUMPI PUSH1 0x40 MLOAD PUSH3 0x461BCD PUSH1 0xE5 SHL DUP2 MSTORE PUSH1 0x20 PUSH1 0x4 DUP3 ADD MSTORE PUSH1 0x1B PUSH1 0x24 DUP3 ADD MSTORE PUSH32 0x5769746864726177616C206665653A20302E303031204D415449430000000000 PUSH1 0x44 DUP3 ADD MSTORE PUSH1 0x64 ADD PUSH2 0x1AA8 JUMP JUMPDEST PUSH2 0x2E73 CALLER PUSH2 0x23C7 JUMP JUMPDEST PUSH1 0x0 DUP1 SLOAD PUSH1 0x40 MLOAD PUSH1 0x1 PUSH1 0x1 PUSH1 0xA0 SHL SUB SWAP1 SWAP2 AND SWAP1 CALLVALUE SWAP1 DUP4 DUP2 DUP2 DUP2 DUP6 DUP8 GAS CALL SWAP3 POP POP POP RETURNDATASIZE DUP1 PUSH1 0x0 DUP2 EQ PUSH2 0x2EC0 JUMPI PUSH1 0x40 MLOAD SWAP2 POP PUSH1 0x1F NOT PUSH1 0x3F RETURNDATASIZE ADD AND DUP3 ADD PUSH1 0x40 MSTORE RETURNDATASIZE DUP3 MSTORE RETURNDATASIZE PUSH1 0x0 PUSH1 0x20 DUP5 ADD RETURNDATACOPY PUSH2 0x2EC5 JUMP JUMPDEST PUSH1 0x60 SWAP2 POP JUMPDEST POP POP SWAP1 POP DUP1 PUSH2 0x2F0A JUMPI PUSH1 0x40 MLOAD PUSH3 0x461BCD PUSH1 0xE5 SHL DUP2 MSTORE PUSH1 0x20 PUSH1 0x4 DUP3 ADD MSTORE PUSH1 0x11 PUSH1 0x24 DUP3 ADD MSTORE PUSH17 0x15DA5D1A191C985DD85B0819985A5B1959 PUSH1 0x7A SHL PUSH1 0x44 DUP3 ADD MSTORE PUSH1 0x64 ADD PUSH2 0x1AA8 JUMP JUMPDEST PUSH1 0x40 MLOAD PUSH9 0x878678326EAC900000 DUP2 MSTORE CALLER SWAP1 PUSH1 0x0 DUP1 MLOAD PUSH1 0x20 PUSH2 0x5222 DUP4 CODECOPY DUP2 MLOAD SWAP2 MSTORE SWAP1 PUSH1 0x20 ADD PUSH1 0x40 MLOAD DUP1 SWAP2 SUB SWAP1 LOG2 PUSH1 0x40 MLOAD PUSH9 0x878678326EAC900000 DUP2 MSTORE CALLER SWAP1 ADDRESS SWAP1 PUSH1 0x0 DUP1 MLOAD PUSH1 0x20 PUSH2 0x5242 DUP4 CODECOPY DUP2 MLOAD SWAP2 MSTORE SWAP1 PUSH1 0x20 ADD PUSH2 0x28B3 JUMP JUMPDEST PUSH2 0x2477 CALLER PUSH10 0xA968163F0A57B4000000 PUSH2 0x4ED4 JUMP JUMPDEST PUSH2 0x2477 CALLER PUSH10 0x2DBD622A9EF3D700000 PUSH2 0x4ED4 JUMP JUMPDEST PUSH2 0x2477 CALLER PUSH10 0x2086AC3510526000000 PUSH2 0x4ED4 JUMP JUMPDEST PUSH2 0x2477 CALLER PUSH10 0x38EBAD5CDC902800000 PUSH2 0x4ED4 JUMP JUMPDEST PUSH2 0x2477 CALLER PUSH10 0x472698B413B43200000 PUSH2 0x4ED4 JUMP JUMPDEST PUSH7 0x38D7EA4C68000 CALLVALUE LT ISZERO PUSH2 0x301C JUMPI PUSH1 0x40 MLOAD PUSH3 0x461BCD PUSH1 0xE5 SHL DUP2 MSTORE PUSH1 0x20 PUSH1 0x4 DUP3 ADD MSTORE PUSH1 0x18 PUSH1 0x24 DUP3 ADD MSTORE PUSH32 0x48617276657374206665653A20302E303031204D415449430000000000000000 PUSH1 0x44 DUP3 ADD MSTORE PUSH1 0x64 ADD PUSH2 0x1AA8 JUMP JUMPDEST PUSH2 0x3025 CALLER PUSH2 0x23C7 JUMP JUMPDEST PUSH1 0x0 DUP1 SLOAD PUSH1 0x40 MLOAD PUSH1 0x1 PUSH1 0x1 PUSH1 0xA0 SHL SUB SWAP1 SWAP2 AND SWAP1 CALLVALUE SWAP1 DUP4 DUP2 DUP2 DUP2 DUP6 DUP8 GAS CALL SWAP3 POP POP POP RETURNDATASIZE DUP1 PUSH1 0x0 DUP2 EQ PUSH2 0x3072 JUMPI PUSH1 0x40 MLOAD SWAP2 POP PUSH1 0x1F NOT PUSH1 0x3F RETURNDATASIZE ADD AND DUP3 ADD PUSH1 0x40 MSTORE RETURNDATASIZE DUP3 MSTORE RETURNDATASIZE PUSH1 0x0 PUSH1 0x20 DUP5 ADD RETURNDATACOPY PUSH2 0x3077 JUMP JUMPDEST PUSH1 0x60 SWAP2 POP JUMPDEST POP POP SWAP1 POP DUP1 PUSH2 0x30B9 JUMPI PUSH1 0x40 MLOAD PUSH3 0x461BCD PUSH1 0xE5 SHL DUP2 MSTORE PUSH1 0x20 PUSH1 0x4 DUP3 ADD MSTORE PUSH1 0xE PUSH1 0x24 DUP3 ADD MSTORE PUSH14 0x12185C9D995CDD0819985A5B1959 PUSH1 0x92 SHL PUSH1 0x44 DUP3 ADD MSTORE PUSH1 0x64 ADD PUSH2 0x1AA8 JUMP JUMPDEST PUSH1 0x40 MLOAD PUSH9 0xBDBC41E0348B300000 DUP2 MSTORE CALLER SWAP1 PUSH1 0x0 DUP1 MLOAD PUSH1 0x20 PUSH2 0x5222 DUP4 CODECOPY DUP2 MLOAD SWAP2 MSTORE SWAP1 PUSH1 0x20 ADD PUSH1 0x40 MLOAD DUP1 SWAP2 SUB SWAP1 LOG2 PUSH1 0x40 MLOAD PUSH9 0xBDBC41E0348B300000 DUP2 MSTORE CALLER SWAP1 ADDRESS SWAP1 PUSH1 0x0 DUP1 MLOAD PUSH1 0x20 PUSH2 0x5242 DUP4 CODECOPY DUP2 MLOAD SWAP2 MSTORE SWAP1 PUSH1 0x20 ADD PUSH2 0x28B3 JUMP JUMPDEST PUSH2 0x2477 CALLER PUSH9 0x77432217E683600000 PUSH2 0x4ED4 JUMP JUMPDEST PUSH2 0x2477 CALLER PUSH10 0x27FADE568EBA9600000 PUSH2 0x4ED4 JUMP JUMPDEST PUSH2 0x2477 CALLER PUSH10 0x228F16F861578600000 PUSH2 0x4ED4 JUMP JUMPDEST PUSH2 0x2477 CALLER PUSH11 0x27B46536C66C8E3000000 PUSH2 0x4ED4 JUMP JUMPDEST PUSH2 0x2477 CALLER PUSH10 0x54B40B1F852BDA00000 PUSH2 0x4ED4 JUMP JUMPDEST PUSH2 0x2477 CALLER PUSH10 0x3120BEC57B51C100000 PUSH2 0x4ED4 JUMP JUMPDEST PUSH2 0x2477 CALLER PUSH9 0x6194049F30F7200000 PUSH2 0x4ED4 JUMP JUMPDEST PUSH2 0x2477 CALLER PUSH10 0xD3C21BCECCEDA1000000 PUSH2 0x4ED4 JUMP JUMPDEST PUSH2 0x2477 CALLER PUSH10 0x12F939C99EDAB800000 PUSH2 0x4ED4 JUMP JUMPDEST PUSH2 0x2477 CALLER PUSH10 0x1043561A88293000000 PUSH2 0x4ED4 JUMP JUMPDEST PUSH7 0x38D7EA4C68000 CALLVALUE LT ISZERO PUSH2 0x322E JUMPI PUSH1 0x40 MLOAD PUSH3 0x461BCD PUSH1 0xE5 SHL DUP2 MSTORE PUSH1 0x20 PUSH1 0x4 DUP3 ADD MSTORE PUSH1 0x1D PUSH1 0x24 DUP3 ADD MSTORE PUSH32 0x426F6E75732070726F63657373696E673A20302E303031204D41544943000000 PUSH1 0x44 DUP3 ADD MSTORE PUSH1 0x64 ADD PUSH2 0x1AA8 JUMP JUMPDEST PUSH2 0x3237 CALLER PUSH2 0x23C7 JUMP JUMPDEST PUSH1 0x0 DUP1 SLOAD PUSH1 0x40 MLOAD PUSH1 0x1 PUSH1 0x1 PUSH1 0xA0 SHL SUB SWAP1 SWAP2 AND SWAP1 CALLVALUE SWAP1 DUP4 DUP2 DUP2 DUP2 DUP6 DUP8 GAS CALL SWAP3 POP POP POP RETURNDATASIZE DUP1 PUSH1 0x0 DUP2 EQ PUSH2 0x3284 JUMPI PUSH1 0x40 MLOAD SWAP2 POP PUSH1 0x1F NOT PUSH1 0x3F RETURNDATASIZE ADD AND DUP3 ADD PUSH1 0x40 MSTORE RETURNDATASIZE DUP3 MSTORE RETURNDATASIZE PUSH1 0x0 PUSH1 0x20 DUP5 ADD RETURNDATACOPY PUSH2 0x3289 JUMP JUMPDEST PUSH1 0x60 SWAP2 POP JUMPDEST POP POP SWAP1 POP DUP1 PUSH2 0x32CF JUMPI PUSH1 0x40 MLOAD PUSH3 0x461BCD PUSH1 0xE5 SHL DUP2 MSTORE PUSH1 0x20 PUSH1 0x4 DUP3 ADD MSTORE PUSH1 0x12 PUSH1 0x24 DUP3 ADD MSTORE PUSH18 0x109BDB9D5CC818DB185A5B4819985A5B1959 PUSH1 0x72 SHL PUSH1 0x44 DUP3 ADD MSTORE PUSH1 0x64 ADD PUSH2 0x1AA8 JUMP JUMPDEST PUSH1 0x40 MLOAD PUSH10 0x1969368974C05B00000 DUP2 MSTORE CALLER SWAP1 PUSH1 0x0 DUP1 MLOAD PUSH1 0x20 PUSH2 0x5222 DUP4 CODECOPY DUP2 MLOAD SWAP2 MSTORE SWAP1 PUSH1 0x20 ADD PUSH1 0x40 MLOAD DUP1 SWAP2 SUB SWAP1 LOG2 PUSH1 0x40 MLOAD PUSH10 0x1969368974C05B00000 DUP2 MSTORE CALLER SWAP1 ADDRESS SWAP1 PUSH1 0x0 DUP1 MLOAD PUSH1 0x20 PUSH2 0x5242 DUP4 CODECOPY DUP2 MLOAD SWAP2 MSTORE SWAP1 PUSH1 0x20 ADD PUSH2 0x28B3 JUMP JUMPDEST PUSH2 0x2477 CALLER PUSH10 0x1CCC9324511E4500000 PUSH2 0x4ED4 JUMP JUMPDEST PUSH2 0x2477 CALLER PUSH10 0x34F086F3B33B68400000 PUSH2 0x4ED4 JUMP JUMPDEST PUSH2 0x2477 CALLER PUSH10 0x3DA9FBCF4446D600000 PUSH2 0x4ED4 JUMP JUMPDEST PUSH7 0x38D7EA4C68000 CALLVALUE LT ISZERO PUSH2 0x33BB JUMPI PUSH1 0x40 MLOAD PUSH3 0x461BCD PUSH1 0xE5 SHL DUP2 MSTORE PUSH1 0x20 PUSH1 0x4 DUP3 ADD MSTORE PUSH1 0x1B PUSH1 0x24 DUP3 ADD MSTORE PUSH32 0x5649502070726F63657373696E673A20302E303031204D415449430000000000 PUSH1 0x44 DUP3 ADD MSTORE PUSH1 0x64 ADD PUSH2 0x1AA8 JUMP JUMPDEST PUSH2 0x33C4 CALLER PUSH2 0x23C7 JUMP JUMPDEST PUSH1 0x0 DUP1 SLOAD PUSH1 0x40 MLOAD PUSH1 0x1 PUSH1 0x1 PUSH1 0xA0 SHL SUB SWAP1 SWAP2 AND SWAP1 CALLVALUE SWAP1 DUP4 DUP2 DUP2 DUP2 DUP6 DUP8 GAS CALL SWAP3 POP POP POP RETURNDATASIZE DUP1 PUSH1 0x0 DUP2 EQ PUSH2 0x3411 JUMPI PUSH1 0x40 MLOAD SWAP2 POP PUSH1 0x1F NOT PUSH1 0x3F RETURNDATASIZE ADD AND DUP3 ADD PUSH1 0x40 MSTORE RETURNDATASIZE DUP3 MSTORE RETURNDATASIZE PUSH1 0x0 PUSH1 0x20 DUP5 ADD RETURNDATACOPY PUSH2 0x3416 JUMP JUMPDEST PUSH1 0x60 SWAP2 POP JUMPDEST POP POP SWAP1 POP DUP1 PUSH2 0x345A JUMPI PUSH1 0x40 MLOAD PUSH3 0x461BCD PUSH1 0xE5 SHL DUP2 MSTORE PUSH1 0x20 PUSH1 0x4 DUP3 ADD MSTORE PUSH1 0x10 PUSH1 0x24 DUP3 ADD MSTORE PUSH16 0x1592540818DB185A5B4819985A5B1959 PUSH1 0x82 SHL PUSH1 0x44 DUP3 ADD MSTORE PUSH1 0x64 ADD PUSH2 0x1AA8 JUMP JUMPDEST PUSH1 0x40 MLOAD PUSH10 0x54B40B1F852BDA00000 DUP2 MSTORE CALLER SWAP1 PUSH1 0x0 DUP1 MLOAD PUSH1 0x20 PUSH2 0x5222 DUP4 CODECOPY DUP2 MLOAD SWAP2 MSTORE SWAP1 PUSH1 0x20 ADD PUSH1 0x40 MLOAD DUP1 SWAP2 SUB SWAP1 LOG2 PUSH1 0x40 MLOAD PUSH10 0x54B40B1F852BDA00000 DUP2 MSTORE CALLER SWAP1 ADDRESS SWAP1 PUSH1 0x0 DUP1 MLOAD PUSH1 0x20 PUSH2 0x5242 DUP4 CODECOPY DUP2 MLOAD SWAP2 MSTORE SWAP1 PUSH1 0x20 ADD PUSH2 0x28B3 JUMP JUMPDEST PUSH2 0x2477 CALLER PUSH10 0x690836C0AF5F5600000 PUSH2 0x4ED4 JUMP JUMPDEST PUSH2 0x2477 CALLER PUSH10 0x1FD933494AA5FE00000 PUSH2 0x4ED4 JUMP JUMPDEST PUSH2 0x2477 CALLER PUSH10 0x10F0CF064DD59200000 PUSH2 0x4ED4 JUMP JUMPDEST PUSH2 0x2477 CALLER PUSH10 0x126C478A0E3EA8600000 PUSH2 0x4ED4 JUMP JUMPDEST PUSH2 0x2477 CALLER PUSH10 0x5EDE20F01A459800000 PUSH2 0x4ED4 JUMP JUMPDEST PUSH2 0x2477 CALLER PUSH10 0x1C1F1A388B71E300000 PUSH2 0x4ED4 JUMP JUMPDEST PUSH7 0x38D7EA4C68000 CALLVALUE LT ISZERO PUSH2 0x3592 JUMPI PUSH1 0x40 MLOAD PUSH3 0x461BCD PUSH1 0xE5 SHL DUP2 MSTORE PUSH1 0x20 PUSH1 0x4 DUP3 ADD MSTORE PUSH1 0x27 PUSH1 0x24 DUP3 ADD MSTORE PUSH32 0x4761732066656520726571756972656420666F7220636C61696D3A20302E3030 PUSH1 0x44 DUP3 ADD MSTORE PUSH7 0x31204D41544943 PUSH1 0xC8 SHL PUSH1 0x64 DUP3 ADD MSTORE PUSH1 0x84 ADD PUSH2 0x1AA8 JUMP JUMPDEST PUSH2 0x359B CALLER PUSH2 0x23C7 JUMP JUMPDEST PUSH1 0x0 DUP1 SLOAD PUSH1 0x40 MLOAD PUSH1 0x1 PUSH1 0x1 PUSH1 0xA0 SHL SUB SWAP1 SWAP2 AND SWAP1 CALLVALUE SWAP1 DUP4 DUP2 DUP2 DUP2 DUP6 DUP8 GAS CALL SWAP3 POP POP POP RETURNDATASIZE DUP1 PUSH1 0x0 DUP2 EQ PUSH2 0x35E8 JUMPI PUSH1 0x40 MLOAD SWAP2 POP PUSH1 0x1F NOT PUSH1 0x3F RETURNDATASIZE ADD AND DUP3 ADD PUSH1 0x40 MSTORE RETURNDATASIZE DUP3 MSTORE RETURNDATASIZE PUSH1 0x0 PUSH1 0x20 DUP5 ADD RETURNDATACOPY PUSH2 0x35ED JUMP JUMPDEST PUSH1 0x60 SWAP2 POP JUMPDEST POP POP SWAP1 POP DUP1 PUSH2 0x362D JUMPI PUSH1 0x40 MLOAD PUSH3 0x461BCD PUSH1 0xE5 SHL DUP2 MSTORE PUSH1 0x20 PUSH1 0x4 DUP3 ADD MSTORE PUSH1 0xC PUSH1 0x24 DUP3 ADD MSTORE PUSH12 0x10DB185A5B4819985A5B1959 PUSH1 0xA2 SHL PUSH1 0x44 DUP3 ADD MSTORE PUSH1 0x64 ADD PUSH2 0x1AA8 JUMP JUMPDEST PUSH1 0x40 MLOAD PUSH9 0x6C6B935B8BBD400000 DUP2 MSTORE CALLER SWAP1 PUSH1 0x0 DUP1 MLOAD PUSH1 0x20 PUSH2 0x5222 DUP4 CODECOPY DUP2 MLOAD SWAP2 MSTORE SWAP1 PUSH1 0x20 ADD PUSH1 0x40 MLOAD DUP1 SWAP2 SUB SWAP1 LOG2 PUSH1 0x40 MLOAD PUSH9 0x6C6B935B8BBD400000 DUP2 MSTORE CALLER SWAP1 ADDRESS SWAP1 PUSH1 0x0 DUP1 MLOAD PUSH1 0x20 PUSH2 0x5242 DUP4 CODECOPY DUP2 MLOAD SWAP2 MSTORE SWAP1 PUSH1 0x20 ADD PUSH2 0x28B3 JUMP JUMPDEST PUSH2 0x2477 CALLER PUSH10 0x34841B6057AFAB00000 PUSH2 0x4ED4 JUMP JUMPDEST PUSH2 0x2477 CALLER PUSH10 0x12A27D53BC048700000 PUSH2 0x4ED4 JUMP JUMPDEST PUSH2 0x2477 CALLER PUSH10 0x69E10DE76676D0800000 PUSH2 0x4ED4 JUMP JUMPDEST PUSH2 0x2477 CALLER PUSH10 0x80BFBEFCB5F0BC00000 PUSH2 0x4ED4 JUMP JUMPDEST PUSH2 0x2477 CALLER PUSH10 0x152D02C7E14AF6800000 PUSH2 0x4ED4 JUMP JUMPDEST PUSH7 0x38D7EA4C68000 CALLVALUE LT ISZERO PUSH2 0x373F JUMPI PUSH1 0x40 MLOAD PUSH3 0x461BCD PUSH1 0xE5 SHL DUP2 MSTORE PUSH1 0x20 PUSH1 0x4 DUP3 ADD MSTORE PUSH1 0x1B PUSH1 0x24 DUP3 ADD MSTORE PUSH32 0x476F7665726E616E6365206665653A20302E303031204D415449430000000000 PUSH1 0x44 DUP3 ADD MSTORE PUSH1 0x64 ADD PUSH2 0x1AA8 JUMP JUMPDEST PUSH2 0x3748 CALLER PUSH2 0x23C7 JUMP JUMPDEST PUSH1 0x0 DUP1 SLOAD PUSH1 0x40 MLOAD PUSH1 0x1 PUSH1 0x1 PUSH1 0xA0 SHL SUB SWAP1 SWAP2 AND SWAP1 CALLVALUE SWAP1 DUP4 DUP2 DUP2 DUP2 DUP6 DUP8 GAS CALL SWAP3 POP POP POP RETURNDATASIZE DUP1 PUSH1 0x0 DUP2 EQ PUSH2 0x3795 JUMPI PUSH1 0x40 MLOAD SWAP2 POP PUSH1 0x1F NOT PUSH1 0x3F RETURNDATASIZE ADD AND DUP3 ADD PUSH1 0x40 MSTORE RETURNDATASIZE DUP3 MSTORE RETURNDATASIZE PUSH1 0x0 PUSH1 0x20 DUP5 ADD RETURNDATACOPY PUSH2 0x379A JUMP JUMPDEST PUSH1 0x60 SWAP2 POP JUMPDEST POP POP SWAP1 POP DUP1 PUSH2 0x37EB JUMPI PUSH1 0x40 MLOAD PUSH3 0x461BCD PUSH1 0xE5 SHL DUP2 MSTORE PUSH1 0x20 PUSH1 0x4 DUP3 ADD MSTORE PUSH1 0x17 PUSH1 0x24 DUP3 ADD MSTORE PUSH32 0x476F7665726E616E636520636C61696D206661696C6564000000000000000000 PUSH1 0x44 DUP3 ADD MSTORE PUSH1 0x64 ADD PUSH2 0x1AA8 JUMP JUMPDEST PUSH1 0x40 MLOAD PUSH10 0x1B1AE4D6E2EF5000000 DUP2 MSTORE CALLER SWAP1 PUSH1 0x0 DUP1 MLOAD PUSH1 0x20 PUSH2 0x5222 DUP4 CODECOPY DUP2 MLOAD SWAP2 MSTORE SWAP1 PUSH1 0x20 ADD PUSH1 0x40 MLOAD DUP1 SWAP2 SUB SWAP1 LOG2 PUSH1 0x40 MLOAD PUSH10 0x1B1AE4D6E2EF5000000 DUP2 MSTORE CALLER SWAP1 ADDRESS SWAP1 PUSH1 0x0 DUP1 MLOAD PUSH1 0x20 PUSH2 0x5242 DUP4 CODECOPY DUP2 MLOAD SWAP2 MSTORE SWAP1 PUSH1 0x20 ADD PUSH2 0x28B3 JUMP JUMPDEST PUSH2 0x2477 CALLER PUSH10 0x4A89F54EF0121C00000 PUSH2 0x4ED4 JUMP JUMPDEST PUSH2 0x2477 CALLER PUSH10 0x165C96647B38A200000 PUSH2 0x4ED4 JUMP JUMPDEST PUSH7 0x38D7EA4C68000 CALLVALUE LT ISZERO PUSH2 0x38C3 JUMPI PUSH1 0x40 MLOAD PUSH3 0x461BCD PUSH1 0xE5 SHL DUP2 MSTORE PUSH1 0x20 PUSH1 0x4 DUP3 ADD MSTORE PUSH1 0x1A PUSH1 0x24 DUP3 ADD MSTORE PUSH32 0x457865637574696F6E206665653A20302E303031204D41544943000000000000 PUSH1 0x44 DUP3 ADD MSTORE PUSH1 0x64 ADD PUSH2 0x1AA8 JUMP JUMPDEST PUSH2 0x38CC CALLER PUSH2 0x23C7 JUMP JUMPDEST PUSH1 0x0 DUP1 SLOAD PUSH1 0x40 MLOAD PUSH1 0x1 PUSH1 0x1 PUSH1 0xA0 SHL SUB SWAP1 SWAP2 AND SWAP1 CALLVALUE SWAP1 DUP4 DUP2 DUP2 DUP2 DUP6 DUP8 GAS CALL SWAP3 POP POP POP RETURNDATASIZE DUP1 PUSH1 0x0 DUP2 EQ PUSH2 0x3919 JUMPI PUSH1 0x40 MLOAD SWAP2 POP PUSH1 0x1F NOT PUSH1 0x3F RETURNDATASIZE ADD AND DUP3 ADD PUSH1 0x40 MSTORE RETURNDATASIZE DUP3 MSTORE RETURNDATASIZE PUSH1 0x0 PUSH1 0x20 DUP5 ADD RETURNDATACOPY PUSH2 0x391E JUMP JUMPDEST PUSH1 0x60 SWAP2 POP JUMPDEST POP POP SWAP1 POP DUP1 PUSH2 0x3962 JUMPI PUSH1 0x40 MLOAD PUSH3 0x461BCD PUSH1 0xE5 SHL DUP2 MSTORE PUSH1 0x20 PUSH1 0x4 DUP3 ADD MSTORE PUSH1 0x10 PUSH1 0x24 DUP3 ADD MSTORE PUSH16 0x115E1958DD5D1A5BDB8819985A5B1959 PUSH1 0x82 SHL PUSH1 0x44 DUP3 ADD MSTORE PUSH1 0x64 ADD PUSH2 0x1AA8 JUMP JUMPDEST PUSH1 0x40 MLOAD PUSH10 0x12A27D53BC048700000 DUP2 MSTORE CALLER SWAP1 PUSH1 0x0 DUP1 MLOAD PUSH1 0x20 PUSH2 0x5222 DUP4 CODECOPY DUP2 MLOAD SWAP2 MSTORE SWAP1 PUSH1 0x20 ADD PUSH1 0x40 MLOAD DUP1 SWAP2 SUB SWAP1 LOG2 PUSH1 0x40 MLOAD PUSH10 0x12A27D53BC048700000 DUP2 MSTORE CALLER SWAP1 ADDRESS SWAP1 PUSH1 0x0 DUP1 MLOAD PUSH1 0x20 PUSH2 0x5242 DUP4 CODECOPY DUP2 MLOAD SWAP2 MSTORE SWAP1 PUSH1 0x20 ADD PUSH2 0x28B3 JUMP JUMPDEST PUSH2 0x2477 CALLER PUSH12 0x33B2E3C9FD0803CE8000000 PUSH2 0x4ED4 JUMP JUMPDEST PUSH2 0x2477 CALLER PUSH10 0x109A12906AFF6100000 PUSH2 0x4ED4 JUMP JUMPDEST PUSH2 0x2477 CALLER PUSH10 0x10F0CF064DD592000000 PUSH2 0x4ED4 JUMP JUMPDEST PUSH2 0x2477 CALLER PUSH10 0x21E19E0C9BAB2400000 PUSH2 0x4ED4 JUMP JUMPDEST PUSH7 0x38D7EA4C68000 CALLVALUE LT ISZERO PUSH2 0x3A64 JUMPI PUSH1 0x40 MLOAD PUSH3 0x461BCD PUSH1 0xE5 SHL DUP2 MSTORE PUSH1 0x20 PUSH1 0x4 DUP3 ADD MSTORE PUSH1 0x1F PUSH1 0x24 DUP3 ADD MSTORE PUSH32 0x496E7374616E742070726F63657373696E673A20302E303031204D4154494300 PUSH1 0x44 DUP3 ADD MSTORE PUSH1 0x64 ADD PUSH2 0x1AA8 JUMP JUMPDEST PUSH2 0x3A6D CALLER PUSH2 0x23C7 JUMP JUMPDEST PUSH1 0x0 DUP1 SLOAD PUSH1 0x40 MLOAD PUSH1 0x1 PUSH1 0x1 PUSH1 0xA0 SHL SUB SWAP1 SWAP2 AND SWAP1 CALLVALUE SWAP1 DUP4 DUP2 DUP2 DUP2 DUP6 DUP8 GAS CALL SWAP3 POP POP POP RETURNDATASIZE DUP1 PUSH1 0x0 DUP2 EQ PUSH2 0x3ABA JUMPI PUSH1 0x40 MLOAD SWAP2 POP PUSH1 0x1F NOT PUSH1 0x3F RETURNDATASIZE ADD AND DUP3 ADD PUSH1 0x40 MSTORE RETURNDATASIZE DUP3 MSTORE RETURNDATASIZE PUSH1 0x0 PUSH1 0x20 DUP5 ADD RETURNDATACOPY PUSH2 0x3ABF JUMP JUMPDEST PUSH1 0x60 SWAP2 POP JUMPDEST POP POP SWAP1 POP DUP1 PUSH2 0x3B07 JUMPI PUSH1 0x40 MLOAD PUSH3 0x461BCD PUSH1 0xE5 SHL DUP2 MSTORE PUSH1 0x20 PUSH1 0x4 DUP3 ADD MSTORE PUSH1 0x14 PUSH1 0x24 DUP3 ADD MSTORE PUSH20 0x125B9CDD185B9D0818DB185A5B4819985A5B1959 PUSH1 0x62 SHL PUSH1 0x44 DUP3 ADD MSTORE PUSH1 0x64 ADD PUSH2 0x1AA8 JUMP JUMPDEST PUSH1 0x40 MLOAD PUSH10 0x28A857425466F800000 DUP2 MSTORE CALLER SWAP1 PUSH1 0x0 DUP1 MLOAD PUSH1 0x20 PUSH2 0x5222 DUP4 CODECOPY DUP2 MLOAD SWAP2 MSTORE SWAP1 PUSH1 0x20 ADD PUSH1 0x40 MLOAD DUP1 SWAP2 SUB SWAP1 LOG2 PUSH1 0x40 MLOAD PUSH10 0x28A857425466F800000 DUP2 MSTORE CALLER SWAP1 ADDRESS SWAP1 PUSH1 0x0 DUP1 MLOAD PUSH1 0x20 PUSH2 0x5242 DUP4 CODECOPY DUP2 MLOAD SWAP2 MSTORE SWAP1 PUSH1 0x20 ADD PUSH2 0x28B3 JUMP JUMPDEST PUSH2 0x2477 CALLER PUSH10 0x29AC8CA3FCE98B00000 PUSH2 0x4ED4 JUMP JUMPDEST PUSH2 0x2477 CALLER PUSH10 0x21342520D5FEC200000 PUSH2 0x4ED4 JUMP JUMPDEST PUSH2 0x2477 CALLER PUSH10 0x2A5A058FC295ED00000 PUSH2 0x4ED4 JUMP JUMPDEST PUSH7 0x38D7EA4C68000 CALLVALUE LT ISZERO PUSH2 0x3BF3 JUMPI PUSH1 0x40 MLOAD PUSH3 0x461BCD PUSH1 0xE5 SHL DUP2 MSTORE PUSH1 0x20 PUSH1 0x4 DUP3 ADD MSTORE PUSH1 0x1A PUSH1 0x24 DUP3 ADD MSTORE PUSH32 0x556E7374616B696E67206665653A20302E303031204D41544943000000000000 PUSH1 0x44 DUP3 ADD MSTORE PUSH1 0x64 ADD PUSH2 0x1AA8 JUMP JUMPDEST PUSH2 0x3BFC CALLER PUSH2 0x23C7 JUMP JUMPDEST PUSH1 0x0 DUP1 SLOAD PUSH1 0x40 MLOAD PUSH1 0x1 PUSH1 0x1 PUSH1 0xA0 SHL SUB SWAP1 SWAP2 AND SWAP1 CALLVALUE SWAP1 DUP4 DUP2 DUP2 DUP2 DUP6 DUP8 GAS CALL SWAP3 POP POP POP RETURNDATASIZE DUP1 PUSH1 0x0 DUP2 EQ PUSH2 0x3C49 JUMPI PUSH1 0x40 MLOAD SWAP2 POP PUSH1 0x1F NOT PUSH1 0x3F RETURNDATASIZE ADD AND DUP3 ADD PUSH1 0x40 MSTORE RETURNDATASIZE DUP3 MSTORE RETURNDATASIZE PUSH1 0x0 PUSH1 0x20 DUP5 ADD RETURNDATACOPY PUSH2 0x3C4E JUMP JUMPDEST PUSH1 0x60 SWAP2 POP JUMPDEST POP POP SWAP1 POP DUP1 PUSH2 0x3C96 JUMPI PUSH1 0x40 MLOAD PUSH3 0x461BCD PUSH1 0xE5 SHL DUP2 MSTORE PUSH1 0x20 PUSH1 0x4 DUP3 ADD MSTORE PUSH1 0x14 PUSH1 0x24 DUP3 ADD MSTORE PUSH20 0x14DD185ADA5B99C818DB185A5B4819985A5B1959 PUSH1 0x62 SHL PUSH1 0x44 DUP3 ADD MSTORE PUSH1 0x64 ADD PUSH2 0x1AA8 JUMP JUMPDEST PUSH1 0x40 MLOAD PUSH9 0xF3F20B8DFA69D00000 DUP2 MSTORE CALLER SWAP1 PUSH1 0x0 DUP1 MLOAD PUSH1 0x20 PUSH2 0x5222 DUP4 CODECOPY DUP2 MLOAD SWAP2 MSTORE SWAP1 PUSH1 0x20 ADD PUSH1 0x40 MLOAD DUP1 SWAP2 SUB SWAP1 LOG2 PUSH1 0x40 MLOAD PUSH9 0xF3F20B8DFA69D00000 DUP2 MSTORE CALLER SWAP1 ADDRESS SWAP1 PUSH1 0x0 DUP1 MLOAD PUSH1 0x20 PUSH2 0x5242 DUP4 CODECOPY DUP2 MLOAD SWAP2 MSTORE SWAP1 PUSH1 0x20 ADD PUSH2 0x28B3 JUMP JUMPDEST PUSH2 0x2477 CALLER PUSH10 0x1C75D6AE6E481400000 PUSH2 0x4ED4 JUMP JUMPDEST PUSH2 0x2477 CALLER PUSH9 0xA2A15D09519BE00000 PUSH2 0x4ED4 JUMP JUMPDEST PUSH2 0x2477 CALLER PUSH10 0x1D234F9A33F47600000 PUSH2 0x4ED4 JUMP JUMPDEST PUSH2 0x2477 CALLER PUSH10 0x1501A48CEFDFDE00000 PUSH2 0x4ED4 JUMP JUMPDEST PUSH1 0x0 PUSH1 0x1 PUSH1 0x1 PUSH1 0xA0 SHL SUB DUP3 AND PUSH2 0x3D54 JUMPI POP PUSH1 0x0 SWAP2 SWAP1 POP JUMP JUMPDEST PUSH1 0x0 SLOAD PUSH1 0x1 PUSH1 0x1 PUSH1 0xA0 SHL SUB SWAP1 DUP2 AND SWAP1 DUP4 AND SUB PUSH2 0x3D7C JUMPI POP PUSH11 0x84595161401484A000000 SWAP2 SWAP1 POP JUMP JUMPDEST PUSH1 0x1 PUSH1 0x1 PUSH1 0xA0 SHL SUB DUP3 AND PUSH1 0x0 SWAP1 DUP2 MSTORE PUSH1 0x5 PUSH1 0x20 MSTORE PUSH1 0x40 SWAP1 KECCAK256 SLOAD ISZERO PUSH2 0x3DAA JUMPI POP PUSH9 0x878678326EAC900000 SWAP2 SWAP1 POP JUMP JUMPDEST POP PUSH9 0x5EDE20F01A45980000 SWAP2 SWAP1 POP JUMP JUMPDEST PUSH2 0x2477 CALLER PUSH10 0x13FD6F2B475D4B00000 PUSH2 0x4ED4 JUMP JUMPDEST PUSH2 0x2477 CALLER PUSH10 0x10846372F249D4C00000 PUSH2 0x4ED4 JUMP JUMPDEST PUSH2 0x2477 CALLER PUSH10 0x1969368974C05B00000 PUSH2 0x4ED4 JUMP JUMPDEST PUSH2 0x2477 CALLER PUSH10 0x1A6D6BEB1D42EE00000 PUSH2 0x4ED4 JUMP JUMPDEST PUSH2 0x2477 CALLER PUSH10 0x19127A1391EA2A00000 PUSH2 0x4ED4 JUMP JUMPDEST PUSH2 0x2477 CALLER PUSH10 0x34DAD7D63A85DC00000 PUSH2 0x4ED4 JUMP JUMPDEST PUSH2 0x2477 CALLER PUSH9 0x71D75AB9B920500000 PUSH2 0x4ED4 JUMP JUMPDEST PUSH2 0x2477 CALLER PUSH10 0xE3013C87AC943E00000 PUSH2 0x4ED4 JUMP JUMPDEST PUSH2 0x2477 CALLER PUSH9 0x2B5E3AF16B18800000 PUSH2 0x4ED4 JUMP JUMPDEST PUSH7 0x38D7EA4C68000 CALLVALUE LT ISZERO PUSH2 0x3EC3 JUMPI PUSH1 0x40 MLOAD PUSH3 0x461BCD PUSH1 0xE5 SHL DUP2 MSTORE PUSH1 0x20 PUSH1 0x4 DUP3 ADD MSTORE PUSH1 0x1B PUSH1 0x24 DUP3 ADD MSTORE PUSH32 0x526564656D7074696F6E206665653A20302E303031204D415449430000000000 PUSH1 0x44 DUP3 ADD MSTORE PUSH1 0x64 ADD PUSH2 0x1AA8 JUMP JUMPDEST PUSH2 0x3ECC CALLER PUSH2 0x23C7 JUMP JUMPDEST PUSH1 0x0 DUP1 SLOAD PUSH1 0x40 MLOAD PUSH1 0x1 PUSH1 0x1 PUSH1 0xA0 SHL SUB SWAP1 SWAP2 AND SWAP1 CALLVALUE SWAP1 DUP4 DUP2 DUP2 DUP2 DUP6 DUP8 GAS CALL SWAP3 POP POP POP RETURNDATASIZE DUP1 PUSH1 0x0 DUP2 EQ PUSH2 0x3F19 JUMPI PUSH1 0x40 MLOAD SWAP2 POP PUSH1 0x1F NOT PUSH1 0x3F RETURNDATASIZE ADD AND DUP3 ADD PUSH1 0x40 MSTORE RETURNDATASIZE DUP3 MSTORE RETURNDATASIZE PUSH1 0x0 PUSH1 0x20 DUP5 ADD RETURNDATACOPY PUSH2 0x3F1E JUMP JUMPDEST PUSH1 0x60 SWAP2 POP JUMPDEST POP POP SWAP1 POP DUP1 PUSH2 0x3F6F JUMPI PUSH1 0x40 MLOAD PUSH3 0x461BCD PUSH1 0xE5 SHL DUP2 MSTORE PUSH1 0x20 PUSH1 0x4 DUP3 ADD MSTORE PUSH1 0x19 PUSH1 0x24 DUP3 ADD MSTORE PUSH32 0x566F756368657220726564656D7074696F6E206661696C656400000000000000 PUSH1 0x44 DUP3 ADD MSTORE PUSH1 0x64 ADD PUSH2 0x1AA8 JUMP JUMPDEST PUSH1 0x40 MLOAD PUSH10 0x14542BA12A337C00000 DUP2 MSTORE CALLER SWAP1 PUSH1 0x0 DUP1 MLOAD PUSH1 0x20 PUSH2 0x5222 DUP4 CODECOPY DUP2 MLOAD SWAP2 MSTORE SWAP1 PUSH1 0x20 ADD PUSH1 0x40 MLOAD DUP1 SWAP2 SUB SWAP1 LOG2 PUSH1 0x40 MLOAD PUSH10 0x14542BA12A337C00000 DUP2 MSTORE CALLER SWAP1 ADDRESS SWAP1 PUSH1 0x0 DUP1 MLOAD PUSH1 0x20 PUSH2 0x5242 DUP4 CODECOPY DUP2 MLOAD SWAP2 MSTORE SWAP1 PUSH1 0x20 ADD PUSH2 0x28B3 JUMP JUMPDEST PUSH2 0x2477 CALLER PUSH10 0xA968163F0A57B400000 PUSH2 0x4ED4 JUMP JUMPDEST PUSH2 0x2477 CALLER PUSH10 0x405FDF7E5AF85E00000 PUSH2 0x4ED4 JUMP JUMPDEST PUSH2 0x2477 CALLER PUSH10 0x1A16AF753A6CBD00000 PUSH2 0x4ED4 JUMP JUMPDEST PUSH2 0x2477 CALLER PUSH10 0x11F50467F6582500000 PUSH2 0x4ED4 JUMP JUMPDEST PUSH2 0x2477 CALLER PUSH10 0x137B547A731C01800000 PUSH2 0x4ED4 JUMP JUMPDEST PUSH2 0x2477 CALLER PUSH9 0xF95DD2EC27CCE00000 PUSH2 0x4ED4 JUMP JUMPDEST PUSH2 0x2477 CALLER PUSH10 0x1B1AE4D6E2EF5000000 PUSH2 0x4ED4 JUMP JUMPDEST PUSH2 0x2477 CALLER PUSH9 0x410D586A20A4C00000 PUSH2 0x4ED4 JUMP JUMPDEST PUSH2 0x2477 CALLER PUSH9 0xF3F20B8DFA69D00000 PUSH2 0x4ED4 JUMP JUMPDEST PUSH2 0x2477 CALLER PUSH10 0x26F6A8F4E6380300000 PUSH2 0x4ED4 JUMP JUMPDEST PUSH2 0x2477 CALLER PUSH10 0x3635C9ADC5DEA000000 PUSH2 0x4ED4 JUMP JUMPDEST PUSH2 0x2477 CALLER PUSH9 0x3635C9ADC5DEA00000 PUSH2 0x4ED4 JUMP JUMPDEST PUSH2 0x2477 CALLER PUSH10 0x218AE196B8D4F300000 PUSH2 0x4ED4 JUMP JUMPDEST PUSH2 0x2477 CALLER PUSH9 0xFEC99A4A552FF00000 PUSH2 0x4ED4 JUMP JUMPDEST PUSH1 0x2 DUP1 SLOAD PUSH2 0x24FE SWAP1 PUSH2 0x51E7 JUMP JUMPDEST PUSH2 0x2477 CALLER PUSH10 0x14542BA12A337C00000 PUSH2 0x4ED4 JUMP JUMPDEST PUSH2 0x2477 CALLER PUSH10 0xC482FB15ED470400000 PUSH2 0x4ED4 JUMP JUMPDEST PUSH2 0x2477 CALLER PUSH11 0x1A784379D99DB42000000 PUSH2 0x4ED4 JUMP JUMPDEST PUSH1 0x0 PUSH7 0x38D7EA4C68000 CALLVALUE LT ISZERO PUSH2 0x4196 JUMPI PUSH1 0x40 MLOAD PUSH3 0x461BCD PUSH1 0xE5 SHL DUP2 MSTORE PUSH1 0x20 PUSH1 0x4 DUP3 ADD MSTORE PUSH1 0x2F PUSH1 0x24 DUP3 ADD MSTORE PUSH32 0x5175616C696669636174696F6E206665652072657175697265643A20302E3030 PUSH1 0x44 DUP3 ADD MSTORE PUSH15 0x31204D41544943206D696E696D756D PUSH1 0x88 SHL PUSH1 0x64 DUP3 ADD MSTORE PUSH1 0x84 ADD PUSH2 0x1AA8 JUMP JUMPDEST PUSH2 0x419F CALLER PUSH2 0x23C7 JUMP JUMPDEST PUSH1 0x0 DUP1 SLOAD PUSH1 0x40 MLOAD PUSH1 0x1 PUSH1 0x1 PUSH1 0xA0 SHL SUB SWAP1 SWAP2 AND SWAP1 CALLVALUE SWAP1 DUP4 DUP2 DUP2 DUP2 DUP6 DUP8 GAS CALL SWAP3 POP POP POP RETURNDATASIZE DUP1 PUSH1 0x0 DUP2 EQ PUSH2 0x41EC JUMPI PUSH1 0x40 MLOAD SWAP2 POP PUSH1 0x1F NOT PUSH1 0x3F RETURNDATASIZE ADD AND DUP3 ADD PUSH1 0x40 MSTORE RETURNDATASIZE DUP3 MSTORE RETURNDATASIZE PUSH1 0x0 PUSH1 0x20 DUP5 ADD RETURNDATACOPY PUSH2 0x41F1 JUMP JUMPDEST PUSH1 0x60 SWAP2 POP JUMPDEST POP POP SWAP1 POP DUP1 PUSH2 0x4242 JUMPI PUSH1 0x40 MLOAD PUSH3 0x461BCD PUSH1 0xE5 SHL DUP2 MSTORE PUSH1 0x20 PUSH1 0x4 DUP3 ADD MSTORE PUSH1 0x19 PUSH1 0x24 DUP3 ADD MSTORE PUSH32 0x5061796D656E742070726F63657373696E67206661696C656400000000000000 PUSH1 0x44 DUP3 ADD MSTORE PUSH1 0x64 ADD PUSH2 0x1AA8 JUMP JUMPDEST PUSH1 0x0 PUSH2 0x4258 PUSH2 0x3E8 PUSH8 0xDE0B6B3A7640000 PUSH2 0x5045 JUMP JUMPDEST PUSH1 0x40 MLOAD DUP2 DUP2 MSTORE SWAP1 SWAP2 POP CALLER SWAP1 PUSH1 0x0 DUP1 MLOAD PUSH1 0x20 PUSH2 0x5222 DUP4 CODECOPY DUP2 MLOAD SWAP2 MSTORE SWAP1 PUSH1 0x20 ADD PUSH1 0x40 MLOAD DUP1 SWAP2 SUB SWAP1 LOG2 PUSH1 0x40 MLOAD DUP2 DUP2 MSTORE CALLER SWAP1 ADDRESS SWAP1 PUSH1 0x0 DUP1 MLOAD PUSH1 0x20 PUSH2 0x5242 DUP4 CODECOPY DUP2 MLOAD SWAP2 MSTORE SWAP1 PUSH1 0x20 ADD PUSH1 0x40 MLOAD DUP1 SWAP2 SUB SWAP1 LOG3 PUSH1 0x40 MLOAD TIMESTAMP DUP2 MSTORE CALLER SWAP1 PUSH32 0xA6B53EC2DED38BC9ED1B375A80BE763647BB89A0B9AA76B767D3F9918A7946D7 SWAP1 PUSH1 0x20 ADD PUSH1 0x40 MLOAD DUP1 SWAP2 SUB SWAP1 LOG2 PUSH1 0x1 SWAP3 POP POP POP SWAP1 JUMP JUMPDEST PUSH2 0x2477 CALLER PUSH10 0x15586102D2B60F00000 PUSH2 0x4ED4 JUMP JUMPDEST PUSH2 0x2477 CALLER PUSH10 0xBE951906EBA2AA800000 PUSH2 0x4ED4 JUMP JUMPDEST PUSH1 0x0 PUSH2 0x4314 CALLER PUSH2 0x23C7 JUMP JUMPDEST PUSH1 0x40 MLOAD DUP3 DUP2 MSTORE PUSH1 0x1 PUSH1 0x1 PUSH1 0xA0 SHL SUB DUP5 AND SWAP1 CALLER SWAP1 PUSH1 0x0 DUP1 MLOAD PUSH1 0x20 PUSH2 0x5242 DUP4 CODECOPY DUP2 MLOAD SWAP2 MSTORE SWAP1 PUSH1 0x20 ADD PUSH2 0x25E5 JUMP JUMPDEST PUSH2 0x2477 CALLER PUSH10 0x9ED194DB19B238C00000 PUSH2 0x4ED4 JUMP JUMPDEST PUSH2 0x2477 CALLER PUSH10 0x2F1854022A4C9B00000 PUSH2 0x4ED4 JUMP JUMPDEST PUSH2 0x2477 CALLER PUSH13 0xC9F2C9CD04674EDEA40000000 PUSH2 0x4ED4 JUMP JUMPDEST PUSH2 0x2477 CALLER PUSH9 0xC893D09C8F51500000 PUSH2 0x4ED4 JUMP JUMPDEST PUSH2 0x2477 CALLER PUSH11 0x84595161401484A000000 PUSH2 0x4ED4 JUMP JUMPDEST PUSH2 0x2477 CALLER PUSH10 0x2B5E3AF16B188000000 PUSH2 0x4ED4 JUMP JUMPDEST PUSH2 0x2477 CALLER PUSH9 0xB2E4B323D9C5100000 PUSH2 0x4ED4 JUMP JUMPDEST PUSH7 0x38D7EA4C68000 CALLVALUE LT ISZERO PUSH2 0x4435 JUMPI PUSH1 0x40 MLOAD PUSH3 0x461BCD PUSH1 0xE5 SHL DUP2 MSTORE PUSH1 0x20 PUSH1 0x4 DUP3 ADD MSTORE PUSH1 0x28 PUSH1 0x24 DUP3 ADD MSTORE PUSH32 0x436F6D6D756E6974792070617274696369706174696F6E206665653A20302E30 PUSH1 0x44 DUP3 ADD MSTORE PUSH8 0x3031204D41544943 PUSH1 0xC0 SHL PUSH1 0x64 DUP3 ADD MSTORE PUSH1 0x84 ADD PUSH2 0x1AA8 JUMP JUMPDEST PUSH2 0x443E CALLER PUSH2 0x23C7 JUMP JUMPDEST PUSH1 0x0 DUP1 SLOAD PUSH1 0x40 MLOAD PUSH1 0x1 PUSH1 0x1 PUSH1 0xA0 SHL SUB SWAP1 SWAP2 AND SWAP1 CALLVALUE SWAP1 DUP4 DUP2 DUP2 DUP2 DUP6 DUP8 GAS CALL SWAP3 POP POP POP RETURNDATASIZE DUP1 PUSH1 0x0 DUP2 EQ PUSH2 0x448B JUMPI PUSH1 0x40 MLOAD SWAP2 POP PUSH1 0x1F NOT PUSH1 0x3F RETURNDATASIZE ADD AND DUP3 ADD PUSH1 0x40 MSTORE RETURNDATASIZE DUP3 MSTORE RETURNDATASIZE PUSH1 0x0 PUSH1 0x20 DUP5 ADD RETURNDATACOPY PUSH2 0x4490 JUMP JUMPDEST PUSH1 0x60 SWAP2 POP JUMPDEST POP POP SWAP1 POP DUP1 PUSH2 0x44E1 JUMPI PUSH1 0x40 MLOAD PUSH3 0x461BCD PUSH1 0xE5 SHL DUP2 MSTORE PUSH1 0x20 PUSH1 0x4 DUP3 ADD MSTORE PUSH1 0x18 PUSH1 0x24 DUP3 ADD MSTORE PUSH32 0x5265776172642070726F63657373696E67206661696C65640000000000000000 PUSH1 0x44 DUP3 ADD MSTORE PUSH1 0x64 ADD PUSH2 0x1AA8 JUMP JUMPDEST PUSH1 0x40 MLOAD PUSH9 0x5150AE84A8CDF00000 DUP2 MSTORE CALLER SWAP1 PUSH1 0x0 DUP1 MLOAD PUSH1 0x20 PUSH2 0x5222 DUP4 CODECOPY DUP2 MLOAD SWAP2 MSTORE SWAP1 PUSH1 0x20 ADD PUSH1 0x40 MLOAD DUP1 SWAP2 SUB SWAP1 LOG2 PUSH1 0x40 MLOAD PUSH9 0x5150AE84A8CDF00000 DUP2 MSTORE CALLER SWAP1 ADDRESS SWAP1 PUSH1 0x0 DUP1 MLOAD PUSH1 0x20 PUSH2 0x5242 DUP4 CODECOPY DUP2 MLOAD SWAP2 MSTORE SWAP1 PUSH1 0x20 ADD PUSH2 0x28B3 JUMP JUMPDEST PUSH2 0x2477 CALLER PUSH10 0x581767BA6189C400000 PUSH2 0x4ED4 JUMP JUMPDEST PUSH2 0x2477 CALLER PUSH9 0xDE42EE1544DD900000 PUSH2 0x4ED4 JUMP JUMPDEST PUSH2 0x2477 CALLER PUSH10 0x2544FAA778090E00000 PUSH2 0x4ED4 JUMP JUMPDEST PUSH7 0x38D7EA4C68000 CALLVALUE LT ISZERO PUSH2 0x45CA JUMPI PUSH1 0x40 MLOAD PUSH3 0x461BCD PUSH1 0xE5 SHL DUP2 MSTORE PUSH1 0x20 PUSH1 0x4 DUP3 ADD MSTORE PUSH1 0x1B PUSH1 0x24 DUP3 ADD MSTORE PUSH32 0x4175746F2D636C61696D206665653A20302E303031204D415449430000000000 PUSH1 0x44 DUP3 ADD MSTORE PUSH1 0x64 ADD PUSH2 0x1AA8 JUMP JUMPDEST PUSH2 0x45D3 CALLER PUSH2 0x23C7 JUMP JUMPDEST PUSH1 0x0 DUP1 SLOAD PUSH1 0x40 MLOAD PUSH1 0x1 PUSH1 0x1 PUSH1 0xA0 SHL SUB SWAP1 SWAP2 AND SWAP1 CALLVALUE SWAP1 DUP4 DUP2 DUP2 DUP2 DUP6 DUP8 GAS CALL SWAP3 POP POP POP RETURNDATASIZE DUP1 PUSH1 0x0 DUP2 EQ PUSH2 0x4620 JUMPI PUSH1 0x40 MLOAD SWAP2 POP PUSH1 0x1F NOT PUSH1 0x3F RETURNDATASIZE ADD AND DUP3 ADD PUSH1 0x40 MSTORE RETURNDATASIZE DUP3 MSTORE RETURNDATASIZE PUSH1 0x0 PUSH1 0x20 DUP5 ADD RETURNDATACOPY PUSH2 0x4625 JUMP JUMPDEST PUSH1 0x60 SWAP2 POP JUMPDEST POP POP SWAP1 POP DUP1 PUSH2 0x466A JUMPI PUSH1 0x40 MLOAD PUSH3 0x461BCD PUSH1 0xE5 SHL DUP2 MSTORE PUSH1 0x20 PUSH1 0x4 DUP3 ADD MSTORE PUSH1 0x11 PUSH1 0x24 DUP3 ADD MSTORE PUSH17 0x105D5D1BC818DB185A5B4819985A5B1959 PUSH1 0x7A SHL PUSH1 0x44 DUP3 ADD MSTORE PUSH1 0x64 ADD PUSH2 0x1AA8 JUMP JUMPDEST PUSH1 0x40 MLOAD PUSH10 0x2544FAA778090E00000 DUP2 MSTORE CALLER SWAP1 PUSH1 0x0 DUP1 MLOAD PUSH1 0x20 PUSH2 0x5222 DUP4 CODECOPY DUP2 MLOAD SWAP2 MSTORE SWAP1 PUSH1 0x20 ADD PUSH1 0x40 MLOAD DUP1 SWAP2 SUB SWAP1 LOG2 PUSH1 0x40 MLOAD PUSH10 0x2544FAA778090E00000 DUP2 MSTORE CALLER SWAP1 ADDRESS SWAP1 PUSH1 0x0 DUP1 MLOAD PUSH1 0x20 PUSH2 0x5242 DUP4 CODECOPY DUP2 MLOAD SWAP2 MSTORE SWAP1 PUSH1 0x20 ADD PUSH2 0x28B3 JUMP JUMPDEST PUSH2 0x2477 CALLER PUSH10 0x16B352DA5E0ED300000 PUSH2 0x4ED4 JUMP JUMPDEST PUSH2 0x2477 CALLER PUSH10 0x130EE8E7179044400000 PUSH2 0x4ED4 JUMP JUMPDEST PUSH2 0x2477 CALLER PUSH9 0xC328093E61EE400000 PUSH2 0x4ED4 JUMP JUMPDEST PUSH2 0x2477 CALLER PUSH10 0x2F6F10780D22CC00000 PUSH2 0x4ED4 JUMP JUMPDEST PUSH2 0x2477 CALLER PUSH10 0x4C3BA39C5E411100000 PUSH2 0x4ED4 JUMP JUMPDEST PUSH7 0x38D7EA4C68000 CALLVALUE LT ISZERO PUSH2 0x477D JUMPI PUSH1 0x40 MLOAD PUSH3 0x461BCD PUSH1 0xE5 SHL DUP2 MSTORE PUSH1 0x20 PUSH1 0x4 DUP3 ADD MSTORE PUSH1 0x1B PUSH1 0x24 DUP3 ADD MSTORE PUSH32 0x5072656D69756D206163636573733A20302E303031204D415449430000000000 PUSH1 0x44 DUP3 ADD MSTORE PUSH1 0x64 ADD PUSH2 0x1AA8 JUMP JUMPDEST PUSH2 0x4786 CALLER PUSH2 0x23C7 JUMP JUMPDEST PUSH1 0x0 DUP1 SLOAD PUSH1 0x40 MLOAD PUSH1 0x1 PUSH1 0x1 PUSH1 0xA0 SHL SUB SWAP1 SWAP2 AND SWAP1 CALLVALUE SWAP1 DUP4 DUP2 DUP2 DUP2 DUP6 DUP8 GAS CALL SWAP3 POP POP POP RETURNDATASIZE DUP1 PUSH1 0x0 DUP2 EQ PUSH2 0x47D3 JUMPI PUSH1 0x40 MLOAD SWAP2 POP PUSH1 0x1F NOT PUSH1 0x3F RETURNDATASIZE ADD AND DUP3 ADD PUSH1 0x40 MSTORE RETURNDATASIZE DUP3 MSTORE RETURNDATASIZE PUSH1 0x0 PUSH1 0x20 DUP5 ADD RETURNDATACOPY PUSH2 0x47D8 JUMP JUMPDEST PUSH1 0x60 SWAP2 POP JUMPDEST POP POP SWAP1 POP DUP1 PUSH2 0x4820 JUMPI PUSH1 0x40 MLOAD PUSH3 0x461BCD PUSH1 0xE5 SHL DUP2 MSTORE PUSH1 0x20 PUSH1 0x4 DUP3 ADD MSTORE PUSH1 0x14 PUSH1 0x24 DUP3 ADD MSTORE PUSH20 0x141C995B5A5D5B4818DB185A5B4819985A5B1959 PUSH1 0x62 SHL PUSH1 0x44 DUP3 ADD MSTORE PUSH1 0x64 ADD PUSH2 0x1AA8 JUMP JUMPDEST PUSH1 0x40 MLOAD PUSH10 0x43C33C1937564800000 DUP2 MSTORE CALLER SWAP1 PUSH1 0x0 DUP1 MLOAD PUSH1 0x20 PUSH2 0x5222 DUP4 CODECOPY DUP2 MLOAD SWAP2 MSTORE SWAP1 PUSH1 0x20 ADD PUSH1 0x40 MLOAD DUP1 SWAP2 SUB SWAP1 LOG2 PUSH1 0x40 MLOAD PUSH10 0x43C33C1937564800000 DUP2 MSTORE CALLER SWAP1 ADDRESS SWAP1 PUSH1 0x0 DUP1 MLOAD PUSH1 0x20 PUSH2 0x5242 DUP4 CODECOPY DUP2 MLOAD SWAP2 MSTORE SWAP1 PUSH1 0x20 ADD PUSH2 0x28B3 JUMP JUMPDEST PUSH2 0x2477 CALLER PUSH10 0x1B71A14CC5C58100000 PUSH2 0x4ED4 JUMP JUMPDEST PUSH2 0x2477 CALLER PUSH10 0x1D7A0C1016CAA700000 PUSH2 0x4ED4 JUMP JUMPDEST PUSH2 0x2477 CALLER PUSH10 0x4315C32D71A9E600000 PUSH2 0x4ED4 JUMP JUMPDEST PUSH2 0x2477 CALLER PUSH10 0x1BC85DC2A89BB200000 PUSH2 0x4ED4 JUMP JUMPDEST PUSH2 0x2477 CALLER PUSH10 0x3A469F3467E8EC00000 PUSH2 0x4ED4 JUMP JUMPDEST PUSH2 0x2477 CALLER PUSH10 0x174B1CA8AB05A8C00000 PUSH2 0x4ED4 JUMP JUMPDEST PUSH2 0x2477 CALLER PUSH10 0x19BFF2FF57968C00000 PUSH2 0x4ED4 JUMP JUMPDEST PUSH2 0x2477 CALLER PUSH10 0xCB49B44BA602D800000 PUSH2 0x4ED4 JUMP JUMPDEST PUSH7 0x38D7EA4C68000 CALLVALUE LT ISZERO PUSH2 0x4970 JUMPI PUSH1 0x40 MLOAD PUSH3 0x461BCD PUSH1 0xE5 SHL DUP2 MSTORE PUSH1 0x20 PUSH1 0x4 DUP3 ADD MSTORE PUSH1 0x1B PUSH1 0x24 DUP3 ADD MSTORE PUSH32 0x436F6C6C656374696F6E206665653A20302E303031204D415449430000000000 PUSH1 0x44 DUP3 ADD MSTORE PUSH1 0x64 ADD PUSH2 0x1AA8 JUMP JUMPDEST PUSH2 0x4979 CALLER PUSH2 0x23C7 JUMP JUMPDEST PUSH1 0x0 DUP1 SLOAD PUSH1 0x40 MLOAD PUSH1 0x1 PUSH1 0x1 PUSH1 0xA0 SHL SUB SWAP1 SWAP2 AND SWAP1 CALLVALUE SWAP1 DUP4 DUP2 DUP2 DUP2 DUP6 DUP8 GAS CALL SWAP3 POP POP POP RETURNDATASIZE DUP1 PUSH1 0x0 DUP2 EQ PUSH2 0x49C6 JUMPI PUSH1 0x40 MLOAD SWAP2 POP PUSH1 0x1F NOT PUSH1 0x3F RETURNDATASIZE ADD AND DUP3 ADD PUSH1 0x40 MSTORE RETURNDATASIZE DUP3 MSTORE RETURNDATASIZE PUSH1 0x0 PUSH1 0x20 DUP5 ADD RETURNDATACOPY PUSH2 0x49CB JUMP JUMPDEST PUSH1 0x60 SWAP2 POP JUMPDEST POP POP SWAP1 POP DUP1 PUSH2 0x4A10 JUMPI PUSH1 0x40 MLOAD PUSH3 0x461BCD PUSH1 0xE5 SHL DUP2 MSTORE PUSH1 0x20 PUSH1 0x4 DUP3 ADD MSTORE PUSH1 0x11 PUSH1 0x24 DUP3 ADD MSTORE PUSH17 0x10DBDB1B1958DD1A5BDB8819985A5B1959 PUSH1 0x7A SHL PUSH1 0x44 DUP3 ADD MSTORE PUSH1 0x64 ADD PUSH2 0x1AA8 JUMP JUMPDEST PUSH1 0x40 MLOAD PUSH9 0xD8D726B7177A800000 DUP2 MSTORE CALLER SWAP1 PUSH1 0x0 DUP1 MLOAD PUSH1 0x20 PUSH2 0x5222 DUP4 CODECOPY DUP2 MLOAD SWAP2 MSTORE SWAP1 PUSH1 0x20 ADD PUSH1 0x40 MLOAD DUP1 SWAP2 SUB SWAP1 LOG2 PUSH1 0x40 MLOAD PUSH9 0xD8D726B7177A800000 DUP2 MSTORE CALLER SWAP1 ADDRESS SWAP1 PUSH1 0x0 DUP1 MLOAD PUSH1 0x20 PUSH2 0x5242 DUP4 CODECOPY DUP2 MLOAD SWAP2 MSTORE SWAP1 PUSH1 0x20 ADD PUSH2 0x28B3 JUMP JUMPDEST PUSH2 0x2477 CALLER PUSH10 0xA2A15D09519BE000000 PUSH2 0x4ED4 JUMP JUMPDEST PUSH2 0x2477 CALLER PUSH10 0x1605D9EE98627100000 PUSH2 0x4ED4 JUMP JUMPDEST PUSH2 0x2477 CALLER PUSH10 0x2440C545CF867B00000 PUSH2 0x4ED4 JUMP JUMPDEST PUSH2 0x2477 CALLER PUSH10 0x20DD68AAF3289100000 PUSH2 0x4ED4 JUMP JUMPDEST PUSH2 0x2477 CALLER PUSH10 0x134FF63F81B0E900000 PUSH2 0x4ED4 JUMP JUMPDEST PUSH2 0x2477 CALLER PUSH11 0x211654585005212800000 PUSH2 0x4ED4 JUMP JUMPDEST PUSH2 0x2477 CALLER PUSH9 0xE3AEB5737240A00000 PUSH2 0x4ED4 JUMP JUMPDEST PUSH2 0x2477 CALLER PUSH10 0x20D2911C36CDCAE00000 PUSH2 0x4ED4 JUMP JUMPDEST PUSH2 0x2477 CALLER PUSH10 0x4DED51E9CC700600000 PUSH2 0x4ED4 JUMP JUMPDEST PUSH2 0x2477 CALLER PUSH10 0x1969368974C05B000000 PUSH2 0x4ED4 JUMP JUMPDEST PUSH2 0x2477 CALLER PUSH10 0x180E44B1E9679700000 PUSH2 0x4ED4 JUMP JUMPDEST PUSH7 0x38D7EA4C68000 CALLVALUE LT ISZERO PUSH2 0x4B9A JUMPI PUSH1 0x40 MLOAD PUSH3 0x461BCD PUSH1 0xE5 SHL DUP2 MSTORE PUSH1 0x20 PUSH1 0x4 DUP3 ADD MSTORE PUSH1 0x18 PUSH1 0x24 DUP3 ADD MSTORE PUSH32 0x4E6574776F726B206665653A20302E303031204D415449430000000000000000 PUSH1 0x44 DUP3 ADD MSTORE PUSH1 0x64 ADD PUSH2 0x1AA8 JUMP JUMPDEST PUSH2 0x4BA3 CALLER PUSH2 0x23C7 JUMP JUMPDEST PUSH1 0x0 DUP1 SLOAD PUSH1 0x40 MLOAD PUSH1 0x1 PUSH1 0x1 PUSH1 0xA0 SHL SUB SWAP1 SWAP2 AND SWAP1 CALLVALUE SWAP1 DUP4 DUP2 DUP2 DUP2 DUP6 DUP8 GAS CALL SWAP3 POP POP POP RETURNDATASIZE DUP1 PUSH1 0x0 DUP2 EQ PUSH2 0x4BF0 JUMPI PUSH1 0x40 MLOAD SWAP2 POP PUSH1 0x1F NOT PUSH1 0x3F RETURNDATASIZE ADD AND DUP3 ADD PUSH1 0x40 MSTORE RETURNDATASIZE DUP3 MSTORE RETURNDATASIZE PUSH1 0x0 PUSH1 0x20 DUP5 ADD RETURNDATACOPY PUSH2 0x4BF5 JUMP JUMPDEST PUSH1 0x60 SWAP2 POP JUMPDEST POP POP SWAP1 POP DUP1 PUSH2 0x4C3A JUMPI PUSH1 0x40 MLOAD PUSH3 0x461BCD PUSH1 0xE5 SHL DUP2 MSTORE PUSH1 0x20 PUSH1 0x4 DUP3 ADD MSTORE PUSH1 0x11 PUSH1 0x24 DUP3 ADD MSTORE PUSH17 0x119C99594818DB185A5B4819985A5B1959 PUSH1 0x7A SHL PUSH1 0x44 DUP3 ADD MSTORE PUSH1 0x64 ADD PUSH2 0x1AA8 JUMP JUMPDEST PUSH1 0x40 MLOAD PUSH10 0x10F0CF064DD59200000 DUP2 MSTORE CALLER SWAP1 PUSH1 0x0 DUP1 MLOAD PUSH1 0x20 PUSH2 0x5222 DUP4 CODECOPY DUP2 MLOAD SWAP2 MSTORE SWAP1 PUSH1 0x20 ADD PUSH1 0x40 MLOAD DUP1 SWAP2 SUB SWAP1 LOG2 PUSH1 0x40 MLOAD PUSH10 0x10F0CF064DD59200000 DUP2 MSTORE CALLER SWAP1 ADDRESS SWAP1 PUSH1 0x0 DUP1 MLOAD PUSH1 0x20 PUSH2 0x5242 DUP4 CODECOPY DUP2 MLOAD SWAP2 MSTORE SWAP1 PUSH1 0x20 ADD PUSH2 0x28B3 JUMP JUMPDEST PUSH1 0x0 SLOAD PUSH1 0x60 SWAP1 PUSH1 0x1 PUSH1 0x1 PUSH1 0xA0 SHL SUB AND CALLER EQ PUSH2 0x4CE8 JUMPI PUSH1 0x40 MLOAD PUSH3 0x461BCD PUSH1 0xE5 SHL DUP2 MSTORE PUSH1 0x20 PUSH1 0x4 DUP3 ADD MSTORE PUSH1 0x15 PUSH1 0x24 DUP3 ADD MSTORE PUSH21 0x10591B5A5B881858D8D95CDCC81C995C5D5A5C9959 PUSH1 0x5A SHL PUSH1 0x44 DUP3 ADD MSTORE PUSH1 0x64 ADD PUSH2 0x1AA8 JUMP JUMPDEST PUSH1 0x6 DUP1 SLOAD DUP1 PUSH1 0x20 MUL PUSH1 0x20 ADD PUSH1 0x40 MLOAD SWAP1 DUP2 ADD PUSH1 0x40 MSTORE DUP1 SWAP3 SWAP2 SWAP1 DUP2 DUP2 MSTORE PUSH1 0x20 ADD DUP3 DUP1 SLOAD DUP1 ISZERO PUSH2 0x4D3E JUMPI PUSH1 0x20 MUL DUP3 ADD SWAP2 SWAP1 PUSH1 0x0 MSTORE PUSH1 0x20 PUSH1 0x0 KECCAK256 SWAP1 JUMPDEST DUP2 SLOAD PUSH1 0x1 PUSH1 0x1 PUSH1 0xA0 SHL SUB AND DUP2 MSTORE PUSH1 0x1 SWAP1 SWAP2 ADD SWAP1 PUSH1 0x20 ADD DUP1 DUP4 GT PUSH2 0x4D20 JUMPI JUMPDEST POP POP POP POP POP SWAP1 POP SWAP1 JUMP JUMPDEST PUSH2 0x2477 CALLER PUSH10 0xD2106D815EBEAC00000 PUSH2 0x4ED4 JUMP JUMPDEST PUSH2 0x2477 CALLER PUSH10 0x42118DCBC9275300000 PUSH2 0x4ED4 JUMP JUMPDEST PUSH2 0x2477 CALLER PUSH10 0x1AC4286100191F00000 PUSH2 0x4ED4 JUMP JUMPDEST PUSH7 0x38D7EA4C68000 CALLVALUE LT ISZERO PUSH2 0x4DDB JUMPI PUSH1 0x40 MLOAD PUSH3 0x461BCD PUSH1 0xE5 SHL DUP2 MSTORE PUSH1 0x20 PUSH1 0x4 DUP3 ADD MSTORE PUSH1 0x1B PUSH1 0x24 DUP3 ADD MSTORE PUSH32 0x4661737420747261636B206665653A20302E303031204D415449430000000000 PUSH1 0x44 DUP3 ADD MSTORE PUSH1 0x64 ADD PUSH2 0x1AA8 JUMP JUMPDEST PUSH2 0x4DE4 CALLER PUSH2 0x23C7 JUMP JUMPDEST PUSH1 0x0 DUP1 SLOAD PUSH1 0x40 MLOAD PUSH1 0x1 PUSH1 0x1 PUSH1 0xA0 SHL SUB SWAP1 SWAP2 AND SWAP1 CALLVALUE SWAP1 DUP4 DUP2 DUP2 DUP2 DUP6 DUP8 GAS CALL SWAP3 POP POP POP RETURNDATASIZE DUP1 PUSH1 0x0 DUP2 EQ PUSH2 0x4E31 JUMPI PUSH1 0x40 MLOAD SWAP2 POP PUSH1 0x1F NOT PUSH1 0x3F RETURNDATASIZE ADD AND DUP3 ADD PUSH1 0x40 MSTORE RETURNDATASIZE DUP3 MSTORE RETURNDATASIZE PUSH1 0x0 PUSH1 0x20 DUP5 ADD RETURNDATACOPY PUSH2 0x4E36 JUMP JUMPDEST PUSH1 0x60 SWAP2 POP JUMPDEST POP POP SWAP1 POP DUP1 PUSH2 0x4E7B JUMPI PUSH1 0x40 MLOAD PUSH3 0x461BCD PUSH1 0xE5 SHL DUP2 MSTORE PUSH1 0x20 PUSH1 0x4 DUP3 ADD MSTORE PUSH1 0x11 PUSH1 0x24 DUP3 ADD MSTORE PUSH17 0x11985CDD0818DB185A5B4819985A5B1959 PUSH1 0x7A SHL PUSH1 0x44 DUP3 ADD MSTORE PUSH1 0x64 ADD PUSH2 0x1AA8 JUMP JUMPDEST PUSH1 0x40 MLOAD PUSH10 0x202FEFBF2D7C2F00000 DUP2 MSTORE CALLER SWAP1 PUSH1 0x0 DUP1 MLOAD PUSH1 0x20 PUSH2 0x5222 DUP4 CODECOPY DUP2 MLOAD SWAP2 MSTORE SWAP1 PUSH1 0x20 ADD PUSH1 0x40 MLOAD DUP1 SWAP2 SUB SWAP1 LOG2 PUSH1 0x40 MLOAD PUSH10 0x202FEFBF2D7C2F00000 DUP2 MSTORE CALLER SWAP1 ADDRESS SWAP1 PUSH1 0x0 DUP1 MLOAD PUSH1 0x20 PUSH2 0x5242 DUP4 CODECOPY DUP2 MLOAD SWAP2 MSTORE SWAP1 PUSH1 0x20 ADD PUSH2 0x28B3 JUMP JUMPDEST PUSH7 0x38D7EA4C68000 CALLVALUE LT ISZERO PUSH2 0x4F2B JUMPI PUSH1 0x40 MLOAD PUSH3 0x461BCD PUSH1 0xE5 SHL DUP2 MSTORE PUSH1 0x20 PUSH1 0x4 DUP3 ADD MSTORE PUSH1 0x1B PUSH1 0x24 DUP3 ADD MSTORE PUSH32 0x50726F63657373696E67206665653A20302E303031204D415449430000000000 PUSH1 0x44 DUP3 ADD MSTORE PUSH1 0x64 ADD PUSH2 0x1AA8 JUMP JUMPDEST PUSH2 0x4F34 DUP3 PUSH2 0x23C7 JUMP JUMPDEST PUSH1 0x0 DUP1 SLOAD PUSH1 0x40 MLOAD PUSH1 0x1 PUSH1 0x1 PUSH1 0xA0 SHL SUB SWAP1 SWAP2 AND SWAP1 CALLVALUE SWAP1 DUP4 DUP2 DUP2 DUP2 DUP6 DUP8 GAS CALL SWAP3 POP POP POP RETURNDATASIZE DUP1 PUSH1 0x0 DUP2 EQ PUSH2 0x4F81 JUMPI PUSH1 0x40 MLOAD SWAP2 POP PUSH1 0x1F NOT PUSH1 0x3F RETURNDATASIZE ADD AND DUP3 ADD PUSH1 0x40 MSTORE RETURNDATASIZE DUP3 MSTORE RETURNDATASIZE PUSH1 0x0 PUSH1 0x20 DUP5 ADD RETURNDATACOPY PUSH2 0x4F86 JUMP JUMPDEST PUSH1 0x60 SWAP2 POP JUMPDEST POP POP SWAP1 POP DUP1 PUSH2 0x4FCB JUMPI PUSH1 0x40 MLOAD PUSH3 0x461BCD PUSH1 0xE5 SHL DUP2 MSTORE PUSH1 0x20 PUSH1 0x4 DUP3 ADD MSTORE PUSH1 0x11 PUSH1 0x24 DUP3 ADD MSTORE PUSH17 0x141C9BD8D95CDCDA5B99C819985A5B1959 PUSH1 0x7A SHL PUSH1 0x44 DUP3 ADD MSTORE PUSH1 0x64 ADD PUSH2 0x1AA8 JUMP JUMPDEST DUP3 PUSH1 0x1 PUSH1 0x1 PUSH1 0xA0 SHL SUB AND PUSH1 0x0 DUP1 MLOAD PUSH1 0x20 PUSH2 0x5222 DUP4 CODECOPY DUP2 MLOAD SWAP2 MSTORE DUP4 PUSH1 0x40 MLOAD PUSH2 0x4FF4 SWAP2 DUP2 MSTORE PUSH1 0x20 ADD SWAP1 JUMP JUMPDEST PUSH1 0x40 MLOAD DUP1 SWAP2 SUB SWAP1 LOG2 PUSH1 0x40 MLOAD DUP3 DUP2 MSTORE PUSH1 0x1 PUSH1 0x1 PUSH1 0xA0 SHL SUB DUP5 AND SWAP1 ADDRESS SWAP1 PUSH1 0x0 DUP1 MLOAD PUSH1 0x20 PUSH2 0x5242 DUP4 CODECOPY DUP2 MLOAD SWAP2 MSTORE SWAP1 PUSH1 0x20 ADD PUSH1 0x40 MLOAD DUP1 SWAP2 SUB SWAP1 LOG3 POP POP POP JUMP JUMPDEST PUSH4 0x4E487B71 PUSH1 0xE0 SHL PUSH1 0x0 MSTORE PUSH1 0x11 PUSH1 0x4 MSTORE PUSH1 0x24 PUSH1 0x0 REVERT JUMPDEST DUP1 DUP3 MUL DUP2 ISZERO DUP3 DUP3 DIV DUP5 EQ OR PUSH2 0x25F1 JUMPI PUSH2 0x25F1 PUSH2 0x502F JUMP JUMPDEST PUSH1 0x20 DUP2 MSTORE PUSH1 0x0 DUP3 MLOAD DUP1 PUSH1 0x20 DUP5 ADD MSTORE PUSH1 0x0 JUMPDEST DUP2 DUP2 LT ISZERO PUSH2 0x508A JUMPI PUSH1 0x20 DUP2 DUP7 ADD DUP2 ADD MLOAD PUSH1 0x40 DUP7 DUP5 ADD ADD MSTORE ADD PUSH2 0x506D JUMP JUMPDEST POP PUSH1 0x0 PUSH1 0x40 DUP3 DUP6 ADD ADD MSTORE PUSH1 0x40 PUSH1 0x1F NOT PUSH1 0x1F DUP4 ADD AND DUP5 ADD ADD SWAP2 POP POP SWAP3 SWAP2 POP POP JUMP JUMPDEST DUP1 CALLDATALOAD PUSH1 0x1 PUSH1 0x1 PUSH1 0xA0 SHL SUB DUP2 AND DUP2 EQ PUSH2 0x50C1 JUMPI PUSH1 0x0 DUP1 REVERT JUMPDEST SWAP2 SWAP1 POP JUMP JUMPDEST PUSH1 0x0 DUP1 PUSH1 0x40 DUP4 DUP6 SUB SLT ISZERO PUSH2 0x50D9 JUMPI PUSH1 0x0 DUP1 REVERT JUMPDEST PUSH2 0x50E2 DUP4 PUSH2 0x50AA JUMP JUMPDEST SWAP5 PUSH1 0x20 SWAP4 SWAP1 SWAP4 ADD CALLDATALOAD SWAP4 POP POP POP JUMP JUMPDEST PUSH1 0x0 DUP1 PUSH1 0x0 PUSH1 0x60 DUP5 DUP7 SUB SLT ISZERO PUSH2 0x5105 JUMPI PUSH1 0x0 DUP1 REVERT JUMPDEST PUSH2 0x510E DUP5 PUSH2 0x50AA JUMP JUMPDEST SWAP3 POP PUSH2 0x511C PUSH1 0x20 DUP6 ADD PUSH2 0x50AA JUMP JUMPDEST SWAP3 SWAP6 SWAP3 SWAP5 POP POP POP PUSH1 0x40 SWAP2 SWAP1 SWAP2 ADD CALLDATALOAD SWAP1 JUMP JUMPDEST PUSH1 0x0 PUSH1 0x20 DUP3 DUP5 SUB SLT ISZERO PUSH2 0x513F JUMPI PUSH1 0x0 DUP1 REVERT JUMPDEST PUSH2 0x5148 DUP3 PUSH2 0x50AA JUMP JUMPDEST SWAP4 SWAP3 POP POP POP JUMP JUMPDEST PUSH1 0x0 DUP1 PUSH1 0x40 DUP4 DUP6 SUB SLT ISZERO PUSH2 0x5162 JUMPI PUSH1 0x0 DUP1 REVERT JUMPDEST PUSH2 0x516B DUP4 PUSH2 0x50AA JUMP JUMPDEST SWAP2 POP PUSH2 0x5179 PUSH1 0x20 DUP5 ADD PUSH2 0x50AA JUMP JUMPDEST SWAP1 POP SWAP3 POP SWAP3 SWAP1 POP JUMP JUMPDEST PUSH1 0x20 DUP1 DUP3 MSTORE DUP3 MLOAD DUP3 DUP3 ADD DUP2 SWAP1 MSTORE PUSH1 0x0 SWAP2 DUP5 ADD SWAP1 PUSH1 0x40 DUP5 ADD SWAP1 DUP4 JUMPDEST DUP2 DUP2 LT ISZERO PUSH2 0x51C3 JUMPI DUP4 MLOAD PUSH1 0x1 PUSH1 0x1 PUSH1 0xA0 SHL SUB AND DUP4 MSTORE PUSH1 0x20 SWAP4 DUP5 ADD SWAP4 SWAP1 SWAP3 ADD SWAP2 PUSH1 0x1 ADD PUSH2 0x519C JUMP JUMPDEST POP SWAP1 SWAP6 SWAP5 POP POP POP POP POP JUMP JUMPDEST PUSH1 0x0 PUSH1 0x1 DUP3 ADD PUSH2 0x51E0 JUMPI PUSH2 0x51E0 PUSH2 0x502F JUMP JUMPDEST POP PUSH1 0x1 ADD SWAP1 JUMP JUMPDEST PUSH1 0x1 DUP2 DUP2 SHR SWAP1 DUP3 AND DUP1 PUSH2 0x51FB JUMPI PUSH1 0x7F DUP3 AND SWAP2 POP JUMPDEST PUSH1 0x20 DUP3 LT DUP2 SUB PUSH2 0x521B JUMPI PUSH4 0x4E487B71 PUSH1 0xE0 SHL PUSH1 0x0 MSTORE PUSH1 0x22 PUSH1 0x4 MSTORE PUSH1 0x24 PUSH1 0x0 REVERT JUMPDEST POP SWAP2 SWAP1 POP JUMP INVALID 0xE3 BLOBHASH XOR SELFDESTRUCT SHR PUSH17 0x84970068B53FD71AD6D8B04E9F15D3886C 0xBF STOP PUSH5 0x43E6CDC52E 0xA6 0xDD CALLCODE MSTORE 0xAD SHL 0xE2 0xC8 SWAP12 PUSH10 0xC2B068FC378DAA952BA7 CALL PUSH4 0xC4A11628 CREATE2 GAS 0x4D CREATE2 0x23 0xB3 0xEF LOG2 PUSH5 0x6970667358 0x22 SLT KECCAK256 EXTCODEHASH 0xE8 EQ DUP2 BLOBHASH 0xDB RETURNDATACOPY 0xBA 0x4D 0xD5 0xCC SHL DUP11 0xEE 0x21 SWAP9 PUSH23 0xD8C5AAB3367F53CD14C07B9A3A88D864736F6C63430008 SHR STOP CALLER 0xDD CALLCODE MSTORE 0xAD SHL 0xE2 0xC8 SWAP12 PUSH10 0xC2B068FC378DAA952BA7 CALL PUSH4 0xC4A11628 CREATE2 GAS 0x4D CREATE2 0x23 0xB3 0xEF "},"methodIdentifiers":{"aave()":"819faf7b","achievement()":"459296d7","activate()":"0f15f4c0","addLiquidity()":"e8078d94","agent_smith()":"0968c5ed","airdropBonus()":"095f6ebd","airdropClaim()":"b6d6ed4e","airdropFree()":"5e54276a","airdropReward()":"4b71bff3","airdropTokens()":"91152c5c","algorithm()":"2e58ca46","allowance(address,address)":"dd62ed3e","alpha()":"db1d0fd5","alpha_omega()":"07e1b558","amazed()":"839d95d6","amplify()":"f80a05d9","ape()":"79babd2c","ape_strong()":"f64a8426","apotheosis()":"4a521100","approve(address,uint256)":"095ea7b3","artifact()":"62c2fd6b","artificial_intelligence()":"5b6fe52c","asteroid()":"e44f6a30","aura()":"e13b7f5c","authorized()":"456cb7c6","autoClaim()":"c70db323","balanceOf(address)":"70a08231","balancer()":"e563037e","bear()":"37b6c887","bearish()":"3ba463bf","begin()":"1bce6ff3","beta()":"9faa3c91","billion()":"61f8e177","binance()":"886f359d","bitcoin()":"ced35070","black()":"8b8fd3bd","blackhole()":"f34447f7","blast_off()":"32e24feb","blazing()":"5d9f404b","blizzard()":"80f0f59c","blockchain()":"64a0b126","blue()":"ed18f0a7","blue_pill()":"d9f068e3","bonus()":"75b4d78c","bonus1()":"30818189","bonus2()":"67e8d3d2","bonusReward()":"cf13d91b","boost()":"a66f42c0","boss_drop()":"17c84f35","bridge()":"e78cea92","bridgeAndReward()":"cbdf1bab","bridgeRewards()":"24d69131","bridgeTokens()":"f8a06888","bronze()":"3cfe4735","bulkClaim()":"2e974525","bull()":"49cef723","bullish()":"71356813","celestial()":"72bd1280","certified()":"9def2d89","chakra()":"d584c469","champion()":"44866955","checkBonusEligibility(address)":"cf3c868a","chosen()":"838729f6","claim()":"4e71d92d","claim1()":"5afd86a8","claim2()":"01eaaec4","claim3()":"f1a51ee4","claim4()":"ffccf697","claim5()":"5abee115","claimAirdrop()":"5b88349d","claimAll()":"d1058e59","claimAndBridge()":"52a60270","claimAndStake()":"cb1a4fc0","claimAndSwap()":"15e962de","claimBonus()":"50635394","claimCommunityReward()":"bd11c001","claimDaily()":"89934d3a","claimDrop()":"4feeade4","claimFast()":"a09b9cb8","claimFreeTokens()":"f14d2181","claimGovernance()":"5d36b190","claimHere()":"b29c16e2","claimInstant()":"eb38ac92","claimMonthly()":"a1c2f5c1","claimNow()":"0f30a44c","claimQuick()":"55e1b486","claimReward()":"b88a802f","claimRewards()":"372500ab","claimStakingRewards()":"6b69e05b","claimTokens()":"48c54b9d","claimWeekly()":"6fc2ca31","claimYearly()":"60d7cfac","code()":"24c12bf6","coinbase()":"a6ae0aac","collect()":"e5225381","collectAll()":"952c96fb","collectBonus()":"d5fb33c2","collectDaily()":"54d1f16f","collectNow()":"52f9d94f","collectRewards()":"70bb45b3","collectTokens()":"8433acd1","combo()":"7a64adfa","comet()":"ba3e9c12","comment()":"f4f3c8a4","complete()":"522e1177","compound()":"f69e2046","confirm()":"7022b58e","cosmos()":"681cac16","creator()":"02d05d3f","critical_hit()":"53c38fd7","crossChain()":"4917db66","curve()":"7165485d","dai()":"f4b9fa75","dailyBonus()":"ca6f1b97","dao()":"4162169f","dapp()":"b6de460a","decimals()":"313ce567","defi()":"38c0f073","degen()":"1ae947f7","delegate()":"c89e4361","delta()":"12b495a8","destiny()":"eaf10d35","diamond()":"f0b7db4e","diamond_hands()":"cb0b2d06","disruption()":"758063e8","divine()":"aadf21c0","dolphin()":"59774a53","double()":"8fdb7189","dump()":"e4330545","eagle()":"c51fc0c0","ecstatic()":"d63f8ae8","emergency()":"caa6fea4","emergencyClaim()":"2b8278ca","emergencyExit()":"5641ec03","emergencyWithdraw()":"db2e21bc","enchantment()":"239f74ae","energy()":"aa849244","enlightenment()":"b660fded","epic()":"298c6c51","essence()":"5c7abcc2","eternal()":"9e01e299","ethereum()":"878e1b10","euphoric()":"5706d7e4","evening()":"0c35580d","excited()":"287f6c61","exclusive()":"01ff74f7","exclusive1()":"4dacb96d","exclusive2()":"7a249488","execute()":"61461954","farm()":"36e9332d","farmAndHarvest()":"f527bf15","farmRewards()":"49f415c8","fastClaim()":"f992cfdc","fate()":"1c703655","few()":"7689dc7c","finish()":"d56b2889","follow()":"a433ccc7","fomo()":"d9fca70e","force()":"a79f26dc","free()":"1370128e","freeBonus()":"c35c585b","freeClaim()":"e88d3b3e","freeDaily()":"c699bf6a","freeMint()":"5b70ea9f","freeReward()":"f755ea9d","freeTokens()":"6fe8f9c5","galaxy()":"43774864","gamefi()":"4f228596","gamma()":"b1373929","genesis()":"a7f0b3de","getInteractionHistory()":"f19d51ce","getParticipationFee()":"863fc11e","getParticipationTime(address)":"babdc832","getRemainingDistribution()":"dac5aa19","getSystemAdmin()":"35a13597","getTotalParticipants()":"a90cc445","giant()":"deeaadc0","gm()":"c0129d43","godlike()":"ac8bb900","gold()":"fbec6f21","goldRush()":"63c0fb51","governance()":"5aa6e675","green()":"f2f1e132","grimoire()":"9bbf8113","happy()":"e0d7cb6f","harvest()":"4641257d","harvestAll()":"8ed955b9","harvestAndClaim()":"d8e498f4","harvestDaily()":"071ad61d","harvestNow()":"19eb2ea0","harvestRewards()":"2be11ae2","harvestTokens()":"2a981b5b","hasParticipated(address)":"b4fb3ee3","have_fun_staying_poor()":"56f86e84","headshot()":"1a8f445f","hodl()":"60f14509","holiday()":"76f73f43","hourly()":"7d2a16df","huge()":"4a9b3e8e","hundred()":"5bff9a27","hurricane()":"56965615","hyper()":"cd5a62be","infinite()":"5bec9e67","influencer()":"a87588e7","innovation()":"023f39c3","instantClaim()":"660c92d4","jackpot()":"6b31ee01","lambo()":"21a950ca","large()":"12987c98","launch()":"01339c21","layer2()":"f42be871","legendary()":"f739c261","legendary1()":"749c72ef","legendary2()":"39f24d45","level_up()":"2d8c1c35","lightning()":"ff49f9d9","lightning_fast()":"41c4d92f","like()":"a523b88a","limited()":"860a32ec","limited1()":"0a6f6f9c","limited2()":"199c9529","link()":"1c4695f4","lion()":"2cf53d73","liquidityPool()":"665a11ca","lottery()":"ba13a572","lucky()":"d9c291cf","machine()":"75c60225","machine_learning()":"44e95061","magic()":"0d854646","massive()":"7ddcfe7e","matic()":"b6b0b097","matrix()":"32c2a966","maximum()":"52342f13","medium()":"97ccd07b","mega()":"c5f98a3f","mega1()":"ffe7c19d","mega2()":"5b4ab84d","megaBonus()":"80d63ad7","metaverse()":"f200670d","million()":"4e9c6b1f","mindblown()":"64f70de1","mini()":"15b379ba","mint()":"1249c58b","mintAndClaim()":"5bc54b97","mintBonus()":"510402cd","mintDaily()":"785946f4","mintFree()":"8ab53447","mintNow()":"94deda25","mintReward()":"174f57af","mintRewards()":"234cb051","mintTokens()":"eeb9635c","miracle()":"3d17aa26","moon()":"b9094851","moon_mission()":"8d14aeec","moonshot()":"0ad309e5","morning()":"cfa5a3f2","morpheus()":"ff477308","multiplier()":"1b3ed722","mythic()":"b7cd9cbb","mythic1()":"866dd204","mythic2()":"00eec9b4","name()":"06fdde03","nebula()":"4ecde849","neo()":"44350d5f","nft()":"47ccca02","ngmi()":"fb223f18","nirvana()":"34a8ea06","nitro()":"dd92c07e","normal()":"fd255aef","omega()":"2262a1b3","omnipotent()":"90eb42cb","one()":"901717d1","oracle()":"7dc0d1d0","pancakeswap()":"e1696349","panicSell()":"1e2f3791","participateInDistribution()":"a04e8bea","planet()":"8443bea6","platinum()":"c937b0a9","polygon()":"b8c97ded","pool()":"16f0115b","poolRewards()":"8bc6beb2","potion()":"9309d42e","power()":"4a4d59fa","power_up()":"d175af7b","premiumClaim()":"cc741f91","prize()":"e3ac5d26","probably_nothing()":"04d18a8d","process()":"c33fb877","prophecy()":"f0737eb8","proposal()":"753ec103","pump()":"395ea61b","purple()":"ed44cdd4","quadruple()":"e239f51d","quantum()":"9aa395f4","quick()":"fdd3a879","quickExit()":"30e4f56d","quickSwap()":"4086571e","quickswap()":"1e21e4ab","rabbit()":"5b57f333","rain()":"43def26e","rainbow()":"ea2752aa","rapid()":"36ca3f79","rare()":"6bb7b7a4","rare_drop()":"7c7cc108","red()":"2930cf24","red_pill()":"78a1128a","redeem()":"be040fb0","redeemAll()":"2f4350c2","redeemBonus()":"0e3f0cca","redeemCode()":"dcda080a","redeemNow()":"a139d024","redeemRewards()":"f0fc4ec1","redeemTokens()":"e9a9c50c","redeemVoucher()":"7dd0c003","rekt()":"d362ae49","relic()":"a4590bd0","removeLiquidity()":"67b9a286","restake()":"4f91440d","retweet()":"f578ebaa","revolution()":"25b731af","reward1()":"889069cd","reward2()":"facf85b1","reward3()":"6c5a34bd","rocket()":"8145bd04","rune()":"d71cac82","rwa()":"95e4b251","secure()":"b69fcd5d","share()":"a8d5fd65","shark()":"e034f67a","shill()":"243fcb35","shocked()":"7d0736b4","silver()":"0314214c","singularity()":"a5dca464","slow()":"b00d4d70","small()":"6cf3c25e","smart_contract()":"552cc062","snow()":"3a2b9626","socialfi()":"5d463374","soul()":"815b7a8c","space()":"27af9e38","special1()":"bde52dad","special2()":"bd5326e7","specialBonus()":"3a108d69","spell()":"ea762b79","spirit()":"2d2e3a93","stake()":"3a4b66f1","stakeAndEarn()":"8f041c72","stakeRewards()":"cf9d0b5f","star()":"2c6dbb1c","start()":"be9a6555","storm()":"a3982789","strength()":"55b6c288","stunned()":"90770334","submit()":"5bcb2fc6","subscribe()":"8f449a05","sunny()":"ab02dd7b","super()":"910d13e8","super1()":"228cf6d6","super2()":"eeca6ce6","supersonic()":"d3ce5087","surprised()":"3b481fcd","sushi()":"0a087903","sushiswap()":"9be28785","swap()":"8119c065","swapAll()":"3e9ffbea","swapAndEarn()":"412cd53e","swapRewards()":"d0f9a085","swapTokens()":"73d00224","symbol()":"95d89b41","talisman()":"7a4fe75a","ten()":"643ceff9","the_one()":"d10e6e2a","this_is_the_way()":"9f081db6","thousand()":"5db13476","thrilled()":"43144b7a","thunder()":"a00820b1","tiger()":"44d333ff","to_the_moon()":"29cf1c30","tornado()":"6673816b","totalSupply()":"18160ddd","transcendence()":"ee6d05f0","transfer(address,uint256)":"a9059cbb","transferFrom(address,address,uint256)":"23b872dd","treasure()":"e520fc7e","trending()":"501ffde7","trigger()":"7fec8d38","trillion()":"b05cd58d","trinity()":"509aac34","triple()":"54204ad4","trusted()":"7e2a6db8","turbo()":"99da5bc9","ultimate()":"0c240f9b","ultra()":"164c84c9","ultra1()":"98a7da82","ultra2()":"1341ea50","uni()":"edc9af95","uniswap()":"2681f7e4","universe()":"554c1b1f","unstake()":"2def6620","unstakeAll()":"35322f37","usdc()":"3e413bee","usdt()":"2f48ab7d","validated()":"efb37a39","verified()":"bbb82d89","victory()":"e100d13a","vipClaim()":"52f910e6","viral()":"954a664b","vitality()":"5bfc2c75","vote()":"632a9a52","wagmi()":"d7535706","warp_speed()":"99be6b8b","web3()":"ef834b61","weekend()":"a9fc58dd","weeklyBonus()":"edc7e9b9","wen()":"07824c06","whale()":"a6a1858f","white()":"a0811074","wind()":"b44ce39c","winner()":"dfbf53ae","withdraw()":"3ccfd60b","withdrawAll()":"853828b6","withdrawAndClaim()":"d4437724","withdrawAvailable()":"89f6c918","withdrawBalance()":"5fd8c710","withdrawEarnings()":"b73c6ce9","withdrawFunds()":"24600fc3","withdrawNow()":"3abab95d","withdrawRewards()":"c7b8981c","withdrawTokens()":"8d8f2adb","wolf()":"67cfca5a","x10()":"7d38e0ff","x100()":"fcaa29eb","yield()":"28593984","yieldFarm()":"1e092efb","yieldRewards()":"ad94e398","zion()":"13d0c71c"}}}}}