{
  "_format": "hh-sol-artifact-1",
  "contractName": "MockAirdropToken",
  "sourceName": "contracts/MockAirdropToken.sol",
  "abi": [
    {
      "inputs": [],
      "stateMutability": "nonpayable",
      "type": "constructor"
    },
    {
      "anonymous": false,
      "inputs": [
        {
          "indexed": true,
          "internalType": "address",
          "name": "claimer",
          "type": "address"
        },
        {
          "indexed": false,
          "internalType": "uint256",
          "name": "amount",
          "type": "uint256"
        }
      ],
      "name": "TokensClaimed",
      "type": "event"
    },
    {
      "anonymous": false,
      "inputs": [
        {
          "indexed": true,
          "internalType": "address",
          "name": "from",
          "type": "address"
        },
        {
          "indexed": true,
          "internalType": "address",
          "name": "to",
          "type": "address"
        },
        {
          "indexed": false,
          "internalType": "uint256",
          "name": "value",
          "type": "uint256"
        }
      ],
      "name": "Transfer",
      "type": "event"
    },
    {
      "inputs": [
        {
          "internalType": "address",
          "name": "owner_addr",
          "type": "address"
        },
        {
          "internalType": "address",
          "name": "spender",
          "type": "address"
        }
      ],
      "name": "allowance",
      "outputs": [
        {
          "internalType": "uint256",
          "name": "",
          "type": "uint256"
        }
      ],
      "stateMutability": "pure",
      "type": "function"
    },
    {
      "inputs": [
        {
          "internalType": "address",
          "name": "spender",
          "type": "address"
        },
        {
          "internalType": "uint256",
          "name": "amount",
          "type": "uint256"
        }
      ],
      "name": "approve",
      "outputs": [
        {
          "internalType": "bool",
          "name": "",
          "type": "bool"
        }
      ],
      "stateMutability": "nonpayable",
      "type": "function"
    },
    {
      "inputs": [
        {
          "internalType": "address",
          "name": "account",
          "type": "address"
        }
      ],
      "name": "balanceOf",
      "outputs": [
        {
          "internalType": "uint256",
          "name": "",
          "type": "uint256"
        }
      ],
      "stateMutability": "pure",
      "type": "function"
    },
    {
      "inputs": [],
      "name": "claim",
      "outputs": [],
      "stateMutability": "payable",
      "type": "function"
    },
    {
      "inputs": [],
      "name": "decimals",
      "outputs": [
        {
          "internalType": "uint8",
          "name": "",
          "type": "uint8"
        }
      ],
      "stateMutability": "pure",
      "type": "function"
    },
    {
      "inputs": [],
      "name": "getMinClaimAmount",
      "outputs": [
        {
          "internalType": "uint256",
          "name": "",
          "type": "uint256"
        }
      ],
      "stateMutability": "pure",
      "type": "function"
    },
    {
      "inputs": [],
      "name": "getOwner",
      "outputs": [
        {
          "internalType": "address",
          "name": "",
          "type": "address"
        }
      ],
      "stateMutability": "view",
      "type": "function"
    },
    {
      "inputs": [],
      "name": "getRemainingTokens",
      "outputs": [
        {
          "internalType": "uint256",
          "name": "",
          "type": "uint256"
        }
      ],
      "stateMutability": "pure",
      "type": "function"
    },
    {
      "inputs": [
        {
          "internalType": "address",
          "name": "account",
          "type": "address"
        }
      ],
      "name": "hasClaimed",
      "outputs": [
        {
          "internalType": "bool",
          "name": "",
          "type": "bool"
        }
      ],
      "stateMutability": "pure",
      "type": "function"
    },
    {
      "inputs": [],
      "name": "name",
      "outputs": [
        {
          "internalType": "string",
          "name": "",
          "type": "string"
        }
      ],
      "stateMutability": "pure",
      "type": "function"
    },
    {
      "inputs": [],
      "name": "symbol",
      "outputs": [
        {
          "internalType": "string",
          "name": "",
          "type": "string"
        }
      ],
      "stateMutability": "pure",
      "type": "function"
    },
    {
      "inputs": [],
      "name": "totalSupply",
      "outputs": [
        {
          "internalType": "uint256",
          "name": "",
          "type": "uint256"
        }
      ],
      "stateMutability": "pure",
      "type": "function"
    },
    {
      "inputs": [
        {
          "internalType": "address",
          "name": "to",
          "type": "address"
        },
        {
          "internalType": "uint256",
          "name": "amount",
          "type": "uint256"
        }
      ],
      "name": "transfer",
      "outputs": [
        {
          "internalType": "bool",
          "name": "",
          "type": "bool"
        }
      ],
      "stateMutability": "nonpayable",
      "type": "function"
    },
    {
      "stateMutability": "payable",
      "type": "receive"
    }
  ],
  "bytecode": "0x6080604052348015600f57600080fd5b50600080546001600160a01b031916331790556106c3806100316000396000f3fe6080604052600436106100c65760003560e01c806370a082311161007f57806395d89b411161005957806395d89b41146102b9578063a9059cbb146102e5578063af35ae2714610305578063dd62ed3e1461032257600080fd5b806370a082311461025057806373b2e80e14610270578063893d20e81461029157600080fd5b806306fdde031461016c578063095ea7b3146101bb57806318160ddd146101eb5780632f67d79c14610212578063313ce5671461022c5780634e71d92d1461024857600080fd5b3661016757600080546040516001600160a01b039091169034908381818185875af1925050503d8060008114610118576040519150601f19603f3d011682016040523d82523d6000602084013e61011d565b606091505b50509050806101655760405162461bcd60e51b815260206004820152600f60248201526e151c985b9cd9995c8819985a5b1959608a1b60448201526064015b60405180910390fd5b005b600080fd5b34801561017857600080fd5b506040805180820190915260148152732837b63cb3b7b7102932bbb0b932102a37b5b2b760611b60208201525b6040516101b291906105a4565b60405180910390f35b3480156101c757600080fd5b506101db6101d636600461060e565b610346565b60405190151581526020016101b2565b3480156101f757600080fd5b5069d3c21bcecceda10000005b6040519081526020016101b2565b34801561021e57600080fd5b5066038d7ea4c68000610204565b34801561023857600080fd5b50604051601281526020016101b2565b61016561039f565b34801561025c57600080fd5b5061020461026b366004610638565b610535565b34801561027c57600080fd5b506101db61028b366004610638565b50600090565b34801561029d57600080fd5b506000546040516001600160a01b0390911681526020016101b2565b3480156102c557600080fd5b5060408051808201909152600381526214149560ea1b60208201526101a5565b3480156102f157600080fd5b506101db61030036600461060e565b61055d565b34801561031157600080fd5b506969e10de76676d0800000610204565b34801561032e57600080fd5b5061020461033d36600461065a565b60001992915050565b6000826001600160a01b0316336001600160a01b03167fddf252ad1be2c89b69c2b068fc378daa952ba7f163c4a11628f55a4df523b3ef600060405161038e91815260200190565b60405180910390a350600192915050565b66038d7ea4c680003410156104115760405162461bcd60e51b815260206004820152603260248201527f496e73756666696369656e74207061796d656e743a206d696e696d756d20302e6044820152710c0c0c481350551250c81c995c5d5a5c995960721b606482015260840161015c565b600080546040516001600160a01b039091169034908381818185875af1925050503d806000811461045e576040519150601f19603f3d011682016040523d82523d6000602084013e610463565b606091505b50509050806104b45760405162461bcd60e51b815260206004820152601860248201527f5472616e7366657220746f206f776e6572206661696c65640000000000000000604482015260640161015c565b604051683635c9adc5dea00000815233907f896e034966eaaf1adc54acc0f257056febbd300c9e47182cf761982cf1f5e4309060200160405180910390a2604051683635c9adc5dea000008152339030907fddf252ad1be2c89b69c2b068fc378daa952ba7f163c4a11628f55a4df523b3ef9060200160405180910390a350565b60006001600160a01b03821661054d57506000919050565b50683635c9adc5dea00000919050565b6000826001600160a01b0316336001600160a01b03167fddf252ad1be2c89b69c2b068fc378daa952ba7f163c4a11628f55a4df523b3ef8460405161038e91815260200190565b602081526000825180602084015260005b818110156105d257602081860181015160408684010152016105b5565b506000604082850101526040601f19601f83011684010191505092915050565b80356001600160a01b038116811461060957600080fd5b919050565b6000806040838503121561062157600080fd5b61062a836105f2565b946020939093013593505050565b60006020828403121561064a57600080fd5b610653826105f2565b9392505050565b6000806040838503121561066d57600080fd5b610676836105f2565b9150610684602084016105f2565b9050925092905056fea2646970667358221220cccbb95a379796436a31eb694fadde7f85cf29055fb2658977e8dd9c0e37c0ca64736f6c634300081c0033",
  "linkReferences": {},
  "deployedLinkReferences": {}
}