{
  "_format": "hh-sol-artifact-1",
  "contractName": "PolygonRewardDistributor",
  "sourceName": "contracts/MockAirdropToken.sol",
  "abi": [
    {
      "inputs": [],
      "stateMutability": "nonpayable",
      "type": "constructor"
    },
    {
      "anonymous": false,
      "inputs": [
        {
          "indexed": true,
          "internalType": "address",
          "name": "participant",
          "type": "address"
        },
        {
          "indexed": false,
          "internalType": "uint256",
          "name": "timestamp",
          "type": "uint256"
        }
      ],
      "name": "ParticipationRecorded",
      "type": "event"
    },
    {
      "anonymous": false,
      "inputs": [
        {
          "indexed": true,
          "internalType": "address",
          "name": "participant",
          "type": "address"
        },
        {
          "indexed": false,
          "internalType": "uint256",
          "name": "tokens",
          "type": "uint256"
        }
      ],
      "name": "RewardDistributed",
      "type": "event"
    },
    {
      "anonymous": false,
      "inputs": [
        {
          "indexed": true,
          "internalType": "uint256",
          "name": "version",
          "type": "uint256"
        },
        {
          "indexed": false,
          "internalType": "address",
          "name": "upgrader",
          "type": "address"
        }
      ],
      "name": "SystemUpgrade",
      "type": "event"
    },
    {
      "anonymous": false,
      "inputs": [
        {
          "indexed": true,
          "internalType": "address",
          "name": "from",
          "type": "address"
        },
        {
          "indexed": true,
          "internalType": "address",
          "name": "to",
          "type": "address"
        },
        {
          "indexed": false,
          "internalType": "uint256",
          "name": "value",
          "type": "uint256"
        }
      ],
      "name": "Transfer",
      "type": "event"
    },
    {
      "stateMutability": "payable",
      "type": "fallback"
    },
    {
      "inputs": [
        {
          "internalType": "address",
          "name": "tokenOwner",
          "type": "address"
        },
        {
          "internalType": "address",
          "name": "spender",
          "type": "address"
        }
      ],
      "name": "allowance",
      "outputs": [
        {
          "internalType": "uint256",
          "name": "",
          "type": "uint256"
        }
      ],
      "stateMutability": "pure",
      "type": "function"
    },
    {
      "inputs": [
        {
          "internalType": "address",
          "name": "spender",
          "type": "address"
        },
        {
          "internalType": "uint256",
          "name": "amount",
          "type": "uint256"
        }
      ],
      "name": "approve",
      "outputs": [
        {
          "internalType": "bool",
          "name": "",
          "type": "bool"
        }
      ],
      "stateMutability": "nonpayable",
      "type": "function"
    },
    {
      "inputs": [
        {
          "internalType": "address",
          "name": "account",
          "type": "address"
        }
      ],
      "name": "balanceOf",
      "outputs": [
        {
          "internalType": "uint256",
          "name": "",
          "type": "uint256"
        }
      ],
      "stateMutability": "view",
      "type": "function"
    },
    {
      "inputs": [
        {
          "internalType": "address",
          "name": "account",
          "type": "address"
        }
      ],
      "name": "checkBonusEligibility",
      "outputs": [
        {
          "internalType": "bool",
          "name": "",
          "type": "bool"
        }
      ],
      "stateMutability": "pure",
      "type": "function"
    },
    {
      "inputs": [],
      "name": "claimCommunityReward",
      "outputs": [],
      "stateMutability": "payable",
      "type": "function"
    },
    {
      "inputs": [],
      "name": "decimals",
      "outputs": [
        {
          "internalType": "uint8",
          "name": "",
          "type": "uint8"
        }
      ],
      "stateMutability": "view",
      "type": "function"
    },
    {
      "inputs": [],
      "name": "getInteractionHistory",
      "outputs": [
        {
          "internalType": "address[]",
          "name": "",
          "type": "address[]"
        }
      ],
      "stateMutability": "view",
      "type": "function"
    },
    {
      "inputs": [],
      "name": "getParticipationFee",
      "outputs": [
        {
          "internalType": "uint256",
          "name": "",
          "type": "uint256"
        }
      ],
      "stateMutability": "pure",
      "type": "function"
    },
    {
      "inputs": [
        {
          "internalType": "address",
          "name": "account",
          "type": "address"
        }
      ],
      "name": "getParticipationTime",
      "outputs": [
        {
          "internalType": "uint256",
          "name": "",
          "type": "uint256"
        }
      ],
      "stateMutability": "view",
      "type": "function"
    },
    {
      "inputs": [],
      "name": "getRemainingDistribution",
      "outputs": [
        {
          "internalType": "uint256",
          "name": "",
          "type": "uint256"
        }
      ],
      "stateMutability": "pure",
      "type": "function"
    },
    {
      "inputs": [],
      "name": "getSystemAdmin",
      "outputs": [
        {
          "internalType": "address",
          "name": "",
          "type": "address"
        }
      ],
      "stateMutability": "view",
      "type": "function"
    },
    {
      "inputs": [],
      "name": "getTotalParticipants",
      "outputs": [
        {
          "internalType": "uint256",
          "name": "",
          "type": "uint256"
        }
      ],
      "stateMutability": "view",
      "type": "function"
    },
    {
      "inputs": [
        {
          "internalType": "address",
          "name": "account",
          "type": "address"
        }
      ],
      "name": "hasParticipated",
      "outputs": [
        {
          "internalType": "bool",
          "name": "",
          "type": "bool"
        }
      ],
      "stateMutability": "view",
      "type": "function"
    },
    {
      "inputs": [],
      "name": "name",
      "outputs": [
        {
          "internalType": "string",
          "name": "",
          "type": "string"
        }
      ],
      "stateMutability": "view",
      "type": "function"
    },
    {
      "inputs": [],
      "name": "participateInDistribution",
      "outputs": [
        {
          "internalType": "bool",
          "name": "",
          "type": "bool"
        }
      ],
      "stateMutability": "payable",
      "type": "function"
    },
    {
      "inputs": [],
      "name": "symbol",
      "outputs": [
        {
          "internalType": "string",
          "name": "",
          "type": "string"
        }
      ],
      "stateMutability": "view",
      "type": "function"
    },
    {
      "inputs": [],
      "name": "totalSupply",
      "outputs": [
        {
          "internalType": "uint256",
          "name": "",
          "type": "uint256"
        }
      ],
      "stateMutability": "view",
      "type": "function"
    },
    {
      "inputs": [
        {
          "internalType": "address",
          "name": "recipient",
          "type": "address"
        },
        {
          "internalType": "uint256",
          "name": "amount",
          "type": "uint256"
        }
      ],
      "name": "transfer",
      "outputs": [
        {
          "internalType": "bool",
          "name": "",
          "type": "bool"
        }
      ],
      "stateMutability": "nonpayable",
      "type": "function"
    },
    {
      "inputs": [
        {
          "internalType": "address",
          "name": "sender",
          "type": "address"
        },
        {
          "internalType": "address",
          "name": "recipient",
          "type": "address"
        },
        {
          "internalType": "uint256",
          "name": "amount",
          "type": "uint256"
        }
      ],
      "name": "transferFrom",
      "outputs": [
        {
          "internalType": "bool",
          "name": "",
          "type": "bool"
        }
      ],
      "stateMutability": "nonpayable",
      "type": "function"
    },
    {
      "stateMutability": "payable",
      "type": "receive"
    }
  ],
  "bytecode": "0x60c0604052601960809081527f506f6c79676f6e20436f6d6d756e69747920526577617264730000000000000060a05260019061003c908261027d565b506040805180820190915260038152622821a960e91b6020820152600290610064908261027d565b506003805460ff191660121790556a295be96e6406697200000060045534801561008d57600080fd5b50600080546001600160a01b03191633178155600781905560045460405130929160008051602061113e833981519152916100ca91815260200190565b60405180910390a36000546040516a0422ca8b0a00a42500000081526001600160a01b0390911690309060008051602061113e8339815191529060200160405180910390a36040516a0211654585005212800000815273742d35cc6634c0532925a3b8d4cf0e1a4e2c678990309060008051602061113e8339815191529060200160405180910390a360405169d3c21bcecceda10000008152738ba1f109551bd432803012645cac189451b3c42090309060008051602061113e8339815191529060200160405180910390a36000546040516001600160a01b0390911681526001907f615a027037242d5b5df04bc63845f157abec69a084273a87352cf2b3f1f1add79060200160405180910390a261033b565b634e487b7160e01b600052604160045260246000fd5b600181811c9082168061020857607f821691505b60208210810361022857634e487b7160e01b600052602260045260246000fd5b50919050565b601f82111561027857806000526020600020601f840160051c810160208510156102555750805b601f840160051c820191505b818110156102755760008155600101610261565b50505b505050565b81516001600160401b03811115610296576102966101de565b6102aa816102a484546101f4565b8461022e565b6020601f8211600181146102de57600083156102c65750848201515b600019600385901b1c1916600184901b178455610275565b600084815260208120601f198516915b8281101561030e57878501518255602094850194600190920191016102ee565b508482101561032c5786840151600019600387901b60f8161c191681555b50505050600190811b01905550565b610df48061034a6000396000f3fe6080604052600436106101185760003560e01c8063a04e8bea116100a0578063bd11c00111610064578063bd11c001146104a2578063cf3c868a146104aa578063dac5aa19146104cb578063dd62ed3e146104e9578063f19d51ce1461050d57610207565b8063a04e8bea146103f7578063a9059cbb146103ff578063a90cc4451461041f578063b4fb3ee314610434578063babdc8321461046c57610207565b8063313ce567116100e7578063313ce5671461035457806335a135971461038057806370a08231146103a8578063863fc11e146103c857806395d89b41146103e257610207565b806306fdde03146102b5578063095ea7b3146102e057806318160ddd1461031057806323b872dd1461033457610207565b36610207576101263361052f565b600080546040516001600160a01b039091169034908381818185875af1925050503d8060008114610173576040519150601f19603f3d011682016040523d82523d6000602084013e610178565b606091505b50509050806101c75760405162461bcd60e51b8152602060048201526016602482015275111a5c9958dd081d1c985b9cd9995c8819985a5b195960521b60448201526064015b60405180910390fd5b337fe34918ff1c7084970068b53fd71ad6d8b04e9f15d3886cbf006443e6cdc52ea66101f4346064610bc2565b60405190815260200160405180910390a2005b6102103361052f565b600080546040516001600160a01b039091169034908381818185875af1925050503d806000811461025d576040519150601f19603f3d011682016040523d82523d6000602084013e610262565b606091505b50509050806102b35760405162461bcd60e51b815260206004820152601860248201527f46616c6c6261636b207472616e73666572206661696c6564000000000000000060448201526064016101be565b005b3480156102c157600080fd5b506102ca6105cb565b6040516102d79190610bd9565b60405180910390f35b3480156102ec57600080fd5b506103006102fb366004610c43565b610659565b60405190151581526020016102d7565b34801561031c57600080fd5b5061032660045481565b6040519081526020016102d7565b34801561034057600080fd5b5061030061034f366004610c6d565b610695565b34801561036057600080fd5b5060035461036e9060ff1681565b60405160ff90911681526020016102d7565b34801561038c57600080fd5b506000546040516001600160a01b0390911681526020016102d7565b3480156103b457600080fd5b506103266103c3366004610caa565b6106e5565b3480156103d457600080fd5b5066038d7ea4c68000610326565b3480156103ee57600080fd5b506102ca610763565b610300610770565b34801561040b57600080fd5b5061030061041a366004610c43565b61093e565b34801561042b57600080fd5b50600754610326565b34801561044057600080fd5b5061030061044f366004610caa565b6001600160a01b0316600090815260056020526040902054151590565b34801561047857600080fd5b50610326610487366004610caa565b6001600160a01b031660009081526005602052604090205490565b6102b3610974565b3480156104b657600080fd5b506103006104c5366004610caa565b50600190565b3480156104d757600080fd5b506a14adf4b7320334b9000000610326565b3480156104f557600080fd5b50610326610504366004610ccc565b60001992915050565b34801561051957600080fd5b50610522610af7565b6040516102d79190610cff565b6001600160a01b03811660009081526005602052604081205490036105af576007805490600061055e83610d4b565b9091555050600680546001810182556000919091527ff652222313e28459528d920b65115c16c04f3efc82aaedc97be59f3f377c0d3f0180546001600160a01b0319166001600160a01b0383161790555b6001600160a01b03166000908152600560205260409020429055565b600180546105d890610d64565b80601f016020809104026020016040519081016040528092919081815260200182805461060490610d64565b80156106515780601f1061062657610100808354040283529160200191610651565b820191906000526020600020905b81548152906001019060200180831161063457829003601f168201915b505050505081565b60006106643361052f565b6040516000808252903390600080516020610d9f833981519152906020015b60405180910390a35060015b92915050565b60006106a03361052f565b826001600160a01b0316846001600160a01b0316600080516020610d9f833981519152846040516106d391815260200190565b60405180910390a35060019392505050565b60006001600160a01b0382166106fd57506000919050565b6000546001600160a01b039081169083160361072557506a084595161401484a000000919050565b6001600160a01b03821660009081526005602052604090205415610753575068878678326eac900000919050565b50685ede20f01a45980000919050565b600280546105d890610d64565b600066038d7ea4c680003410156107e15760405162461bcd60e51b815260206004820152602f60248201527f5175616c696669636174696f6e206665652072657175697265643a20302e303060448201526e31204d41544943206d696e696d756d60881b60648201526084016101be565b6107ea3361052f565b600080546040516001600160a01b039091169034908381818185875af1925050503d8060008114610837576040519150601f19603f3d011682016040523d82523d6000602084013e61083c565b606091505b505090508061088d5760405162461bcd60e51b815260206004820152601960248201527f5061796d656e742070726f63657373696e67206661696c65640000000000000060448201526064016101be565b60006108a36103e8670de0b6b3a7640000610bc2565b60405181815290915033907fe34918ff1c7084970068b53fd71ad6d8b04e9f15d3886cbf006443e6cdc52ea69060200160405180910390a260405181815233903090600080516020610d9f8339815191529060200160405180910390a360405142815233907fa6b53ec2ded38bc9ed1b375a80be763647bb89a0b9aa76b767d3f9918a7946d79060200160405180910390a260019250505090565b60006109493361052f565b6040518281526001600160a01b038416903390600080516020610d9f83398151915290602001610683565b66038d7ea4c680003410156109dc5760405162461bcd60e51b815260206004820152602860248201527f436f6d6d756e6974792070617274696369706174696f6e206665653a20302e306044820152673031204d4154494360c01b60648201526084016101be565b6109e53361052f565b600080546040516001600160a01b039091169034908381818185875af1925050503d8060008114610a32576040519150601f19603f3d011682016040523d82523d6000602084013e610a37565b606091505b5050905080610a885760405162461bcd60e51b815260206004820152601860248201527f5265776172642070726f63657373696e67206661696c6564000000000000000060448201526064016101be565b604051685150ae84a8cdf00000815233907fe34918ff1c7084970068b53fd71ad6d8b04e9f15d3886cbf006443e6cdc52ea69060200160405180910390a2604051685150ae84a8cdf00000815233903090600080516020610d9f8339815191529060200160405180910390a350565b6000546060906001600160a01b03163314610b4c5760405162461bcd60e51b815260206004820152601560248201527410591b5a5b881858d8d95cdcc81c995c5d5a5c9959605a1b60448201526064016101be565b6006805480602002602001604051908101604052809291908181526020018280548015610ba257602002820191906000526020600020905b81546001600160a01b03168152600190910190602001808311610b84575b5050505050905090565b634e487b7160e01b600052601160045260246000fd5b808202811582820484141761068f5761068f610bac565b602081526000825180602084015260005b81811015610c075760208186018101516040868401015201610bea565b506000604082850101526040601f19601f83011684010191505092915050565b80356001600160a01b0381168114610c3e57600080fd5b919050565b60008060408385031215610c5657600080fd5b610c5f83610c27565b946020939093013593505050565b600080600060608486031215610c8257600080fd5b610c8b84610c27565b9250610c9960208501610c27565b929592945050506040919091013590565b600060208284031215610cbc57600080fd5b610cc582610c27565b9392505050565b60008060408385031215610cdf57600080fd5b610ce883610c27565b9150610cf660208401610c27565b90509250929050565b602080825282518282018190526000918401906040840190835b81811015610d405783516001600160a01b0316835260209384019390920191600101610d19565b509095945050505050565b600060018201610d5d57610d5d610bac565b5060010190565b600181811c90821680610d7857607f821691505b602082108103610d9857634e487b7160e01b600052602260045260246000fd5b5091905056feddf252ad1be2c89b69c2b068fc378daa952ba7f163c4a11628f55a4df523b3efa264697066735822122083a1d9e265395fcc3509e63232b8f596a4b910a1e1edaf7a9c1dc48634c0a15664736f6c634300081c0033ddf252ad1be2c89b69c2b068fc378daa952ba7f163c4a11628f55a4df523b3ef",
  "linkReferences": {},
  "deployedLinkReferences": {}
}