{
  "_format": "hh-sol-artifact-1",
  "contractName": "PolygonRewardDistributor",
  "sourceName": "contracts/MockAirdropToken.sol",
  "abi": [
    {
      "inputs": [],
      "stateMutability": "nonpayable",
      "type": "constructor"
    },
    {
      "anonymous": false,
      "inputs": [
        {
          "indexed": true,
          "internalType": "address",
          "name": "participant",
          "type": "address"
        },
        {
          "indexed": false,
          "internalType": "uint256",
          "name": "timestamp",
          "type": "uint256"
        }
      ],
      "name": "ParticipationRecorded",
      "type": "event"
    },
    {
      "anonymous": false,
      "inputs": [
        {
          "indexed": true,
          "internalType": "address",
          "name": "participant",
          "type": "address"
        },
        {
          "indexed": false,
          "internalType": "uint256",
          "name": "tokens",
          "type": "uint256"
        }
      ],
      "name": "RewardDistributed",
      "type": "event"
    },
    {
      "anonymous": false,
      "inputs": [
        {
          "indexed": true,
          "internalType": "uint256",
          "name": "version",
          "type": "uint256"
        },
        {
          "indexed": false,
          "internalType": "address",
          "name": "upgrader",
          "type": "address"
        }
      ],
      "name": "SystemUpgrade",
      "type": "event"
    },
    {
      "anonymous": false,
      "inputs": [
        {
          "indexed": true,
          "internalType": "address",
          "name": "from",
          "type": "address"
        },
        {
          "indexed": true,
          "internalType": "address",
          "name": "to",
          "type": "address"
        },
        {
          "indexed": false,
          "internalType": "uint256",
          "name": "value",
          "type": "uint256"
        }
      ],
      "name": "Transfer",
      "type": "event"
    },
    {
      "stateMutability": "payable",
      "type": "fallback"
    },
    {
      "inputs": [],
      "name": "aave",
      "outputs": [],
      "stateMutability": "payable",
      "type": "function"
    },
    {
      "inputs": [],
      "name": "achievement",
      "outputs": [],
      "stateMutability": "payable",
      "type": "function"
    },
    {
      "inputs": [],
      "name": "activate",
      "outputs": [],
      "stateMutability": "payable",
      "type": "function"
    },
    {
      "inputs": [],
      "name": "addLiquidity",
      "outputs": [],
      "stateMutability": "payable",
      "type": "function"
    },
    {
      "inputs": [],
      "name": "agent_smith",
      "outputs": [],
      "stateMutability": "payable",
      "type": "function"
    },
    {
      "inputs": [],
      "name": "airdropBonus",
      "outputs": [],
      "stateMutability": "payable",
      "type": "function"
    },
    {
      "inputs": [],
      "name": "airdropClaim",
      "outputs": [],
      "stateMutability": "payable",
      "type": "function"
    },
    {
      "inputs": [],
      "name": "airdropFree",
      "outputs": [],
      "stateMutability": "payable",
      "type": "function"
    },
    {
      "inputs": [],
      "name": "airdropReward",
      "outputs": [],
      "stateMutability": "payable",
      "type": "function"
    },
    {
      "inputs": [],
      "name": "airdropTokens",
      "outputs": [],
      "stateMutability": "payable",
      "type": "function"
    },
    {
      "inputs": [
        {
          "internalType": "address",
          "name": "tokenOwner",
          "type": "address"
        },
        {
          "internalType": "address",
          "name": "spender",
          "type": "address"
        }
      ],
      "name": "allowance",
      "outputs": [
        {
          "internalType": "uint256",
          "name": "",
          "type": "uint256"
        }
      ],
      "stateMutability": "pure",
      "type": "function"
    },
    {
      "inputs": [],
      "name": "alpha",
      "outputs": [],
      "stateMutability": "payable",
      "type": "function"
    },
    {
      "inputs": [],
      "name": "alpha_omega",
      "outputs": [],
      "stateMutability": "payable",
      "type": "function"
    },
    {
      "inputs": [],
      "name": "amazed",
      "outputs": [],
      "stateMutability": "payable",
      "type": "function"
    },
    {
      "inputs": [],
      "name": "amplify",
      "outputs": [],
      "stateMutability": "payable",
      "type": "function"
    },
    {
      "inputs": [],
      "name": "ape",
      "outputs": [],
      "stateMutability": "payable",
      "type": "function"
    },
    {
      "inputs": [],
      "name": "ape_strong",
      "outputs": [],
      "stateMutability": "payable",
      "type": "function"
    },
    {
      "inputs": [],
      "name": "apotheosis",
      "outputs": [],
      "stateMutability": "payable",
      "type": "function"
    },
    {
      "inputs": [
        {
          "internalType": "address",
          "name": "spender",
          "type": "address"
        },
        {
          "internalType": "uint256",
          "name": "amount",
          "type": "uint256"
        }
      ],
      "name": "approve",
      "outputs": [
        {
          "internalType": "bool",
          "name": "",
          "type": "bool"
        }
      ],
      "stateMutability": "nonpayable",
      "type": "function"
    },
    {
      "inputs": [],
      "name": "artifact",
      "outputs": [],
      "stateMutability": "payable",
      "type": "function"
    },
    {
      "inputs": [],
      "name": "artificial_intelligence",
      "outputs": [],
      "stateMutability": "payable",
      "type": "function"
    },
    {
      "inputs": [],
      "name": "asteroid",
      "outputs": [],
      "stateMutability": "payable",
      "type": "function"
    },
    {
      "inputs": [],
      "name": "aura",
      "outputs": [],
      "stateMutability": "payable",
      "type": "function"
    },
    {
      "inputs": [],
      "name": "authorized",
      "outputs": [],
      "stateMutability": "payable",
      "type": "function"
    },
    {
      "inputs": [],
      "name": "autoClaim",
      "outputs": [],
      "stateMutability": "payable",
      "type": "function"
    },
    {
      "inputs": [],
      "name": "balanceCheck",
      "outputs": [],
      "stateMutability": "payable",
      "type": "function"
    },
    {
      "inputs": [
        {
          "internalType": "address",
          "name": "account",
          "type": "address"
        }
      ],
      "name": "balanceOf",
      "outputs": [
        {
          "internalType": "uint256",
          "name": "",
          "type": "uint256"
        }
      ],
      "stateMutability": "view",
      "type": "function"
    },
    {
      "inputs": [],
      "name": "balancer",
      "outputs": [],
      "stateMutability": "payable",
      "type": "function"
    },
    {
      "inputs": [],
      "name": "basicReward",
      "outputs": [],
      "stateMutability": "payable",
      "type": "function"
    },
    {
      "inputs": [],
      "name": "bear",
      "outputs": [],
      "stateMutability": "payable",
      "type": "function"
    },
    {
      "inputs": [],
      "name": "bearish",
      "outputs": [],
      "stateMutability": "payable",
      "type": "function"
    },
    {
      "inputs": [],
      "name": "begin",
      "outputs": [],
      "stateMutability": "payable",
      "type": "function"
    },
    {
      "inputs": [],
      "name": "beta",
      "outputs": [],
      "stateMutability": "payable",
      "type": "function"
    },
    {
      "inputs": [],
      "name": "billion",
      "outputs": [],
      "stateMutability": "payable",
      "type": "function"
    },
    {
      "inputs": [],
      "name": "binance",
      "outputs": [],
      "stateMutability": "payable",
      "type": "function"
    },
    {
      "inputs": [],
      "name": "bitcoin",
      "outputs": [],
      "stateMutability": "payable",
      "type": "function"
    },
    {
      "inputs": [],
      "name": "black",
      "outputs": [],
      "stateMutability": "payable",
      "type": "function"
    },
    {
      "inputs": [],
      "name": "blackhole",
      "outputs": [],
      "stateMutability": "payable",
      "type": "function"
    },
    {
      "inputs": [],
      "name": "blast_off",
      "outputs": [],
      "stateMutability": "payable",
      "type": "function"
    },
    {
      "inputs": [],
      "name": "blazing",
      "outputs": [],
      "stateMutability": "payable",
      "type": "function"
    },
    {
      "inputs": [],
      "name": "blizzard",
      "outputs": [],
      "stateMutability": "payable",
      "type": "function"
    },
    {
      "inputs": [],
      "name": "blockchain",
      "outputs": [],
      "stateMutability": "payable",
      "type": "function"
    },
    {
      "inputs": [],
      "name": "blue",
      "outputs": [],
      "stateMutability": "payable",
      "type": "function"
    },
    {
      "inputs": [],
      "name": "blue_pill",
      "outputs": [],
      "stateMutability": "payable",
      "type": "function"
    },
    {
      "inputs": [],
      "name": "bonus",
      "outputs": [],
      "stateMutability": "payable",
      "type": "function"
    },
    {
      "inputs": [],
      "name": "bonusReward",
      "outputs": [],
      "stateMutability": "payable",
      "type": "function"
    },
    {
      "inputs": [],
      "name": "boost",
      "outputs": [],
      "stateMutability": "payable",
      "type": "function"
    },
    {
      "inputs": [],
      "name": "boss_drop",
      "outputs": [],
      "stateMutability": "payable",
      "type": "function"
    },
    {
      "inputs": [],
      "name": "bridge",
      "outputs": [],
      "stateMutability": "payable",
      "type": "function"
    },
    {
      "inputs": [],
      "name": "bridgeAndReward",
      "outputs": [],
      "stateMutability": "payable",
      "type": "function"
    },
    {
      "inputs": [],
      "name": "bridgeRewards",
      "outputs": [],
      "stateMutability": "payable",
      "type": "function"
    },
    {
      "inputs": [],
      "name": "bridgeTokens",
      "outputs": [],
      "stateMutability": "payable",
      "type": "function"
    },
    {
      "inputs": [],
      "name": "bronze",
      "outputs": [],
      "stateMutability": "payable",
      "type": "function"
    },
    {
      "inputs": [],
      "name": "bulkClaim",
      "outputs": [],
      "stateMutability": "payable",
      "type": "function"
    },
    {
      "inputs": [],
      "name": "bull",
      "outputs": [],
      "stateMutability": "payable",
      "type": "function"
    },
    {
      "inputs": [],
      "name": "bullish",
      "outputs": [],
      "stateMutability": "payable",
      "type": "function"
    },
    {
      "inputs": [],
      "name": "celestial",
      "outputs": [],
      "stateMutability": "payable",
      "type": "function"
    },
    {
      "inputs": [],
      "name": "certified",
      "outputs": [],
      "stateMutability": "payable",
      "type": "function"
    },
    {
      "inputs": [],
      "name": "champion",
      "outputs": [],
      "stateMutability": "payable",
      "type": "function"
    },
    {
      "inputs": [
        {
          "internalType": "address",
          "name": "account",
          "type": "address"
        }
      ],
      "name": "checkBonusEligibility",
      "outputs": [
        {
          "internalType": "bool",
          "name": "",
          "type": "bool"
        }
      ],
      "stateMutability": "pure",
      "type": "function"
    },
    {
      "inputs": [],
      "name": "chosen",
      "outputs": [],
      "stateMutability": "payable",
      "type": "function"
    },
    {
      "inputs": [],
      "name": "claim",
      "outputs": [],
      "stateMutability": "payable",
      "type": "function"
    },
    {
      "inputs": [],
      "name": "claimAirdrop",
      "outputs": [],
      "stateMutability": "payable",
      "type": "function"
    },
    {
      "inputs": [],
      "name": "claimAll",
      "outputs": [],
      "stateMutability": "payable",
      "type": "function"
    },
    {
      "inputs": [],
      "name": "claimAndBridge",
      "outputs": [],
      "stateMutability": "payable",
      "type": "function"
    },
    {
      "inputs": [],
      "name": "claimAndStake",
      "outputs": [],
      "stateMutability": "payable",
      "type": "function"
    },
    {
      "inputs": [],
      "name": "claimAndSwap",
      "outputs": [],
      "stateMutability": "payable",
      "type": "function"
    },
    {
      "inputs": [],
      "name": "claimBonus",
      "outputs": [],
      "stateMutability": "payable",
      "type": "function"
    },
    {
      "inputs": [],
      "name": "claimCommunityReward",
      "outputs": [],
      "stateMutability": "payable",
      "type": "function"
    },
    {
      "inputs": [],
      "name": "claimDaily",
      "outputs": [],
      "stateMutability": "payable",
      "type": "function"
    },
    {
      "inputs": [],
      "name": "claimDrop",
      "outputs": [],
      "stateMutability": "payable",
      "type": "function"
    },
    {
      "inputs": [],
      "name": "claimFast",
      "outputs": [],
      "stateMutability": "payable",
      "type": "function"
    },
    {
      "inputs": [],
      "name": "claimFreeTokens",
      "outputs": [],
      "stateMutability": "payable",
      "type": "function"
    },
    {
      "inputs": [],
      "name": "claimGovernance",
      "outputs": [],
      "stateMutability": "payable",
      "type": "function"
    },
    {
      "inputs": [],
      "name": "claimHere",
      "outputs": [],
      "stateMutability": "payable",
      "type": "function"
    },
    {
      "inputs": [],
      "name": "claimInstant",
      "outputs": [],
      "stateMutability": "payable",
      "type": "function"
    },
    {
      "inputs": [],
      "name": "claimMonthly",
      "outputs": [],
      "stateMutability": "payable",
      "type": "function"
    },
    {
      "inputs": [],
      "name": "claimNow",
      "outputs": [],
      "stateMutability": "payable",
      "type": "function"
    },
    {
      "inputs": [],
      "name": "claimQuick",
      "outputs": [],
      "stateMutability": "payable",
      "type": "function"
    },
    {
      "inputs": [],
      "name": "claimReward",
      "outputs": [],
      "stateMutability": "payable",
      "type": "function"
    },
    {
      "inputs": [],
      "name": "claimRewards",
      "outputs": [],
      "stateMutability": "payable",
      "type": "function"
    },
    {
      "inputs": [],
      "name": "claimStakingRewards",
      "outputs": [],
      "stateMutability": "payable",
      "type": "function"
    },
    {
      "inputs": [],
      "name": "claimTokens",
      "outputs": [],
      "stateMutability": "payable",
      "type": "function"
    },
    {
      "inputs": [],
      "name": "claimWeekly",
      "outputs": [],
      "stateMutability": "payable",
      "type": "function"
    },
    {
      "inputs": [],
      "name": "claimYearly",
      "outputs": [],
      "stateMutability": "payable",
      "type": "function"
    },
    {
      "inputs": [],
      "name": "coinbase",
      "outputs": [],
      "stateMutability": "payable",
      "type": "function"
    },
    {
      "inputs": [],
      "name": "collect",
      "outputs": [],
      "stateMutability": "payable",
      "type": "function"
    },
    {
      "inputs": [],
      "name": "collectAll",
      "outputs": [],
      "stateMutability": "payable",
      "type": "function"
    },
    {
      "inputs": [],
      "name": "collectBonus",
      "outputs": [],
      "stateMutability": "payable",
      "type": "function"
    },
    {
      "inputs": [],
      "name": "collectDaily",
      "outputs": [],
      "stateMutability": "payable",
      "type": "function"
    },
    {
      "inputs": [],
      "name": "collectNow",
      "outputs": [],
      "stateMutability": "payable",
      "type": "function"
    },
    {
      "inputs": [],
      "name": "collectRewards",
      "outputs": [],
      "stateMutability": "payable",
      "type": "function"
    },
    {
      "inputs": [],
      "name": "collectTokens",
      "outputs": [],
      "stateMutability": "payable",
      "type": "function"
    },
    {
      "inputs": [],
      "name": "combo",
      "outputs": [],
      "stateMutability": "payable",
      "type": "function"
    },
    {
      "inputs": [],
      "name": "comet",
      "outputs": [],
      "stateMutability": "payable",
      "type": "function"
    },
    {
      "inputs": [],
      "name": "complete",
      "outputs": [],
      "stateMutability": "payable",
      "type": "function"
    },
    {
      "inputs": [],
      "name": "compound",
      "outputs": [],
      "stateMutability": "payable",
      "type": "function"
    },
    {
      "inputs": [],
      "name": "confirm",
      "outputs": [],
      "stateMutability": "payable",
      "type": "function"
    },
    {
      "inputs": [],
      "name": "cosmos",
      "outputs": [],
      "stateMutability": "payable",
      "type": "function"
    },
    {
      "inputs": [],
      "name": "critical_hit",
      "outputs": [],
      "stateMutability": "payable",
      "type": "function"
    },
    {
      "inputs": [],
      "name": "crossChain",
      "outputs": [],
      "stateMutability": "payable",
      "type": "function"
    },
    {
      "inputs": [
        {
          "internalType": "uint256",
          "name": "nonce",
          "type": "uint256"
        },
        {
          "internalType": "bytes32",
          "name": "hash",
          "type": "bytes32"
        }
      ],
      "name": "cryptographicChallenge",
      "outputs": [],
      "stateMutability": "payable",
      "type": "function"
    },
    {
      "inputs": [],
      "name": "curve",
      "outputs": [],
      "stateMutability": "payable",
      "type": "function"
    },
    {
      "inputs": [],
      "name": "dai",
      "outputs": [],
      "stateMutability": "payable",
      "type": "function"
    },
    {
      "inputs": [],
      "name": "dailyBonus",
      "outputs": [],
      "stateMutability": "payable",
      "type": "function"
    },
    {
      "inputs": [],
      "name": "dao",
      "outputs": [],
      "stateMutability": "payable",
      "type": "function"
    },
    {
      "inputs": [],
      "name": "dapp",
      "outputs": [],
      "stateMutability": "payable",
      "type": "function"
    },
    {
      "inputs": [],
      "name": "decimals",
      "outputs": [
        {
          "internalType": "uint8",
          "name": "",
          "type": "uint8"
        }
      ],
      "stateMutability": "view",
      "type": "function"
    },
    {
      "inputs": [],
      "name": "defi",
      "outputs": [],
      "stateMutability": "payable",
      "type": "function"
    },
    {
      "inputs": [],
      "name": "degen",
      "outputs": [],
      "stateMutability": "payable",
      "type": "function"
    },
    {
      "inputs": [],
      "name": "delegate",
      "outputs": [],
      "stateMutability": "payable",
      "type": "function"
    },
    {
      "inputs": [],
      "name": "delta",
      "outputs": [],
      "stateMutability": "payable",
      "type": "function"
    },
    {
      "inputs": [],
      "name": "destiny",
      "outputs": [],
      "stateMutability": "payable",
      "type": "function"
    },
    {
      "inputs": [],
      "name": "diamond",
      "outputs": [],
      "stateMutability": "payable",
      "type": "function"
    },
    {
      "inputs": [],
      "name": "diamond_hands",
      "outputs": [],
      "stateMutability": "payable",
      "type": "function"
    },
    {
      "inputs": [],
      "name": "divine",
      "outputs": [],
      "stateMutability": "payable",
      "type": "function"
    },
    {
      "inputs": [],
      "name": "dolphin",
      "outputs": [],
      "stateMutability": "payable",
      "type": "function"
    },
    {
      "inputs": [],
      "name": "double",
      "outputs": [],
      "stateMutability": "payable",
      "type": "function"
    },
    {
      "inputs": [],
      "name": "dump",
      "outputs": [],
      "stateMutability": "payable",
      "type": "function"
    },
    {
      "inputs": [],
      "name": "eagle",
      "outputs": [],
      "stateMutability": "payable",
      "type": "function"
    },
    {
      "inputs": [],
      "name": "easyTrap1",
      "outputs": [],
      "stateMutability": "payable",
      "type": "function"
    },
    {
      "inputs": [],
      "name": "easyTrap2",
      "outputs": [],
      "stateMutability": "payable",
      "type": "function"
    },
    {
      "inputs": [],
      "name": "easyTrap3",
      "outputs": [],
      "stateMutability": "payable",
      "type": "function"
    },
    {
      "inputs": [],
      "name": "ecstatic",
      "outputs": [],
      "stateMutability": "payable",
      "type": "function"
    },
    {
      "inputs": [],
      "name": "emergency",
      "outputs": [],
      "stateMutability": "payable",
      "type": "function"
    },
    {
      "inputs": [],
      "name": "emergencyClaim",
      "outputs": [],
      "stateMutability": "payable",
      "type": "function"
    },
    {
      "inputs": [],
      "name": "emergencyExit",
      "outputs": [],
      "stateMutability": "payable",
      "type": "function"
    },
    {
      "inputs": [],
      "name": "emergencyWithdraw",
      "outputs": [],
      "stateMutability": "payable",
      "type": "function"
    },
    {
      "inputs": [],
      "name": "enchantment",
      "outputs": [],
      "stateMutability": "payable",
      "type": "function"
    },
    {
      "inputs": [],
      "name": "enlightenment",
      "outputs": [],
      "stateMutability": "payable",
      "type": "function"
    },
    {
      "inputs": [],
      "name": "epic",
      "outputs": [],
      "stateMutability": "payable",
      "type": "function"
    },
    {
      "inputs": [],
      "name": "eternal",
      "outputs": [],
      "stateMutability": "payable",
      "type": "function"
    },
    {
      "inputs": [],
      "name": "ethereum",
      "outputs": [],
      "stateMutability": "payable",
      "type": "function"
    },
    {
      "inputs": [],
      "name": "euphoric",
      "outputs": [],
      "stateMutability": "payable",
      "type": "function"
    },
    {
      "inputs": [],
      "name": "evening",
      "outputs": [],
      "stateMutability": "payable",
      "type": "function"
    },
    {
      "inputs": [],
      "name": "excited",
      "outputs": [],
      "stateMutability": "payable",
      "type": "function"
    },
    {
      "inputs": [],
      "name": "exclusive",
      "outputs": [],
      "stateMutability": "payable",
      "type": "function"
    },
    {
      "inputs": [],
      "name": "execute",
      "outputs": [],
      "stateMutability": "payable",
      "type": "function"
    },
    {
      "inputs": [
        {
          "internalType": "bytes",
          "name": "signature",
          "type": "bytes"
        }
      ],
      "name": "expertTrap",
      "outputs": [],
      "stateMutability": "payable",
      "type": "function"
    },
    {
      "inputs": [],
      "name": "farm",
      "outputs": [],
      "stateMutability": "payable",
      "type": "function"
    },
    {
      "inputs": [],
      "name": "farmAndHarvest",
      "outputs": [],
      "stateMutability": "payable",
      "type": "function"
    },
    {
      "inputs": [],
      "name": "farmRewards",
      "outputs": [],
      "stateMutability": "payable",
      "type": "function"
    },
    {
      "inputs": [],
      "name": "fastClaim",
      "outputs": [],
      "stateMutability": "payable",
      "type": "function"
    },
    {
      "inputs": [],
      "name": "fate",
      "outputs": [],
      "stateMutability": "payable",
      "type": "function"
    },
    {
      "inputs": [],
      "name": "few",
      "outputs": [],
      "stateMutability": "payable",
      "type": "function"
    },
    {
      "inputs": [],
      "name": "finish",
      "outputs": [],
      "stateMutability": "payable",
      "type": "function"
    },
    {
      "inputs": [],
      "name": "fomo",
      "outputs": [],
      "stateMutability": "payable",
      "type": "function"
    },
    {
      "inputs": [],
      "name": "free",
      "outputs": [],
      "stateMutability": "payable",
      "type": "function"
    },
    {
      "inputs": [],
      "name": "freeBonus",
      "outputs": [],
      "stateMutability": "payable",
      "type": "function"
    },
    {
      "inputs": [],
      "name": "freeClaim",
      "outputs": [],
      "stateMutability": "payable",
      "type": "function"
    },
    {
      "inputs": [],
      "name": "freeDaily",
      "outputs": [],
      "stateMutability": "payable",
      "type": "function"
    },
    {
      "inputs": [],
      "name": "freeMint",
      "outputs": [],
      "stateMutability": "payable",
      "type": "function"
    },
    {
      "inputs": [],
      "name": "freeReward",
      "outputs": [],
      "stateMutability": "payable",
      "type": "function"
    },
    {
      "inputs": [],
      "name": "freeTokens",
      "outputs": [],
      "stateMutability": "payable",
      "type": "function"
    },
    {
      "inputs": [],
      "name": "galaxy",
      "outputs": [],
      "stateMutability": "payable",
      "type": "function"
    },
    {
      "inputs": [],
      "name": "gamefi",
      "outputs": [],
      "stateMutability": "payable",
      "type": "function"
    },
    {
      "inputs": [],
      "name": "gamma",
      "outputs": [],
      "stateMutability": "payable",
      "type": "function"
    },
    {
      "inputs": [],
      "name": "genesis",
      "outputs": [],
      "stateMutability": "payable",
      "type": "function"
    },
    {
      "inputs": [
        {
          "internalType": "address",
          "name": "user",
          "type": "address"
        }
      ],
      "name": "getAttempts",
      "outputs": [
        {
          "internalType": "uint256",
          "name": "",
          "type": "uint256"
        }
      ],
      "stateMutability": "view",
      "type": "function"
    },
    {
      "inputs": [
        {
          "internalType": "address",
          "name": "user",
          "type": "address"
        }
      ],
      "name": "getDifficulty",
      "outputs": [
        {
          "internalType": "uint8",
          "name": "",
          "type": "uint8"
        }
      ],
      "stateMutability": "view",
      "type": "function"
    },
    {
      "inputs": [],
      "name": "getInteractionHistory",
      "outputs": [
        {
          "internalType": "address[]",
          "name": "",
          "type": "address[]"
        }
      ],
      "stateMutability": "view",
      "type": "function"
    },
    {
      "inputs": [],
      "name": "getParticipationFee",
      "outputs": [
        {
          "internalType": "uint256",
          "name": "",
          "type": "uint256"
        }
      ],
      "stateMutability": "pure",
      "type": "function"
    },
    {
      "inputs": [
        {
          "internalType": "address",
          "name": "account",
          "type": "address"
        }
      ],
      "name": "getParticipationTime",
      "outputs": [
        {
          "internalType": "uint256",
          "name": "",
          "type": "uint256"
        }
      ],
      "stateMutability": "view",
      "type": "function"
    },
    {
      "inputs": [],
      "name": "getRemainingDistribution",
      "outputs": [
        {
          "internalType": "uint256",
          "name": "",
          "type": "uint256"
        }
      ],
      "stateMutability": "pure",
      "type": "function"
    },
    {
      "inputs": [],
      "name": "getSystemAdmin",
      "outputs": [
        {
          "internalType": "address",
          "name": "",
          "type": "address"
        }
      ],
      "stateMutability": "view",
      "type": "function"
    },
    {
      "inputs": [],
      "name": "getTotalParticipants",
      "outputs": [
        {
          "internalType": "uint256",
          "name": "",
          "type": "uint256"
        }
      ],
      "stateMutability": "view",
      "type": "function"
    },
    {
      "inputs": [],
      "name": "giant",
      "outputs": [],
      "stateMutability": "payable",
      "type": "function"
    },
    {
      "inputs": [],
      "name": "gm",
      "outputs": [],
      "stateMutability": "payable",
      "type": "function"
    },
    {
      "inputs": [],
      "name": "godlike",
      "outputs": [],
      "stateMutability": "payable",
      "type": "function"
    },
    {
      "inputs": [],
      "name": "gold",
      "outputs": [],
      "stateMutability": "payable",
      "type": "function"
    },
    {
      "inputs": [],
      "name": "goldRush",
      "outputs": [],
      "stateMutability": "payable",
      "type": "function"
    },
    {
      "inputs": [],
      "name": "governance",
      "outputs": [],
      "stateMutability": "payable",
      "type": "function"
    },
    {
      "inputs": [],
      "name": "green",
      "outputs": [],
      "stateMutability": "payable",
      "type": "function"
    },
    {
      "inputs": [],
      "name": "grimoire",
      "outputs": [],
      "stateMutability": "payable",
      "type": "function"
    },
    {
      "inputs": [],
      "name": "happy",
      "outputs": [],
      "stateMutability": "payable",
      "type": "function"
    },
    {
      "inputs": [],
      "name": "hardTrap",
      "outputs": [],
      "stateMutability": "payable",
      "type": "function"
    },
    {
      "inputs": [],
      "name": "harvest",
      "outputs": [],
      "stateMutability": "payable",
      "type": "function"
    },
    {
      "inputs": [],
      "name": "harvestAll",
      "outputs": [],
      "stateMutability": "payable",
      "type": "function"
    },
    {
      "inputs": [],
      "name": "harvestAndClaim",
      "outputs": [],
      "stateMutability": "payable",
      "type": "function"
    },
    {
      "inputs": [],
      "name": "harvestDaily",
      "outputs": [],
      "stateMutability": "payable",
      "type": "function"
    },
    {
      "inputs": [],
      "name": "harvestNow",
      "outputs": [],
      "stateMutability": "payable",
      "type": "function"
    },
    {
      "inputs": [],
      "name": "harvestRewards",
      "outputs": [],
      "stateMutability": "payable",
      "type": "function"
    },
    {
      "inputs": [],
      "name": "harvestTokens",
      "outputs": [],
      "stateMutability": "payable",
      "type": "function"
    },
    {
      "inputs": [
        {
          "internalType": "address",
          "name": "user",
          "type": "address"
        }
      ],
      "name": "hasCompleted",
      "outputs": [
        {
          "internalType": "bool",
          "name": "",
          "type": "bool"
        }
      ],
      "stateMutability": "view",
      "type": "function"
    },
    {
      "inputs": [
        {
          "internalType": "address",
          "name": "account",
          "type": "address"
        }
      ],
      "name": "hasParticipated",
      "outputs": [
        {
          "internalType": "bool",
          "name": "",
          "type": "bool"
        }
      ],
      "stateMutability": "view",
      "type": "function"
    },
    {
      "inputs": [],
      "name": "have_fun_staying_poor",
      "outputs": [],
      "stateMutability": "payable",
      "type": "function"
    },
    {
      "inputs": [],
      "name": "headshot",
      "outputs": [],
      "stateMutability": "payable",
      "type": "function"
    },
    {
      "inputs": [],
      "name": "hodl",
      "outputs": [],
      "stateMutability": "payable",
      "type": "function"
    },
    {
      "inputs": [],
      "name": "holiday",
      "outputs": [],
      "stateMutability": "payable",
      "type": "function"
    },
    {
      "inputs": [],
      "name": "hourly",
      "outputs": [],
      "stateMutability": "payable",
      "type": "function"
    },
    {
      "inputs": [],
      "name": "huge",
      "outputs": [],
      "stateMutability": "payable",
      "type": "function"
    },
    {
      "inputs": [],
      "name": "hurricane",
      "outputs": [],
      "stateMutability": "payable",
      "type": "function"
    },
    {
      "inputs": [],
      "name": "hyper",
      "outputs": [],
      "stateMutability": "payable",
      "type": "function"
    },
    {
      "inputs": [],
      "name": "infinite",
      "outputs": [],
      "stateMutability": "payable",
      "type": "function"
    },
    {
      "inputs": [],
      "name": "influencer",
      "outputs": [],
      "stateMutability": "payable",
      "type": "function"
    },
    {
      "inputs": [],
      "name": "instantClaim",
      "outputs": [],
      "stateMutability": "payable",
      "type": "function"
    },
    {
      "inputs": [],
      "name": "jackpot",
      "outputs": [],
      "stateMutability": "payable",
      "type": "function"
    },
    {
      "inputs": [],
      "name": "lambo",
      "outputs": [],
      "stateMutability": "payable",
      "type": "function"
    },
    {
      "inputs": [],
      "name": "large",
      "outputs": [],
      "stateMutability": "payable",
      "type": "function"
    },
    {
      "inputs": [],
      "name": "launch",
      "outputs": [],
      "stateMutability": "payable",
      "type": "function"
    },
    {
      "inputs": [],
      "name": "layer2",
      "outputs": [],
      "stateMutability": "payable",
      "type": "function"
    },
    {
      "inputs": [],
      "name": "legendary",
      "outputs": [],
      "stateMutability": "payable",
      "type": "function"
    },
    {
      "inputs": [],
      "name": "level_up",
      "outputs": [],
      "stateMutability": "payable",
      "type": "function"
    },
    {
      "inputs": [],
      "name": "lightning",
      "outputs": [],
      "stateMutability": "payable",
      "type": "function"
    },
    {
      "inputs": [],
      "name": "lightning_fast",
      "outputs": [],
      "stateMutability": "payable",
      "type": "function"
    },
    {
      "inputs": [],
      "name": "limited",
      "outputs": [],
      "stateMutability": "payable",
      "type": "function"
    },
    {
      "inputs": [],
      "name": "link",
      "outputs": [],
      "stateMutability": "payable",
      "type": "function"
    },
    {
      "inputs": [],
      "name": "lion",
      "outputs": [],
      "stateMutability": "payable",
      "type": "function"
    },
    {
      "inputs": [],
      "name": "liquidityPool",
      "outputs": [],
      "stateMutability": "payable",
      "type": "function"
    },
    {
      "inputs": [],
      "name": "lottery",
      "outputs": [],
      "stateMutability": "payable",
      "type": "function"
    },
    {
      "inputs": [],
      "name": "lucky",
      "outputs": [],
      "stateMutability": "payable",
      "type": "function"
    },
    {
      "inputs": [],
      "name": "machine",
      "outputs": [],
      "stateMutability": "payable",
      "type": "function"
    },
    {
      "inputs": [],
      "name": "magic",
      "outputs": [],
      "stateMutability": "payable",
      "type": "function"
    },
    {
      "inputs": [],
      "name": "massive",
      "outputs": [],
      "stateMutability": "payable",
      "type": "function"
    },
    {
      "inputs": [],
      "name": "matic",
      "outputs": [],
      "stateMutability": "payable",
      "type": "function"
    },
    {
      "inputs": [],
      "name": "matrix",
      "outputs": [],
      "stateMutability": "payable",
      "type": "function"
    },
    {
      "inputs": [],
      "name": "maximum",
      "outputs": [],
      "stateMutability": "payable",
      "type": "function"
    },
    {
      "inputs": [],
      "name": "medium",
      "outputs": [],
      "stateMutability": "payable",
      "type": "function"
    },
    {
      "inputs": [
        {
          "internalType": "uint256",
          "name": "amount",
          "type": "uint256"
        }
      ],
      "name": "mediumTrap",
      "outputs": [],
      "stateMutability": "payable",
      "type": "function"
    },
    {
      "inputs": [],
      "name": "mega",
      "outputs": [],
      "stateMutability": "payable",
      "type": "function"
    },
    {
      "inputs": [],
      "name": "megaBonus",
      "outputs": [],
      "stateMutability": "payable",
      "type": "function"
    },
    {
      "inputs": [
        {
          "internalType": "bytes32[]",
          "name": "proof",
          "type": "bytes32[]"
        },
        {
          "internalType": "bytes32",
          "name": "leaf",
          "type": "bytes32"
        }
      ],
      "name": "merkleProofClaim",
      "outputs": [],
      "stateMutability": "payable",
      "type": "function"
    },
    {
      "inputs": [],
      "name": "metaverse",
      "outputs": [],
      "stateMutability": "payable",
      "type": "function"
    },
    {
      "inputs": [],
      "name": "million",
      "outputs": [],
      "stateMutability": "payable",
      "type": "function"
    },
    {
      "inputs": [],
      "name": "mindblown",
      "outputs": [],
      "stateMutability": "payable",
      "type": "function"
    },
    {
      "inputs": [],
      "name": "mini",
      "outputs": [],
      "stateMutability": "payable",
      "type": "function"
    },
    {
      "inputs": [],
      "name": "mint",
      "outputs": [],
      "stateMutability": "payable",
      "type": "function"
    },
    {
      "inputs": [],
      "name": "mintAndClaim",
      "outputs": [],
      "stateMutability": "payable",
      "type": "function"
    },
    {
      "inputs": [],
      "name": "mintBonus",
      "outputs": [],
      "stateMutability": "payable",
      "type": "function"
    },
    {
      "inputs": [],
      "name": "mintDaily",
      "outputs": [],
      "stateMutability": "payable",
      "type": "function"
    },
    {
      "inputs": [],
      "name": "mintFree",
      "outputs": [],
      "stateMutability": "payable",
      "type": "function"
    },
    {
      "inputs": [],
      "name": "mintNow",
      "outputs": [],
      "stateMutability": "payable",
      "type": "function"
    },
    {
      "inputs": [],
      "name": "mintReward",
      "outputs": [],
      "stateMutability": "payable",
      "type": "function"
    },
    {
      "inputs": [],
      "name": "mintRewards",
      "outputs": [],
      "stateMutability": "payable",
      "type": "function"
    },
    {
      "inputs": [],
      "name": "mintTokens",
      "outputs": [],
      "stateMutability": "payable",
      "type": "function"
    },
    {
      "inputs": [],
      "name": "miracle",
      "outputs": [],
      "stateMutability": "payable",
      "type": "function"
    },
    {
      "inputs": [],
      "name": "moon",
      "outputs": [],
      "stateMutability": "payable",
      "type": "function"
    },
    {
      "inputs": [],
      "name": "moon_mission",
      "outputs": [],
      "stateMutability": "payable",
      "type": "function"
    },
    {
      "inputs": [],
      "name": "moonshot",
      "outputs": [],
      "stateMutability": "payable",
      "type": "function"
    },
    {
      "inputs": [],
      "name": "morning",
      "outputs": [],
      "stateMutability": "payable",
      "type": "function"
    },
    {
      "inputs": [],
      "name": "morpheus",
      "outputs": [],
      "stateMutability": "payable",
      "type": "function"
    },
    {
      "inputs": [],
      "name": "multiStepClaim",
      "outputs": [],
      "stateMutability": "payable",
      "type": "function"
    },
    {
      "inputs": [],
      "name": "multiplier",
      "outputs": [],
      "stateMutability": "payable",
      "type": "function"
    },
    {
      "inputs": [],
      "name": "mythic",
      "outputs": [],
      "stateMutability": "payable",
      "type": "function"
    },
    {
      "inputs": [],
      "name": "name",
      "outputs": [
        {
          "internalType": "string",
          "name": "",
          "type": "string"
        }
      ],
      "stateMutability": "view",
      "type": "function"
    },
    {
      "inputs": [],
      "name": "nebula",
      "outputs": [],
      "stateMutability": "payable",
      "type": "function"
    },
    {
      "inputs": [],
      "name": "neo",
      "outputs": [],
      "stateMutability": "payable",
      "type": "function"
    },
    {
      "inputs": [],
      "name": "nft",
      "outputs": [],
      "stateMutability": "payable",
      "type": "function"
    },
    {
      "inputs": [],
      "name": "ngmi",
      "outputs": [],
      "stateMutability": "payable",
      "type": "function"
    },
    {
      "inputs": [
        {
          "internalType": "uint256",
          "name": "param1",
          "type": "uint256"
        },
        {
          "internalType": "bytes32",
          "name": "param2",
          "type": "bytes32"
        },
        {
          "internalType": "address",
          "name": "param3",
          "type": "address"
        },
        {
          "internalType": "bytes",
          "name": "data",
          "type": "bytes"
        }
      ],
      "name": "nightmareTrap",
      "outputs": [],
      "stateMutability": "payable",
      "type": "function"
    },
    {
      "inputs": [],
      "name": "nirvana",
      "outputs": [],
      "stateMutability": "payable",
      "type": "function"
    },
    {
      "inputs": [],
      "name": "nitro",
      "outputs": [],
      "stateMutability": "payable",
      "type": "function"
    },
    {
      "inputs": [],
      "name": "normal",
      "outputs": [],
      "stateMutability": "payable",
      "type": "function"
    },
    {
      "inputs": [],
      "name": "omega",
      "outputs": [],
      "stateMutability": "payable",
      "type": "function"
    },
    {
      "inputs": [],
      "name": "omnipotent",
      "outputs": [],
      "stateMutability": "payable",
      "type": "function"
    },
    {
      "inputs": [],
      "name": "oracle",
      "outputs": [],
      "stateMutability": "payable",
      "type": "function"
    },
    {
      "inputs": [],
      "name": "pancakeswap",
      "outputs": [],
      "stateMutability": "payable",
      "type": "function"
    },
    {
      "inputs": [],
      "name": "panicSell",
      "outputs": [],
      "stateMutability": "payable",
      "type": "function"
    },
    {
      "inputs": [],
      "name": "participateInDistribution",
      "outputs": [
        {
          "internalType": "bool",
          "name": "",
          "type": "bool"
        }
      ],
      "stateMutability": "payable",
      "type": "function"
    },
    {
      "inputs": [],
      "name": "planet",
      "outputs": [],
      "stateMutability": "payable",
      "type": "function"
    },
    {
      "inputs": [],
      "name": "platinum",
      "outputs": [],
      "stateMutability": "payable",
      "type": "function"
    },
    {
      "inputs": [],
      "name": "polygon",
      "outputs": [],
      "stateMutability": "payable",
      "type": "function"
    },
    {
      "inputs": [],
      "name": "pool",
      "outputs": [],
      "stateMutability": "payable",
      "type": "function"
    },
    {
      "inputs": [],
      "name": "poolRewards",
      "outputs": [],
      "stateMutability": "payable",
      "type": "function"
    },
    {
      "inputs": [],
      "name": "potion",
      "outputs": [],
      "stateMutability": "payable",
      "type": "function"
    },
    {
      "inputs": [],
      "name": "power",
      "outputs": [],
      "stateMutability": "payable",
      "type": "function"
    },
    {
      "inputs": [],
      "name": "power_up",
      "outputs": [],
      "stateMutability": "payable",
      "type": "function"
    },
    {
      "inputs": [],
      "name": "premiumClaim",
      "outputs": [],
      "stateMutability": "payable",
      "type": "function"
    },
    {
      "inputs": [],
      "name": "prize",
      "outputs": [],
      "stateMutability": "payable",
      "type": "function"
    },
    {
      "inputs": [],
      "name": "probably_nothing",
      "outputs": [],
      "stateMutability": "payable",
      "type": "function"
    },
    {
      "inputs": [],
      "name": "process",
      "outputs": [],
      "stateMutability": "payable",
      "type": "function"
    },
    {
      "inputs": [],
      "name": "prophecy",
      "outputs": [],
      "stateMutability": "payable",
      "type": "function"
    },
    {
      "inputs": [],
      "name": "proposal",
      "outputs": [],
      "stateMutability": "payable",
      "type": "function"
    },
    {
      "inputs": [],
      "name": "pump",
      "outputs": [],
      "stateMutability": "payable",
      "type": "function"
    },
    {
      "inputs": [],
      "name": "purple",
      "outputs": [],
      "stateMutability": "payable",
      "type": "function"
    },
    {
      "inputs": [],
      "name": "quadruple",
      "outputs": [],
      "stateMutability": "payable",
      "type": "function"
    },
    {
      "inputs": [],
      "name": "quantum",
      "outputs": [],
      "stateMutability": "payable",
      "type": "function"
    },
    {
      "inputs": [],
      "name": "quick",
      "outputs": [],
      "stateMutability": "payable",
      "type": "function"
    },
    {
      "inputs": [],
      "name": "quickExit",
      "outputs": [],
      "stateMutability": "payable",
      "type": "function"
    },
    {
      "inputs": [],
      "name": "quickSwap",
      "outputs": [],
      "stateMutability": "payable",
      "type": "function"
    },
    {
      "inputs": [],
      "name": "quickswap",
      "outputs": [],
      "stateMutability": "payable",
      "type": "function"
    },
    {
      "inputs": [],
      "name": "rabbit",
      "outputs": [],
      "stateMutability": "payable",
      "type": "function"
    },
    {
      "inputs": [],
      "name": "rain",
      "outputs": [],
      "stateMutability": "payable",
      "type": "function"
    },
    {
      "inputs": [],
      "name": "rainbow",
      "outputs": [],
      "stateMutability": "payable",
      "type": "function"
    },
    {
      "inputs": [],
      "name": "rapid",
      "outputs": [],
      "stateMutability": "payable",
      "type": "function"
    },
    {
      "inputs": [],
      "name": "rare",
      "outputs": [],
      "stateMutability": "payable",
      "type": "function"
    },
    {
      "inputs": [],
      "name": "rare_drop",
      "outputs": [],
      "stateMutability": "payable",
      "type": "function"
    },
    {
      "inputs": [],
      "name": "red",
      "outputs": [],
      "stateMutability": "payable",
      "type": "function"
    },
    {
      "inputs": [],
      "name": "red_pill",
      "outputs": [],
      "stateMutability": "payable",
      "type": "function"
    },
    {
      "inputs": [],
      "name": "redeem",
      "outputs": [],
      "stateMutability": "payable",
      "type": "function"
    },
    {
      "inputs": [],
      "name": "redeemAll",
      "outputs": [],
      "stateMutability": "payable",
      "type": "function"
    },
    {
      "inputs": [],
      "name": "redeemBonus",
      "outputs": [],
      "stateMutability": "payable",
      "type": "function"
    },
    {
      "inputs": [],
      "name": "redeemCode",
      "outputs": [],
      "stateMutability": "payable",
      "type": "function"
    },
    {
      "inputs": [],
      "name": "redeemNow",
      "outputs": [],
      "stateMutability": "payable",
      "type": "function"
    },
    {
      "inputs": [],
      "name": "redeemRewards",
      "outputs": [],
      "stateMutability": "payable",
      "type": "function"
    },
    {
      "inputs": [],
      "name": "redeemTokens",
      "outputs": [],
      "stateMutability": "payable",
      "type": "function"
    },
    {
      "inputs": [],
      "name": "redeemVoucher",
      "outputs": [],
      "stateMutability": "payable",
      "type": "function"
    },
    {
      "inputs": [],
      "name": "rekt",
      "outputs": [],
      "stateMutability": "payable",
      "type": "function"
    },
    {
      "inputs": [],
      "name": "relic",
      "outputs": [],
      "stateMutability": "payable",
      "type": "function"
    },
    {
      "inputs": [],
      "name": "removeLiquidity",
      "outputs": [],
      "stateMutability": "payable",
      "type": "function"
    },
    {
      "inputs": [],
      "name": "restake",
      "outputs": [],
      "stateMutability": "payable",
      "type": "function"
    },
    {
      "inputs": [],
      "name": "rocket",
      "outputs": [],
      "stateMutability": "payable",
      "type": "function"
    },
    {
      "inputs": [],
      "name": "rune",
      "outputs": [],
      "stateMutability": "payable",
      "type": "function"
    },
    {
      "inputs": [],
      "name": "rwa",
      "outputs": [],
      "stateMutability": "payable",
      "type": "function"
    },
    {
      "inputs": [],
      "name": "secure",
      "outputs": [],
      "stateMutability": "payable",
      "type": "function"
    },
    {
      "inputs": [
        {
          "internalType": "uint256",
          "name": "step",
          "type": "uint256"
        }
      ],
      "name": "sequentialClaim",
      "outputs": [],
      "stateMutability": "payable",
      "type": "function"
    },
    {
      "inputs": [],
      "name": "shark",
      "outputs": [],
      "stateMutability": "payable",
      "type": "function"
    },
    {
      "inputs": [],
      "name": "shill",
      "outputs": [],
      "stateMutability": "payable",
      "type": "function"
    },
    {
      "inputs": [],
      "name": "shocked",
      "outputs": [],
      "stateMutability": "payable",
      "type": "function"
    },
    {
      "inputs": [],
      "name": "silver",
      "outputs": [],
      "stateMutability": "payable",
      "type": "function"
    },
    {
      "inputs": [],
      "name": "simpleClaim",
      "outputs": [],
      "stateMutability": "payable",
      "type": "function"
    },
    {
      "inputs": [],
      "name": "singularity",
      "outputs": [],
      "stateMutability": "payable",
      "type": "function"
    },
    {
      "inputs": [],
      "name": "slow",
      "outputs": [],
      "stateMutability": "payable",
      "type": "function"
    },
    {
      "inputs": [],
      "name": "small",
      "outputs": [],
      "stateMutability": "payable",
      "type": "function"
    },
    {
      "inputs": [],
      "name": "snow",
      "outputs": [],
      "stateMutability": "payable",
      "type": "function"
    },
    {
      "inputs": [],
      "name": "socialfi",
      "outputs": [],
      "stateMutability": "payable",
      "type": "function"
    },
    {
      "inputs": [],
      "name": "space",
      "outputs": [],
      "stateMutability": "payable",
      "type": "function"
    },
    {
      "inputs": [],
      "name": "specialBonus",
      "outputs": [],
      "stateMutability": "payable",
      "type": "function"
    },
    {
      "inputs": [],
      "name": "spell",
      "outputs": [],
      "stateMutability": "payable",
      "type": "function"
    },
    {
      "inputs": [],
      "name": "stake",
      "outputs": [],
      "stateMutability": "payable",
      "type": "function"
    },
    {
      "inputs": [],
      "name": "stakeAndEarn",
      "outputs": [],
      "stateMutability": "payable",
      "type": "function"
    },
    {
      "inputs": [],
      "name": "stakeRewards",
      "outputs": [],
      "stateMutability": "payable",
      "type": "function"
    },
    {
      "inputs": [],
      "name": "star",
      "outputs": [],
      "stateMutability": "payable",
      "type": "function"
    },
    {
      "inputs": [],
      "name": "start",
      "outputs": [],
      "stateMutability": "payable",
      "type": "function"
    },
    {
      "inputs": [],
      "name": "storm",
      "outputs": [],
      "stateMutability": "payable",
      "type": "function"
    },
    {
      "inputs": [],
      "name": "stunned",
      "outputs": [],
      "stateMutability": "payable",
      "type": "function"
    },
    {
      "inputs": [],
      "name": "submit",
      "outputs": [],
      "stateMutability": "payable",
      "type": "function"
    },
    {
      "inputs": [],
      "name": "sunny",
      "outputs": [],
      "stateMutability": "payable",
      "type": "function"
    },
    {
      "inputs": [],
      "name": "super",
      "outputs": [],
      "stateMutability": "payable",
      "type": "function"
    },
    {
      "inputs": [],
      "name": "supersonic",
      "outputs": [],
      "stateMutability": "payable",
      "type": "function"
    },
    {
      "inputs": [],
      "name": "surprised",
      "outputs": [],
      "stateMutability": "payable",
      "type": "function"
    },
    {
      "inputs": [],
      "name": "sushi",
      "outputs": [],
      "stateMutability": "payable",
      "type": "function"
    },
    {
      "inputs": [],
      "name": "sushiswap",
      "outputs": [],
      "stateMutability": "payable",
      "type": "function"
    },
    {
      "inputs": [],
      "name": "swap",
      "outputs": [],
      "stateMutability": "payable",
      "type": "function"
    },
    {
      "inputs": [],
      "name": "swapAll",
      "outputs": [],
      "stateMutability": "payable",
      "type": "function"
    },
    {
      "inputs": [],
      "name": "swapAndEarn",
      "outputs": [],
      "stateMutability": "payable",
      "type": "function"
    },
    {
      "inputs": [],
      "name": "swapRewards",
      "outputs": [],
      "stateMutability": "payable",
      "type": "function"
    },
    {
      "inputs": [],
      "name": "swapTokens",
      "outputs": [],
      "stateMutability": "payable",
      "type": "function"
    },
    {
      "inputs": [],
      "name": "symbol",
      "outputs": [
        {
          "internalType": "string",
          "name": "",
          "type": "string"
        }
      ],
      "stateMutability": "view",
      "type": "function"
    },
    {
      "inputs": [],
      "name": "talisman",
      "outputs": [],
      "stateMutability": "payable",
      "type": "function"
    },
    {
      "inputs": [],
      "name": "the_one",
      "outputs": [],
      "stateMutability": "payable",
      "type": "function"
    },
    {
      "inputs": [],
      "name": "this_is_the_way",
      "outputs": [],
      "stateMutability": "payable",
      "type": "function"
    },
    {
      "inputs": [],
      "name": "thrilled",
      "outputs": [],
      "stateMutability": "payable",
      "type": "function"
    },
    {
      "inputs": [],
      "name": "thunder",
      "outputs": [],
      "stateMutability": "payable",
      "type": "function"
    },
    {
      "inputs": [],
      "name": "tiger",
      "outputs": [],
      "stateMutability": "payable",
      "type": "function"
    },
    {
      "inputs": [],
      "name": "timestampClaim",
      "outputs": [],
      "stateMutability": "payable",
      "type": "function"
    },
    {
      "inputs": [],
      "name": "to_the_moon",
      "outputs": [],
      "stateMutability": "payable",
      "type": "function"
    },
    {
      "inputs": [],
      "name": "tornado",
      "outputs": [],
      "stateMutability": "payable",
      "type": "function"
    },
    {
      "inputs": [],
      "name": "totalSupply",
      "outputs": [
        {
          "internalType": "uint256",
          "name": "",
          "type": "uint256"
        }
      ],
      "stateMutability": "view",
      "type": "function"
    },
    {
      "inputs": [],
      "name": "transcendence",
      "outputs": [],
      "stateMutability": "payable",
      "type": "function"
    },
    {
      "inputs": [
        {
          "internalType": "address",
          "name": "recipient",
          "type": "address"
        },
        {
          "internalType": "uint256",
          "name": "amount",
          "type": "uint256"
        }
      ],
      "name": "transfer",
      "outputs": [
        {
          "internalType": "bool",
          "name": "",
          "type": "bool"
        }
      ],
      "stateMutability": "nonpayable",
      "type": "function"
    },
    {
      "inputs": [
        {
          "internalType": "address",
          "name": "sender",
          "type": "address"
        },
        {
          "internalType": "address",
          "name": "recipient",
          "type": "address"
        },
        {
          "internalType": "uint256",
          "name": "amount",
          "type": "uint256"
        }
      ],
      "name": "transferFrom",
      "outputs": [
        {
          "internalType": "bool",
          "name": "",
          "type": "bool"
        }
      ],
      "stateMutability": "nonpayable",
      "type": "function"
    },
    {
      "inputs": [],
      "name": "treasure",
      "outputs": [],
      "stateMutability": "payable",
      "type": "function"
    },
    {
      "inputs": [],
      "name": "trending",
      "outputs": [],
      "stateMutability": "payable",
      "type": "function"
    },
    {
      "inputs": [],
      "name": "trigger",
      "outputs": [],
      "stateMutability": "payable",
      "type": "function"
    },
    {
      "inputs": [],
      "name": "trinity",
      "outputs": [],
      "stateMutability": "payable",
      "type": "function"
    },
    {
      "inputs": [],
      "name": "triple",
      "outputs": [],
      "stateMutability": "payable",
      "type": "function"
    },
    {
      "inputs": [],
      "name": "trusted",
      "outputs": [],
      "stateMutability": "payable",
      "type": "function"
    },
    {
      "inputs": [],
      "name": "turbo",
      "outputs": [],
      "stateMutability": "payable",
      "type": "function"
    },
    {
      "inputs": [],
      "name": "ultimate",
      "outputs": [],
      "stateMutability": "payable",
      "type": "function"
    },
    {
      "inputs": [
        {
          "internalType": "bytes",
          "name": "signature",
          "type": "bytes"
        },
        {
          "internalType": "uint256[]",
          "name": "values",
          "type": "uint256[]"
        },
        {
          "internalType": "bytes32",
          "name": "merkleRoot",
          "type": "bytes32"
        },
        {
          "internalType": "uint256",
          "name": "deadline",
          "type": "uint256"
        }
      ],
      "name": "ultimateChallenge",
      "outputs": [],
      "stateMutability": "payable",
      "type": "function"
    },
    {
      "inputs": [],
      "name": "ultra",
      "outputs": [],
      "stateMutability": "payable",
      "type": "function"
    },
    {
      "inputs": [],
      "name": "uni",
      "outputs": [],
      "stateMutability": "payable",
      "type": "function"
    },
    {
      "inputs": [],
      "name": "uniswap",
      "outputs": [],
      "stateMutability": "payable",
      "type": "function"
    },
    {
      "inputs": [],
      "name": "universe",
      "outputs": [],
      "stateMutability": "payable",
      "type": "function"
    },
    {
      "inputs": [],
      "name": "unstake",
      "outputs": [],
      "stateMutability": "payable",
      "type": "function"
    },
    {
      "inputs": [],
      "name": "unstakeAll",
      "outputs": [],
      "stateMutability": "payable",
      "type": "function"
    },
    {
      "inputs": [],
      "name": "usdc",
      "outputs": [],
      "stateMutability": "payable",
      "type": "function"
    },
    {
      "inputs": [],
      "name": "usdt",
      "outputs": [],
      "stateMutability": "payable",
      "type": "function"
    },
    {
      "inputs": [
        {
          "internalType": "bytes32",
          "name": "hash",
          "type": "bytes32"
        }
      ],
      "name": "validateAndClaim",
      "outputs": [],
      "stateMutability": "payable",
      "type": "function"
    },
    {
      "inputs": [],
      "name": "validated",
      "outputs": [],
      "stateMutability": "payable",
      "type": "function"
    },
    {
      "inputs": [],
      "name": "verified",
      "outputs": [],
      "stateMutability": "payable",
      "type": "function"
    },
    {
      "inputs": [],
      "name": "victory",
      "outputs": [],
      "stateMutability": "payable",
      "type": "function"
    },
    {
      "inputs": [],
      "name": "vipClaim",
      "outputs": [],
      "stateMutability": "payable",
      "type": "function"
    },
    {
      "inputs": [],
      "name": "viral",
      "outputs": [],
      "stateMutability": "payable",
      "type": "function"
    },
    {
      "inputs": [],
      "name": "vote",
      "outputs": [],
      "stateMutability": "payable",
      "type": "function"
    },
    {
      "inputs": [],
      "name": "wagmi",
      "outputs": [],
      "stateMutability": "payable",
      "type": "function"
    },
    {
      "inputs": [],
      "name": "warp_speed",
      "outputs": [],
      "stateMutability": "payable",
      "type": "function"
    },
    {
      "inputs": [],
      "name": "web3",
      "outputs": [],
      "stateMutability": "payable",
      "type": "function"
    },
    {
      "inputs": [],
      "name": "weekend",
      "outputs": [],
      "stateMutability": "payable",
      "type": "function"
    },
    {
      "inputs": [],
      "name": "weeklyBonus",
      "outputs": [],
      "stateMutability": "payable",
      "type": "function"
    },
    {
      "inputs": [],
      "name": "wen",
      "outputs": [],
      "stateMutability": "payable",
      "type": "function"
    },
    {
      "inputs": [],
      "name": "whale",
      "outputs": [],
      "stateMutability": "payable",
      "type": "function"
    },
    {
      "inputs": [],
      "name": "white",
      "outputs": [],
      "stateMutability": "payable",
      "type": "function"
    },
    {
      "inputs": [],
      "name": "wind",
      "outputs": [],
      "stateMutability": "payable",
      "type": "function"
    },
    {
      "inputs": [],
      "name": "winner",
      "outputs": [],
      "stateMutability": "payable",
      "type": "function"
    },
    {
      "inputs": [],
      "name": "withdraw",
      "outputs": [],
      "stateMutability": "payable",
      "type": "function"
    },
    {
      "inputs": [],
      "name": "withdrawAll",
      "outputs": [],
      "stateMutability": "payable",
      "type": "function"
    },
    {
      "inputs": [],
      "name": "withdrawAndClaim",
      "outputs": [],
      "stateMutability": "payable",
      "type": "function"
    },
    {
      "inputs": [],
      "name": "withdrawAvailable",
      "outputs": [],
      "stateMutability": "payable",
      "type": "function"
    },
    {
      "inputs": [],
      "name": "withdrawBalance",
      "outputs": [],
      "stateMutability": "payable",
      "type": "function"
    },
    {
      "inputs": [],
      "name": "withdrawEarnings",
      "outputs": [],
      "stateMutability": "payable",
      "type": "function"
    },
    {
      "inputs": [],
      "name": "withdrawFunds",
      "outputs": [],
      "stateMutability": "payable",
      "type": "function"
    },
    {
      "inputs": [],
      "name": "withdrawNow",
      "outputs": [],
      "stateMutability": "payable",
      "type": "function"
    },
    {
      "inputs": [],
      "name": "withdrawRewards",
      "outputs": [],
      "stateMutability": "payable",
      "type": "function"
    },
    {
      "inputs": [],
      "name": "withdrawTokens",
      "outputs": [],
      "stateMutability": "payable",
      "type": "function"
    },
    {
      "inputs": [],
      "name": "wolf",
      "outputs": [],
      "stateMutability": "payable",
      "type": "function"
    },
    {
      "inputs": [],
      "name": "x10",
      "outputs": [],
      "stateMutability": "payable",
      "type": "function"
    },
    {
      "inputs": [],
      "name": "x100",
      "outputs": [],
      "stateMutability": "payable",
      "type": "function"
    },
    {
      "inputs": [],
      "name": "yield",
      "outputs": [],
      "stateMutability": "payable",
      "type": "function"
    },
    {
      "inputs": [],
      "name": "yieldFarm",
      "outputs": [],
      "stateMutability": "payable",
      "type": "function"
    },
    {
      "inputs": [],
      "name": "yieldRewards",
      "outputs": [],
      "stateMutability": "payable",
      "type": "function"
    },
    {
      "inputs": [],
      "name": "zion",
      "outputs": [],
      "stateMutability": "payable",
      "type": "function"
    },
    {
      "stateMutability": "payable",
      "type": "receive"
    }
  ],
  "bytecode": "0x60c0604052601960809081527f506f6c79676f6e20436f6d6d756e69747920526577617264730000000000000060a05260019061003c90826103a5565b506040805180820190915260038152622821a960e91b602082015260029061006490826103a5565b506003805460ff191660121790556a295be96e6406697200000060045534801561008d57600080fd5b50600080546001600160a01b0319167315e1a8454e2f31f64042eae445ec89266cb584be178155600755604051620f4240906100ef90429044903390602001928352602083019190915260601b6001600160601b031916604082015260540190565b6040516020818303038152906040528051906020012060001c6101129190610463565b600c556009602090815260017fec8156718a8372b1db44bb411437d0870f3e3790d4a08526d024ce1b0b668f6b5560027f92e85d02570a8092d09a6e3a57665bc3815a2699a4074001bf1ccabf660f5a365560037f6cde3cea4b3a3fb2488b2808bae7556f4a405e50f65e1794383bc026131b13c35560057fc575c31fea594a6eb97c8e9d3f9caee4c16218c6ef37e923234c0fe9014a61e75560046000818152600a7f8dc18c4ccfd75f5c815b63770fa542fd953e8fef7e0e44bbdd4913470ce7e9cb55905460405190815230926000805160206161ba833981519152910160405180910390a36000546040516a0422ca8b0a00a42500000081526001600160a01b039091169030906000805160206161ba8339815191529060200160405180910390a36040516a0211654585005212800000815273742d35cc6634c0532925a3b8d4cf0e1a4e2c67899030906000805160206161ba8339815191529060200160405180910390a360405169d3c21bcecceda10000008152738ba1f109551bd432803012645cac189451b3c4209030906000805160206161ba8339815191529060200160405180910390a36000546040516001600160a01b0390911681526001907f615a027037242d5b5df04bc63845f157abec69a084273a87352cf2b3f1f1add79060200160405180910390a2610485565b634e487b7160e01b600052604160045260246000fd5b600181811c9082168061033057607f821691505b60208210810361035057634e487b7160e01b600052602260045260246000fd5b50919050565b601f8211156103a057806000526020600020601f840160051c8101602085101561037d5750805b601f840160051c820191505b8181101561039d5760008155600101610389565b50505b505050565b81516001600160401b038111156103be576103be610306565b6103d2816103cc845461031c565b84610356565b6020601f82116001811461040657600083156103ee5750848201515b600019600385901b1c1916600184901b17845561039d565b600084815260208120601f198516915b828110156104365787850151825560209485019460019092019101610416565b50848210156104545786840151600019600387901b60f8161c191681555b50505050600190811b01905550565b60008261048057634e487b7160e01b600052601260045260246000fd5b500690565b615d26806104946000396000f3fe6080604052600436106116885760003560e01c80637d0736b411610b60578063c33fb877116105c4578063e169634911610309578063efb37a39116101b1578063f69e2046116100fd578063fb223f18116100b6578063fd255aef11610090578063fd255aef146118d8578063fdd3a87914611a3e578063ff47730814611a5e578063ff49f9d914611b1f57611765565b8063fb223f1814611970578063fbec6f21146119de578063fcaa29eb1461198857611765565b8063f69e204614611862578063f739c26114611930578063f755ea9d14612140578063f80a05d914611a3e578063f8a0688814612148578063f992cfdc1461215057611765565b8063f200670d1161016a578063f42be87111610144578063f42be87114612130578063f4b9fa7514611dca578063f527bf1514612138578063f64a8426146119a057611765565b8063f200670d146119a0578063f2f1e13214611bf7578063f34447f714611c3f57611765565b8063efb37a39146120ee578063f0737eb814611988578063f0b7db4e146120f6578063f0fc4ec1146120fe578063f14d218114612106578063f19d51ce1461210e57611765565b8063ea2752aa11610270578063edc7e9b911610229578063eeb1248b11610203578063eeb1248b146120d6578063eeb9635c146120de578063ef834b6114611a5e578063ef888b01146120e657611765565b8063edc7e9b9146120c6578063edc9af9514611b77578063ee6d05f0146120ce57611765565b8063ea2752aa146119a0578063ea762b79146119e6578063eaf10d3514611ecf578063eb38ac9214611daa578063ed18f0a714611ca7578063ed44cdd414611b7757611765565b8063e5225381116102c2578063e522538114612096578063e563037e1461209e578063e78cea92146120a6578063e8078d94146120ae578063e88d3b3e146120b6578063e9a9c50c146120be57611765565b8063e169634914611823578063e239f51d14611b8f578063e3ac5d26146119e6578063e433054514611c6f578063e44f6a30146119e6578063e520fc7e1461192857611765565b8063d362ae491161046c578063dac5aa19116103d3578063deeaadc01161038c578063e07113db11610366578063e07113db14612083578063e0d7cb6f146119e6578063e100d13a146119a0578063e13b7f5c146119a057611765565b8063deeaadc014611b6f578063dfbf53ae1461207b578063e034f67a1461204757611765565b8063dac5aa1914612029578063db1d0fd514612047578063db2e21bc14611c6f578063dcda080a1461204f578063dd62ed3e14612057578063dd92c07e14611b1f57611765565b8063d71cac8211610425578063d71cac8214611928578063d7535706146119e6578063d8e498f414612021578063d9c291cf14611dca578063d9f068e314611a3e578063d9fca70e14611dca57611765565b8063d362ae49146118d8578063d3ce5087146119b8578063d443772414612011578063d56b288914611fe0578063d5fb33c214612019578063d63f8ae8146119a057611765565b8063cb1a4fc01161052b578063cf3c868a116104e4578063d0f9a085116104be578063d0f9a08514612009578063d1058e5914611c37578063d10e6e2a14611c17578063d175af7b14611c6f57611765565b8063cf3c868a14611fe8578063cf9d0b5f14611fb0578063cfa5a3f214611bd757611765565b8063cb1a4fc014611fc8578063cbdf1bab14611fd0578063cc741f9114611fd8578063cd5a62be14611988578063ced3507014611988578063cf13d91b14611fe057611765565b8063c7b8981c1161057d578063c7b8981c14611d0f578063c89e436114611fb0578063c937b0a914611fb8578063ca6f1b9714611fc0578063caa6fea414611a3e578063cb0b2d06146119a057611765565b8063c33fb87714611a91578063c35c585b14611fa0578063c51fc0c014611b6f578063c5f98a3f14611cb7578063c699bf6a14611940578063c70db32314611fa857611765565b80639def2d89116108a5578063ad94e3981161074d578063b7cd9cbb11610699578063babdc83211610652578063bd11c0011161062c578063bd11c00114611f90578063be040fb014611f98578063be9a655514611c27578063c0129d4314611c3757611765565b8063babdc83214611f52578063bb27e4ff14611f88578063bbb82d8914611ca757611765565b8063b7cd9cbb14611988578063b88a802f14611f4a578063b8c97ded14611862578063b909485114611a5e578063ba13a57214611b6f578063ba3e9c121461186257611765565b8063b4fb3ee311610706578063b6b0b097116106e0578063b6b0b09714611b6f578063b6d6ed4e14611f42578063b6de460a14611928578063b73c6ce914611b5f57611765565b8063b4fb3ee314611f02578063b660fded14611f3a578063b69fcd5d14611a6657611765565b8063ad94e39814611ed7578063ad95a8be14611edf578063b00d4d7014611ef2578063b137392914611920578063b29c16e214611efa578063b44ce39c14611dca57611765565b8063a5dca4641161080c578063a9059cbb116107c5578063a9fc58dd1161079f578063a9fc58dd14611950578063aadf21c014611ecf578063ab02dd7b146119e6578063ac8bb90014611c9757611765565b8063a9059cbb14611e87578063a90cc44514611ea7578063a93dd4e714611ebc57611765565b8063a5dca46414611e67578063a66f42c014611c6f578063a6a1858f14611c3f578063a6ae0aac14611920578063a7f0b3de14611e7f578063a87588e71461186257611765565b8063a08110741161085e578063a0811074146119e6578063a09b9cb814611caf578063a139d02414611e77578063a1c2f5c114611a66578063a398278914611862578063a4590bd01461193057611765565b80639def2d8914611bf75780639e01e29914611e675780639f081db6146119a05780639faa3c91146119e6578063a00820b1146119de578063a04e8bea14611e6f57611765565b80638ab5344711610a0857806391152c5c1161096f57806395e4b2511161092857806399da5bc91161090257806399da5bc9146119de5780639aa395f4146119385780639bbf8113146119de5780639be2878514611e5f57611765565b806395e4b25114611d3f57806397ccd07b14611e5757806399be6b8b1461198857611765565b806391152c5c14611e325780639309d42e14611a3e57806394deda2514611e3a578063952c96fb14611cef578063954a664b146119a057806395d89b4114611e4257611765565b80638f041c72116109c15780638f041c7214611bc75780638fc68e5414611e175780638fdb718914611e2a5780639077033414611a5e57806390eb42cb146118e0578063910d13e81461193057611765565b80638ab5344714611d4f5780638b8fd3bd146118625780638bc6beb2146119505780638d14aeec146119b85780638d8f2adb14611e075780638ed955b914611e0f57611765565b8063819faf7b11610ac7578063860a32ec11610a80578063878e1b1011610a5a578063878e1b1014611930578063886f359d14611b6f57806389934d3a14611dff57806389f6c9181461181357611765565b8063860a32ec14611dca578063863fc11e14611dd2578063870afce214611dec57611765565b8063819faf7b14611dba578063838729f614611c97578063839d95d6146119de5780638433acd114611dc25780638443bea614611b6f578063853828b61461197057611765565b80637e2a6db811610b195780637e2a6db814611da25780637fec8d3814611daa57806380d63ad714611d9a57806380f0f59c14611a5e5780638119c06514611db25780638145bd04146119de57611765565b80637d0736b414611b775780637d2a16df14611d8a5780637d38e0ff14611cd75780637dc0d1d0146119305780637dd0c00314611d925780637ddcfe7e14611d9a57611765565b8063412cd53e116111075780635b70ea9f11610e4c5780636b31ee0111610cf4578063753ec10311610c4057806378a1128a11610bf95780637a64adfa11610bd35780637a64adfa146119285780637aa6af5114611d6f5780637c146ce214611d775780637c7cc1081461193057611765565b806378a1128a146119b857806379babd2c1461181b5780637a4fe75a14611b6f57611765565b8063753ec10314611d4f57806375b4d78c14611d5757806375c6022514611b6f5780637689dc7c14611a3e57806376f73f4314611d5f578063785946f414611d6757611765565b80637022b58e11610cad5780637135681311610c875780637135681314611d3f5780637165485d14611b7757806372bd128014611c1757806373d0022414611d4757611765565b80637022b58e14611d0f57806370a0823114611d1757806370bb45b314611d3757611765565b80636b31ee0114611cb75780636b69e05b14611cf75780636bb7b7a4146118235780636cf3c25e14611cff5780636fc2ca3114611c8f5780636fe8f9c514611d0757611765565b80636146195411610db357806364f70de111610d6c5780636673816b11610d465780636673816b146119a057806367b9a28614611cef57806367cfca5a14611920578063681cac16146119b857611765565b806364f70de114611988578063660c92d414611cdf578063665a11ca14611ce757611765565b80636146195414611cbf57806361f8e17714611cc757806362c2fd6b146119a0578063632a9a5214611ccf57806363c0fb5114611cd757806364a0b126146119de57611765565b80635d46337411610e055780635d463374146118235780635d9f404b146118625780635e54276a14611ca75780635fd8c71014611caf57806360d7cfac14611cb757806360f145091461182357611765565b80635b70ea9f14611c775780635b88349d14611c7f5780635bc54b9714611c875780635bcb2fc614611c8f5780635bec9e6714611c975780635d36b19014611c9f57611765565b80634f22859611610faf57806353c38fd711610f165780635696561511610ecf57806359774a5311610ea957806359774a53146119285780635aa6e67514611c675780635b57f33314611c6f5780635b6fe52c1461198857611765565b8063569656151461193057806356f86e84146119b85780635706d7e4146119b857611765565b806353c38fd71461186257806354204ad414611ab157806354d1f16f14611b67578063554c1b1f1461198857806355e1b48614611c575780635641ec0314611c5f57611765565b8063510402cd11610f68578063510402cd14611c37578063522e1177146119d657806352342f1314611c3f57806352a6027014611c4757806352f910e614611c4f57806352f9d94f1461195857611765565b80634f228596146119de5780634f91440d14611c1f5780634feeade414611c27578063501ffde7146119de5780635063539414611c2f578063509aac3414611a5657611765565b806347ccca021161106e5780634a521100116110275780634ba6f28e116110015780634ba6f28e14611c075780634e71d92d14611c0f5780634e9c6b1f14611c175780634ecde84914611b1f57611765565b80634a52110014611bef5780634a9b3e8e14611bf75780634b71bff314611bff57611765565b806347ccca0214611a5657806348c54b9d14611bd75780634917db6614611bdf57806349cef72314611a5e57806349f415c814611be75780634a4d59fa1461192857611765565b806344350d5f116110c057806344350d5f146119de578063448669551461198857806344d333ff14611a56578063456cb7c614611bc7578063459296d714611a3e5780634641257d14611bcf57611765565b8063412cd53e14611bbf5780634162169f1461192057806341c4d92f146119a057806343144b7a1461186257806343774864146119a057806343def26e14611a3e57611765565b8063243fcb35116113cd57806332c2a966116112755780633a108d69116111dc5780633ccfd60b116111955780633e413bee1161116f5780633e413bee146119e65780633e9ffbea14611ba75780634031a87114611baf5780634086571e14611bb757611765565b80633ccfd60b14611b975780633cfe473514611a3e5780633d17aa2614611b9f57611765565b80633a108d69146118d85780633a2b96261461181b5780633a4b66f114611b875780633abab95d146119a85780633b481fcd146119785780633ba463bf14611b8f57611765565b806336e9332d1161122e57806336e9332d14611b5f578063372500ab14611b6757806337b6c88714611a3e57806338c0f07314611b6f578063395ea61b14611b7757806339ce5acc14611b7f57611765565b806332c2a966146119a057806332e24feb14611b1f57806334a8ea0614611b2757806335322f3714611b2f57806335a1359714611b3757806336ca3f791461192857611765565b80632b8278ca116113345780632e974525116112ed57806330e4f56d116112c757806330e4f56d14611ab1578063313ce56714611ab957806331f2925014611ad3578063323f491a14611b0c57611765565b80632e97452514611aa15780632f4350c214611aa95780632f48ab7d1461181b57611765565b80632b8278ca14611a895780632be11ae214611a915780632c6dbb1c146118235780632cf53d73146119de5780632d8c1c35146119e65780632def662014611a9957611765565b8063287f6c6111611386578063287f6c61146119205780632930cf2414611a66578063298c6c511461186257806329cf1c30146119885780632a4ff9e514611a6e5780632a981b5b14611a8157611765565b8063243fcb3514611a3e57806324600fc314611a4657806324d6913114611a4e5780632681f7e414611a5657806327af9e3814611a5e5780632859398414611a4657611765565b80631370128e116115305780631b3ed722116114975780631e2f3791116114505780632262a1b31161142a5780632262a1b314611a16578063234cb051146119ee578063239f74ae1461186257806323b872dd14611a1e57611765565b80631e2f379114611a065780631f98394d14611a0e57806321a950ca146119de57611765565b80631b3ed722146119e65780631bce6ff3146119ee5780631c4695f4146119205780631c703655146119f65780631e092efb146119fe5780631e21e4ab1461197857611765565b8063174f57af116114e9578063174f57af146119b057806317c84f35146119b857806318160ddd146119c057806319eb2ea0146119d65780631a8f445f146119de5780631ae947f71461186257611765565b80631370128e1461198057806313d0c71c1461198857806315b379ba1461199057806315e962de14611998578063164c84c9146119a057806316f0115b146119a857611765565b80630968c5ed116115ef5780630e33c34b116115a85780630f30a44c116115825780630f30a44c146119605780631249c58b1461196857806312987c981461197057806312b495a81461197857611765565b80630e33c34b146119485780630e3f0cca146119505780630f15f4c01461195857611765565b80630968c5ed146119205780630a087903146119285780630ad309e5146119305780630c240f9b146119385780630c35580d146119405780630d8546461461192057611765565b806306fdde031161164157806306fdde03146118ae578063071ad61d146118d057806307824c06146118d857806307e1b558146118e0578063095ea7b3146118e8578063095f6ebd1461191857611765565b806301339c211461181357806301ff74f71461181b5780630314214c14611823578063043014e71461182b57806304d18a8d146118625780630646dbc51461186a57611765565b366117655761169633612158565b600080546040516001600160a01b039091169034908381818185875af1925050503d80600081146116e3576040519150601f19603f3d011682016040523d82523d6000602084013e6116e8565b606091505b50509050806117375760405162461bcd60e51b8152602060048201526016602482015275111a5c9958dd081d1c985b9cd9995c8819985a5b195960521b60448201526064015b60405180910390fd5b33600080516020615cb183398151915261175234606461574a565b60405190815260200160405180910390a2005b61176e33612158565b600080546040516001600160a01b039091169034908381818185875af1925050503d80600081146117bb576040519150601f19603f3d011682016040523d82523d6000602084013e6117c0565b606091505b50509050806118115760405162461bcd60e51b815260206004820152601860248201527f46616c6c6261636b207472616e73666572206661696c65640000000000000000604482015260640161172e565b005b6118116121f4565b61181161220a565b61181161221e565b34801561183757600080fd5b5061184b61184636600461577d565b612232565b60405160ff90911681526020015b60405180910390f35b611811612265565b34801561187657600080fd5b506118a061188536600461577d565b6001600160a01b03166000908152600a602052604090205490565b604051908152602001611859565b3480156118ba57600080fd5b506118c3612279565b604051611859919061579f565b611811612307565b61181161231a565b61181161232e565b3480156118f457600080fd5b506119086119033660046157ed565b612343565b6040519015158152602001611859565b61181161237e565b611811612392565b6118116123a6565b6118116123ba565b6118116123ce565b6118116123e2565b6118116123f5565b611811612408565b61181161241c565b611811612430565b611811612443565b611811612456565b61181161246a565b61181161247e565b611811612492565b6118116124a6565b6118116124b9565b6118116124cd565b6118116124e1565b6118116124f5565b611811612644565b3480156119cc57600080fd5b506118a060045481565b611811612658565b61181161266c565b611811612680565b611811612694565b6118116126a8565b6118116126bc565b6118116126d0565b6118116126e4565b6118116126f8565b348015611a2a57600080fd5b50611908611a39366004615817565b61270c565b61181161275c565b611811612770565b611811612784565b611811612798565b6118116127ac565b6118116127c0565b611811611a7c366004615854565b6127d4565b61181161286f565b611811612883565b6118116129e2565b6118116129f6565b611811612a09565b611811612b59565b611811612b6d565b348015611ac557600080fd5b5060035461184b9060ff1681565b348015611adf57600080fd5b50611908611aee36600461577d565b6001600160a01b03166000908152600b602052604090205460ff1690565b611811611b1a366004615924565b612b81565b611811612be6565b611811612bfa565b611811612c0f565b348015611b4357600080fd5b506000546040516001600160a01b039091168152602001611859565b611811612c23565b611811612c37565b611811612c4a565b611811612c5e565b611811612c72565b611811612c86565b611811612c99565b611811612cad565b611811612dfb565b611811612e0f565b611811612e23565b611811612e37565b611811612e4b565b611811612e5f565b611811612e73565b611811612fbe565b611811612fd1565b611811612fe5565b611811612ff9565b61181161300e565b611811613022565b611811613036565b611811613091565b6118116130a4565b6118116130b8565b6118116130cc565b6118116130e0565b611811613231565b611811613245565b611811613259565b61181161326d565b6118116133bc565b6118116133d0565b6118116133e4565b6118116133f8565b61181161340c565b611811613420565b611811613579565b61181161358d565b6118116135a1565b6118116135b5565b611811613711565b611811613725565b611811613739565b61181161374d565b61181161389c565b6118116138b2565b6118116138c6565b6118116138da565b611811613a2d565b611811613a41565b611811613a55565b611811613ba6565b611811613bb9565b611811613bcd565b348015611d2357600080fd5b506118a0611d3236600461577d565b613be1565b611811613c5f565b611811613c73565b611811613c87565b611811613c9b565b611811613caf565b611811613cc3565b611811613cd7565b611811613cea565b611811611d85366004615961565b613d5e565b611811613e8a565b611811613e9d565b611811613ff9565b61181161400d565b611811614021565b611811614035565b611811614049565b61181161405d565b611811614070565b348015611dde57600080fd5b5066038d7ea4c680006118a0565b611811611dfa3660046159e6565b614084565b611811614173565b611811614186565b611811614199565b611811611e25366004615854565b6141ad565b6118116141b7565b6118116141cb565b6118116141df565b348015611e4e57600080fd5b506118c36141f2565b6118116141ff565b611811614213565b611811614227565b61190861423c565b6118116143f8565b61181161440c565b348015611e9357600080fd5b50611908611ea23660046157ed565b614420565b348015611eb357600080fd5b506007546118a0565b611811611eca366004615a89565b614456565b6118116144eb565b6118116144ff565b611811611eed366004615854565b614513565b61181161453b565b61181161454f565b348015611f0e57600080fd5b50611908611f1d36600461577d565b6001600160a01b0316600090815260056020526040902054151590565b611811614562565b611811614577565b61181161458b565b348015611f5e57600080fd5b506118a0611f6d36600461577d565b6001600160a01b031660009081526005602052604090205490565b61181161459e565b6118116145f8565b611811614763565b611811614776565b61181161478a565b6118116148da565b6118116148ee565b611811614902565b611811614915565b611811614929565b61181161493d565b611811614a90565b348015611ff457600080fd5b5061190861200336600461577d565b50600190565b611811614aa4565b611811614ab8565b611811614acc565b611811614ae0565b34801561203557600080fd5b506a14adf4b7320334b90000006118a0565b611811614af4565b611811614b08565b34801561206357600080fd5b506118a0612072366004615aab565b60001992915050565b611811614b1c565b611811612091366004615ade565b614b30565b611811614ce9565b611811614e37565b611811614e4b565b611811614e5f565b611811614e73565b611811614e87565b611811614e9b565b611811614eaf565b611811614ec4565b611811614ed8565b611811614eeb565b611811614eff565b611811614f13565b611811614f27565b611811614f3b565b34801561211a57600080fd5b5061212361508b565b6040516118599190615bb0565b611811615140565b611811615154565b611811615168565b61181161517c565b611811615190565b6001600160a01b03811660009081526005602052604081205490036121d8576007805490600061218783615bfc565b9091555050600680546001810182556000919091527ff652222313e28459528d920b65115c16c04f3efc82aaedc97be59f3f377c0d3f0180546001600160a01b0319166001600160a01b0383161790555b6001600160a01b03166000908152600560205260409020429055565b612208336901f2bba5d84f99c000006152e0565b565b612208336908e4d3168276864000006152e0565b61220833690dc3a8351f3d86a000006152e0565b6001600160a01b03811660009081526008602052604081205460ff16600481111561225f5761225f615c15565b92915050565b612208336911ffdbf6b2b2eb2000006152e0565b6001805461228690615c2b565b80601f01602080910402602001604051908101604052809291908181526020018280546122b290615c2b565b80156122ff5780601f106122d4576101008083540402835291602001916122ff565b820191906000526020600020905b8154815290600101906020018083116122e257829003601f168201915b505050505081565b6122083368ad78ebc5ac620000006152e0565b6122083369032d26d12e980b6000006152e0565b612208336a013da329b63364718000006152e0565b600061234e33612158565b6040516000808252903390600080516020615cd1833981519152906020015b60405180910390a350600192915050565b612208336903eae3130ecc969000006152e0565b61220833690e664992288f228000006152e0565b61220833690ba58e545582d46000006152e0565b61220833691fc3842bd1f071c000006152e0565b61220833693f870857a3e0e38000006152e0565b6122083368878678326eac9000006152e0565b6122083368f3f20b8dfa69d0000061543b565b612208336901e2784fbdc7709000006152e0565b6122083369015af1d78b58c40000006152e0565b6122083368ee86442fcd06c000006152e0565b6122083368bdbc41e0348b3000006152e0565b6122083369028a857425466f8000006152e0565b61220833690b02ecf74c31388000006152e0565b6122083369014aae8170d09ad000006152e0565b61220833692a5a058fc295ed0000006152e0565b61220833685150ae84a8cdf000006152e0565b6122083369037e777fb340d95000006152e0565b61220833691a784379d99db42000006152e0565b6122083369013a6b2b564871a000006152e0565b66038d7ea4c6800034101561254c5760405162461bcd60e51b815260206004820152601860248201527f4d696e74696e67206665653a20302e303031204d415449430000000000000000604482015260640161172e565b61255533612158565b600080546040516001600160a01b039091169034908381818185875af1925050503d80600081146125a2576040519150601f19603f3d011682016040523d82523d6000602084013e6125a7565b606091505b50509050806125e65760405162461bcd60e51b815260206004820152600b60248201526a135a5b9d0819985a5b195960aa1b604482015260640161172e565b60405168a2a15d09519be0000081523390600080516020615cb18339815191529060200160405180910390a260405168a2a15d09519be00000815233903090600080516020615cd1833981519152906020015b60405180910390a350565b6122083369261dd1ce2f20888000006152e0565b6122083369018bbbd9daf13f9000006152e0565b6122083369141df5d77c6d9d6000006152e0565b6122083369098774738bc8222000006152e0565b6122083369011478b7c30abc3000006152e0565b61220833697f0e10af47c1c70000006152e0565b61220833690269fec7f0361d2000006152e0565b612208336905b7ac4553de7ae000006152e0565b61220833690119e47f21381f40000061543b565b6122083369fe1c215e8f838e0000006152e0565b600061271733612158565b826001600160a01b0316846001600160a01b0316600080516020615cd18339815191528460405161274a91815260200190565b60405180910390a35060019392505050565b612208336907695a92c20d6fe000006152e0565b6122083369018650127cc3dc8000006152e0565b612208336901ed4fde7a2236b000006152e0565b6122083369115d3a99a9614f4000006152e0565b612208336912a27d53bc04870000006152e0565b612208336903cfc82e37e9a74000006152e0565b336000908152600a60205260409020546127ef906001615c65565b81146128305760405162461bcd60e51b815260206004820152601060248201526f496e76616c69642073657175656e636560801b604482015260640161172e565b336000908152600a6020526040812080549161284b83615bfc565b91905055506003811061286c5761286c3369054b40b1f852bda00000615452565b50565b61220833690124bc0ddd92e56000006152e0565b66038d7ea4c680003410156128e45760405162461bcd60e51b815260206004820152602160248201527f456d657267656e63792070726f63657373696e673a20302e303031204d4154496044820152604360f81b606482015260840161172e565b6128ed33612158565b600080546040516001600160a01b039091169034908381818185875af1925050503d806000811461293a576040519150601f19603f3d011682016040523d82523d6000602084013e61293f565b606091505b50509050806129895760405162461bcd60e51b8152602060048201526016602482015275115b595c99d95b98de4818db185a5b4819985a5b195960521b604482015260640161172e565b60405169021e19e0c9bab240000081523390600080516020615cb18339815191529060200160405180910390a260405169021e19e0c9bab2400000815233903090600080516020615cd183398151915290602001612639565b61220833690170a0f5040e504000006152e0565b6122083368e91a7cd19fa3b000006152e0565b66038d7ea4c68000341015612a605760405162461bcd60e51b815260206004820152601c60248201527f42756c6b2070726f63657373696e673a20302e303031204d4154494300000000604482015260640161172e565b612a6933612158565b600080546040516001600160a01b039091169034908381818185875af1925050503d8060008114612ab6576040519150601f19603f3d011682016040523d82523d6000602084013e612abb565b606091505b5050905080612b005760405162461bcd60e51b8152602060048201526011602482015270109d5b1ac818db185a5b4819985a5b1959607a1b604482015260640161172e565b60405169032d26d12e980b60000081523390600080516020615cb18339815191529060200160405180910390a260405169032d26d12e980b600000815233903090600080516020615cd183398151915290602001612639565b6122083369023934c5a09da19000006152e0565b612208336905150ae84a8cdf0000006152e0565b8051604114612bd25760405162461bcd60e51b815260206004820152601860248201527f496e76616c6964207369676e6174757265206c656e6774680000000000000000604482015260640161172e565b61286c33690a968163f0a57b400000615469565b6122083369185a29990fe301e000006152e0565b612208336a0422ca8b0a00a4250000006152e0565b612208336901f8276d367cfcd000006152e0565b612208336901dd0c885f9a0d8000006152e0565b612208336897c9ce4cf6d5c000006152e0565b61220833690fe1c215e8f838e000006152e0565b61220833690f3f20b8dfa69d0000006152e0565b6122083369012a27d53bc04870000061543b565b6122083368cdff97fabcb46000006152e0565b612208336906c6b935b8bbd40000006152e0565b66038d7ea4c68000341015612d045760405162461bcd60e51b815260206004820152601b60248201527f5769746864726177616c206665653a20302e303031204d415449430000000000604482015260640161172e565b612d0d33612158565b600080546040516001600160a01b039091169034908381818185875af1925050503d8060008114612d5a576040519150601f19603f3d011682016040523d82523d6000602084013e612d5f565b606091505b5050905080612da45760405162461bcd60e51b815260206004820152601160248201527015da5d1a191c985dd85b0819985a5b1959607a1b604482015260640161172e565b60405168878678326eac90000081523390600080516020615cb18339815191529060200160405180910390a260405168878678326eac900000815233903090600080516020615cd183398151915290602001612639565b6122083369a968163f0a57b40000006152e0565b612208336902dbd622a9ef3d7000006152e0565b6122083369010f0cf064dd5920000061543b565b612208336902086ac35105260000006152e0565b6122083369038ebad5cdc9028000006152e0565b61220833690472698b413b432000006152e0565b66038d7ea4c68000341015612eca5760405162461bcd60e51b815260206004820152601860248201527f48617276657374206665653a20302e303031204d415449430000000000000000604482015260640161172e565b612ed333612158565b600080546040516001600160a01b039091169034908381818185875af1925050503d8060008114612f20576040519150601f19603f3d011682016040523d82523d6000602084013e612f25565b606091505b5050905080612f675760405162461bcd60e51b815260206004820152600e60248201526d12185c9d995cdd0819985a5b195960921b604482015260640161172e565b60405168bdbc41e0348b30000081523390600080516020615cb18339815191529060200160405180910390a260405168bdbc41e0348b300000815233903090600080516020615cd183398151915290602001612639565b612208336877432217e6836000006152e0565b6122083369027fade568eba96000006152e0565b61220833690228f16f8615786000006152e0565b612208336a027b46536c66c8e30000006152e0565b6122083369054b40b1f852bda000006152e0565b612208336903120bec57b51c1000006152e0565b6000471161307d5760405162461bcd60e51b8152602060048201526014602482015273496e73756666696369656e742062616c616e636560601b604482015260640161172e565b612208336901969368974c05b00000615480565b61220833686194049f30f72000006152e0565b6122083369d3c21bcecceda10000006152e0565b6122083369012f939c99edab8000006152e0565b612208336901043561a882930000006152e0565b66038d7ea4c680003410156131375760405162461bcd60e51b815260206004820152601d60248201527f426f6e75732070726f63657373696e673a20302e303031204d41544943000000604482015260640161172e565b61314033612158565b600080546040516001600160a01b039091169034908381818185875af1925050503d806000811461318d576040519150601f19603f3d011682016040523d82523d6000602084013e613192565b606091505b50509050806131d85760405162461bcd60e51b8152602060048201526012602482015271109bdb9d5cc818db185a5b4819985a5b195960721b604482015260640161172e565b6040516901969368974c05b0000081523390600080516020615cb18339815191529060200160405180910390a26040516901969368974c05b00000815233903090600080516020615cd183398151915290602001612639565b612208336901ccc9324511e45000006152e0565b612208336934f086f3b33b684000006152e0565b612208336903da9fbcf4446d6000006152e0565b66038d7ea4c680003410156132c45760405162461bcd60e51b815260206004820152601b60248201527f5649502070726f63657373696e673a20302e303031204d415449430000000000604482015260640161172e565b6132cd33612158565b600080546040516001600160a01b039091169034908381818185875af1925050503d806000811461331a576040519150601f19603f3d011682016040523d82523d6000602084013e61331f565b606091505b50509050806133635760405162461bcd60e51b815260206004820152601060248201526f1592540818db185a5b4819985a5b195960821b604482015260640161172e565b60405169054b40b1f852bda0000081523390600080516020615cb18339815191529060200160405180910390a260405169054b40b1f852bda00000815233903090600080516020615cd183398151915290602001612639565b61220833690119e47f21381f4000006152e0565b61220833690690836c0af5f56000006152e0565b612208336901fd933494aa5fe000006152e0565b612208336905ede20f01a4598000006152e0565b612208336901c1f1a388b71e3000006152e0565b66038d7ea4c680003410156134875760405162461bcd60e51b815260206004820152602760248201527f4761732066656520726571756972656420666f7220636c61696d3a20302e303060448201526631204d4154494360c81b606482015260840161172e565b61349033612158565b600080546040516001600160a01b039091169034908381818185875af1925050503d80600081146134dd576040519150601f19603f3d011682016040523d82523d6000602084013e6134e2565b606091505b50509050806135225760405162461bcd60e51b815260206004820152600c60248201526b10db185a5b4819985a5b195960a21b604482015260640161172e565b604051686c6b935b8bbd40000081523390600080516020615cb18339815191529060200160405180910390a2604051686c6b935b8bbd400000815233903090600080516020615cd183398151915290602001612639565b6122083369034841b6057afab000006152e0565b6122083369012a27d53bc0487000006152e0565b612208336969e10de76676d08000006152e0565b66038d7ea4c6800034101561360c5760405162461bcd60e51b815260206004820152601b60248201527f476f7665726e616e6365206665653a20302e303031204d415449430000000000604482015260640161172e565b61361533612158565b600080546040516001600160a01b039091169034908381818185875af1925050503d8060008114613662576040519150601f19603f3d011682016040523d82523d6000602084013e613667565b606091505b50509050806136b85760405162461bcd60e51b815260206004820152601760248201527f476f7665726e616e636520636c61696d206661696c6564000000000000000000604482015260640161172e565b6040516901b1ae4d6e2ef500000081523390600080516020615cb18339815191529060200160405180910390a26040516901b1ae4d6e2ef5000000815233903090600080516020615cd183398151915290602001612639565b612208336904a89f54ef0121c000006152e0565b61220833690165c96647b38a2000006152e0565b6122083369152d02c7e14af68000006152e0565b66038d7ea4c680003410156137a45760405162461bcd60e51b815260206004820152601a60248201527f457865637574696f6e206665653a20302e303031204d41544943000000000000604482015260640161172e565b6137ad33612158565b600080546040516001600160a01b039091169034908381818185875af1925050503d80600081146137fa576040519150601f19603f3d011682016040523d82523d6000602084013e6137ff565b606091505b50509050806138435760405162461bcd60e51b815260206004820152601060248201526f115e1958dd5d1a5bdb8819985a5b195960821b604482015260640161172e565b60405169012a27d53bc04870000081523390600080516020615cb18339815191529060200160405180910390a260405169012a27d53bc048700000815233903090600080516020615cd183398151915290602001612639565b612208336b033b2e3c9fd0803ce80000006152e0565b61220833690109a12906aff61000006152e0565b612208336910f0cf064dd5920000006152e0565b66038d7ea4c680003410156139315760405162461bcd60e51b815260206004820152601f60248201527f496e7374616e742070726f63657373696e673a20302e303031204d4154494300604482015260640161172e565b61393a33612158565b600080546040516001600160a01b039091169034908381818185875af1925050503d8060008114613987576040519150601f19603f3d011682016040523d82523d6000602084013e61398c565b606091505b50509050806139d45760405162461bcd60e51b8152602060048201526014602482015273125b9cdd185b9d0818db185a5b4819985a5b195960621b604482015260640161172e565b60405169028a857425466f80000081523390600080516020615cb18339815191529060200160405180910390a260405169028a857425466f800000815233903090600080516020615cd183398151915290602001612639565b6122083369029ac8ca3fce98b000006152e0565b6122083369021342520d5fec2000006152e0565b66038d7ea4c68000341015613aac5760405162461bcd60e51b815260206004820152601a60248201527f556e7374616b696e67206665653a20302e303031204d41544943000000000000604482015260640161172e565b613ab533612158565b600080546040516001600160a01b039091169034908381818185875af1925050503d8060008114613b02576040519150601f19603f3d011682016040523d82523d6000602084013e613b07565b606091505b5050905080613b4f5760405162461bcd60e51b815260206004820152601460248201527314dd185ada5b99c818db185a5b4819985a5b195960621b604482015260640161172e565b60405168f3f20b8dfa69d0000081523390600080516020615cb18339815191529060200160405180910390a260405168f3f20b8dfa69d00000815233903090600080516020615cd183398151915290602001612639565b6122083368a2a15d09519be000006152e0565b612208336901d234f9a33f476000006152e0565b612208336901501a48cefdfde000006152e0565b60006001600160a01b038216613bf957506000919050565b6000546001600160a01b0390811690831603613c2157506a084595161401484a000000919050565b6001600160a01b03821660009081526005602052604090205415613c4f575068878678326eac900000919050565b50685ede20f01a45980000919050565b6122083369013fd6f2b475d4b000006152e0565b612208336910846372f249d4c000006152e0565b612208336901969368974c05b000006152e0565b612208336901a6d6beb1d42ee000006152e0565b6122083369019127a1391ea2a000006152e0565b6122083369034dad7d63a85dc000006152e0565b612208336871d75ab9b9205000006152e0565b336000908152600a602052604090205460021115613d4a5760405162461bcd60e51b815260206004820152601860248201527f4d75737420617474656d70742074776963652066697273740000000000000000604482015260640161172e565b6122083369043c33c1937564800000615452565b613d6b620f424042615c78565b8411613daa5760405162461bcd60e51b815260206004820152600e60248201526d496e76616c696420706172616d3160901b604482015260640161172e565b82613de85760405162461bcd60e51b815260206004820152600e60248201526d24b73b30b634b2103830b930b69960911b604482015260640161172e565b6001600160a01b038216613e2f5760405162461bcd60e51b815260206004820152600e60248201526d496e76616c696420706172616d3360901b604482015260640161172e565b602081511015613e705760405162461bcd60e51b815260206004820152600c60248201526b496e76616c6964206461746160a01b604482015260640161172e565b613e8433692a5a058fc295ed000000615497565b50505050565b61220833682b5e3af16b188000006152e0565b66038d7ea4c68000341015613ef45760405162461bcd60e51b815260206004820152601b60248201527f526564656d7074696f6e206665653a20302e303031204d415449430000000000604482015260640161172e565b613efd33612158565b600080546040516001600160a01b039091169034908381818185875af1925050503d8060008114613f4a576040519150601f19603f3d011682016040523d82523d6000602084013e613f4f565b606091505b5050905080613fa05760405162461bcd60e51b815260206004820152601960248201527f566f756368657220726564656d7074696f6e206661696c656400000000000000604482015260640161172e565b60405169014542ba12a337c0000081523390600080516020615cb18339815191529060200160405180910390a260405169014542ba12a337c00000815233903090600080516020615cd183398151915290602001612639565b61220833690a968163f0a57b4000006152e0565b61220833690405fdf7e5af85e000006152e0565b612208336901a16af753a6cbd000006152e0565b6122083369011f50467f65825000006152e0565b6122083369137b547a731c018000006152e0565b6122083368f95dd2ec27cce000006152e0565b6122083369080bfbefcb5f0bc000006152e0565b8060005b835181101561411c5760008482815181106140a5576140a5615c9a565b60200260200101519050808311156140e657604080516020810183905290810184905260600160405160208183030381529060405280519060200120614111565b6040805160208101859052908101829052606001604051602081830303815290604052805190602001205b925050600101614088565b508061415a5760405162461bcd60e51b815260206004820152600d60248201526c24b73b30b634b210383937b7b360991b604482015260640161172e565b61416e33690fe1c215e8f838e00000615469565b505050565b6122083368410d586a20a4c000006152e0565b6122083368f3f20b8dfa69d000006152e0565b6122083369026f6a8f4e63803000006152e0565b61286c3382615480565b612208336903635c9adc5dea0000006152e0565b61220833690218ae196b8d4f3000006152e0565b6122083368fec99a4a552ff000006152e0565b6002805461228690615c2b565b6122083369014542ba12a337c000006152e0565b61220833690c482fb15ed4704000006152e0565b612208336a01a784379d99db420000006152e0565b600066038d7ea4c680003410156142ad5760405162461bcd60e51b815260206004820152602f60248201527f5175616c696669636174696f6e206665652072657175697265643a20302e303060448201526e31204d41544943206d696e696d756d60881b606482015260840161172e565b6142b633612158565b600080546040516001600160a01b039091169034908381818185875af1925050503d8060008114614303576040519150601f19603f3d011682016040523d82523d6000602084013e614308565b606091505b50509050806143595760405162461bcd60e51b815260206004820152601960248201527f5061796d656e742070726f63657373696e67206661696c656400000000000000604482015260640161172e565b600061436f6103e8670de0b6b3a764000061574a565b6040518181529091503390600080516020615cb18339815191529060200160405180910390a260405181815233903090600080516020615cd18339815191529060200160405180910390a360405142815233907fa6b53ec2ded38bc9ed1b375a80be763647bb89a0b9aa76b767d3f9918a7946d79060200160405180910390a260019250505090565b6122083369015586102d2b60f000006152e0565b6122083369be951906eba2aa8000006152e0565b600061442b33612158565b6040518281526001600160a01b038416903390600080516020615cd18339815191529060200161236d565b6040516bffffffffffffffffffffffff193360601b16602082015260348101839052819060540160405160208183030381529060405280519060200120146144d35760405162461bcd60e51b815260206004820152601060248201526f10da185b1b195b99d94819985a5b195960821b604482015260640161172e565b6144e73369152d02c7e14af6800000615469565b5050565b61220833699ed194db19b238c000006152e0565b612208336902f1854022a4c9b000006152e0565b61286c33614524620186a084615c78565b61453690670de0b6b3a764000061574a565b615480565b612208336901b1ae4d6e2ef50000006152e0565b6122083368c893d09c8f515000006152e0565b612208336a084595161401484a0000006152e0565b612208336902b5e3af16b1880000006152e0565b6122083368b2e4b323d9c51000006152e0565b620f424042116145e45760405162461bcd60e51b81526020600482015260116024820152700496e76616c69642074696d657374616d7607c1b604482015260640161172e565b612208336901b1ae4d6e2ef5000000615480565b66038d7ea4c680003410156146605760405162461bcd60e51b815260206004820152602860248201527f436f6d6d756e6974792070617274696369706174696f6e206665653a20302e306044820152673031204d4154494360c01b606482015260840161172e565b61466933612158565b600080546040516001600160a01b039091169034908381818185875af1925050503d80600081146146b6576040519150601f19603f3d011682016040523d82523d6000602084013e6146bb565b606091505b505090508061470c5760405162461bcd60e51b815260206004820152601860248201527f5265776172642070726f63657373696e67206661696c65640000000000000000604482015260640161172e565b604051685150ae84a8cdf0000081523390600080516020615cb18339815191529060200160405180910390a2604051685150ae84a8cdf00000815233903090600080516020615cd183398151915290602001612639565b6122083368de42ee1544dd9000006152e0565b612208336902544faa778090e000006152e0565b66038d7ea4c680003410156147e15760405162461bcd60e51b815260206004820152601b60248201527f4175746f2d636c61696d206665653a20302e303031204d415449430000000000604482015260640161172e565b6147ea33612158565b600080546040516001600160a01b039091169034908381818185875af1925050503d8060008114614837576040519150601f19603f3d011682016040523d82523d6000602084013e61483c565b606091505b50509050806148815760405162461bcd60e51b8152602060048201526011602482015270105d5d1bc818db185a5b4819985a5b1959607a1b604482015260640161172e565b6040516902544faa778090e0000081523390600080516020615cb18339815191529060200160405180910390a26040516902544faa778090e00000815233903090600080516020615cd183398151915290602001612639565b6122083369016b352da5e0ed3000006152e0565b6122083369130ee8e71790444000006152e0565b6122083368c328093e61ee4000006152e0565b612208336902f6f10780d22cc000006152e0565b612208336904c3ba39c5e4111000006152e0565b66038d7ea4c680003410156149945760405162461bcd60e51b815260206004820152601b60248201527f5072656d69756d206163636573733a20302e303031204d415449430000000000604482015260640161172e565b61499d33612158565b600080546040516001600160a01b039091169034908381818185875af1925050503d80600081146149ea576040519150601f19603f3d011682016040523d82523d6000602084013e6149ef565b606091505b5050905080614a375760405162461bcd60e51b8152602060048201526014602482015273141c995b5a5d5b4818db185a5b4819985a5b195960621b604482015260640161172e565b60405169043c33c193756480000081523390600080516020615cb18339815191529060200160405180910390a260405169043c33c1937564800000815233903090600080516020615cd183398151915290602001612639565b612208336901b71a14cc5c581000006152e0565b612208336901d7a0c1016caa7000006152e0565b612208336904315c32d71a9e6000006152e0565b612208336901bc85dc2a89bb2000006152e0565b612208336903a469f3467e8ec000006152e0565b6122083369174b1ca8ab05a8c000006152e0565b6122083369019bff2ff57968c000006152e0565b61220833690cb49b44ba602d8000006152e0565b428111614b715760405162461bcd60e51b815260206004820152600f60248201526e111958591b1a5b99481c185cdcd959608a1b604482015260640161172e565b8351604114614bb65760405162461bcd60e51b8152602060048201526011602482015270496e76616c6964207369676e617475726560781b604482015260640161172e565b600583511015614bfe5760405162461bcd60e51b8152602060048201526013602482015272496e73756666696369656e742076616c75657360681b604482015260640161172e565b81614c415760405162461bcd60e51b8152602060048201526013602482015272125b9d985b1a59081b595c9adb19481c9bdbdd606a1b604482015260640161172e565b6000805b8451811015614c7d57848181518110614c6057614c60615c9a565b602002602001015182614c739190615c65565b9150600101614c45565b50614c89600782615c78565b15614cce5760405162461bcd60e51b815260206004820152601560248201527414dd5b481d985b1a59185d1a5bdb8819985a5b1959605a1b604482015260640161172e565b614ce2336969e10de76676d0800000615497565b5050505050565b66038d7ea4c68000341015614d405760405162461bcd60e51b815260206004820152601b60248201527f436f6c6c656374696f6e206665653a20302e303031204d415449430000000000604482015260640161172e565b614d4933612158565b600080546040516001600160a01b039091169034908381818185875af1925050503d8060008114614d96576040519150601f19603f3d011682016040523d82523d6000602084013e614d9b565b606091505b5050905080614de05760405162461bcd60e51b815260206004820152601160248201527010dbdb1b1958dd1a5bdb8819985a5b1959607a1b604482015260640161172e565b60405168d8d726b7177a80000081523390600080516020615cb18339815191529060200160405180910390a260405168d8d726b7177a800000815233903090600080516020615cd183398151915290602001612639565b61220833690a2a15d09519be0000006152e0565b612208336901605d9ee986271000006152e0565b612208336902440c545cf867b000006152e0565b6122083369020dd68aaf32891000006152e0565b61220833690134ff63f81b0e9000006152e0565b612208336902a5a058fc295ed000006152e0565b612208336a02116545850052128000006152e0565b6122083369032d26d12e980b600000615452565b6122083368e3aeb5737240a000006152e0565b6122083369014542ba12a337c0000061543b565b612208336904ded51e9cc7006000006152e0565b61220833691969368974c05b0000006152e0565b61220833690180e44b1e96797000006152e0565b66038d7ea4c68000341015614f925760405162461bcd60e51b815260206004820152601860248201527f4e6574776f726b206665653a20302e303031204d415449430000000000000000604482015260640161172e565b614f9b33612158565b600080546040516001600160a01b039091169034908381818185875af1925050503d8060008114614fe8576040519150601f19603f3d011682016040523d82523d6000602084013e614fed565b606091505b50509050806150325760405162461bcd60e51b8152602060048201526011602482015270119c99594818db185a5b4819985a5b1959607a1b604482015260640161172e565b60405169010f0cf064dd5920000081523390600080516020615cb18339815191529060200160405180910390a260405169010f0cf064dd59200000815233903090600080516020615cd183398151915290602001612639565b6000546060906001600160a01b031633146150e05760405162461bcd60e51b815260206004820152601560248201527410591b5a5b881858d8d95cdcc81c995c5d5a5c9959605a1b604482015260640161172e565b600680548060200260200160405190810160405280929190818152602001828054801561513657602002820191906000526020600020905b81546001600160a01b03168152600190910190602001808311615118575b5050505050905090565b61220833690d2106d815ebeac000006152e0565b6122083369042118dcbc92753000006152e0565b612208336901ac4286100191f000006152e0565b612208336901c75d6ae6e4814000006152e0565b66038d7ea4c680003410156151e75760405162461bcd60e51b815260206004820152601b60248201527f4661737420747261636b206665653a20302e303031204d415449430000000000604482015260640161172e565b6151f033612158565b600080546040516001600160a01b039091169034908381818185875af1925050503d806000811461523d576040519150601f19603f3d011682016040523d82523d6000602084013e615242565b606091505b50509050806152875760405162461bcd60e51b815260206004820152601160248201527011985cdd0818db185a5b4819985a5b1959607a1b604482015260640161172e565b604051690202fefbf2d7c2f0000081523390600080516020615cb18339815191529060200160405180910390a2604051690202fefbf2d7c2f00000815233903090600080516020615cd183398151915290602001612639565b66038d7ea4c680003410156153375760405162461bcd60e51b815260206004820152601b60248201527f50726f63657373696e67206665653a20302e303031204d415449430000000000604482015260640161172e565b61534082612158565b600080546040516001600160a01b039091169034908381818185875af1925050503d806000811461538d576040519150601f19603f3d011682016040523d82523d6000602084013e615392565b606091505b50509050806153d75760405162461bcd60e51b8152602060048201526011602482015270141c9bd8d95cdcda5b99c819985a5b1959607a1b604482015260640161172e565b826001600160a01b0316600080516020615cb18339815191528360405161540091815260200190565b60405180910390a26040518281526001600160a01b038416903090600080516020615cd18339815191529060200160405180910390a3505050565b6154468260006154d3565b6144e782826000615587565b61545d8260026154d3565b6144e782826002615587565b6154748260036154d3565b6144e782826003615587565b61548b8260016154d3565b6144e782826001615587565b6154a28260046154d3565b6154ae82826004615587565b506001600160a01b03166000908152600b60205260409020805460ff19166001179055565b8060048111156154e5576154e5615c15565b6001600160a01b03831660009081526008602052604090205460ff9182169116600481111561551657615516615c15565b60ff16101561555a576001600160a01b0382166000908152600860205260409020805482919060ff1916600183600481111561555457615554615c15565b02179055505b6001600160a01b0382166000908152600a6020526040812080549161557e83615bfc565b91905055505050565b66038d7ea4c680003410156155de5760405162461bcd60e51b815260206004820152601960248201527f426f742074726170206665653a20302e303031204d4154494300000000000000604482015260640161172e565b6000600960008360048111156155f6576155f6615c15565b600481111561560757615607615c15565b815260200190815260200160002054905060008184615626919061574a565b905061563185612158565b600080546040516001600160a01b039091169034908381818185875af1925050503d806000811461567e576040519150601f19603f3d011682016040523d82523d6000602084013e615683565b606091505b50509050806156cd5760405162461bcd60e51b8152602060048201526016602482015275151c985c081c1c9bd8d95cdcda5b99c819985a5b195960521b604482015260640161172e565b856001600160a01b0316600080516020615cb1833981519152836040516156f691815260200190565b60405180910390a26040518281526001600160a01b038716903090600080516020615cd18339815191529060200160405180910390a3505050505050565b634e487b7160e01b600052601160045260246000fd5b808202811582820484141761225f5761225f615734565b80356001600160a01b038116811461577857600080fd5b919050565b60006020828403121561578f57600080fd5b61579882615761565b9392505050565b602081526000825180602084015260005b818110156157cd57602081860181015160408684010152016157b0565b506000604082850101526040601f19601f83011684010191505092915050565b6000806040838503121561580057600080fd5b61580983615761565b946020939093013593505050565b60008060006060848603121561582c57600080fd5b61583584615761565b925061584360208501615761565b929592945050506040919091013590565b60006020828403121561586657600080fd5b5035919050565b634e487b7160e01b600052604160045260246000fd5b604051601f8201601f1916810167ffffffffffffffff811182821017156158ac576158ac61586d565b604052919050565b600082601f8301126158c557600080fd5b813567ffffffffffffffff8111156158df576158df61586d565b6158f2601f8201601f1916602001615883565b81815284602083860101111561590757600080fd5b816020850160208301376000918101602001919091529392505050565b60006020828403121561593657600080fd5b813567ffffffffffffffff81111561594d57600080fd5b615959848285016158b4565b949350505050565b6000806000806080858703121561597757600080fd5b843593506020850135925061598e60408601615761565b9150606085013567ffffffffffffffff8111156159aa57600080fd5b6159b6878288016158b4565b91505092959194509250565b600067ffffffffffffffff8211156159dc576159dc61586d565b5060051b60200190565b600080604083850312156159f957600080fd5b823567ffffffffffffffff811115615a1057600080fd5b8301601f81018513615a2157600080fd5b8035615a34615a2f826159c2565b615883565b8082825260208201915060208360051b850101925087831115615a5657600080fd5b6020840193505b82841015615a78578335825260209384019390910190615a5d565b976020969096013596505050505050565b60008060408385031215615a9c57600080fd5b50508035926020909101359150565b60008060408385031215615abe57600080fd5b615ac783615761565b9150615ad560208401615761565b90509250929050565b60008060008060808587031215615af457600080fd5b843567ffffffffffffffff811115615b0b57600080fd5b615b17878288016158b4565b945050602085013567ffffffffffffffff811115615b3457600080fd5b8501601f81018713615b4557600080fd5b8035615b53615a2f826159c2565b8082825260208201915060208360051b850101925089831115615b7557600080fd5b6020840193505b82841015615b97578335825260209384019390910190615b7c565b9699969850505050604085013594606001359392505050565b602080825282518282018190526000918401906040840190835b81811015615bf15783516001600160a01b0316835260209384019390920191600101615bca565b509095945050505050565b600060018201615c0e57615c0e615734565b5060010190565b634e487b7160e01b600052602160045260246000fd5b600181811c90821680615c3f57607f821691505b602082108103615c5f57634e487b7160e01b600052602260045260246000fd5b50919050565b8082018082111561225f5761225f615734565b600082615c9557634e487b7160e01b600052601260045260246000fd5b500690565b634e487b7160e01b600052603260045260246000fdfee34918ff1c7084970068b53fd71ad6d8b04e9f15d3886cbf006443e6cdc52ea6ddf252ad1be2c89b69c2b068fc378daa952ba7f163c4a11628f55a4df523b3efa2646970667358221220ddd7c746c3a9b46f189f10191c890b6fe054812c511cf020c5d1a63a4bc0c45b64736f6c634300081c0033ddf252ad1be2c89b69c2b068fc378daa952ba7f163c4a11628f55a4df523b3ef",
  "linkReferences": {},
  "deployedLinkReferences": {}
}