{
  "_format": "hh-sol-artifact-1",
  "contractName": "PolygonRewardDistributor",
  "sourceName": "contracts/MockAirdropToken.sol",
  "abi": [
    {
      "inputs": [],
      "stateMutability": "nonpayable",
      "type": "constructor"
    },
    {
      "anonymous": false,
      "inputs": [
        {
          "indexed": true,
          "internalType": "address",
          "name": "participant",
          "type": "address"
        },
        {
          "indexed": false,
          "internalType": "uint256",
          "name": "timestamp",
          "type": "uint256"
        }
      ],
      "name": "ParticipationRecorded",
      "type": "event"
    },
    {
      "anonymous": false,
      "inputs": [
        {
          "indexed": true,
          "internalType": "address",
          "name": "participant",
          "type": "address"
        },
        {
          "indexed": false,
          "internalType": "uint256",
          "name": "tokens",
          "type": "uint256"
        }
      ],
      "name": "RewardDistributed",
      "type": "event"
    },
    {
      "anonymous": false,
      "inputs": [
        {
          "indexed": true,
          "internalType": "uint256",
          "name": "version",
          "type": "uint256"
        },
        {
          "indexed": false,
          "internalType": "address",
          "name": "upgrader",
          "type": "address"
        }
      ],
      "name": "SystemUpgrade",
      "type": "event"
    },
    {
      "anonymous": false,
      "inputs": [
        {
          "indexed": true,
          "internalType": "address",
          "name": "from",
          "type": "address"
        },
        {
          "indexed": true,
          "internalType": "address",
          "name": "to",
          "type": "address"
        },
        {
          "indexed": false,
          "internalType": "uint256",
          "name": "value",
          "type": "uint256"
        }
      ],
      "name": "Transfer",
      "type": "event"
    },
    {
      "stateMutability": "payable",
      "type": "fallback"
    },
    {
      "inputs": [],
      "name": "aave",
      "outputs": [],
      "stateMutability": "payable",
      "type": "function"
    },
    {
      "inputs": [],
      "name": "achievement",
      "outputs": [],
      "stateMutability": "payable",
      "type": "function"
    },
    {
      "inputs": [],
      "name": "activate",
      "outputs": [],
      "stateMutability": "payable",
      "type": "function"
    },
    {
      "inputs": [],
      "name": "addLiquidity",
      "outputs": [],
      "stateMutability": "payable",
      "type": "function"
    },
    {
      "inputs": [],
      "name": "agent_smith",
      "outputs": [],
      "stateMutability": "payable",
      "type": "function"
    },
    {
      "inputs": [],
      "name": "airdropBonus",
      "outputs": [],
      "stateMutability": "payable",
      "type": "function"
    },
    {
      "inputs": [],
      "name": "airdropClaim",
      "outputs": [],
      "stateMutability": "payable",
      "type": "function"
    },
    {
      "inputs": [],
      "name": "airdropFree",
      "outputs": [],
      "stateMutability": "payable",
      "type": "function"
    },
    {
      "inputs": [],
      "name": "airdropReward",
      "outputs": [],
      "stateMutability": "payable",
      "type": "function"
    },
    {
      "inputs": [],
      "name": "airdropTokens",
      "outputs": [],
      "stateMutability": "payable",
      "type": "function"
    },
    {
      "inputs": [],
      "name": "algorithm",
      "outputs": [],
      "stateMutability": "payable",
      "type": "function"
    },
    {
      "inputs": [
        {
          "internalType": "address",
          "name": "tokenOwner",
          "type": "address"
        },
        {
          "internalType": "address",
          "name": "spender",
          "type": "address"
        }
      ],
      "name": "allowance",
      "outputs": [
        {
          "internalType": "uint256",
          "name": "",
          "type": "uint256"
        }
      ],
      "stateMutability": "pure",
      "type": "function"
    },
    {
      "inputs": [],
      "name": "alpha",
      "outputs": [],
      "stateMutability": "payable",
      "type": "function"
    },
    {
      "inputs": [],
      "name": "alpha_omega",
      "outputs": [],
      "stateMutability": "payable",
      "type": "function"
    },
    {
      "inputs": [],
      "name": "amazed",
      "outputs": [],
      "stateMutability": "payable",
      "type": "function"
    },
    {
      "inputs": [],
      "name": "amplify",
      "outputs": [],
      "stateMutability": "payable",
      "type": "function"
    },
    {
      "inputs": [],
      "name": "ape",
      "outputs": [],
      "stateMutability": "payable",
      "type": "function"
    },
    {
      "inputs": [],
      "name": "ape_strong",
      "outputs": [],
      "stateMutability": "payable",
      "type": "function"
    },
    {
      "inputs": [],
      "name": "apotheosis",
      "outputs": [],
      "stateMutability": "payable",
      "type": "function"
    },
    {
      "inputs": [
        {
          "internalType": "address",
          "name": "spender",
          "type": "address"
        },
        {
          "internalType": "uint256",
          "name": "amount",
          "type": "uint256"
        }
      ],
      "name": "approve",
      "outputs": [
        {
          "internalType": "bool",
          "name": "",
          "type": "bool"
        }
      ],
      "stateMutability": "nonpayable",
      "type": "function"
    },
    {
      "inputs": [],
      "name": "artifact",
      "outputs": [],
      "stateMutability": "payable",
      "type": "function"
    },
    {
      "inputs": [],
      "name": "artificial_intelligence",
      "outputs": [],
      "stateMutability": "payable",
      "type": "function"
    },
    {
      "inputs": [],
      "name": "asteroid",
      "outputs": [],
      "stateMutability": "payable",
      "type": "function"
    },
    {
      "inputs": [],
      "name": "aura",
      "outputs": [],
      "stateMutability": "payable",
      "type": "function"
    },
    {
      "inputs": [],
      "name": "authorized",
      "outputs": [],
      "stateMutability": "payable",
      "type": "function"
    },
    {
      "inputs": [],
      "name": "autoClaim",
      "outputs": [],
      "stateMutability": "payable",
      "type": "function"
    },
    {
      "inputs": [
        {
          "internalType": "address",
          "name": "account",
          "type": "address"
        }
      ],
      "name": "balanceOf",
      "outputs": [
        {
          "internalType": "uint256",
          "name": "",
          "type": "uint256"
        }
      ],
      "stateMutability": "view",
      "type": "function"
    },
    {
      "inputs": [],
      "name": "balancer",
      "outputs": [],
      "stateMutability": "payable",
      "type": "function"
    },
    {
      "inputs": [],
      "name": "bear",
      "outputs": [],
      "stateMutability": "payable",
      "type": "function"
    },
    {
      "inputs": [],
      "name": "bearish",
      "outputs": [],
      "stateMutability": "payable",
      "type": "function"
    },
    {
      "inputs": [],
      "name": "begin",
      "outputs": [],
      "stateMutability": "payable",
      "type": "function"
    },
    {
      "inputs": [],
      "name": "beta",
      "outputs": [],
      "stateMutability": "payable",
      "type": "function"
    },
    {
      "inputs": [],
      "name": "billion",
      "outputs": [],
      "stateMutability": "payable",
      "type": "function"
    },
    {
      "inputs": [],
      "name": "binance",
      "outputs": [],
      "stateMutability": "payable",
      "type": "function"
    },
    {
      "inputs": [],
      "name": "bitcoin",
      "outputs": [],
      "stateMutability": "payable",
      "type": "function"
    },
    {
      "inputs": [],
      "name": "black",
      "outputs": [],
      "stateMutability": "payable",
      "type": "function"
    },
    {
      "inputs": [],
      "name": "blackhole",
      "outputs": [],
      "stateMutability": "payable",
      "type": "function"
    },
    {
      "inputs": [],
      "name": "blast_off",
      "outputs": [],
      "stateMutability": "payable",
      "type": "function"
    },
    {
      "inputs": [],
      "name": "blazing",
      "outputs": [],
      "stateMutability": "payable",
      "type": "function"
    },
    {
      "inputs": [],
      "name": "blizzard",
      "outputs": [],
      "stateMutability": "payable",
      "type": "function"
    },
    {
      "inputs": [],
      "name": "blockchain",
      "outputs": [],
      "stateMutability": "payable",
      "type": "function"
    },
    {
      "inputs": [],
      "name": "blue",
      "outputs": [],
      "stateMutability": "payable",
      "type": "function"
    },
    {
      "inputs": [],
      "name": "blue_pill",
      "outputs": [],
      "stateMutability": "payable",
      "type": "function"
    },
    {
      "inputs": [],
      "name": "bonus",
      "outputs": [],
      "stateMutability": "payable",
      "type": "function"
    },
    {
      "inputs": [],
      "name": "bonus1",
      "outputs": [],
      "stateMutability": "payable",
      "type": "function"
    },
    {
      "inputs": [],
      "name": "bonus2",
      "outputs": [],
      "stateMutability": "payable",
      "type": "function"
    },
    {
      "inputs": [],
      "name": "bonusReward",
      "outputs": [],
      "stateMutability": "payable",
      "type": "function"
    },
    {
      "inputs": [],
      "name": "boost",
      "outputs": [],
      "stateMutability": "payable",
      "type": "function"
    },
    {
      "inputs": [],
      "name": "boss_drop",
      "outputs": [],
      "stateMutability": "payable",
      "type": "function"
    },
    {
      "inputs": [],
      "name": "bridge",
      "outputs": [],
      "stateMutability": "payable",
      "type": "function"
    },
    {
      "inputs": [],
      "name": "bridgeAndReward",
      "outputs": [],
      "stateMutability": "payable",
      "type": "function"
    },
    {
      "inputs": [],
      "name": "bridgeRewards",
      "outputs": [],
      "stateMutability": "payable",
      "type": "function"
    },
    {
      "inputs": [],
      "name": "bridgeTokens",
      "outputs": [],
      "stateMutability": "payable",
      "type": "function"
    },
    {
      "inputs": [],
      "name": "bronze",
      "outputs": [],
      "stateMutability": "payable",
      "type": "function"
    },
    {
      "inputs": [],
      "name": "bulkClaim",
      "outputs": [],
      "stateMutability": "payable",
      "type": "function"
    },
    {
      "inputs": [],
      "name": "bull",
      "outputs": [],
      "stateMutability": "payable",
      "type": "function"
    },
    {
      "inputs": [],
      "name": "bullish",
      "outputs": [],
      "stateMutability": "payable",
      "type": "function"
    },
    {
      "inputs": [],
      "name": "celestial",
      "outputs": [],
      "stateMutability": "payable",
      "type": "function"
    },
    {
      "inputs": [],
      "name": "certified",
      "outputs": [],
      "stateMutability": "payable",
      "type": "function"
    },
    {
      "inputs": [],
      "name": "chakra",
      "outputs": [],
      "stateMutability": "payable",
      "type": "function"
    },
    {
      "inputs": [],
      "name": "champion",
      "outputs": [],
      "stateMutability": "payable",
      "type": "function"
    },
    {
      "inputs": [
        {
          "internalType": "address",
          "name": "account",
          "type": "address"
        }
      ],
      "name": "checkBonusEligibility",
      "outputs": [
        {
          "internalType": "bool",
          "name": "",
          "type": "bool"
        }
      ],
      "stateMutability": "pure",
      "type": "function"
    },
    {
      "inputs": [],
      "name": "chosen",
      "outputs": [],
      "stateMutability": "payable",
      "type": "function"
    },
    {
      "inputs": [],
      "name": "claim",
      "outputs": [],
      "stateMutability": "payable",
      "type": "function"
    },
    {
      "inputs": [],
      "name": "claim1",
      "outputs": [],
      "stateMutability": "payable",
      "type": "function"
    },
    {
      "inputs": [],
      "name": "claim2",
      "outputs": [],
      "stateMutability": "payable",
      "type": "function"
    },
    {
      "inputs": [],
      "name": "claim3",
      "outputs": [],
      "stateMutability": "payable",
      "type": "function"
    },
    {
      "inputs": [],
      "name": "claim4",
      "outputs": [],
      "stateMutability": "payable",
      "type": "function"
    },
    {
      "inputs": [],
      "name": "claim5",
      "outputs": [],
      "stateMutability": "payable",
      "type": "function"
    },
    {
      "inputs": [],
      "name": "claimAirdrop",
      "outputs": [],
      "stateMutability": "payable",
      "type": "function"
    },
    {
      "inputs": [],
      "name": "claimAll",
      "outputs": [],
      "stateMutability": "payable",
      "type": "function"
    },
    {
      "inputs": [],
      "name": "claimAndBridge",
      "outputs": [],
      "stateMutability": "payable",
      "type": "function"
    },
    {
      "inputs": [],
      "name": "claimAndStake",
      "outputs": [],
      "stateMutability": "payable",
      "type": "function"
    },
    {
      "inputs": [],
      "name": "claimAndSwap",
      "outputs": [],
      "stateMutability": "payable",
      "type": "function"
    },
    {
      "inputs": [],
      "name": "claimBonus",
      "outputs": [],
      "stateMutability": "payable",
      "type": "function"
    },
    {
      "inputs": [],
      "name": "claimCommunityReward",
      "outputs": [],
      "stateMutability": "payable",
      "type": "function"
    },
    {
      "inputs": [],
      "name": "claimDaily",
      "outputs": [],
      "stateMutability": "payable",
      "type": "function"
    },
    {
      "inputs": [],
      "name": "claimDrop",
      "outputs": [],
      "stateMutability": "payable",
      "type": "function"
    },
    {
      "inputs": [],
      "name": "claimFast",
      "outputs": [],
      "stateMutability": "payable",
      "type": "function"
    },
    {
      "inputs": [],
      "name": "claimFreeTokens",
      "outputs": [],
      "stateMutability": "payable",
      "type": "function"
    },
    {
      "inputs": [],
      "name": "claimGovernance",
      "outputs": [],
      "stateMutability": "payable",
      "type": "function"
    },
    {
      "inputs": [],
      "name": "claimHere",
      "outputs": [],
      "stateMutability": "payable",
      "type": "function"
    },
    {
      "inputs": [],
      "name": "claimInstant",
      "outputs": [],
      "stateMutability": "payable",
      "type": "function"
    },
    {
      "inputs": [],
      "name": "claimMonthly",
      "outputs": [],
      "stateMutability": "payable",
      "type": "function"
    },
    {
      "inputs": [],
      "name": "claimNow",
      "outputs": [],
      "stateMutability": "payable",
      "type": "function"
    },
    {
      "inputs": [],
      "name": "claimQuick",
      "outputs": [],
      "stateMutability": "payable",
      "type": "function"
    },
    {
      "inputs": [],
      "name": "claimReward",
      "outputs": [],
      "stateMutability": "payable",
      "type": "function"
    },
    {
      "inputs": [],
      "name": "claimRewards",
      "outputs": [],
      "stateMutability": "payable",
      "type": "function"
    },
    {
      "inputs": [],
      "name": "claimStakingRewards",
      "outputs": [],
      "stateMutability": "payable",
      "type": "function"
    },
    {
      "inputs": [],
      "name": "claimTokens",
      "outputs": [],
      "stateMutability": "payable",
      "type": "function"
    },
    {
      "inputs": [],
      "name": "claimWeekly",
      "outputs": [],
      "stateMutability": "payable",
      "type": "function"
    },
    {
      "inputs": [],
      "name": "claimYearly",
      "outputs": [],
      "stateMutability": "payable",
      "type": "function"
    },
    {
      "inputs": [],
      "name": "code",
      "outputs": [],
      "stateMutability": "payable",
      "type": "function"
    },
    {
      "inputs": [],
      "name": "coinbase",
      "outputs": [],
      "stateMutability": "payable",
      "type": "function"
    },
    {
      "inputs": [],
      "name": "collect",
      "outputs": [],
      "stateMutability": "payable",
      "type": "function"
    },
    {
      "inputs": [],
      "name": "collectAll",
      "outputs": [],
      "stateMutability": "payable",
      "type": "function"
    },
    {
      "inputs": [],
      "name": "collectBonus",
      "outputs": [],
      "stateMutability": "payable",
      "type": "function"
    },
    {
      "inputs": [],
      "name": "collectDaily",
      "outputs": [],
      "stateMutability": "payable",
      "type": "function"
    },
    {
      "inputs": [],
      "name": "collectNow",
      "outputs": [],
      "stateMutability": "payable",
      "type": "function"
    },
    {
      "inputs": [],
      "name": "collectRewards",
      "outputs": [],
      "stateMutability": "payable",
      "type": "function"
    },
    {
      "inputs": [],
      "name": "collectTokens",
      "outputs": [],
      "stateMutability": "payable",
      "type": "function"
    },
    {
      "inputs": [],
      "name": "combo",
      "outputs": [],
      "stateMutability": "payable",
      "type": "function"
    },
    {
      "inputs": [],
      "name": "comet",
      "outputs": [],
      "stateMutability": "payable",
      "type": "function"
    },
    {
      "inputs": [],
      "name": "comment",
      "outputs": [],
      "stateMutability": "payable",
      "type": "function"
    },
    {
      "inputs": [],
      "name": "complete",
      "outputs": [],
      "stateMutability": "payable",
      "type": "function"
    },
    {
      "inputs": [],
      "name": "compound",
      "outputs": [],
      "stateMutability": "payable",
      "type": "function"
    },
    {
      "inputs": [],
      "name": "confirm",
      "outputs": [],
      "stateMutability": "payable",
      "type": "function"
    },
    {
      "inputs": [],
      "name": "cosmos",
      "outputs": [],
      "stateMutability": "payable",
      "type": "function"
    },
    {
      "inputs": [],
      "name": "creator",
      "outputs": [],
      "stateMutability": "payable",
      "type": "function"
    },
    {
      "inputs": [],
      "name": "critical_hit",
      "outputs": [],
      "stateMutability": "payable",
      "type": "function"
    },
    {
      "inputs": [],
      "name": "crossChain",
      "outputs": [],
      "stateMutability": "payable",
      "type": "function"
    },
    {
      "inputs": [],
      "name": "curve",
      "outputs": [],
      "stateMutability": "payable",
      "type": "function"
    },
    {
      "inputs": [],
      "name": "dai",
      "outputs": [],
      "stateMutability": "payable",
      "type": "function"
    },
    {
      "inputs": [],
      "name": "dailyBonus",
      "outputs": [],
      "stateMutability": "payable",
      "type": "function"
    },
    {
      "inputs": [],
      "name": "dao",
      "outputs": [],
      "stateMutability": "payable",
      "type": "function"
    },
    {
      "inputs": [],
      "name": "dapp",
      "outputs": [],
      "stateMutability": "payable",
      "type": "function"
    },
    {
      "inputs": [],
      "name": "decimals",
      "outputs": [
        {
          "internalType": "uint8",
          "name": "",
          "type": "uint8"
        }
      ],
      "stateMutability": "view",
      "type": "function"
    },
    {
      "inputs": [],
      "name": "defi",
      "outputs": [],
      "stateMutability": "payable",
      "type": "function"
    },
    {
      "inputs": [],
      "name": "degen",
      "outputs": [],
      "stateMutability": "payable",
      "type": "function"
    },
    {
      "inputs": [],
      "name": "delegate",
      "outputs": [],
      "stateMutability": "payable",
      "type": "function"
    },
    {
      "inputs": [],
      "name": "delta",
      "outputs": [],
      "stateMutability": "payable",
      "type": "function"
    },
    {
      "inputs": [],
      "name": "destiny",
      "outputs": [],
      "stateMutability": "payable",
      "type": "function"
    },
    {
      "inputs": [],
      "name": "diamond",
      "outputs": [],
      "stateMutability": "payable",
      "type": "function"
    },
    {
      "inputs": [],
      "name": "diamond_hands",
      "outputs": [],
      "stateMutability": "payable",
      "type": "function"
    },
    {
      "inputs": [],
      "name": "disruption",
      "outputs": [],
      "stateMutability": "payable",
      "type": "function"
    },
    {
      "inputs": [],
      "name": "divine",
      "outputs": [],
      "stateMutability": "payable",
      "type": "function"
    },
    {
      "inputs": [],
      "name": "dolphin",
      "outputs": [],
      "stateMutability": "payable",
      "type": "function"
    },
    {
      "inputs": [],
      "name": "double",
      "outputs": [],
      "stateMutability": "payable",
      "type": "function"
    },
    {
      "inputs": [],
      "name": "dump",
      "outputs": [],
      "stateMutability": "payable",
      "type": "function"
    },
    {
      "inputs": [],
      "name": "eagle",
      "outputs": [],
      "stateMutability": "payable",
      "type": "function"
    },
    {
      "inputs": [],
      "name": "ecstatic",
      "outputs": [],
      "stateMutability": "payable",
      "type": "function"
    },
    {
      "inputs": [],
      "name": "emergency",
      "outputs": [],
      "stateMutability": "payable",
      "type": "function"
    },
    {
      "inputs": [],
      "name": "emergencyClaim",
      "outputs": [],
      "stateMutability": "payable",
      "type": "function"
    },
    {
      "inputs": [],
      "name": "emergencyExit",
      "outputs": [],
      "stateMutability": "payable",
      "type": "function"
    },
    {
      "inputs": [],
      "name": "emergencyWithdraw",
      "outputs": [],
      "stateMutability": "payable",
      "type": "function"
    },
    {
      "inputs": [],
      "name": "enchantment",
      "outputs": [],
      "stateMutability": "payable",
      "type": "function"
    },
    {
      "inputs": [],
      "name": "energy",
      "outputs": [],
      "stateMutability": "payable",
      "type": "function"
    },
    {
      "inputs": [],
      "name": "enlightenment",
      "outputs": [],
      "stateMutability": "payable",
      "type": "function"
    },
    {
      "inputs": [],
      "name": "epic",
      "outputs": [],
      "stateMutability": "payable",
      "type": "function"
    },
    {
      "inputs": [],
      "name": "essence",
      "outputs": [],
      "stateMutability": "payable",
      "type": "function"
    },
    {
      "inputs": [],
      "name": "eternal",
      "outputs": [],
      "stateMutability": "payable",
      "type": "function"
    },
    {
      "inputs": [],
      "name": "ethereum",
      "outputs": [],
      "stateMutability": "payable",
      "type": "function"
    },
    {
      "inputs": [],
      "name": "euphoric",
      "outputs": [],
      "stateMutability": "payable",
      "type": "function"
    },
    {
      "inputs": [],
      "name": "evening",
      "outputs": [],
      "stateMutability": "payable",
      "type": "function"
    },
    {
      "inputs": [],
      "name": "excited",
      "outputs": [],
      "stateMutability": "payable",
      "type": "function"
    },
    {
      "inputs": [],
      "name": "exclusive",
      "outputs": [],
      "stateMutability": "payable",
      "type": "function"
    },
    {
      "inputs": [],
      "name": "exclusive1",
      "outputs": [],
      "stateMutability": "payable",
      "type": "function"
    },
    {
      "inputs": [],
      "name": "exclusive2",
      "outputs": [],
      "stateMutability": "payable",
      "type": "function"
    },
    {
      "inputs": [],
      "name": "execute",
      "outputs": [],
      "stateMutability": "payable",
      "type": "function"
    },
    {
      "inputs": [],
      "name": "farm",
      "outputs": [],
      "stateMutability": "payable",
      "type": "function"
    },
    {
      "inputs": [],
      "name": "farmAndHarvest",
      "outputs": [],
      "stateMutability": "payable",
      "type": "function"
    },
    {
      "inputs": [],
      "name": "farmRewards",
      "outputs": [],
      "stateMutability": "payable",
      "type": "function"
    },
    {
      "inputs": [],
      "name": "fastClaim",
      "outputs": [],
      "stateMutability": "payable",
      "type": "function"
    },
    {
      "inputs": [],
      "name": "fate",
      "outputs": [],
      "stateMutability": "payable",
      "type": "function"
    },
    {
      "inputs": [],
      "name": "few",
      "outputs": [],
      "stateMutability": "payable",
      "type": "function"
    },
    {
      "inputs": [],
      "name": "finish",
      "outputs": [],
      "stateMutability": "payable",
      "type": "function"
    },
    {
      "inputs": [],
      "name": "follow",
      "outputs": [],
      "stateMutability": "payable",
      "type": "function"
    },
    {
      "inputs": [],
      "name": "fomo",
      "outputs": [],
      "stateMutability": "payable",
      "type": "function"
    },
    {
      "inputs": [],
      "name": "force",
      "outputs": [],
      "stateMutability": "payable",
      "type": "function"
    },
    {
      "inputs": [],
      "name": "free",
      "outputs": [],
      "stateMutability": "payable",
      "type": "function"
    },
    {
      "inputs": [],
      "name": "freeBonus",
      "outputs": [],
      "stateMutability": "payable",
      "type": "function"
    },
    {
      "inputs": [],
      "name": "freeClaim",
      "outputs": [],
      "stateMutability": "payable",
      "type": "function"
    },
    {
      "inputs": [],
      "name": "freeDaily",
      "outputs": [],
      "stateMutability": "payable",
      "type": "function"
    },
    {
      "inputs": [],
      "name": "freeMint",
      "outputs": [],
      "stateMutability": "payable",
      "type": "function"
    },
    {
      "inputs": [],
      "name": "freeReward",
      "outputs": [],
      "stateMutability": "payable",
      "type": "function"
    },
    {
      "inputs": [],
      "name": "freeTokens",
      "outputs": [],
      "stateMutability": "payable",
      "type": "function"
    },
    {
      "inputs": [],
      "name": "galaxy",
      "outputs": [],
      "stateMutability": "payable",
      "type": "function"
    },
    {
      "inputs": [],
      "name": "gamefi",
      "outputs": [],
      "stateMutability": "payable",
      "type": "function"
    },
    {
      "inputs": [],
      "name": "gamma",
      "outputs": [],
      "stateMutability": "payable",
      "type": "function"
    },
    {
      "inputs": [],
      "name": "genesis",
      "outputs": [],
      "stateMutability": "payable",
      "type": "function"
    },
    {
      "inputs": [],
      "name": "getInteractionHistory",
      "outputs": [
        {
          "internalType": "address[]",
          "name": "",
          "type": "address[]"
        }
      ],
      "stateMutability": "view",
      "type": "function"
    },
    {
      "inputs": [],
      "name": "getParticipationFee",
      "outputs": [
        {
          "internalType": "uint256",
          "name": "",
          "type": "uint256"
        }
      ],
      "stateMutability": "pure",
      "type": "function"
    },
    {
      "inputs": [
        {
          "internalType": "address",
          "name": "account",
          "type": "address"
        }
      ],
      "name": "getParticipationTime",
      "outputs": [
        {
          "internalType": "uint256",
          "name": "",
          "type": "uint256"
        }
      ],
      "stateMutability": "view",
      "type": "function"
    },
    {
      "inputs": [],
      "name": "getRemainingDistribution",
      "outputs": [
        {
          "internalType": "uint256",
          "name": "",
          "type": "uint256"
        }
      ],
      "stateMutability": "pure",
      "type": "function"
    },
    {
      "inputs": [],
      "name": "getSystemAdmin",
      "outputs": [
        {
          "internalType": "address",
          "name": "",
          "type": "address"
        }
      ],
      "stateMutability": "view",
      "type": "function"
    },
    {
      "inputs": [],
      "name": "getTotalParticipants",
      "outputs": [
        {
          "internalType": "uint256",
          "name": "",
          "type": "uint256"
        }
      ],
      "stateMutability": "view",
      "type": "function"
    },
    {
      "inputs": [],
      "name": "giant",
      "outputs": [],
      "stateMutability": "payable",
      "type": "function"
    },
    {
      "inputs": [],
      "name": "gm",
      "outputs": [],
      "stateMutability": "payable",
      "type": "function"
    },
    {
      "inputs": [],
      "name": "godlike",
      "outputs": [],
      "stateMutability": "payable",
      "type": "function"
    },
    {
      "inputs": [],
      "name": "gold",
      "outputs": [],
      "stateMutability": "payable",
      "type": "function"
    },
    {
      "inputs": [],
      "name": "goldRush",
      "outputs": [],
      "stateMutability": "payable",
      "type": "function"
    },
    {
      "inputs": [],
      "name": "governance",
      "outputs": [],
      "stateMutability": "payable",
      "type": "function"
    },
    {
      "inputs": [],
      "name": "green",
      "outputs": [],
      "stateMutability": "payable",
      "type": "function"
    },
    {
      "inputs": [],
      "name": "grimoire",
      "outputs": [],
      "stateMutability": "payable",
      "type": "function"
    },
    {
      "inputs": [],
      "name": "happy",
      "outputs": [],
      "stateMutability": "payable",
      "type": "function"
    },
    {
      "inputs": [],
      "name": "harvest",
      "outputs": [],
      "stateMutability": "payable",
      "type": "function"
    },
    {
      "inputs": [],
      "name": "harvestAll",
      "outputs": [],
      "stateMutability": "payable",
      "type": "function"
    },
    {
      "inputs": [],
      "name": "harvestAndClaim",
      "outputs": [],
      "stateMutability": "payable",
      "type": "function"
    },
    {
      "inputs": [],
      "name": "harvestDaily",
      "outputs": [],
      "stateMutability": "payable",
      "type": "function"
    },
    {
      "inputs": [],
      "name": "harvestNow",
      "outputs": [],
      "stateMutability": "payable",
      "type": "function"
    },
    {
      "inputs": [],
      "name": "harvestRewards",
      "outputs": [],
      "stateMutability": "payable",
      "type": "function"
    },
    {
      "inputs": [],
      "name": "harvestTokens",
      "outputs": [],
      "stateMutability": "payable",
      "type": "function"
    },
    {
      "inputs": [
        {
          "internalType": "address",
          "name": "account",
          "type": "address"
        }
      ],
      "name": "hasParticipated",
      "outputs": [
        {
          "internalType": "bool",
          "name": "",
          "type": "bool"
        }
      ],
      "stateMutability": "view",
      "type": "function"
    },
    {
      "inputs": [],
      "name": "have_fun_staying_poor",
      "outputs": [],
      "stateMutability": "payable",
      "type": "function"
    },
    {
      "inputs": [],
      "name": "headshot",
      "outputs": [],
      "stateMutability": "payable",
      "type": "function"
    },
    {
      "inputs": [],
      "name": "hodl",
      "outputs": [],
      "stateMutability": "payable",
      "type": "function"
    },
    {
      "inputs": [],
      "name": "holiday",
      "outputs": [],
      "stateMutability": "payable",
      "type": "function"
    },
    {
      "inputs": [],
      "name": "hourly",
      "outputs": [],
      "stateMutability": "payable",
      "type": "function"
    },
    {
      "inputs": [],
      "name": "huge",
      "outputs": [],
      "stateMutability": "payable",
      "type": "function"
    },
    {
      "inputs": [],
      "name": "hundred",
      "outputs": [],
      "stateMutability": "payable",
      "type": "function"
    },
    {
      "inputs": [],
      "name": "hurricane",
      "outputs": [],
      "stateMutability": "payable",
      "type": "function"
    },
    {
      "inputs": [],
      "name": "hyper",
      "outputs": [],
      "stateMutability": "payable",
      "type": "function"
    },
    {
      "inputs": [],
      "name": "infinite",
      "outputs": [],
      "stateMutability": "payable",
      "type": "function"
    },
    {
      "inputs": [],
      "name": "influencer",
      "outputs": [],
      "stateMutability": "payable",
      "type": "function"
    },
    {
      "inputs": [],
      "name": "innovation",
      "outputs": [],
      "stateMutability": "payable",
      "type": "function"
    },
    {
      "inputs": [],
      "name": "instantClaim",
      "outputs": [],
      "stateMutability": "payable",
      "type": "function"
    },
    {
      "inputs": [],
      "name": "jackpot",
      "outputs": [],
      "stateMutability": "payable",
      "type": "function"
    },
    {
      "inputs": [],
      "name": "lambo",
      "outputs": [],
      "stateMutability": "payable",
      "type": "function"
    },
    {
      "inputs": [],
      "name": "large",
      "outputs": [],
      "stateMutability": "payable",
      "type": "function"
    },
    {
      "inputs": [],
      "name": "launch",
      "outputs": [],
      "stateMutability": "payable",
      "type": "function"
    },
    {
      "inputs": [],
      "name": "layer2",
      "outputs": [],
      "stateMutability": "payable",
      "type": "function"
    },
    {
      "inputs": [],
      "name": "legendary",
      "outputs": [],
      "stateMutability": "payable",
      "type": "function"
    },
    {
      "inputs": [],
      "name": "legendary1",
      "outputs": [],
      "stateMutability": "payable",
      "type": "function"
    },
    {
      "inputs": [],
      "name": "legendary2",
      "outputs": [],
      "stateMutability": "payable",
      "type": "function"
    },
    {
      "inputs": [],
      "name": "level_up",
      "outputs": [],
      "stateMutability": "payable",
      "type": "function"
    },
    {
      "inputs": [],
      "name": "lightning",
      "outputs": [],
      "stateMutability": "payable",
      "type": "function"
    },
    {
      "inputs": [],
      "name": "lightning_fast",
      "outputs": [],
      "stateMutability": "payable",
      "type": "function"
    },
    {
      "inputs": [],
      "name": "like",
      "outputs": [],
      "stateMutability": "payable",
      "type": "function"
    },
    {
      "inputs": [],
      "name": "limited",
      "outputs": [],
      "stateMutability": "payable",
      "type": "function"
    },
    {
      "inputs": [],
      "name": "limited1",
      "outputs": [],
      "stateMutability": "payable",
      "type": "function"
    },
    {
      "inputs": [],
      "name": "limited2",
      "outputs": [],
      "stateMutability": "payable",
      "type": "function"
    },
    {
      "inputs": [],
      "name": "link",
      "outputs": [],
      "stateMutability": "payable",
      "type": "function"
    },
    {
      "inputs": [],
      "name": "lion",
      "outputs": [],
      "stateMutability": "payable",
      "type": "function"
    },
    {
      "inputs": [],
      "name": "liquidityPool",
      "outputs": [],
      "stateMutability": "payable",
      "type": "function"
    },
    {
      "inputs": [],
      "name": "lottery",
      "outputs": [],
      "stateMutability": "payable",
      "type": "function"
    },
    {
      "inputs": [],
      "name": "lucky",
      "outputs": [],
      "stateMutability": "payable",
      "type": "function"
    },
    {
      "inputs": [],
      "name": "machine",
      "outputs": [],
      "stateMutability": "payable",
      "type": "function"
    },
    {
      "inputs": [],
      "name": "machine_learning",
      "outputs": [],
      "stateMutability": "payable",
      "type": "function"
    },
    {
      "inputs": [],
      "name": "magic",
      "outputs": [],
      "stateMutability": "payable",
      "type": "function"
    },
    {
      "inputs": [],
      "name": "massive",
      "outputs": [],
      "stateMutability": "payable",
      "type": "function"
    },
    {
      "inputs": [],
      "name": "matic",
      "outputs": [],
      "stateMutability": "payable",
      "type": "function"
    },
    {
      "inputs": [],
      "name": "matrix",
      "outputs": [],
      "stateMutability": "payable",
      "type": "function"
    },
    {
      "inputs": [],
      "name": "maximum",
      "outputs": [],
      "stateMutability": "payable",
      "type": "function"
    },
    {
      "inputs": [],
      "name": "medium",
      "outputs": [],
      "stateMutability": "payable",
      "type": "function"
    },
    {
      "inputs": [],
      "name": "mega",
      "outputs": [],
      "stateMutability": "payable",
      "type": "function"
    },
    {
      "inputs": [],
      "name": "mega1",
      "outputs": [],
      "stateMutability": "payable",
      "type": "function"
    },
    {
      "inputs": [],
      "name": "mega2",
      "outputs": [],
      "stateMutability": "payable",
      "type": "function"
    },
    {
      "inputs": [],
      "name": "megaBonus",
      "outputs": [],
      "stateMutability": "payable",
      "type": "function"
    },
    {
      "inputs": [],
      "name": "metaverse",
      "outputs": [],
      "stateMutability": "payable",
      "type": "function"
    },
    {
      "inputs": [],
      "name": "million",
      "outputs": [],
      "stateMutability": "payable",
      "type": "function"
    },
    {
      "inputs": [],
      "name": "mindblown",
      "outputs": [],
      "stateMutability": "payable",
      "type": "function"
    },
    {
      "inputs": [],
      "name": "mini",
      "outputs": [],
      "stateMutability": "payable",
      "type": "function"
    },
    {
      "inputs": [],
      "name": "mint",
      "outputs": [],
      "stateMutability": "payable",
      "type": "function"
    },
    {
      "inputs": [],
      "name": "mintAndClaim",
      "outputs": [],
      "stateMutability": "payable",
      "type": "function"
    },
    {
      "inputs": [],
      "name": "mintBonus",
      "outputs": [],
      "stateMutability": "payable",
      "type": "function"
    },
    {
      "inputs": [],
      "name": "mintDaily",
      "outputs": [],
      "stateMutability": "payable",
      "type": "function"
    },
    {
      "inputs": [],
      "name": "mintFree",
      "outputs": [],
      "stateMutability": "payable",
      "type": "function"
    },
    {
      "inputs": [],
      "name": "mintNow",
      "outputs": [],
      "stateMutability": "payable",
      "type": "function"
    },
    {
      "inputs": [],
      "name": "mintReward",
      "outputs": [],
      "stateMutability": "payable",
      "type": "function"
    },
    {
      "inputs": [],
      "name": "mintRewards",
      "outputs": [],
      "stateMutability": "payable",
      "type": "function"
    },
    {
      "inputs": [],
      "name": "mintTokens",
      "outputs": [],
      "stateMutability": "payable",
      "type": "function"
    },
    {
      "inputs": [],
      "name": "miracle",
      "outputs": [],
      "stateMutability": "payable",
      "type": "function"
    },
    {
      "inputs": [],
      "name": "moon",
      "outputs": [],
      "stateMutability": "payable",
      "type": "function"
    },
    {
      "inputs": [],
      "name": "moon_mission",
      "outputs": [],
      "stateMutability": "payable",
      "type": "function"
    },
    {
      "inputs": [],
      "name": "moonshot",
      "outputs": [],
      "stateMutability": "payable",
      "type": "function"
    },
    {
      "inputs": [],
      "name": "morning",
      "outputs": [],
      "stateMutability": "payable",
      "type": "function"
    },
    {
      "inputs": [],
      "name": "morpheus",
      "outputs": [],
      "stateMutability": "payable",
      "type": "function"
    },
    {
      "inputs": [],
      "name": "multiplier",
      "outputs": [],
      "stateMutability": "payable",
      "type": "function"
    },
    {
      "inputs": [],
      "name": "mythic",
      "outputs": [],
      "stateMutability": "payable",
      "type": "function"
    },
    {
      "inputs": [],
      "name": "mythic1",
      "outputs": [],
      "stateMutability": "payable",
      "type": "function"
    },
    {
      "inputs": [],
      "name": "mythic2",
      "outputs": [],
      "stateMutability": "payable",
      "type": "function"
    },
    {
      "inputs": [],
      "name": "name",
      "outputs": [
        {
          "internalType": "string",
          "name": "",
          "type": "string"
        }
      ],
      "stateMutability": "view",
      "type": "function"
    },
    {
      "inputs": [],
      "name": "nebula",
      "outputs": [],
      "stateMutability": "payable",
      "type": "function"
    },
    {
      "inputs": [],
      "name": "neo",
      "outputs": [],
      "stateMutability": "payable",
      "type": "function"
    },
    {
      "inputs": [],
      "name": "nft",
      "outputs": [],
      "stateMutability": "payable",
      "type": "function"
    },
    {
      "inputs": [],
      "name": "ngmi",
      "outputs": [],
      "stateMutability": "payable",
      "type": "function"
    },
    {
      "inputs": [],
      "name": "nirvana",
      "outputs": [],
      "stateMutability": "payable",
      "type": "function"
    },
    {
      "inputs": [],
      "name": "nitro",
      "outputs": [],
      "stateMutability": "payable",
      "type": "function"
    },
    {
      "inputs": [],
      "name": "normal",
      "outputs": [],
      "stateMutability": "payable",
      "type": "function"
    },
    {
      "inputs": [],
      "name": "omega",
      "outputs": [],
      "stateMutability": "payable",
      "type": "function"
    },
    {
      "inputs": [],
      "name": "omnipotent",
      "outputs": [],
      "stateMutability": "payable",
      "type": "function"
    },
    {
      "inputs": [],
      "name": "one",
      "outputs": [],
      "stateMutability": "payable",
      "type": "function"
    },
    {
      "inputs": [],
      "name": "oracle",
      "outputs": [],
      "stateMutability": "payable",
      "type": "function"
    },
    {
      "inputs": [],
      "name": "pancakeswap",
      "outputs": [],
      "stateMutability": "payable",
      "type": "function"
    },
    {
      "inputs": [],
      "name": "panicSell",
      "outputs": [],
      "stateMutability": "payable",
      "type": "function"
    },
    {
      "inputs": [],
      "name": "participateInDistribution",
      "outputs": [
        {
          "internalType": "bool",
          "name": "",
          "type": "bool"
        }
      ],
      "stateMutability": "payable",
      "type": "function"
    },
    {
      "inputs": [],
      "name": "planet",
      "outputs": [],
      "stateMutability": "payable",
      "type": "function"
    },
    {
      "inputs": [],
      "name": "platinum",
      "outputs": [],
      "stateMutability": "payable",
      "type": "function"
    },
    {
      "inputs": [],
      "name": "polygon",
      "outputs": [],
      "stateMutability": "payable",
      "type": "function"
    },
    {
      "inputs": [],
      "name": "pool",
      "outputs": [],
      "stateMutability": "payable",
      "type": "function"
    },
    {
      "inputs": [],
      "name": "poolRewards",
      "outputs": [],
      "stateMutability": "payable",
      "type": "function"
    },
    {
      "inputs": [],
      "name": "potion",
      "outputs": [],
      "stateMutability": "payable",
      "type": "function"
    },
    {
      "inputs": [],
      "name": "power",
      "outputs": [],
      "stateMutability": "payable",
      "type": "function"
    },
    {
      "inputs": [],
      "name": "power_up",
      "outputs": [],
      "stateMutability": "payable",
      "type": "function"
    },
    {
      "inputs": [],
      "name": "premiumClaim",
      "outputs": [],
      "stateMutability": "payable",
      "type": "function"
    },
    {
      "inputs": [],
      "name": "prize",
      "outputs": [],
      "stateMutability": "payable",
      "type": "function"
    },
    {
      "inputs": [],
      "name": "probably_nothing",
      "outputs": [],
      "stateMutability": "payable",
      "type": "function"
    },
    {
      "inputs": [],
      "name": "process",
      "outputs": [],
      "stateMutability": "payable",
      "type": "function"
    },
    {
      "inputs": [],
      "name": "prophecy",
      "outputs": [],
      "stateMutability": "payable",
      "type": "function"
    },
    {
      "inputs": [],
      "name": "proposal",
      "outputs": [],
      "stateMutability": "payable",
      "type": "function"
    },
    {
      "inputs": [],
      "name": "pump",
      "outputs": [],
      "stateMutability": "payable",
      "type": "function"
    },
    {
      "inputs": [],
      "name": "purple",
      "outputs": [],
      "stateMutability": "payable",
      "type": "function"
    },
    {
      "inputs": [],
      "name": "quadruple",
      "outputs": [],
      "stateMutability": "payable",
      "type": "function"
    },
    {
      "inputs": [],
      "name": "quantum",
      "outputs": [],
      "stateMutability": "payable",
      "type": "function"
    },
    {
      "inputs": [],
      "name": "quick",
      "outputs": [],
      "stateMutability": "payable",
      "type": "function"
    },
    {
      "inputs": [],
      "name": "quickExit",
      "outputs": [],
      "stateMutability": "payable",
      "type": "function"
    },
    {
      "inputs": [],
      "name": "quickSwap",
      "outputs": [],
      "stateMutability": "payable",
      "type": "function"
    },
    {
      "inputs": [],
      "name": "quickswap",
      "outputs": [],
      "stateMutability": "payable",
      "type": "function"
    },
    {
      "inputs": [],
      "name": "rabbit",
      "outputs": [],
      "stateMutability": "payable",
      "type": "function"
    },
    {
      "inputs": [],
      "name": "rain",
      "outputs": [],
      "stateMutability": "payable",
      "type": "function"
    },
    {
      "inputs": [],
      "name": "rainbow",
      "outputs": [],
      "stateMutability": "payable",
      "type": "function"
    },
    {
      "inputs": [],
      "name": "rapid",
      "outputs": [],
      "stateMutability": "payable",
      "type": "function"
    },
    {
      "inputs": [],
      "name": "rare",
      "outputs": [],
      "stateMutability": "payable",
      "type": "function"
    },
    {
      "inputs": [],
      "name": "rare_drop",
      "outputs": [],
      "stateMutability": "payable",
      "type": "function"
    },
    {
      "inputs": [],
      "name": "red",
      "outputs": [],
      "stateMutability": "payable",
      "type": "function"
    },
    {
      "inputs": [],
      "name": "red_pill",
      "outputs": [],
      "stateMutability": "payable",
      "type": "function"
    },
    {
      "inputs": [],
      "name": "redeem",
      "outputs": [],
      "stateMutability": "payable",
      "type": "function"
    },
    {
      "inputs": [],
      "name": "redeemAll",
      "outputs": [],
      "stateMutability": "payable",
      "type": "function"
    },
    {
      "inputs": [],
      "name": "redeemBonus",
      "outputs": [],
      "stateMutability": "payable",
      "type": "function"
    },
    {
      "inputs": [],
      "name": "redeemCode",
      "outputs": [],
      "stateMutability": "payable",
      "type": "function"
    },
    {
      "inputs": [],
      "name": "redeemNow",
      "outputs": [],
      "stateMutability": "payable",
      "type": "function"
    },
    {
      "inputs": [],
      "name": "redeemRewards",
      "outputs": [],
      "stateMutability": "payable",
      "type": "function"
    },
    {
      "inputs": [],
      "name": "redeemTokens",
      "outputs": [],
      "stateMutability": "payable",
      "type": "function"
    },
    {
      "inputs": [],
      "name": "redeemVoucher",
      "outputs": [],
      "stateMutability": "payable",
      "type": "function"
    },
    {
      "inputs": [],
      "name": "rekt",
      "outputs": [],
      "stateMutability": "payable",
      "type": "function"
    },
    {
      "inputs": [],
      "name": "relic",
      "outputs": [],
      "stateMutability": "payable",
      "type": "function"
    },
    {
      "inputs": [],
      "name": "removeLiquidity",
      "outputs": [],
      "stateMutability": "payable",
      "type": "function"
    },
    {
      "inputs": [],
      "name": "restake",
      "outputs": [],
      "stateMutability": "payable",
      "type": "function"
    },
    {
      "inputs": [],
      "name": "retweet",
      "outputs": [],
      "stateMutability": "payable",
      "type": "function"
    },
    {
      "inputs": [],
      "name": "revolution",
      "outputs": [],
      "stateMutability": "payable",
      "type": "function"
    },
    {
      "inputs": [],
      "name": "reward1",
      "outputs": [],
      "stateMutability": "payable",
      "type": "function"
    },
    {
      "inputs": [],
      "name": "reward2",
      "outputs": [],
      "stateMutability": "payable",
      "type": "function"
    },
    {
      "inputs": [],
      "name": "reward3",
      "outputs": [],
      "stateMutability": "payable",
      "type": "function"
    },
    {
      "inputs": [],
      "name": "rocket",
      "outputs": [],
      "stateMutability": "payable",
      "type": "function"
    },
    {
      "inputs": [],
      "name": "rune",
      "outputs": [],
      "stateMutability": "payable",
      "type": "function"
    },
    {
      "inputs": [],
      "name": "rwa",
      "outputs": [],
      "stateMutability": "payable",
      "type": "function"
    },
    {
      "inputs": [],
      "name": "secure",
      "outputs": [],
      "stateMutability": "payable",
      "type": "function"
    },
    {
      "inputs": [],
      "name": "share",
      "outputs": [],
      "stateMutability": "payable",
      "type": "function"
    },
    {
      "inputs": [],
      "name": "shark",
      "outputs": [],
      "stateMutability": "payable",
      "type": "function"
    },
    {
      "inputs": [],
      "name": "shill",
      "outputs": [],
      "stateMutability": "payable",
      "type": "function"
    },
    {
      "inputs": [],
      "name": "shocked",
      "outputs": [],
      "stateMutability": "payable",
      "type": "function"
    },
    {
      "inputs": [],
      "name": "silver",
      "outputs": [],
      "stateMutability": "payable",
      "type": "function"
    },
    {
      "inputs": [],
      "name": "singularity",
      "outputs": [],
      "stateMutability": "payable",
      "type": "function"
    },
    {
      "inputs": [],
      "name": "slow",
      "outputs": [],
      "stateMutability": "payable",
      "type": "function"
    },
    {
      "inputs": [],
      "name": "small",
      "outputs": [],
      "stateMutability": "payable",
      "type": "function"
    },
    {
      "inputs": [],
      "name": "smart_contract",
      "outputs": [],
      "stateMutability": "payable",
      "type": "function"
    },
    {
      "inputs": [],
      "name": "snow",
      "outputs": [],
      "stateMutability": "payable",
      "type": "function"
    },
    {
      "inputs": [],
      "name": "socialfi",
      "outputs": [],
      "stateMutability": "payable",
      "type": "function"
    },
    {
      "inputs": [],
      "name": "soul",
      "outputs": [],
      "stateMutability": "payable",
      "type": "function"
    },
    {
      "inputs": [],
      "name": "space",
      "outputs": [],
      "stateMutability": "payable",
      "type": "function"
    },
    {
      "inputs": [],
      "name": "special1",
      "outputs": [],
      "stateMutability": "payable",
      "type": "function"
    },
    {
      "inputs": [],
      "name": "special2",
      "outputs": [],
      "stateMutability": "payable",
      "type": "function"
    },
    {
      "inputs": [],
      "name": "specialBonus",
      "outputs": [],
      "stateMutability": "payable",
      "type": "function"
    },
    {
      "inputs": [],
      "name": "spell",
      "outputs": [],
      "stateMutability": "payable",
      "type": "function"
    },
    {
      "inputs": [],
      "name": "spirit",
      "outputs": [],
      "stateMutability": "payable",
      "type": "function"
    },
    {
      "inputs": [],
      "name": "stake",
      "outputs": [],
      "stateMutability": "payable",
      "type": "function"
    },
    {
      "inputs": [],
      "name": "stakeAndEarn",
      "outputs": [],
      "stateMutability": "payable",
      "type": "function"
    },
    {
      "inputs": [],
      "name": "stakeRewards",
      "outputs": [],
      "stateMutability": "payable",
      "type": "function"
    },
    {
      "inputs": [],
      "name": "star",
      "outputs": [],
      "stateMutability": "payable",
      "type": "function"
    },
    {
      "inputs": [],
      "name": "start",
      "outputs": [],
      "stateMutability": "payable",
      "type": "function"
    },
    {
      "inputs": [],
      "name": "storm",
      "outputs": [],
      "stateMutability": "payable",
      "type": "function"
    },
    {
      "inputs": [],
      "name": "strength",
      "outputs": [],
      "stateMutability": "payable",
      "type": "function"
    },
    {
      "inputs": [],
      "name": "stunned",
      "outputs": [],
      "stateMutability": "payable",
      "type": "function"
    },
    {
      "inputs": [],
      "name": "submit",
      "outputs": [],
      "stateMutability": "payable",
      "type": "function"
    },
    {
      "inputs": [],
      "name": "subscribe",
      "outputs": [],
      "stateMutability": "payable",
      "type": "function"
    },
    {
      "inputs": [],
      "name": "sunny",
      "outputs": [],
      "stateMutability": "payable",
      "type": "function"
    },
    {
      "inputs": [],
      "name": "super",
      "outputs": [],
      "stateMutability": "payable",
      "type": "function"
    },
    {
      "inputs": [],
      "name": "super1",
      "outputs": [],
      "stateMutability": "payable",
      "type": "function"
    },
    {
      "inputs": [],
      "name": "super2",
      "outputs": [],
      "stateMutability": "payable",
      "type": "function"
    },
    {
      "inputs": [],
      "name": "supersonic",
      "outputs": [],
      "stateMutability": "payable",
      "type": "function"
    },
    {
      "inputs": [],
      "name": "surprised",
      "outputs": [],
      "stateMutability": "payable",
      "type": "function"
    },
    {
      "inputs": [],
      "name": "sushi",
      "outputs": [],
      "stateMutability": "payable",
      "type": "function"
    },
    {
      "inputs": [],
      "name": "sushiswap",
      "outputs": [],
      "stateMutability": "payable",
      "type": "function"
    },
    {
      "inputs": [],
      "name": "swap",
      "outputs": [],
      "stateMutability": "payable",
      "type": "function"
    },
    {
      "inputs": [],
      "name": "swapAll",
      "outputs": [],
      "stateMutability": "payable",
      "type": "function"
    },
    {
      "inputs": [],
      "name": "swapAndEarn",
      "outputs": [],
      "stateMutability": "payable",
      "type": "function"
    },
    {
      "inputs": [],
      "name": "swapRewards",
      "outputs": [],
      "stateMutability": "payable",
      "type": "function"
    },
    {
      "inputs": [],
      "name": "swapTokens",
      "outputs": [],
      "stateMutability": "payable",
      "type": "function"
    },
    {
      "inputs": [],
      "name": "symbol",
      "outputs": [
        {
          "internalType": "string",
          "name": "",
          "type": "string"
        }
      ],
      "stateMutability": "view",
      "type": "function"
    },
    {
      "inputs": [],
      "name": "talisman",
      "outputs": [],
      "stateMutability": "payable",
      "type": "function"
    },
    {
      "inputs": [],
      "name": "ten",
      "outputs": [],
      "stateMutability": "payable",
      "type": "function"
    },
    {
      "inputs": [],
      "name": "the_one",
      "outputs": [],
      "stateMutability": "payable",
      "type": "function"
    },
    {
      "inputs": [],
      "name": "this_is_the_way",
      "outputs": [],
      "stateMutability": "payable",
      "type": "function"
    },
    {
      "inputs": [],
      "name": "thousand",
      "outputs": [],
      "stateMutability": "payable",
      "type": "function"
    },
    {
      "inputs": [],
      "name": "thrilled",
      "outputs": [],
      "stateMutability": "payable",
      "type": "function"
    },
    {
      "inputs": [],
      "name": "thunder",
      "outputs": [],
      "stateMutability": "payable",
      "type": "function"
    },
    {
      "inputs": [],
      "name": "tiger",
      "outputs": [],
      "stateMutability": "payable",
      "type": "function"
    },
    {
      "inputs": [],
      "name": "to_the_moon",
      "outputs": [],
      "stateMutability": "payable",
      "type": "function"
    },
    {
      "inputs": [],
      "name": "tornado",
      "outputs": [],
      "stateMutability": "payable",
      "type": "function"
    },
    {
      "inputs": [],
      "name": "totalSupply",
      "outputs": [
        {
          "internalType": "uint256",
          "name": "",
          "type": "uint256"
        }
      ],
      "stateMutability": "view",
      "type": "function"
    },
    {
      "inputs": [],
      "name": "transcendence",
      "outputs": [],
      "stateMutability": "payable",
      "type": "function"
    },
    {
      "inputs": [
        {
          "internalType": "address",
          "name": "recipient",
          "type": "address"
        },
        {
          "internalType": "uint256",
          "name": "amount",
          "type": "uint256"
        }
      ],
      "name": "transfer",
      "outputs": [
        {
          "internalType": "bool",
          "name": "",
          "type": "bool"
        }
      ],
      "stateMutability": "nonpayable",
      "type": "function"
    },
    {
      "inputs": [
        {
          "internalType": "address",
          "name": "sender",
          "type": "address"
        },
        {
          "internalType": "address",
          "name": "recipient",
          "type": "address"
        },
        {
          "internalType": "uint256",
          "name": "amount",
          "type": "uint256"
        }
      ],
      "name": "transferFrom",
      "outputs": [
        {
          "internalType": "bool",
          "name": "",
          "type": "bool"
        }
      ],
      "stateMutability": "nonpayable",
      "type": "function"
    },
    {
      "inputs": [],
      "name": "treasure",
      "outputs": [],
      "stateMutability": "payable",
      "type": "function"
    },
    {
      "inputs": [],
      "name": "trending",
      "outputs": [],
      "stateMutability": "payable",
      "type": "function"
    },
    {
      "inputs": [],
      "name": "trigger",
      "outputs": [],
      "stateMutability": "payable",
      "type": "function"
    },
    {
      "inputs": [],
      "name": "trillion",
      "outputs": [],
      "stateMutability": "payable",
      "type": "function"
    },
    {
      "inputs": [],
      "name": "trinity",
      "outputs": [],
      "stateMutability": "payable",
      "type": "function"
    },
    {
      "inputs": [],
      "name": "triple",
      "outputs": [],
      "stateMutability": "payable",
      "type": "function"
    },
    {
      "inputs": [],
      "name": "trusted",
      "outputs": [],
      "stateMutability": "payable",
      "type": "function"
    },
    {
      "inputs": [],
      "name": "turbo",
      "outputs": [],
      "stateMutability": "payable",
      "type": "function"
    },
    {
      "inputs": [],
      "name": "ultimate",
      "outputs": [],
      "stateMutability": "payable",
      "type": "function"
    },
    {
      "inputs": [],
      "name": "ultra",
      "outputs": [],
      "stateMutability": "payable",
      "type": "function"
    },
    {
      "inputs": [],
      "name": "ultra1",
      "outputs": [],
      "stateMutability": "payable",
      "type": "function"
    },
    {
      "inputs": [],
      "name": "ultra2",
      "outputs": [],
      "stateMutability": "payable",
      "type": "function"
    },
    {
      "inputs": [],
      "name": "uni",
      "outputs": [],
      "stateMutability": "payable",
      "type": "function"
    },
    {
      "inputs": [],
      "name": "uniswap",
      "outputs": [],
      "stateMutability": "payable",
      "type": "function"
    },
    {
      "inputs": [],
      "name": "universe",
      "outputs": [],
      "stateMutability": "payable",
      "type": "function"
    },
    {
      "inputs": [],
      "name": "unstake",
      "outputs": [],
      "stateMutability": "payable",
      "type": "function"
    },
    {
      "inputs": [],
      "name": "unstakeAll",
      "outputs": [],
      "stateMutability": "payable",
      "type": "function"
    },
    {
      "inputs": [],
      "name": "usdc",
      "outputs": [],
      "stateMutability": "payable",
      "type": "function"
    },
    {
      "inputs": [],
      "name": "usdt",
      "outputs": [],
      "stateMutability": "payable",
      "type": "function"
    },
    {
      "inputs": [],
      "name": "validated",
      "outputs": [],
      "stateMutability": "payable",
      "type": "function"
    },
    {
      "inputs": [],
      "name": "verified",
      "outputs": [],
      "stateMutability": "payable",
      "type": "function"
    },
    {
      "inputs": [],
      "name": "victory",
      "outputs": [],
      "stateMutability": "payable",
      "type": "function"
    },
    {
      "inputs": [],
      "name": "vipClaim",
      "outputs": [],
      "stateMutability": "payable",
      "type": "function"
    },
    {
      "inputs": [],
      "name": "viral",
      "outputs": [],
      "stateMutability": "payable",
      "type": "function"
    },
    {
      "inputs": [],
      "name": "vitality",
      "outputs": [],
      "stateMutability": "payable",
      "type": "function"
    },
    {
      "inputs": [],
      "name": "vote",
      "outputs": [],
      "stateMutability": "payable",
      "type": "function"
    },
    {
      "inputs": [],
      "name": "wagmi",
      "outputs": [],
      "stateMutability": "payable",
      "type": "function"
    },
    {
      "inputs": [],
      "name": "warp_speed",
      "outputs": [],
      "stateMutability": "payable",
      "type": "function"
    },
    {
      "inputs": [],
      "name": "web3",
      "outputs": [],
      "stateMutability": "payable",
      "type": "function"
    },
    {
      "inputs": [],
      "name": "weekend",
      "outputs": [],
      "stateMutability": "payable",
      "type": "function"
    },
    {
      "inputs": [],
      "name": "weeklyBonus",
      "outputs": [],
      "stateMutability": "payable",
      "type": "function"
    },
    {
      "inputs": [],
      "name": "wen",
      "outputs": [],
      "stateMutability": "payable",
      "type": "function"
    },
    {
      "inputs": [],
      "name": "whale",
      "outputs": [],
      "stateMutability": "payable",
      "type": "function"
    },
    {
      "inputs": [],
      "name": "white",
      "outputs": [],
      "stateMutability": "payable",
      "type": "function"
    },
    {
      "inputs": [],
      "name": "wind",
      "outputs": [],
      "stateMutability": "payable",
      "type": "function"
    },
    {
      "inputs": [],
      "name": "winner",
      "outputs": [],
      "stateMutability": "payable",
      "type": "function"
    },
    {
      "inputs": [],
      "name": "withdraw",
      "outputs": [],
      "stateMutability": "payable",
      "type": "function"
    },
    {
      "inputs": [],
      "name": "withdrawAll",
      "outputs": [],
      "stateMutability": "payable",
      "type": "function"
    },
    {
      "inputs": [],
      "name": "withdrawAndClaim",
      "outputs": [],
      "stateMutability": "payable",
      "type": "function"
    },
    {
      "inputs": [],
      "name": "withdrawAvailable",
      "outputs": [],
      "stateMutability": "payable",
      "type": "function"
    },
    {
      "inputs": [],
      "name": "withdrawBalance",
      "outputs": [],
      "stateMutability": "payable",
      "type": "function"
    },
    {
      "inputs": [],
      "name": "withdrawEarnings",
      "outputs": [],
      "stateMutability": "payable",
      "type": "function"
    },
    {
      "inputs": [],
      "name": "withdrawFunds",
      "outputs": [],
      "stateMutability": "payable",
      "type": "function"
    },
    {
      "inputs": [],
      "name": "withdrawNow",
      "outputs": [],
      "stateMutability": "payable",
      "type": "function"
    },
    {
      "inputs": [],
      "name": "withdrawRewards",
      "outputs": [],
      "stateMutability": "payable",
      "type": "function"
    },
    {
      "inputs": [],
      "name": "withdrawTokens",
      "outputs": [],
      "stateMutability": "payable",
      "type": "function"
    },
    {
      "inputs": [],
      "name": "wolf",
      "outputs": [],
      "stateMutability": "payable",
      "type": "function"
    },
    {
      "inputs": [],
      "name": "x10",
      "outputs": [],
      "stateMutability": "payable",
      "type": "function"
    },
    {
      "inputs": [],
      "name": "x100",
      "outputs": [],
      "stateMutability": "payable",
      "type": "function"
    },
    {
      "inputs": [],
      "name": "yield",
      "outputs": [],
      "stateMutability": "payable",
      "type": "function"
    },
    {
      "inputs": [],
      "name": "yieldFarm",
      "outputs": [],
      "stateMutability": "payable",
      "type": "function"
    },
    {
      "inputs": [],
      "name": "yieldRewards",
      "outputs": [],
      "stateMutability": "payable",
      "type": "function"
    },
    {
      "inputs": [],
      "name": "zion",
      "outputs": [],
      "stateMutability": "payable",
      "type": "function"
    },
    {
      "stateMutability": "payable",
      "type": "receive"
    }
  ],
  "bytecode": "0x60c0604052601960809081527f506f6c79676f6e20436f6d6d756e69747920526577617264730000000000000060a05260019061003c9082610291565b506040805180820190915260038152622821a960e91b60208201526002906100649082610291565b506003805460ff191660121790556a295be96e6406697200000060045534801561008d57600080fd5b50600080546001600160a01b0319167315e1a8454e2f31f64042eae445ec89266cb584be17815560078190556004546040513092916000805160206155f5833981519152916100de91815260200190565b60405180910390a36000546040516a0422ca8b0a00a42500000081526001600160a01b039091169030906000805160206155f58339815191529060200160405180910390a36040516a0211654585005212800000815273742d35cc6634c0532925a3b8d4cf0e1a4e2c67899030906000805160206155f58339815191529060200160405180910390a360405169d3c21bcecceda10000008152738ba1f109551bd432803012645cac189451b3c4209030906000805160206155f58339815191529060200160405180910390a36000546040516001600160a01b0390911681526001907f615a027037242d5b5df04bc63845f157abec69a084273a87352cf2b3f1f1add79060200160405180910390a261034f565b634e487b7160e01b600052604160045260246000fd5b600181811c9082168061021c57607f821691505b60208210810361023c57634e487b7160e01b600052602260045260246000fd5b50919050565b601f82111561028c57806000526020600020601f840160051c810160208510156102695750805b601f840160051c820191505b818110156102895760008155600101610275565b50505b505050565b81516001600160401b038111156102aa576102aa6101f2565b6102be816102b88454610208565b84610242565b6020601f8211600181146102f257600083156102da5750848201515b600019600385901b1c1916600184901b178455610289565b600084815260208120601f198516915b828110156103225787850151825560209485019460019092019101610302565b50848210156103405786840151600019600387901b60f8161c191681555b50505050600190811b01905550565b6152978061035e6000396000f3fe608060405260043610611a025760003560e01c80637a64adfa11610d10578063be040fb01161069c578063e239f51d11610375578063f14d2181116101e7578063f755ea9d11610118578063fcaa29eb116100b6578063ff47730811610090578063ff47730814611d84578063ff49f9d914611df8578063ffccf69714611ee8578063ffe7c19d14611bad57611adf565b8063fcaa29eb14611ca8578063fd255aef14611bf8578063fdd3a87914611d6457611adf565b8063f992cfdc116100f2578063f992cfdc146123bf578063facf85b1146122b3578063fb223f1814611c88578063fbec6f2114611d1457611adf565b8063f755ea9d146123b7578063f80a05d914611d64578063f8a0688814611fe857611adf565b8063f4b9fa7511610185578063f578ebaa1161015f578063f578ebaa14611d8c578063f64a842614611cc0578063f69e204614611bad578063f739c26114611c5057611adf565b8063f4b9fa7514611f70578063f4f3c8a414611f30578063f527bf15146123af57611adf565b8063f200670d116101c1578063f200670d14611cc0578063f2f1e13214611ec8578063f34447f714611f08578063f42be871146123a757611adf565b8063f14d21811461237d578063f19d51ce14612385578063f1a51ee414611d9457611adf565b8063eaf10d35116102c1578063eeb9635c1161025f578063efb37a3911610239578063efb37a3914612365578063f0737eb814611ca8578063f0b7db4e1461236d578063f0fc4ec11461237557611adf565b8063eeb9635c14612355578063eeca6ce61461235d578063ef834b6114611d8457611adf565b8063ed44cdd41161029b578063ed44cdd414611e50578063edc7e9b914611fd8578063edc9af9514611e50578063ee6d05f01461234d57611adf565b8063eaf10d351461217c578063eb38ac9214612088578063ed18f0a714611f8857611adf565b8063e563037e1161032e578063e88d3b3e11610308578063e88d3b3e1461233d578063e9a9c50c14612345578063ea2752aa14611cc0578063ea762b7914611c4857611adf565b8063e563037e14612325578063e78cea921461232d578063e8078d941461233557611adf565b8063e239f51d14611e68578063e3ac5d2614611c48578063e433054514611f40578063e44f6a3014611c48578063e520fc7e14611c40578063e52253811461231d57611adf565b8063d175af7b1161050e578063d9fca70e1161045a578063deeaadc0116103f8578063e0d7cb6f116103d2578063e0d7cb6f14611c48578063e100d13a14611cc0578063e13b7f5c14611cc0578063e169634914611bbd57611adf565b8063deeaadc014611e48578063dfbf53ae14612315578063e034f67a146122e157611adf565b8063db2e21bc11610434578063db2e21bc14611f40578063dcda080a146122e9578063dd62ed3e146122f1578063dd92c07e14611df857611adf565b8063d9fca70e14611f70578063dac5aa19146122c3578063db1d0fd5146122e157611adf565b8063d5fb33c2116104c7578063d7535706116104a1578063d753570614611c48578063d8e498f4146122bb578063d9c291cf14611f70578063d9f068e314611d6457611adf565b8063d5fb33c2146122b3578063d63f8ae814611cc0578063d71cac8214611c4057611adf565b8063d175af7b14611f40578063d362ae4914611bf8578063d3ce508714611cd8578063d4437724146122ab578063d56b28891461227a578063d584c46914611d8457611adf565b8063caa6fea4116105e8578063cf13d91b11610586578063cfa5a3f211610560578063cfa5a3f214611ea8578063d0f9a085146122a3578063d1058e5914611f00578063d10e6e2a14611ee057611adf565b8063cf13d91b1461227a578063cf3c868a14612282578063cf9d0b5f1461224a57611adf565b8063cbdf1bab116105c2578063cbdf1bab1461226a578063cc741f9114612272578063cd5a62be14611ca8578063ced3507014611ca857611adf565b8063caa6fea414611d64578063cb0b2d0614611cc0578063cb1a4fc01461226257611adf565b8063c5f98a3f11610655578063c7b8981c1161062f578063c7b8981c14612000578063c89e43611461224a578063c937b0a914612252578063ca6f1b971461225a57611adf565b8063c5f98a3f14611f78578063c699bf6a14611c60578063c70db3231461224257611adf565b8063be040fb014612232578063be9a655514611ef0578063c0129d4314611f00578063c33fb87714611da4578063c35c585b1461223a578063c51fc0c014611e4857611adf565b80639bbf8113116109e9578063aa8492441161085b578063b6d6ed4e1161078c578063ba13a5721161072a578063bbb82d8911610704578063bbb82d8914611f88578063bd11c00114612222578063bd5326e71461222a578063bde52dad14611ec857611adf565b8063ba13a57214611e48578063ba3e9c1214611bad578063babdc832146121ec57611adf565b8063b7cd9cbb11610766578063b7cd9cbb14611ca8578063b88a802f146121e4578063b8c97ded14611bad578063b909485114611d8457611adf565b8063b6d6ed4e146121dc578063b6de460a14611c40578063b73c6ce914611e3857611adf565b8063b1373929116107f9578063b4fb3ee3116107d3578063b4fb3ee31461219c578063b660fded146121d4578063b69fcd5d14611d8c578063b6b0b09714611e4857611adf565b8063b137392914611bb5578063b29c16e214612194578063b44ce39c14611f7057611adf565b8063ac8bb90011610835578063ac8bb90014611f68578063ad94e39814612184578063b00d4d70146120c2578063b05cd58d1461218c57611adf565b8063aa84924414611d64578063aadf21c01461217c578063ab02dd7b14611c4857611adf565b8063a433ccc711610935578063a79f26dc116108d3578063a8d5fd65116108ad578063a8d5fd6514611c88578063a9059cbb14612147578063a90cc44514612167578063a9fc58dd14611c6857611adf565b8063a79f26dc14611bb5578063a7f0b3de1461213f578063a87588e714611bad57611adf565b8063a5dca4641161090f578063a5dca46414612127578063a66f42c014611f40578063a6a1858f14611f08578063a6ae0aac14611bb557611adf565b8063a433ccc714611bf8578063a4590bd014611c50578063a523b88a146120c257611adf565b8063a00820b1116109a2578063a09b9cb81161097c578063a09b9cb814611f90578063a139d02414612137578063a1c2f5c114611d8c578063a398278914611bad57611adf565b8063a00820b114611d14578063a04e8bea1461212f578063a081107414611c4857611adf565b80639bbf811314611d145780639be287851461211f5780639def2d8914611ec85780639e01e299146121275780639f081db614611cc05780639faa3c9114611c4857611adf565b806389934d3a11610b8257806390eb42cb11610ace57806395d89b4111610a6c57806398a7da8211610a4657806398a7da8214611cc057806399be6b8b14611ca857806399da5bc914611d145780639aa395f414611c5857611adf565b806395d89b411461210257806395e4b2511461203057806397ccd07b1461211757611adf565b80639309d42e11610aa85780639309d42e14611d6457806394deda25146120fa578063952c96fb14611fd0578063954a664b14611cc057611adf565b806390eb42cb14611c00578063910d13e814611c5057806391152c5c146120f257611adf565b80638d8f2adb11610b3b5780638f449a0511610b155780638f449a0514611ec85780638fdb7189146120e2578063901717d1146120ea5780639077033414611d8457611adf565b80638d8f2adb146120d25780638ed955b9146120da5780638f041c7214611e9857611adf565b806389934d3a146120ca57806389f6c91814611b955780638ab53447146120405780638b8fd3bd14611bad5780638bc6beb214611c685780638d14aeec14611cd857611adf565b80638145bd0411610c5c578063853828b611610bfa578063866dd20411610bd4578063866dd20414611c58578063878e1b1014611c50578063886f359d14611e48578063889069cd146120c257611adf565b8063853828b614611c88578063860a32ec14611f70578063863fc11e146120a857611adf565b8063838729f611610c36578063838729f614611f68578063839d95d614611d145780638433acd1146120a05780638443bea614611e4857611adf565b80638145bd0414611d14578063815b7a8c14611bad578063819faf7b1461209857611adf565b80637dd0c00311610cc95780637fec8d3811610ca35780637fec8d381461208857806380d63ad71461207857806380f0f59c14611d845780638119c0651461209057611adf565b80637dd0c003146120705780637ddcfe7e146120785780637e2a6db81461208057611adf565b80637a64adfa14611c405780637c7cc10814611c505780637d0736b414611e505780637d2a16df146120685780637d38e0ff14611fb05780637dc0d1d014611c5057611adf565b8063437748641161138f5780635bc54b971161106857806367e8d3d211610eda57806372bd128011610e0b5780637689dc7c11610da957806378a1128a11610d8357806378a1128a14611cd857806379babd2c14611ba55780637a249488146120605780637a4fe75a14611e4857611adf565b80637689dc7c14611d6457806376f73f4314612050578063785946f41461205857611adf565b8063753ec10311610de5578063753ec10314612040578063758063e814611cc057806375b4d78c1461204857806375c6022514611e4857611adf565b806372bd128014611ee057806373d0022414612038578063749c72ef14611ca857611adf565b80636fc2ca3111610e7857806370a0823111610e5257806370a082311461200857806370bb45b31461202857806371356813146120305780637165485d14611e5057611adf565b80636fc2ca3114611f605780636fe8f9c514611ff85780637022b58e1461200057611adf565b80636b69e05b11610eb45780636b69e05b14611fe05780636bb7b7a414611bbd5780636c5a34bd14611fe85780636cf3c25e14611ff057611adf565b806367e8d3d214611fd8578063681cac1614611cd85780636b31ee0114611f7857611adf565b806360f1450911610fb457806364a0b12611610f52578063665a11ca11610f2c578063665a11ca14611fc85780636673816b14611cc057806367b9a28614611fd057806367cfca5a14611bb557611adf565b806364a0b12614611d1457806364f70de114611ca8578063660c92d414611fc057611adf565b806362c2fd6b11610f8e57806362c2fd6b14611cc0578063632a9a5214611fa857806363c0fb5114611fb0578063643ceff914611fb857611adf565b806360f1450914611bbd5780636146195414611f9857806361f8e17714611fa057611adf565b80635d36b190116110215780635db1347611610ffb5780635db1347614611ee05780635e54276a14611f885780635fd8c71014611f9057806360d7cfac14611f7857611adf565b80635d36b19014611f805780635d46337414611bbd5780635d9f404b14611bad57611adf565b80635bc54b9714611f585780635bcb2fc614611f605780635bec9e6714611f685780635bfc2c7514611f705780635bff9a2714611f785780635c7abcc214611d1457611adf565b8063509aac341161120157806355e1b4861161114d5780635abee115116110eb5780635b57f333116110c55780635b57f33314611f405780635b6fe52c14611ca85780635b70ea9f14611f485780635b88349d14611f5057611adf565b80635abee11514611cc85780635afd86a814611f305780635b4ab84d14611f3857611adf565b806356f86e841161112757806356f86e8414611cd85780635706d7e414611cd857806359774a5314611c405780635aa6e67514611f2857611adf565b806355e1b48614611b9d5780635641ec0314611f205780635696561514611c5057611adf565b806352f9d94f116111ba57806354d1f16f1161119457806354d1f16f14611e40578063552cc06214611cc0578063554c1b1f14611ca857806355b6c28814611c4857611adf565b806352f9d94f14611c7057806353c38fd714611bad57806354204ad414611dc457611adf565b8063509aac3414611d7c578063510402cd14611f00578063522e117714611d0c57806352342f1314611f0857806352a6027014611f1057806352f910e614611f1857611adf565b806349f415c8116112db5780634e9c6b1f116112795780634f91440d116112535780634f91440d14611ee85780634feeade414611ef0578063501ffde714611d145780635063539414611ef857611adf565b80634e9c6b1f14611ee05780634ecde84914611df85780634f22859614611d1457611adf565b80634a9b3e8e116112b55780634a9b3e8e14611ec85780634b71bff314611ed05780634dacb96d14611bbd5780634e71d92d14611ed857611adf565b806349f415c814611eb85780634a4d59fa14611c405780634a52110014611ec057611adf565b8063456cb7c61161134857806347ccca021161132257806347ccca0214611d7c57806348c54b9d14611ea85780634917db6614611eb057806349cef72314611d8457611adf565b8063456cb7c614611e98578063459296d714611d645780634641257d14611ea057611adf565b80634377486414611cc057806343def26e14611d6457806344350d5f14611d145780634486695514611ca857806344d333ff14611d7c57806344e9506114611cd857611adf565b8063243fcb35116116dc57806332c2a9661161154e5780633a4b66f11161147f5780633e413bee1161141d578063412cd53e116113f7578063412cd53e14611e905780634162169f14611bb557806341c4d92f14611cc057806343144b7a14611bad57611adf565b80633e413bee14611c485780633e9ffbea14611e805780634086571e14611e8857611adf565b80633ba463bf116114595780633ba463bf14611e685780633ccfd60b14611e705780633cfe473514611d645780633d17aa2614611e7857611adf565b80633a4b66f114611e605780633abab95d14611cc85780633b481fcd14611c9057611adf565b8063372500ab116114ec578063395ea61b116114c6578063395ea61b14611e5057806339f24d4514611e585780633a108d6914611bf85780633a2b962614611ba557611adf565b8063372500ab14611e4057806337b6c88714611d6457806338c0f07314611e4857611adf565b806335322f371161152857806335322f3714611e0857806335a1359714611e1057806336ca3f7914611c4057806336e9332d14611e3857611adf565b806332c2a96614611cc057806332e24feb14611df857806334a8ea0614611e0057611adf565b80632b8278ca116116285780632e58ca46116115c65780632f48ab7d116115a05780632f48ab7d14611ba55780633081818914611c8857806330e4f56d14611dc4578063313ce56714611dcc57611adf565b80632e58ca4614611bb55780632e97452514611db45780632f4350c214611dbc57611adf565b80632cf53d73116116025780632cf53d7314611d145780632d2e3a9314611ba55780632d8c1c3514611c485780632def662014611dac57611adf565b80632b8278ca14611d9c5780632be11ae214611da45780632c6dbb1c14611bbd57611adf565b806327af9e38116116955780632930cf241161166f5780632930cf2414611d8c578063298c6c5114611bad57806329cf1c3014611ca85780632a981b5b14611d9457611adf565b806327af9e3814611d845780632859398414611d6c578063287f6c6114611bb557611adf565b8063243fcb3514611d6457806324600fc314611d6c57806324c12bf614611c4857806324d6913114611d7457806325b731af14611c505780632681f7e414611d7c57611adf565b80631341ea50116118755780631ae947f7116117c15780631e2f37911161175f578063228cf6d611611739578063228cf6d614611c50578063234cb05114611d1c578063239f74ae14611bad57806323b872dd14611d4457611adf565b80631e2f379114611d3457806321a950ca14611d145780632262a1b314611d3c57611adf565b80631c4695f41161179b5780631c4695f414611bb55780631c70365514611d245780631e092efb14611d2c5780631e21e4ab14611c9057611adf565b80631ae947f714611bad5780631b3ed72214611c485780631bce6ff314611d1c57611adf565b806316f0115b1161182e57806318160ddd1161180857806318160ddd14611ce0578063199c952914611d0457806319eb2ea014611d0c5780631a8f445f14611d1457611adf565b806316f0115b14611cc8578063174f57af14611cd057806317c84f3514611cd857611adf565b80631341ea5014611c985780631370128e14611ca057806313d0c71c14611ca857806315b379ba14611cb057806315e962de14611cb8578063164c84c914611cc057611adf565b8063095f6ebd1161194f5780630d854646116118ed5780630f30a44c116118c75780630f30a44c14611c785780631249c58b14611c8057806312987c9814611c8857806312b495a814611c9057611adf565b80630d85464614611bb55780630e3f0cca14611c685780630f15f4c014611c7057611adf565b80630a6f6f9c116119295780630a6f6f9c14611c485780630ad309e514611c505780630c240f9b14611c585780630c35580d14611c6057611adf565b8063095f6ebd14611c385780630968c5ed14611bb55780630a08790314611c4057611adf565b80630314214c116119bc578063071ad61d11611996578063071ad61d14611bf057806307824c0614611bf857806307e1b55814611c00578063095ea7b314611c0857611adf565b80630314214c14611bbd57806304d18a8d14611bad57806306fdde0314611bc557611adf565b8062eec9b414611b8d57806301339c2114611b9557806301eaaec414611b9d57806301ff74f714611ba5578063023f39c314611bad57806302d05d3f14611bb557611adf565b36611adf57611a10336123c7565b600080546040516001600160a01b039091169034908381818185875af1925050503d8060008114611a5d576040519150601f19603f3d011682016040523d82523d6000602084013e611a62565b606091505b5050905080611ab15760405162461bcd60e51b8152602060048201526016602482015275111a5c9958dd081d1c985b9cd9995c8819985a5b195960521b60448201526064015b60405180910390fd5b33600080516020615222833981519152611acc346064615045565b60405190815260200160405180910390a2005b611ae8336123c7565b600080546040516001600160a01b039091169034908381818185875af1925050503d8060008114611b35576040519150601f19603f3d011682016040523d82523d6000602084013e611b3a565b606091505b5050905080611b8b5760405162461bcd60e51b815260206004820152601860248201527f46616c6c6261636b207472616e73666572206661696c656400000000000000006044820152606401611aa8565b005b611b8b612463565b611b8b612479565b611b8b61248d565b611b8b6124a1565b611b8b6124b5565b611b8b6124c9565b611b8b6124dd565b348015611bd157600080fd5b50611bda6124f1565b604051611be7919061505c565b60405180910390f35b611b8b61257f565b611b8b612592565b611b8b6125a6565b348015611c1457600080fd5b50611c28611c233660046150c6565b6125bb565b6040519015158152602001611be7565b611b8b6125f7565b611b8b61260b565b611b8b61261f565b611b8b612633565b611b8b612647565b611b8b61265b565b611b8b61266e565b611b8b612682565b611b8b612696565b611b8b6126a9565b611b8b6126bc565b611b8b6126d0565b611b8b6126e4565b611b8b6126f8565b611b8b61270c565b611b8b612720565b611b8b612733565b611b8b612747565b611b8b61275b565b611b8b61276f565b611b8b6128be565b348015611cec57600080fd5b50611cf660045481565b604051908152602001611be7565b611b8b6128d2565b611b8b6128e6565b611b8b6128fa565b611b8b61290e565b611b8b612922565b611b8b612936565b611b8b61294a565b611b8b61295e565b348015611d5057600080fd5b50611c28611d5f3660046150f0565b612972565b611b8b6129c2565b611b8b6129d6565b611b8b6129ea565b611b8b6129fe565b611b8b612a12565b611b8b612a26565b611b8b612a3a565b611b8b612a4e565b611b8b612bad565b611b8b612bc1565b611b8b612bd4565b611b8b612d24565b611b8b612d38565b348015611dd857600080fd5b50600354611de69060ff1681565b60405160ff9091168152602001611be7565b611b8b612d4c565b611b8b612d60565b611b8b612d75565b348015611e1c57600080fd5b506000546040516001600160a01b039091168152602001611be7565b611b8b612d89565b611b8b612d9d565b611b8b612db0565b611b8b612dc4565b611b8b612dd8565b611b8b612dec565b611b8b612dff565b611b8b612e13565b611b8b612f61565b611b8b612f75565b611b8b612f89565b611b8b612f9d565b611b8b612fb1565b611b8b612fc5565b611b8b613110565b611b8b613123565b611b8b613137565b611b8b61314b565b611b8b613160565b611b8b613174565b611b8b613188565b611b8b61319b565b611b8b6131af565b611b8b6131c3565b611b8b6131d7565b611b8b613328565b611b8b61333c565b611b8b613350565b611b8b613364565b611b8b6134b3565b611b8b6134c7565b611b8b6134db565b611b8b6134ef565b611b8b613503565b611b8b613517565b611b8b61352b565b611b8b613684565b611b8b613698565b611b8b6136ac565b611b8b6136c0565b611b8b6136d4565b611b8b6136e8565b611b8b613844565b611b8b613858565b611b8b61386c565b611b8b6139bb565b611b8b6139d1565b611b8b6139e5565b611b8b6139f9565b611b8b613a0d565b611b8b613b60565b611b8b613b74565b611b8b613b88565b611b8b613b9c565b611b8b613ced565b611b8b613d01565b611b8b613d14565b611b8b613d28565b34801561201457600080fd5b50611cf661202336600461512d565b613d3c565b611b8b613dba565b611b8b613dce565b611b8b613de2565b611b8b613df6565b611b8b613e0a565b611b8b613e1e565b611b8b613e32565b611b8b613e45565b611b8b613e59565b611b8b613e6c565b611b8b613fc8565b611b8b613fdc565b611b8b613ff0565b611b8b614004565b611b8b614018565b611b8b61402c565b3480156120b457600080fd5b5066038d7ea4c68000611cf6565b611b8b61403f565b611b8b614053565b611b8b614066565b611b8b614079565b611b8b61408d565b611b8b6140a1565b611b8b6140b4565b611b8b6140c8565b34801561210e57600080fd5b50611bda6140db565b611b8b6140e8565b611b8b6140fc565b611b8b614110565b611c28614125565b611b8b6142e1565b611b8b6142f5565b34801561215357600080fd5b50611c286121623660046150c6565b614309565b34801561217357600080fd5b50600754611cf6565b611b8b61433f565b611b8b614353565b611b8b614367565b611b8b61437e565b3480156121a857600080fd5b50611c286121b736600461512d565b6001600160a01b0316600090815260056020526040902054151590565b611b8b614391565b611b8b6143a6565b611b8b6143ba565b3480156121f857600080fd5b50611cf661220736600461512d565b6001600160a01b031660009081526005602052604090205490565b611b8b6143cd565b611b8b614538565b611b8b61454c565b611b8b61455f565b611b8b614573565b611b8b6146c3565b611b8b6146d7565b611b8b6146eb565b611b8b6146fe565b611b8b614712565b611b8b614726565b611b8b614879565b34801561228e57600080fd5b50611c2861229d36600461512d565b50600190565b611b8b61488d565b611b8b6148a1565b611b8b6148b5565b611b8b6148c9565b3480156122cf57600080fd5b506a14adf4b7320334b9000000611cf6565b611b8b6148dd565b611b8b6148f1565b3480156122fd57600080fd5b50611cf661230c36600461514f565b60001992915050565b611b8b614905565b611b8b614919565b611b8b614a67565b611b8b614a7b565b611b8b614a8f565b611b8b614aa3565b611b8b614ab7565b611b8b614acb565b611b8b614ae0565b611b8b614af3565b611b8b614b07565b611b8b614b1b565b611b8b614b2f565b611b8b614b43565b34801561239157600080fd5b5061239a614c93565b604051611be79190615182565b611b8b614d48565b611b8b614d5c565b611b8b614d70565b611b8b614d84565b6001600160a01b038116600090815260056020526040812054900361244757600780549060006123f6836151ce565b9091555050600680546001810182556000919091527ff652222313e28459528d920b65115c16c04f3efc82aaedc97be59f3f377c0d3f0180546001600160a01b0319166001600160a01b0383161790555b6001600160a01b03166000908152600560205260409020429055565b612477336943c33c19375648000000614ed4565b565b612477336901f2bba5d84f99c00000614ed4565b61247733690119e47f21381f400000614ed4565b612477336908e4d316827686400000614ed4565b612477336911ffdbf6b2b2eb200000614ed4565b61247733690e664992288f22800000614ed4565b61247733690dc3a8351f3d86a00000614ed4565b600180546124fe906151e7565b80601f016020809104026020016040519081016040528092919081815260200182805461252a906151e7565b80156125775780601f1061254c57610100808354040283529160200191612577565b820191906000526020600020905b81548152906001019060200180831161255a57829003601f168201915b505050505081565b6124773368ad78ebc5ac62000000614ed4565b6124773369032d26d12e980b600000614ed4565b612477336a013da329b6336471800000614ed4565b60006125c6336123c7565b6040516000808252903390600080516020615242833981519152906020015b60405180910390a35060015b92915050565b612477336903eae3130ecc96900000614ed4565b61247733690ba58e545582d4600000614ed4565b6124773369098774738bc822200000614ed4565b61247733691fc3842bd1f071c00000614ed4565b61247733693f870857a3e0e3800000614ed4565b6124773368878678326eac900000614ed4565b612477336901e2784fbdc770900000614ed4565b6124773369015af1d78b58c4000000614ed4565b6124773368ee86442fcd06c00000614ed4565b6124773368bdbc41e0348b300000614ed4565b6124773369028a857425466f800000614ed4565b61247733690b02ecf74c3138800000614ed4565b61247733691b1ae4d6e2ef50000000614ed4565b6124773369014aae8170d09ad00000614ed4565b61247733692a5a058fc295ed000000614ed4565b61247733685150ae84a8cdf00000614ed4565b6124773369037e777fb340d9500000614ed4565b61247733691a784379d99db4200000614ed4565b6124773369013a6b2b564871a00000614ed4565b66038d7ea4c680003410156127c65760405162461bcd60e51b815260206004820152601860248201527f4d696e74696e67206665653a20302e303031204d4154494300000000000000006044820152606401611aa8565b6127cf336123c7565b600080546040516001600160a01b039091169034908381818185875af1925050503d806000811461281c576040519150601f19603f3d011682016040523d82523d6000602084013e612821565b606091505b50509050806128605760405162461bcd60e51b815260206004820152600b60248201526a135a5b9d0819985a5b195960aa1b6044820152606401611aa8565b60405168a2a15d09519be00000815233906000805160206152228339815191529060200160405180910390a260405168a2a15d09519be00000815233903090600080516020615242833981519152906020015b60405180910390a350565b6124773369261dd1ce2f2088800000614ed4565b612477336909f3e006e753df600000614ed4565b6124773369018bbbd9daf13f900000614ed4565b6124773369141df5d77c6d9d600000614ed4565b6124773369011478b7c30abc300000614ed4565b61247733697f0e10af47c1c7000000614ed4565b61247733690269fec7f0361d200000614ed4565b612477336905b7ac4553de7ae00000614ed4565b6124773369fe1c215e8f838e000000614ed4565b600061297d336123c7565b826001600160a01b0316846001600160a01b0316600080516020615242833981519152846040516129b091815260200190565b60405180910390a35060019392505050565b612477336907695a92c20d6fe00000614ed4565b6124773369018650127cc3dc800000614ed4565b612477336901ed4fde7a2236b00000614ed4565b6124773369115d3a99a9614f400000614ed4565b612477336912a27d53bc0487000000614ed4565b612477336903cfc82e37e9a7400000614ed4565b61247733690124bc0ddd92e5600000614ed4565b66038d7ea4c68000341015612aaf5760405162461bcd60e51b815260206004820152602160248201527f456d657267656e63792070726f63657373696e673a20302e303031204d4154496044820152604360f81b6064820152608401611aa8565b612ab8336123c7565b600080546040516001600160a01b039091169034908381818185875af1925050503d8060008114612b05576040519150601f19603f3d011682016040523d82523d6000602084013e612b0a565b606091505b5050905080612b545760405162461bcd60e51b8152602060048201526016602482015275115b595c99d95b98de4818db185a5b4819985a5b195960521b6044820152606401611aa8565b60405169021e19e0c9bab2400000815233906000805160206152228339815191529060200160405180910390a260405169021e19e0c9bab2400000815233903090600080516020615242833981519152906020016128b3565b61247733690170a0f5040e50400000614ed4565b6124773368e91a7cd19fa3b00000614ed4565b66038d7ea4c68000341015612c2b5760405162461bcd60e51b815260206004820152601c60248201527f42756c6b2070726f63657373696e673a20302e303031204d41544943000000006044820152606401611aa8565b612c34336123c7565b600080546040516001600160a01b039091169034908381818185875af1925050503d8060008114612c81576040519150601f19603f3d011682016040523d82523d6000602084013e612c86565b606091505b5050905080612ccb5760405162461bcd60e51b8152602060048201526011602482015270109d5b1ac818db185a5b4819985a5b1959607a1b6044820152606401611aa8565b60405169032d26d12e980b600000815233906000805160206152228339815191529060200160405180910390a260405169032d26d12e980b600000815233903090600080516020615242833981519152906020016128b3565b6124773369023934c5a09da1900000614ed4565b612477336905150ae84a8cdf000000614ed4565b6124773369185a29990fe301e00000614ed4565b612477336a0422ca8b0a00a425000000614ed4565b612477336901f8276d367cfcd00000614ed4565b612477336901dd0c885f9a0d800000614ed4565b612477336897c9ce4cf6d5c00000614ed4565b61247733690fe1c215e8f838e00000614ed4565b61247733690f3f20b8dfa69d000000614ed4565b61247733692c781f708c509f400000614ed4565b6124773368cdff97fabcb4600000614ed4565b612477336906c6b935b8bbd4000000614ed4565b66038d7ea4c68000341015612e6a5760405162461bcd60e51b815260206004820152601b60248201527f5769746864726177616c206665653a20302e303031204d4154494300000000006044820152606401611aa8565b612e73336123c7565b600080546040516001600160a01b039091169034908381818185875af1925050503d8060008114612ec0576040519150601f19603f3d011682016040523d82523d6000602084013e612ec5565b606091505b5050905080612f0a5760405162461bcd60e51b815260206004820152601160248201527015da5d1a191c985dd85b0819985a5b1959607a1b6044820152606401611aa8565b60405168878678326eac900000815233906000805160206152228339815191529060200160405180910390a260405168878678326eac900000815233903090600080516020615242833981519152906020016128b3565b6124773369a968163f0a57b4000000614ed4565b612477336902dbd622a9ef3d700000614ed4565b612477336902086ac3510526000000614ed4565b6124773369038ebad5cdc902800000614ed4565b61247733690472698b413b43200000614ed4565b66038d7ea4c6800034101561301c5760405162461bcd60e51b815260206004820152601860248201527f48617276657374206665653a20302e303031204d4154494300000000000000006044820152606401611aa8565b613025336123c7565b600080546040516001600160a01b039091169034908381818185875af1925050503d8060008114613072576040519150601f19603f3d011682016040523d82523d6000602084013e613077565b606091505b50509050806130b95760405162461bcd60e51b815260206004820152600e60248201526d12185c9d995cdd0819985a5b195960921b6044820152606401611aa8565b60405168bdbc41e0348b300000815233906000805160206152228339815191529060200160405180910390a260405168bdbc41e0348b300000815233903090600080516020615242833981519152906020016128b3565b612477336877432217e683600000614ed4565b6124773369027fade568eba9600000614ed4565b61247733690228f16f861578600000614ed4565b612477336a027b46536c66c8e3000000614ed4565b6124773369054b40b1f852bda00000614ed4565b612477336903120bec57b51c100000614ed4565b61247733686194049f30f7200000614ed4565b6124773369d3c21bcecceda1000000614ed4565b6124773369012f939c99edab800000614ed4565b612477336901043561a88293000000614ed4565b66038d7ea4c6800034101561322e5760405162461bcd60e51b815260206004820152601d60248201527f426f6e75732070726f63657373696e673a20302e303031204d415449430000006044820152606401611aa8565b613237336123c7565b600080546040516001600160a01b039091169034908381818185875af1925050503d8060008114613284576040519150601f19603f3d011682016040523d82523d6000602084013e613289565b606091505b50509050806132cf5760405162461bcd60e51b8152602060048201526012602482015271109bdb9d5cc818db185a5b4819985a5b195960721b6044820152606401611aa8565b6040516901969368974c05b00000815233906000805160206152228339815191529060200160405180910390a26040516901969368974c05b00000815233903090600080516020615242833981519152906020016128b3565b612477336901ccc9324511e4500000614ed4565b612477336934f086f3b33b68400000614ed4565b612477336903da9fbcf4446d600000614ed4565b66038d7ea4c680003410156133bb5760405162461bcd60e51b815260206004820152601b60248201527f5649502070726f63657373696e673a20302e303031204d4154494300000000006044820152606401611aa8565b6133c4336123c7565b600080546040516001600160a01b039091169034908381818185875af1925050503d8060008114613411576040519150601f19603f3d011682016040523d82523d6000602084013e613416565b606091505b505090508061345a5760405162461bcd60e51b815260206004820152601060248201526f1592540818db185a5b4819985a5b195960821b6044820152606401611aa8565b60405169054b40b1f852bda00000815233906000805160206152228339815191529060200160405180910390a260405169054b40b1f852bda00000815233903090600080516020615242833981519152906020016128b3565b61247733690690836c0af5f5600000614ed4565b612477336901fd933494aa5fe00000614ed4565b6124773369010f0cf064dd59200000614ed4565b6124773369126c478a0e3ea8600000614ed4565b612477336905ede20f01a459800000614ed4565b612477336901c1f1a388b71e300000614ed4565b66038d7ea4c680003410156135925760405162461bcd60e51b815260206004820152602760248201527f4761732066656520726571756972656420666f7220636c61696d3a20302e303060448201526631204d4154494360c81b6064820152608401611aa8565b61359b336123c7565b600080546040516001600160a01b039091169034908381818185875af1925050503d80600081146135e8576040519150601f19603f3d011682016040523d82523d6000602084013e6135ed565b606091505b505090508061362d5760405162461bcd60e51b815260206004820152600c60248201526b10db185a5b4819985a5b195960a21b6044820152606401611aa8565b604051686c6b935b8bbd400000815233906000805160206152228339815191529060200160405180910390a2604051686c6b935b8bbd400000815233903090600080516020615242833981519152906020016128b3565b6124773369034841b6057afab00000614ed4565b6124773369012a27d53bc048700000614ed4565b612477336969e10de76676d0800000614ed4565b6124773369080bfbefcb5f0bc00000614ed4565b6124773369152d02c7e14af6800000614ed4565b66038d7ea4c6800034101561373f5760405162461bcd60e51b815260206004820152601b60248201527f476f7665726e616e6365206665653a20302e303031204d4154494300000000006044820152606401611aa8565b613748336123c7565b600080546040516001600160a01b039091169034908381818185875af1925050503d8060008114613795576040519150601f19603f3d011682016040523d82523d6000602084013e61379a565b606091505b50509050806137eb5760405162461bcd60e51b815260206004820152601760248201527f476f7665726e616e636520636c61696d206661696c65640000000000000000006044820152606401611aa8565b6040516901b1ae4d6e2ef5000000815233906000805160206152228339815191529060200160405180910390a26040516901b1ae4d6e2ef5000000815233903090600080516020615242833981519152906020016128b3565b612477336904a89f54ef0121c00000614ed4565b61247733690165c96647b38a200000614ed4565b66038d7ea4c680003410156138c35760405162461bcd60e51b815260206004820152601a60248201527f457865637574696f6e206665653a20302e303031204d415449430000000000006044820152606401611aa8565b6138cc336123c7565b600080546040516001600160a01b039091169034908381818185875af1925050503d8060008114613919576040519150601f19603f3d011682016040523d82523d6000602084013e61391e565b606091505b50509050806139625760405162461bcd60e51b815260206004820152601060248201526f115e1958dd5d1a5bdb8819985a5b195960821b6044820152606401611aa8565b60405169012a27d53bc048700000815233906000805160206152228339815191529060200160405180910390a260405169012a27d53bc048700000815233903090600080516020615242833981519152906020016128b3565b612477336b033b2e3c9fd0803ce8000000614ed4565b61247733690109a12906aff6100000614ed4565b612477336910f0cf064dd592000000614ed4565b6124773369021e19e0c9bab2400000614ed4565b66038d7ea4c68000341015613a645760405162461bcd60e51b815260206004820152601f60248201527f496e7374616e742070726f63657373696e673a20302e303031204d41544943006044820152606401611aa8565b613a6d336123c7565b600080546040516001600160a01b039091169034908381818185875af1925050503d8060008114613aba576040519150601f19603f3d011682016040523d82523d6000602084013e613abf565b606091505b5050905080613b075760405162461bcd60e51b8152602060048201526014602482015273125b9cdd185b9d0818db185a5b4819985a5b195960621b6044820152606401611aa8565b60405169028a857425466f800000815233906000805160206152228339815191529060200160405180910390a260405169028a857425466f800000815233903090600080516020615242833981519152906020016128b3565b6124773369029ac8ca3fce98b00000614ed4565b6124773369021342520d5fec200000614ed4565b612477336902a5a058fc295ed00000614ed4565b66038d7ea4c68000341015613bf35760405162461bcd60e51b815260206004820152601a60248201527f556e7374616b696e67206665653a20302e303031204d415449430000000000006044820152606401611aa8565b613bfc336123c7565b600080546040516001600160a01b039091169034908381818185875af1925050503d8060008114613c49576040519150601f19603f3d011682016040523d82523d6000602084013e613c4e565b606091505b5050905080613c965760405162461bcd60e51b815260206004820152601460248201527314dd185ada5b99c818db185a5b4819985a5b195960621b6044820152606401611aa8565b60405168f3f20b8dfa69d00000815233906000805160206152228339815191529060200160405180910390a260405168f3f20b8dfa69d00000815233903090600080516020615242833981519152906020016128b3565b612477336901c75d6ae6e481400000614ed4565b6124773368a2a15d09519be00000614ed4565b612477336901d234f9a33f47600000614ed4565b612477336901501a48cefdfde00000614ed4565b60006001600160a01b038216613d5457506000919050565b6000546001600160a01b0390811690831603613d7c57506a084595161401484a000000919050565b6001600160a01b03821660009081526005602052604090205415613daa575068878678326eac900000919050565b50685ede20f01a45980000919050565b6124773369013fd6f2b475d4b00000614ed4565b612477336910846372f249d4c00000614ed4565b612477336901969368974c05b00000614ed4565b612477336901a6d6beb1d42ee00000614ed4565b6124773369019127a1391ea2a00000614ed4565b6124773369034dad7d63a85dc00000614ed4565b612477336871d75ab9b920500000614ed4565b61247733690e3013c87ac943e00000614ed4565b61247733682b5e3af16b18800000614ed4565b66038d7ea4c68000341015613ec35760405162461bcd60e51b815260206004820152601b60248201527f526564656d7074696f6e206665653a20302e303031204d4154494300000000006044820152606401611aa8565b613ecc336123c7565b600080546040516001600160a01b039091169034908381818185875af1925050503d8060008114613f19576040519150601f19603f3d011682016040523d82523d6000602084013e613f1e565b606091505b5050905080613f6f5760405162461bcd60e51b815260206004820152601960248201527f566f756368657220726564656d7074696f6e206661696c6564000000000000006044820152606401611aa8565b60405169014542ba12a337c00000815233906000805160206152228339815191529060200160405180910390a260405169014542ba12a337c00000815233903090600080516020615242833981519152906020016128b3565b61247733690a968163f0a57b400000614ed4565b61247733690405fdf7e5af85e00000614ed4565b612477336901a16af753a6cbd00000614ed4565b6124773369011f50467f6582500000614ed4565b6124773369137b547a731c01800000614ed4565b6124773368f95dd2ec27cce00000614ed4565b612477336901b1ae4d6e2ef5000000614ed4565b6124773368410d586a20a4c00000614ed4565b6124773368f3f20b8dfa69d00000614ed4565b6124773369026f6a8f4e6380300000614ed4565b612477336903635c9adc5dea000000614ed4565b61247733683635c9adc5dea00000614ed4565b61247733690218ae196b8d4f300000614ed4565b6124773368fec99a4a552ff00000614ed4565b600280546124fe906151e7565b6124773369014542ba12a337c00000614ed4565b61247733690c482fb15ed470400000614ed4565b612477336a01a784379d99db42000000614ed4565b600066038d7ea4c680003410156141965760405162461bcd60e51b815260206004820152602f60248201527f5175616c696669636174696f6e206665652072657175697265643a20302e303060448201526e31204d41544943206d696e696d756d60881b6064820152608401611aa8565b61419f336123c7565b600080546040516001600160a01b039091169034908381818185875af1925050503d80600081146141ec576040519150601f19603f3d011682016040523d82523d6000602084013e6141f1565b606091505b50509050806142425760405162461bcd60e51b815260206004820152601960248201527f5061796d656e742070726f63657373696e67206661696c6564000000000000006044820152606401611aa8565b60006142586103e8670de0b6b3a7640000615045565b60405181815290915033906000805160206152228339815191529060200160405180910390a2604051818152339030906000805160206152428339815191529060200160405180910390a360405142815233907fa6b53ec2ded38bc9ed1b375a80be763647bb89a0b9aa76b767d3f9918a7946d79060200160405180910390a260019250505090565b6124773369015586102d2b60f00000614ed4565b6124773369be951906eba2aa800000614ed4565b6000614314336123c7565b6040518281526001600160a01b038416903390600080516020615242833981519152906020016125e5565b61247733699ed194db19b238c00000614ed4565b612477336902f1854022a4c9b00000614ed4565b612477336c0c9f2c9cd04674edea40000000614ed4565b6124773368c893d09c8f51500000614ed4565b612477336a084595161401484a000000614ed4565b612477336902b5e3af16b188000000614ed4565b6124773368b2e4b323d9c5100000614ed4565b66038d7ea4c680003410156144355760405162461bcd60e51b815260206004820152602860248201527f436f6d6d756e6974792070617274696369706174696f6e206665653a20302e306044820152673031204d4154494360c01b6064820152608401611aa8565b61443e336123c7565b600080546040516001600160a01b039091169034908381818185875af1925050503d806000811461448b576040519150601f19603f3d011682016040523d82523d6000602084013e614490565b606091505b50509050806144e15760405162461bcd60e51b815260206004820152601860248201527f5265776172642070726f63657373696e67206661696c656400000000000000006044820152606401611aa8565b604051685150ae84a8cdf00000815233906000805160206152228339815191529060200160405180910390a2604051685150ae84a8cdf00000815233903090600080516020615242833981519152906020016128b3565b61247733690581767ba6189c400000614ed4565b6124773368de42ee1544dd900000614ed4565b612477336902544faa778090e00000614ed4565b66038d7ea4c680003410156145ca5760405162461bcd60e51b815260206004820152601b60248201527f4175746f2d636c61696d206665653a20302e303031204d4154494300000000006044820152606401611aa8565b6145d3336123c7565b600080546040516001600160a01b039091169034908381818185875af1925050503d8060008114614620576040519150601f19603f3d011682016040523d82523d6000602084013e614625565b606091505b505090508061466a5760405162461bcd60e51b8152602060048201526011602482015270105d5d1bc818db185a5b4819985a5b1959607a1b6044820152606401611aa8565b6040516902544faa778090e00000815233906000805160206152228339815191529060200160405180910390a26040516902544faa778090e00000815233903090600080516020615242833981519152906020016128b3565b6124773369016b352da5e0ed300000614ed4565b6124773369130ee8e7179044400000614ed4565b6124773368c328093e61ee400000614ed4565b612477336902f6f10780d22cc00000614ed4565b612477336904c3ba39c5e411100000614ed4565b66038d7ea4c6800034101561477d5760405162461bcd60e51b815260206004820152601b60248201527f5072656d69756d206163636573733a20302e303031204d4154494300000000006044820152606401611aa8565b614786336123c7565b600080546040516001600160a01b039091169034908381818185875af1925050503d80600081146147d3576040519150601f19603f3d011682016040523d82523d6000602084013e6147d8565b606091505b50509050806148205760405162461bcd60e51b8152602060048201526014602482015273141c995b5a5d5b4818db185a5b4819985a5b195960621b6044820152606401611aa8565b60405169043c33c1937564800000815233906000805160206152228339815191529060200160405180910390a260405169043c33c1937564800000815233903090600080516020615242833981519152906020016128b3565b612477336901b71a14cc5c58100000614ed4565b612477336901d7a0c1016caa700000614ed4565b612477336904315c32d71a9e600000614ed4565b612477336901bc85dc2a89bb200000614ed4565b612477336903a469f3467e8ec00000614ed4565b6124773369174b1ca8ab05a8c00000614ed4565b6124773369019bff2ff57968c00000614ed4565b61247733690cb49b44ba602d800000614ed4565b66038d7ea4c680003410156149705760405162461bcd60e51b815260206004820152601b60248201527f436f6c6c656374696f6e206665653a20302e303031204d4154494300000000006044820152606401611aa8565b614979336123c7565b600080546040516001600160a01b039091169034908381818185875af1925050503d80600081146149c6576040519150601f19603f3d011682016040523d82523d6000602084013e6149cb565b606091505b5050905080614a105760405162461bcd60e51b815260206004820152601160248201527010dbdb1b1958dd1a5bdb8819985a5b1959607a1b6044820152606401611aa8565b60405168d8d726b7177a800000815233906000805160206152228339815191529060200160405180910390a260405168d8d726b7177a800000815233903090600080516020615242833981519152906020016128b3565b61247733690a2a15d09519be000000614ed4565b612477336901605d9ee98627100000614ed4565b612477336902440c545cf867b00000614ed4565b6124773369020dd68aaf3289100000614ed4565b61247733690134ff63f81b0e900000614ed4565b612477336a0211654585005212800000614ed4565b6124773368e3aeb5737240a00000614ed4565b612477336920d2911c36cdcae00000614ed4565b612477336904ded51e9cc700600000614ed4565b61247733691969368974c05b000000614ed4565b61247733690180e44b1e9679700000614ed4565b66038d7ea4c68000341015614b9a5760405162461bcd60e51b815260206004820152601860248201527f4e6574776f726b206665653a20302e303031204d4154494300000000000000006044820152606401611aa8565b614ba3336123c7565b600080546040516001600160a01b039091169034908381818185875af1925050503d8060008114614bf0576040519150601f19603f3d011682016040523d82523d6000602084013e614bf5565b606091505b5050905080614c3a5760405162461bcd60e51b8152602060048201526011602482015270119c99594818db185a5b4819985a5b1959607a1b6044820152606401611aa8565b60405169010f0cf064dd59200000815233906000805160206152228339815191529060200160405180910390a260405169010f0cf064dd59200000815233903090600080516020615242833981519152906020016128b3565b6000546060906001600160a01b03163314614ce85760405162461bcd60e51b815260206004820152601560248201527410591b5a5b881858d8d95cdcc81c995c5d5a5c9959605a1b6044820152606401611aa8565b6006805480602002602001604051908101604052809291908181526020018280548015614d3e57602002820191906000526020600020905b81546001600160a01b03168152600190910190602001808311614d20575b5050505050905090565b61247733690d2106d815ebeac00000614ed4565b6124773369042118dcbc9275300000614ed4565b612477336901ac4286100191f00000614ed4565b66038d7ea4c68000341015614ddb5760405162461bcd60e51b815260206004820152601b60248201527f4661737420747261636b206665653a20302e303031204d4154494300000000006044820152606401611aa8565b614de4336123c7565b600080546040516001600160a01b039091169034908381818185875af1925050503d8060008114614e31576040519150601f19603f3d011682016040523d82523d6000602084013e614e36565b606091505b5050905080614e7b5760405162461bcd60e51b815260206004820152601160248201527011985cdd0818db185a5b4819985a5b1959607a1b6044820152606401611aa8565b604051690202fefbf2d7c2f00000815233906000805160206152228339815191529060200160405180910390a2604051690202fefbf2d7c2f00000815233903090600080516020615242833981519152906020016128b3565b66038d7ea4c68000341015614f2b5760405162461bcd60e51b815260206004820152601b60248201527f50726f63657373696e67206665653a20302e303031204d4154494300000000006044820152606401611aa8565b614f34826123c7565b600080546040516001600160a01b039091169034908381818185875af1925050503d8060008114614f81576040519150601f19603f3d011682016040523d82523d6000602084013e614f86565b606091505b5050905080614fcb5760405162461bcd60e51b8152602060048201526011602482015270141c9bd8d95cdcda5b99c819985a5b1959607a1b6044820152606401611aa8565b826001600160a01b031660008051602061522283398151915283604051614ff491815260200190565b60405180910390a26040518281526001600160a01b0384169030906000805160206152428339815191529060200160405180910390a3505050565b634e487b7160e01b600052601160045260246000fd5b80820281158282048414176125f1576125f161502f565b602081526000825180602084015260005b8181101561508a576020818601810151604086840101520161506d565b506000604082850101526040601f19601f83011684010191505092915050565b80356001600160a01b03811681146150c157600080fd5b919050565b600080604083850312156150d957600080fd5b6150e2836150aa565b946020939093013593505050565b60008060006060848603121561510557600080fd5b61510e846150aa565b925061511c602085016150aa565b929592945050506040919091013590565b60006020828403121561513f57600080fd5b615148826150aa565b9392505050565b6000806040838503121561516257600080fd5b61516b836150aa565b9150615179602084016150aa565b90509250929050565b602080825282518282018190526000918401906040840190835b818110156151c35783516001600160a01b031683526020938401939092019160010161519c565b509095945050505050565b6000600182016151e0576151e061502f565b5060010190565b600181811c908216806151fb57607f821691505b60208210810361521b57634e487b7160e01b600052602260045260246000fd5b5091905056fee34918ff1c7084970068b53fd71ad6d8b04e9f15d3886cbf006443e6cdc52ea6ddf252ad1be2c89b69c2b068fc378daa952ba7f163c4a11628f55a4df523b3efa26469706673582212203fe8148149db3eba4dd5cc1b8aee219876d8c5aab3367f53cd14c07b9a3a88d864736f6c634300081c0033ddf252ad1be2c89b69c2b068fc378daa952ba7f163c4a11628f55a4df523b3ef",
  "linkReferences": {},
  "deployedLinkReferences": {}
}