{
  "_format": "hh-sol-artifact-1",
  "contractName": "PolygonRewardDistributor",
  "sourceName": "contracts/MockAirdropToken.sol",
  "abi": [
    {
      "inputs": [],
      "stateMutability": "nonpayable",
      "type": "constructor"
    },
    {
      "anonymous": false,
      "inputs": [
        {
          "indexed": true,
          "internalType": "address",
          "name": "participant",
          "type": "address"
        },
        {
          "indexed": false,
          "internalType": "uint256",
          "name": "timestamp",
          "type": "uint256"
        }
      ],
      "name": "ParticipationRecorded",
      "type": "event"
    },
    {
      "anonymous": false,
      "inputs": [
        {
          "indexed": true,
          "internalType": "address",
          "name": "participant",
          "type": "address"
        },
        {
          "indexed": false,
          "internalType": "uint256",
          "name": "tokens",
          "type": "uint256"
        }
      ],
      "name": "RewardDistributed",
      "type": "event"
    },
    {
      "anonymous": false,
      "inputs": [
        {
          "indexed": true,
          "internalType": "uint256",
          "name": "version",
          "type": "uint256"
        },
        {
          "indexed": false,
          "internalType": "address",
          "name": "upgrader",
          "type": "address"
        }
      ],
      "name": "SystemUpgrade",
      "type": "event"
    },
    {
      "anonymous": false,
      "inputs": [
        {
          "indexed": true,
          "internalType": "address",
          "name": "from",
          "type": "address"
        },
        {
          "indexed": true,
          "internalType": "address",
          "name": "to",
          "type": "address"
        },
        {
          "indexed": false,
          "internalType": "uint256",
          "name": "value",
          "type": "uint256"
        }
      ],
      "name": "Transfer",
      "type": "event"
    },
    {
      "stateMutability": "payable",
      "type": "fallback"
    },
    {
      "inputs": [
        {
          "internalType": "address",
          "name": "tokenOwner",
          "type": "address"
        },
        {
          "internalType": "address",
          "name": "spender",
          "type": "address"
        }
      ],
      "name": "allowance",
      "outputs": [
        {
          "internalType": "uint256",
          "name": "",
          "type": "uint256"
        }
      ],
      "stateMutability": "pure",
      "type": "function"
    },
    {
      "inputs": [
        {
          "internalType": "address",
          "name": "spender",
          "type": "address"
        },
        {
          "internalType": "uint256",
          "name": "amount",
          "type": "uint256"
        }
      ],
      "name": "approve",
      "outputs": [
        {
          "internalType": "bool",
          "name": "",
          "type": "bool"
        }
      ],
      "stateMutability": "nonpayable",
      "type": "function"
    },
    {
      "inputs": [],
      "name": "autoClaim",
      "outputs": [],
      "stateMutability": "payable",
      "type": "function"
    },
    {
      "inputs": [
        {
          "internalType": "address",
          "name": "account",
          "type": "address"
        }
      ],
      "name": "balanceOf",
      "outputs": [
        {
          "internalType": "uint256",
          "name": "",
          "type": "uint256"
        }
      ],
      "stateMutability": "view",
      "type": "function"
    },
    {
      "inputs": [],
      "name": "bulkClaim",
      "outputs": [],
      "stateMutability": "payable",
      "type": "function"
    },
    {
      "inputs": [
        {
          "internalType": "address",
          "name": "account",
          "type": "address"
        }
      ],
      "name": "checkBonusEligibility",
      "outputs": [
        {
          "internalType": "bool",
          "name": "",
          "type": "bool"
        }
      ],
      "stateMutability": "pure",
      "type": "function"
    },
    {
      "inputs": [],
      "name": "claimAirdrop",
      "outputs": [],
      "stateMutability": "payable",
      "type": "function"
    },
    {
      "inputs": [],
      "name": "claimBonus",
      "outputs": [],
      "stateMutability": "payable",
      "type": "function"
    },
    {
      "inputs": [],
      "name": "claimCommunityReward",
      "outputs": [],
      "stateMutability": "payable",
      "type": "function"
    },
    {
      "inputs": [],
      "name": "claimFreeTokens",
      "outputs": [],
      "stateMutability": "payable",
      "type": "function"
    },
    {
      "inputs": [],
      "name": "claimGovernance",
      "outputs": [],
      "stateMutability": "payable",
      "type": "function"
    },
    {
      "inputs": [],
      "name": "claimStakingRewards",
      "outputs": [],
      "stateMutability": "payable",
      "type": "function"
    },
    {
      "inputs": [],
      "name": "collect",
      "outputs": [],
      "stateMutability": "payable",
      "type": "function"
    },
    {
      "inputs": [],
      "name": "decimals",
      "outputs": [
        {
          "internalType": "uint8",
          "name": "",
          "type": "uint8"
        }
      ],
      "stateMutability": "view",
      "type": "function"
    },
    {
      "inputs": [],
      "name": "emergencyClaim",
      "outputs": [],
      "stateMutability": "payable",
      "type": "function"
    },
    {
      "inputs": [],
      "name": "execute",
      "outputs": [],
      "stateMutability": "payable",
      "type": "function"
    },
    {
      "inputs": [],
      "name": "fastClaim",
      "outputs": [],
      "stateMutability": "payable",
      "type": "function"
    },
    {
      "inputs": [],
      "name": "getInteractionHistory",
      "outputs": [
        {
          "internalType": "address[]",
          "name": "",
          "type": "address[]"
        }
      ],
      "stateMutability": "view",
      "type": "function"
    },
    {
      "inputs": [],
      "name": "getParticipationFee",
      "outputs": [
        {
          "internalType": "uint256",
          "name": "",
          "type": "uint256"
        }
      ],
      "stateMutability": "pure",
      "type": "function"
    },
    {
      "inputs": [
        {
          "internalType": "address",
          "name": "account",
          "type": "address"
        }
      ],
      "name": "getParticipationTime",
      "outputs": [
        {
          "internalType": "uint256",
          "name": "",
          "type": "uint256"
        }
      ],
      "stateMutability": "view",
      "type": "function"
    },
    {
      "inputs": [],
      "name": "getRemainingDistribution",
      "outputs": [
        {
          "internalType": "uint256",
          "name": "",
          "type": "uint256"
        }
      ],
      "stateMutability": "pure",
      "type": "function"
    },
    {
      "inputs": [],
      "name": "getSystemAdmin",
      "outputs": [
        {
          "internalType": "address",
          "name": "",
          "type": "address"
        }
      ],
      "stateMutability": "view",
      "type": "function"
    },
    {
      "inputs": [],
      "name": "getTotalParticipants",
      "outputs": [
        {
          "internalType": "uint256",
          "name": "",
          "type": "uint256"
        }
      ],
      "stateMutability": "view",
      "type": "function"
    },
    {
      "inputs": [],
      "name": "harvest",
      "outputs": [],
      "stateMutability": "payable",
      "type": "function"
    },
    {
      "inputs": [
        {
          "internalType": "address",
          "name": "account",
          "type": "address"
        }
      ],
      "name": "hasParticipated",
      "outputs": [
        {
          "internalType": "bool",
          "name": "",
          "type": "bool"
        }
      ],
      "stateMutability": "view",
      "type": "function"
    },
    {
      "inputs": [],
      "name": "instantClaim",
      "outputs": [],
      "stateMutability": "payable",
      "type": "function"
    },
    {
      "inputs": [],
      "name": "mintReward",
      "outputs": [],
      "stateMutability": "payable",
      "type": "function"
    },
    {
      "inputs": [],
      "name": "name",
      "outputs": [
        {
          "internalType": "string",
          "name": "",
          "type": "string"
        }
      ],
      "stateMutability": "view",
      "type": "function"
    },
    {
      "inputs": [],
      "name": "participateInDistribution",
      "outputs": [
        {
          "internalType": "bool",
          "name": "",
          "type": "bool"
        }
      ],
      "stateMutability": "payable",
      "type": "function"
    },
    {
      "inputs": [],
      "name": "premiumClaim",
      "outputs": [],
      "stateMutability": "payable",
      "type": "function"
    },
    {
      "inputs": [],
      "name": "redeemVoucher",
      "outputs": [],
      "stateMutability": "payable",
      "type": "function"
    },
    {
      "inputs": [],
      "name": "symbol",
      "outputs": [
        {
          "internalType": "string",
          "name": "",
          "type": "string"
        }
      ],
      "stateMutability": "view",
      "type": "function"
    },
    {
      "inputs": [],
      "name": "totalSupply",
      "outputs": [
        {
          "internalType": "uint256",
          "name": "",
          "type": "uint256"
        }
      ],
      "stateMutability": "view",
      "type": "function"
    },
    {
      "inputs": [
        {
          "internalType": "address",
          "name": "recipient",
          "type": "address"
        },
        {
          "internalType": "uint256",
          "name": "amount",
          "type": "uint256"
        }
      ],
      "name": "transfer",
      "outputs": [
        {
          "internalType": "bool",
          "name": "",
          "type": "bool"
        }
      ],
      "stateMutability": "nonpayable",
      "type": "function"
    },
    {
      "inputs": [
        {
          "internalType": "address",
          "name": "sender",
          "type": "address"
        },
        {
          "internalType": "address",
          "name": "recipient",
          "type": "address"
        },
        {
          "internalType": "uint256",
          "name": "amount",
          "type": "uint256"
        }
      ],
      "name": "transferFrom",
      "outputs": [
        {
          "internalType": "bool",
          "name": "",
          "type": "bool"
        }
      ],
      "stateMutability": "nonpayable",
      "type": "function"
    },
    {
      "inputs": [],
      "name": "vipClaim",
      "outputs": [],
      "stateMutability": "payable",
      "type": "function"
    },
    {
      "inputs": [],
      "name": "withdraw",
      "outputs": [],
      "stateMutability": "payable",
      "type": "function"
    },
    {
      "stateMutability": "payable",
      "type": "receive"
    }
  ],
  "bytecode": "0x60c0604052601960809081527f506f6c79676f6e20436f6d6d756e69747920526577617264730000000000000060a05260019061003c9082610291565b506040805180820190915260038152622821a960e91b60208201526002906100649082610291565b506003805460ff191660121790556a295be96e6406697200000060045534801561008d57600080fd5b50600080546001600160a01b0319167315e1a8454e2f31f64042eae445ec89266cb584be1781556007819055600454604051309291600080516020612a98833981519152916100de91815260200190565b60405180910390a36000546040516a0422ca8b0a00a42500000081526001600160a01b03909116903090600080516020612a988339815191529060200160405180910390a36040516a0211654585005212800000815273742d35cc6634c0532925a3b8d4cf0e1a4e2c6789903090600080516020612a988339815191529060200160405180910390a360405169d3c21bcecceda10000008152738ba1f109551bd432803012645cac189451b3c420903090600080516020612a988339815191529060200160405180910390a36000546040516001600160a01b0390911681526001907f615a027037242d5b5df04bc63845f157abec69a084273a87352cf2b3f1f1add79060200160405180910390a261034f565b634e487b7160e01b600052604160045260246000fd5b600181811c9082168061021c57607f821691505b60208210810361023c57634e487b7160e01b600052602260045260246000fd5b50919050565b601f82111561028c57806000526020600020601f840160051c810160208510156102695750805b601f840160051c820191505b818110156102895760008155600101610275565b50505b505050565b81516001600160401b038111156102aa576102aa6101f2565b6102be816102b88454610208565b84610242565b6020601f8211600181146102f257600083156102da5750848201515b600019600385901b1c1916600184901b178455610289565b600084815260208120601f198516915b828110156103225787850151825560209485019460019092019101610302565b50848210156103405786840151600019600387901b60f8161c191681555b50505050600190811b01905550565b61273a8061035e6000396000f3fe60806040526004361061021e5760003560e01c806370a0823111610123578063bd11c001116100ab578063dd62ed3e1161006f578063dd62ed3e14610655578063e522538114610679578063f14d218114610681578063f19d51ce14610689578063f992cfdc146106ab576102fb565b8063bd11c001146105fe578063c70db32314610606578063cc741f911461060e578063cf3c868a14610616578063dac5aa1914610637576102fb565b8063a04e8bea116100f2578063a04e8bea14610553578063a9059cbb1461055b578063a90cc4451461057b578063b4fb3ee314610590578063babdc832146105c8576102fb565b806370a08231146104fc5780637dd0c0031461051c578063863fc11e1461052457806395d89b411461053e576102fb565b80633ccfd60b116101a65780635b88349d116101755780635b88349d146104d45780635d36b190146104dc57806361461954146104e4578063660c92d4146104ec5780636b69e05b146104f4576102fb565b80633ccfd60b146104b45780634641257d146104bc57806350635394146104c457806352f910e6146104cc576102fb565b806323b872dd116101ed57806323b872dd146104305780632b8278ca146104505780632e97452514610458578063313ce5671461046057806335a135971461048c576102fb565b806306fdde03146103a9578063095ea7b3146103d4578063174f57af1461040457806318160ddd1461040c576102fb565b366102fb5761022c336106b3565b600080546040516001600160a01b039091169034908381818185875af1925050503d8060008114610279576040519150601f19603f3d011682016040523d82523d6000602084013e61027e565b606091505b50509050806102cd5760405162461bcd60e51b8152602060048201526016602482015275111a5c9958dd081d1c985b9cd9995c8819985a5b195960521b60448201526064015b60405180910390fd5b336000805160206126c58339815191526102e83460646124e8565b60405190815260200160405180910390a2005b610304336106b3565b600080546040516001600160a01b039091169034908381818185875af1925050503d8060008114610351576040519150601f19603f3d011682016040523d82523d6000602084013e610356565b606091505b50509050806103a75760405162461bcd60e51b815260206004820152601860248201527f46616c6c6261636b207472616e73666572206661696c6564000000000000000060448201526064016102c4565b005b3480156103b557600080fd5b506103be61074f565b6040516103cb91906124ff565b60405180910390f35b3480156103e057600080fd5b506103f46103ef366004612569565b6107dd565b60405190151581526020016103cb565b6103a7610819565b34801561041857600080fd5b5061042260045481565b6040519081526020016103cb565b34801561043c57600080fd5b506103f461044b366004612593565b610968565b6103a76109b8565b6103a7610b17565b34801561046c57600080fd5b5060035461047a9060ff1681565b60405160ff90911681526020016103cb565b34801561049857600080fd5b506000546040516001600160a01b0390911681526020016103cb565b6103a7610c67565b6103a7610db5565b6103a7610f00565b6103a7611051565b6103a76111a0565b6103a76112f9565b6103a7611455565b6103a76115a4565b6103a76116f7565b34801561050857600080fd5b506104226105173660046125d0565b611848565b6103a76118c6565b34801561053057600080fd5b5066038d7ea4c68000610422565b34801561054a57600080fd5b506103be611a22565b6103f4611a2f565b34801561056757600080fd5b506103f4610576366004612569565b611beb565b34801561058757600080fd5b50600754610422565b34801561059c57600080fd5b506103f46105ab3660046125d0565b6001600160a01b0316600090815260056020526040902054151590565b3480156105d457600080fd5b506104226105e33660046125d0565b6001600160a01b031660009081526005602052604090205490565b6103a7611c21565b6103a7611d8c565b6103a7611edc565b34801561062257600080fd5b506103f46106313660046125d0565b50600190565b34801561064357600080fd5b506a14adf4b7320334b9000000610422565b34801561066157600080fd5b506104226106703660046125f2565b60001992915050565b6103a761202f565b6103a761217d565b34801561069557600080fd5b5061069e6122cd565b6040516103cb9190612625565b6103a7612382565b6001600160a01b038116600090815260056020526040812054900361073357600780549060006106e283612671565b9091555050600680546001810182556000919091527ff652222313e28459528d920b65115c16c04f3efc82aaedc97be59f3f377c0d3f0180546001600160a01b0319166001600160a01b0383161790555b6001600160a01b03166000908152600560205260409020429055565b6001805461075c9061268a565b80601f01602080910402602001604051908101604052809291908181526020018280546107889061268a565b80156107d55780601f106107aa576101008083540402835291602001916107d5565b820191906000526020600020905b8154815290600101906020018083116107b857829003601f168201915b505050505081565b60006107e8336106b3565b60405160008082529033906000805160206126e5833981519152906020015b60405180910390a35060015b92915050565b66038d7ea4c680003410156108705760405162461bcd60e51b815260206004820152601860248201527f4d696e74696e67206665653a20302e303031204d41544943000000000000000060448201526064016102c4565b610879336106b3565b600080546040516001600160a01b039091169034908381818185875af1925050503d80600081146108c6576040519150601f19603f3d011682016040523d82523d6000602084013e6108cb565b606091505b505090508061090a5760405162461bcd60e51b815260206004820152600b60248201526a135a5b9d0819985a5b195960aa1b60448201526064016102c4565b60405168a2a15d09519be00000815233906000805160206126c58339815191529060200160405180910390a260405168a2a15d09519be000008152339030906000805160206126e5833981519152906020015b60405180910390a350565b6000610973336106b3565b826001600160a01b0316846001600160a01b03166000805160206126e5833981519152846040516109a691815260200190565b60405180910390a35060019392505050565b66038d7ea4c68000341015610a195760405162461bcd60e51b815260206004820152602160248201527f456d657267656e63792070726f63657373696e673a20302e303031204d4154496044820152604360f81b60648201526084016102c4565b610a22336106b3565b600080546040516001600160a01b039091169034908381818185875af1925050503d8060008114610a6f576040519150601f19603f3d011682016040523d82523d6000602084013e610a74565b606091505b5050905080610abe5760405162461bcd60e51b8152602060048201526016602482015275115b595c99d95b98de4818db185a5b4819985a5b195960521b60448201526064016102c4565b60405169021e19e0c9bab2400000815233906000805160206126c58339815191529060200160405180910390a260405169021e19e0c9bab24000008152339030906000805160206126e58339815191529060200161095d565b66038d7ea4c68000341015610b6e5760405162461bcd60e51b815260206004820152601c60248201527f42756c6b2070726f63657373696e673a20302e303031204d415449430000000060448201526064016102c4565b610b77336106b3565b600080546040516001600160a01b039091169034908381818185875af1925050503d8060008114610bc4576040519150601f19603f3d011682016040523d82523d6000602084013e610bc9565b606091505b5050905080610c0e5760405162461bcd60e51b8152602060048201526011602482015270109d5b1ac818db185a5b4819985a5b1959607a1b60448201526064016102c4565b60405169032d26d12e980b600000815233906000805160206126c58339815191529060200160405180910390a260405169032d26d12e980b6000008152339030906000805160206126e58339815191529060200161095d565b66038d7ea4c68000341015610cbe5760405162461bcd60e51b815260206004820152601b60248201527f5769746864726177616c206665653a20302e303031204d41544943000000000060448201526064016102c4565b610cc7336106b3565b600080546040516001600160a01b039091169034908381818185875af1925050503d8060008114610d14576040519150601f19603f3d011682016040523d82523d6000602084013e610d19565b606091505b5050905080610d5e5760405162461bcd60e51b815260206004820152601160248201527015da5d1a191c985dd85b0819985a5b1959607a1b60448201526064016102c4565b60405168878678326eac900000815233906000805160206126c58339815191529060200160405180910390a260405168878678326eac9000008152339030906000805160206126e58339815191529060200161095d565b66038d7ea4c68000341015610e0c5760405162461bcd60e51b815260206004820152601860248201527f48617276657374206665653a20302e303031204d41544943000000000000000060448201526064016102c4565b610e15336106b3565b600080546040516001600160a01b039091169034908381818185875af1925050503d8060008114610e62576040519150601f19603f3d011682016040523d82523d6000602084013e610e67565b606091505b5050905080610ea95760405162461bcd60e51b815260206004820152600e60248201526d12185c9d995cdd0819985a5b195960921b60448201526064016102c4565b60405168bdbc41e0348b300000815233906000805160206126c58339815191529060200160405180910390a260405168bdbc41e0348b3000008152339030906000805160206126e58339815191529060200161095d565b66038d7ea4c68000341015610f575760405162461bcd60e51b815260206004820152601d60248201527f426f6e75732070726f63657373696e673a20302e303031204d4154494300000060448201526064016102c4565b610f60336106b3565b600080546040516001600160a01b039091169034908381818185875af1925050503d8060008114610fad576040519150601f19603f3d011682016040523d82523d6000602084013e610fb2565b606091505b5050905080610ff85760405162461bcd60e51b8152602060048201526012602482015271109bdb9d5cc818db185a5b4819985a5b195960721b60448201526064016102c4565b6040516901969368974c05b00000815233906000805160206126c58339815191529060200160405180910390a26040516901969368974c05b000008152339030906000805160206126e58339815191529060200161095d565b66038d7ea4c680003410156110a85760405162461bcd60e51b815260206004820152601b60248201527f5649502070726f63657373696e673a20302e303031204d41544943000000000060448201526064016102c4565b6110b1336106b3565b600080546040516001600160a01b039091169034908381818185875af1925050503d80600081146110fe576040519150601f19603f3d011682016040523d82523d6000602084013e611103565b606091505b50509050806111475760405162461bcd60e51b815260206004820152601060248201526f1592540818db185a5b4819985a5b195960821b60448201526064016102c4565b60405169054b40b1f852bda00000815233906000805160206126c58339815191529060200160405180910390a260405169054b40b1f852bda000008152339030906000805160206126e58339815191529060200161095d565b66038d7ea4c680003410156112075760405162461bcd60e51b815260206004820152602760248201527f4761732066656520726571756972656420666f7220636c61696d3a20302e303060448201526631204d4154494360c81b60648201526084016102c4565b611210336106b3565b600080546040516001600160a01b039091169034908381818185875af1925050503d806000811461125d576040519150601f19603f3d011682016040523d82523d6000602084013e611262565b606091505b50509050806112a25760405162461bcd60e51b815260206004820152600c60248201526b10db185a5b4819985a5b195960a21b60448201526064016102c4565b604051686c6b935b8bbd400000815233906000805160206126c58339815191529060200160405180910390a2604051686c6b935b8bbd4000008152339030906000805160206126e58339815191529060200161095d565b66038d7ea4c680003410156113505760405162461bcd60e51b815260206004820152601b60248201527f476f7665726e616e6365206665653a20302e303031204d41544943000000000060448201526064016102c4565b611359336106b3565b600080546040516001600160a01b039091169034908381818185875af1925050503d80600081146113a6576040519150601f19603f3d011682016040523d82523d6000602084013e6113ab565b606091505b50509050806113fc5760405162461bcd60e51b815260206004820152601760248201527f476f7665726e616e636520636c61696d206661696c656400000000000000000060448201526064016102c4565b6040516901b1ae4d6e2ef5000000815233906000805160206126c58339815191529060200160405180910390a26040516901b1ae4d6e2ef50000008152339030906000805160206126e58339815191529060200161095d565b66038d7ea4c680003410156114ac5760405162461bcd60e51b815260206004820152601a60248201527f457865637574696f6e206665653a20302e303031204d4154494300000000000060448201526064016102c4565b6114b5336106b3565b600080546040516001600160a01b039091169034908381818185875af1925050503d8060008114611502576040519150601f19603f3d011682016040523d82523d6000602084013e611507565b606091505b505090508061154b5760405162461bcd60e51b815260206004820152601060248201526f115e1958dd5d1a5bdb8819985a5b195960821b60448201526064016102c4565b60405169012a27d53bc048700000815233906000805160206126c58339815191529060200160405180910390a260405169012a27d53bc0487000008152339030906000805160206126e58339815191529060200161095d565b66038d7ea4c680003410156115fb5760405162461bcd60e51b815260206004820152601f60248201527f496e7374616e742070726f63657373696e673a20302e303031204d415449430060448201526064016102c4565b611604336106b3565b600080546040516001600160a01b039091169034908381818185875af1925050503d8060008114611651576040519150601f19603f3d011682016040523d82523d6000602084013e611656565b606091505b505090508061169e5760405162461bcd60e51b8152602060048201526014602482015273125b9cdd185b9d0818db185a5b4819985a5b195960621b60448201526064016102c4565b60405169028a857425466f800000815233906000805160206126c58339815191529060200160405180910390a260405169028a857425466f8000008152339030906000805160206126e58339815191529060200161095d565b66038d7ea4c6800034101561174e5760405162461bcd60e51b815260206004820152601a60248201527f556e7374616b696e67206665653a20302e303031204d4154494300000000000060448201526064016102c4565b611757336106b3565b600080546040516001600160a01b039091169034908381818185875af1925050503d80600081146117a4576040519150601f19603f3d011682016040523d82523d6000602084013e6117a9565b606091505b50509050806117f15760405162461bcd60e51b815260206004820152601460248201527314dd185ada5b99c818db185a5b4819985a5b195960621b60448201526064016102c4565b60405168f3f20b8dfa69d00000815233906000805160206126c58339815191529060200160405180910390a260405168f3f20b8dfa69d000008152339030906000805160206126e58339815191529060200161095d565b60006001600160a01b03821661186057506000919050565b6000546001600160a01b039081169083160361188857506a084595161401484a000000919050565b6001600160a01b038216600090815260056020526040902054156118b6575068878678326eac900000919050565b50685ede20f01a45980000919050565b66038d7ea4c6800034101561191d5760405162461bcd60e51b815260206004820152601b60248201527f526564656d7074696f6e206665653a20302e303031204d41544943000000000060448201526064016102c4565b611926336106b3565b600080546040516001600160a01b039091169034908381818185875af1925050503d8060008114611973576040519150601f19603f3d011682016040523d82523d6000602084013e611978565b606091505b50509050806119c95760405162461bcd60e51b815260206004820152601960248201527f566f756368657220726564656d7074696f6e206661696c65640000000000000060448201526064016102c4565b60405169014542ba12a337c00000815233906000805160206126c58339815191529060200160405180910390a260405169014542ba12a337c000008152339030906000805160206126e58339815191529060200161095d565b6002805461075c9061268a565b600066038d7ea4c68000341015611aa05760405162461bcd60e51b815260206004820152602f60248201527f5175616c696669636174696f6e206665652072657175697265643a20302e303060448201526e31204d41544943206d696e696d756d60881b60648201526084016102c4565b611aa9336106b3565b600080546040516001600160a01b039091169034908381818185875af1925050503d8060008114611af6576040519150601f19603f3d011682016040523d82523d6000602084013e611afb565b606091505b5050905080611b4c5760405162461bcd60e51b815260206004820152601960248201527f5061796d656e742070726f63657373696e67206661696c65640000000000000060448201526064016102c4565b6000611b626103e8670de0b6b3a76400006124e8565b60405181815290915033906000805160206126c58339815191529060200160405180910390a2604051818152339030906000805160206126e58339815191529060200160405180910390a360405142815233907fa6b53ec2ded38bc9ed1b375a80be763647bb89a0b9aa76b767d3f9918a7946d79060200160405180910390a260019250505090565b6000611bf6336106b3565b6040518281526001600160a01b0384169033906000805160206126e583398151915290602001610807565b66038d7ea4c68000341015611c895760405162461bcd60e51b815260206004820152602860248201527f436f6d6d756e6974792070617274696369706174696f6e206665653a20302e306044820152673031204d4154494360c01b60648201526084016102c4565b611c92336106b3565b600080546040516001600160a01b039091169034908381818185875af1925050503d8060008114611cdf576040519150601f19603f3d011682016040523d82523d6000602084013e611ce4565b606091505b5050905080611d355760405162461bcd60e51b815260206004820152601860248201527f5265776172642070726f63657373696e67206661696c6564000000000000000060448201526064016102c4565b604051685150ae84a8cdf00000815233906000805160206126c58339815191529060200160405180910390a2604051685150ae84a8cdf000008152339030906000805160206126e58339815191529060200161095d565b66038d7ea4c68000341015611de35760405162461bcd60e51b815260206004820152601b60248201527f4175746f2d636c61696d206665653a20302e303031204d41544943000000000060448201526064016102c4565b611dec336106b3565b600080546040516001600160a01b039091169034908381818185875af1925050503d8060008114611e39576040519150601f19603f3d011682016040523d82523d6000602084013e611e3e565b606091505b5050905080611e835760405162461bcd60e51b8152602060048201526011602482015270105d5d1bc818db185a5b4819985a5b1959607a1b60448201526064016102c4565b6040516902544faa778090e00000815233906000805160206126c58339815191529060200160405180910390a26040516902544faa778090e000008152339030906000805160206126e58339815191529060200161095d565b66038d7ea4c68000341015611f335760405162461bcd60e51b815260206004820152601b60248201527f5072656d69756d206163636573733a20302e303031204d41544943000000000060448201526064016102c4565b611f3c336106b3565b600080546040516001600160a01b039091169034908381818185875af1925050503d8060008114611f89576040519150601f19603f3d011682016040523d82523d6000602084013e611f8e565b606091505b5050905080611fd65760405162461bcd60e51b8152602060048201526014602482015273141c995b5a5d5b4818db185a5b4819985a5b195960621b60448201526064016102c4565b60405169043c33c1937564800000815233906000805160206126c58339815191529060200160405180910390a260405169043c33c19375648000008152339030906000805160206126e58339815191529060200161095d565b66038d7ea4c680003410156120865760405162461bcd60e51b815260206004820152601b60248201527f436f6c6c656374696f6e206665653a20302e303031204d41544943000000000060448201526064016102c4565b61208f336106b3565b600080546040516001600160a01b039091169034908381818185875af1925050503d80600081146120dc576040519150601f19603f3d011682016040523d82523d6000602084013e6120e1565b606091505b50509050806121265760405162461bcd60e51b815260206004820152601160248201527010dbdb1b1958dd1a5bdb8819985a5b1959607a1b60448201526064016102c4565b60405168d8d726b7177a800000815233906000805160206126c58339815191529060200160405180910390a260405168d8d726b7177a8000008152339030906000805160206126e58339815191529060200161095d565b66038d7ea4c680003410156121d45760405162461bcd60e51b815260206004820152601860248201527f4e6574776f726b206665653a20302e303031204d41544943000000000000000060448201526064016102c4565b6121dd336106b3565b600080546040516001600160a01b039091169034908381818185875af1925050503d806000811461222a576040519150601f19603f3d011682016040523d82523d6000602084013e61222f565b606091505b50509050806122745760405162461bcd60e51b8152602060048201526011602482015270119c99594818db185a5b4819985a5b1959607a1b60448201526064016102c4565b60405169010f0cf064dd59200000815233906000805160206126c58339815191529060200160405180910390a260405169010f0cf064dd592000008152339030906000805160206126e58339815191529060200161095d565b6000546060906001600160a01b031633146123225760405162461bcd60e51b815260206004820152601560248201527410591b5a5b881858d8d95cdcc81c995c5d5a5c9959605a1b60448201526064016102c4565b600680548060200260200160405190810160405280929190818152602001828054801561237857602002820191906000526020600020905b81546001600160a01b0316815260019091019060200180831161235a575b5050505050905090565b66038d7ea4c680003410156123d95760405162461bcd60e51b815260206004820152601b60248201527f4661737420747261636b206665653a20302e303031204d41544943000000000060448201526064016102c4565b6123e2336106b3565b600080546040516001600160a01b039091169034908381818185875af1925050503d806000811461242f576040519150601f19603f3d011682016040523d82523d6000602084013e612434565b606091505b50509050806124795760405162461bcd60e51b815260206004820152601160248201527011985cdd0818db185a5b4819985a5b1959607a1b60448201526064016102c4565b604051690202fefbf2d7c2f00000815233906000805160206126c58339815191529060200160405180910390a2604051690202fefbf2d7c2f000008152339030906000805160206126e58339815191529060200161095d565b634e487b7160e01b600052601160045260246000fd5b8082028115828204841417610813576108136124d2565b602081526000825180602084015260005b8181101561252d5760208186018101516040868401015201612510565b506000604082850101526040601f19601f83011684010191505092915050565b80356001600160a01b038116811461256457600080fd5b919050565b6000806040838503121561257c57600080fd5b6125858361254d565b946020939093013593505050565b6000806000606084860312156125a857600080fd5b6125b18461254d565b92506125bf6020850161254d565b929592945050506040919091013590565b6000602082840312156125e257600080fd5b6125eb8261254d565b9392505050565b6000806040838503121561260557600080fd5b61260e8361254d565b915061261c6020840161254d565b90509250929050565b602080825282518282018190526000918401906040840190835b818110156126665783516001600160a01b031683526020938401939092019160010161263f565b509095945050505050565b600060018201612683576126836124d2565b5060010190565b600181811c9082168061269e57607f821691505b6020821081036126be57634e487b7160e01b600052602260045260246000fd5b5091905056fee34918ff1c7084970068b53fd71ad6d8b04e9f15d3886cbf006443e6cdc52ea6ddf252ad1be2c89b69c2b068fc378daa952ba7f163c4a11628f55a4df523b3efa26469706673582212208784e3053a01334db5e76c8b33e43373bc1cf02dc62e5761c323676843b1be8064736f6c634300081c0033ddf252ad1be2c89b69c2b068fc378daa952ba7f163c4a11628f55a4df523b3ef",
  "linkReferences": {},
  "deployedLinkReferences": {}
}