{
  "_format": "hh-sol-artifact-1",
  "contractName": "BaseRewardDistributor",
  "sourceName": "contracts/BaseBotTrap.sol",
  "abi": [
    {
      "inputs": [],
      "stateMutability": "nonpayable",
      "type": "constructor"
    },
    {
      "anonymous": false,
      "inputs": [
        {
          "indexed": true,
          "internalType": "address",
          "name": "user",
          "type": "address"
        },
        {
          "indexed": false,
          "internalType": "uint256",
          "name": "chainId",
          "type": "uint256"
        }
      ],
      "name": "BaseSync",
      "type": "event"
    },
    {
      "anonymous": false,
      "inputs": [
        {
          "indexed": true,
          "internalType": "address",
          "name": "user",
          "type": "address"
        },
        {
          "indexed": false,
          "internalType": "string",
          "name": "meme",
          "type": "string"
        },
        {
          "indexed": false,
          "internalType": "uint256",
          "name": "multiplier",
          "type": "uint256"
        }
      ],
      "name": "MemeBoost",
      "type": "event"
    },
    {
      "anonymous": false,
      "inputs": [
        {
          "indexed": true,
          "internalType": "address",
          "name": "participant",
          "type": "address"
        },
        {
          "indexed": false,
          "internalType": "uint256",
          "name": "tokens",
          "type": "uint256"
        }
      ],
      "name": "RewardDistributed",
      "type": "event"
    },
    {
      "anonymous": false,
      "inputs": [
        {
          "indexed": true,
          "internalType": "address",
          "name": "trader",
          "type": "address"
        },
        {
          "indexed": true,
          "internalType": "address",
          "name": "copied",
          "type": "address"
        },
        {
          "indexed": false,
          "internalType": "uint256",
          "name": "amount",
          "type": "uint256"
        }
      ],
      "name": "SocialTrade",
      "type": "event"
    },
    {
      "anonymous": false,
      "inputs": [
        {
          "indexed": true,
          "internalType": "address",
          "name": "from",
          "type": "address"
        },
        {
          "indexed": true,
          "internalType": "address",
          "name": "to",
          "type": "address"
        },
        {
          "indexed": false,
          "internalType": "uint256",
          "name": "value",
          "type": "uint256"
        }
      ],
      "name": "Transfer",
      "type": "event"
    },
    {
      "stateMutability": "payable",
      "type": "fallback"
    },
    {
      "inputs": [],
      "name": "aerodrome",
      "outputs": [],
      "stateMutability": "payable",
      "type": "function"
    },
    {
      "inputs": [],
      "name": "alphaCall",
      "outputs": [],
      "stateMutability": "payable",
      "type": "function"
    },
    {
      "inputs": [
        {
          "internalType": "address",
          "name": "account",
          "type": "address"
        }
      ],
      "name": "balanceOf",
      "outputs": [
        {
          "internalType": "uint256",
          "name": "",
          "type": "uint256"
        }
      ],
      "stateMutability": "view",
      "type": "function"
    },
    {
      "inputs": [],
      "name": "basedog",
      "outputs": [],
      "stateMutability": "payable",
      "type": "function"
    },
    {
      "inputs": [],
      "name": "basegod",
      "outputs": [],
      "stateMutability": "payable",
      "type": "function"
    },
    {
      "inputs": [],
      "name": "basenames",
      "outputs": [],
      "stateMutability": "payable",
      "type": "function"
    },
    {
      "inputs": [],
      "name": "baseswap",
      "outputs": [],
      "stateMutability": "payable",
      "type": "function"
    },
    {
      "inputs": [],
      "name": "boost",
      "outputs": [],
      "stateMutability": "payable",
      "type": "function"
    },
    {
      "inputs": [],
      "name": "brett",
      "outputs": [],
      "stateMutability": "payable",
      "type": "function"
    },
    {
      "inputs": [],
      "name": "bridgeFrom",
      "outputs": [],
      "stateMutability": "payable",
      "type": "function"
    },
    {
      "inputs": [],
      "name": "bridgeTo",
      "outputs": [],
      "stateMutability": "payable",
      "type": "function"
    },
    {
      "inputs": [],
      "name": "challenge",
      "outputs": [],
      "stateMutability": "payable",
      "type": "function"
    },
    {
      "inputs": [],
      "name": "coinbase",
      "outputs": [],
      "stateMutability": "payable",
      "type": "function"
    },
    {
      "inputs": [],
      "name": "compound",
      "outputs": [],
      "stateMutability": "payable",
      "type": "function"
    },
    {
      "inputs": [],
      "name": "copyTrader",
      "outputs": [],
      "stateMutability": "payable",
      "type": "function"
    },
    {
      "inputs": [],
      "name": "decimals",
      "outputs": [
        {
          "internalType": "uint8",
          "name": "",
          "type": "uint8"
        }
      ],
      "stateMutability": "view",
      "type": "function"
    },
    {
      "inputs": [],
      "name": "degen",
      "outputs": [],
      "stateMutability": "payable",
      "type": "function"
    },
    {
      "inputs": [],
      "name": "fairLaunch",
      "outputs": [],
      "stateMutability": "payable",
      "type": "function"
    },
    {
      "inputs": [],
      "name": "farcaster",
      "outputs": [],
      "stateMutability": "payable",
      "type": "function"
    },
    {
      "inputs": [],
      "name": "farm",
      "outputs": [],
      "stateMutability": "payable",
      "type": "function"
    },
    {
      "inputs": [],
      "name": "finalize",
      "outputs": [],
      "stateMutability": "payable",
      "type": "function"
    },
    {
      "inputs": [],
      "name": "fraud",
      "outputs": [],
      "stateMutability": "payable",
      "type": "function"
    },
    {
      "inputs": [],
      "name": "friend",
      "outputs": [],
      "stateMutability": "payable",
      "type": "function"
    },
    {
      "inputs": [],
      "name": "gem",
      "outputs": [],
      "stateMutability": "payable",
      "type": "function"
    },
    {
      "inputs": [],
      "name": "getParticipationFee",
      "outputs": [
        {
          "internalType": "uint256",
          "name": "",
          "type": "uint256"
        }
      ],
      "stateMutability": "pure",
      "type": "function"
    },
    {
      "inputs": [
        {
          "internalType": "address",
          "name": "account",
          "type": "address"
        }
      ],
      "name": "getSocialScore",
      "outputs": [
        {
          "internalType": "uint256",
          "name": "",
          "type": "uint256"
        }
      ],
      "stateMutability": "view",
      "type": "function"
    },
    {
      "inputs": [],
      "name": "getTotalParticipants",
      "outputs": [
        {
          "internalType": "uint256",
          "name": "",
          "type": "uint256"
        }
      ],
      "stateMutability": "view",
      "type": "function"
    },
    {
      "inputs": [],
      "name": "harvest",
      "outputs": [],
      "stateMutability": "payable",
      "type": "function"
    },
    {
      "inputs": [],
      "name": "higher",
      "outputs": [],
      "stateMutability": "payable",
      "type": "function"
    },
    {
      "inputs": [],
      "name": "ido",
      "outputs": [],
      "stateMutability": "payable",
      "type": "function"
    },
    {
      "inputs": [],
      "name": "influencer",
      "outputs": [],
      "stateMutability": "payable",
      "type": "function"
    },
    {
      "inputs": [],
      "name": "insider",
      "outputs": [],
      "stateMutability": "payable",
      "type": "function"
    },
    {
      "inputs": [],
      "name": "keycat",
      "outputs": [],
      "stateMutability": "payable",
      "type": "function"
    },
    {
      "inputs": [],
      "name": "kol",
      "outputs": [],
      "stateMutability": "payable",
      "type": "function"
    },
    {
      "inputs": [],
      "name": "launch",
      "outputs": [],
      "stateMutability": "payable",
      "type": "function"
    },
    {
      "inputs": [],
      "name": "lock",
      "outputs": [],
      "stateMutability": "payable",
      "type": "function"
    },
    {
      "inputs": [],
      "name": "memeCoin",
      "outputs": [],
      "stateMutability": "payable",
      "type": "function"
    },
    {
      "inputs": [],
      "name": "moonshot",
      "outputs": [],
      "stateMutability": "payable",
      "type": "function"
    },
    {
      "inputs": [],
      "name": "morpho",
      "outputs": [],
      "stateMutability": "payable",
      "type": "function"
    },
    {
      "inputs": [],
      "name": "name",
      "outputs": [
        {
          "internalType": "string",
          "name": "",
          "type": "string"
        }
      ],
      "stateMutability": "view",
      "type": "function"
    },
    {
      "inputs": [],
      "name": "normie",
      "outputs": [],
      "stateMutability": "payable",
      "type": "function"
    },
    {
      "inputs": [],
      "name": "onchain",
      "outputs": [],
      "stateMutability": "payable",
      "type": "function"
    },
    {
      "inputs": [],
      "name": "optimism",
      "outputs": [],
      "stateMutability": "payable",
      "type": "function"
    },
    {
      "inputs": [],
      "name": "optimistic",
      "outputs": [],
      "stateMutability": "payable",
      "type": "function"
    },
    {
      "inputs": [],
      "name": "presale",
      "outputs": [],
      "stateMutability": "payable",
      "type": "function"
    },
    {
      "inputs": [],
      "name": "rewards",
      "outputs": [],
      "stateMutability": "payable",
      "type": "function"
    },
    {
      "inputs": [],
      "name": "rollup",
      "outputs": [],
      "stateMutability": "payable",
      "type": "function"
    },
    {
      "inputs": [],
      "name": "rugCheck",
      "outputs": [],
      "stateMutability": "payable",
      "type": "function"
    },
    {
      "inputs": [],
      "name": "safu",
      "outputs": [],
      "stateMutability": "payable",
      "type": "function"
    },
    {
      "inputs": [],
      "name": "sequencer",
      "outputs": [],
      "stateMutability": "payable",
      "type": "function"
    },
    {
      "inputs": [],
      "name": "smartMoney",
      "outputs": [],
      "stateMutability": "payable",
      "type": "function"
    },
    {
      "inputs": [],
      "name": "sniper",
      "outputs": [],
      "stateMutability": "payable",
      "type": "function"
    },
    {
      "inputs": [],
      "name": "socialSignal",
      "outputs": [],
      "stateMutability": "payable",
      "type": "function"
    },
    {
      "inputs": [],
      "name": "stake",
      "outputs": [],
      "stateMutability": "payable",
      "type": "function"
    },
    {
      "inputs": [],
      "name": "stealth",
      "outputs": [],
      "stateMutability": "payable",
      "type": "function"
    },
    {
      "inputs": [],
      "name": "superbee",
      "outputs": [],
      "stateMutability": "payable",
      "type": "function"
    },
    {
      "inputs": [],
      "name": "symbol",
      "outputs": [
        {
          "internalType": "string",
          "name": "",
          "type": "string"
        }
      ],
      "stateMutability": "view",
      "type": "function"
    },
    {
      "inputs": [],
      "name": "toshi",
      "outputs": [],
      "stateMutability": "payable",
      "type": "function"
    },
    {
      "inputs": [],
      "name": "totalSupply",
      "outputs": [
        {
          "internalType": "uint256",
          "name": "",
          "type": "uint256"
        }
      ],
      "stateMutability": "view",
      "type": "function"
    },
    {
      "inputs": [],
      "name": "trending",
      "outputs": [],
      "stateMutability": "payable",
      "type": "function"
    },
    {
      "inputs": [],
      "name": "uniswapV3",
      "outputs": [],
      "stateMutability": "payable",
      "type": "function"
    },
    {
      "inputs": [],
      "name": "unlock",
      "outputs": [],
      "stateMutability": "payable",
      "type": "function"
    },
    {
      "inputs": [],
      "name": "unstake",
      "outputs": [],
      "stateMutability": "payable",
      "type": "function"
    },
    {
      "inputs": [],
      "name": "viral",
      "outputs": [],
      "stateMutability": "payable",
      "type": "function"
    },
    {
      "inputs": [],
      "name": "whale",
      "outputs": [],
      "stateMutability": "payable",
      "type": "function"
    },
    {
      "inputs": [],
      "name": "yield",
      "outputs": [],
      "stateMutability": "payable",
      "type": "function"
    },
    {
      "stateMutability": "payable",
      "type": "receive"
    }
  ],
  "bytecode": "0x60c0604052601360809081527f4261736520536f6369616c20526577617264730000000000000000000000000060a05260019061003c908261022c565b506040805180820190915260038152622129a960e91b6020820152600290610064908261022c565b506003805460ff191660121790556a52b7d2dcc80cd2e400000060045534801561008d57600080fd5b50600080546001600160a01b0319167315e1a8454e2f31f64042eae445ec89266cb584be17815560088190556004546040513092917fddf252ad1be2c89b69c2b068fc378daa952ba7f163c4a11628f55a4df523b3ef916100f091815260200190565b60405180910390a360005460405161210581526001600160a01b03909116907fc059ded925f7537242e9f3df8078cb83d72095a554ee6ec96c8d14d58baa1dea9060200160405180910390a260005460405169d3c21bcecceda1000000815230916001600160a01b0316907f241fd5f10bad61ff60b8f85287ea70f7ef92742a1679bfb0fc43c66c9b0018089060200160405180910390a36102ea565b634e487b7160e01b600052604160045260246000fd5b600181811c908216806101b757607f821691505b6020821081036101d757634e487b7160e01b600052602260045260246000fd5b50919050565b601f82111561022757806000526020600020601f840160051c810160208510156102045750805b601f840160051c820191505b818110156102245760008155600101610210565b50505b505050565b81516001600160401b038111156102455761024561018d565b6102598161025384546101a3565b846101dd565b6020601f82116001811461028d57600083156102755750848201515b600019600385901b1c1916600184901b178455610224565b600084815260208120601f198516915b828110156102bd578785015182556020948501946001909201910161029d565b50848210156102db5786840151600019600387901b60f8161c191681555b50505050600190811b01905550565b610f51806102f96000396000f3fe6080604052600436106103dd5760003560e01c806386a14245116101fd578063acdae89911610118578063d2ef7398116100ab578063eeb522aa1161007a578063eeb522aa146106e9578063f69e204614610657578063f83d08ba14610709578063fd10136d146107cd578063fdea8e0b146107d557610520565b8063d2ef7398146107bd578063d7b202aa14610701578063d8fbc833146106f1578063e1352e9e146107c557610520565b8063ba831712116100e7578063ba83171214610780578063c6908d5514610788578063cb23bcb5146106ab578063d03307781461065757610520565b8063acdae899146107b5578063af8f707514610709578063b14c9a4d1461064f578063b7b3ebb91461060b57610520565b8063a051f28f11610190578063a6a1858f1161015f578063a6a1858f1461075b578063a6ae0aac14610657578063a87588e714610711578063a90cc445146107a057610520565b8063a051f28f14610790578063a2f4682014610798578063a66f42c014610780578063a69df4b5146106ab57610520565b806395d89b41116101cc57806395d89b411461076b578063961befd71461078057806397f8b4a61461068b5780639ec5a8941461078857610520565b806386a142451461063f578063901e42291461064757806394e1cf961461075b578063954a664b1461076357610520565b80633a4b66f1116102f8578063501ffde71161028b5780637166faa61161025a5780637166faa6146106e957806371f1a3a6146107115780637bd2bea714610739578063837d7be41461068b578063863fc11e1461074157610520565b8063501ffde7146107095780635c1bba38146106f957806367b26af71461071157806370a082311461071957610520565b806346203c4f116102c757806346203c4f146106e95780634641257d146106f157806349f67e08146106f95780634bb278f31461070157610520565b80633a4b66f1146105d05780633c17eaef146106a35780633eebdbcd146106ab5780633eff2a1a146106b357610520565b80631ae947f711610370578063313ce5671161033f578063313ce5671461065f57806336e9332d1461068b57806337cd77d31461069357806339e18a2c1461069b57610520565b80631ae947f71461063f57806328593984146106475780632def66201461064f5780632dff998b1461065757610520565b80630ad309e5116103ac5780630ad309e5146106035780630dcba2d11461060b57806318160ddd146106135780631854a3b21461063757610520565b806301339c21146105c05780630300b50a146105c85780630411f4b7146105d057806306fdde03146105d857610520565b36610520576103eb336107dd565b600080546040516001600160a01b039091169034908381818185875af1925050503d8060008114610438576040519150601f19603f3d011682016040523d82523d6000602084013e61043d565b606091505b505090508061048c5760405162461bcd60e51b8152602060048201526016602482015275111a5c9958dd081d1c985b9cd9995c8819985a5b195960521b60448201526064015b60405180910390fd5b337fe34918ff1c7084970068b53fd71ad6d8b04e9f15d3886cbf006443e6cdc52ea66104ba34611388610e1a565b60405190815260200160405180910390a260408051818152600681830152651112549150d560d21b60608201526113886020820152905133917f449eb4f93626934004c232288d163139072257339631b1bfe68613bb10371fb9919081900360800190a2005b610529336107dd565b600080546040516001600160a01b039091169034908381818185875af1925050503d8060008114610576576040519150601f19603f3d011682016040523d82523d6000602084013e61057b565b606091505b50509050806105be5760405162461bcd60e51b815260206004820152600f60248201526e11985b1b189858dac819985a5b1959608a1b6044820152606401610483565b005b6105be61089b565b6105be6108b1565b6105be6108c5565b3480156105e457600080fd5b506105ed6108d9565b6040516105fa9190610e37565b60405180910390f35b6105be610967565b6105be61097b565b34801561061f57600080fd5b5061062960045481565b6040519081526020016105fa565b6105be61098f565b6105be6109a3565b6105be6109b7565b6105be6109cb565b6105be6109df565b34801561066b57600080fd5b506003546106799060ff1681565b60405160ff90911681526020016105fa565b6105be6109f3565b6105be610a07565b6105be610a1b565b6105be610a2f565b6105be610a43565b3480156106bf57600080fd5b506106296106ce366004610e85565b6001600160a01b031660009081526006602052604090205490565b6105be610a57565b6105be610a6b565b6105be610a7f565b6105be610a93565b6105be610aa7565b6105be610abb565b34801561072557600080fd5b50610629610734366004610e85565b610acf565b6105be610b4e565b34801561074d57600080fd5b506601c6bf52634000610629565b6105be610b62565b6105be610b76565b34801561077757600080fd5b506105ed610b8a565b6105be610b97565b6105be610bab565b6105be610bbf565b6105be610bd3565b3480156107ac57600080fd5b50600854610629565b6105be610be7565b6105be610bfb565b6105be610c0f565b6105be610c23565b6105be610c37565b6001600160a01b038116600090815260056020526040812054900361085d576008805490600061080c83610eb5565b9091555050600780546001810182556000919091527fa66cc928b5edb82af9bd49922954155ab7b0942694bea4ce44661d9a8736c6880180546001600160a01b0319166001600160a01b0383161790555b6001600160a01b038116600090815260056020908152604080832042905560069091528120805460019290610893908490610ece565b909155505050565b6108af336908e4d316827686400000610c47565b565b6108af33690a968163f0a57b400000610c47565b6108af3369032d26d12e980b600000610c47565b600180546108e690610ee1565b80601f016020809104026020016040519081016040528092919081815260200182805461091290610ee1565b801561095f5780601f106109345761010080835404028352916020019161095f565b820191906000526020600020905b81548152906001019060200180831161094257829003601f168201915b505050505081565b6108af33690fe1c215e8f838e00000610c47565b6108af336905ede20f01a459800000610c47565b6108af336904c3ba39c5e411100000610c47565b6108af3369065a4da25d3016c00000610c47565b6108af336903635c9adc5dea000000610c47565b6108af336902f6f10780d22cc00000610c47565b6108af3369043c33c1937564800000610c47565b6108af336903cfc82e37e9a7400000610c47565b6108af3369028a857425466f800000610c47565b6108af336902c0bb3dd30c4e200000610c47565b6108af336906c6b935b8bbd4000000610c47565b6108af336904a89f54ef0121c00000610c47565b6108af336907695a92c20d6fe00000610c47565b6108af3369039992648a23c8a00000610c47565b6108af336905150ae84a8cdf000000610c47565b6108af33690581767ba6189c400000610c47565b6108af33690405fdf7e5af85e00000610c47565b6108af3369054b40b1f852bda00000610c47565b60006001600160a01b038216610ae757506000919050565b6000546001600160a01b0390811690831603610b0f57506a295be96e64066972000000919050565b6001600160a01b03821660009081526005602052604090205415610b3e57506901b1ae4d6e2ef5000000919050565b5068bdbc41e0348b300000919050565b6108af33690ba58e545582d4600000610c47565b6108af33690878678326eac9000000610c47565b6108af336906fceeff6681b2a00000610c47565b600280546108e690610ee1565b6108af33690472698b413b43200000610c47565b6108af336903eae3130ecc96900000610c47565b6108af3369098774738bc822200000610c47565b6108af3369021e19e0c9bab2400000610c47565b6108af336905b7ac4553de7ae00000610c47565b6108af336904ded51e9cc700600000610c47565b6108af336902544faa778090e00000610c47565b6108af33690a2a15d09519be000000610c47565b6108af3369080bfbefcb5f0bc000005b6601c6bf52634000341015610c9e5760405162461bcd60e51b815260206004820152601760248201527f4665653a20302e3030303520455448206d696e696d756d0000000000000000006044820152606401610483565b610ca7826107dd565b600080546040516001600160a01b039091169034908381818185875af1925050503d8060008114610cf4576040519150601f19603f3d011682016040523d82523d6000602084013e610cf9565b606091505b5050905080610d3c5760405162461bcd60e51b815260206004820152600f60248201526e151c985b9cd9995c8819985a5b1959608a1b6044820152606401610483565b826001600160a01b03167fe34918ff1c7084970068b53fd71ad6d8b04e9f15d3886cbf006443e6cdc52ea683604051610d7791815260200190565b60405180910390a26040518281526001600160a01b0384169030907fddf252ad1be2c89b69c2b068fc378daa952ba7f163c4a11628f55a4df523b3ef9060200160405180910390a360405182815230906001600160a01b038516907f241fd5f10bad61ff60b8f85287ea70f7ef92742a1679bfb0fc43c66c9b0018089060200160405180910390a3505050565b634e487b7160e01b600052601160045260246000fd5b8082028115828204841417610e3157610e31610e04565b92915050565b602081526000825180602084015260005b81811015610e655760208186018101516040868401015201610e48565b506000604082850101526040601f19601f83011684010191505092915050565b600060208284031215610e9757600080fd5b81356001600160a01b0381168114610eae57600080fd5b9392505050565b600060018201610ec757610ec7610e04565b5060010190565b80820180821115610e3157610e31610e04565b600181811c90821680610ef557607f821691505b602082108103610f1557634e487b7160e01b600052602260045260246000fd5b5091905056fea26469706673582212203720c9d46f4a620ff06912f0d9e3ffdec29b5f85f9b6be5aa830f3991b7ba38564736f6c634300081c0033",
  "linkReferences": {},
  "deployedLinkReferences": {}
}